:020000040000FA
:06000000020A150201B323
:03002B000208794F
:030043000206F7BB
:030053000200E4C4
:100083000201480101FF01010503010F10FEFFA654
:1000930012A612A612A61262115C11A612631F0009
:1000A3000000002720000000000C0000000C0001ED
:1000B300FFFF0102007205000000E5056400020273
:1000C30000080000050207051E02051E020A0A03B6
:1000D300B80B02803E0102F1FF1496511800020290
:1000E30006C0E074F21203CCA2AFE433FED2AFE554
:1000F300A7FFE5A1F5085F54106006121A2675A143
:10010300EFE5085F54086008121A2C75A1F7802BDD
:10011300EFA2E0C0D0E508A2E092F012093C1581FD
:1001230082F05017906198E0F8900ABDE0C398A25E
:10013300D265D0335002E8F075A1FEEEA2E092AF93
:100143007F0102042BC0E074F21203CCA2AFE433AC
:10015300FED2AF9061A4E0F8759B00E59158540876
:1001630060087591F7121A74802AE591585410604B
:10017300087591EF121A7A801BE8A2E0C0D0E591CE
:10018300A2E092F012093C158182F05007E0C2E030
:10019300F0121BBE9061A3E0F8E5E9585404600E29
:1001A300121B9475E9FB906193E0A2E640F2808B09
:1001B300C0E074F21203CCA2AFE433FED2AF90617D
:1001C300A5E0F8E5BF585404600675BFFB121BD6C3
:1001D30002013EC3E498F8E499F91202178026C39A
:1001E300E49AFAE49BFBE920E7E9120217E498F8A2
:1001F300E499F922C3E498F8E499F9120217E49810
:10020300F8E499F9C3E49AFAE49BFB22EB20E7CFE5
:10021300E920E7E0B90010BB0008E88AF084F8AAF7
:10022300F022E4FBC8FA22EB70227B10C833C8C962
:1002330033C9335007C39AC3DBF280069A50012AAD
:10024300DBEAC833F4C8C933F4C9FA2275F008E409
:10025300C833C8C933C933C99AC99B5004C92AC909
:100263003BD5F0ECFBC833F4C8E4C9FA220808080C
:10027300EAC0E0EBC0E086F0E7A4FA180986F0E7ED
:10028300A42AFA180986F0E7A42AFA180986F0E7DF
:10029300A42AFA1986F0E7A4FBE5F02AFA190886DE
:1002A300F0E7A42BFBE5F03AFA190886F0E7A42B54
:1002B300FBE5F03AFA18180986F0E7A4C5F02BFB22
:1002C300E43AFA1908E7C5F0C6A426F6E5F03BFBC5
:1002D300E43AFA1886F0E7A4F6E5F00826F6E43BDC
:1002E30008F6E43A08F6D0E0FBD0E0FA22E4CFC007
:1002F300E0E4CEC0E0E4CDC0E0E4CCC0E075F020A3
:10030300C3E633F608E633F608E633F608E633F6D3
:10031300181818EC33FCED33FDEE33FEEF33FFC357
:10032300EC9709ED9709EE9709EF97191919400F03
:10033300FFEC97FC09ED97FD09EE97FE191906D519
:10034300F0BEECF709EDF709EEF709EFF719191904
:10035300D0E0FCD0E0FDD0E0FED0E0FF222518C5C0
:1003630082C0E0E51934FFC583C0E0E518C3958278
:1003730024F810AF088583198582188008858319AE
:10038300858218D2AFCEF0A3E520F0A37808E60863
:10039300F0A3DEFAEFF0A3E58124FAF8E608F0A370
:1003A300E608F0A3E608F0A30808E608F0A3E608C9
:1003B300F0A315811581D0E0FED0E0F815811581F9
:1003C3001581E8C0E0EEC0E022C0D02518C582C088
:1003D300E0E51934FFC583C0E0E518C3958224F333
:1003E30010AF088583198582188008858319858253
:1003F30018D2AFC8F0A3E9F0A3EAF0A3EBF0A37916
:1004030008E709F0A3D8FAECF0A3EDF0A3EEF0A30C
:10041300EFF0A3D0E0F0A3D0E0F0A3D0E0F0A3E5A9
:1004230020F0A3E5F0F0A322851983851882E0C0AC
:10043300E0A3E0F9A3E0FAA3E0FBA37808E0F60861
:10044300A3DFFAE0FCA3E0FDA3E0FEA3E0FFA3E04B
:10045300C0E0A3E0C0E0A3E0F5D0A3E0F520A3E073
:10046300A3F5F010AF08858319858218800885836A
:1004730019858218D2AFD082D083D0E0F8D0E03291
:10048300120A84B900030204C5E490030178847955
:100493000E8002F0A3D8FCD9FA901084AA82AB8311
:1004A300900086785F79018015E493A3AC82AD83D5
:1004B3008A828B83F0A3AA82AB838C828D83D8E953
:1004C300D9E77582DC7583FD74021207D875826AD9
:1004D30075831E74001207D80975F0108E1A8F1BCE
:1004E30085821F85831E851882851983E0CEA3E04C
:1004F300CF851F82851E83EBC9EAC8EDCBECCAC347
:10050300E833C8E933C9EA33CAEB33CBC3EA9EF510
:100513001DEB9FF51CB35004AB1CAA1DEC33CCEDB3
:1005230033CDD5F0DAAE1AAF1B22D083D082ECC024
:10053300E0EDC0E0E493A3FCE493A3FDED4C600D78
:10054300120605EC24FFFCED34FFFD80EFE493A3DA
:10055300FCE493A3FDED4C600D1206A2EC24FFFC1A
:10056300ED34FFFD80EFD0E0FDD0E0FCE493A3C0C9
:10057300E0E493C0E022851983851882E0A3FEE0BE
:10058300A3F5207808E0A3F608DFFAE0A3FFE0A3D1
:10059300C0E0E0A3C0E0E0A3C0E0E0A3C0E0E0A3CC
:1005A300C0E010AF088582188583198008858218FA
:1005B300858319D2AFD083D0820207DED083D08265
:1005C300E9C0E0E493A3C386F0C5F095F0F908E42D
:1005D30093A386F0C5F095F0700BE493A3C3994001
:1005E30005E9048002A3E475F002A42582F582E5FF
:1005F300F03583F583D0E0F9E493A3C0E0E493C03E
:10060300E022C0E0C3E49396087401939618400F68
:10061300E49366700808740193661870007019A358
:10062300A3C3E49396087401939618A3A3400DD033
:10063300E0D0E0D0E0020569A3A3A3A3A3A3D0E085
:10064300227404800474028000CCC0E0EDC0E0E5B5
:1006530018C39CCCAD1950011D10AF068C188D1911
:1006630080068C188D19D2AF12073CD0E0FDD0E084
:10067300FC2274028000CCC0E0EDC0E0E518C39C0E
:10068300CCAD1950011D10AF068C188D1980068C46
:10069300188D19D2AF12071AD0E0FDD0E0FC22C0AA
:1006A300E0C0F088F0E4936670080874019366185C
:1006B3007000A8F0A3A3700BD0F0D0E0D0E0D0E09E
:1006C300020569A3A3D0F0D0E022D083D082CCC0AE
:1006D300E0E493A3600612077C1470FAE493A3602A
:1006E300061208AA1470FAD0E0FCE493A3C0E0E475
:1006F30093C0E022C0E074F21203CCA2AFE433FE55
:10070300D2AFC2C0E5D1A2E4500312199CEEA2E01D
:1007130092AF7F0102042BCAC0E0E493A3C582CC4D
:10072300C582C583CDC583F0A3C582CCC582C583ED
:10073300CDC583DAE5D0E0CA22CAC0E0E0A3C58212
:10074300CCC582C583CDC583F0A3C582CCC582C584
:1007530083CDC583DAE6D0E0CA22C008C3E096F5AC
:100763000808A3E096420808A3E096420808A3E01D
:100773009645087001D3D00822C0E0E493A3D39C2C
:100783005010E493A3C39C400AD0E0D0E0D0E00231
:1007930006EAA3A3A3D0E022700908080822601682
:1007A300181818C6C333C608C633C608C633C608E6
:1007B300C633C6D5E0EA22C5822518C582C583356E
:1007C3001910AF07F5198582188007F51985821866
:1007D300D2AFC58322C09FF59FE473D09F22D083FD
:1007E300D082C09FE493C0E0740193C0E07402938D
:1007F300F59F222518F58210AF08F5184002151948
:100803008008F51840021519D2AF851983227404A4
:10081300800A74038006740280027401C0E0F40449
:100823001207F6D0E0120A5F22BB0102E722C08260
:10083300C08389828A83BB0003E08002E493D08370
:10084300D08222C0D0251810AF08F5185002051920
:100853008008F51850020519D2AFD0D022601608CF
:100863000808C6C313C618C613C618C613C618C6C7
:1008730013C6D5E0EA22C0E0C0D0E8C0E0E5A8D2C4
:10088300AFC2C7A2E792AFD0E0F8D0D0D0E032C376
:10089300E0C696F608A3E0C696F608A3E0C696F669
:1008A30008A3E0C696F622C0E0E493A36C7009D0D7
:1008B300E0D0E0D0E00206EAA3A3D0E0222518109E
:1008C300AF08F518400215198008F51840021519EC
:1008D300D2AF22E76670100809E766700A0809E7D5
:1008E3006670040809E76622E066701008A3E066F4
:1008F300700A08A3E066700408A3E06622C3E096CA
:1009030008A3E09608A3E09608A3E096A2D265D0D8
:100913003322C3E096F008A3E096F008A3E096F034
:1009230008A3E096F022E026F008A3E036F008A33F
:10093300E036F008A3E036F022C0E0E8C0E0E5814D
:1009430024FCF8E6A2E7D0E0F8D0E022E647F60878
:1009530009E647F60809E647F60809E647F622E0FE
:1009630026F608A3E036F608A3E036F608A3E03639
:10097300F622E627F60809E637F60809E637F60809
:1009830009E637F622E657F60809E657F60809E6B8
:1009930057F60809E657F622E056F608A3E056F69E
:1009A30008A3E056F608A3E056F622E056F008A3A3
:1009B300E056F008A3E056F008A3E056F0227004D6
:1009C30022600D18C6C333C608C633C6D5E0F41873
:1009D30022E4C396F608E496F608E496F608E4964D
:1009E300F622C6F4C608C6F4C608C6F4C608C6F49A
:1009F300C622C3E7960809E7960809E7960809E7B8
:100A03009622C3E09608A3E09608A3E09608A3E025
:100A1300962275D00075814075180175190300027F
:100A23000483600C08C6C313C618C613C6D5E0F406
:100A330022E6F008A3E6F008A3E6F008A3E6F02216
:100A4300E0F608A3E0F608A3E0F608A3E0F622C563
:100A5300822518C582C5833519C58322CAC0E0E63D
:100A6300F0A308DAFAD0E0FA22E0FAA3E0FBA3E06D
:100A7300FCA3E0FD22EAF0A3EBF0A3ECF0A3EDF07E
:100A830022E5C754F84401F5C77901222518F582F8
:100A9300E43519F58322C2AF75D69F0200002212F6
:100AA30007E1A9E2021207E1F6E3021207E199E482
:100AB300021207E1E0E5021207E1FEE5021207E197
:100AC3007722001207E18922001207E1DB220012DC
:100AD30007E13C23001207E1C623001207E16A2461
:100AE300001207E1BE24001207E1D724001207E138
:100AF300FD24001207E13825001207E17C250012CE
:100B030007E1A325001207E1F425001207E1A4265B
:100B1300001207E15C27001207E12428001207E115
:100B2300E428001207E12829001207E14D290012E9
:100B330007E19029001207E1DD29001207E1352BB7
:100B4300001207E1BB2B001207E1D92B001207E1CA
:100B5300032C001207E11D2C001207E12C2C0012BC
:100B630007E1372C001207E1F72C001207E1502DA3
:100B7300001207E1122E001207E11A2E001207E1FC
:100B8300DE2E001207E14A2F001207E17530001232
:100B930007E19A30001207E11031001207E1A23198
:100BA300001207E16232001207E18132001207E10D
:100BB3009033001207E1A233001207E1123400124E
:100BC30007E13C34001207E1CA34001207E10335A0
:100BD300001207E14F35001207E16B36001207E1FF
:100BE300B438001207E1BF38001207E1CA38001217
:100BF30007E1D538001207E1DF38001207E1EA38D0
:100C0300001207E10439001207E10E39001207E16F
:100C13001839001207E12339001207E14B3900129A
:100C230007E1A639001207E1B039001207E1D43910
:100C3300001207E1F839001207E1563A001207E102
:100C43009A3A001207E1B63A001207E12D3B00126F
:100C530007E1653B001207E1B13B001207E10E3CDF
:100C6300001207E1C83C001207E1AC3E001207E1A5
:100C7300053F001207E13540001207E15B40001217
:100C830007E1E441001207E16045001207E1324742
:100C9300001207E1FB48001207E1A849001207E12F
:100CA300134B001207E1B24B001207E1F74B00129E
:100CB30007E1614C001207E1704C001207E1F74EA7
:100CC300001207E1A950001207E11651001207E1D3
:100CD300F551001207E10E53001207E18B54001285
:100CE30007E1AA54001207E1FF54001207E104567A
:100CF300001207E12C56001207E18456001207E1A7
:100D03006357001207E1A757001207E1F2570012D9
:100D130007E15D58001207E19E59001207E1025AEC
:100D2300001207E1505B001207E1B05D001207E11A
:100D3300E15D001207E1995F001207E1EE5F001227
:100D430007E1F260001207E18F61001207E1E86139
:100D5300001207E19B62001207E13D63001207E105
:100D6300DD63001207E18264001207E13A81011298
:100D730007E17981011207E1C083011207E10A84C7
:100D8300011207E12585011207E18D85011207E1B3
:100D9300C285011207E13687011207E1B989011201
:100DA30007E1E28A011207E1788B011207E18094DF
:100DB300011207E11595011207E1FC97011207E102
:100DC300EF98011207E15D99011207E1A39A01125D
:100DD30007E1859B011207E16A9D011207E17B9FF1
:100DE300011207E1E59F011207E1B7A0011207E134
:100DF300E5A0011207E1A2A1011207E179A2011204
:100E030007E140A3011207E1E4A3011207E10DA4E6
:100E1300011207E12FA4011207E185A6011207E1E0
:100E23005DA7011207E1A1A7011207E109A80112B9
:100E330007E1C1A8011207E1F3A8011207E137A9ED
:100E4300011207E16DA9011207E1B9A9011207E136
:100E53000EAA011207E113AA011207E166AA011201
:100E630007E18BAA011207E19AAB011207E1FEAB7E
:100E7300011207E16EAC011207E1FAAC011207E1BE
:100E8300C7AF011207E1ABB0011207E12EB20112A5
:100E930007E164B4011207E112B5011207E1C2B51B
:100EA300011207E103B8011207E1A6B8011207E135
:100EB300EDB8011207E199BA011207E1ADBA0112C7
:100EC30007E1B7BA011207E1DFBA011207E1EBBA92
:100ED300011207E10ABB011207E12ABD011207E172
:100EE30079BE011207E1BDBE011207E165BF011220
:100EF30007E148C0011207E1F3C0011207E13FC255
:100F0300011207E13DC3011207E1E3C3011207E147
:100F130073C4011207E18AC4011207E1C1C40112BB
:100F230007E1CBC4011207E1D6C4011207E1F4C4FF
:100F3300011207E138C5011207E195C5011207E166
:100F4300BAC5011207E1D4C5011207E160C6011257
:100F530007E17DC7011207E1EAC7011207E1D1C822
:100F6300011207E1F8C8011207E16CC9011207E198
:100F7300E7C9011207E1EBCA011207E1E1CB011254
:100F830007E190CC011207E1A3CD011207E13FCEA7
:100F9300011207E1CCCE011207E1AACF011207E14A
:100FA300E2CF011207E13AD0011207E103D10112A6
:100FB30007E124D1011207E1ABD1011207E1CFD13F
:100FC300011207E1F1D1011207E13AD2011207E15F
:100FD30050D4011207E137D5011207E1E8D5011218
:100FE30007E11ED8011207E16ED8011207E1AED85E
:100FF300011207E1F0D8011207E14CD9011207E110
:101003007AD9011207E19ED9011207E1F1D9011240
:1010130007E11FDA011207E158DA011207E1ADDA3D
:10102300011207E113DB011207E167DC011207E19B
:101033008ADE011207E1F7DE011207E120DF011268
:1010430007E1ABDF011207E112E0011207E15DE006
:10105300011207E181E0011207E1A5E0011207E1B6
:1010630000E1011207E11BE1011207E1D4E10112E2
:1010730007E11CF2031207E15BF2031207E1788038
:10108300021207E1BE80021207E19E81021207E10C
:10109300A082021207E1A383021207E12F85021245
:1010A30007E18D85021207E14A86021207E168878C
:1010B300021207E1D987021207E11588021207E13C
:1010C3006388021207E16D88021207E1B1880212F8
:1010D30007E10D89021207E1A889021207E1258AB7
:1010E300021207E1F48A021207E18D8B021207E173
:1010F300AD8B021207E1E38B021207E1148C02129B
:1011030007E1D58C021207E1E58C021207E1398D64
:10111300021207E1548D021207E1668D021207E104
:101123006F8D021207E1C98D021207E1258E0212AB
:1011330007E1718E021207E18C8E021207E1BD8E68
:10114300021207E1DA8E021207E1E68E021207E1CC
:101153005A90021207E17390021207E1DA90021229
:1011630007E1ED90021207E1FB90021207E1AF9154
:10117300021207E19392021207E19993021207E127
:101183002394021207E12D94021207E19A940212AA
:1011930007E1B194021207E1E394021207E11C95FF
:1011A300021207E14695021207E1A795021207E131
:1011B300C795021207E1E595021207E12B96021289
:1011C30007E15197021207E19E97021207E1CD97BB
:1011D300021207E14398021207E16B98021207E13A
:1011E300A498021207E1B298021207E10A990212C7
:1011F30007E15999021207E19899021207E1C89988
:10120300021207E1F499021207E1FF99021207E1C2
:101213001D9A021207E1DF9A021207E1E99A02120C
:1012230007E12A9B021207E17F9B021207E1939BCE
:10123300021207E1A19C021207E1B49C021207E12A
:10124300C99C021207E16B9D021207E1EE9D021297
:1012530007E1AC9E021207E1B79E021207E1E39F8A
:10126300021207E1FF9F021207E151A0021207E1F8
:1012730090A0021207E1A5A0021207E107A1021242
:1012830007E196A1021207E1E1A1021207E132A4EC
:10129300021207E1B0A4021207E125A5021207E139
:1012A30047A7021207E15FA7021207E162A7021232
:1012B30007E16EA7021207E182A7021207E18AA7DC
:1012C300021207E1BDA7021207E16DA8021207E1AE
:1012D300E3A8021207E156A9021207E10AAA0212C1
:1012E30007E1BFAA021207E1DEAA021207E184ABFB
:1012F300021207E1AFAB021207E1B2AB021207E140
:101303001CAC021207E144AD021207E11CAE02124B
:1013130007E1A7AE021207E1C0AF021207E17DB0F9
:10132300021207E1B6B0021207E1E7B0021207E1C9
:10133300A5B1021207E1D5B1021207E1B0B2021260
:1013430007E149B3021207E1D4B3021207E185B4FE
:10135300021207E108B5021207E13AB5021207E1EA
:101363007BB5021207E198F5011207E1FDF50112C1
:1013730007E13AF6011207E189F6011207E19FF846
:10138300011207E182FA011207E1ECFD011207E104
:1013930027FE011207E149FE011207E1ACFE01122B
:1013A30007E1E0FE011207E103FF011207E130FF4D
:1013B300011207E18CFF011207E1108D031207E10F
:1013C3008E8D031207E1C48D031207E1308E0312E1
:1013D30007E186D6021207E1BF8F031207E10490EB
:1013E300031207E19290031207E1EB90031207E166
:1013F3001892031207E12A93031207E1879303125A
:1014030007E1F393031207E15494031207E1959460
:10141300031207E14295031207E15496031207E111
:101423007F96031207E1CA96031207E1119703128D
:1014330007E154E0021207E15E98031207E1E5BFFA
:10144300031207E158C0031207E16BC0031207E15F
:1014530080C1031207E181C3031207E13FC40312F2
:1014630007E119A0031207E165A0031207E1D3A066
:10147300031207E1F4A0031207E1A4A1031207E199
:10148300ADA1031207E100A2031207E129A203128F
:1014930007E190A2031207E121A3031207E163A36B
:1014A300031207E1ADA3031207E10CA4031207E142
:1014B30038A4031207E1C9A4031207E108A5031224
:1014C30007E147A5031207E17CA5031207E18EA5F7
:1014D300031207E1A0A5031207E1BFA5031207E169
:1014E300C8A5031207E17EA6031207E1BEA60312F5
:1014F30007E136EE031207E11EE4031207E154E4A9
:10150300031207E19DE4031207E1EDE5031207E18E
:101513000EE2011207E14DE3011207E189E3011233
:1015230007E148E5011207E171E5011207E104E86B
:10153300011207E148E8011207E1D1E9011207E1CD
:1015430069EA011207E1D1EA011207E172EB011224
:1015530007E1B4EB011207E1F4EB011207E17FEDC0
:10156300011207E1EFEE011207E114F1011207E1A5
:1015730042F1011207E169F1011207E172F101126F
:1015830007E1F9F1011207E117F5011207E13DF354
:10159300031207E153F3031207E1D1F1031207E149
:1015A30078D6031207E18BD6031207E128D703127B
:1015B30007E163D7031207E17ED7031207E1A3D73D
:1015C300031207E1E8D7031207E119D8031207E171
:1015D3004AD8031207E1D0D9031207E109EF031236
:1015E30007E13FEF031207E15BEF031207E19DEF12
:1015F300031207E1ADEF031207E1E7A6031207E1C8
:10160300CCA7031207E1FAA8031207E116A90312F4
:1016130007E185AA031207E10BAB031207E164ABF1
:10162300031207E13FAC031207E1DDD9031207E11F
:1016330027DA031207E15BDA031207E1C0DA0312C8
:1016430007E1EFDA031207E1B2DB031207E10080DF
:10165300031207E15280031207E13B81031207E102
:10166300D481031207E11E82031207E17B82031276
:1016730007E1AD82031207E1AB83031207E1EF83B6
:10168300031207E10A84031207E15984031207E1F5
:101693006F84031207E17C84031207E1B084031211
:1016A30007E1C984031207E19385031207E1ED857E
:1016B300031207E13B86031207E15D86031207E18C
:1016C300D488031207E10989031207E199890312F8
:1016D30007E10E8A031207E1138A031207E14F8A17
:1016E300031207E1A58A031207E1698B031207E1DD
:1016F3008E8B031207E1988B031207E19B8B031276
:1017030007E1248C031207E13F8C031207E1528C9B
:10171300031207E18D8C031207E1908C031207E19A
:101723009B8C031207E1D78C031207E184F10312A8
:1017330007E19CF1031207E1D598031207E124990D
:10174300031207E1C69A031207E1829C031207E121
:10175300CA9C031207E1B29D031207E1E39E031241
:1017630007E1059F031207E1619F031207E1E59F6C
:10177300031207E1CE64001207E1EF64001207E1F0
:101783006C65001207E1F165001207E16D66001256
:1017930007E1D666001207E12267001207E1A1679D
:1017A300001207E13368001207E1BF68001207E186
:1017B3000169001207E14A6D001207E1CA6E0012C7
:1017C30007E1A06F001207E1CF6F001207E1BA71C2
:1017D300001207E13A74001207E1F374001207E103
:1017E3001076001207E16779001207E1777900129A
:1017F30007E1D87A001207E1647B001207E18D7CD0
:10180300001207E17E7D001207E1007E001207E16E
:1018130025E6021207E1DFE6021207E151E70212B1
:1018230007E1EDE7021207E15DE8021207E116EBBB
:10183300021207E1EDEB021207E15AEC021207E193
:10184300D7ED021207E1A1EE021207E111EF021236
:1018530007E1DAF0021207E1EDF1021207E186F285
:10186300021207E14CF3021207E14FC8031207E12A
:10187300A3C8031207E1FBC8031207E146C9031219
:1018830007E1A8C9031207E114CA031207E1C7CA93
:10189300031207E108CB031207E11ECB031207E192
:1018A3007ACB031207E1B8CB031207E150E6031228
:1018B30007E181E6031207E13BE7031207E1A1E732
:1018C300031207E15BFE021207E112F3031207E1C1
:1018D30023F3031207E12AE8031207E138E80312AE
:1018E30007E1E7FF021207E157F0031207E167F090
:1018F300031207E17FF0031207E1C7F0031207E1C8
:1019030034ED031207E1B9ED031207E11DEE0312F3
:1019130007E1F97F001207E173CF031207E189CFD3
:10192300031207E1B2CF031207E1CDCF031207E1A0
:10193300E8CF031207E1F2CF031207E1FCCF031252
:1019430007E10FD0031207E128D0031207E1CFD03C
:10195300031207E14ED1031207E1E9CB031207E1BA
:10196300F7CB031207E171CC031207E155CD031244
:1019730007E10ECF031207E1D8FF011207E1C2AC62
:10198300031207E12EAD031207E1EDAD031207E1E8
:10199300F7AE031207E150B0031207E1ABB0031235
:1019A30007E100B1031207E109B1031207E11BB11B
:1019B300031207E185B1031207E199B1031207E1AD
:1019C300A3B1031207E174B6031207E1C9B6031208
:1019D30007E1C5B8031207E1F7B8031207E119B924
:1019E300031207E132B9031207E14BB9031207E10E
:1019F30055BA031207E1F0BA031207E1987E001209
:101A030007E1BC7E001207E1D57E001207E1087FE3
:101A1300001207E1397F001207E1677F001207E137
:101A2300C97F001207E1D87F001207E1E27F0012AD
:101A330007E1EF7F001207E1CBDC031207E1F1DCE2
:101A4300031207E12EDD031207E13DDD031207E177
:101A53005CDD031207E1C4DD031207E1CDDD0312F0
:101A630007E12CDE031207E150DE031207E10FDF6B
:101A7300031207E11CDF031207E12DDF031207E165
:101A8300A9F2031207E1C6F2031207E167BB0312CF
:101A930007E1C5BC031207E1D2BC031207E1E5BCB1
:101AA300031207E104BD031207E11ABD031207E1A4
:101AB3002EBD031207E1A3BD031207E108BE031203
:101AC30007E1B8BE031207E18DBF031207E19DBF13
:101AD300031207E1ACBF031207E1BEEF031207E1F4
:101AE300E2EF031207E10AF0031207E132F00312F7
:101AF30007E15BDF031207E182DF031207E1A3DFE4
:101B0300031207E108E0031207E1C1E1031207E151
:101B1300DAE1031207E1E6E1031207E1FAE1031256
:101B230007E118E2031207E122E2031207E12CE2C4
:101B3300031207E13FE2031207E192E2031207E116
:101B4300CBE2031207E1FAE2031207E148E30312CF
:101B530007E197E3031207E1B2E3031207E1BCE3F2
:101B6300031207E1CDE3031207E113E4031207E1D4
:101B730033F1031207E1A0F4021207E1CAF40212DF
:101B830007E1E6F4021207E1F9F4021207E10FF5A7
:101B9300021207E16CF5021207E19FF5021207E159
:101BA300DBF9021207E101FB021207E134FB021227
:101BB30007E180FB021207E1ACFC021207E1D4FC4F
:101BC300021207E1E9FC021207E1F9FC021207E144
:101BD3003DFD021207E19EFD021207E1AEFD021276
:101BE30007E1E2E9031207E1FDE9031207E126EA4F
:101BF300031207E140EA031207E165EA031207E172
:101C030084EA031207E19CEA031207E1CAEA03121A
:101C130007E1E4EA031207E165F2031207E1F8D2F0
:101C2300031207E1FFD2031207E10BD4031207E10A
:101C33003BD4031207E161D4031207E184D40312F6
:101C430007E1A6D4031207E1E0D4031207E146D566
:101C5300031207E17FD5031207E1CBD5031207E196
:101C6300F8D5031207E118D6031207E128EC031293
:101C730007E140EC031207E12EED031207E131ED1A
:101C8300031207E115EB031207E187EB031207E1E8
:101C9300C5EB031207E106EC031207E18EC403123E
:101CA30007E1ADC4031207E1FCC4031207E118C541
:101CB300031207E149C5031207E156C5031207E101
:101CC30063C5031207E14FC6031207E18DC6031272
:101CD30007E19DC7031207E1A8C7031207E1BAC7CB
:101CE300031207E1C3C7031207E1CDC7031207E1DC
:101CF300B7B1031207E1FCB5031207E10AB60312F9
:101D030007E1E5F2031207E15DF3031207E1D0F007
:101D1300031207E1DAD5021207E120D4021207E128
:101D2300D0D1021207E157D1021207E1FED002120D
:101D330007E18ED0021207E165D0021207E145CE1A
:101D4300021207E111CE021207E1DECD021207E112
:101D5300C2CD021207E1DBCC021207E193CC0212DF
:101D630007E1DECA021207E15ECA021207E15BCA9B
:101D7300021207E158C9021207E126C9021207E15C
:101D830063C8021207E18EC6021207E11FC60212E0
:101D930007E1F1C5021207E172DF021207E156DF24
:101DA300021207E1F6DE021207E1AEDE021207E1DC
:101DB300FCDD021207E1EEC5021207E1DBC50212E8
:101DC30007E186C5021207E16EDD021207E175C560
:101DD300021207E167C4021207E131C4021207E1EC
:101DE300DFC3021207E180C3021207E161DD0212C1
:101DF30007E15BDA021207E1A397031207E14FC37E
:101E0300021207E117C0021207E1D7BF021207E16E
:101E1300CBBF021207E12BBF021207E16BBE021216
:101E230007E1EDBB021207E17EB9021207E13CB9FB
:101E3300021207E110B8021207E1C5B7021207E167
:101E430004B7021207E1D7B6021207E11AB602126B
:101E530007E1EAB5021207E1BDD7021207E1B0B507
:101E6300021207E1A38F0300000080FBE47300016B
:101E730036360101000102010001030100010401E2
:101E8300060605020000070100340801000F0904DB
:101E930001010D0100FF0E080000170200001901E7
:101EA30000FF1A0100011B0100FE1C0100081D02B6
:101EB30000001F0100012001000121020000230195
:101EC300000F240200002601000127010008280258
:101ED30000FF2A0100072B0102402C0100002D0105
:101EE30000012E0100012F0100FF30010B1C3108FE
:101EF30000003A0100083B01000F2F01000003021C
:101F03007102300160021102700201020202020238
:101F13008002100261023A004100630273027202FE
:101F230062024302000213023800000200020402AC
:101F3300120200020002000200020402040237003F
:101F430037003C024402000239000002000265022D
:101F530000023502810200020502820283020002AE
:101F63000300710030016000110070003102200392
:101F7300500480001000610000001400630073002F
:101F8300720062004300000013000600000000001E
:101F93000400120000000000000000000400040020
:101FA300370037003C02440000000000000000003E
:101FB300650000003500810000000500000083007B
:101FC3000000030471040204600411047004020499
:101FD30002040104020410046104000414046304F1
:101FE300730472046204430400041304060400042B
:101FF3000004040412040004000400040004510457
:102003006400000400040004440400040004000409
:10201300000465040004350481046400050400041D
:10202300830400040103710301030103010301039A
:10203300010322030203010310030003000300034F
:102043000003000300030003420300032403060309
:1020530000030003040312032503230325032303BF
:102063000403040300030003000344030003000309
:1020730023030003650321003503810300030503E4
:1020830000030003000301017101010101011101BA
:1020930001013101010101018001100161013B00D6
:1020A3001400630173017201620143010001130112
:1020B30006013D0135000401120100010001000188
:1020C300000104010401330133013C0144013201E5
:1020D30036000001000165010001350081010001A6
:1020E30005018201830100013600010006000000A2
:1020F3000F0000000000000000000000000003FFCC
:10210300FF00000403FFFF0000FFFF0FF4010005C1
:10211300C4040320000100030B00000000000000C2
:102123000003010F000028181300C8170100281826
:10213300020092170300981704009E170500A417C6
:102143000600B017FFFF000001B40D06E40D08DE22
:102153000D0BF00D10300D02BA0D05D20D07C00D99
:102163000C960D0DA80DFF000003EAF5E5D5D5C5C6
:10217300B5A595958585757565655555454535357C
:102183002525151505BC11EC11C211C811E611DA8C
:1021930011D411F211F811FE110A12CE11B611B0B9
:1021A3001100160F00000B150B020002220F320064
:1021B3000006A612B812BE128611C41280118C1129
:1021C300C010BA10F610FC10F010A81000131E1364
:1021D3002413061312130C13303016181920231A64
:1021E3001C1E300C0E020B040B0A0708000F0038EC
:1021F3003C3E363B3B352B432C30301718192130EE
:102203001B1D1F3000011916181616152303000095
:10221300034948424D1817250502F412CA12D01279
:10222300DC12D612E0110412181310121612020453
:1022330002010101010902CC10D210C610021100E3
:102243000000000000D810EA1000BE040A0E0015BA
:102253000004007F00E8030C0028000000000003D6
:1022630008100C0A03080900040001FF1E1E0C05D8
:10227300040F1008C082C0838A828B83E0D2E7F008
:102283001216F60233EEC082C0837900122743127E
:10229300545AC082C0839003341241E0D083D08269
:1022A300C3E09CA3E09D500C125B2EFAA3E0122224
:1022B300BA6001090233EEFBEA75F00BA4FAA8F049
:1022C30075F00BEBA428FB900336E02AF8A3E03B60
:1022D3008882F583E0540F2274F712036089081291
:1022E30027431227E9ACF075F00BE9A42CF990030E
:1022F30036E028FEA3E039FF740165086006740226
:10230300650870208A828B831227D51234BC74022D
:102313006508701B12269412281C70138E828F83FB
:10232300E4F0800BEA2403FCEB1227B71227C3EE79
:10233300FAEFFB120AC002342674F412036012642B
:102343005579008E828F83E06076890A890B8065D8
:10235300E50A75F00BA4FAA8F075F00BE50B122251
:10236300C77046E50A75F00BA4F8AAF075F00BE503
:102373000B1227FB8E828F83E085088285098312E7
:1023830028DD850882850983A31234BCEE2403FC6F
:10239300EF1227C01233F5124ED4AA08AB09120A62
:1023A300C079019003341248E9E50A2401F50AE5EE
:1023B3000B3400F50B12269CE50A9AE50B9B409023
:1023C30002366674F5120360EAFEEBFF740B120A21
:1023D3008F1233FA750A01EC4D602BEC126471ED28
:1023E30012545A1234B47901120ACCE50845096033
:1023F3006F850882850983A312645F7902AA08ABFB
:1024030009120ACC805AE5084509602B12545E1262
:102413003B281233F6122806700CEEFAEFFB120A71
:10242300D2E9F50A80CBEE2403FA12273E70317904
:1024330003EEFAEFFB80CA8E828F83A3E064FE7003
:1024430003A3E0F4700BEE24030A0A0A12273E707A
:102453000CEEFAEFFB120AD2E9F50A8003750A00C3
:10246300A90A7F0302057974F712036090033412FB
:102473003436EA4B602FEA75F00BA4FAA8F075F036
:102483000BEBA428FBEAFEEBFF12150490033612B4
:10249300343690033612472E6012EEFCEFFD7900BE
:1024A30012146E8007900336E4F0A3F002342690F2
:1024B3000334123E98C3EE98EF9922C082C083EC96
:1024C3004D6005121C9680097C087D00790012146A
:1024D3006E0233EE74F61203607900EA4B601878EB
:1024E3000088081257A1EB125B2A6004790178086F
:1024F30008E8C3940840EA0234C574F71203607411
:10250300F31208C0ECFEEDFF851882851983E4F011
:1025130004120A8FEAF0A3EB124C5A7403120A8FC7
:10252300AC82AD83EEFAEFFB120AE4EEFAEFFB1294
:102533000AEA02342174F712036074F31208C0EC40
:10254300FEEDFF851882851983E4F0EAFCEBFD7448
:1025530003120A8F1228D67401120A8F1234B08E16
:10256300828F831234BC74FE68700374FF69600445
:1025730079018002790002342174F7120360EAFEC4
:10258300EBFF1225DA70141225E58E828F83E0F4B7
:10259300F88A828B83E058F0120AC0A90802342615
:1025A30074F7120360EAFEEBFF7508008E828F83D7
:1025B300E060221225DA701D1225E58A828B83E002
:1025C3008F838E82F8E058700CE0F88A828B83E068
:1025D30048F0120AC080C4120AC6E9F508740165FE
:1025E300082212646A1227ED12272FFAA3E039FB9F
:1025F3002274F41203608A088B097C007D00122682
:10260300941227C312275412645C790085088285CB
:102613000983A3E064FE7003A3E0F460717E007F8E
:10262300008062EEFAEF1222BA6057EEFAEFFBEA8D
:1026330075F00BA4FAA8F075F00BEBA428FB90033C
:1026430036E02AF50AA3E03BF50B8508828509836A
:10265300A3124BA8850A82850B83A3E06A7003A3A8
:10266300E06B701EE50A2403FAE50B12273F700A9C
:10267300E50A2403FCE50B1227C01227487901124F
:10268300547012303312269CEE9AEF9B409502361B
:1026930066EA24030A0A0AEB22900334125047C362
:1026A3002274F31203608A088B098A828B83A31234
:1026B300645F12274312645C750C00122694122780
:1026C3003F70547E007F008049122721FAA3E0392E
:1026D3008A82F583E0540F6036122721F50AA3E0BE
:1026E30039F50BE50A2403FCE50B1227CA3400FB7A
:1026F300121C90E964017017850A82850B83A3126B
:102703005108A31234BC122748750C0112547012DD
:1027130030331224B240B2A90C7F05020579EEF8DA
:10272300EFF9E875F00BA4F812272F22AAF075F041
:102733000BE9A42AF9900336E02822EF1228162287
:10274300126470EB2212275412546BEEF0A3EFF0D5
:1027530022E508126471E5092274F5120360EAFEAA
:10276300EBFF8E828F83A312645F7C007D00EE24D7
:10277300030A0A0AEF1227C3EEFAEFFB120AC6E9AD
:10278300F50A7401650A702912646A1227E9AAF02E
:1027930075F00BE91227FB850882F5831227D51202
:1027A3002806700DE5082403FCE5091227B7122754
:1027B300C30224633400FDEE2403FAEF221227CA76
:1027C3003400FB120AE4223400FDE5082403FAE591
:1027D3000922A31227DA221227DE22E0F8A3E0F966
:1027E3008E828F83A3221227ED223400F583123EBB
:1027F3009CE875F00BA4F822122735F508A3E039FD
:10280300F50922E8F0A3E9F0E5082403FAE5091243
:1028130028162212281C6401223400FB120AEAE95A
:102823002274F312036074E61208C0126455750C27
:1028330001750800750900750A00750B008518827B
:10284300851983E4F0EE2403FCEF3400FD740312D6
:102853000A8F1228D6E964017023740B120A8F12AF
:1028630034B47401120A8F124BAC7003A3E0696095
:1028730051851882851983858208858309740D1211
:102883000A8FE41228DD740E120A8F1234BC740D01
:10289300120A8FAA82AB83120B08E96401700B74CE
:1028A3000D120A8F85820A85830B780A120819ACE8
:1028B30008AD09EEFAEFFB120AD87402120846E9D2
:1028C300F50CEEFAEFFB120B02A90C741A12084670
:1028D30002271C122BA9120B0E22123431123E981E
:1028E30022C082C0837800790080031229D4122683
:1028F3009CE89AE99B5029E8FAE9FBEA75F00BA4F6
:10290300FAACF075F00BEBA42CFB900336E02AFC39
:10291300A3E03B8C82F583E0540F70CF79008002F3
:1029230079010233EEC082C083902252123EEEEC54
:1029330075F012A4FCA8F075F012EDA428FD79FF40
:102943007A2C7B0B12146E0233EE74F7120360E9D8
:10295300FEEAFF7A007B00780079008028E8FCE932
:10296300FDEC75F012A4FC85F00875F012EDA425BA
:1029730008122DE9C39E400AE0FCEFC39C400312FA
:102983002F081229D4122DDD40D3023426C082C071
:10299300837800790080031229D41229C8501F12AA
:1029A3002DEDF470F2E875F012A4F8AAF075F012A8
:1029B300E9A42AF9742C28FA740B39FB80047A00F1
:1029C3007B000233EE902252122E9EC3E89AE99BBB
:1029D30022E8240108E93400F92274F01203607438
:1029E300F31208C08A0A8B0B8C0C8D0D8908EC45F9
:1029F3000D6016AA0CAB0D120B5C8A0E8B0FAE0E7C
:102A0300AF0FEE4F6003022A9B120B328A0E8B0F1D
:102A1300A80EA90FE8FEE9FFE849607C9022601246
:102A23002AFD602274036508600674046508701645
:102A33007A047903120B2C902260122B1440077A2C
:102A4300007B00022AFA90225E122AFD601B7401A9
:102A53006508600674026508700F7A027901120B2B
:102A63002C90225E122B1450D685188285198374FC
:102A730001F0120A8F124ED4AC0CAD0D7403120A7E
:102A83008F122BA2740B120A8F12340212389CE499
:102A9300124EBC1210008004EE4F604A780074FF9F
:102AA3002508C39404500278048E828F83124ED477
:102AB3008E828F83A3A3A3A3E508F0E88E828F837E
:102AC300A3A3A3A3A3124EDC12020F122EB58E8270
:102AD3008F83A3A3A3A3A3A3A3F0122EAC120A6C08
:102AE300125454120A78122B024005901088E4F015
:102AF300120EDAEEFAEFFB023EA2124FF649227AE9
:102B0300047900120B2C902252125B10EA98EB9975
:102B130022122B2D758322758252E493C398F8A356
:102B2300E49399F9C3EA98EB9922E493F874019337
:102B3300F92274F212036074F31208C08A088B0935
:102B4300ECFEEDFF750A00EEFAEFFB120B5C8A0C4C
:102B53008B0DA80CA90DE849603E88828983E06546
:102B6300087004A3E06509602F88828983A3A3A367
:102B7300A3E0C3940550211253028518828519835B
:102B83007401F0120A8F125306EEFCEFFD74031268
:102B93000A8F122BA2750A01A90A740D0249A01209
:102BA3002BA9120B1A22AA82AB83120AE48518827C
:102BB300851983AA82AB832274F6120360122BF762
:102BC300600FA3A3A3A3E014C3940450047901806A
:102BD3000279000234C574F6120360122BF7600FFA
:102BE300A3A3A3A3E014C394025004790180027940
:102BF300000234C5120B568A828B83E582458322F9
:102C030074F6120360122BF7600BA3A3A3A3E07067
:102C1300047901800279000234C5C082C083EAFCD2
:102C2300EBFD7A007B000233EBC082C0837C007D26
:102C3300000233EB74F412036074F31208C0EAFE6B
:102C4300EBFF8C0A8D0BC3EC94F8ED94FF4007EE79
:102C53004F7003022CF0750800750900802E85184B
:102C6300828519837401F012305B120A8F12306966
:102C730060137403120A8FAC82AD83EEFAEFFB127A
:102C83001C90E97049E5082401122E89902252E430
:102C9300124FFEE50898E509995052E50875F012C0
:102CA300A4F8AAF075F012E509A42AF9125B4360AF
:102CB300D4EE4F70A974FF650A700474FF650B604E
:102CC300C412304B650A7004A3E0650B70B7E508C6
:102CD30075F012A4F508A8F075F012E509A428F51B
:102CE30009742C2508FA740B3509FB80047A007BE0
:102CF3000002366174F412036074F31208C075089D
:102D030000120B5C8A0A8B0BAE0AAF0BEE4F602AE4
:102D1300851882851983740112342BF8A3E0F974A2
:102D23000B120A8F12353F120AFC7C127D0079FFC9
:102D3300EEFAEFFB12146E750801122B0250099084
:102D430010887401F0120EDAA90802366174F712C2
:102D53000360E9FE74FE6A700374FF6B7800790008
:102D6300700580521229D4122DDD504AE8FCE9FD8A
:102D7300EC75F012A4FCAFF075F012EDA42F122D38
:102D8300E9F460E0E8FCE9FDEC75F012A4FC75F0F1
:102D930012EDA42FFD742C2CF582740B3DF583E00A
:102DA3006A7003A3E06B70BC8009122DED14C39409
:102DB3000440171229D41229C85018EE70EC122DB2
:102DC300ED64016005E0640370E912303CFAA3E0AE
:102DD300FB80047AFE7BFF023426902252123EF2DD
:102DE300C3E89CE99D22122F3D22E8FAE9FBEA752C
:102DF300F012A4FAACF075F012EBA42CFB74302A99
:102E0300F582740B3BF583E022120B6E0233EEC0A6
:102E130082C083790180F274F01203608A0A8B0BFB
:102E23007A047901120B2C8A0C8B0DEA450D603E56
:102E3300EAC333FAEB33FB1215048A088B09AE0895
:102E4300AF09EE4F60237AFE7BFF120B7474FE6AA8
:102E5300700374FF6B601B85088285098312343607
:102E6300E5082402122E8980E1750C0080047E009F
:102E73007F00850A82850B83E50CF0EEFAEFFB02F7
:102E83003EA7E5082407F508E5093400F509229073
:102E93002252123EF2C3EA9CEB9D22E493FA7401A0
:102EA30093FB22121462740322125465E4F090819E
:102EB3001122E88E828F83A3A3A3A3A3A3A3A312A8
:102EC3002ED77401122ED7A3F0EE2410125468E407
:102ED300F0A3F0221238A8A3A3A322C082C0837A4E
:102EE300007B00800419122F08122E925010122F0B
:102EF30027C3940550F0E970EC122F1180047A0077
:102F03007B000233EEEA24010AEB3400FB22EA756C
:102F1300F012A4FA75F012EBA428FB742C2AFA74AD
:102F23000B3BFB22EAFCEBFDEC75F012A4FCA8F0D2
:102F330075F012EDA428122F3D22FD74302CF5827A
:102F4300740B3DF583E02274F712036074F31208E7
:102F5300C07E007F00022FEFE50875F017A4F8A9E3
:102F6300F0125DA4FAA3E0FBEEF8EFF9E875F012B6
:102F7300A4F8ACF075F012E9A42C12304A6A70037D
:102F8300A3E06B603FE50875F017A4F8AAF0EA1216
:102F93005DA3F8A3E0F97401120A8FE0687003A33C
:102FA300E0696020E50875F017A4F8EAF974A82829
:102FB300FC740C39FD7403120A8FAA82AB83121CB2
:102FC30090E96014E50875F017A4F8A9F074A62831
:102FD300FA740C39FB12100C0508902264E493F880
:102FE300E508C3985003022F5B123033902252122C
:102FF30060EA5039EEF8EFF912303CF47003A3E0C5
:10300300F460E68518828519837401F0EEF8EFF910
:10301300E875F012A4F875F012E9A42AF912305BEE
:10302300120A8F12306960C175080080AD02342125
:10303300EE24010EEF3400FF22E875F012A4F8AA83
:10304300F075F012E9A42AF912304F22742C28F5F6
:1030530082740B39F583E022742E28F582740B39C0
:10306300123E96740B22E8F0A3E9123547120B14B3
:10307300E922C082C08390033D74CCF0A3740DF0A9
:1030830090033F74C6F0A3740DF090034374E6F00D
:10309300A3740BF00233EE74F7120360EAFEEBFF46
:1030A300900377E06408601BE0640460168E828FEF
:1030B30083E05403640170481233F512399DE064D0
:1030C30006703D8E828F83A3A3E064FE7003A3E0AA
:1030D300F4602D8E828F83A3A31234B0900368E033
:1030E300687003A3E069700BEE2415F582EF125BA1
:1030F3002A6008120E7AE9F5088008120E8080F61D
:103103007508C2EEFAEFFB12150A02259E74F4123B
:1031130003608A088B098A828B83E0F8A3E0FAE8CC
:103123002AFAE43400FB1215048A0A8B0BAE0AAFA9
:103133000BEE4F6063850882850983E0FC7D00798F
:103143000012146E8E828F83A3A312645F120EBCCF
:103153008E828F83A3A3A3A31234368508828509A5
:1031630083E0F8EE28F8EF34001234B8850882853E
:103173000983A3E0C0E0EE240D125457D0E0F0120F
:103183000ECEEE240E125457E9124B09E0C0E0EEC6
:103193002411125457D0E0F0EEFAEFFB02366674B6
:1031A300F612036074EB1208C0EAFEEBFF12472B22
:1031B30060030232467A077B00121504900339122A
:1031C300343612472B60788E828F83120A6C9003F9
:1031D3003A1239A0120A78126323C0E0123252D095
:1031E300E0F0EE2405FAEF3400FB8A088B098A82AB
:1031F300F583E0C0E012324DD0E012365DE0C0E06E
:1032030012324DA3D0E01234A2120A6C85188285C3
:103213001983120A7888828983E0C0E07405120A50
:103223008FD0E0F0850882850983E0C0E074041242
:103233000A8FD0E0F07407120A8F12338880067960
:10324300108002790174150234C2123252A3229003
:103253000339E0FAA3E0F5838A82A3A3A3A322C0E0
:1032630082C08312472B600D9003391250359003AF
:1032730039E4F0A3F0120DEA120FAC0233EE74F04E
:1032830012036074EB1208C0ECFEEDFF890874258D
:10329300120A8F780C120A437429120A8FE0F97408
:1032A3002A120A8FE0FC742B120A8FE0FD740F6957
:1032B3007005740F6C60129010CDE0640270057994
:1032C300C1023383E9C39C40F6900378780C120A59
:1032D30034E50890037EF0E990037CF0ECA3F0ED75
:1032E30090037FF074FF6A700374FF6B701D90107E
:1032F300D8E0F47003A3E0F4700512147A800C9004
:1033030010D812340BE8F0A3E98007900375EAF0B4
:10331300A3EBF0EE4F6017EEFAEFFB12106CE964CB
:1033230001700BEEFCEFFD7A897B03121C96900370
:1033330068E4F0A3F090036BF0A3F0900388F0909F
:1033430010CDE06402700890037C740FF0A3F0903A
:1033530003777405F014120A8FE4F0900378120ACD
:103363006C851882851983120A7890037EE0C0E089
:103373007405120A8FD0E0F07407120A8F12338893
:103383007415023EA4E4123547121CC022C082C049
:1033930083900338E070031217C2120BB6804CC03F
:1033A30082C083900338E09010877004E4F0802D8E
:1033B3007401F0900338E0F460237C41E0C394414E
:1033C3005002E0FCECF8E0C398F0EC75F0E8A4CC14
:1033D300A8F075F003A428FD7A80123EFA7A877B61
:1033E300107941121CAE8003120B62D083D082028B
:1033F30007DEEE12546622E0F508A3E0F509221277
:103403003406221227DEA322123E989003752274FB
:10341300F7120360EB90037FF0120DD88005740D53
:103423001208467F01020579123431A3E0221234D7
:10343300A2A322EAF0A3EBF02274F712036074F85C
:103443001208C0EAFEEBFF7900900377E06408708E
:103453004485188285198374FDF0A374FFF0120E5E
:10346300B67402120A8F1234367405120A8FE412EC
:103473003431E0C0E07404120A8FD0E012349DC0EE
:10348300E07406120A8FD0E0F07407120A8FE41278
:103493003543120EF874080234231234A2E022F0EA
:1034A3008E828F8322F085188285198322123E989B
:1034B30022E0F8A3E0F9125465E8F0A3E9F0221240
:1034C30008467F02020579C082C08390034974765F
:1034D300F0A3740CF09003EF7452F0A3740FF09008
:1034E300034D74ACF0A3740CF090034F7476F0A307
:1034F300740CF090035174B2F0A3740CF00233EE29
:1035030074F412036074F91208C08A088B098C0AD8
:103513008D0B8518828519837808120A3474041276
:103523000A8FE9F07405120A8FE4F07406120A8F09
:10353300E4123543120B9E7407023663E8F0A3E9E5
:10354300123547221234A8AA82AB832274F41203E1
:10355300608A088B098A828B83125473EE4F70033F
:1035630002365B90031212472E60158A828B83A367
:10357300A3E0F9EEFAEFFB9003131239A0121E6FCA
:103583008E828F83A3A3A3A3A3A3A3A3A3E0640215
:1035930070748E828F83A3A3A3A3A3A3E0540270AA
:1035A3000302362D850882850983A3A3E064E960BD
:1035B300798E828F83A3A3A3A3A3A3A3A3A3A3E02F
:1035C30070149010D0E0048E828F83A3A3A3A3A3CF
:1035D300A3A3A3A3A3F08E828F83A3A3A3A3A3A3D5
:1035E300A3A3A3A3E01412365DA3A3A37404F090D2
:1035F30010D1124EAEE8F0A3E9125F878B0BEA45B8
:103603000B70031259658E828F83A3A3A3A3A3A375
:10361300A3A3A3E0640260128E828F83A3A3A3A358
:10362300A3A3A3A3A3E06406702E8E828F83A3A318
:10363300A3A3A3A3E0A2E0501F850882850983A367
:10364300A3E0F9EEFAEFFB121D4A8E828F83A3A348
:10365300A3A3A3A3E054FEF080091238A422740D9F
:103663001208467F0402057974EC12036074DD12BC
:1036730008C0EAFEEBFF8C088D097437120A8F78B5
:103683000C120A43750A007405120A8FAC82AD83CB
:103693001214327412120A8FE070087415120A8F12
:1036A300E060207405120A8FE0A2E6501E8E828F1E
:1036B30083A3A3A3A3A3A3A3A3A3124BA8120F2E75
:1036C300E960087903121C7E02388A7405120A8F96
:1036D300E0540C64047005750B018003750B00E066
:1036E300A2E55035750A01E50BA2E0402C120EBC91
:1036F3008A108B11A810A9111233F5E0687003A387
:10370300E06960157405120A8F126466124BA412E5
:103713001D56E96004790480AC7405120A8FE0A297
:10372300E650227406120A8FE054037018740512CF
:103733000A8FE0540C640C600CE0540C64086005C0
:1037430075100180037510007405120A8FE054038D
:10375300F8740268700C126466124BA4120AAE026B
:10376300388A740168703AE510A2E0500312389267
:103773007405120A8FA882A9837403120A8FE8F0D2
:10378300A3E9123E8C85188285198312389CE0C008
:10379300E07402120A8FD0E0123543121E40023841
:1037A3008AE8600302388A90035FE0640170108E38
:1037B300828F83A3A3A3A3A3A3E070030237187488
:1037C30022120A8F7402123E8C741A120A8F123458
:1037D300BCE510A2E050087405120A8F123892E576
:1037E3000BA2E0506AEE240FF582EF125B2AC0E0D1
:1037F3007417120A8FD0E0F090031412472E70034F
:1038030002388A120EBC8A128B13A812A913741AD7
:10381300120A8FE0687003A3E069706B780C1208DA
:1038230011780A12081D7808120819A910740C12CD
:103833000A8FAC82AD837421120A8FAA82AB839064
:10384300031412399D121E6F7407120846803878CC
:103853000C120811780A12081D780812081990032F
:1038630075120648EE2412F582EF1258587423128B
:103873000A8FAC82AD83740E120A8FAA82AB8312B5
:103883001D3E74091208467423120846025F521241
:103893006466125043120AA222E8F0A3E91238A484
:1038A300221238A822F08E828F83A3A3A3A3A3A3FB
:1038B3002274F71203601216AE02342674F7120351
:1038C300601216B402342674F71203601216C00293
:1038D3003426C082C0831216BA0233EE74F7120381
:1038E300601216C602342674F71203607409120AB2
:1038F3008FE0F508780812081D1216D274010234FD
:1039030023C082C0831216DE0233EEC082C083124C
:1039130016E40233EE74F71203601216EA02342639
:1039230074F7120360EAFEEBFF89087401650870FF
:10393300147900120CEE90226FE493FC7900EEFAF6
:10394300EFFB120C6402342674F412036074F91250
:1039530008C0E9FE8A088B098C0A8D0B7413120ABE
:103963008F124BA89005A512472E6027EE8518826B
:10397300851983F07401120A8F7808120A34EAF861
:10398300EBF97405120A8F12353F9005A512399D84
:10399300121E6F02353AFB90034BE0F8A3E0F58368
:1039A300888222C082C08312171A0233EE74F71280
:1039B300036090108AE0F97E00800B125B16540DB1
:1039C30064017001190E123BAA5003E970ED023431
:1039D3002674F712036090108BE0F97E00800B12BF
:1039E3005B16548D64817001190E123BAA5003E9D2
:1039F30070ED02342674F2120360890BE975F00648
:103A0300A4240CF508E5F0122E8D8A0CE508250C8C
:103A1300FAE5093400FB1215048A0C8B0DAE0CAFCA
:103A23000DEE4F6027AC08AD09790012146E123306
:103A3300F5E50BF0EE2508F8EF3509F98E828F8353
:103A4300A3A3A3A3A3A3A3A3A31234BCEEFAEFFBE4
:103A53000249A374F6120360EAFEEBFF120C4090D6
:103A63001089E0F8E9C3984009900345124BA81266
:103A73000C46EE2402F8EF1251B89003471250722D
:103A8300900347E004F0EEFAEFFB120C4C8508823A
:103A9300850983E002566EC082C083790090034596
:103AA300800109124BA88A828B83E582458370F2D9
:103AB3000233EE74F7120360EAFEEBFFEE4F60563B
:103AC30090034512472E604E888289837A007B00DB
:103AD300EE65827003EF6583600FAA82AB83123BAE
:103AE3001CE5824583602F80E7900345123B2868DD
:103AF3007002EF698E828F8370081234B090034591
:103B03008003125F641234BCEEFAEFFB121E10EE58
:103B1300FAEFFB12150A023426123B2022123E9CB6
:103B23008882898322123E98EE22C082C08390034A
:103B33004580048882898312472E600B888289839B
:103B43001241E0EC4D70EC8A828B83E4F0A3F0E841
:103B530049600688828983800390034512343602C4
:103B630033EE74F712036090034580048A828B83DB
:103B7300123BA54B60257E0080010E123BAA50EC40
:103B8300EE75F006A4FCADF0EA2CFCEB3DFDEC2455
:103B930010F582ED123BFA70E180047A007B00029B
:103BA3003426125047EA22123C03EEC3982274F7DC
:103BB3001203607D0080010D123BFFEDC39850346A
:103BC300ED75F006A4FEA8F0E8FFEA2EFEEB3FFF3A
:103BD300EE2410F582EF123BFA70DCED75F006A4CB
:103BE300FEE8FFEA2EFAEB3FFBEA2411F582EB1223
:103BF3005B2A4CF0023426125B366922123C032204
:103C0300126470EB3400F583E0F82274F61203605B
:103C1300120D667A007B008025EAF8EBF9E875F06F
:103C230006A4F8ACF075F006E9A42C12501C12633C
:103C330031A3E4125112F0A31263371264AE90223F
:103C43005A122B0C40D37A007B00801C8A088B0904
:103C5300740378081209C1124AD0A374FEF0A304B6
:103C6300124EF2A3E41264AE902263123CAD40DC28
:103C73007A007B00801D8A088B0974037808120977
:103C8300C174CE1257A2740F125FE974FEF0A3043D
:103C93001264AE902269123CAD40DB90226DE49336
:103CA300900353F0123CB70234C5E493F8C3EA9887
:103CB300EB9400227CE87D037A107B009003C2E042
:103CC300F91215BE2274F012036074F51208C08A4B
:103CD300088B09890A8C0BE9A2E050147508FC755E
:103CE30009FFA2E15005D2E4023D8AD2E3023D8AF4
:103CF30012498F7003A3E06970057900023E57AC47
:103D03000A7902AA08AB09120D42E960EDE50AF54A
:103D13000C780C12081D79027CFE7DFFAA08AB0902
:103D230012470A120846E96003023E55E50AC2E556
:103D3300F50A9003B5E07051E50AA2E6404B74031F
:103D4300120A8FAC82AD83AA08AB09120AF0E9709C
:103D53003212402B8A0C8B0DA80CA90DE8FEE9FF4B
:103D6300E8496025EE24020A0AEF12281C601AEEC5
:103D73002402FCEF3400FD7403120A8FAA82AB8382
:103D8300121C96E50AD2E5F50A900348E0F50C907B
:103D93000368E0F50EA3E0F50F780E1208197D0114
:103DA3007C00900348E0F9AA0EAB0F120CFA7402E0
:103DB300120846E9F8900348E004F0E86003023E85
:103DC30055E50AA2E55004740E80027406C0E0743F
:103DD30001120A8FD0E01254848A0E8B0FAE0EAFFD
:103DE3000FEE4F6069123E75123E8C888289837490
:103DF30001F07478550AA3126476E50C126476A375
:103E0300E508F0E509123E64E4F0E50AA2E5500F87
:103E13007403120A8FAC82AD83E82406123E5B8ED4
:103E2300828F83A3A374FDF0A374FFF0E50B6015E9
:103E3300902270E493F8E50BC3985009EE24131213
:103E43005457E50BF0EEFAEFFB120B928006791054
:103E5300800279C7740B8049FAE93400FB121C967F
:103E63002288828983A3A3A3A3123E70221251EB5B
:103E7300A322EE24171254687401F0120EB6EE2436
:103E83001A125468EAF0A3EB22F012646A340012A7
:103E93003E9622F583123E9C22E0F8A3E0F92274B9
:103EA3000D1208467F0802057974F61203607A0042
:103EB3007B1012597260089003D47401F08029902A
:103EC3000646E064019010CE7006E0FC79018004A0
:103ED300E0FC79037A007B00120C64902258123EB6
:103EE300EE7A007B10123EFC0234C5123EF222E44D
:103EF30093FC740193FD227B009003C2E0F9121539
:103F0300B82274EC1203608A088B098C0C8D0D891E
:103F13000E7414120A8F1248E97416120A8FE0F510
:103F230010A3E0F511120F2EE960077AFF7BFF0261
:103F330040289010CDE06402600302401B7900AA80
:103F430008AB09120D48A90E120D3C8A128B13AE51
:103F530012AF13EE4F70030240038E828F83A3A32D
:103F6300A3A3A3E064018E828F83A3A37069124B82
:103F7300A88E828F83A3A3A3A3A3A3E054186043B3
:103F830090226EE4938E828F83A3A3A3A3F0EA65AA
:103F93000C7003EB650D6014EA650A7003EB650BA7
:103FA300600AEA65107003EB6511701F7810120840
:103FB30019AC0AAD0BAA0CAB0D12102A740212082D
:103FC30046800890036712595CA3F074FE6A70037D
:103FD30074FF6B601D804EA3A3A3E0640360298E6E
:103FE300828F83A3A3A3A3A3E0640470057AFE02D4
:103FF3003F308E828F83A3A3A3A3A3E06402700840
:104003009003B4E06402701012402B8B0BEA450B53
:104013006006AA08AB09800DAA08AB0990034912F0
:10402300399D121E6F025F52900375124710120FD3
:10403300EE2274F7120360EAFEEBFF120B44E97001
:104043000AEEFAEFFB120B50E96006EEFAEFFB8083
:10405300047AFE7BFF02342674F01203608A0A8B13
:104063000B8C0E8D0F8909750800120F2EE979004C
:1040730060030241D2AA0AAB0B120D48A909120D23
:104083003C8A0C8B0DAE0CAF0DEE4F60198E828FF8
:1040930083A3A3A3A3A3E0640270559003B4E064D5
:1040A3000270030241D0AA0AAB0B90034F12399D51
:1040B300121E6F120B568A0C8B0DA80CA90DE84922
:1040C30070030241D088828983A3A3A3A3A3E0A2A0
:1040D300E040030241D0750C01A2E150687901ACC4
:1040E3000AAD0BAA0EAB0F120C94E970640241D017
:1040F3008E828F83A3A3A3A3A3E064037005750C2F
:104103000280528E828F83A3A3A3A3A3E0640160E2
:10411300030241D09003751241E08E828F831245D2
:10412300358A0C8B0DA80CA90DE84960D190226744
:10413300E493FA88828983E0C39A50C2A3E06003C0
:104143000241D080B988828983A3A3A3A3A3D2E128
:10415300F0EE4F603A8E828F83A3A3A3A3A3A3E0C1
:104163005418602B7508018E828F83A3A31206480F
:10417300750CFE750DFF780C1208197900AC0AADA9
:104183000BAA0EAB0F120D5A7404120846803E9010
:104193000368E0650E7004A3E0650F701490226F4E
:1041A300E493FCA909AA0AAB0B120C6475080180FD
:1041B3001CA90CAC0AAD0BAA0EAB0F120C94E97040
:1041C3000C750801A909AA0AAB0B120CEEA9080287
:1041D3003EA7E50C2415F582E50D12546B124EC86B
:1041E3002274EA12036074F01208C08A0C8B0D8CDF
:1041F300088D097426120A8FE0F514A3E0F51575EE
:1042030012069003F512472E60239003751241E0C6
:10421300AA08AB091210188A108B11EA4511600D18
:104223008A828B83A3E07005790002451DE50C2487
:104233001DF50EE50D3400F50F850E8212471AF5B4
:104243001388828983A3A3A3E0FA88828983A3A323
:10425300A3A3E0F9EA2400FEE439FFAA08AB09129C
:104263000CF4850E82850F83124558E029F50BE582
:104273000AA2E5500375120E7487550A7017741855
:10428300550A6418600FE50C2417F582E50D125BDF
:104293002A651260077901121C7E808C530A78C349
:1042A300EE94F8EF94FF501D7900EEFAEFFB124500
:1042B30027601288828983A3A3A3A3A3A3E054182E
:1042C300600302422B78081208197D0012454B1235
:1042D3000846E9F8740368700302422BE86003029E
:1042E30043967418550A700302444BE50AD2E0F56D
:1042F3000AA2E45004D2E1F50AA90A124BA112451D
:1043030027605388828983A3A3A3A3A3A3E054189C
:10431300604488828983A3A3A3A3A3E064017036C6
:10432300E510451160309003751241E0888289835E
:104333001245358A0E8B0FA80EA90FE8496017881E
:10434300828983A3E0600F851082851183A31256AF
:1043530079500302422BE50AF50E780E12081D125E
:10436300453E120846E9702B7C007D00851482854A
:10437300158374FFF0A3F0850C82850D83A3A3A39B
:10438300A3A3A3A3A3E060031241D5A90B124BA1DE
:104393001216D8851482851583E0F47003A3E0F424
:1043A30060399003B4E06402700302422B1248DACE
:1043B300E0FAA3E0123999121E6FEA65087003EB65
:1043C3006509600302422BEEFAEF123999121E6F50
:1043D300851482851583EAF0A3EBF0780812081997
:1043E3007D0112454B120846A90AEEFAEFFB120DA6
:1043F300488A088B09A808A909900368E068700334
:10440300A3E069600302450EEEFAEFFB120B568A36
:10441300088B09A808A909E849606E88828983A3E3
:10442300A3A3A3E06401600D88828983A3A3A3A34C
:10443300E064027054851882851983AC82AD83EEE3
:10444300FAEFFB120AF08055900361E0600FE50A72
:10445300F50E780E12081D12453E120846E50AF5C0
:104463000E780E12081D79027CFE7DFFEEFAEFFB3B
:1044730012470A120846E9600302439685148285AF
:10448300158374FFF0A30243DD120EB6EAFCEBFDC5
:10449300851882851983AA82AB83121C96850C82A8
:1044A300850D83A3A3A3A3A3A3A3A3E06401700F18
:1044B3001241D57408120A8FAA82AB83121C96127A
:1044C30046E41252F04430F508780812081D7401CE
:1044D300120A8F8582088583097808120819740BDC
:1044E300120A8F8582088583097808120819E51353
:1044F300F508780812081D7900EEFCEFFD124BA1B8
:10450300120C8E740612084602422B1246E4125411
:104513005A124558E50BF0120ECE74101208467F5E
:104523000E020579120D3C8A0E8B0FA80EA90FE817
:104533004922A3A3125047121018227901AC08ADE7
:104543000912503C12470A22AC0BA91312503C1219
:104553000CFA7402221252F8A3A3A3A32274F0123A
:10456300036074F01208C08A0C8B0DECFAEDFB7536
:104573000F089003F512472E60141256728A828B2D
:1045830083E58245836007A3E070030246DF12469A
:10459300E4340012471AF50B888289831246EDE052
:1045A300FBEC2400FEE43BFF88828983A3A312462D
:1045B300EDA3A3E0FBECF508E43BF50988828983CE
:1045C300A3A3A3A3A3A3A3E0F50EE50AA2E45003C8
:1045D300750F10A2E550067408250FF50F748F555B
:1045E3000A700FE50C2417F582E50D125B2A650F9F
:1045F30060087901121C7E0246DF530A707800E5D9
:104603000AA2E450221246E4125B2A2408FCA3E027
:104613003400FD7408120A8FAA82AB83121C9678A9
:1046230008E50AC2E4F50AE50AA2E550281246E4C1
:10463300125B2A28F8A3E03400F9E82408FCE934E3
:1046430000FD851882851983AA82AB83121C96E527
:104653000AC2E5F50AAC0EA90BEEFAEFFB120D0048
:10466300E9F87403686075900368E06E7003A3E073
:104673006F605EE87054E50AF50F780F12081D129B
:1046830046FB120846E97054780A12081D74011299
:104693000A8F85820C85830D780C120819740B120E
:1046A3000A8F85820C85830D780C120819E50BF5AA
:1046B3000A780A12081DA90EAC08AD09EEFAEFFB41
:1046C300120C8E74061208468012740468700D80F2
:1046D300B7780A12081D1246FB1208467410023EF0
:1046E300A4E50C241DF582E50D22A3A3A3E0FC8819
:1046F300828983A3A3A3A32279011248E112546BF5
:1047030012471012470A22120CB8740122E0FCA3CC
:10471300E0FDAA08AB0922F583123B20A3E0F50ACA
:1047230088828983A3A3E0229003391250A32274C1
:10473300E812036074F51208C0EAFEEBFF8C088DE3
:104743000989147423120A8FE0F50F7424120A8F57
:10475300E0F512A3E0F5137426120A8FE0F516A311
:10476300E0F5177428120A8FE0F50EA90F120D0653
:104773008A108B117401120A8F7408F0E50EA2E4FB
:1047830050037410F0E50EA2E55004E02408F08510
:104793001882851983AA82AB83120F168A0C8B0D9C
:1047A300EA450D70030248C1EA2417F582EB12486B
:1047B300D3120EB6E50C241AF582E50D12545A12E3
:1047C30034367403120A8FAC82AD83AA10AB111274
:1047D3000AF0E9601D1248CB7403120A8FA882A95C
:1047E30083E50C2418F582E50D12545AE8F0A3E989
:1047F3008024E50EA2E4501FE5106E7003E5116FEF
:1048030070151248CBE50C2418F582E50D12545AA5
:10481300E512F0A3E513F01248DA1248E9850A829B
:10482300F5837402F0A3E50E1248F1E50FF0EE856F
:104833000A82850B83A3A3A3F0EF850A82850B83EA
:10484300A3A3A3A31248F1A3A3A3E508F0E5098555
:104853000A82850B83A3A3A3A3A3A3F0AA10AB117E
:10486300120CF4E92514850A82850B83A3A3A3A361
:10487300A3A3A3F0750800E50EA2E45011AC12AD9A
:1048830013E50A2408FAE50B123E5D750808E50EE8
:10489300A2E55014AC16AD17E50A2508F8E50B346C
:1048A30000F9E82408123E5B850C82850D83A3A3DF
:1048B300E510F0A3E511F0AA0CAB0D120B92740BEB
:1048C3001208467F10020579E50C2416F582E50DE2
:1048D30012546B7401F0221248E112546B22E50C5E
:1048E300126471E50D22E0F50AA3E0F50B22F085D1
:1048F3000A82850B83A3A32274F21203608A088BB6
:1049030009ECFEEDFF890A790012498F7003A3E0D9
:1049130069700479018073750B01900368E0650881
:104923007004A3E06509601F750B00780B12081D66
:10493300A90AEEFCEFFDAA08AB09120F6A74011273
:104943000846E9F50B80417900EEFAEFFB120D3CC6
:10495300EA4B602B8A828B83A3A3A3A3A3A3E05474
:1049630018601C7508FE7509FF78081208198A82F9
:104973008B83A3A312064812628612084680097924
:1049830001EEFAEFFB120C16A90B8014120D488AE4
:104993000C8B0DA80CA90D900368E0682212084641
:1049A3007F0602057974F412036075081675090E03
:1049B3007A10125F8E8B0BEA450B7003123CB79093
:1049C3000353E014F0700C90226DE493900353F0C2
:1049D300120D547E007F00806C850882850983A3B5
:1049E300A3A3A3E06059F46056E5082404F582E527
:1049F300091259567049850882850983A3A3A3A385
:104A0300A3E0640370197902850882850983124142
:104A1300E0850882850983A3A3124BA8120C948511
:104A23000882850983A3A3A3A3A3E064016010857F
:104A3300088285098374FEF0A304124B02E4F0128A
:104A43003033122E8590225C1260EA408C7E007F08
:104A5300008039120E5C8E088F09740378081209DE
:104A6300C1748E2508FC740F3509FD7AA07B0C12E6
:104A73000E4AEA4B70DD8E088F0974037808120919
:104A8300C1124AD0126331E4F0123033902263E44E
:104A930093F8C3EE98EF9400501B8E088F097403AC
:104AA30078081209C1124AD8E82407F582E9125995
:104AB3005670D680A17E007F00800A124AE360020E
:104AC30014F01230331260E740F1023666124AD80E
:104AD3008882898322748E2508F8740F3509F92298
:104AE300EEF8EFF9E875F006A4F8AAF075F006E918
:104AF300A42AF9742E28F582740F39F583E0221263
:104B03004B09A3A3A322F0850882850983A3A322CB
:104B130074F712036074E11208C0ECFEEDFF750830
:104B230000EE4F60728A828B83E0241C1259871235
:104B3300472E60638A828B83124BA885188285195E
:104B430083AC82AD83EA241BF582EB125858EA2426
:104B53001CF582EB124BA4120E9E740B120A8F12D9
:104B63004BAC7003A3E069702E7402120A8FE064E9
:104B7300017024741D120A8F12399DE064017017AD
:104B8300741D120A8F12399FA3A3E0F88E828F83BC
:104B9300E0687003750801A908741F0234231248E2
:104BA300E13400F583125047221227DAE0682274B9
:104BB300F4120360E97024790090034D12399D12B9
:104BC3001E6F8A0A8B0BAE0AAF0B74FE6E700374F2
:104BD300FF6F701A90226AE4936013790190034D7A
:104BE30012399D121E6F8A0A8B0BAE0AAF0B120E7F
:104BF300DA02319B74F612036074F31208C01214C4
:104C03007A8A088B09AE08AF09900368E06E7003D7
:104C1300A3E06F60E9120EC2EA6E7002EB6F60DE12
:104C2300EEFAEFFB120F2EE970D4EE4F60D0851829
:104C330082851983E4F004120A8FEEF0A3EF124C7D
:104C43005AE970BA74FE6E700374FF6F60B0EEFAC7
:104C5300EFFB740D0234C2123547120B0822C082D7
:104C6300C083120EDA0233EE7F0A02057974F21260
:104C73000360EAFEEBFF8C0A8D0B8908740E120A9F
:104C83008FE0F50974FC6E700374FF6F7005790093
:104C93000249A37900120D488A0C8B0DAE0CAF0D9F
:104CA300900368E06E7003A3E06F7006E509A2E667
:104CB30050DCA909126174706179007AFE7BFF12DE
:104CC30061747056741855097003024DA778007902
:104CD3000080031229D490225C1229CB4003024D99
:104CE300A7E8FAE9FBEA75F007A4FAACF075F00758
:104CF300EBA42CFB741C2AF582740E3BF583E05461
:104D03001870D0E875F007A4F8AAF075F007E9A4C5
:104D13002AF9741628F8740E39F988828983A3A3B3
:104D2300A3A3A3A3E05418600974185509700302E0
:104D33004C9188828983EEF0A3EFF074FE650A70CC
:104D43000474FF650B6003124ECE88828983A3A38C
:104D5300A3A3A3A3E509F0A2E0500D88828983A34E
:104D6300A3A3A3A3A3D2E2F0740165088882898375
:104D7300A3A3A3A3A370387401124EF2E0541860E6
:104D83002890226EE49388828983A3A3A3A3124E5F
:104D9300BC1210188B0DEA450D6003024C9178008C
:104DA300790080397902024C93900367E080D7E061
:104DB30064017003024C9188828983A3A3A3A3A3F4
:104DC300A3E05418600790226EE493800490036676
:104DD300E0123E64E508F0024C911229D49022645B
:104DE300E493FAC3E89AE994004003024C917A00F1
:104DF3007B00804BEAFCEBFDEC75F007A4FCAEF006
:104E030075F007EDA42EFD74182CF582740E3DF594
:104E130083125473E8FCE9FDEC75F017A4FC85F0EC
:104E23000975F017EDA42509FD74A62CF582740C01
:104E33003DF583E06E7003A3E06F609E122F089030
:104E4300225C122E9540AD123EEEEC6A7002ED6BC1
:104E53007088E875F017A4F8AAF075F017E9A42A8A
:104E6300F974A628FE740C39FF7C177D007900EED7
:104E7300FAEFFB12146E8E828F83124ED490037559
:104E8300124EAEA3A3A3A3A3A3E8F0A3E9124EB4C7
:104E93007401F0EE240E1254577401124EDC120208
:104EA3000FEE240D125457E8024DD9123406A3A372
:104EB30022F0EE240F12546822F0124EC5AA0AAB58
:104EC3000B22900375E0FCA3E0FD2288828983A373
:104ED300A3E50AF0A3E50BF022F0124EE1229022A3
:104EE30067E4932401F8E43400F97A027B00221288
:104EF3003E70A32274ED1203608A088B09890E1297
:104F0300502540057905024FF3121720AA08AB0973
:104F13001250F790225A124FF6650A7003E9650B97
:104F230070077AFE7BFF1250F790225AE4124FFE6D
:104F3300E50A98E50B994003024FF1125002601203
:104F4300E50A75F006A4F875F006E50B12504D124C
:104F5300150AE50E6018E50A75F006A4F8AAF075BF
:104F6300F006E50B125079701A7901024FF3E50A46
:104F730075F006A4F8AAF075F006E50B12505AE492
:104F8300F0A3F0E50A75F006A4F8AAF075F006E5BB
:104F93000B12501AA312530688828983A3AA82ABE9
:104FA300831250688A828B83E0603F125002603A1A
:104FB3008E108F117512007810120815E50EC33389
:104FC300FCE433FDE50A75F006A4F50AA8F075F0D4
:104FD30006E50BA428F50B7432250AF582740F3508
:104FE3000B124BA6122EA6120846790080027907EF
:104FF30002618A122B2DE822902252125B1122E5C4
:105003000A75F006A4F8AAF075F006E50B125055E0
:10501300F8A3E0F9E84922A42A1251AE88828983D1
:10502300A322ECFEEDFF902265E493F8E9C39822F6
:10503300F58312504712150A22E50C126471E50D2F
:105043003400F583E0FAA3E0FB22125055FAA3E003
:10505300FB2212505AE022A42AF9743228F58274F2
:105063000F39F58322E50EF09010CF12507222E033
:1050730088828983F0221251D2F50CE93400F50DB0
:10508300E50EC333FAE433FB121504850C82850D58
:1050930083EAF0A3EBF0850C82850D831250A322E3
:1050A300123E9CE8492274F4120360ECFEEDFF7497
:1050B3000C120A8F1234B0880889091250F7AC0A0F
:1050C300AD0BECF8EDF990225A1250FF5021E87520
:1050D300F006A4F8AAF075F006E912501AE08E82E1
:1050E3008F831251121251081234BC790080027955
:1050F30004023666120CCA8A0A8B0B22122E9EC336
:10510300EC9AED9B22123E98850882850983221230
:1051130051E72274F61203607E007F008028EEF8C8
:10512300EFF9E875F006A4F8ACF075F006E9A42CE5
:10513300F9743028F582740F125D956A7003A3E049
:105143006B60571230331260E740D31260E2700293
:10515300E96F704674FE6A700374FF6B703C7E00E7
:105163007F0080031230331260E7502E124AE3703F
:10517300F3EEF8EFF9E875F006A4F81251A4125112
:10518300D960171251C0F8E91251B888821250330E
:10519300850882850983E4F0A3F0EEFAEFFB02347D
:1051A300C575F006E91251AC22A42AF9742E28F829
:1051B300740F39F9223400F98808890922EEF8EFCF
:1051C300F9E875F006A4F875F006E91251D2221237
:1051D30051ACE8240422A3A374FE1251E41250A399
:1051E30022F0A3041251EB22F088828983A3A3A3A4
:1051F300A32274F6120360EA241DF582EB1252F027
:10520300F9604BEA241DF582EB125B2A2402FCA30E
:10521300E03400FD12502940030252E37800802954
:105223008C828D83E0F508A3E0FFE5082400E43FCA
:10523300F509E833FEE433FF74762EF582740F3FED
:10524300F5831253061252E608E8C39940D28A82C4
:105253008B83A3A3A3A3A3A3A3A3A31241E09003BC
:1052630068E06C7003A3E06D700F7C767D0F1227EE
:1052730043124BA4120CBE8067EA2411F582EB1291
:105283005B2A605CFC74FF2CF07508017808120837
:105293001D75087675090F7808120819E9F508785D
:1052A3000812081DEA2412F582EB125B2AF508782E
:1052B3000812081DEA2415F582EB12545A12064807
:1052C300ECF91227431241DD8A828B83A3A3A3A3A4
:1052D300A3A3A3A3A3124BA8120CD67407120846C8
:1052E3000234C5EC24020C0CED3400FD2212546B85
:1052F3001252F8E022E0F8A3E0F5838882A3228823
:10530300828983E508F0A3E509F02274EA120360B9
:1053130074FD1208C08A148B158C0E8D0F890D74C1
:1053230019120A8F125473741B120A8FE0F5117449
:105333001C120A8FE0F50C741D120A8F1248E974CF
:105343001F120A8FE0F5106008E50CC333240480B4
:10535300027402C0E07401120A8FD0E01254848AEE
:10536300088B09EA4509700302544F8A828B83A391
:10537300A3E514F0A3E515125F7DE50EF0A3E50F99
:10538300F0EA2413F582EB12545AE50DF0EA2414E3
:10539300F582EB12545AE511F0EA2417F582EB1269
:1053A3005B2A64017040120EBC8A0E8B0FA80EA9F3
:1053B3000F850882850983A3A3A3A3E0687003A3D1
:1053C300E0696022EE4F6011E508241AF582E509D1
:1053D30012545AEEF0A3EF800CE5082417F582E58A
:1053E3000912545AE4F012545E1254738E828F835E
:1053F3007405F0A3E5107004E50C80487401250CD6
:1054030012547D7A008028850A82850B83E012542A
:1054130079850A82850B83A3E08E828F83F0E50A68
:105423002402F50AE50B3400F50BA30EAF830AEA59
:10543300C3950C40D2120EBCEA125479120EBCEB87
:105443008E828F83F0AA08AB09120B927403024574
:105453001FEE240CF582EF12546B221227541254C0
:105463006B22EE240BF582EF3400F5832290033494
:10547300E0FEA3E0FF228E828F83F0A3AE82AF8390
:1054830022123547120F1622C082C083E9C333FCB0
:10549300E433FDEA2CFAEB3DFBEA24FEF582EB3420
:1054A300FF124BA60233EE74F212036089098A0AD3
:1054B30012502540047900804075080080020508D9
:1054C300E508C39509502AE508C333F8E433F9EE38
:1054D30028F582EF39F583C082C083120EBC8A0C93
:1054E3008B0DD083D082E0650C7004A3E0650D7052
:1054F300CDE50A650870BE79010249A374F0120371
:105503006074F31208C08A088B098C0A8D0B890C0E
:10551300750D00120F2EE979006003025601AA08E7
:10552300AB09120D48A90C120D3C8A0E8B0FAE0E5F
:10553300AF0FEE4F70030255FF8E828F83A3A3A399
:10554300A3A3A3E0A2E240030255FF120EBCEA6547
:105553000A7003EB650B7011780D12081DE4F50E4C
:10556300F50F780E1208198044AA0AAB0B120B4AE6
:10557300E9640170688518828519837404F07401E5
:10558300120A8F124ED4851882851983AA82AB839F
:10559300120B08E964017045750D01780D12081DA1
:1055A300E4F50EF50F780E120819750D00780D123B
:1055B300081D780D12081D7408120A8F85820E8546
:1055C300830F780E120819902270E493F9AC0AAD98
:1055D3000BAA08AB09120CD674071208468E828FE9
:1055E30083A3A3A3A3A3A3E0A2E1400D8E828F8391
:1055F300A3A3A3A3A3A3C2E2F0750D01A90D023EC9
:10560300A274F6120360E9FE7900120D48EEF91256
:105613000D3C8A088B09A808A909E84960061264A9
:10562300B8F9800279040234C574F61203607E0768
:1056330090035CE070341256728A088B09A808A99B
:1056430009E8496025900361E0640188828983A3A6
:10565300A3700B125679888289835001A3A3E0F9C2
:10566300121036E9FEEE70027E07EEF90234C5121F
:105673004EC512101822E0FA88828983A3E0C39AE8
:105683002274EE120360EAFEEBFF890A8C0C8D0B89
:105693007412120A8F1233FA12574E12502C5051B1
:1056A300890E750F007403780E1209C17494250EC8
:1056B300F582740F350FF583E0F8E50CC398502D90
:1056C300E50B6024751100740378101209C1748E00
:1056D3002510F8740F3511F988828983A3A3A3A336
:1056E300A3A3E50C125758F07900024C6B790380A1
:1056F300F979007AFE7BFF12574EE493651070042C
:10570300790280E6E50B60E0890E750F007403787B
:105713000E1209C1748E250EF8740F350FF98882A5
:105723008983A3EEF0A3EF125758124EF2E50C1241
:105733003E6C74FF126337E50AF0900366E08882DB
:105743008983A3A3A3A3A3A3A3809C120D36E9F586
:10575300109022632212647AA3E508F0A3E50922DC
:1057630074F6120360ECFF120D3690226312502C74
:1057730050278908750900740378081209C17493C6
:105783001257A2740F125FE9E0F8EFC3985006EFC7
:10579300F0790080067903800279040234C5EA2592
:1057A30008F5822274F4120360EAFEEBFF120D3651
:1057B300E9F50A90226312502C5019750B007403FB
:1057C300780A1209C17491250AF582740F350B12F8
:1057D3004BA6801890034B12472E600CEEFAEFFB9A
:1057E3001239A0121E6F80047AFE7BFF02366674A4
:1057F300F61203608A828B83A3A3A3A3A3E4F0F826
:10580300800108902269E493F9E8C399501E88083F
:105813001258508C828D83A3A3A3A3A3A3A3A3E0B5
:105823006970DFECFAEDFB120E62801EE493687080
:10583300198C828D83A3A3A3A3A3A3A3A3A37406F9
:10584300F07A008C828D8312597B0234C57416253D
:1058530008F5827410125B36F92274F4120360EABD
:10586300FEEBFF8E828F83A3A3E014125992A3E071
:10587300F9120E3E8A088B09EA450970030259534F
:105883008E828F83A3A3E070358A828B83A3A3A325
:10589300A3A3A3A3A3A3E064028A828B83A3A3A3EA
:1058A300A3A3A3A3A3A360107406F07AF0850882D0
:1058B3008B8312597B0259537406F00259538E821B
:1058C3008F83A3A3A3A3A3A3E060738E828F83A379
:1058D300A3A3A3E0607AEE2403F582EF1259567076
:1058E3006F90035512595C125992E014125F74E0E1
:1058F3006403705C8E828F83A3A3A3A3E0700DACBB
:1059030008AD09EEFAEFFB120D0C80448A828B83FB
:10591300A3A3A3A3A3A3A3A3A37404F012147AEAD7
:10592300540F04850882850983A3A3A3A3F0A3E4EA
:10593300F07A20FB125972701712596580128A820D
:105943008B83A3A3A3A3A3A3A3A3A3E0640360AF35
:10595300023666125B3614F022E08E828F83A3A395
:10596300A3227A207B009003C2E0F91214BC221216
:105973005F908B09EA450922E0240C125987E0F96C
:10598300120D8422F8A3E03400F98882898322125D
:105993005997A3221234A2A3A3A32274F61203607D
:1059A30079007E0080258E0875090074037808123B
:1059B30009C174CE2508FA740F3509FB8A828B83DB
:1059C300A3A3E06005120D1279010E902269E493FE
:1059D300F8EEC39840D0E9A2E07A407B009003C27E
:1059E300E0F950151215CA8B09EA4509700E7C645B
:1059F3007D007A40123CBD80031215C40234C57485
:105A0300F4120360ECFEEDFF7508CE75090F7C0000
:105A13008045850882850983A3A3A3A3A3A3A3E049
:105A2300F8EA2412F582EB125B2A68701F8508825C
:105A33008509831234B0125B2E687003A3E069708A
:105A43000B850882850983A3A3E070200CE5082455
:105A530008F8E5091251B8902269E493F8ECC39869
:105A630040B0E4936C700579000236668508828540
:105A73000983A3A3A3A3A3A3E07004790180EA127B
:105A83006182120FEE8B0BEA450B600F850882854E
:105A93000983A3A3A3A3A3A3E014F07C0080010CB8
:105AA3008C0A125B045020EC125B3C60F212304B08
:105AB3006E7003A3E06F70E7850882850983A3A353
:105AC300A3A3A3A3E014F0902264E493F8902252DA
:105AD300E49328F8A3E4933400F9850882850983C5
:105AE300A3A3A3A3A3A3E0FAC3E89AE99400508B6A
:105AF300850882850983A3A3A3A3A3A3E4F0025A81
:105B03007E902252125B10E50A98E49922E4122B4C
:105B13002EC322EE75F006A4FCADF0EA2CFCEB3D9F
:105B2300FDEC2411F582ED125B3622126470EB1248
:105B33005B36223400F583E02275F012A4F8A9F055
