:020000040000FA
:06000000020A150201B323
:03002B000208794F
:030043000206F7BB
:030053000200E4C4
:100083000201480101FF01010503010F10FEFFA654
:1000930012A612A612A61262115C11A6127B1F00F1
:1000A3000000003F20000000000C0000000C0001D5
:1000B300FFFF0102006D05000000E005640002027D
:1000C30000080000050207051E02051E020A0A03B6
:1000D300B80B02803E0102F1FF1496511800020290
:1000E30006C0E074F21203CCA2AFE433FED2AFE554
:1000F300A7FFE5A1F5085F54106006121A3E75A12B
:10010300EFE5085F54086008121A4475A1F7802BC5
:10011300EFA2E0C0D0E508A2E092F012093C1581FD
:1001230082F05017906198E0F8900AB8E0C398A263
:10013300D265D0335002E8F075A1FEEEA2E092AF93
:100143007F0102042BC0E074F21203CCA2AFE433AC
:10015300FED2AF9061A4E0F8759B00E59158540876
:1001630060087591F7121A8C802AE5915854106033
:10017300087591EF121A92801BE8A2E0C0D0E591B6
:10018300A2E092F012093C158182F05007E0C2E030
:10019300F0121BD69061A3E0F8E5E9585404600E11
:1001A300121BAC75E9FB906193E0A2E640F2808BF1
:1001B300C0E074F21203CCA2AFE433FED2AF90617D
:1001C300A5E0F8E5BF585404600675BFFB121BEEAB
:1001D30002013EC3E498F8E499F91202178026C39A
:1001E300E49AFAE49BFBE920E7E9120217E498F8A2
:1001F300E499F922C3E498F8E499F9120217E49810
:10020300F8E499F9C3E49AFAE49BFB22EB20E7CFE5
:10021300E920E7E0B90010BB0008E88AF084F8AAF7
:10022300F022E4FBC8FA22EB70227B10C833C8C962
:1002330033C9335007C39AC3DBF280069A50012AAD
:10024300DBEAC833F4C8C933F4C9FA2275F008E409
:10025300C833C8C933C933C99AC99B5004C92AC909
:100263003BD5F0ECFBC833F4C8E4C9FA220808080C
:10027300EAC0E0EBC0E086F0E7A4FA180986F0E7ED
:10028300A42AFA180986F0E7A42AFA180986F0E7DF
:10029300A42AFA1986F0E7A4FBE5F02AFA190886DE
:1002A300F0E7A42BFBE5F03AFA190886F0E7A42B54
:1002B300FBE5F03AFA18180986F0E7A4C5F02BFB22
:1002C300E43AFA1908E7C5F0C6A426F6E5F03BFBC5
:1002D300E43AFA1886F0E7A4F6E5F00826F6E43BDC
:1002E30008F6E43A08F6D0E0FBD0E0FA22E4CFC007
:1002F300E0E4CEC0E0E4CDC0E0E4CCC0E075F020A3
:10030300C3E633F608E633F608E633F608E633F6D3
:10031300181818EC33FCED33FDEE33FEEF33FFC357
:10032300EC9709ED9709EE9709EF97191919400F03
:10033300FFEC97FC09ED97FD09EE97FE191906D519
:10034300F0BEECF709EDF709EEF709EFF719191904
:10035300D0E0FCD0E0FDD0E0FED0E0FF222518C5C0
:1003630082C0E0E51934FFC583C0E0E518C3958278
:1003730024F810AF088583198582188008858319AE
:10038300858218D2AFCEF0A3E520F0A37808E60863
:10039300F0A3DEFAEFF0A3E58124FAF8E608F0A370
:1003A300E608F0A3E608F0A30808E608F0A3E608C9
:1003B300F0A315811581D0E0FED0E0F815811581F9
:1003C3001581E8C0E0EEC0E022C0D02518C582C088
:1003D300E0E51934FFC583C0E0E518C3958224F333
:1003E30010AF088583198582188008858319858253
:1003F30018D2AFC8F0A3E9F0A3EAF0A3EBF0A37916
:1004030008E709F0A3D8FAECF0A3EDF0A3EEF0A30C
:10041300EFF0A3D0E0F0A3D0E0F0A3D0E0F0A3E5A9
:1004230020F0A3E5F0F0A322851983851882E0C0AC
:10043300E0A3E0F9A3E0FAA3E0FBA37808E0F60861
:10044300A3DFFAE0FCA3E0FDA3E0FEA3E0FFA3E04B
:10045300C0E0A3E0C0E0A3E0F5D0A3E0F520A3E073
:10046300A3F5F010AF08858319858218800885836A
:1004730019858218D2AFD082D083D0E0F8D0E03291
:10048300120A84B900030204C5E4900301787F795A
:100493000E8002F0A3D8FCD9FA90107FAA82AB8316
:1004A300900086785F79018015E493A3AC82AD83D5
:1004B3008A828B83F0A3AA82AB838C828D83D8E953
:1004C300D9E775825E7583EC74031207D87582824F
:1004D30075831E74001207D80975F0108E1A8F1BCE
:1004E30085821F85831E851882851983E0CEA3E04C
:1004F300CF851F82851E83EBC9EAC8EDCBECCAC347
:10050300E833C8E933C9EA33CAEB33CBC3EA9EF510
:100513001DEB9FF51CB35004AB1CAA1DEC33CCEDB3
:1005230033CDD5F0DAAE1AAF1B22D083D082ECC024
:10053300E0EDC0E0E493A3FCE493A3FDED4C600D78
:10054300120605EC24FFFCED34FFFD80EFE493A3DA
:10055300FCE493A3FDED4C600D1206A2EC24FFFC1A
:10056300ED34FFFD80EFD0E0FDD0E0FCE493A3C0C9
:10057300E0E493C0E022851983851882E0A3FEE0BE
:10058300A3F5207808E0A3F608DFFAE0A3FFE0A3D1
:10059300C0E0E0A3C0E0E0A3C0E0E0A3C0E0E0A3CC
:1005A300C0E010AF088582188583198008858218FA
:1005B300858319D2AFD083D0820207DED083D08265
:1005C300E9C0E0E493A3C386F0C5F095F0F908E42D
:1005D30093A386F0C5F095F0700BE493A3C3994001
:1005E30005E9048002A3E475F002A42582F582E5FF
:1005F300F03583F583D0E0F9E493A3C0E0E493C03E
:10060300E022C0E0C3E49396087401939618400F68
:10061300E49366700808740193661870007019A358
:10062300A3C3E49396087401939618A3A3400DD033
:10063300E0D0E0D0E0020569A3A3A3A3A3A3D0E085
:10064300227404800474028000CCC0E0EDC0E0E5B5
:1006530018C39CCCAD1950011D10AF068C188D1911
:1006630080068C188D19D2AF12073CD0E0FDD0E084
:10067300FC2274028000CCC0E0EDC0E0E518C39C0E
:10068300CCAD1950011D10AF068C188D1980068C46
:10069300188D19D2AF12071AD0E0FDD0E0FC22C0AA
:1006A300E0C0F088F0E4936670080874019366185C
:1006B3007000A8F0A3A3700BD0F0D0E0D0E0D0E09E
:1006C300020569A3A3D0F0D0E022D083D082CCC0AE
:1006D300E0E493A3600612077C1470FAE493A3602A
:1006E300061208AA1470FAD0E0FCE493A3C0E0E475
:1006F30093C0E022C0E074F21203CCA2AFE433FE55
:10070300D2AFC2C0E5D1A2E450031219B4EEA2E005
:1007130092AF7F0102042BCAC0E0E493A3C582CC4D
:10072300C582C583CDC583F0A3C582CCC582C583ED
:10073300CDC583DAE5D0E0CA22CAC0E0E0A3C58212
:10074300CCC582C583CDC583F0A3C582CCC582C584
:1007530083CDC583DAE6D0E0CA22C008C3E096F5AC
:100763000808A3E096420808A3E096420808A3E01D
:100773009645087001D3D00822C0E0E493A3D39C2C
:100783005010E493A3C39C400AD0E0D0E0D0E00231
:1007930006EAA3A3A3D0E022700908080822601682
:1007A300181818C6C333C608C633C608C633C608E6
:1007B300C633C6D5E0EA22C5822518C582C583356E
:1007C3001910AF07F5198582188007F51985821866
:1007D300D2AFC58322C09FF59FE473D09F22D083FD
:1007E300D082C09FE493C0E0740193C0E07402938D
:1007F300F59F222518F58210AF08F5184002151948
:100803008008F51840021519D2AF851983227404A4
:10081300800A74038006740280027401C0E0F40449
:100823001207F6D0E0120A5F22BB0102E722C08260
:10083300C08389828A83BB0003E08002E493D08370
:10084300D08222C0D0251810AF08F5185002051920
:100853008008F51850020519D2AFD0D022601608CF
:100863000808C6C313C618C613C618C613C618C6C7
:1008730013C6D5E0EA22C0E0C0D0E8C0E0E5A8D2C4
:10088300AFC2C7A2E792AFD0E0F8D0D0D0E032C376
:10089300E0C696F608A3E0C696F608A3E0C696F669
:1008A30008A3E0C696F622C0E0E493A36C7009D0D7
:1008B300E0D0E0D0E00206EAA3A3D0E0222518109E
:1008C300AF08F518400215198008F51840021519EC
:1008D300D2AF22E76670100809E766700A0809E7D5
:1008E3006670040809E76622E066701008A3E066F4
:1008F300700A08A3E066700408A3E06622C3E096CA
:1009030008A3E09608A3E09608A3E096A2D265D0D8
:100913003322C3E096F008A3E096F008A3E096F034
:1009230008A3E096F022E026F008A3E036F008A33F
:10093300E036F008A3E036F022C0E0E8C0E0E5814D
:1009430024FCF8E6A2E7D0E0F8D0E022E647F60878
:1009530009E647F60809E647F60809E647F622E0FE
:1009630026F608A3E036F608A3E036F608A3E03639
:10097300F622E627F60809E637F60809E637F60809
:1009830009E637F622E657F60809E657F60809E6B8
:1009930057F60809E657F622E056F608A3E056F69E
:1009A30008A3E056F608A3E056F622E056F008A3A3
:1009B300E056F008A3E056F008A3E056F0227004D6
:1009C30022600D18C6C333C608C633C6D5E0F41873
:1009D30022E4C396F608E496F608E496F608E4964D
:1009E300F622C6F4C608C6F4C608C6F4C608C6F49A
:1009F300C622C3E7960809E7960809E7960809E7B8
:100A03009622C3E09608A3E09608A3E09608A3E025
:100A1300962275D00075814075180175190300027F
:100A23000483600C08C6C313C618C613C6D5E0F406
:100A330022E6F008A3E6F008A3E6F008A3E6F02216
:100A4300E0F608A3E0F608A3E0F608A3E0F622C563
:100A5300822518C582C5833519C58322CAC0E0E63D
:100A6300F0A308DAFAD0E0FA22E0FAA3E0FBA3E06D
:100A7300FCA3E0FD22EAF0A3EBF0A3ECF0A3EDF07E
:100A830022E5C754F84401F5C77901222518F582F8
:100A9300E43519F58322C2AF75D69F0200002212F6
:100AA30007E1A9E2021207E1F6E3021207E199E482
:100AB300021207E1E0E5021207E1FEE5021207E197
:100AC3008F22001207E1A122001207E1F322001294
:100AD30007E15423001207E1DE23001207E1822419
:100AE300001207E1D624001207E1EF24001207E108
:100AF3001525001207E15025001207E19425001285
:100B030007E1BB25001207E10C26001207E1BC2612
:100B1300001207E17427001207E13C28001207E1E5
:100B2300FC28001207E14029001207E165290012A1
:100B330007E1A829001207E1F529001207E14D2B6F
:100B4300001207E1D32B001207E1F12B001207E19A
:100B53001B2C001207E1352C001207E1442C001274
:100B630007E14F2C001207E10F2D001207E1682D5A
:100B7300001207E12A2E001207E1322E001207E1CC
:100B8300F62E001207E1622F001207E18D300012EA
:100B930007E1B230001207E12831001207E1BA3150
:100BA300001207E17A32001207E19932001207E1DD
:100BB300A833001207E1BA33001207E12A34001206
:100BC30007E15434001207E1E234001207E11B3558
:100BD300001207E16735001207E18336001207E1CF
:100BE300CC38001207E1D738001207E1E2380012CF
:100BF30007E1ED38001207E1F738001207E1023987
:100C0300001207E11C39001207E12639001207E13F
:100C13003039001207E13B39001207E16339001252
:100C230007E1BE39001207E1C839001207E1EC39C8
:100C3300001207E1103A001207E16E3A001207E1D1
:100C4300B23A001207E1CE3A001207E1453B001227
:100C530007E17D3B001207E1C93B001207E1263C97
:100C6300001207E1E03C001207E1C43E001207E175
:100C73001D3F001207E14D40001207E173400012CF
:100C830007E1FC41001207E17845001207E14A47FA
:100C9300001207E11349001207E1C049001207E1FE
:100CA3002B4B001207E1CA4B001207E10F4C001255
:100CB30007E1794C001207E1884C001207E10F4F5E
:100CC300001207E1C150001207E12E51001207E1A3
:100CD3000D52001207E12653001207E1A35400123C
:100CE30007E1C254001207E11755001207E11C5631
:100CF300001207E14456001207E19C56001207E177
:100D03007B57001207E1BF57001207E10A58001290
:100D130007E17558001207E1B659001207E11A5AA4
:100D2300001207E1685B001207E1C85D001207E1EA
:100D3300F95D001207E1B15F001207E106600012DE
:100D430007E10A61001207E1A761001207E10062EF
:100D5300001207E1B362001207E15563001207E1D5
:100D6300F563001207E19A64001207E1AD820112F4
:100D730007E1EC82011207E13385011207E17D856A
:100D8300011207E19886011207E10087011207E1CA
:100D93003587011207E1A988011207E12C8B0112A3
:100DA30007E1558C011207E1EB8C011207E1F39582
:100DB300011207E18896011207E16F99011207E119
:100DC300629A011207E1D09A011207E1169C0112FF
:100DD30007E1F89C011207E1DD9E011207E1EEA095
:100DE300011207E158A1011207E12AA2011207E14A
:100DF30058A2011207E115A3011207E1ECA30112A6
:100E030007E1B3A4011207E157A5011207E180A589
:100E1300011207E1A2A5011207E1F8A7011207E1F8
:100E2300D0A8011207E114A9011207E17CA901125C
:100E330007E134AA011207E166AA011207E1AAAA8F
:100E4300011207E1E0AA011207E12CAB011207E14D
:100E530081AB011207E186AB011207E1D9AB0112A5
:100E630007E1FEAB011207E10DAD011207E171AD20
:100E7300011207E1E1AD011207E16DAE011207E1D5
:100E83003AB1011207E11EB2011207E1A1B3011247
:100E930007E1D7B5011207E185B6011207E135B7BE
:100EA300011207E176B9011207E119BA011207E14C
:100EB30060BA011207E10CBC011207E120BC011268
:100EC30007E12ABC011207E152BC011207E15EBC33
:100ED300011207E17DBC011207E19DBE011207E18A
:100EE300ECBF011207E130C0011207E1D8C00112C3
:100EF30007E1BBC1011207E166C2011207E1B2C3F8
:100F0300011207E1B0C4011207E156C5011207E15E
:100F1300E6C5011207E1FDC5011207E134C601125E
:100F230007E13EC6011207E149C6011207E167C6A0
:100F3300011207E1ABC6011207E108C7011207E17D
:100F43002DC7011207E147C7011207E1D3C70112F9
:100F530007E1F0C8011207E15DC9011207E144CAC4
:100F6300011207E16BCA011207E1DFCA011207E1AF
:100F73005ACB011207E15ECC011207E154CD0112F5
:100F830007E103CE011207E116CF011207E1B2CF49
:100F9300011207E13FD0011207E11DD1011207E160
:100FA30055D1011207E1ADD1011207E176D2011249
:100FB30007E197D2011207E11ED3011207E142D3E1
:100FC300011207E164D3011207E1ADD3011207E176
:100FD300C3D5011207E1AAD6011207E15BD70112BB
:100FE30007E191D9011207E1E1D9011207E121DA01
:100FF300011207E163DA011207E1BFDA011207E127
:10100300EDDA011207E111DB011207E164DB0112E2
:1010130007E192DB011207E1CBDB011207E120DCE0
:10102300011207E186DC011207E1DADD011207E1B3
:10103300FDDF011207E16AE0011207E193E001120B
:1010430007E11EE1011207E185E1011207E1D0E1A9
:10105300011207E1F4E1011207E118E2011207E1CD
:1010630073E2011207E18EE2011207E147E3011285
:1010730007E1A2F7031207E1E1F7031207E1788022
:10108300021207E1BE80021207E19E81021207E10C
:10109300A082021207E1A383021207E12F85021245
:1010A30007E18D85021207E14A86021207E168878C
:1010B300021207E1D987021207E11588021207E13C
:1010C3006388021207E16D88021207E1B1880212F8
:1010D30007E10D89021207E1A889021207E1258AB7
:1010E300021207E1F48A021207E18D8B021207E173
:1010F300AD8B021207E1E38B021207E1148C02129B
:1011030007E1D58C021207E1E58C021207E1398D64
:10111300021207E1548D021207E1668D021207E104
:101123006F8D021207E1C98D021207E1258E0212AB
:1011330007E1718E021207E18C8E021207E1BD8E68
:10114300021207E1DA8E021207E1E68E021207E1CC
:101153005A90021207E17390021207E1DA90021229
:1011630007E1ED90021207E1FB90021207E1AF9154
:10117300021207E19392021207E19993021207E127
:101183002394021207E12D94021207E19A940212AA
:1011930007E1B194021207E1E394021207E11C95FF
:1011A300021207E14695021207E1A795021207E131
:1011B300C795021207E1E595021207E12B96021289
:1011C30007E15197021207E19E97021207E1CD97BB
:1011D300021207E14398021207E16B98021207E13A
:1011E300A498021207E1B298021207E10A990212C7
:1011F30007E15999021207E19899021207E1C89988
:10120300021207E1F499021207E1FF99021207E1C2
:101213001D9A021207E1DF9A021207E1E99A02120C
:1012230007E12A9B021207E17F9B021207E1939BCE
:10123300021207E1A19C021207E1B49C021207E12A
:10124300C99C021207E16B9D021207E1EE9D021297
:1012530007E1AC9E021207E1B79E021207E1E39F8A
:10126300021207E1FF9F021207E151A0021207E1F8
:1012730090A0021207E1A5A0021207E107A1021242
:1012830007E196A1021207E1E1A1021207E132A4EC
:10129300021207E1B0A4021207E125A5021207E139
:1012A30047A7021207E15FA7021207E162A7021232
:1012B30007E16EA7021207E182A7021207E18AA7DC
:1012C300021207E1BDA7021207E16DA8021207E1AE
:1012D300E3A8021207E156A9021207E10AAA0212C1
:1012E30007E1BFAA021207E1DEAA021207E184ABFB
:1012F300021207E1AFAB021207E1B2AB021207E140
:101303001CAC021207E144AD021207E11CAE02124B
:1013130007E1A7AE021207E1C0AF021207E17DB0F9
:10132300021207E1B6B0021207E1E7B0021207E1C9
:10133300A5B1021207E1D5B1021207E1B0B2021260
:1013430007E149B3021207E1D4B3021207E185B4FE
:10135300021207E108B5021207E13AB5021207E1EA
:101363007BB5021207E1A0F4021207E105F50212B0
:1013730007E142F5021207E191F5021207E1A7F72F
:10138300021207E18AF9021207E1F4FC021207E1F3
:101393002FFD021207E151FD021207E1B4FD021213
:1013A30007E1E8FD021207E10BFE021207E138FE36
:1013B300021207E194FE021207E1108D031207E106
:1013C3008E8D031207E1C48D031207E1308E0312E1
:1013D30007E1A38F031207E1BF8F031207E186D64C
:1013E300021207E19290031207E1EB90031207E167
:1013F3001892031207E12A93031207E1879303125A
:1014030007E1F393031207E15494031207E1959460
:10141300031207E14295031207E15496031207E111
:101423007F96031207E1CA96031207E1119703128D
:1014330007E1A397031207E15E98031207E154E063
:10144300021207E180AF031207E18BAF031207E13A
:10145300D5B1031207E1D6B3031207E192B4031225
:1014630007E111A2031207E15DA2031207E1CBA278
:10147300031207E1ECA2031207E19CA3031207E1A5
:10148300A5A3031207E1F8A3031207E121A40312A2
:1014930007E188A4031207E119A5031207E15BA57D
:1014A300031207E1A5A5031207E104A6031207E14E
:1014B30030A6031207E1C1A6031207E100A7031236
:1014C30007E13FA7031207E174A7031207E186A709
:1014D300031207E198A7031207E1B7A7031207E175
:1014E300C0A7031207E176A8031207E1B6A8031207
:1014F30007E109F4031207E12CEA031207E162EAA8
:10150300031207E1ABEA031207E1FBEB031207E166
:1015130081E3011207E1C0E4011207E1FCE40112D7
:1015230007E1BBE6011207E1E4E6011207E177E90F
:10153300011207E1BBE9011207E144EB011207E1E4
:10154300DCEB011207E144EC011207E1E5EC0112C7
:1015530007E127ED011207E167ED011207E1F2EE62
:10156300011207E162F0011207E187F2011207E1BC
:10157300B5F2011207E1DCF2011207E1E5F2011213
:1015830007E16CF3011207E18AF6011207E1E5F8BE
:10159300031207E1FBF8031207E157F7031207E110
:1015A300EED9031207E101DA031207E19EDA03120F
:1015B30007E1D9DA031207E1F4DA031207E119DBD1
:1015C300031207E15EDB031207E18FDB031207E17E
:1015D300C0DB031207E146DD031207E1DCF403126B
:1015E30007E112F5031207E12EF5031207E170F587
:1015F300031207E180F5031207E1DFA8031207E1F5
:10160300BCA9031207E1EEAA031207E102AB03121E
:1016130007E179AC031207E105AD031207E15CAD05
:10162300031207E194AE031207E153DD031207E14E
:1016330092DD031207E1D9DD031207E110DE031285
:1016430007E14EDE031207E18CDE031207E138DF08
:10165300031207E10080031207E15280031207E13E
:101663003B81031207E1D481031207E11E820312B7
:1016730007E17B82031207E1AD82031207E1AB832B
:10168300031207E1EF83031207E10A84031207E160
:101693005984031207E16F84031207E17C84031268
:1016A30007E1B084031207E1C984031207E19385BC
:1016B300031207E1ED85031207E13B86031207E1FD
:1016C3005D86031207E1D488031207E10989031237
:1016D30007E19989031207E10E8A031207E1138ACE
:1016E300031207E14F8A031207E1A58A031207E1F8
:1016F300698B031207E18E8B031207E1988B0312A8
:1017030007E19B8B031207E1248C031207E13F8C53
:10171300031207E1528C031207E18D8C031207E1D8
:10172300908C031207E19B8C031207E1D78C031201
:1017330007E1B0FF011207E1C8FF011207E10BF750
:10174300011207E15AF7011207E1FCF8011207E160
:10175300B8FA011207E100FB011207E1E8FB0112ED
:1017630007E119FD011207E13BFD011207E197FDB6
:10177300011207E11BFE011207E1E664001207E113
:101783000765001207E18465001207E1096600128C
:1017930007E18566001207E1EE66001207E13A678A
:1017A300001207E1B967001207E14B68001207E175
:1017B300D768001207E11969001207E1626D001290
:1017C30007E1E26E001207E1B86F001207E1E76F6D
:1017D300001207E1D271001207E15274001207E10F
:1017E3000B75001207E12876001207E17F790012DA
:1017F30007E18F79001207E1F07A001207E17C7BA1
:10180300001207E1A57C001207E1967D001207E1B3
:10181300187E001207E125E6021207E1DFE6021255
:1018230007E151E7021207E1EDE7021207E15DE884
:10183300021207E116EB021207E1EDEB021207E1D8
:101843005AEC021207E1D7ED021207E1A1EE0212F0
:1018530007E111EF021207E1DAF0021207E1EDF1FD
:10186300021207E186F2021207E14CF3021207E1CA
:10187300C5CB031207E119CC031207E171CC0312A4
:1018830007E1BCCC031207E11ECD031207E18ACDA9
:10189300031207E13DCE031207E17ECE031207E1F7
:1018A30094CE031207E1F0CE031207E12ECF031209
:1018B30007E169EE031207E19AEE031207E154EF21
:1018C300031207E1BAEF031207E1DDEC031207E1AC
:1018D300E0E2031207E182E3031207E1F3E30312F9
:1018E30007E198F8031207E1A9F8031207E143F0AF
:1018F300031207E151F0031207E1E37F001207E14E
:101903002AF6031207E13AF6031207E152F603122D
:1019130007E19AF6031207E107F3031207E18CF3D9
:10192300031207E1F0F3031207E1F67F001207E168
:10193300E9D2031207E1FFD2031207E128D303120E
:1019430007E143D3031207E15ED3031207E168D330
:10195300031207E172D3031207E185D3031207E1F0
:101963009ED3031207E145D4031207E1C4D4031243
:1019730007E15FCF031207E16DCF031207E1E7CF62
:10198300031207E1CBD0031207E184D2031207E16C
:10199300C3F8031207E1E1B4031207E14DB50312E3
:1019A30007E10CB6031207E116B7031207E16FB89C
:1019B300031207E1CAB8031207E11FB9031207E1D3
:1019C30028B9031207E13AB9031207E1A4B90312D4
:1019D30007E1B8B9031207E1C2B9031207E193BEE5
:1019E300031207E1E8BE031207E1E4C0031207E1B3
:1019F30016C1031207E138C1031207E151C10312F3
:101A030007E16AC1031207E174C2031207E10FC3BE
:101A1300031207E14FFE011207E173FE011207E112
:101A23008CFE011207E1BFFE011207E1F0FE011275
:101A330007E11EFF011207E180FF011207E18FFF9B
:101A4300011207E199FF011207E1A6FF011207E165
:101A530050E0031207E176E0031207E1B3E003125B
:101A630007E1C2E0031207E1E1E0031207E149E104
:101A7300031207E152E1031207E1B1E1031207E1A7
:101A8300D5E1031207E194E2031207E1A1E2031295
:101A930007E1B2E2031207E12FF8031207E14CF862
:101AA300031207E186C3031207E1E4C4031207E14B
:101AB300F1C4031207E104C5031207E123C50312AE
:101AC30007E139C5031207E14DC5031207E1C2C59A
:101AD300031207E127C6031207E1D7C6031207E182
:101AE300ACC7031207E1BCC7031207E1CBC703125C
:101AF30007E191F5031207E1B5F5031207E1DDF5FF
:101B0300031207E105F6031207E169E5031207E192
:101B130090E5031207E1B1E5031207E116E60312AC
:101B230007E1CFE7031207E1E8E7031207E1F4E770
:101B3300031207E108E8031207E126E8031207E1AD
:101B430030E8031207E13AE8031207E14DE8031214
:101B530007E1A0E8031207E1D9E8031207E108E966
:101B6300031207E156E9031207E1A5E9031207E1AE
:101B7300C0E9031207E1CAE9031207E1DBE9031233
:101B830007E121EA031207E106F7031207E1D598FB
:101B9300031207E1FF98031207E11B99031207E100
:101BA3002E99031207E14499031207E1A199031245
:101BB30007E1D499031207E1109E031207E1369F50
:101BC300031207E1699F031207E1B59F031207E1BF
:101BD300E1A0031207E109A1031207E11EA1031209
:101BE30007E12EA1031207E172A1031207E1D3A1BA
:101BF300031207E1E3A1031207E1B07E001207E13C
:101C0300CB7E001207E1F47E001207E10E7F001283
:101C130007E1337F001207E1527F001207E16A7F79
:101C2300001207E1987F001207E1B27F001207E17B
:101C3300EBF7031207E16ED6031207E175D6031221
:101C430007E181D7031207E1B1D7031207E1D7D721
:101C5300031207E1FAD7031207E11CD8031207E1C5
:101C630056D8031207E1BCD8031207E1F5D80312D3
:101C730007E141D9031207E16ED9031207E18ED9B7
:101C8300031207E1FBF1031207E113F2031207E169
:101C930001F3031207E104F3031207E1E0FE02126A
:101CA30007E152FF021207E190FF021207E1D1FFA1
:101CB300021207E104C8031207E123C8031207E174
:101CC30072C8031207E18EC8031207E1BFC80312EB
:101CD30007E1CCC8031207E1D9C8031207E1C5C95C
:101CE300031207E103CA031207E113CB031207E14F
:101CF3001ECB031207E130CB031207E139CB0312EA
:101D030007E143CB031207E1D6B9031207E11BBE78
:101D1300031207E129BE031207E16BF8031207E17F
:101D230005F9031207E1A3F6031207E1DAD502125C
:101D330007E120D4021207E1D0D1021207E157D103
:101D4300021207E1FED0021207E18ED0021207E170
:101D530065D0021207E145CE021207E111CE02124D
:101D630007E1DECD021207E1C2CD021207E1DBCCAF
:101D7300021207E193CC021207E1DECA021207E165
:101D83005ECA021207E15BCA021207E158C90212D6
:101D930007E126C9021207E163C8021207E18EC6F2
:101DA300021207E11FC6021207E1F1C5021207E1A1
:101DB30072DF021207E156DF021207E1F6DE0212BA
:101DC30007E1AEDE021207E1FCDD021207E1EEC518
:101DD300021207E1DBC5021207E186C5021207E121
:101DE3006EDD021207E175C5021207E167C4021234
:101DF30007E131C4021207E1DFC3021207E180C326
:101E0300021207E161DD021207E15BDA021207E168
:101E13000DAF031207E14FC3021207E117C002120D
:101E230007E1D7BF021207E1CBBF021207E12BBFC5
:101E3300021207E16BBE021207E1EDBB021207E1DA
:101E43007EB9021207E13CB9021207E110B802128F
:101E530007E1C5B7021207E104B7021207E1D7B6DB
:101E6300021207E11AB6021207E1EAB5021207E10C
:101E7300BDD7021207E1B0B5021207E104900300D7
:101E8300000080FBE473000136360101000102010A
:101E93000001030100010401060605020000070119
:101EA30000340801000F090401010D0100FF0E08B1
:101EB300000017020000190100FF1A0100011B01B5
:101EC30000FE1C0100081D0200001F01000120018B
:101ED3000001210200002301000F2402000026015B
:101EE300000127010008280200FF2A0100072B0137
:101EF30002402C0100002D0100012E0100012F01E1
:101F030000FF30010B1C310800003A0100083B01BF
:101F1300000F2F0100000302710230016002110261
:101F230070020102020202028002100261023A0000
:101F3300410063027302720262024302000213024F
:101F43003800000200020402120200020002000232
:101F5300000204020402370037003C02440200027C
:101F6300390000020002650200023502810200020C
:101F73000502820283020002030071003001600047
:101F83001100700031022003500480001000610032
:101F9300000014006300730072006200430000003D
:101FA30013000600000000000400120000000000FF
:101FB3000000000004000400370037003C02440026
:101FC30000000000000000006500000035008100F3
:101FD30000000500000083000000030471040204F4
:101FE30060041104700402040204010402041004D6
:101FF300610400041404630473047204620443045C
:10200300000413040604000400040404120400047E
:1020130000040004000451046400000400040004EC
:1020230044040004000400040004650400043504AF
:1020330081046400050400048304000401037103A4
:10204300010301030103010301032203020301034B
:102053001003000300030003000300030003000355
:1020630042030003240306030003000304031203D3
:1020730025032303250323030403040300030003AD
:10208300000344030003000323030003650321004B
:10209300350381030003050300030003000301016B
:1020A300710101010101110101013101010101016D
:1020B3008001100161013B0014006301730172018F
:1020C300620143010001130106013D0135000401D2
:1020D30012010001000100010001040104013301A8
:1020E30033013C0144013201360000010001650166
:1020F3000001350081010001050182018301000116
:1021030036000100060000000F0000000000000080
:1021130000000000000003FFFF00000403FFFF00B6
:1021230000FFFF0FF4010005C404032000010003B6
:102133000B000000000000000003010F00002E1838
:102143001300CE1701002E180200981703009E17E4
:102153000400A4170500AA170600B617FFFF000026
:1021630001B40D06E40D08DE0D0BF00D10300D0269
:10217300BA0D05D20D07C00D0C960D0DA80DFF006D
:102183000003EAF5E5D5D5C5B5A59595858575759E
:1021930065655555454535352525151505BC11ECA2
:1021A30011C211C811E611DA11D411F211F811FE9E
:1021B300110A12CE11B611B01100160F00000B1543
:1021C3000B020002220F32000006A612B812BE1242
:1021D3008611C41280118C11C010BA10F610FC10B5
:1021E300F010A81000131E132413061312130C135C
:1021F300303016181920231A1C1E300C0E020B0443
:102203000B0A0708000F00383C3E363B3B352B4397
:102213002C303017181921301B1D1F3000011916DF
:102223001816161523030000034948424D181725B5
:102233000502F412CA12D012DC12D612E0110412F3
:10224300181310121612020402010101010902CC33
:1022530010D210C6100211000000000000D810EACE
:102263001000BE040A0E00150004007F00E8030CF2
:10227300002800000000000308100C0A03080900EE
:10228300040001FF1E1E0C05040F1008C082C0834A
:102293008A828B83E0D2E7F01216FC023406C082F6
:1022A300C083790012275B125472C082C0839003EB
:1022B300341241F8D083D082C3E09CA3E09D500C3C
:1022C300125B46FAA3E01222D2600109023406FB34
:1022D300EA75F00BA4FAA8F075F00BEBA428FB90B9
:1022E3000336E02AF8A3E03B8882F583E0540F220B
:1022F30074F7120360890812275B122801ACF0758A
:10230300F00BE9A42CF9900336E028FEA3E039FF93
:102313007401650860067402650870208A828B83E5
:102323001227ED1234D474026508701B1226AC1206
:10233300283470138E828F83E4F0800BEA2403FC2D
:10234300EB1227CF1227DBEEFAEFFB120AC002349F
:102353003E74F412036012646D79008E828F83E001
:102363006076890A890B8065E50A75F00BA4FAA8E3
:10237300F075F00BE50B1222DF7046E50A75F00BE2
:10238300A4F8AAF075F00BE50B1228138E828F8345
:10239300E08508828509831228F5850882850983EB
:1023A300A31234D4EE2403FCEF1227D812340D12F7
:1023B3004EECAA08AB09120AC07901900334124902
:1023C30001E50A2401F50AE50B3400F50B1226B4E6
:1023D300E50A9AE50B9B409002367E74F512036082
:1023E300EAFEEBFF740B120A8F123412750A01EC2A
:1023F3004D602BEC126489ED1254721234CC7901C6
:10240300120ACCE5084509606F850882850983A314
:102413001264777902AA08AB09120ACC805AE5083C
:102423004509602B125476123B4012340E12281EBB
:10243300700CEEFAEFFB120AD2E9F50A80CBEE2418
:1024430003FA12275670317903EEFAEFFB80CA8E36
:10245300828F83A3E064FE7003A3E0F4700BEE2489
:10246300030A0A0A122756700CEEFAEFFB120AD27D
:10247300E9F50A8003750A00A90A7F030205797446
:10248300F712036090033412344EEA4B602FEA755F
:10249300F00BA4FAA8F075F00BEBA428FBEAFEEB13
:1024A300FF12150490033612344E9003361247463A
:1024B3006012EEFCEFFD790012146E800790033674
:1024C300E4F0A3F002343E900334123EB0C3EE981E
:1024D300EF9922C082C083EC4D6005121CAE8009C7
:1024E3007C087D00790012146E02340674F6120320
:1024F300607900EA4B6018780088081257B9EB122C
:102503005B4260047901780808E8C3940840EA0252
:1025130034DD74F712036074F31208C0ECFEEDFFB0
:10252300851882851983E4F004120A8FEAF0A3EB7D
:10253300124C727403120A8FAC82AD83EEFAEFFB76
:10254300120AE4EEFAEFFB120AEA02343974F712C4
:10255300036074F31208C0ECFEEDFF851882851941
:1025630083E4F0EAFCEBFD7403120A8F1228EE7485
:1025730001120A8F1234C88E828F831234D474FEF0
:1025830068700374FF696004790180027900023482
:102593003974F7120360EAFEEBFF1225F27014128E
:1025A30025FD8E828F83E0F4F88A828B83E058F0D6
:1025B300120AC0A90802343E74F7120360EAFEEB64
:1025C300FF7508008E828F83E060221225F2701D52
:1025D3001225FD8A828B83E08F838E82F8E0587008
:1025E3000CE0F88A828B83E048F0120AC080C412A0
:1025F3000AC6E9F5087401650822126482122805E7
:10260300122747FAA3E039FB2274F41203608A0805
:102613008B097C007D001226AC1227DB12276C127B
:1026230064747900850882850983A3E064FE7003DE
:10263300A3E0F460717E007F008062EEFAEF122265
:10264300D26057EEFAEFFBEA75F00BA4FAA8F07527
:10265300F00BEBA428FB900336E02AF50AA3E03B3A
:10266300F50B850882850983A3124BC0850A8285F1
:102673000B83A3E06A7003A3E06B701EE50A2403D7
:10268300FAE50B122757700AE50A2403FCE50B123F
:1026930027D8122760790112548812304B1226B4BE
:1026A300EE9AEF9B409502367EEA24030A0A0AEB70
:1026B3002290033412505FC32274F31203608A081A
:1026C3008B098A828B83A312647712275B1264744B
:1026D300750C001226AC12275770547E007F0080C1
:1026E30049122739FAA3E0398A82F583E0540F604F
:1026F30036122739F50AA3E039F50BE50A2403FC62
:10270300E50B1227E23400FB121CA8E964017017E1
:10271300850A82850B83A3125120A31234D4122776
:1027230060750C0112548812304B1224CA40B2A9AE
:102733000C7F05020579EEF8EFF9E875F00BA4F8C4
:1027430012274722AAF075F00BE9A42AF990033661
:10275300E02822EF12282E22126488EB2212276C23
:10276300125483EEF0A3EFF022E508126489E50921
:102773002274F5120360EAFEEBFF8E828F83A312AD
:1027830064777C007D00EE24030A0A0AEF1227DB3C
:10279300EEFAEFFB120AC6E9F50A7401650A70291D
:1027A300126482122801AAF075F00BE9122813852E
:1027B3000882F5831227ED12281E700DE508240305
:1027C300FCE5091227CF1227DB02247B3400FDEE40
:1027D3002403FAEF221227E23400FB120AE4223424
:1027E30000FDE5082403FAE50922A31227F22212C9
:1027F30027F622E0F8A3E0F98E828F83A322122822
:1028030005223400F583123EB4E875F00BA4F822D8
:1028130012274DF508A3E039F50922E8F0A3E9F002
:10282300E5082403FAE50912282E2212283464014C
:10283300223400FB120AEAE92274F312036074E6FD
:102843001208C012646D750C0175080075090075D6
:102853000A00750B00851882851983E4F0EE2403C2
:10286300FCEF3400FD7403120A8F1228EEE96401B1
:102873007023740B120A8F1234CC7401120A8F1254
:102883004BC47003A3E06960518518828519838561
:102893008208858309740D120A8FE41228F5740ED9
:1028A300120A8F1234D4740D120A8FAA82AB8312C8
:1028B3000B08E96401700B740D120A8F85820A8577
:1028C300830B780A120819AC08AD09EEFAEFFB1274
:1028D3000AD87402120846E9F50CEEFAEFFB120B64
:1028E30002A90C741A120846022734122BC1120BC8
:1028F3000E22123449123EB022C082C0837800797E
:102903000080031229EC1226B4E89AE99B5029E8C7
:10291300FAE9FBEA75F00BA4FAACF075F00BEBA443
:102923002CFB900336E02AFCA3E03B8C82F583E08A
:10293300540F70CF790080027901023406C082C03F
:102943008390226A123F06EC75F012A4FCA8F0757E
:10295300F012EDA428FD79FF7A277B0B12146E0287
:10296300340674F7120360E9FEEAFF7A007B00780D
:102973000079008028E8FCE9FDEC75F012A4FC85E1
:10298300F00875F012EDA42508122E01C39E400A2B
:10299300E0FCEFC39C4003122F201229EC122DF50B
:1029A30040D302343EC082C0837800790080031292
:1029B30029EC1229E0501F122E05F470F2E875F08D
:1029C30012A4F8AAF075F012E9A42AF9742728FAD8
:1029D300740B39FB80047A007B0002340690226A70
:1029E300122EB6C3E89AE99B22E8240108E93400D1
:1029F300F92274F012036074F31208C08A0A8B0B75
:102A03008C0C8D0D8908EC450D6016AA0CAB0D12CC
:102A13000B5C8A0E8B0FAE0EAF0FEE4F6003022AD4
:102A2300B3120B328A0E8B0FA80EA90FE8FEE9FF33
:102A3300E849607C902278122B15602274036508A4
:102A430060067404650870167A047903120B2C90DF
:102A53002278122B2C40077A007B00022B12902243
:102A630076122B15601B74016508600674026508F5
:102A7300700F7A027901120B2C902276122B2C50B4
:102A8300D68518828519837401F0120A8F124EECD1
:102A9300AC0CAD0D7403120A8F122BBA740B120A0D
:102AA3008F12341A1238B4E4124ED4121000800478
:102AB300EE4F604A780074FF2508C39404500278EF
:102AC300048E828F83124EEC8E828F83A3A3A3A3E3
:102AD300E508F0E88E828F83A3A3A3A3A3124EF489
:102AE30012020F122ECD8E828F83A3A3A3A3A3A3BF
:102AF300A3F0122EC4120A6C12546C120A78122B11
:102B03001A4005901083E4F0120EDAEEFAEFFB029E
:102B13003EBA12500E49227A047900120B2C9022ED
:102B23006A125B28EA98EB9922122B45758322756A
:102B3300826AE493C398F8A3E49399F9C3EA98EB00
:102B43009922E493F8740193F92274F212036074E6
:102B5300F31208C08A088B09ECFEEDFF750A00EE3C
:102B6300FAEFFB120B5C8A0C8B0DA80CA90DE8493C
:102B7300603E88828983E065087004A3E06509608C
:102B83002F88828983A3A3A3A3E0C39405502112B2
:102B9300531A8518828519837401F0120A8F125310
:102BA3001EEEFCEFFD7403120A8F122BBA750A0195
:102BB300A90A740D0249B8122BC1120B1A22AA8258
:102BC300AB83120AE4851882851983AA82AB832218
:102BD30074F6120360122C0F600FA3A3A3A3E014D7
:102BE300C3940450047901800279000234DD74F641
:102BF300120360122C0F600FA3A3A3A3E014C394CA
:102C03000250047901800279000234DD120B568AE6
:102C1300828B83E58245832274F6120360122C0FA4
:102C2300600BA3A3A3A3E0700479018002790002DF
:102C330034DDC082C083EAFCEBFD7A007B00023402
:102C430003C082C0837C007D0002340374F412034A
:102C53006074F31208C0EAFEEBFF8C0A8D0BC3EC21
:102C630094F8ED94FF4007EE4F7003022D087508AA
:102C730000750900802E8518828519837401F0126E
:102C83003073120A8F12308160137403120A8FACEF
:102C930082AD83EEFAEFFB121CA8E97049E5082424
:102CA30001122EA190226AE4125016E50898E50954
:102CB300995052E50875F012A4F8AAF075F012E5E0
:102CC30009A42AF9125B5B60D4EE4F70A974FF6507
:102CD3000A700474FF650B60C4123063650A7004E4
:102CE300A3E0650B70B7E50875F012A4F508A8F02A
:102CF30075F012E509A428F50974272508FA740B61
:102D03003509FB80047A007B0002367974F41203E0
:102D13006074F31208C0750800120B5C8A0A8B0BEF
:102D2300AE0AAF0BEE4F602A8518828519837401B2
:102D3300123443F8A3E0F9740B120A8F12355712B9
:102D43000AFC7C127D0079FFEEFAEFFB12146E751C
:102D53000801122B1A50099010837401F0120EDA35
:102D6300A90802367974F7120360E9FE74FE6A70EB
:102D73000374FF6B78007900700580521229EC12FE
:102D83002DF5504AE8FCE9FDEC75F012A4FCAFF018
:102D930075F012EDA42F122E01F460E0E8FCE9FDBA
:102DA300EC75F012A4FC75F012EDA42FFD74272C22
:102DB300F582740B3DF583E06A7003A3E06B70BC8E
:102DC3008009122E0514C3940440171229EC12290A
:102DD300E05018EE70EC122E0564016005E0640308
:102DE30070E9123054FAA3E0FB80047AFE7BFF0201
:102DF300343E90226A123F0AC3E89CE99D22122FB7
:102E03005522E8FAE9FBEA75F012A4FAACF075F082
:102E130012EBA42CFB742B2AF582740B3BF583E095
:102E230022120B6E023406C082C083790180F274D1
:102E3300F01203608A0A8B0B7A047901120B2C8A35
:102E43000C8B0DEA450D603EEAC333FAEB33FB12FC
:102E530015048A088B09AE08AF09EE4F60237AFE8A
:102E63007BFF120B7474FE6A700374FF6B601B8527
:102E7300088285098312344EE5082402122EA180AC
:102E8300E1750C0080047E007F00850A82850B8338
:102E9300E50CF0EEFAEFFB023EBFE5082407F50868
:102EA300E5093400F5092290226A123F0AC3EA9C1D
:102EB300EB9D22E493FA740193FB221214627403D0
:102EC3002212547DE4F090828222E88E828F83A3C3
:102ED300A3A3A3A3A3A3A3122EEF7401122EEFA304
:102EE300F0EE2410125480E4F0A3F0221238C0A3B1
:102EF300A3A322C082C0837A007B00800419122F0F
:102F030020122EAA5010122F3FC3940550F0E970DF
:102F1300EC122F2980047A007B00023406EA240194
:102F23000AEB3400FB22EA75F012A4FA75F012EBF7
:102F3300A428FB74272AFA740B3BFB22EAFCEBFD63
:102F4300EC75F012A4FCA8F075F012EDA428122F72
:102F53005522FD742B2CF582740B3DF583E022740E
:102F6300F712036074F31208C07E007F000230077B
:102F7300E50875F017A4F8A9F0125DBCFAA3E0FB0D
:102F8300EEF8EFF9E875F012A4F8ACF075F012E979
:102F9300A42C1230626A7003A3E06B603FE50875EE
:102FA300F017A4F8AAF0EA125DBBF8A3E0F97401E4
:102FB300120A8FE0687003A3E0696020E50875F0EA
:102FC30017A4F8EAF974A328FC740C39FD740312EE
:102FD3000A8FAA82AB83121CA8E96014E50875F076
:102FE30017A4F8A9F074A128FA740C39FB12100C79
:102FF300050890227CE493F8E508C3985003022F58
:103003007312304B90226A1261025039EEF8EFF9D5
:10301300123054F47003A3E0F460E6851882851936
:10302300837401F0EEF8EFF9E875F012A4F875F087
:1030330012E9A42AF9123073120A8F12308160C187
:1030430075080080AD023439EE24010EEF3400FF21
:1030530022E875F012A4F8AAF075F012E9A42AF98F
:1030630012306722742728F582740B39F583E02226
:10307300742928F582740B39123EAE740B22E8F0E2
:10308300A3E912355F120B14E922C082C0839003B7
:103093003D74CCF0A3740DF090033F74C6F0A37499
:1030A3000DF090034374E6F0A3740BF0023406743E
:1030B300F7120360EAFEEBFF900377E06408601BFE
:1030C300E0640460168E828F83E0540364017048C9
:1030D30012340D1239B5E06406703D8E828F83A3DE
:1030E300A3E064FE7003A3E0F4602D8E828F83A3BC
:1030F300A31234C8900368E0687003A3E069700BFF
:10310300EE2415F582EF125B426008120E7AE9F5A0
:10311300088008120E8080F67508C2EEFAEFFB12E3
:10312300150A0225B674F41203608A088B098A8291
:103133008B83E0F8A3E0FAE82AFAE43400FB1215E3
:10314300048A0A8B0BAE0AAF0BEE4F6063850882CD
:10315300850983E0FC7D00790012146E8E828F83D3
:10316300A3A3126477120EBC8E828F83A3A3A3A39F
:1031730012344E850882850983E0F8EE28F8EF348F
:10318300001234D0850882850983A3E0C0E0EE24D1
:103193000D12546FD0E0F0120ECEEE240E12546FC7
:1031A300E9124B21E0C0E0EE241112546FD0E0F09D
:1031B300EEFAEFFB02367E74F612036074EB12082C
:1031C300C0EAFEEBFF124743600302325E7A077BDD
:1031D3000012150490033912344E12474360788E5F
:1031E300828F83120A6C90033A1239B8120A78124A
:1031F300633BC0E012326AD0E0F0EE2405FAEF340C
:1032030000FB8A088B098A82F583E0C0E0123265ED
:10321300D0E0123675E0C0E0123265A3D0E012347C
:10322300BA120A6C851882851983120A78888289F2
:1032330083E0C0E07405120A8FD0E0F08508828530
:103243000983E0C0E07404120A8FD0E0F07407121F
:103253000A8F1233A0800679108002790174150257
:1032630034DA12326AA322900339E0FAA3E0F58339
:103273008A82A3A3A3A322C082C083124743600D03
:1032830090033912504D900339E4F0A3F0120DEA84
:10329300120FAC02340674F012036074EB1208C010
:1032A300ECFEEDFF89087425120A8F780C120A438D
:1032B3007429120A8FE0F9742A120A8FE0FC742B26
:1032C300120A8FE0FD740F697005740F6C60129021
:1032D30010C8E06402700579C102339BE9C39C40C6
:1032E300F6900378780C120A34E50890037EF0E92F
:1032F30090037CF0ECA3F0ED90037FF074FF6A7011
:103303000374FF6B701D9010D3E0F47003A3E0F41B
:10331300700512147A800C9010D3123423E8F0A3B2
:10332300E98007900375EAF0A3EBF0EE4F6017EE28
:10333300FAEFFB12106CE96401700BEEFCEFFD7AFF
:10334300897B03121CAE900368E4F0A3F090036B37
:10335300F0A3F0900388F09010C8E0640270089026
:10336300037C740FF0A3F09003777405F014120A32
:103373008FE4F0900378120A6C8518828519831202
:103383000A7890037EE0C0E07405120A8FD0E0F063
:103393007407120A8F1233A07415023EBCE412356F
:1033A3005F121CD822C082C083900338E0700312DE
:1033B30017C8120BB6804CC082C083900338E090CC
:1033C30010827004E4F0802D7401F0900338E0F46F
:1033D30060237C41E0C394415002E0FCECF8E0C37D
:1033E30098F0EC75F0E8A4CCA8F075F003A428FDE0
:1033F3007A80123F127A827B107941121CC68003B5
:10340300120B62D083D0820207DEEE12547E22E0DA
:10341300F508A3E0F5092212341E221227F6A3228F
:10342300123EB09003752274F7120360EB90037F92
:10343300F0120DD88005740D1208467F010205793C
:10344300123449A3E0221234BAA322EAF0A3EBF028
:103453002274F712036074F81208C0EAFEEBFF79D6
:1034630000900377E064087044851882851983749B
:10347300FDF0A374FFF0120EB67402120A8F123419
:103483004E7405120A8FE4123449E0C0E07404124A
:103493000A8FD0E01234B5C0E07406120A8FD0E070
:1034A300F07407120A8FE412355B120EF8740802E7
:1034B300343B1234BAE022F08E828F8322F08518D7
:1034C3008285198322123EB022E0F8A3E0F9125458
:1034D3007DE8F0A3E9F0221208467F02020579C0D5
:1034E30082C0839003497476F0A3740CF09003EFC9
:1034F3007452F0A3740FF090034D74ACF0A3740CEA
:10350300F090034F7476F0A3740CF090035174B2EF
:10351300F0A3740CF002340674F412036074F9120D
:1035230008C08A088B098C0A8D0B8518828519833C
:103533007808120A347404120A8FE9F07405120A27
:103543008FE4F07406120A8FE412355B120B9E743B
:103553000702367BE8F0A3E912355F221234C0AAD2
:1035630082AB832274F41203608A088B098A828BEC
:103573008312548BEE4F700302367390031212477B
:103583004660158A828B83A3A3E0F9EEFAEFFB90E2
:1035930003131239B8121E878E828F83A3A3A3A3AA
:1035A300A3A3A3A3A3E0640270748E828F83A3A357
:1035B300A3A3A3A3E05402700302364585088285C2
:1035C3000983A3A3E064E960798E828F83A3A3A315
:1035D300A3A3A3A3A3A3A3E070149010CBE0048E32
:1035E300828F83A3A3A3A3A3A3A3A3A3A3F08E82E6
:1035F3008F83A3A3A3A3A3A3A3A3A3A3E01412361C
:1036030075A3A3A37404F09010CC124EC6E8F0A3E4
:10361300E9125F9F8B0BEA450B700312597D8E8273
:103623008F83A3A3A3A3A3A3A3A3A3E06402601212
:103633008E828F83A3A3A3A3A3A3A3A3A3E0640660
:10364300702E8E828F83A3A3A3A3A3A3E0A2E05033
:103653001F850882850983A3A3E0F9EEFAEFFB1225
:103663001D628E828F83A3A3A3A3A3A3E054FEF0C2
:1036730080091238BC22740D1208467F04020579B2
:1036830074EC12036074DD1208C0EAFEEBFF8C08D1
:103693008D097437120A8F780C120A43750A007465
:1036A30005120A8FAC82AD8312143E7412120A8F74
:1036B300E070087415120A8FE060207405120A8FF7
:1036C300E0A2E6501E8E828F83A3A3A3A3A3A3A38A
:1036D300A3A3124BC0120F2EE960087903121C96A4
:1036E3000238A27405120A8FE0540C640470057545
:1036F3000B018003750B00E0A2E55035750A01E567
:103703000BA2E0402C120EBC8A108B11A810A91139
:1037130012340DE0687003A3E06960157405120AA2
:103723008F12647E124BBC121D6EE9600479048013
:10373300AC7405120A8FE0A2E650227406120A8FB7
:10374300E0540370187405120A8FE0540C640C6083
:103753000CE0540C640860057510018003751000BB
:103763007405120A8FE05403F8740268700C126433
:103773007E124BBC120AAE0238A2740168703AE59D
:1037830010A2E050031238AA7405120A8FA882A966
:10379300837403120A8FE8F0A3E9123EA48518820A
:1037A3008519831238B4E0C0E07402120A8FD0E0A6
:1037B30012355B121E580238A2E860030238A29049
:1037C300035FE0640170108E828F83A3A3A3A3A37E
:1037D300A3E070030237307422120A8F7402123E80
:1037E300A4741A120A8F1234D4E510A2E05008749C
:1037F30005120A8F1238AAE50BA2E0506AEE240FD5
:10380300F582EF125B42C0E07417120A8FD0E0F02A
:1038130090031412474670030238A2120EBC8A1298
:103823008B13A812A913741A120A8FE0687003A3EA
:10383300E069706B780C120811780A12081D780879
:10384300120819A910740C120A8FAC82AD8374216B
:10385300120A8FAA82AB839003141239B5121E8702
:1038630074071208468038780C120811780A120877
:103873001D7808120819900375120648EE2412F5F4
:1038830082EF1258707423120A8FAC82AD83740EC8
:10389300120A8FAA82AB83121D567409120846744A
:1038A30023120846025F6A12647E12505B120AA258
:1038B30022E8F0A3E91238BC221238C022F08E822B
:1038C3008F83A3A3A3A3A3A32274F71203601216E7
:1038D300B402343E74F71203601216BA02343E7413
:1038E300F71203601216C602343EC082C08312165A
:1038F300C002340674F71203601216CC02343E740D
:10390300F71203607409120A8FE0F50878081208A9
:103913001D1216D8740102343BC082C0831216E410
:10392300023406C082C0831216EA02340674F71208
:1039330003601216F002343E74F7120360EAFEEBE2
:10394300FF89087401650870147900120CEE902247
:1039530087E493FC7900EEFAEFFB120C6402343E29
:1039630074F412036074F91208C0E9FE8A088B0923
:103973008C0A8D0B7413120A8F124BC09005A01280
:1039830047466027EE851882851983F07401120A71
:103993008F7808120A34EAF8EBF97405120A8F12C9
:1039A30035579005A01239B5121E87023552FB9088
:1039B300034BE0F8A3E0F583888222C082C0831220
:1039C300172002340674F7120360901085E0F97E25
:1039D30000800B125B2E540D64017001190E123B13
:1039E300C25003E970ED02343E74F7120360901085
:1039F30086E0F97E00800B125B2E548D648170018A
:103A0300190E123BC25003E970ED02343E74F212F8
:103A13000360890BE975F006A4240CF508E5F012A0
:103A23002EA58A0CE508250CFAE5093400FB1215CE
:103A3300048A0C8B0DAE0CAF0DEE4F6027AC08ADB6
:103A430009790012146E12340DE50BF0EE2508F817
:103A5300EF3509F98E828F83A3A3A3A3A3A3A3A303
:103A6300A31234D4EEFAEFFB0249BB74F6120360DF
:103A7300EAFEEBFF120C40901084E0F8E9C3984093
:103A830009900345124BC0120C46EE2402F8EF12C4
:103A930051D090034712508A900347E004F0EEFAA6
:103AA300EFFB120C4C850882850983E0025686C021
:103AB30082C0837900900345800109124BC08A823A
:103AC3008B83E582458370F202340674F712036038
:103AD300EAFEEBFFEE4F6056900345124746604EF9
:103AE300888289837A007B00EE65827003EF6583A9
:103AF300600FAA82AB83123B34E5824583602F803B
:103B0300E7900345123B40687002EF698E828F8312
:103B130070081234C89003458003125F7C1234D4BA
:103B2300EEFAEFFB121E28EEFAEFFB12150A02342F
:103B33003E123B3822123EB48882898322123EB061
:103B4300EE22C082C0839003458004888289831259
:103B53004746600B888289831241F8EC4D70EC8AEA
:103B6300828B83E4F0A3F0E849600688828983802E
:103B73000390034512344E02340674F71203609027
:103B8300034580048A828B83123BBD4B60257E00F4
:103B930080010E123BC250ECEE75F006A4FCADF0B2
:103BA300EA2CFCEB3DFDEC2410F582ED123C127087
:103BB300E180047A007B0002343E12505FEA221255
:103BC3003C1BEEC3982274F71203607D0080010D45
:103BD300123C17EDC3985034ED75F006A4FEA8F01F
:103BE300E8FFEA2EFEEB3FFFEE2410F582EF123CD6
:103BF3001270DCED75F006A4FEE8FFEA2EFAEB3F47
:103C0300FBEA2411F582EB125B424CF002343E12C4
:103C13005B4E6922123C1B22126488EB3400F5834D
:103C2300E0F82274F6120360120D667A007B0080BE
:103C330025EAF8EBF9E875F006A4F8ACF075F006A0
:103C4300E9A42C125034126349A3E412512AF0A3BD
:103C530012634F1264C6902272122B2440D37A004F
:103C63007B00801C8A088B09740378081209C1122F
:103C73004AE8A374FEF0A304124F0AA3E41264C635
:103C830090227B123CC540DC7A007B00801D8A08B1
:103C93008B09740378081209C174C91257BA740FD7
:103CA30012600174FEF0A3041264C6902281123CD8
:103CB300C540DB902285E493900353F0123CCF027E
:103CC30034DDE493F8C3EA98EB9400227CE87D03A7
:103CD3007A107B009003C2E0F91215BE2274F01231
:103CE300036074F51208C08A088B09890A8C0BE9F2
:103CF300A2E050147508FC7509FFA2E15005D2E457
:103D0300023DA2D2E3023DA21249A77003A3E069D8
:103D130070057900023E6FAC0A7902AA08AB09125A
:103D23000D42E960EDE50AF50C780C12081D7902E5
:103D33007CFE7DFFAA08AB09124722120846E96000
:103D430003023E6DE50AC2E5F50A9003B5E0705142
:103D5300E50AA2E6404B7403120A8FAC82AD83AA34
:103D630008AB09120AF0E970321240438A0C8B0D3A
:103D7300A80CA90DE8FEE9FFE8496025EE24020A34
:103D83000AEF122834601AEE2402FCEF3400FD74AB
:103D930003120A8FAA82AB83121CAEE50AD2E5F5A1
:103DA3000A900348E0F50C900368E0F50EA3E0F5F4
:103DB3000F780E1208197D017C00900348E0F9AAE0
:103DC3000EAB0F120CFA7402120846E9F89003487E
:103DD300E004F0E86003023E6DE50AA2E5500474D6
:103DE3000E80027406C0E07401120A8FD0E01254F0
:103DF3009C8A0E8B0FAE0EAF0FEE4F6069123E8D95
:103E0300123EA4888289837401F07478550AA31240
:103E1300648EE50C12648EA3E508F0E509123E7C7E
:103E2300E4F0E50AA2E5500F7403120A8FAC82ADE9
:103E330083E82406123E738E828F83A3A374FDF05E
:103E4300A374FFF0E50B6015902288E493F8E50B6B
:103E5300C3985009EE241312546FE50BF0EEFAEFFA
:103E6300FB120B9280067910800279C7740B80498C
:103E7300FAE93400FB121CAE2288828983A3A3A330
:103E8300A3123E8822125203A322EE241712548057
:103E93007401F0120EB6EE241A125480EAF0A3EB6A
:103EA30022F01264823400123EAE22F583123EB435
:103EB30022E0F8A3E0F922740D1208467F080205F8
:103EC3007974F61203607A007B1012598A600890A5
:103ED30003D47401F08029900641E064019010C975
:103EE3007006E0FC79018004E0FC79037A007B0032
:103EF300120C64902270123F067A007B10123F145A
:103F03000234DD123F0A22E493FC740193FD227B09
:103F1300009003C2E0F91215B82274EC1203608A10
:103F2300088B098C0C8D0D890E7414120A8F12499B
:103F3300017416120A8FE0F510A3E0F511120F2E8B
:103F4300E960077AFF7BFF0240409010C8E06402FB
:103F530060030240337900AA08AB09120D48A90E89
:103F6300120D3C8A128B13AE12AF13EE4F70030285
:103F7300401B8E828F83A3A3A3A3A3E064018E823D
:103F83008F83A3A37069124BC08E828F83A3A3A3D5
:103F9300A3A3A3E054186043902286E4938E828FF8
:103FA30083A3A3A3A3F0EA650C7003EB650D601470
:103FB300EA650A7003EB650B600AEA65107003EBB0
:103FC3006511701F7810120819AC0AAD0BAA0CAB5F
:103FD3000D12102A740212084680089003671259C2
:103FE30074A3F074FE6A700374FF6B601D804EA3AC
:103FF300A3A3E0640360298E828F83A3A3A3A3A357
:10400300E0640470057AFE023F488E828F83A3A387
:10401300A3A3A3E0640270089003B4E064027010E9
:104023001240438B0BEA450B6006AA08AB09800DCF
:10403300AA08AB099003491239B5121E87025F6AB9
:10404300900375124728120FEE2274F7120360EAE9
:10405300FEEBFF120B44E9700AEEFAEFFB120B5072
:10406300E96006EEFAEFFB80047AFE7BFF02343E42
:1040730074F01203608A0A8B0B8C0E8D0F890975FD
:104083000800120F2EE9790060030241EAAA0AAB85
:104093000B120D48A909120D3C8A0C8B0DAE0CAF07
:1040A3000DEE4F60198E828F83A3A3A3A3A3E064B5
:1040B3000270559003B4E0640270030241E8AA0A57
:1040C300AB0B90034F1239B5121E87120B568A0C95
:1040D3008B0DA80CA90DE84970030241E888828979
:1040E30083A3A3A3A3A3E0A2E040030241E8750CCA
:1040F30001A2E150687901AC0AAD0BAA0EAB0F1215
:104103000C94E970640241E88E828F83A3A3A3A376
:10411300A3E064037005750C0280528E828F83A323
:10412300A3A3A3A3E0640160030241E89003751213
:1041330041F88E828F8312454D8A0C8B0DA80CA9F2
:104143000DE84960D190227FE493FA88828983E065
:10415300C39A50C2A3E060030241E880B988828910
:1041630083A3A3A3A3A3D2E1F0EE4F603A8E828F81
:1041730083A3A3A3A3A3A3E05418602B7508018E04
:10418300828F83A3A3120648750CFE750DFF780C6E
:104193001208197900AC0AAD0BAA0EAB0F120D5A17
:1041A3007404120846803E900368E0650E7004A311
:1041B300E0650F7014902287E493FCA909AA0AAB67
:1041C3000B120C64750801801CA90CAC0AAD0BAA78
:1041D3000EAB0F120C94E9700C750801A909AA0A19
:1041E300AB0B120CEEA908023EBFE50C2415F582B9
:1041F300E50D125483124EE02274EA12036074F048
:104203001208C08A0C8B0D8C088D097426120A8F34
:10421300E0F514A3E0F5157512069003F512474671
:1042230060239003751241F8AA08AB091210188A8B
:10423300108B11EA4511600D8A828B83A3E0700510
:104243007900024535E50C241DF50EE50D3400F526
:104253000F850E82124732F51388828983A3A3A3A5
:10426300E0FA88828983A3A3A3A3E0F9EA2400FEEA
:10427300E439FFAA08AB09120CF4850E82850F837B
:10428300124570E029F50BE50AA2E5500375120EFD
:104293007487550A70177418550A6418600FE50C73
:1042A3002417F582E50D125B42651260077901124E
:1042B3001C96808C530A78C3EE94F8EF94FF501D3C
:1042C3007900EEFAEFFB12453F601288828983A3DF
:1042D300A3A3A3A3A3E054186003024243780812E4
:1042E30008197D00124563120846E9F874036870E3
:1042F30003024243E860030243AE7418550A700395
:10430300024463E50AD2E0F50AA2E45004D2E1F5DF
:104313000AA90A124BB912453F605388828983A3C5
:10432300A3A3A3A3A3E05418604488828983A3A30F
:10433300A3A3A3E064017036E51045116030900338
:10434300751241F88882898312454D8A0E8B0FA816
:104353000EA90FE849601788828983A3E0600F855F
:104363001082851183A31256915003024243E50A3A
:10437300F50E780E12081D124556120846E9702BE9
:104383007C007D0085148285158374FFF0A3F0857E
:104393000C82850D83A3A3A3A3A3A3A3A3E060031C
:1043A3001241EDA90B124BB91216DE851482851545
:1043B30083E0F47003A3E0F460399003B4E0640293
:1043C30070030242431248F2E0FAA3E01239B11239
:1043D3001E87EA65087003EB65096003024243EE3A
:1043E300FAEF1239B1121E87851482851583EAF01C
:1043F300A3EBF078081208197D01124563120846F1
:10440300A90AEEFAEFFB120D488A088B09A808A93E
:1044130009900368E0687003A3E06960030245261E
:10442300EEFAEFFB120B568A088B09A808A909E8D4
:1044330049606E88828983A3A3A3A3E06401600D0E
:1044430088828983A3A3A3A3E0640270548518829E
:10445300851983AC82AD83EEFAEFFB120AF0805527
:10446300900361E0600FE50AF50E780E12081D1245
:104473004556120846E50AF50E780E12081D790214
:104483007CFE7DFFEEFAEFFB124722120846E9603D
:10449300030243AE85148285158374FFF0A30243A0
:1044A300F5120EB6EAFCEBFD851882851983AA8204
:1044B300AB83121CAE850C82850D83A3A3A3A3A398
:1044C300A3A3A3E06401700F1241ED7408120A8FD5
:1044D300AA82AB83121CAE1246FC1253084430F579
:1044E30008780812081D7401120A8F8582088583D3
:1044F300097808120819740B120A8F8582088583BC
:10450300097808120819E513F508780812081D79C7
:1045130000EEFCEFFD124BB9120C8E740612084626
:104523000242431246FC125472124570E50BF0121C
:104533000ECE74101208467F0E020579120D3C8AC6
:104543000E8B0FA80EA90FE84922A3A312505F12E6
:104553001018227901AC08AD0912505412472222D7
:10456300AC0BA913125054120CFA740222125310FA
:10457300A3A3A3A32274F012036074F01208C08AE9
:104583000C8B0DECFAEDFB750F089003F512474603
:10459300601412568A8A828B83E58245836007A35F
:1045A300E070030246F71246FC3400124732F50B63
:1045B30088828983124705E0FBEC2400FEE43BFF7D
:1045C30088828983A3A3124705A3A3E0FBECF50824
:1045D300E43BF50988828983A3A3A3A3A3A3A3E050
:1045E300F50EE50AA2E45003750F10A2E550067418
:1045F30008250FF50F748F550A700FE50C2417F576
:1046030082E50D125B42650F60087901121C960268
:1046130046F7530A707800E50AA2E450221246FCDA
:10462300125B422408FCA3E03400FD7408120A8FD5
:10463300AA82AB83121CAE7808E50AC2E4F50AE548
:104643000AA2E550281246FC125B4228F8A3E03484
:1046530000F9E82408FCE93400FD851882851983F4
:10466300AA82AB83121CAEE50AC2E5F50AAC0EA919
:104673000BEEFAEFFB120D00E9F874036860759016
:104683000368E06E7003A3E06F605EE87054E50AB0
:10469300F50F780F12081D124713120846E97054DC
:1046A300780A12081D7401120A8F85820C85830D06
:1046B300780C120819740B120A8F85820C85830DEE
:1046C300780C120819E50BF50A780A12081DA90ED1
:1046D300AC08AD09EEFAEFFB120C8E740612084615
:1046E3008012740468700D80B7780A12081D12478F
:1046F300131208467410023EBCE50C241DF582E536
:104703000D22A3A3A3E0FC88828983A3A3A3A322EE
:1047130079011248F91254831247281247222212B0
:104723000CB8740122E0FCA3E0FDAA08AB0922F552
:1047330083123B38A3E0F50A88828983A3A3E0228E
:104743009003391250BB2274E812036074F5120807
:10475300C0EAFEEBFF8C088D0989147423120A8FBB
:10476300E0F50F7424120A8FE0F512A3E0F5137439
:1047730026120A8FE0F516A3E0F5177428120A8FA4
:10478300E0F50EA90F120D068A108B117401120A9F
:104793008F7408F0E50EA2E450037410F0E50EA246
:1047A300E55004E02408F0851882851983AA82ABBA
:1047B30083120F168A0C8B0DEA450D70030248D93C
:1047C300EA2417F582EB1248EB120EB6E50C241A15
:1047D300F582E50D12547212344E7403120A8FAC33
:1047E30082AD83AA10AB11120AF0E9601D1248E3EF
:1047F3007403120A8FA882A983E50C2418F582E5B5
:104803000D125472E8F0A3E98024E50EA2E4501FD0
:10481300E5106E7003E5116F70151248E3E50C2483
:1048230018F582E50D125472E512F0A3E513F012A8
:1048330048F2124901850A82F5837402F0A3E50E5A
:10484300124909E50FF0EE850A82850B83A3A3A322
:10485300F0EF850A82850B83A3A3A3A3124909A3BF
:10486300A3A3E508F0E509850A82850B83A3A3A327
:10487300A3A3A3F0AA10AB11120CF4E92514850A23
:1048830082850B83A3A3A3A3A3A3A3F0750800E5C9
:104893000EA2E45011AC12AD13E50A2408FAE50B9D
:1048A300123E75750808E50EA2E55014AC16AD1757
:1048B300E50A2508F8E50B3400F9E82408123E73ED
:1048C300850C82850D83A3A3E510F0A3E511F0AA5F
:1048D3000CAB0D120B92740B1208467F1002057974
:1048E300E50C2416F582E50D1254837401F02212AF
:1048F30048F912548322E50C126489E50D22E0F590
:104903000AA3E0F50B22F0850A82850B83A3A32279
:1049130074F21203608A088B09ECFEEDFF890A79B1
:10492300001249A77003A3E06970047901807375CD
:104933000B01900368E065087004A3E06509601F3C
:10494300750B00780B12081DA90AEEFCEFFDAA08EF
:10495300AB09120F6A7401120846E9F50B8041791D
:1049630000EEFAEFFB120D3CEA4B602B8A828B833D
:10497300A3A3A3A3A3A3E05418601C7508FE7509A1
:10498300FF78081208198A828B83A3A312064812A0
:10499300629E12084680097901EEFAEFFB120C16AB
:1049A300A90B8014120D488A0C8B0DA80CA90D902D
:1049B3000368E068221208467F0602057974F41240
:1049C300036075081175090E7A10125FA68B0BEA46
:1049D300450B7003123CCF900353E014F0700C901E
:1049E3002285E493900353F0120D547E007F0080E0
:1049F3006C850882850983A3A3A3A3E06059F460AF
:104A030056E5082404F582E50912596E70498508B4
:104A130082850983A3A3A3A3A3E064037019790286
:104A23008508828509831241F8850882850983A355
:104A3300A3124BC0120C94850882850983A3A3A3F8
:104A4300A3A3E06401601085088285098374FEF0E6
:104A5300A304124B1AE4F012304B122E9D902274D1
:104A6300126102408C7E007F008039120E5C8E083A
:104A73008F09740378081209C174892508FC740F1F
:104A83003509FD7AA07B0C120E4AEA4B70DD8E08C5
:104A93008F09740378081209C1124AE8126349E4C2
:104AA300F012304B90227BE493F8C3EE98EF94001E
:104AB300501B8E088F09740378081209C1124AF03B
:104AC300E82407F582E912596E70D680A17E007F33
:104AD30000800A124AFB600214F012304B1260FF8E
:104AE30040F102367E124AF0888289832274892536
:104AF30008F8740F3509F922EEF8EFF9E875F006B6
:104B0300A4F8AAF075F006E9A42AF9742928F58215
:104B1300740F39F583E022124B21A3A3A322F0855E
:104B23000882850983A3A32274F712036074E11238
:104B330008C0ECFEEDFF750800EE4F60728A828BB1
:104B430083E0241C12599F12474660638A828B8339
:104B5300124BC0851882851983AC82AD83EA241B6E
:104B6300F582EB125870EA241CF582EB124BBC124F
:104B73000E9E740B120A8F124BC47003A3E069706C
:104B83002E7402120A8FE064017024741D120A8FBE
:104B93001239B5E064017017741D120A8F1239B708
:104BA300A3A3E0F88E828F83E0687003750801A9E0
:104BB30008741F02343B1248F93400F58312505F26
:104BC300221227F2E0682274F4120360E970247958
:104BD3000090034D1239B5121E878A0A8B0BAE0A59
:104BE300AF0B74FE6E700374FF6F701A902282E431
:104BF300936013790190034D1239B5121E878A0A07
:104C03008B0BAE0AAF0B120EDA0231B374F612033A
:104C13006074F31208C012147A8A088B09AE08AFC5
:104C230009900368E06E7003A3E06F60E9120EC29F
:104C3300EA6E7002EB6F60DEEEFAEFFB120F2EE905
:104C430070D4EE4F60D0851882851983E4F0041286
:104C53000A8FEEF0A3EF124C72E970BA74FE6E7015
:104C63000374FF6F60B0EEFAEFFB740D0234DA12D7
:104C7300355F120B0822C082C083120EDA0234069B
:104C83007F0A02057974F2120360EAFEEBFF8C0AD5
:104C93008D0B8908740E120A8FE0F50974FC6E708F
:104CA3000374FF6F700579000249BB7900120D4848
:104CB3008A0C8B0DAE0CAF0D900368E06E7003A3EE
:104CC300E06F7006E509A2E650DCA90912618C7059
:104CD3006179007AFE7BFF12618C70567418550956
:104CE3007003024DBF7800790080031229EC9022F3
:104CF300741229E34003024DBFE8FAE9FBEA75F0B9
:104D030007A4FAACF075F007EBA42CFB74172AF593
:104D130082740E3BF583E0541870D0E875F007A455
:104D2300F8AAF075F007E9A42AF9741128F8740EAB
:104D330039F988828983A3A3A3A3A3A3E0541860AA
:104D430009741855097003024CA988828983EEF00F
:104D5300A3EFF074FE650A700474FF650B60031221
:104D63004EE688828983A3A3A3A3A3A3E509F0A2A4
:104D7300E0500D88828983A3A3A3A3A3A3D2E2F067
:104D83007401650888828983A3A3A3A3A3703874DD
:104D930001124F0AE054186028902286E493888217
:104DA3008983A3A3A3A3124ED41210188B0DEA4533
:104DB3000D6003024CA97800790080397902024C16
:104DC300AB900367E080D7E064017003024CA988CD
:104DD300828983A3A3A3A3A3A3E05418600790220B
:104DE30086E4938004900366E0123E7CE508F002BB
:104DF3004CA91229EC90227CE493FAC3E89AE99433
:104E0300004003024CA97A007B00804BEAFCEBFDD7
:104E1300EC75F007A4FCAEF075F007EDA42EFD745D
:104E2300132CF582740E3DF58312548BE8FCE9FDD7
:104E3300EC75F017A4FC85F00975F017EDA42509AE
:104E4300FD74A12CF582740C3DF583E06E7003A311
:104E5300E06F609E122F20902274122EAD40AD128F
:104E63003F06EC6A7002ED6B7088E875F017A4F8E2
:104E7300AAF075F017E9A42AF974A128FE740C3975
:104E8300FF7C177D007900EEFAEFFB12146E8E8221
:104E93008F83124EEC900375124EC6A3A3A3A3A354
:104EA300A3E8F0A3E9124ECC7401F0EE240E1254E1
:104EB3006F7401124EF412020FEE240D12546FE8B8
:104EC300024DF112341EA3A322F0EE240F125480DC
:104ED30022F0124EDDAA0AAB0B22900375E0FCA36D
:104EE300E0FD2288828983A3A3E50AF0A3E50BF002
:104EF30022F0124EF92290227FE4932401F8E43445
:104F030000F97A027B0022123E88A32274ED120379
:104F1300608A088B09890E12503D400579050250BD
:104F23000B121726AA08AB0912510F9022721250C6
:104F33000E650A7003E9650B70077AFE7BFF125159
:104F43000F902272E4125016E50A98E50B9940037C
:104F530002500912501A6012E50A75F006A4F8759A
:104F6300F006E50B12506512150AE50E6018E50A06
:104F730075F006A4F8AAF075F006E50B12509170CF
:104F83001A790102500BE50A75F006A4F8AAF07528
:104F9300F006E50B125072E4F0A3F0E50A75F00693
:104FA300A4F8AAF075F006E50B125032A312531EB3
:104FB30088828983A3AA82AB831250808A828B83DF
:104FC300E0603F12501A603A8E108F11751200780C
:104FD30010120815E50EC333FCE433FDE50A75F042
:104FE30006A4F50AA8F075F006E50BA428F50B74E2
:104FF3002D250AF582740F350B124BBE122EBE12ED
:1050030008467900800279070261A2122B45E82243
:1050130090226A125B2922E50A75F006A4F8AAF029
:1050230075F006E50B12506DF8A3E0F9E84922A4E8
:105033002A1251C688828983A322ECFEEDFF9022B7
:105043007DE493F8E9C39822F58312505F12150AA1
:1050530022E50C126489E50D3400F583E0FAA3E040
:10506300FB2212506DFAA3E0FB22125072E022A43D
:105073002AF9742D28F582740F39F58322E50EF091
:105083009010CA12508A22E088828983F02212513A
:10509300EAF50CE93400F50DE50EC333FAE433FB0E
:1050A300121504850C82850D83EAF0A3EBF0850CC1
:1050B30082850D831250BB22123EB4E8492274F458
:1050C300120360ECFEEDFF740C120A8F1234C888D1
:1050D30008890912510FAC0AAD0BECF8EDF99022D7
:1050E300721251175021E875F006A4F8AAF075F072
:1050F30006E9125032E08E828F8312512A12512018
:105103001234D479008002790402367E120CCA8AE2
:105113000A8B0B22122EB6C3EC9AED9B22123EB0E1
:10512300850882850983221251FF2274F6120360D7
:105133007E007F008028EEF8EFF9E875F006A4F80A
:10514300ACF075F006E9A42CF9742B28F582740FE2
:10515300125DAD6A7003A3E06B605712304B1260AF
:10516300FF40D31260FA7002E96F704674FE6A70F2
:105173000374FF6B703C7E007F00800312304B1280
:1051830060FF502E124AFB70F3EEF8EFF9E875F06A
:1051930006A4F81251BC1251F160171251D8F8E964
:1051A3001251D0888212504B850882850983E4F01E
:1051B300A3F0EEFAEFFB0234DD75F006E91251C4F9
:1051C30022A42AF9742928F8740F39F9223400F932
:1051D3008808890922EEF8EFF9E875F006A4F87556
:1051E300F006E91251EA221251C4E8240422A3A3CF
:1051F30074FE1251FC1250BB22F0A304125203227C
:10520300F088828983A3A3A3A32274F6120360EA1E
:10521300241DF582EB125308F9604BEA241DF58235
:10522300EB125B422402FCA3E03400FD1250414028
:10523300030252FB780080298C828D83E0F508A35A
:10524300E0FFE5082400E43FF509E833FEE433FF1B
:1052530074712EF582740F3FF58312531E1252FEA2
:1052630008E8C39940D28A828B83A3A3A3A3A3A3F1
:10527300A3A3A31241F8900368E06C7003A3E06D4D
:10528300700F7C717D0F12275B124BBC120CBE801A
:1052930067EA2411F582EB125B42605CFC74FF2C1D
:1052A300F0750801780812081D75087175090F78E3
:1052B30008120819E9F508780812081DEA2412F5FE
:1052C30082EB125B42F508780812081DEA2415F5F3
:1052D30082EB125472120648ECF912275B1241F565
:1052E3008A828B83A3A3A3A3A3A3A3A3A3124BC0C9
:1052F300120CD674071208460234DDEC24020C0C9F
:10530300ED3400FD22125483125310E022E0F8A37F
:10531300E0F5838882A32288828983E508F0A3E5E8
:1053230009F02274EA12036074FD1208C08A148B18
:10533300158C0E8D0F890D7419120A8F12548B74EC
:105343001B120A8FE0F511741C120A8FE0F50C741E
:105353001D120A8F124901741F120A8FE0F51060A3
:1053630008E50CC333240480027402C0E074011204
:105373000A8FD0E012549C8A088B09EA450970030E
:105383000254678A828B83A3A3E514F0A3E5151265
:105393005F95E50EF0A3E50FF0EA2413F582EB1217
:1053A3005472E50DF0EA2414F582EB125472E51100
:1053B300F0EA2417F582EB125B4264017040120E8F
:1053C300BC8A0E8B0FA80EA90F850882850983A3BB
:1053D300A3A3A3E0687003A3E0696022EE4F60110A
:1053E300E508241AF582E509125472EEF0A3EF8062
:1053F3000CE5082417F582E509125472E4F01254FF
:105403007612548B8E828F837405F0A3E51070049B
:10541300E50C80487401250C1254957A0080288588
:105423000A82850B83E0125491850A82850B83A33C
:10543300E08E828F83F0E50A2402F50AE50B34003F
:10544300F50BA30EAF830AEAC3950C40D2120EBC30
:10545300EA125491120EBCEB8E828F83F0AA08AB32
:1054630009120B927403024537EE240CF582EF12F6
:1054730054832212276C12548322EE240BF582EFFD
:105483003400F58322900334E0FEA3E0FF228E82F2
:105493008F83F0A3AE82AF832212355F120F1622E1
:1054A300C082C083E9C333FCE433FDEA2CFAEB3D4D
:1054B300FBEA24FEF582EB34FF124BBE0234067482
:1054C300F212036089098A0A12503D400479008070
:1054D3004075080080020508E508C39509502AE5D0
:1054E30008C333F8E433F9EE28F582EF39F583C0C6
:1054F30082C083120EBC8A0C8B0DD083D082E065F0
:105503000C7004A3E0650D70CDE50A650870BE79E3
:10551300010249BB74F012036074F31208C08A08D5
:105523008B098C0A8D0B890C750D00120F2EE979EE
:10553300006003025619AA08AB09120D48A90C1200
:105543000D3C8A0E8B0FAE0EAF0FEE4F700302565B
:10555300178E828F83A3A3A3A3A3A3E0A2E2400396
:10556300025617120EBCEA650A7003EB650B701145
:10557300780D12081DE4F50EF50F780E1208198048
:1055830044AA0AAB0B120B4AE964017068851882BE
:105593008519837404F07401120A8F124EEC851876
:1055A30082851983AA82AB83120B08E964017045D3
:1055B300750D01780D12081DE4F50EF50F780E1226
:1055C3000819750D00780D12081D780D12081D7449
:1055D30008120A8F85820E85830F780E12081990A0
:1055E3002288E493F9AC0AAD0BAA08AB09120CD6D6
:1055F30074071208468E828F83A3A3A3A3A3A3E0F9
:10560300A2E1400D8E828F83A3A3A3A3A3A3C2E22F
:10561300F0750D01A90D023EBA74F6120360E9FE9E
:105623007900120D48EEF9120D3C8A088B09A8087F
:10563300A909E84960061264D0F9800279040234AA
:10564300DD74F61203607E0790035CE0703412563B
:105653008A8A088B09A808A909E84960259003618B
:10566300E0640188828983A3A3700B125691888218
:1056730089835001A3A3E0F9121036E9FEEE70020C
:105683007E07EEF90234DD124EDD12101822E0FA25
:1056930088828983A3E0C39A2274EE120360EAFE30
:1056A300EBFF890A8C0C8D0B7412120A8F123412C1
:1056B3001257661250445051890E750F00740378C7
:1056C3000E1209C1748F250EF582740F350FF58301
:1056D300E0F8E50CC398502DE50B602475110074B8
:1056E3000378101209C174892510F8740F3511F964
:1056F30088828983A3A3A3A3A3A3E50C125770F005
:105703007900024C83790380F979007AFE7BFF12DA
:105713005766E49365107004790280E6E50B60E058
:10572300890E750F007403780E1209C17489250E52
:10573300F8740F350FF988828983A3EEF0A3EF1273
:105743005770124F0AE50C123E8474FF12634FE543
:105753000AF0900366E088828983A3A3A3A3A3A38B
:10576300A3809C120D36E9F51090227B22126492DD
:10577300A3E508F0A3E5092274F6120360ECFF1217
:105783000D3690227B125044502789087509007406
:105793000378081209C1748E1257BA740F1260018C
:1057A300E0F8EFC3985006EFF079008006790380A4
:1057B3000279040234DDEA2508F5822274F4120327
:1057C30060EAFEEBFF120D36E9F50A90227B1250D8
:1057D300445019750B007403780A1209C1748C259F
:1057E3000AF582740F350B124BBE801890034B12CF
:1057F3004746600CEEFAEFFB1239B8121E8780049D
:105803007AFE7BFF02367E74F61203608A828B83F4
:10581300A3A3A3A3A3E4F0F8800108902281E49357
:10582300F9E8C399501E88081258688C828D83A3A7
:10583300A3A3A3A3A3A3A3E06970DFECFAEDFB1278
:105843000E62801EE4936870198C828D83A3A3A3D8
:10585300A3A3A3A3A3A37406F07A008C828D83125F
:1058630059930234DD74112508F5827410125B4ECE
:10587300F92274F4120360EAFEEBFF8E828F83A396
:10588300A3E0141259AAA3E0F9120E3E8A088B0969
:10589300EA4509700302596B8E828F83A3A3E070DC
:1058A300358A828B83A3A3A3A3A3A3A3A3A3E064A7
:1058B300028A828B83A3A3A3A3A3A3A3A3A360109E
:1058C3007406F07AF08508828B8312599302596B20
:1058D3007406F002596B8E828F83A3A3A3A3A3A3A1
:1058E300E060738E828F83A3A3A3A3E0607AEE2488
:1058F30003F582EF12596E706F90035512597412AB
:1059030059AAE014125F8CE06403705C8E828F836B
:10591300A3A3A3A3E0700DAC08AD09EEFAEFFB124D
:105923000D0C80448A828B83A3A3A3A3A3A3A3A365
:10593300A37404F012147AEA540F048508828509CB
:1059430083A3A3A3A3F0A3E4F07A20FB12598A70E4
:105953001712597D80128A828B83A3A3A3A3A3A3C7
:10596300A3A3A3E0640360AF02367E125B4E14F080
:1059730022E08E828F83A3A3A3227A207B0090034D
:10598300C2E0F91214BC22125FA88B09EA4509226E
:10599300E0240C12599FE0F9120D8422F8A3E0349D
:1059A30000F988828983221259AFA3221234BAA341
:1059B300A3A32274F612036079007E0080258E086B
:1059C300750900740378081209C174C92508FA74AB
:1059D3000F3509FB8A828B83A3A3E06005120D12A6
:1059E30079010E902281E493F8EEC39840D0E9A2A6
:1059F300E07A407B009003C2E0F950151215CA8B80
:105A030009EA4509700E7C647D007A40123CD5801A
:105A1300031215C40234DD74F4120360ECFEEDFFCF
:105A23007508C975090F7C0080458508828509833F
:105A3300A3A3A3A3A3A3A3E0F8EA2412F582EB1282
:105A43005B4268701F8508828509831234C8125B24
:105A530046687003A3E069700B850882850983A3F8
:105A6300A3E070200CE5082408F8E5091251D09052
:105A73002281E493F8ECC39840B0E4936C70057909
:105A83000002367E850882850983A3A3A3A3A3A36B
:105A9300E07004790180EA12619A120FEE8B0BEA2F
:105AA300450B600F850882850983A3A3A3A3A3A342
:105AB300E014F07C0080010C8C0A125B1C5020EC7B
:105AC300125B5460F21230636E7003A3E06F70E7F1
:105AD300850882850983A3A3A3A3A3A3E014F0905D
:105AE300227CE493F890226AE49328F8A3E49334A5
:105AF30000F9850882850983A3A3A3A3A3A3E0FADE
:105B0300C3E89AE99400508B850882850983A3A38F
:105B1300A3A3A3A3E4F0025A9690226A125B28E59A
:105B23000A98E49922E4122B46C322EE75F006A4E8
:105B3300FCADF0EA2CFCEB3DFDEC2411F582ED12FB
