:020000040000FA
:06000000020A460201B4F1
:03002B000208AA1E
:0300330002068F33
:0300430002072889
:030053000200E5C3
:03006B0002067515
:100083000201490101FF01010503010F10FEFFD128
:1000930012D112D112D1128D118711D112881F00E2
:1000A3000000004C20000000000C0000000C0001C8
:1000B300FFFF300102006F05000000E2056400024B
:1000C3000200080000050207051E02051E020A0AB7
:1000D30003B80B02803E0102F1FF1496511800028F
:1000E3000206C0E074F21203CDA2AFE433FED2AF36
:1000F300E5A7FFE5A1F5085F54106006121A4575E0
:10010300A1EFE5085F54086008121A4B75A1F78048
:100113002BEFA2E0C0D0E508A2E092F012096D1522
:100123008182F05017906198E0F8900ABFE0C3987D
:10013300A2D265D0335002E8F075A1FEEEA2E092A0
:10014300AF7F0102042CC0E074F21203CDA2AFE42E
:1001530033FED2AF9061A4E0F8759B00E59158544B
:100163000860087591F7121A93802AE59158541084
:1001730060087591EF121A99801BE8A2E0C0D0E5E0
:1001830091A2E092F012096D158182F05007E0C24E
:10019300E0F0121BDD9061A3E0F8E5E95854046038
:1001A3000E121BB375E9FB906193E0A2E640F28067
:1001B3008BC0E074F21203CDA2AFE433FED2AF9052
:1001C30061A5E0F8E5BF585404600675BFFB121B38
:1001D300F502013FC3E498F8E499F9120218802666
:1001E300C3E49AFAE49BFBE920E7E9120218E498D6
:1001F300F8E499F922C3E498F8E499F9120218E4AF
:1002030098F8E499F9C3E49AFAE49BFB22EB20E71C
:10021300CFE920E7E0B90010BB0008E88AF084F8D2
:10022300AAF022E4FBC8FA22EB70227B10C833C881
:10023300C933C9335007C39AC3DBF280069A50010E
:100243002ADBEAC833F4C8C933F4C9FA2275F008C3
:10025300E4C833C8C933C933C99AC99B5004C92AEE
:10026300C93BD5F0ECFBC833F4C8E4C9FA2208084B
:1002730008EAC0E0EBC0E086F0E7A4FA180986F0CC
:10028300E7A42AFA180986F0E7A42AFA180986F0DF
:10029300E7A42AFA1986F0E7A4FBE5F02AFA19087D
:1002A30086F0E7A42BFBE5F03AFA190886F0E7A4F9
:1002B3002BFBE5F03AFA18180986F0E7A4C5F02BF2
:1002C300FBE43AFA1908E7C5F0C6A426F6E5F03BC5
:1002D300FBE43AFA1886F0E7A4F6E5F00826F6E41C
:1002E3003B08F6E43A08F6D0E0FBD0E0FA22E4CF8C
:1002F300C0E0E4CEC0E0E4CDC0E0E4CCC0E075F003
:1003030020C3E633F608E633F608E633F608E633A9
:10031300F6181818EC33FCED33FDEE33FEEF33FF24
:10032300C3EC9709ED9709EE9709EF97191919404F
:100333000FFFEC97FC09ED97FD09EE97FE191906DF
:10034300D5F0BEECF709EDF709EEF709EFF7191948
:1003530019D0E0FCD0E0FDD0E0FED0E0FF2225186C
:10036300C582C0E0E51934FFC583C0E0E518C39535
:100373008224F810AF088583198582188008858345
:1003830019858218D2AFCEF0A3E520F0A37808E652
:1003930008F0A3DEFAEFF0A3E58124FAF8E608F00B
:1003A300A3E608F0A3E608F0A30808E608F0A3E62E
:1003B30008F0A315811581D0E0FED0E0F815811572
:1003C300811581E8C0E0EEC0E022C0D02518C582C7
:1003D300C0E0E51934FFC583C0E0E518C395822466
:1003E300F310AF08858319858218800885831985E2
:1003F3008218D2AFC8F0A3E9F0A3EAF0A3EBF0A30D
:100403007908E709F0A3D8FAECF0A3EDF0A3EEF036
:10041300A3EFF0A3D0E0F0A3D0E0F0A3D0E0F0A3EB
:10042300E520F0A3E5F0F0A322851983851882E087
:10043300C0E0A3E0F9A3E0FAA3E0FBA37808E0F6A9
:1004430008A3DFFAE0FCA3E0FDA3E0FEA3E0FFA323
:10045300E0C0E0A3E0C0E0A3E0F5D0A3E0F520A373
:10046300E0A3F5F010AF088583198582188008850D
:100473008319858218D2AFD082D083D0E0F8D0E040
:1004830032120AB5B900030204C6E4900301788668
:10049300790E8002F0A3D8FCD9FA901086AA82AB19
:1004A30083900086786079018015E493A3AC82ADD4
:1004B300838A828B83F0A3AA82AB838C828D83D8B9
:1004C300E9D9E77582767583E174031208097582A9
:1004D3008F75831E740012080975F0108E1A8F1B16
:1004E30085821F85831E851882851983E0CEA3E04C
:1004F300CF851F82851E83EBC9EAC8EDCBECCAC347
:10050300E833C8E933C9EA33CAEB33CBC3EA9EF510
:100513001DEB9FF51CB35004AB1CAA1DEC33CCEDB3
:1005230033CDD5F0DAAE1AAF1B22D083D082ECC024
:10053300E0EDC0E0E493A3FCE493A3FDED4C600D78
:10054300120605EC24FFFCED34FFFD80EFE493A3DA
:10055300FCE493A3FDED4C600D1206D3EC24FFFCE9
:10056300ED34FFFD80EFD0E0FDD0E0FCE493A3C0C9
:10057300E0E493C0E022851983851882E0A3FEE0BE
:10058300A3F5207808E0A3F608DFFAE0A3FFE0A3D1
:10059300C0E0E0A3C0E0E0A3C0E0E0A3C0E0E0A3CC
:1005A300C0E010AF088582188583198008858218FA
:1005B300858319D2AFD083D08202080FD083D08233
:1005C300E9C0E0E493A3C386F0C5F095F0F908E42D
:1005D30093A386F0C5F095F0700BE493A3C3994001
:1005E30005E9048002A3E475F002A42582F582E5FF
:1005F300F03583F583D0E0F9E493A3C0E0E493C03E
:10060300E022C0E0C3E49396087401939618400F68
:10061300E49366700808740193661870007019A358
:10062300A3C3E49396087401939618A3A3400DD033
:10063300E0D0E0D0E0020569A3A3A3A3A3A3D0E085
:10064300227404800474028000CCC0E0EDC0E0E5B5
:1006530018C39CCCAD1950011D10AF068C188D1911
:1006630080068C188D19D2AF12076DD0E0FDD0E053
:10067300FC22C0E074F21203CDE589A2E15003121B
:100683001931758900C2C57F0102042CC0E074F2E0
:100693001203CDE58BA2E05003121931758B00C212
:1006A300E880E474028000CCC0E0EDC0E0E518C34C
:1006B3009CCCAD1950011D10AF068C188D19800606
:1006C3008C188D19D2AF12074BD0E0FDD0E0FC227D
:1006D300C0E0C0F088F0E493667008087401936684
:1006E300187000A8F0A3A3700BD0F0D0E0D0E0D036
:1006F300E0020569A3A3D0F0D0E022D083D082CC5E
:10070300C0E0E493A360061207AD1470FAE493A368
:1007130060061208DB1470FAD0E0FCE493A3C0E097
:10072300E493C0E022C0E074F21203CDA2AFE4333D
:10073300FED2AFC2C0E5D1A2E450031219BBEEA2B0
:10074300E092AF7F0102042CCAC0E0E493A3C58208
:10075300CCC582C583CDC583F0A3C582CCC582C574
:1007630083CDC583DAE5D0E0CA22CAC0E0E0A3C5E1
:1007730082CCC582C583CDC583F0A3C582CCC58297
:10078300C583CDC583DAE6D0E0CA22C008C3E096AC
:10079300F50808A3E096420808A3E096420808A3D8
:1007A300E09645087001D3D00822C0E0E493A3D3B8
:1007B3009C5010E493A3C39C400AD0E0D0E0D0E067
:1007C30002071BA3A3A3D0E0227009080808226034
:1007D30016181818C6C333C608C633C608C633C6A8
:1007E30008C633C6D5E0EA22C5822518C582C5836B
:1007F300351910AF07F5198582188007F519858219
:1008030018D2AFC58322C09FF59FE473D09F22D037
:1008130083D082C09FE493C0E0740193C0E074026C
:1008230093F59F222518F58210AF08F5184002159D
:10083300198008F51840021519D2AF85198322745F
:1008430004800A74038006740280027401C0E0F419
:1008530004120827D0E0120A9022BB0102E722C04B
:1008630082C08389828A83BB0003E08002E493D041
:1008730083D08222C0D0251810AF08F51850020586
:10088300198008F51850020519D2AFD0D02260168E
:10089300080808C6C313C618C613C618C613C61855
:1008A300C613C6D5E0EA22C0E0C0D0E8C0E0E5A8A0
:1008B300D2AFC2C7A2E792AFD0E0F8D0D0D0E03237
:1008C300C3E0C696F608A3E0C696F608A3E0C6966C
:1008D300F608A3E0C696F622C0E0E493A36C700981
:1008E300D0E0D0E0D0E002071BA3A3D0E02225187C
:1008F30010AF08F518400215198008F518400215C5
:1009030019D2AF22E76670100809E766700A080972
:10091300E76670040809E76622E066701008A3E042
:1009230066700A08A3E066700408A3E06622C3E0C9
:100933009608A3E09608A3E09608A3E096A2D265E2
:10094300D03322C3E096F008A3E096F008A3E09624
:10095300F008A3E096F022E026F008A3E036F008C2
:10096300A3E036F008A3E036F022C0E0E8C0E0E5FB
:100973008124FCF8E6A2E7D0E0F8D0E022E647F6CF
:100983000809E647F60809E647F60809E647F622A6
:10099300E026F608A3E036F608A3E036F608A3E05F
:1009A30036F622E627F60809E637F60809E637F6AB
:1009B3000809E637F622E657F60809E657F6080966
:1009C300E657F60809E657F622E056F608A3E0567E
:1009D300F608A3E056F608A3E056F622E056F00820
:1009E300A3E056F008A3E056F008A3E056F0227007
:1009F3000422600D18C6C333C608C633C6D5E0F457
:100A03001822E4C396F608E496F608E496F608E49A
:100A130096F622C6F4C608C6F4C608C6F4C608C6C7
:100A2300F4C622C3E7960809E7960809E79608097A
:100A3300E79622C3E09608A3E09608A3E09608A3EE
:100A4300E0962275D0007581407518017519030071
:100A5300020484600C08C6C313C618C613C6D5E0C7
:100A6300F422E6F008A3E6F008A3E6F008A3E6F014
:100A730022E0F608A3E0F608A3E0F608A3E0F622D6
:100A8300C5822518C582C5833519C58322CAC0E02E
:100A9300E6F0A308DAFAD0E0FA22E0FAA3E0FBA337
:100AA300E0FCA3E0FD22EAF0A3EBF0A3ECF0A3ED5E
:100AB300F022E5C754F84401F5C77901222518F55A
:100AC30082E43519F58322C2AF75D69F0200002256
:100AD300120812F6E30212081299E402120812E055
:100AE300E502120812FEE5021208129D2200120806
:100AF30012AF22001208120123001208126223000F
:100B0300120812EC2300120812902400120812E4B7
:100B13002400120812FD24001208122325001208D3
:100B2300125E2500120812A22500120812C9250020
:100B33001208121A2600120812CA2600120812827C
:100B430027001208124A28001208120A2900120864
:100B5300124E2900120812732900120812B6290036
:100B6300120812032A001208125B2B00120812E16A
:100B73002B00120812FF2B00120812292C00120856
:100B830012432C00120812522C001208125D2C0082
:100B93001208121D2D00120812762D0012081238A9
:100BA3002E00120812402E00120812042F00120801
:100BB30012702F001208129B3000120812C030006E
:100BC300120812363100120812C8310012081288B6
:100BD3003200120812A73200120812B633001208AC
:100BE30012C833001208123834001208126234009B
:100BF300120812F034001208122935001208127577
:100C03003500120812913600120812DA3800120861
:100C130012E53800120812F03800120812FB3800EF
:100C23001208120539001208121039001208122A8C
:100C330039001208123439001208123E3900120822
:100C430012493900120812713900120812CC390006
:100C5300120812D63900120812FA39001208121EAD
:100C63003A001208127C3A00120812C03A00120825
:100C730012DC3A00120812533B001208128B3B009D
:100C8300120812D73B00120812343C00120812EE6D
:100C93003C00120812D23E001208122B3F00120829
:100CA300125B40001208128140001208120A42002F
:100CB3001208128645001208125847001208122122
:100CC3004900120812CE4900120812394B001208CB
:100CD30012D84B001208121D4C00120812874C0048
:100CE300120812964C001208121D4F00120812CF60
:100CF30050001208123C51001208121B5200120835
:100D030012345300120812B15400120812D05400C6
:100D13001208122555001208122A56001208125200
:100D23005600120812AA5600120812895700120818
:100D330012CD5700120812185800120812835800D7
:100D4300120812C45900120812285A001208127607
:100D53005B00120812D65D00120812075E0012082B
:100D630012BF5F001208121460001208121861000B
:100D7300120812B561001208120E6200120812C1A5
:100D8300620012081263630012081203640012085F
:100D930012A86400120812FD81011208123C82019C
:100DA300120812838401120812CD8401120812E87A
:100DB3008501120812508601120812858601120855
:100DC30012F987011208127C8A01120812A58B01FD
:100DD3001208123B8C01120812439501120812D813
:100DE3009501120812BF9801120812B29901120854
:100DF30012209A01120812669B01120812489C01E4
:100E03001208122D9E011208123EA001120812A808
:100E1300A0011208127AA101120812A8A101120856
:100E23001265A2011208123CA30112081203A401C5
:100E3300120812A7A401120812D0A401120812F278
:100E4300A40112081248A70112081220A8011208CF
:100E53001264A801120812CCA80112081284A90175
:100E6300120812B6A901120812FAA90112081230C7
:100E7300AA011208127CAA01120812D1AA011208AF
:100E830012D6AA0112081229AB011208124EAB01A5
:100E93001208125DAC01120812C1AC011208123122
:100EA300AD01120812BDAD011208128AB001120879
:100EB300126EB101120812F1B20112081227B50124
:100EC300120812D5B50112081285B601120812C60E
:100ED300B80112081269B901120812B0B901120857
:100EE300125CBB0112081270BB011208127ABB011B
:100EF300120812A2BB01120812AEBB01120812CDD6
:100F0300BB01120812EDBD011208123CBF01120809
:100F13001280BF0112081228C0011208120BC1016E
:100F2300120812B6C10112081202C30112081200FC
:100F3300C401120812A6C40112081236C501120810
:100F4300124DC50112081284C5011208128EC50183
:100F530012081299C501120812B7C501120812FB33
:100F6300C50112081258C6011208127DC6011208E3
:100F73001297C60112081223C70112081240C801B2
:100F8300120812ADC80112081294C901120812BB4B
:100F9300C9011208122FCA01120812AACA011208A3
:100FA30012AECB01120812A4CC0112081253CD01C8
:100FB30012081266CE0112081202CF011208128F14
:100FC300CF011208126DD001120812A5D001120828
:100FD30012FDD001120812C6D101120812E7D10185
:100FE3001208126ED20112081292D201120812B420
:100FF300D201120812FDD20112081213D5011208F0
:1010030012FAD501120812ABD601120812E1D80167
:1010130012081231D90112081271D901120812B340
:10102300D9011208120FDA011208123DDA0112086F
:101033001261DA01120812B4DA01120812E2DA01BB
:101043001208121BDB0112081270DB01120812D600
:10105300DB011208122ADD011208124DDF0112080A
:1010630012BADF01120812E3DF011208126EE00167
:10107300120812D5E00112081220E10112081244ED
:10108300E10112081268E101120812C3E10112081A
:1010930012DEE10112081297E201120812C7EF03F0
:1010A30012081206F003120812788002120812BE08
:1010B30080021208129E8102120812A082021208F4
:1010C30012A383021208122F85021208128D8502C1
:1010D3001208124A8602120812688702120812D9ED
:1010E3008702120812158802120812638802120876
:1010F300126D8802120812B188021208120D8902B9
:10110300120812A88902120812258A02120812F480
:101113008A021208128D8B02120812AD8B0212087A
:1011230012E38B02120812148C02120812D58C02DD
:10113300120812E58C02120812398D021208125499
:101143008D02120812668D021208126F8D021208A8
:1011530012C98D02120812258E02120812718E0214
:101163001208128C8E02120812BD8E02120812DAB5
:101173008E02120812E68E021208125A9002120808
:1011830012739002120812DA9002120812ED900202
:10119300120812FB9002120812AF91021208129366
:1011A300920212081299930212081223940212084F
:1011B300122D94021208129A9402120812B1940288
:1011C300120812E394021208121C95021208124626
:1011D3009502120812A79502120812C79502120867
:1011E30012E595021208122B960212081251970269
:1011F3001208129E9702120812CD97021208124388
:1012030098021208126B9802120812A4980212088C
:1012130012B298021208120A99021208125999027C
:10122300120812989902120812C89902120812F4AD
:101233009902120812FF99021208121D9A0212084B
:1012430012DF9A02120812E99A021208122A9B026A
:101253001208127F9B02120812939B02120812A11A
:101263009C02120812B49C02120812C99C021208B2
:10127300126B9D02120812EE9D02120812AC9E021E
:10128300120812B79E02120812E39F02120812FFFD
:101293009F0212081251A00212081290A002120813
:1012A30012A5A00212081207A10212081296A102A7
:1012B300120812E1A10212081232A402120812B09B
:1012C300A40212081225A50212081247A702120847
:1012D300125FA70212081262A7021208126EA70277
:1012E30012081282A7021208128AA702120812BD5C
:1012F300A7021208126DA802120812E3A80212082C
:101303001256A9021208120AAA02120812BFAA024E
:10131300120812DEAA0212081284AB02120812AFDC
:10132300AB02120812B2AB021208121CAC02120872
:101333001244AD021208121CAE02120812A7AE022A
:10134300120812C0AF021208127DB002120812B6C0
:10135300B002120812E7B002120812A5B102120875
:1013630012D5B102120812B0B20212081249B30226
:10137300120812D4B30212081285B402120812081A
:10138300B5021208123AB5021208127BB50212080E
:1013930012A0F40212081205F50212081242F50215
:1013A30012081291F502120812A7F7021208128A04
:1013B300F902120812F4FC021208122FFD0212089D
:1013C3001251FD02120812B4FD02120812E8FD02C6
:1013D3001208120BFE0212081238FE0212081294AF
:1013E300FE02120812278D03120812A58D0312089C
:1013F30012DB8D03120812478E03120812BDD702A7
:10140300120812D68F031208121B9003120812A996
:1014130090031208120291031208122F920312086A
:10142300124193031208129E93031208120A9403A3
:101433001208126B9403120812AC94031208125987
:1014430095031208126B960312081296960312085C
:1014530012E19603120812A9E202120812BA9703C4
:1014630012081275980312081271BE03120812E4CF
:10147300BE03120812EFBE03120812D9BF031208EB
:1014830012DAC10312081230A0031208127CA0035F
:10149300120812EAA0031208120BA103120812BBCE
:1014A300A103120812C4A10312081217A2031208FF
:1014B3001240A203120812A7A20312081238A303B0
:1014C3001208127AA303120812C4A30312081223E8
:1014D300A4031208124FA403120812E0A403120873
:1014E300121FA5031208125EA50312081293A50387
:1014F300120812A5A503120812B7A503120812D6E3
:10150300A503120812DFA50312081295A6031208F9
:1015130012D5A603120812C7EC0312081244DF0304
:101523001208127ADF03120812C3DF031208121320
:10153300E103120812D1E20112081210E4011208A9
:10154300124CE4011208120BE60112081234E601F0
:10155300120812C7E8011208120BE90112081294CB
:10156300EA011208122CEB0112081294EB01120883
:101573001235EC0112081277EC01120812B7EC01D4
:1015830012081242EE01120812B2EF01120812D72A
:10159300F10112081205F2011208122CF2011208CD
:1015A3001235F201120812BCF201120812DAF50127
:1015B3001208120AF10312081220F1031208127C16
:1015C300EF0312081282D40312081295D4031208EF
:1015D3001232D5031208126DD50312081288D503EF
:1015E300120812ADD503120812F2D5031208122302
:1015F300D60312081254D603120812DAD7031208BC
:10160300129AED03120812D0ED03120812ECED0347
:101613001208122EEE031208123EEE0312081221D4
:10162300BA0312081208BB031208121ABC031208E9
:101633001240BC031208121FBD031208128EBD0311
:10164300120812ADBD0312081200800312081255CE
:1016530080031208123E8103120812D78103120875
:10166300122182031208127E82031208129282034D
:10167300120812C48203120812C28303120812064C
:1016830084031208122184031208127084031208BF
:1016930012868403120812938403120812C7840368
:1016A300120812E08403120812AA85031208120416
:1016B3008603120812528603120812748603120854
:1016C30012EB8803120812208903120812B089034F
:1016D300120812258A031208122A8A0312081266B4
:1016E3008A03120812BC8A03120812808B031208A1
:1016F30012A58B03120812AF8B03120812B28B03CD
:101703001208123B8C03120812568C03120812693A
:101713008C03120812A48C03120812A78C0312085C
:1017230012B28C03120812EE8C031208122FEF036D
:1017330012081247EF03120812EC98031208123B27
:101743009903120812DD9A03120812999C031208D6
:1017530012E19C03120812C99D03120812FA9E0398
:101763001208121C9F03120812789F03120812FC1E
:101773009F03120812F46400120812156500120880
:10178300129265001208121766001208129366007F
:10179300120812FC6600120812486700120812C7EA
:1017A3006700120812596800120812E9680012084B
:1017B300122B6900120812746D00120812F46E00E5
:1017C300120812CA6F00120812F96F00120812E40D
:1017D30071001208126474001208121D75001208B9
:1017E300123A7600120812917900120812A17900B8
:1017F300120812027B001208128E7B001208129F3D
:101803007C00120812387D001208123B7E00120879
:1018130012BD7E0012081225E602120812DFE6024C
:1018230012081251E702120812EDE7021208125DC4
:10183300E80212081216EB02120812EDEB0212086C
:10184300125AEC02120812D7ED02120812A1EE028C
:1018530012081211EF02120812DAF002120812ED46
:10186300F10212081286F2021208124CF302120855
:101873001259C603120812ADC60312081205C70394
:1018830012081250C703120812B2C7031208121E1D
:10189300C803120812D1C80312081212C90312088E
:1018A3001228C90312081284C903120812C2C903F9
:1018B30012081281E303120812B2E3031208126C36
:1018C300E403120812D2E403120812F5E10312082A
:1018D30012BDF003120812CEF0031208125BE503E7
:1018E30012081269E50312081248F103120812489C
:1018F300EE0312081258EE0312081273EE031208D5
:1019030012D4EE03120812C5EB031208124AEC03B9
:10191300120812AEEC03120812A7E903120812C947
:10192300E90312081233EA031208123EEA0312080B
:101933001282EA031208127DCD0312081293CD031B
:10194300120812BCCD03120812D7CD03120812F2EB
:10195300CD03120812FCCD0312081206CE0312089F
:101963001219CE0312081232CE03120812D9CE0373
:1019730012081258CF03120812F3C90312081201F6
:10198300CA031208127BCA031208125FCB031208A0
:101993001218CD03120812E8F003120812FEA60370
:1019A3001208126AA70312081229A8031208123395
:1019B300A9031208128CAA03120812E7AA03120839
:1019C300123CAB0312081245AB0312081257AB03C8
:1019D300120812C1AB03120812D5AB03120812DFAF
:1019E300AB03120812B0B00312081205B1031208B8
:1019F3001201B30312081233B30312081255B303CF
:101A03001208126EB30312081287B303120812915D
:101A1300B4031208122CB50312081213E7031208B9
:101A23001237E70312081250E70312081283E70381
:101A3300120812B4E703120812E2E7031208124471
:101A4300E80312081253E8031208125DE8031208B0
:101A5300126AE803120812F1D70312081217D80307
:101A630012081254D80312081263D8031208128200
:101A7300D803120812EAD803120812F3D803120883
:101A83001252D90312081276D90312081235DA0357
:101A930012081242DA0312081253DA03120812541C
:101AA300F00312081271F003120812A3B50312080F
:101AB3001201B7031208120EB70312081221B7035B
:101AC30012081240B70312081256B7031208126A1B
:101AD300B703120812DFB70312081244B80312083F
:101AE30012F4B803120812C9B903120812D9B903C0
:101AF300120812E8B9031208125C7F001208128060
:101B03007F00120812A87F00120812D07F0012086B
:101B13001281DA03120812A8DA03120812C9DA03CF
:101B23001208122EDB03120812E7DC03120812005C
:101B3300DD031208120CDD0312081220DD03120864
:101B4300123EDD0312081248DD0312081252DD03B0
:101B530012081265DD03120812B8DD03120812F130
:101B6300DD0312081220DE031208126EDE031208D0
:101B730012BDDE03120812D8DE03120812E2DE03DE
:101B8300120812F3DE0312081239DF03120812DE01
:101B9300EE031208125BF60112081285F601120811
:101BA30012A1F601120812B4F601120812CAF601C4
:101BB30012081227F7011208125AF7011208129697
:101BC300FB01120812BCFC01120812EFFC011208FF
:101BD300123BFD0112081267FE011208128FFE016B
:101BE300120812A4FE01120812B4FE01120812F820
:101BF300FE0112081259FF0112081269FF011208AF
:101C03001274E8031208128FE803120812B8E803EB
:101C1300120812D2E803120812F7E8031208121688
:101C2300E9031208122EE9031208125CE9031208F1
:101C33001276E90312081210F00312081202D103FC
:101C430012081209D10312081215D2031208124501
:101C5300D2031208126BD2031208128ED203120897
:101C630012B0D203120812EAD20312081250D3039D
:101C730012081289D303120812D5D30312081202D1
:101C8300D40312081222D403120812B9EA03120869
:101C930012D1EA03120812BFEB03120812C2EB03BC
:101CA300120812E0FE0212081252FF0212081290EA
:101CB300FF02120812D1FF0212081298C20312087F
:101CC30012B7C20312081206C30312081222C30377
:101CD30012081253C30312081260C3031208126DD1
:101CE300C30312081259C40312081297C40312083B
:101CF30012A7C503120812B2C503120812C4C50302
:101D0300120812CDC503120812D7C503120812F325
:101D1300AB0312081238B00312081246B0031208BC
:101D23001290F0031208122AF10312081297FF010E
:101D330012081286D602120812DAD50212081220ED
:101D4300D402120812D0D10212081257D10212087B
:101D530012FED0021208128ED00212081265D002AF
:101D630012081245CE0212081211CE02120812DE18
:101D7300CD02120812C2CD02120812DBCC021208E5
:101D83001293CC02120812DECA021208125ECA02B1
:101D93001208125BCA0212081258C902120812264C
:101DA300C90212081263C8021208128EC602120870
:101DB300121FC60212081254E00212081272DF0246
:101DC30012081256DF02120812F6DE02120812AED1
:101DD300DE02120812F1C502120812EEC502120841
:101DE30012DBC502120812FCDD0212081286C502BC
:101DF30012081275C50212081267C40212081231C2
:101E0300C402120812DFC3021208126EDD021208A6
:101E13001261DD0212081228970312081280C3020E
:101E23001208124FC30212081217C002120812D767
:101E3300BF02120812CBBF021208122BBF021208F4
:101E4300126BBE02120812EDBB021208127EB90217
:101E53001208123CB90212081210B802120812C575
:101E6300B70212081204B702120812D7B6021208F8
:101E7300121AB602120812B0B502120812EAB5021B
:101E83001208125BDA02120812BA8F0300000080F4
:101E9300FBE4730001363601010001020100010376
:101EA30001000104010606050200000701003408D1
:101EB30001000F090401010D0100FF0E08000017C6
:101EC300020000190100FF1A0100011B0100FE1CA2
:101ED3000100081D0200001F010001200100012173
:101EE3000200002301000F24020000260100012745
:101EF300010008280200FF2A0100072B0102402CE1
:101F03000100002D0100012E0100012F0100FF300F
:101F1300010B1C310800003A0100083B01000F2FA0
:101F2300010000030271023001600211027002011C
:101F330002020202028002100261023A00410063BF
:101F430002730272026202430200021302380000AB
:101F53000200020402120200020002000200020454
:101F6300020402370037003C024402000239000039
:101F730002000265020002350281020002050282AC
:101F8300028302000203007100300160001100703F
:101F9300003102200350048000100061000000148F
:101FA3000063007300720062004300000013000628
:101FB3000000000000040012000000000000000008
:101FC3000004000400370037003C02440000000016
:101FD30000000000006500000035008100000005DE
:101FE3000000008300000003047104020460041174
:101FF30004700402040204010402041004610400D6
:102003000414046304730472046204430400041399
:102013000406040004000404041204000400040081
:102023000400045104640000040004000444040098
:1020330004000400040004650400043504810464FE
:102043000005040004830400040103710301030178
:10205300030103010301032203020301031003002D
:102063000300030003000300030003000342030013
:1020730003240306030003000304031203250323BD
:1020830003250323030403040300030003000344A1
:1020930003000300032303000365032100350381C9
:1020A30003000305030003000300030101710101A1
:1020B300010101110101013101010101018001103F
:1020C3000161013B0014006301730172016201436A
:1020D300010001130106013D013500040112010055
:1020E3000100010001000104010401330133013C3B
:1020F3000144013201360000010001650100013590
:102103000081010001050182018301000136000104
:1021130000060000000F00000000000000000000A7
:1021230000000003FFFF00000403FFFF0000FFFFA8
:102133000FF4010005C4040320000100030B000099
:1021430000000000000003010F00002F181300C956
:102153001701002F18020093170300991704009F1B
:10216300170500A5170600B117FFFF000001DF0DDB
:10217300060F0E08090E0B1B0E105B0D02E50D0575
:10218300FD0D07EB0D0CC10D0DD30DFF000003EA90
:10219300F5E5D5D5C5B5A59595858575756565555C
:1021A30055454535352525151505E7111712ED114B
:1021B300F31111120512FF111D12231229123512E8
:1021C300F911E111DB1100160F00000B150B0200D2
:1021D30002220F32000006D112E312E912B111EF0D
:1021E30012AB11B711EB10E510211127111B11D3FD
:1021F300102B1349134F1331133D1337133030167C
:10220300181920231A1C1E300C0E020B040B0A078C
:1022130008000F00383C3E363B3B352B432C303017
:1022230017181921301B1D1F300001191618161617
:102233001523030000034948424D18172505021FC3
:1022430013F512FB12071301130B122F1243133B47
:10225300124112020402010101010902F710FD10EB
:10226300F1102D110000000000000311151100BE34
:10227300040A0E00150004007F00E8030C00280088
:1022830000000000090308100C0A030809000400F9
:1022930001FF1E1E0C05040F1008C082C0838A8232
:1022A3008B83E0D2E7F01216F7023414C082C083A6
:1022B3007900122769125480C082C08390033412BC
:1022C3004206D083D082C3E09CA3E09D500C125BF6
:1022D30054FAA3E01222E0600109023414FBEA7508
:1022E300F00BA4FAA8F075F00BEBA428FB900336CF
:1022F300E02AF8A3E03B8882F583E0540F2274F7C9
:10230300120361890812276912280FACF075F00BCC
:10231300E9A42CF9900336E028FEA3E039FF740109
:10232300650860067402650870208A828B83122711
:10233300FB1234E274026508701B1226BA1228429B
:1023430070138E828F83E4F0800BEA2403FCEB127C
:1023530027DD1227E9EEFAEFFB120AEB02344C7485
:10236300F412036112647B79008E828F83E06076BE
:10237300890A890B8065E50A75F00BA4FAA8F07544
:10238300F00BE50B1222ED7046E50A75F00BA4F88D
:10239300AAF075F00BE50B1228218E828F83E0855E
:1023A3000882850983122903850882850983A3127C
:1023B30034E2EE2403FCEF1227E612341B124EFA2A
:1023C300AA08AB09120AEB790190033412490FE50D
:1023D3000A2401F50AE50B3400F50B1226C2E50ABF
:1023E3009AE50B9B409002368C74F5120361EAFE6A
:1023F300EBFF740B120AC0123420750A01EC4D6016
:102403002BEC126497ED1254801234DA7901120A1C
:10241300F7E5084509606F850882850983A312647F
:10242300857902AA08AB09120AF7805AE50845091B
:10243300602B125484123B4E12341C12282C700C45
:10244300EEFAEFFB120AFDE9F50A80CBEE2403FA5C
:1024530012276470317903EEFAEFFB80CA8E828F04
:1024630083A3E064FE7003A3E0F4700BEE24030A7D
:102473000A0A122764700CEEFAEFFB120AFDE9F563
:102483000A8003750A00A90A7F0302057974F7120B
:10249300036190033412345CEA4B602FEA75F00B4E
:1024A300A4FAA8F075F00BEBA428FBEAFEEBFF12ED
:1024B300152990033612345C900336124754601288
:1024C300EEFCEFFD79001214938007900336E4F0DD
:1024D300A3F002344C900334123EBEC3EE98EF993E
:1024E30022C082C083EC4D6005121CB580097C08B4
:1024F3007D00790012149302341474F61203617987
:1025030000EA4B6018780088081257C7EB125B503B
:1025130060047901780808E8C3940840EA0234EBC0
:1025230074F712036174F31208F1ECFEEDFF8518E2
:1025330082851983E4F004120AC0EAF0A3EB124C7B
:10254300807403120AC0AC82AD83EEFAEFFB120B68
:102553000FEEFAEFFB120B1502344774F712036107
:1025630074F31208F1ECFEEDFF851882851983E4FC
:10257300F0EAFCEBFD7403120AC01228FC7401128A
:102583000AC01234D68E828F831234E274FE6870CE
:102593000374FF696004790180027900023447748F
:1025A300F7120361EAFEEBFF122600701412260BEA
:1025B3008E828F83E0F4F88A828B83E058F0120ACC
:1025C300EBA90802344C74F7120361EAFEEBFF75C2
:1025D30008008E828F83E06022122600701D12266F
:1025E3000B8A828B83E08F838E82F8E058700CE035
:1025F300F88A828B83E048F0120AEB80C4120AF156
:10260300E9F5087401650822126490122813122751
:1026130055FAA3E039FB2274F41203618A088B098B
:102623007C007D001226BA1227E912277A126482EF
:102633007900850882850983A3E064FE7003A3E023
:10264300F460717E007F008062EEFAEF1222E06098
:1026530057EEFAEFFBEA75F00BA4FAA8F075F00B4E
:10266300EBA428FB900336E02AF50AA3E03BF50B25
:10267300850882850983A3124BCE850A82850B8345
:10268300A3E06A7003A3E06B701EE50A2403FAE576
:102693000B122765700AE50A2403FCE50B1227E6F3
:1026A30012276E79011254961230591226C2EE9AED
:1026B300EF9B409502368CEA24030A0A0AEB229028
:1026C300033412506DC32274F31203618A088B0919
:1026D3008A828B83A3126485122769126482750C24
:1026E300001226BA12276570547E007F00804912BB
:1026F3002747FAA3E0398A82F583E0540F60361244
:102703002747F50AA3E039F50BE50A2403FCE50B9B
:102713001227F03400FB121CAFE964017017850A1D
:1027230082850B83A312512EA31234E212276E75F6
:102733000C011254961230591224D840B2A90C7FBE
:1027430005020579EEF8EFF9E875F00BA4F8122706
:102753005522AAF075F00BE9A42AF9900336E02874
:1027630022EF12283C22126496EB2212277A12548B
:1027730091EEF0A3EFF022E508126497E5092274C5
:10278300F5120361EAFEEBFF8E828F83A312648549
:102793007C007D00EE24030A0A0AEF1227E9EEFA11
:1027A300EFFB120AF1E9F50A7401650A7029126454
:1027B3009012280FAAF075F00BE9122821850882E0
:1027C300F5831227FB12282C700DE5082403FCE582
:1027D300091227DD1227E90224893400FDEE2403C0
:1027E300FAEF221227F03400FB120B0F223400FD04
:1027F300E5082403FAE50922A3122800221228047B
:1028030022E0F8A3E0F98E828F83A32212281322F9
:102813003400F583123EC2E875F00BA4F8221227A8
:102823005BF508A3E039F50922E8F0A3E9F0E50830
:102833002403FAE50912283C2212284264012234B7
:1028430000FB120B15E92274F312036174E61208FC
:10285300F112647B750C01750800750900750A0097
:10286300750B00851882851983E4F0EE2403FCEFD1
:102873003400FD7403120AC01228FCE964017023BA
:10288300740B120AC01234DA7401120AC0124BD24A
:102893007003A3E0696051851882851983858208D6
:1028A300858309740D120AC0E4122903740E120AF7
:1028B300C01234E2740D120AC0AA82AB83120B3326
:1028C300E96401700B740D120AC085820A85830BBB
:1028D300780A12084AAC08AD09EEFAEFFB120B03B3
:1028E3007402120877E9F50CEEFAEFFB120B2DA92F
:1028F3000C741A120877022742122BCF120B3922BB
:10290300123457123EBE22C082C083780079008001
:10291300031229FA1226C2E89AE99B5029E8FAE938
:10292300FBEA75F00BA4FAACF075F00BEBA42CFBEF
:10293300900336E02AFCA3E03B8C82F583E0540F3E
:1029430070CF790080027901023414C082C0839071
:102953002277123F14EC75F012A4FCA8F075F01264
:10296300EDA428FD79FF7A2E7B0B12149302341405
:1029730074F7120361E9FEEAFF7A007B00780079BD
:10298300008028E8FCE9FDEC75F012A4FC85F00852
:1029930075F012EDA42508122E0FC39E400AE0FC29
:1029A300EFC39C4003122F2E1229FA122E0340D399
:1029B30002344CC082C0837800790080031229FA64
:1029C3001229EE501F122E13F470F2E875F012A4C0
:1029D300F8AAF075F012E9A42AF9742E28FA740BF8
:1029E30039FB80047A007B00023414902277122E84
:1029F300C4C3E89AE99B22E8240108E93400F922D8
:102A030074F012036174F31208F18A0A8B0B8C0CB5
:102A13008D0D8908EC450D6016AA0CAB0D120B87C2
:102A23008A0E8B0FAE0EAF0FEE4F6003022AC11258
:102A33000B5D8A0E8B0FA80EA90FE8FEE9FFE8498C
:102A4300607C902285122B23602274036508600644
:102A53007404650870167A047903120B5790228563
:102A6300122B3A40077A007B00022B20902283121C
:102A73002B23601B74016508600674026508700FE0
:102A83007A027901120B57902283122B3A50D68582
:102A930018828519837401F0120AC0124EFAAC0C25
:102AA300AD0D7403120AC0122BC8740B120AC012A4
:102AB30034281238C2E4124EE212102B8004EE4F77
:102AC300604A780074FF2508C39404500278048E8A
:102AD300828F83124EFA8E828F83A3A3A3A3E5086A
:102AE300F0E88E828F83A3A3A3A3A3124F02120243
:102AF30010122EDB8E828F83A3A3A3A3A3A3A3F021
:102B0300122ED2120A9D12547A120AA9122B2840AD
:102B13000590108AE4F0120F05EEFAEFFB023EC8AF
:102B230012501C49227A047900120B579022771213
:102B33005B36EA98EB9922122B53758322758277C1
:102B4300E493C398F8A3E49399F9C3EA98EB992221
:102B5300E493F8740193F92274F212036174F3128B
:102B630008F18A088B09ECFEEDFF750A00EEFAEF17
:102B7300FB120B878A0C8B0DA80CA90DE849603E4C
:102B830088828983E065087004A3E06509602F8863
:102B9300828983A3A3A3A3E0C394055021125328DE
:102BA3008518828519837401F0120AC012532CEE22
:102BB300FCEFFD7403120AC0122BC8750A01A90A9F
:102BC300740D0249C6122BCF120B4522AA82AB8386
:102BD300120B0F851882851983AA82AB832274F6A0
:102BE300120361122C1D600FA3A3A3A3E014C394CB
:102BF3000450047901800279000234EB74F6120365
:102C030061122C1D600FA3A3A3A3E014C39402506D
:102C1300047901800279000234EB120B818A828BE2
:102C230083E58245832274F6120361122C1D600B27
:102C3300A3A3A3A3E070047901800279000234EB1B
:102C4300C082C083EAFCEBFD7A007B00023411C032
:102C530082C0837C007D0002341174F4120361741A
:102C6300F31208F1EAFEEBFF8C0A8D0BC3EC94F828
:102C7300ED94FF4007EE4F7003022D1675080075A3
:102C83000900802E8518828519837401F012308122
:102C9300120AC012308F60137403120AC0AC82ADE3
:102CA30083EEFAEFFB121CAFE97049E50824011229
:102CB3002EAF902277E4125024E50898E509995045
:102CC30052E50875F012A4F8AAF075F012E509A40C
:102CD3002AF9125B6960D4EE4F70A974FF650A701C
:102CE3000474FF650B60C4123071650A7004A3E0BD
:102CF300650B70B7E50875F012A4F508A8F075F038
:102D030012E509A428F509742E2508FA740B350970
:102D1300FB80047A007B0002368774F4120361742B
:102D2300F31208F1750800120B878A0A8B0BAE0A9F
:102D3300AF0BEE4F602A8518828519837401123414
:102D430051F8A3E0F9740B120AC0123565120B2770
:102D53007C127D0079FFEEFAEFFB121493750801E4
:102D6300122B28500990108A7401F0120F05A9083C
:102D730002368774F7120361E9FE74FE6A70037406
:102D8300FF6B78007900700580521229FA122E0326
:102D9300504AE8FCE9FDEC75F012A4FCAFF075F0C5
:102DA30012EDA42F122E0FF460E0E8FCE9FDEC75A0
:102DB300F012A4FC75F012EDA42FFD742E2CF582F5
:102DC300740B3DF583E06A7003A3E06B70BC80096C
:102DD300122E1314C3940440171229FA1229EE5029
:102DE30018EE70EC122E1364016005E0640370E9C1
:102DF300123062FAA3E0FB80047AFE7BFF02344CBC
:102E0300902277123F18C3E89CE99D22122F632278
:102E1300E8FAE9FBEA75F012A4FAACF075F012EBEC
:102E2300A42CFB74322AF582740B3BF583E0221247
:102E33000B99023414C082C083790180F274F012BA
:102E430003618A0A8B0B7A047901120B578A0C8B64
:102E53000DEA450D603EEAC333FAEB33FB12152945
:102E63008A088B09AE08AF09EE4F60237AFE7BFF19
:102E7300120B9F74FE6A700374FF6B601B850882DC
:102E830085098312345CE5082402122EAF80E175B4
:102E93000C0080047E007F00850A82850B83E50C8D
:102EA300F0EEFAEFFB023ECDE5082407F508E5094D
:102EB3003400F50922902277123F18C3EA9CEB9D58
:102EC30022E493FA740193FB2212148774032212EF
:102ED300548BE4F09081CF22E88E828F83A3A3A347
:102EE300A3A3A3A3A3122EFD7401122EFDA3F0EE40
:102EF300241012548EE4F0A3F0221238CEA3A3A31D
:102F030022C082C0837A007B00800419122F2E1204
:102F13002EB85010122F4DC3940550F0E970EC12E7
:102F23002F3780047A007B00023414EA24010AEB71
:102F33003400FB22EA75F012A4FA75F012EBA42810
:102F4300FB742E2AFA740B3BFB22EAFCEBFDEC75B7
:102F5300F012A4FCA8F075F012EDA428122F63223E
:102F6300FD74322CF582740B3DF583E02274F71265
:102F7300036174F31208F17E007F00023015E50847
:102F830075F017A4F8A9F0125DCAFAA3E0FBEEF8F6
:102F9300EFF9E875F012A4F8ACF075F012E9A42C7F
:102FA3001230706A7003A3E06B603FE50875F01799
:102FB300A4F8AAF0EA125DC9F8A3E0F97401120AB1
:102FC300C0E0687003A3E0696020E50875F017A40A
:102FD300F8EAF974AA28FC740C39FD7403120AC0C8
:102FE300AA82AB83121CAFE96014E50875F017A43D
:102FF300F8A9F074A828FA740C39FB1210370508E5
:1030030090228AE493F8E508C3985003022F8112B3
:1030130030599022771261105039EEF8EFF91230DF
:1030230062F47003A3E0F460E68518828519837463
:1030330001F0EEF8EFF9E875F012A4F875F012E973
:10304300A42AF9123081120AC012308F60C17508A8
:103053000080AD023447EE24010EEF3400FF22E876
:1030630075F012A4F8AAF075F012E9A42AF9123047
:103073007522742E28F582740B39F583E02274309F
:1030830028F582740B39123EBC740B22E8F0A3E9D5
:1030930012356D120B3FE922C082C08390033D7449
:1030A300F7F0A3740DF090033F74F1F0A3740DF0E7
:1030B3009003437411F0A3740CF002341474F712E8
:1030C3000361EAFEEBFF900377E06408601BE064B2
:1030D3000460168E828F83E05403640170481234B7
:1030E3001B1239C3E06406703D8E828F83A3A3E075
:1030F30064FE7003A3E0F4602D8E828F83A3A3127A
:1031030034D6900368E0687003A3E069700BEE2483
:1031130015F582EF125B506008120EA5E9F50880E1
:1031230008120EAB80F67508C2EEFAEFFB12152FEC
:103133000225C474F41203618A088B098A828B8383
:10314300E0F8A3E0FAE82AFAE43400FB1215298A2E
:103153000A8B0BAE0AAF0BEE4F60638508828509BD
:1031630083E0FC7D0079001214938E828F83A3A3E6
:10317300126485120EE78E828F83A3A3A3A3123456
:103183005C850882850983E0F8EE28F8EF340012A5
:1031930034DE850882850983A3E0C0E0EE240D12A6
:1031A300547DD0E0F0120EF9EE240E12547DE91294
:1031B3004B2FE0C0E0EE241112547DD0E0F0EEFA84
:1031C300EFFB02368C74F612036174EB1208F1EA1A
:1031D300FEEBFF124751600302326C7A077B001249
:1031E300152990033912345C12475160788E828F0F
:1031F30083120A9D90033A1239C6120AA91263492F
:10320300C0E0123278D0E0F0EE2405FAEF3400FB90
:103213008A088B098A82F583E0C0E0123273D0E01A
:10322300123683E0C0E0123273A3D0E01234C81226
:103233000A9D851882851983120AA988828983E0E9
:10324300C0E07405120AC0D0E0F0850882850983C6
:10325300E0C0E07404120AC0D0E0F07407120AC0A0
:103263001233AE800679108002790174150234E8B6
:10327300123278A322900339E0FAA3E0F5838A821D
:10328300A3A3A3A322C082C083124751600D90035E
:103293003912505B900339E4F0A3F0120E15120FAC
:1032A300D702341474F012036174EB1208F1ECFECC
:1032B300EDFF89087425120AC0780C120A74742968
:1032C300120AC0E0F9742A120AC0E0FC742B120A35
:1032D300C0E0FD740F697005740F6C60129010D01C
:1032E300E06402700579C10233A9E9C39C40F690FA
:1032F3000378780C120A65E50890037EF0E99003E1
:103303007CF0ECA3F0ED90037FF074FF6A7003741C
:10331300FF6B701D9010DBE0F47003A3E0F4700505
:1033230012149F800C9010DB123431E8F0A3E98073
:1033330007900375EAF0A3EBF0EE4F6017EEFAEF98
:10334300FB121097E96401700BEEFCEFFD7A897BA9
:1033530003121CB5900368E4F0A3F090036BF0A391
:10336300F0900388F09010D0E06402700890037C22
:10337300740FF0A3F09003777405F014120AC0E4FD
:10338300F0900378120A9D851882851983120AA981
:1033930090037EE0C0E07405120AC0D0E0F0740729
:1033A300120AC01233AE7415023ECAE412356D120E
:1033B3001CDF22C082C083900338E070031217C35E
:1033C300120BE1804CC082C083900338E0901089D7
:1033D3007004E4F0802D7401F0900338E0F460236E
:1033E3007C41E0C394415002E0FCECF8E0C398F068
:1033F300EC75F0E8A4CCA8F075F003A428FD7A805E
:10340300123F207A897B107941121CCD8003120B65
:103413008DD083D08202080FEE12548C22E0F5087F
:10342300A3E0F5092212342C22122804A322123E0F
:10343300BE9003752274F7120361EB90037FF012C1
:103443000E038005740D1208777F0102057912348B
:1034530057A3E0221234C8A322EAF0A3EBF02274AC
:10346300F712036174F81208F1EAFEEBFF7900909A
:103473000377E06408704485188285198374FDF02E
:10348300A374FFF0120EE17402120AC012345C74CA
:1034930005120AC0E4123457E0C0E07404120AC0F3
:1034A300D0E01234C3C0E07406120AC0D0E0F07456
:1034B30007120AC0E4123569120F23740802344953
:1034C3001234C8E022F08E828F8322F08518828521
:1034D300198322123EBE22E0F8A3E0F912548BE8CE
:1034E300F0A3E9F0221208777F02020579C082C0B7
:1034F3008390034974A1F0A3740CF09003EF747DDF
:10350300F0A3740FF090034D74D7F0A3740CF090F4
:10351300034F74A1F0A3740CF090035174DDF0A376
:10352300740CF002341474F412036174F91208F188
:103533008A088B098C0A8D0B851882851983780874
:10354300120A657404120AC0E9F07405120AC0E491
:10355300F07406120AC0E4123569120BC97407022B
:103563003689E8F0A3E912356D221234CEAA82AB74
:10357300832274F41203618A088B098A828B831273
:103583005499EE4F70030236819003121247546030
:10359300158A828B83A3A3E0F9EEFAEFFB90031362
:1035A3001239C6121E948E828F83A3A3A3A3A3A34F
:1035B300A3A3A3E0640270748E828F83A3A3A3A347
:1035C300A3A3E0540270030236538508828509835E
:1035D300A3A3E064E960798E828F83A3A3A3A3A34B
:1035E300A3A3A3A3A3E070149010D3E0048E828F4F
:1035F30083A3A3A3A3A3A3A3A3A3A3F08E828F83D5
:10360300A3A3A3A3A3A3A3A3A3A3E014123683A3F7
:10361300A3A37404F09010D4124ED4E8F0A3E912DB
:103623005FAD8B0BEA450B700312598B8E828F8330
:10363300A3A3A3A3A3A3A3A3A3E0640260128E8204
:103643008F83A3A3A3A3A3A3A3A3A3E06406702EC2
:103653008E828F83A3A3A3A3A3A3E0A2E0501F851D
:103663000882850983A3A3E0F9EEFAEFFB121D6F2D
:103673008E828F83A3A3A3A3A3A3E054FEF08009A8
:103683001238CA22740D1208777F0402057974EC8C
:1036930012036174DD1208F1EAFEEBFF8C088D0959
:1036A3007437120AC0780C120A74750A0074051272
:1036B3000AC0AC82AD83121DB77412120AC0E07047
:1036C300087415120AC0E060207405120AC0E0A253
:1036D300E6501E8E828F83A3A3A3A3A3A3A3A3A3B6
:1036E300124BCE120F59E960087903121C9D023860
:1036F300B07405120AC0E0540C64047005750B0124
:103703008003750B00E0A2E55035750A01E50BA2B5
:10371300E0402C120EE78A108B11A810A911123465
:103723001BE0687003A3E06960157405120AC012F8
:10373300648C124BCA121D7BE96004790480AC745B
:1037430005120AC0E0A2E650227406120AC0E05431
:103753000370187405120AC0E0540C640C600CE08A
:10376300540C64086005751001800375100074051E
:10377300120AC0E05403F8740268700C12648C12CD
:103783004BCA120AD90238B0740168703AE510A224
:10379300E050031238B87405120AC0A882A98374D2
:1037A30003120AC0E8F0A3E9123EB2851882851914
:1037B300831238C2E0C0E07402120AC0D0E01235AE
:1037C30069121E650238B0E860030238B090035FE7
:1037D300E0640170108E828F83A3A3A3A3A3A3E04D
:1037E300700302373E7422120AC07402123EB2748E
:1037F3001A120AC01234E2E510A2E050087405124E
:103803000AC01238B8E50BA2E0506AEE240FF58225
:10381300EF125B50C0E07417120AC0D0E0F09003BF
:103823001412475470030238B0120EE78A128B1336
:10383300A812A913741A120AC0E0687003A3E069FE
:10384300706B780C120842780A12084E7808120836
:103853004AA910740C120AC0AC82AD837421120AF7
:10386300C0AA82AB839003141239C3121E94740747
:103873001208778038780C120842780A12084E78BA
:103883000812084A900375120648EE2412F582EFD7
:1038930012587E7423120AC0AC82AD83740E120ACE
:1038A300C0AA82AB83121D637409120877742312B2
:1038B3000877025F7812648C12506912145722E859
:1038C300F0A3E91238CA221238CE22F08E828F83F7
:1038D300A3A3A3A3A3A32274F71203611216AF0237
:1038E300344C74F71203611216B502344C74F71298
:1038F30003611216C102344CC082C0831216BB028C
:10390300341474F71203611216C702344C74F7129D
:1039130003617409120AC0E0F508780812084E1210
:1039230016D37401023449C082C0831216DF0234F5
:1039330014C082C0831216E502341474F7120361B3
:103943001216EB02344C74F7120361EAFEEBFF89A3
:10395300087401650870147900120D19902295E41A
:1039630093FC7900EEFAEFFB120C8F02344C74F4E3
:1039730012036174F91208F1E9FE8A088B098C0AB3
:103983008D0B7413120AC0124BCE9005A21247542A
:103993006027EE851882851983F07401120AC078B6
:1039A30008120A65EAF8EBF97405120AC0123565C4
:1039B3009005A21239C3121E94023560FB90034B8B
:1039C300E0F8A3E0F583888222C082C08312171B2C
:1039D30002341474F712036190108CE0F97E0080B6
:1039E3000B125B3C540D64017001190E123BD05055
:1039F30003E970ED02344C74F712036190108DE00B
:103A0300F97E00800B125B3C548D64817001190EAA
:103A1300123BD05003E970ED02344C74F21203618F
:103A2300890BE975F006A4240CF508E5F0122EB312
:103A33008A0CE508250CFAE5093400FB1215298ADE
:103A43000C8B0DAE0CAF0DEE4F6027AC08AD0979B2
:103A53000012149312341BE50BF0EE2508F8EF3532
:103A630009F98E828F83A3A3A3A3A3A3A3A3A31262
:103A730034E2EEFAEFFB0249C974F6120361EAFE7F
:103A8300EBFF120C6B90108BE0F8E9C398400990A0
:103A93000345124BCE120C71EE2402F8EF1251DEE5
:103AA300900347125098900347E004F0EEFAEFFBBF
:103AB300120C77850882850983E0025694C082C080
:103AC300837900900345800109124BCE8A828B8350
:103AD300E582458370F202341474F7120361EAFE3F
:103AE300EBFFEE4F6056900345124754604E8882B9
:103AF30089837A007B00EE65827003EF6583600F34
:103B0300AA82AB83123B42E5824583602F80E79014
:103B13000345123B4E687002EF698E828F837008F3
:103B23001234D69003458003125F8A1234E2EEFA10
:103B3300EFFB121E35EEFAEFFB12152F02344C1277
:103B43003B4622123EC28882898322123EBEEE2267
:103B5300C082C083900345800488828983124754BE
:103B6300600B88828983124206EC4D70EC8A828B4B
:103B730083E4F0A3F0E84960068882898380039098
:103B8300034512345C02341474F712036190034545
:103B930080048A828B83123BCB4B60257E0080019D
:103BA3000E123BD050ECEE75F006A4FCADF0EA2CFF
:103BB300FCEB3DFDEC2410F582ED123C2070E1801E
:103BC300047A007B0002344C12506DEA22123C2925
:103BD300EEC3982274F71203617D0080010D123C3D
:103BE30025EDC3985034ED75F006A4FEA8F0E8FF68
:103BF300EA2EFEEB3FFFEE2410F582EF123C20701D
:103C0300DCED75F006A4FEE8FFEA2EFAEB3FFBEAD3
:103C13002411F582EB125B504CF002344C125B5CC6
:103C23006922123C2922126496EB3400F583E0F8F2
:103C33002274F6120361120D917A007B008025EA4B
:103C4300F8EBF9E875F006A4F8ACF075F006E9A412
:103C53002C125042126357A3E4125138F0A312639B
:103C63005D1264D490227F122B3240D37A007B0002
:103C7300801C8A088B09740378081209F2124AF629
:103C8300A374FEF0A304124F18A3E41264D4902289
:103C930089123CD340DC7A007B00801D8A088B09A3
:103CA300740378081209F274D01257C8740F1260A3
:103CB3000F74FEF0A3041264D490228F123CD340FD
:103CC300DB902293E493900353F0123CDD0234EB38
:103CD300E493F8C3EA98EB9400227CE87D037A101E
:103CE3007B009003C2E0F91215E32274F012036122
:103CF30074F51208F18A088B09890A8C0BE9A2E092
:103D030050147508FC7509FFA2E15005D2E4023D89
:103D1300B0D2E3023DB01249B57003A3E069700568
:103D23007900023E7DAC0A7902AA08AB09120D6D37
:103D3300E960EDE50AF50C780C12084E79027CFE79
:103D43007DFFAA08AB09124730120877E960030226
:103D53003E7BE50AC2E5F50A9003B5E07051E50A3A
:103D6300A2E6404B7403120AC0AC82AD83AA08AB2F
:103D730009120B1BE970321240518A0C8B0DA80CEF
:103D8300A90DE8FEE9FFE8496025EE24020A0AEFDF
:103D9300122842601AEE2402FCEF3400FD74031271
:103DA3000AC0AA82AB83121CB5E50AD2E5F50A90D4
:103DB3000348E0F50C900368E0F50EA3E0F50F78F7
:103DC3000E12084A7D017C00900348E0F9AA0EAB6D
:103DD3000F120D257402120877E9F8900348E004E6
:103DE300F0E86003023E7BE50AA2E55004740E800E
:103DF300027406C0E07401120AC0D0E01254AA8A09
:103E03000E8B0FAE0EAF0FEE4F6069123E9B123E4C
:103E1300B2888289837401F07478550AA312649C72
:103E2300E50C12649CA3E508F0E509123E8AE4F070
:103E3300E50AA2E5500F7403120AC0AC82AD83E811
:103E43002406123E818E828F83A3A374FDF0A37494
:103E5300FFF0E50B6015902296E493F8E50BC39809
:103E63005009EE241312547DE50BF0EEFAEFFB122A
:103E73000BBD80067910800279C7740B8049FAE97B
:103E83003400FB121CB52288828983A3A3A3A31247
:103E93003E9622125211A322EE241712548E74015D
:103EA300F0120EE1EE241A12548EEAF0A3EB22F084
:103EB3001264903400123EBC22F583123EC222E00B
:103EC300F8A3E0F922740D1208777F0802057974CC
:103ED300F61203617A007B1012599860089003D49C
:103EE3007401F08029900643E064019010D17006BC
:103EF300E0FC79018004E0FC79037A007B00120C7A
:103F03008F90227D123F147A007B10123F220234DD
:103F1300EB123F1822E493FC740193FD227B009083
:103F230003C2E0F91215DD2274EC1203618A088BD7
:103F3300098C0C8D0D890E7414120AC012490F746A
:103F430016120AC0E0F510A3E0F511120F59E9604B
:103F5300077AFF7BFF02404E9010D0E064026003BB
:103F63000240417900AA08AB09120D73A90E120D84
:103F7300678A128B13AE12AF13EE4F700302402900
:103F83008E828F83A3A3A3A3A3E064018E828F8376
:103F9300A3A37069124BCE8E828F83A3A3A3A3A383
:103FA300A3E054186043902294E4938E828F83A3FA
:103FB300A3A3A3F0EA650C7003EB650D6014EA6537
:103FC3000A7003EB650B600AEA65107003EB651179
:103FD300701F781012084AAC0AAD0BAA0CAB0D1275
:103FE300105574021208778008900367125982A350
:103FF300F074FE6A700374FF6B601D804EA3A3A36D
:10400300E0640360298E828F83A3A3A3A3A3E06448
:104013000470057AFE023F568E828F83A3A3A3A367
:10402300A3E0640270089003B4E0640270101240CD
:10403300518B0BEA450B6006AA08AB09800DAA0851
:10404300AB099003491239C3121E94025F7890039F
:10405300751247361210192274F7120361EAFEEB48
:10406300FF120B6FE9700AEEFAEFFB120B7BE960AC
:1040730006EEFAEFFB80047AFE7BFF02344C74F009
:104083001203618A0A8B0B8C0E8D0F890975080048
:10409300120F59E9790060030241F8AA0AAB0B1227
:1040A3000D73A909120D678A0C8B0DAE0CAF0DEEC3
:1040B3004F60198E828F83A3A3A3A3A3E06402702E
:1040C300559003B4E0640270030241F6AA0AAB0BF5
:1040D30090034F1239C3121E94120B818A0C8B0D5D
:1040E300A80CA90DE84970030241F688828983A3CD
:1040F300A3A3A3A3E0A2E040030241F6750C01A22F
:10410300E150687901AC0AAD0BAA0EAB0F120CBFDC
:10411300E970640241F68E828F83A3A3A3A3A3E075
:1041230064037005750C0280528E828F83A3A3A350
:10413300A3A3E0640160030241F6900375124206F3
:104143008E828F8312455B8A0C8B0DA80CA90DE818
:104153004960D190228DE493FA88828983E0C39ADF
:1041630050C2A3E060030241F680B988828983A329
:10417300A3A3A3A3D2E1F0EE4F603A8E828F83A371
:10418300A3A3A3A3A3E05418602B7508018E828F09
:1041930083A3A3120648750CFE750DFF780C120855
:1041A3004A7900AC0AAD0BAA0EAB0F120D8574044D
:1041B300120877803E900368E0650E7004A3E06503
:1041C3000F7014902295E493FCA909AA0AAB0B1271
:1041D3000C8F750801801CA90CAC0AAD0BAA0EABA1
:1041E3000F120CBFE9700C750801A909AA0AAB0BE1
:1041F300120D19A908023ECDE50C2415F582E50D33
:10420300125491124EEE2274EA12036174F01208F2
:10421300F18A0C8B0D8C088D097426120AC0E0F507
:1042230014A3E0F5157512069003F51247546023A5
:10423300900375124206AA08AB091210438A108B29
:1042430011EA4511600D8A828B83A3E07005790022
:10425300024543E50C241DF50EE50D3400F50F85ED
:104263000E82124740F51388828983A3A3A3E0FA41
:1042730088828983A3A3A3A3E0F9EA2400FEE43997
:10428300FFAA08AB09120D1F850E82850F83124505
:104293007EE029F50BE50AA2E5500375120E74873B
:1042A300550A70177418550A6418600FE50C241723
:1042B300F582E50D125B50651260077901121C9DB2
:1042C300808C530A78C3EE94F8EF94FF501D790065
:1042D300EEFAEFFB12454D601288828983A3A3A3F4
:1042E300A3A3A3E054186003024251780812084ABA
:1042F3007D00124571120877E9F8740368700302B0
:104303004251E860030243BC7418550A7003024427
:1043130071E50AD2E0F50AA2E45004D2E1F50AA954
:104323000A124BC712454D605388828983A3A3A306
:10433300A3A3A3E05418604488828983A3A3A3A3FF
:10434300A3E064017036E5104511603090037512E7
:1043530042068882898312455B8A0E8B0FA80EA9B9
:104363000FE849601788828983A3E0600F85108274
:10437300851183A312569F5003024251E50AF50E9D
:10438300780E12084E124564120877E9702B7C00F0
:104393007D0085148285158374FFF0A3F0850C825C
:1043A300850D83A3A3A3A3A3A3A3A3E06003124147
:1043B300FBA90B124BC71216D9851482851583E00E
:1043C300F47003A3E0F460399003B4E06402700373
:1043D300024251124900E0FAA3E01239BF121E94BF
:1043E300EA65087003EB65096003024251EEFAEFD8
:1043F3001239BF121E94851482851583EAF0A3EB4C
:10440300F0780812084A7D01124571120877A90A4B
:10441300EEFAEFFB120D738A088B09A808A909901D
:104423000368E0687003A3E0696003024534EEFAB1
:10443300EFFB120B818A088B09A808A909E84960D8
:104443006E88828983A3A3A3A3E06401600D88829D
:104453008983A3A3A3A3E0640270548518828519FA
:1044630083AC82AD83EEFAEFFB120B1B80559003F6
:1044730061E0600FE50AF50E780E12084E124564EE
:10448300120877E50AF50E780E12084E79027CFEC3
:104493007DFFEEFAEFFB124730120877E960030263
:1044A30043BC85148285158374FFF0A30244031271
:1044B3000EE1EAFCEBFD851882851983AA82AB83A2
:1044C300121CB5850C82850D83A3A3A3A3A3A3A369
:1044D300A3E06401700F1241FB7408120AC0AA82A0
:1044E300AB83121CB512470A1253164430F50878F1
:1044F3000812084E7401120AC08582088583097860
:104503000812084A740B120AC08582088583097849
:104513000812084AE513F508780812084E7900EEE8
:10452300FCEFFD124BC7120CB97406120877024256
:104533005112470A12548012457EE50BF0120EF910
:1045430074101208777F0E020579120D678A0E8B9D
:104553000FA80EA90FE84922A3A312506D1210430E
:10456300227901AC08AD0912506212473022AC0B1C
:10457300A913125062120D2574022212531EA3A313
:10458300A3A32274F012036174F01208F18A0C8B56
:104593000DECFAEDFB750F089003F5124754601408
:1045A3001256988A828B83E58245836007A3E07065
:1045B3000302470512470A3400124740F50B88826D
:1045C3008983124713E0FBEC2400FEE43BFF88825F
:1045D3008983A3A3124713A3A3E0FBECF508E43BF1
:1045E300F50988828983A3A3A3A3A3A3A3E0F50E5C
:1045F300E50AA2E45003750F10A2E55006740825DE
:104603000FF50F748F550A700FE50C2417F582E52B
:104613000D125B50650F60087901121C9D0247055E
:10462300530A707800E50AA2E4502212470A125B8B
:10463300502408FCA3E03400FD7408120AC0AA82C7
:10464300AB83121CB57808E50AC2E4F50AE50AA2B1
:10465300E5502812470A125B5028F8A3E03400F90A
:10466300E82408FCE93400FD851882851983AA82B1
:10467300AB83121CB5E50AC2E5F50AAC0EA90BEE35
:10468300FAEFFB120D2BE9F8740368607590036869
:10469300E06E7003A3E06F605EE87054E50AF50F07
:1046A300780F12084E124721120877E97054780ADE
:1046B30012084E7401120AC085820C85830D780C92
:1046C30012084A740B120AC085820C85830D780C7C
:1046D30012084AE50BF50A780A12084EA90EAC082F
:1046E300AD09EEFAEFFB120CB974061208778012CB
:1046F300740468700D80B7780A12084E12472112AD
:1047030008777410023ECAE50C241DF582E50D22DC
:10471300A3A3A3E0FC88828983A3A3A3A322790193
:1047230012490712549112473612473022120CE3F2
:10473300740122E0FCA3E0FDAA08AB0922F5831271
:104743003B46A3E0F50A88828983A3A3E022900372
:10475300391250C92274E812036174F51208F1EAA0
:10476300FEEBFF8C088D0989147423120AC0E0F54F
:104773000F7424120AC0E0F512A3E0F51374261295
:104783000AC0E0F516A3E0F5177428120AC0E0F595
:104793000EA90F120D318A108B117401120AC07405
:1047A30008F0E50EA2E450037410F0E50EA2E55004
:1047B30004E02408F0851882851983AA82AB83124A
:1047C3000F418A0C8B0DEA450D70030248E7EA247A
:1047D30017F582EB1248F9120EE1E50C241AF58263
:1047E300E50D12548012345C7403120AC0AC82AD1E
:1047F30083AA10AB11120B1BE9601D1248F174035D
:10480300120AC0A882A983E50C2418F582E50D12CB
:104813005480E8F0A3E98024E50EA2E4501FE510DC
:104823006E7003E5116F70151248F1E50C2418F54D
:1048330082E50D125480E512F0A3E513F01249004E
:1048430012490F850A82F5837402F0A3E50E12491B
:1048530017E50FF0EE850A82850B83A3A3A3F0EF80
:10486300850A82850B83A3A3A3A3124917A3A3A33A
:10487300E508F0E509850A82850B83A3A3A3A3A317
:10488300A3F0AA10AB11120D1FE92514850A828526
:104893000B83A3A3A3A3A3A3A3F0750800E50EA210
:1048A300E45011AC12AD13E50A2408FAE50B123EED
:1048B30083750808E50EA2E55014AC16AD17E50A9A
:1048C3002508F8E50B3400F9E82408123E81850C2D
:1048D30082850D83A3A3E510F0A3E511F0AA0CAB29
:1048E3000D120BBD740B1208777F10020579E50CCE
:1048F3002416F582E50D1254917401F02212490732
:1049030012549122E50C126497E50D22E0F50AA3F7
:10491300E0F50B22F0850A82850B83A3A32274F2B0
:104923001203618A088B09ECFEEDFF890A790012F4
:1049330049B57003A3E069700479018073750B01B5
:10494300900368E065087004A3E06509601F750BB8
:1049530000780B12084EA90AEEFCEFFDAA08AB097A
:10496300120F957401120877E9F50B80417900EE77
:10497300FAEFFB120D67EA4B602B8A828B83A3A3AA
:10498300A3A3A3A3E05418601C7508FE7509FF7860
:104993000812084A8A828B83A3A31206481262ACC8
:1049A30012087780097901EEFAEFFB120C41A90B8B
:1049B3008014120D738A0C8B0DA80CA90D9003683B
:1049C300E068221208777F0602057974F412036106
:1049D30075081875090E7A10125FB48B0BEA450B34
:1049E3007003123CDD900353E014F0700C9022939B
:1049F300E493900353F0120D7F7E007F00806C855B
:104A03000882850983A3A3A3A3E06059F46056E554
:104A1300082404F582E50912597C704985088285CA
:104A23000983A3A3A3A3A3E06403701979028508F0
:104A330082850983124206850882850983A3A3120E
:104A43004BCE120CBF850882850983A3A3A3A3A31E
:104A5300E06401601085088285098374FEF0A30475
:104A6300124B28E4F0123059122EAB9022811261BE
:104A730010408C7E007F008039120E878E088F09CC
:104A8300740378081209F274902508FC740F350931
:104A9300FD7ACB7B0C120E75EA4B70DD8E088F0905
:104AA300740378081209F2124AF6126357E4F012FB
:104AB3003059902289E493F8C3EE98EF9400501B89
:104AC3008E088F09740378081209F2124AFEE8244B
:104AD30007F582E912597C70D680A17E007F0080A1
:104AE3000A124B09600214F012305912610D40F1A1
:104AF30002368C124AFE888289832274902508F834
:104B0300740F3509F922EEF8EFF9E875F006A4F809
:104B1300AAF075F006E9A42AF9743028F582740F17
:104B230039F583E022124B2FA3A3A322F085088239
:104B3300850983A3A32274F712036174E11208F1B8
:104B4300ECFEEDFF750800EE4F60728A828B83E006
:104B5300241C1259AD12475460638A828B83124B13
:104B6300CE851882851983AC82AD83EA241BF58236
:104B7300EB12587EEA241CF582EB124BCA120EC9C3
:104B8300740B120AC0124BD27003A3E069702E7427
:104B930002120AC0E064017024741D120AC01239A3
:104BA300C3E064017017741D120AC01239C5A3A3B0
:104BB300E0F88E828F83E0687003750801A908749A
:104BC3001F0234491249073400F58312506D221233
:104BD3002800E0682274F4120361E97024790090DC
:104BE300034D1239C3121E948A0A8B0BAE0AAF0B04
:104BF30074FE6E700374FF6F701A902290E49360DA
:104C030013790190034D1239C3121E948A0A8B0B38
:104C1300AE0AAF0B120F050231C174F612036174B1
:104C2300F31208F112149F8A088B09AE08AF09909A
:104C33000368E06E7003A3E06F60E9120EEDEA6EA5
:104C43007002EB6F60DEEEFAEFFB120F59E970D4DE
:104C5300EE4F60D0851882851983E4F004120AC0F0
:104C6300EEF0A3EF124C80E970BA74FE6E70037419
:104C7300FF6F60B0EEFAEFFB740D0234E812356D8E
:104C8300120B3322C082C083120F050234147F0A31
:104C930002057974F2120361EAFEEBFF8C0A8D0BB5
:104CA3008908740E120AC0E0F50974FC6E7003746F
:104CB300FF6F700579000249C97900120D738A0CE0
:104CC3008B0DAE0CAF0D900368E06E7003A3E06F25
:104CD3007006E509A2E650DCA90912619A706179B0
:104CE300007AFE7BFF12619A70567418550970039F
:104CF300024DCD7800790080031229FA90228112A7
:104D030029F14003024DCDE8FAE9FBEA75F007A467
:104D1300FAACF075F007EBA42CFB741E2AF5827431
:104D23000E3BF583E0541870D0E875F007A4F8AA99
:104D3300F075F007E9A42AF9741828F8740E39F904
:104D430088828983A3A3A3A3A3A3E054186009744F
:104D53001855097003024CB788828983EEF0A3EFDC
:104D6300F074FE650A700474FF650B6003124EF461
:104D730088828983A3A3A3A3A3A3E509F0A2E05098
:104D83000D88828983A3A3A3A3A3A3D2E2F0740112
:104D9300650888828983A3A3A3A3A370387401122F
:104DA3004F18E054186028902294E49388828983F2
:104DB300A3A3A3A3124EE21210438B0DEA450D6089
:104DC30003024CB77800790080397902024CB9901C
:104DD3000367E080D7E064017003024CB7888289DF
:104DE30083A3A3A3A3A3A3E054186007902294E48E
:104DF300938004900366E0123E8AE508F0024CB704
:104E03001229FA90228AE493FAC3E89AE9940040BB
:104E130003024CB77A007B00804BEAFCEBFDEC7598
:104E2300F007A4FCAEF075F007EDA42EFD741A2C68
:104E3300F582740E3DF583125499E8FCE9FDEC7597
:104E4300F017A4FC85F00975F017EDA42509FD748E
:104E5300A82CF582740C3DF583E06E7003A3E06F1C
:104E6300609E122F2E902281122EBB40AD123F1452
:104E7300EC6A7002ED6B7088E875F017A4F8AAF07D
:104E830075F017E9A42AF974A828FE740C39FF7C7D
:104E9300177D007900EEFAEFFB1214938E828F8355
:104EA300124EFA900375124ED4A3A3A3A3A3A3E8AF
:104EB300F0A3E9124EDA7401F0EE240E12547D745D
:104EC30001124F02120210EE240D12547DE8024D1E
:104ED300FF12342CA3A322F0EE240F12548E22F0DF
:104EE300124EEBAA0AAB0B22900375E0FCA3E0FD84
:104EF3002288828983A3A3E50AF0A3E50BF022F0BD
:104F0300124F072290228DE4932401F8E43400F930
:104F13007A027B0022123E96A32274ED1203618A69
:104F2300088B09890E12504B40057905025019125E
:104F33001721AA08AB0912511D90227F12501C653C
:104F43000A7003E9650B70077AFE7BFF12511D900F
:104F5300227FE4125024E50A98E50B99400302509E
:104F6300171250286012E50A75F006A4F875F006CA
:104F7300E50B12507312152FE50E6018E50A75F054
:104F830006A4F8AAF075F006E50B12509F701A7983
:104F930001025019E50A75F006A4F8AAF075F006A7
:104FA300E50B125080E4F0A3F0E50A75F006A4F8CF
:104FB300AAF075F006E50B125040A312532C888219
:104FC3008983A3AA82AB8312508E8A828B83E0608B
:104FD3003F125028603A8E108F117512007810120C
:104FE3000846E50EC333FCE433FDE50A75F006A479
:104FF300F50AA8F075F006E50BA428F50B74342523
:105003000AF582740F350B124BCC122ECC12087793
:105013007900800279070261B0122B53E8229022B3
:1050230077125B3722E50A75F006A4F8AAF075F04B
:1050330006E50B12507BF8A3E0F9E84922A42A12F3
:1050430051D488828983A322ECFEEDFF90228BE466
:1050530093F8E9C39822F58312506D12152F22E5B8
:105063000C126497E50D3400F583E0FAA3E0FB220C
:1050730012507BFAA3E0FB22125080E022A42AF90B
:10508300743428F582740F39F58322E50EF09010FD
:10509300D212509822E088828983F0221251F8F5C7
:1050A3000CE93400F50DE50EC333FAE433FB1215B6
:1050B30029850C82850D83EAF0A3EBF0850C8285AC
:1050C3000D831250C922123EC2E8492274F412031E
:1050D30061ECFEEDFF740C120AC01234D688088905
:1050E3000912511DAC0AAD0BECF8EDF990227F12B9
:1050F30051255021E875F006A4F8AAF075F006E9E9
:10510300125040E08E828F8312513812512E123486
:10511300E279008002790402368C120CF58A0A8B3C
:105123000B22122EC4C3EC9AED9B22123EBE8508BD
:10513300828509832212520D2274F61203617E00C6
:105143007F008028EEF8EFF9E875F006A4F8ACF0DC
:1051530075F006E9A42CF9743228F582740F125DF8
:10516300BB6A7003A3E06B605712305912610D40A4
:10517300D31261087002E96F704674FE6A7003749B
:10518300FF6B703C7E007F00800312305912610D6B
:10519300502E124B0970F3EEF8EFF9E875F006A400
:1051A300F81251CA1251FF60171251E6F8E9125171
:1051B300DE8882125059850882850983E4F0A3F0C2
:1051C300EEFAEFFB0234EB75F006E91251D222A49A
:1051D3002AF9743028F8740F39F9223400F9880851
:1051E300890922EEF8EFF9E875F006A4F875F006E0
:1051F300E91251F8221251D2E8240422A3A374FE27
:1052030012520A1250C922F0A30412521122F0883A
:10521300828983A3A3A3A32274F6120361EA241D44
:10522300F582EB125316F9604BEA241DF582EB125B
:105233005B502402FCA3E03400FD12504F400302F4
:105243005309780080298C828D83E0F508A3E0FF61
:10525300E5082400E43FF509E833FEE433FF7478FE
:105263002EF582740F3FF58312532C12530C08E86A
:10527300C39940D28A828B83A3A3A3A3A3A3A3A38B
:10528300A3124206900368E06C7003A3E06D700FF5
:105293007C787D0F122769124BCA120CE98067EAEA
:1052A3002411F582EB125B50605CFC74FF2CF075EB
:1052B3000801780812084E75087875090F780812E6
:1052C300084AE9F508780812084EEA2412F582EB39
:1052D300125B50F508780812084EEA2415F582EBA4
:1052E300125480120648ECF91227691242038A828B
:1052F3008B83A3A3A3A3A3A3A3A3A3124BCE120D98
:105303000174071208770234EBEC24020C0CED3421
:1053130000FD2212549112531EE022E0F8A3E0F59F
:10532300838882A32288828983E508F0A3E509F0B4
:105333002274EA12036174FD1208F18A148B158C2E
:105343000E8D0F890D7419120AC0125499741B1211
:105353000AC0E0F511741C120AC0E0F50C741D12AA
:105363000AC012490F741F120AC0E0F5106008E565
:105373000CC333240480027402C0E07401120AC017
:10538300D0E01254AA8A088B09EA45097003025433
:10539300758A828B83A3A3E514F0A3E515125FA39B
:1053A300E50EF0A3E50FF0EA2413F582EB12548027
:1053B300E50DF0EA2414F582EB125480E511F0EACE
:1053C3002417F582EB125B5064017040120EE78ADA
:1053D3000E8B0FA80EA90F850882850983A3A3A3AB
:1053E300A3E0687003A3E0696022EE4F6011E50853
:1053F300241AF582E509125480EEF0A3EF800CE540
:10540300082417F582E509125480E4F0125484123B
:1054130054998E828F837405F0A3E5107004E50C14
:1054230080487401250C1254A37A008028850A82CF
:10543300850B83E012549F850A82850B83A3E08E3C
:10544300828F83F0E50A2402F50AE50B3400F50B9D
:10545300A30EAF830AEAC3950C40D2120EE7EA12F9
:10546300549F120EE7EB8E828F83F0AA08AB0912CA
:105473000BBD7403024545EE240CF582EF125491E3
:105483002212277A12549122EE240BF582EF340074
:10549300F58322900334E0FEA3E0FF228E828F8304
:1054A300F0A3AE82AF832212356D120F4122C08268
:1054B300C083E9C333FCE433FDEA2CFAEB3DFBEA9A
:1054C30024FEF582EB34FF124BCC02341474F21237
:1054D300036189098A0A12504B40047900804075A0
:1054E300080080020508E508C39509502AE508C3AA
:1054F30033F8E433F9EE28F582EF39F583C082C03F
:1055030083120EE78A0C8B0DD083D082E0650C707A
:1055130004A3E0650D70CDE50A650870BE7901024C
:1055230049C974F012036174F31208F18A088B09F4
:105533008C0A8D0B890C750D00120F59E9790060E7
:1055430003025627AA08AB09120D73A90C120D67A3
:105553008A0E8B0FAE0EAF0FEE4F70030256258EE1
:10556300828F83A3A3A3A3A3A3E0A2E240030256D3
:1055730025120EE7EA650A7003EB650B7011780DCF
:1055830012084EE4F50EF50F780E12084A8044AA6D
:105593000AAB0B120B75E9640170688518828519D3
:1055A300837404F07401120AC0124EFA85188285BE
:1055B3001983AA82AB83120B33E964017045750D1D
:1055C30001780D12084EE4F50EF50F780E12084A15
:1055D300750D00780D12084E780D12084E740812DE
:1055E3000AC085820E85830F780E12084A90229690
:1055F300E493F9AC0AAD0BAA08AB09120D017407C9
:105603001208778E828F83A3A3A3A3A3A3E0A2E1AF
:10561300400D8E828F83A3A3A3A3A3A3C2E2F0753D
:105623000D01A90D023EC874F6120361E9FE79006B
:10563300120D73EEF9120D678A088B09A808A909E0
:10564300E84960061264DEF9800279040234EB74DF
:10565300F61203617E0790035CE070341256988A59
:10566300088B09A808A909E8496025900361E0644B
:105673000188828983A3A3700B12569F8882898332
:105683005001A3A3E0F9121061E9FEEE70027E0758
:10569300EEF90234EB124EEB12104322E0FA888249
:1056A3008983A3E0C39A2274EE120361EAFEEBFF3F
:1056B300890A8C0C8D0B7412120AC01234201257F3
:1056C300741250525051890E750F007403780E12E4
:1056D30009F27496250EF582740F350FF583E0F801
:1056E300E50CC398502DE50B602475110074037805
:1056F300101209F274902510F8740F3511F988828D
:105703008983A3A3A3A3A3A3E50C12577EF0790077
:10571300024C91790380F979007AFE7BFF1257746A
:10572300E49365107004790280E6E50B60E0890E6E
:10573300750F007403780E1209F27490250EF87435
:105743000F350FF988828983A3EEF0A3EF12577EFA
:10575300124F18E50C123E9274FF12635DE50AF0D6
:10576300900366E088828983A3A3A3A3A3A3A38052
:105773009C120D61E9F510902289221264A0A3E521
:1057830008F0A3E5092274F6120361ECFF120D6120
:1057930090228912505250278908750900740378A2
:1057A300081209F274951257C8740F12600FE0F8CB
:1057B300EFC3985006EFF0790080067903800279F1
:1057C300040234EBEA2508F5822274F4120361EA39
:1057D300FEEBFF120D61E9F50A9022891250525037
:1057E30019750B007403780A1209F27493250AF5EC
:1057F30082740F350B124BCC801890034B12475415
:10580300600CEEFAEFFB1239C6121E9480047AFE86
:105813007BFF02368C74F61203618A828B83A3A307
:10582300A3A3A3E4F0F880010890228FE493F9E89E
:10583300C399501E88081258768C828D83A3A3A324
:10584300A3A3A3A3A3E06970DFECFAEDFB120E8D13
:10585300801EE4936870198C828D83A3A3A3A3A3F2
:10586300A3A3A3A37406F07A008C828D831259A19B
:105873000234EB74182508F5827410125B5CF9226C
:1058830074F4120361EAFEEBFF8E828F83A3A3E01D
:10589300141259B8A3E0F9120E698A088B09EA4574
:1058A3000970030259798E828F83A3A3E070358A2E
:1058B300828B83A3A3A3A3A3A3A3A3A3E064028ACA
:1058C300828B83A3A3A3A3A3A3A3A3A360107406A0
:1058D300F07AF08508828B831259A10259797406F4
:1058E300F00259798E828F83A3A3A3A3A3A3E060BD
:1058F300738E828F83A3A3A3A3E0607AEE2403F5C0
:1059030082EF12597C706F9003551259821259B865
:10591300E014125F9AE06403705C8E828F83A3A30A
:10592300A3A3E0700DAC08AD09EEFAEFFB120D373F
:1059330080448A828B83A3A3A3A3A3A3A3A3A37457
:1059430004F012149FEA540F04850882850983A387
:10595300A3A3A3F0A3E4F07A20FB125998701712C3
:10596300598B80128A828B83A3A3A3A3A3A3A3A38C
:10597300A3E0640360AF02368C125B5C14F022E098
:105983008E828F83A3A3A3227A207B009003C2E09D
:10599300F91214E122125FB68B09EA450922E024C9
:1059A3000C1259ADE0F9120DAF22F8A3E03400F95F
:1059B30088828983221259BDA3221234C8A3A3A3C8
:1059C3002274F612036179007E0080258E08750922
:1059D30000740378081209F274D02508FA740F359D
:1059E30009FB8A828B83A3A3E06005120D3D790135
:1059F3000E90228FE493F8EEC39840D0E9A2E07AA8
:105A0300407B009003C2E0F950151215EF8B09EAB1
:105A13004509700E7C647D007A40123CE3800312DA
:105A230015E90234EB74F4120361ECFEEDFF750823
:105A3300D075090F7C008045850882850983A3A35F
:105A4300A3A3A3A3A3E0F8EA2412F582EB125B500D
:105A530068701F8508828509831234D6125B5468E7
:105A63007003A3E069700B850882850983A3A3E013
:105A730070200CE5082408F8E5091251DE90228F06
:105A8300E493F8ECC39840B0E4936C70057900029A
:105A9300368C850882850983A3A3A3A3A3A3E070FF
:105AA30004790180EA1261A81210198B0BEA450BE5
:105AB300600F850882850983A3A3A3A3A3A3E0148E
:105AC300F07C0080010C8C0A125B2A5020EC125BE4
:105AD3006260F21230716E7003A3E06F70E78508A5
:105AE30082850983A3A3A3A3A3A3E014F090228A2E
:105AF300E493F8902277E49328F8A3E4933400F92D
:105B0300850882850983A3A3A3A3A3A3E0FAC3E81B
:105B13009AE99400508B850882850983A3A3A3A3E4
:105B2300A3A3E4F0025AA4902277125B36E50A9805
