:020000040000FA
:06000000020A2D0201B30B
:03002B0002086068
:030043000206F7BB
:030053000200E4C4
:03007B000208AACE
:100083000201480101FF01010503010F10FEFFB842
:1000930012B812B812B81274116E11B812931F006D
:1000A3000000005720000000000C0000000C0001BD
:1000B300FFFF0102007205000000E5056400020273
:1000C30000080000050207051E02051E020A0A03B6
:1000D300B80B02803E0102F1FF1496511800020290
:1000E30006C0E074F21203CCA2AFE433FED2AFE554
:1000F300A7FFE5A1F5085F54106006121A5075A119
:10010300EFE5085F54086008121A5675A1F7802BB3
:10011300EFA2E0C0D0E508A2E092F01209541581E5
:1001230082F05017906198E0F8900AC2E0C398A259
:10013300D265D0335002E8F075A1FEEEA2E092AF93
:100143007F0102042BC0E074F21203CCA2AFE433AC
:10015300FED2AF9061A4E0F8759B00E59158540876
:1001630060087591F7121A9E802AE5915854106021
:10017300087591EF121AA4801BE8A2E0C0D0E591A4
:10018300A2E092F0120954158182F05007E0C2E018
:10019300F0121BE89061A3E0F8E5E9585404600EFF
:1001A300121BBE75E9FB906193E0A2E640F2808BDF
:1001B300C0E074F21203CCA2AFE433FED2AF90617D
:1001C300A5E0F8E5BF585404600675BFFB121C0098
:1001D30002013EC3E498F8E499F91202178026C39A
:1001E300E49AFAE49BFBE920E7E9120217E498F8A2
:1001F300E499F922C3E498F8E499F9120217E49810
:10020300F8E499F9C3E49AFAE49BFB22EB20E7CFE5
:10021300E920E7E0B90010BB0008E88AF084F8AAF7
:10022300F022E4FBC8FA22EB70227B10C833C8C962
:1002330033C9335007C39AC3DBF280069A50012AAD
:10024300DBEAC833F4C8C933F4C9FA2275F008E409
:10025300C833C8C933C933C99AC99B5004C92AC909
:100263003BD5F0ECFBC833F4C8E4C9FA220808080C
:10027300EAC0E0EBC0E086F0E7A4FA180986F0E7ED
:10028300A42AFA180986F0E7A42AFA180986F0E7DF
:10029300A42AFA1986F0E7A4FBE5F02AFA190886DE
:1002A300F0E7A42BFBE5F03AFA190886F0E7A42B54
:1002B300FBE5F03AFA18180986F0E7A4C5F02BFB22
:1002C300E43AFA1908E7C5F0C6A426F6E5F03BFBC5
:1002D300E43AFA1886F0E7A4F6E5F00826F6E43BDC
:1002E30008F6E43A08F6D0E0FBD0E0FA22E4CFC007
:1002F300E0E4CEC0E0E4CDC0E0E4CCC0E075F020A3
:10030300C3E633F608E633F608E633F608E633F6D3
:10031300181818EC33FCED33FDEE33FEEF33FFC357
:10032300EC9709ED9709EE9709EF97191919400F03
:10033300FFEC97FC09ED97FD09EE97FE191906D519
:10034300F0BEECF709EDF709EEF709EFF719191904
:10035300D0E0FCD0E0FDD0E0FED0E0FF222518C5C0
:1003630082C0E0E51934FFC583C0E0E518C3958278
:1003730024F810AF088583198582188008858319AE
:10038300858218D2AFCEF0A3E520F0A37808E60863
:10039300F0A3DEFAEFF0A3E58124FAF8E608F0A370
:1003A300E608F0A3E608F0A30808E608F0A3E608C9
:1003B300F0A315811581D0E0FED0E0F815811581F9
:1003C3001581E8C0E0EEC0E022C0D02518C582C088
:1003D300E0E51934FFC583C0E0E518C3958224F333
:1003E30010AF088583198582188008858319858253
:1003F30018D2AFC8F0A3E9F0A3EAF0A3EBF0A37916
:1004030008E709F0A3D8FAECF0A3EDF0A3EEF0A30C
:10041300EFF0A3D0E0F0A3D0E0F0A3D0E0F0A3E5A9
:1004230020F0A3E5F0F0A322851983851882E0C0AC
:10043300E0A3E0F9A3E0FAA3E0FBA37808E0F60861
:10044300A3DFFAE0FCA3E0FDA3E0FEA3E0FFA3E04B
:10045300C0E0A3E0C0E0A3E0F5D0A3E0F520A3E073
:10046300A3F5F010AF08858319858218800885836A
:1004730019858218D2AFD082D083D0E0F8D0E03291
:10048300120A9CB900030204C5E490030178897938
:100493000E8002F0A3D8FCD9FA901089AA82AB830C
:1004A300900086785F79018015E493A3AC82AD83D5
:1004B3008A828B83F0A3AA82AB838C828D83D8E953
:1004C300D9E77582FA7583E574031207D875829AA2
:1004D30075831E74001207D80975F0108E1A8F1BCE
:1004E30085821F85831E851882851983E0CEA3E04C
:1004F300CF851F82851E83EBC9EAC8EDCBECCAC347
:10050300E833C8E933C9EA33CAEB33CBC3EA9EF510
:100513001DEB9FF51CB35004AB1CAA1DEC33CCEDB3
:1005230033CDD5F0DAAE1AAF1B22D083D082ECC024
:10053300E0EDC0E0E493A3FCE493A3FDED4C600D78
:10054300120605EC24FFFCED34FFFD80EFE493A3DA
:10055300FCE493A3FDED4C600D1206A2EC24FFFC1A
:10056300ED34FFFD80EFD0E0FDD0E0FCE493A3C0C9
:10057300E0E493C0E022851983851882E0A3FEE0BE
:10058300A3F5207808E0A3F608DFFAE0A3FFE0A3D1
:10059300C0E0E0A3C0E0E0A3C0E0E0A3C0E0E0A3CC
:1005A300C0E010AF088582188583198008858218FA
:1005B300858319D2AFD083D0820207DED083D08265
:1005C300E9C0E0E493A3C386F0C5F095F0F908E42D
:1005D30093A386F0C5F095F0700BE493A3C3994001
:1005E30005E9048002A3E475F002A42582F582E5FF
:1005F300F03583F583D0E0F9E493A3C0E0E493C03E
:10060300E022C0E0C3E49396087401939618400F68
:10061300E49366700808740193661870007019A358
:10062300A3C3E49396087401939618A3A3400DD033
:10063300E0D0E0D0E0020569A3A3A3A3A3A3D0E085
:10064300227404800474028000CCC0E0EDC0E0E5B5
:1006530018C39CCCAD1950011D10AF068C188D1911
:1006630080068C188D19D2AF12073CD0E0FDD0E084
:10067300FC2274028000CCC0E0EDC0E0E518C39C0E
:10068300CCAD1950011D10AF068C188D1980068C46
:10069300188D19D2AF12071AD0E0FDD0E0FC22C0AA
:1006A300E0C0F088F0E4936670080874019366185C
:1006B3007000A8F0A3A3700BD0F0D0E0D0E0D0E09E
:1006C300020569A3A3D0F0D0E022D083D082CCC0AE
:1006D300E0E493A3600612077C1470FAE493A3602A
:1006E300061208D81470FAD0E0FCE493A3C0E0E447
:1006F30093C0E022C0E074F21203CCA2AFE433FE55
:10070300D2AFC2C0E5D1A2E450031219C6EEA2E0F3
:1007130092AF7F0102042BCAC0E0E493A3C582CC4D
:10072300C582C583CDC583F0A3C582CCC582C583ED
:10073300CDC583DAE5D0E0CA22CAC0E0E0A3C58212
:10074300CCC582C583CDC583F0A3C582CCC582C584
:1007530083CDC583DAE6D0E0CA22C008C3E096F5AC
:100763000808A3E096420808A3E096420808A3E01D
:100773009645087001D3D00822C0E0E493A3D39C2C
:100783005010E493A3C39C400AD0E0D0E0D0E00231
:1007930006EAA3A3A3D0E022700908080822601682
:1007A300181818C6C333C608C633C608C633C608E6
:1007B300C633C6D5E0EA22C5822518C582C583356E
:1007C3001910AF07F5198582188007F51985821866
:1007D300D2AFC58322C09FF59FE473D09F22D083FD
:1007E300D082C09FE493C0E0740193C0E07402938D
:1007F300F59F227404800A740380067402800274D5
:1008030001C0E0F404120811D0E0120A772225187F
:10081300F58210AF08F518400215198008F5184045
:10082300021519D2AF85198322BB0102E722C082C8
:10083300C08389828A83BB0003E08002E493D08370
:10084300D08222C0D0251810AF08F5185002051920
:100853008008F51850020519D2AFD0D022C0E0C0ED
:10086300D0E8C0E0E5A8D2AFC2C7A2E792AFD0E01C
:10087300F8D0D0D0E0326016080808C6C313C618F3
:10088300C613C618C613C618C613C6D5E0EA22C3D4
:10089300E0C696F608A3E0C696F608A3E0C696F669
:1008A30008A3E0C696F622C0E074F21203CC7A479E
:1008B3007B81121468758A00C2EB7F0102042B2529
:1008C3001810AF08F518400215198008F5184002F2
:1008D3001519D2AF22C0E0E493A36C7009D0E0D025
:1008E300E0D0E00206EAA3A3D0E022E76670100896
:1008F30009E766700A0809E76670040809E76622D3
:10090300C3E09608A3E09608A3E09608A3E096A2A6
:10091300D265D03322E066701008A3E066700A083F
:10092300A3E066700408A3E06622C3E096F008A380
:10093300E096F008A3E096F008A3E096F022E02604
:10094300F008A3E036F008A3E036F008A3E036F0A1
:1009530022C0E0E8C0E0E58124FCF8E6A2E7D0E0AD
:10096300F8D0E022E647F60809E647F60809E64725
:10097300F60809E647F622E026F608A3E036F6086D
:10098300A3E036F608A3E036F622E627F60809E6E2
:1009930037F60809E637F60809E637F622E657F68A
:1009A3000809E657F60809E657F60809E657F62256
:1009B300E056F608A3E056F608A3E056F608A3E0CF
:1009C30056F622E056F008A3E056F008A3E056F0EE
:1009D30008A3E056F022700422600D18C6C333C684
:1009E30008C633C6D5E0F41822E4C396F608E496A5
:1009F300F608E496F608E496F622C6F4C608C6F4AA
:100A0300C608C6F4C608C6F4C622C3E7960809E7B3
:100A1300960809E7960809E79622C3E09608A3E03B
:100A23009608A3E09608A3E0962275D0007581404E
:100A330075180175190300020483600C08C6C313FB
:100A4300C618C613C6D5E0F422E6F008A3E6F008FC
:100A5300A3E6F008A3E6F022E0F608A3E0F608A375
:100A6300E0F608A3E0F622C5822518C582C58335C2
:100A730019C58322CAC0E0E6F0A308DAFAD0E0FA87
:100A830022E0FAA3E0FBA3E0FCA3E0FD22EAF0A34B
:100A9300EBF0A3ECF0A3EDF022E5C754F84401F525
:100AA300C77901222518F582E43519F58322C2AFEF
:100AB30075D69F020000221207E1F6E3021207E156
:100AC30099E4021207E1E0E5021207E1FEE50212F2
:100AD30007E1A722001207E1B922001207E10B2365
:100AE300001207E16C23001207E1F623001207E16D
:100AF3009A24001207E1EE24001207E107250012F1
:100B030007E12D25001207E16825001207E1AC2556
:100B1300001207E1D325001207E12426001207E1A2
:100B2300D426001207E18C27001207E15428001293
:100B330007E11429001207E15829001207E17D2972
:100B4300001207E1C029001207E10D2A001207E194
:100B5300652B001207E1EB2B001207E1092C0012B1
:100B630007E1332C001207E14D2C001207E15C2C46
:100B7300001207E1672C001207E1272D001207E19D
:100B8300802D001207E1422E001207E14A2E0012C7
:100B930007E10E2F001207E17A2F001207E1A530BB
:100BA300001207E1CA30001207E14031001207E1E9
:100BB300D231001207E19232001207E1B132001282
:100BC30007E1C033001207E1D233001207E14234D8
:100BD300001207E16C34001207E1FA34001207E156
:100BE3003335001207E17F35001207E19B3600120F
:100BF30007E1E438001207E1EF38001207E1FA38A1
:100C0300001207E10539001207E10F39001207E16D
:100C13001A39001207E13439001207E13E39001294
:100C230007E14839001207E15339001207E17B3924
:100C3300001207E1D639001207E1E039001207E19B
:100C4300043A001207E1283A001207E1863A00123B
:100C530007E1CA3A001207E1E63A001207E15D3BF9
:100C6300001207E1953B001207E1E13B001207E1A7
:100C73003E3C001207E1F83C001207E1DC3E0012A3
:100C830007E1353F001207E16540001207E18B40A1
:100C9300001207E11442001207E19045001207E138
:100CA3006247001207E12B49001207E1D8490012FD
:100CB30007E1434B001207E1E24B001207E1274C27
:100CC300001207E1914C001207E1A04C001207E16A
:100CD300274F001207E1D950001207E146510012D5
:100CE30007E12552001207E13E53001207E1BB540E
:100CF300001207E1DA54001207E12F55001207E151
:100D03003456001207E15C56001207E1B456001294
:100D130007E19357001207E1D757001207E1225862
:100D2300001207E18D58001207E1CE59001207E1C6
:100D3300325A001207E1805B001207E1E05D001206
:100D430007E1115E001207E1C95F001207E11E60AF
:100D5300001207E12261001207E1BF61001207E1FF
:100D63001862001207E1CB62001207E16D63001203
:100D730007E10D64001207E1B264001207E1E481A8
:100D8300011207E12382011207E16A84011207E1DC
:100D9300B484011207E1CF85011207E137860112FE
:100DA30007E16C86011207E1E087011207E1638A1C
:100DB300011207E18C8B011207E1228C011207E17A
:100DC3002A95011207E1BF95011207E1A6980112C6
:100DD30007E19999011207E1079A011207E14D9B77
:100DE300011207E12F9C011207E1149E011207E192
:100DF30025A0011207E18FA0011207E161A10112F1
:100E030007E18FA1011207E14CA2011207E123A31D
:100E1300011207E1EAA3011207E18EA4011207E11F
:100E2300B7A4011207E1D9A4011207E12FA7011208
:100E330007E107A8011207E14BA8011207E1B3A8D4
:100E4300011207E16BA9011207E19DA9011207E154
:100E5300E1A9011207E117AA011207E163AA01122E
:100E630007E1B8AA011207E1BDAA011207E110AB1D
:100E7300011207E135AB011207E144AC011207E1AE
:100E8300A8AC011207E118AD011207E1A4AD0112EC
:100E930007E171B0011207E155B1011207E1D8B2C0
:100EA300011207E10EB5011207E1BCB5011207E11A
:100EB3006CB6011207E1ADB8011207E150B9011296
:100EC30007E197B9011207E143BB011207E157BBE1
:100ED300011207E161BB011207E189BB011207E1BE
:100EE30095BB011207E1B4BB011207E1D4BD0112A6
:100EF30007E123BF011207E167BF011207E10FC03A
:100F0300011207E1F2C0011207E19DC1011207E1DD
:100F1300E9C2011207E1E7C3011207E18DC401121F
:100F230007E11DC5011207E134C5011207E16BC5D5
:100F3300011207E175C5011207E180C5011207E13E
:100F43009EC5011207E1E2C5011207E13FC6011286
:100F530007E164C6011207E17EC6011207E10AC771
:100F6300011207E127C8011207E194C8011207E142
:100F73007BC9011207E1A2C9011207E116CA0112D6
:100F830007E191CA011207E195CB011207E18BCC6E
:100F9300011207E13ACD011207E14DCE011207E13B
:100FA300E9CE011207E176CF011207E154D0011215
:100FB30007E18CD0011207E1E4D0011207E1ADD1C2
:100FC300011207E1CED1011207E155D2011207E167
:100FD30079D2011207E19BD2011207E1E4D2011297
:100FE30007E1FAD4011207E1E1D5011207E192D634
:100FF300011207E1C8D8011207E118D9011207E16C
:1010030058D9011207E19AD9011207E1F6D9011261
:1010130007E124DA011207E148DA011207E19BDA5A
:10102300011207E1C9DA011207E102DB011207E14C
:1010330057DB011207E1BDDB011207E111DD0112EC
:1010430007E134DF011207E1A1DF011207E1CADF83
:10105300011207E155E0011207E1BCE0011207E1CB
:1010630007E1011207E12BE1011207E14FE1011250
:1010730007E1AAE1011207E1C5E1011207E17EE2FE
:10108300011207E1A5F3031207E1E4F3031207E1F9
:101093007880021207E1BE80021207E19E810212EC
:1010A30007E1A082021207E1A383021207E12F8561
:1010B300021207E18D85021207E14A86021207E157
:1010C3006887021207E1D987021207E11588021225
:1010D30007E16388021207E16D88021207E1B18814
:1010E300021207E10D89021207E1A889021207E142
:1010F300258A021207E1F48A021207E18D8B02129C
:1011030007E1AD8B021207E1E38B021207E1148CB6
:10111300021207E1D58C021207E1E58C021207E106
:10112300398D021207E1548D021207E1668D021216
:1011330007E16F8D021207E1C98D021207E1258EC7
:10114300021207E1718E021207E18C8E021207E18F
:10115300BD8E021207E1DA8E021207E1E68E021259
:1011630007E15A90021207E17390021207E1DA9045
:10117300021207E1ED90021207E1FB90021207E170
:10118300AF91021207E19392021207E199930212BF
:1011930007E12394021207E12D94021207E19A94C6
:1011A300021207E1B194021207E1E394021207E18C
:1011B3001C95021207E14695021207E1A795021258
:1011C30007E1C795021207E1E595021207E12B96A5
:1011D300021207E15197021207E19E97021207E1FB
:1011E300CD97021207E14398021207E16B980212AE
:1011F30007E1A498021207E1B298021207E10A99E3
:10120300021207E15999021207E19899021207E1C4
:10121300C899021207E1F499021207E1FF99021239
:1012230007E11D9A021207E1DF9A021207E1E99A28
:10123300021207E12A9B021207E17F9B021207E1D8
:10124300939B021207E1A19C021207E1B49C0212D4
:1012530007E1C99C021207E16B9D021207E1EE9DB3
:10126300021207E1AC9E021207E1B79E021207E1E8
:10127300E39F021207E1FF9F021207E151A002124E
:1012830007E190A0021207E1A5A0021207E107A15E
:10129300021207E196A1021207E1E1A1021207E19E
:1012A30032A4021207E1B0A4021207E125A502123B
:1012B30007E147A7021207E15FA7021207E162A74E
:1012C300021207E16EA7021207E182A7021207E1E9
:1012D3008AA7021207E1BDA7021207E16DA8021255
:1012E30007E1E3A8021207E156A9021207E10AAADD
:1012F300021207E1BFAA021207E1DEAA021207E106
:1013030084AB021207E1AFAB021207E1B2AB0212E8
:1013130007E11CAC021207E144AD021207E11CAE67
:10132300021207E1A7AE021207E1C0AF021207E102
:101333007DB0021207E1B6B0021207E1E7B0021274
:1013430007E1A5B1021207E1D5B1021207E1B0B27C
:10135300021207E149B3021207E1D4B3021207E113
:1013630085B4021207E108B5021207E13AB5021289
:1013730007E17BB5021207E1A0F4021207E105F5CC
:10138300021207E142F5021207E191F5021207E1A9
:10139300A7F7021207E18AF9021207E1F4FC02122D
:1013A30007E12FFD021207E151FD021207E1B4FD2F
:1013B300021207E1E8FD021207E10BFE021207E148
:1013C30038FE021207E194FE021207E1278D031291
:1013D30007E1A58D031207E1DB8D031207E1478EB9
:1013E300031207E1BA8F031207E1D68F031207E155
:1013F3001B90031207E1BDD7021207E1029103120A
:1014030007E12F92031207E14193031207E19E9331
:10141300031207E10A94031207E16B94031207E135
:10142300AC94031207E15995031207E16B9603127B
:1014330007E19696031207E1E196031207E1289765
:10144300031207E1BA97031207E17598031207E144
:10145300A9E2021207E105C0031207E110C003125B
:1014630007E12AC1031207E12BC3031207E1E9C312
:10147300031207E130A0031207E17CA0031207E186
:10148300EAA0031207E10BA1031207E1BBA10312B8
:1014930007E1C4A1031207E117A2031207E140A267
:1014A300031207E1A7A2031207E138A3031207E11E
:1014B3007AA3031207E1C4A3031207E123A40312CF
:1014C30007E14FA4031207E1E0A4031207E11FA5FC
:1014D300031207E15EA5031207E193A5031207E1D7
:1014E300A5A5031207E1B7A5031207E1D6A50312C9
:1014F30007E1DFA5031207E195A6031207E1D5A6CD
:10150300031207E102F0031207E1C8E3031207E144
:10151300FEE3031207E147E4031207E197E5031231
:1015230007E1B8E2011207E1F7E3011207E133E44F
:10153300011207E1F2E5011207E11BE6011207E1DF
:10154300AEE8011207E1F2E8011207E17BEA0112BA
:1015530007E113EB011207E17BEB011207E11CEC3E
:10156300011207E15EEC011207E19EEC011207E1B3
:1015730029EE011207E199EF011207E1BEF1011211
:1015830007E1ECF1011207E113F2011207E11CF28A
:10159300011207E1A3F2011207E1C1F5011207E10C
:1015A300E8F4031207E1FEF4031207E15AF303120E
:1015B30007E122D6031207E135D6031207E1D2D69B
:1015C300031207E10DD7031207E128D7031207E13E
:1015D3004DD7031207E192D7031207E1C3D70312D2
:1015E30007E1F4D7031207E17AD9031207E1D5F033
:1015F300031207E10BF1031207E127F1031207E1DD
:1016030069F1031207E179F1031207E1FEA6031260
:1016130007E1E3A7031207E134A9031207E150A985
:10162300031207E1A0AA031207E134AB031207E197
:10163300A1AB031207E187D9031207E1D1D9031242
:1016430007E105DA031207E16ADA031207E199DA1F
:10165300031207E15CDB031207E10080031207E1D9
:101663005580031207E13E81031207E1D78103127C
:1016730007E12182031207E17E82031207E19282CE
:10168300031207E1C482031207E1C283031207E1D5
:101693000684031207E12184031207E17084031215
:1016A30007E18684031207E19384031207E1C784E9
:1016B300031207E1E084031207E1AA85031207E19D
:1016C3000486031207E15286031207E174860312AC
:1016D30007E1EB88031207E12089031207E1B089D0
:1016E300031207E1258A031207E12A8A031207E19D
:1016F300668A031207E1BC8A031207E1808B031297
:1017030007E1A58B031207E1AF8B031207E1B28B4D
:10171300031207E13B8C031207E1568C031207E126
:10172300698C031207E1A48C031207E1A78C03124F
:1017330007E1B28C031207E1EE8C031207E10DF30C
:10174300031207E125F3031207E1EC98031207E103
:101753003B99031207E1DD9A031207E1999C0312F7
:1017630007E1E19C031207E1C99D031207E1FA9E19
:10177300031207E11C9F031207E1789F031207E19D
:10178300FC9F031207E1FE64001207E11F650012CC
:1017930007E19C65001207E12166001207E19D66DF
:1017A300001207E10667001207E15267001207E122
:1017B300D167001207E16368001207E1EF680012C6
:1017C30007E13169001207E17A6D001207E1FA6E51
:1017D300001207E1D06F001207E1FF6F001207E16B
:1017E300EA71001207E16A74001207E1237500121F
:1017F30007E14076001207E19779001207E1A77924
:10180300001207E1087B001207E1947B001207E155
:10181300BD7C001207E1AE7D001207E1307E0012AD
:1018230007E125E6021207E1DFE6021207E151E7CD
:10183300021207E1EDE7021207E15DE8021207E198
:1018430016EB021207E1EDEB021207E15AEC02126A
:1018530007E1D7ED021207E1A1EE021207E111EF52
:10186300021207E1DAF0021207E1EDF1021207E1D9
:1018730086F2021207E14CF3021207E1F9C70312E1
:1018830007E14DC8031207E1A5C8031207E1F0C839
:10189300031207E152C9031207E1BEC9031207E1AC
:1018A30071CA031207E1B2CA031207E1C8CA0312DD
:1018B30007E124CB031207E162CB031207E105E83A
:1018C300031207E136E8031207E1F0E8031207E128
:1018D30056E9031207E179E6031207E19BF40312C9
:1018E30007E1ACF4031207E1DFE9031207E1EDE9D5
:1018F300031207E108F5031207E123F2031207E1DC
:1019030033F2031207E151F2031207E1B2F20312B9
:1019130007E104EE031207E189EE031207E1EDEE9E
:10192300031207E106EF031207E128EF031207E1B1
:1019330092EF031207E19DEF031207E1E8EF0312B1
:1019430007E11DCF031207E133CF031207E15CCF99
:10195300031207E177CF031207E192CF031207E1E6
:101963009CCF031207E1A6CF031207E1B9CF0312FD
:1019730007E1D2CF031207E179D0031207E1F8D0D0
:10198300031207E193CB031207E1A1CB031207E193
:101993001BCC031207E1FFCC031207E1B8CE0312FD
:1019A30007E1C6F4031207E16FAC031207E1DBACF6
:1019B300031207E19AAD031207E1A4AE031207E194
:1019C300FDAF031207E158B0031207E1ADB00312F4
:1019D30007E1B6B0031207E1C8B0031207E132B161
:1019E300031207E146B1031207E150B1031207E105
:1019F30021B6031207E176B6031207E172B80312A8
:101A030007E1A4B8031207E1C6B8031207E1DFB880
:101A1300031207E1F8B8031207E102BA031207E160
:101A23009DBA031207E197EB031207E1BBEB031225
:101A330007E1D4EB031207E107EC031207E138ECEB
:101A4300031207E166EC031207E1C8EC031207E196
:101A5300D7EC031207E1E1EC031207E1EEEC03120A
:101A630007E175DC031207E19BDC031207E1D8DC15
:101A7300031207E1E7DC031207E106DD031207E1C6
:101A83006EDD031207E177DD031207E1D6DD0312F2
:101A930007E1FADD031207E1B9DE031207E1C6DE4F
:101AA300031207E1D7DE031207E132F4031207E161
:101AB3004FF4031207E114BB031207E172BC0312D4
:101AC30007E17FBC031207E192BC031207E1B1BC3B
:101AD300031207E1C7BC031207E1DBBC031207E1F2
:101AE30050BD031207E1B5BD031207E165BE031242
:101AF30007E13ABF031207E14ABF031207E159BFE7
:101B0300031207E18AF1031207E1AEF1031207E1C1
:101B1300D6F1031207E1FEF1031207E105DF031219
:101B230007E12CDF031207E14DDF031207E1B2DF08
:101B3300031207E16BE1031207E184E1031207E1FA
:101B430090E1031207E1A4E1031207E1C2E10312EA
:101B530007E1CCE1031207E1D6E1031207E1E9E172
:101B6300031207E13CE2031207E175E2031207E106
:101B7300A4E2031207E1F2E2031207E141E30312D5
:101B830007E15CE3031207E166E3031207E177E38E
:101B9300031207E1BDE3031207E1BCF2031207E1FD
:101BA30042F6011207E16CF6011207E188F6011211
:101BB30007E19BF6011207E1B1F6011207E10EF707
:101BC300011207E141F7011207E17DFB011207E171
:101BD300A3FC011207E1D6FC011207E122FD011269
:101BE30007E14EFE011207E176FE011207E18BFECB
:101BF300011207E19BFE011207E1DFFE011207E17B
:101C030040FF011207E150FF011207E1C87E0012F5
:101C130007E1E37E001207E10C7F001207E1267F54
:101C2300001207E14B7F001207E16A7F001207E110
:101C3300827F001207E1B07F001207E1CA7F001222
:101C430007E1EEF3031207E1A2D2031207E1A9D2DF
:101C5300031207E1B5D3031207E1E5D3031207E14A
:101C63000BD4031207E12ED4031207E150D403125D
:101C730007E18AD4031207E1F0D4031207E129D55F
:101C8300031207E175D5031207E1A2D5031207E199
:101C9300C2D5031207E1F8EC031207E110ED0312BA
:101CA30007E1FEED031207E101EE031207E1E0FE97
:101CB300021207E152FF021207E190FF021207E14D
:101CC300D1FF021207E138C4031207E157C403121C
:101CD30007E1A6C4031207E1C2C4031207E1F3C478
:101CE300031207E100C5031207E10DC5031207E163
:101CF300F9C5031207E137C6031207E147C7031209
:101D030007E152C7031207E164C7031207E16DC776
:101D1300031207E177C7031207E164B1031207E176
:101D2300A9B5031207E1B7B5031207E16EF4031275
:101D330007E1E1FF011207E17EFF011207E186D609
:101D4300021207E1DAD5021207E120D4021207E1F9
:101D5300D0D1021207E157D1021207E1FED00212DD
:101D630007E18ED0021207E165D0021207E145CEEA
:101D7300021207E111CE021207E1DECD021207E1E2
:101D8300C2CD021207E1DBCC021207E193CC0212AF
:101D930007E1DECA021207E15ECA021207E15BCA6B
:101DA300021207E158C9021207E126C9021207E12C
:101DB30063C8021207E18EC6021207E11FC60212B0
:101DC30007E154E0021207E172DF021207E156DF76
:101DD300021207E1F6DE021207E1AEDE021207E1AC
:101DE300F1C5021207E1EEC5021207E1DBC50212DB
:101DF30007E1FCDD021207E186C5021207E175C5A2
:101E0300021207E167C4021207E131C4021207E1BB
:101E1300DFC3021207E16EDD021207E161DD021288
:101E230007E192BF031207E180C3021207E14FC328
:101E3300021207E117C0021207E1D7BF021207E13E
:101E4300CBBF021207E12BBF021207E16BBE0212E6
:101E530007E1EDBB021207E17EB9021207E13CB9CB
:101E6300021207E110B8021207E1C5B7021207E137
:101E730004B7021207E1D7B6021207E11AB602123B
:101E830007E1B0B5021207E1EAB5021207E15BDA36
:101E9300021207E1A9900300000080FBE473000134
:101EA30036360101000102010001030100010401B2
:101EB300060605020000070100340801000F0904AB
:101EC30001010D0100FF0E080000170200001901B7
:101ED30000FF1A0100011B0100FE1C0100081D0286
:101EE30000001F0100012001000121020000230165
:101EF300000F240200002601000127010008280228
:101F030000FF2A0100072B0102402C0100002D01D4
:101F130000012E0100012F0100FF30010B1C3108CD
:101F230000003A0100083B01000F2F0100000302EB
:101F33007102300160021102700201020202020208
:101F43008002100261023A004100630273027202CE
:101F5300620243020002130238000002000204027C
:101F6300120200020002000200020402040237000F
:101F730037003C02440200023900000200026502FD
:101F8300000235028102000205028202830200027E
:101F93000300710030016000110070003102200362
:101FA30050048000100061000000140063007300FF
:101FB30072006200430000001300060000000000EE
:101FC30004001200000000000000000004000400F0
:101FD300370037003C02440000000000000000000E
:101FE300650000003500810000000500000083004B
:101FF3000000030471040204600411047004020469
:1020030002040104020410046104000414046304C0
:1020130073047204620443040004130406040004FA
:102023000004040412040004000400040004510426
:1020330064000004000400044404000400040004D9
:1020430000046504000435048104640005040004ED
:10205300830400040103710301030103010301036A
:10206300010322030203010310030003000300031F
:1020730000030003000300034203000324030603D9
:10208300000300030403120325032303250323038F
:1020930004030403000300030003440300030003D9
:1020A30023030003650321003503810300030503B4
:1020B300000300030003010171010101010111018A
:1020C30001013101010101018001100161013B00A6
:1020D30014006301730172016201430100011301E2
:1020E30006013D0135000401120100010001000158
:1020F300000104010401330133013C0144013201B5
:102103003600000100016501000135008101000175
:102113000501820183010001360001000600000071
:102123000F0000000000000000000000000003FF9B
:10213300FF00000403FFFF0000FFFF0FF401000591
:10214300C4040320000100030B0000000000000092
:102153000003010F00003A181300DA1701003A18C0
:102163000200A4170300AA170400B0170500B6174E
:102173000600C217FFFF000001C60D06F60D08F0AA
:102183000D0B020E10420D02CC0D05E40D07D20D0E
:102193000CA80D0DBA0DFF000003EAF5E5D5D5C572
:1021A300B5A595958585757565655555454535354C
:1021B3002525151505CE11FE11D411DA11F811ECF0
:1021C30011E61104120A1210121C12E011C811C2F6
:1021D3001100160F00000B150B020002220F320034
:1021E3000006B812CA12D0129811D61292119E117B
:1021F300D210CC1008110E110211BA1012133013A1
:102203003613181324131E13303016181920231AEB
:102213001C1E300C0E020B040B0A0708000F0038BB
:102223003C3E363B3B352B432C30301718192130BD
:102233001B1D1F3000011916181616152303000065
:10224300034948424D18172505020613DC12E21212
:10225300EE12E812F21116122A13221228120204A5
:1022630002010101010902DE10E410D8101411006B
:102273000000000000EA10FC1000BE040A0E001566
:102283000004007F00E8030C0028000000000003A6
:1022930008100C0A03080900040001FF1E1E0C05A8
:1022A300040F1008C082C0838A828B83E0D2E7F0D8
:1022B30012170802341EC082C083790012277312DA
:1022C300548AC082C083900334124210D083D082D8
:1022D300C3E09CA3E09D500C125B5EFAA3E01222C4
:1022E300EA60010902341EFBEA75F00BA4FAA8F0B8
:1022F30075F00BEBA428FB900336E02AF8A3E03B30
:102303008882F583E0540F2274F712036089081260
:102313002773122819ACF075F00BE9A42CF990037C
:1023230036E028FEA3E039FF7401650860067402F5
:10233300650870208A828B831228051234EC74029C
:102343006508701B1226C412284C70138E828F836B
:10235300E4F0800BEA2403FCEB1227E71227F3EEE9
:10236300FAEFFB120AD202345674F41203601264B9
:102373008579008E828F83E06076890A890B806578
:10238300E50A75F00BA4FAA8F075F00BE50B122221
:10239300F77046E50A75F00BA4F8AAF075F00BE5A3
:1023A3000B12282B8E828F83E08508828509831286
:1023B300290D850882850983A31234ECEE2403FCDE
:1023C300EF1227F0123425124F04AA08AB09120AA0
:1023D300D27901900334124919E50A2401F50AE57B
:1023E3000B3400F50B1226CCE50A9AE50B9B4090C3
:1023F30002369674F5120360EAFEEBFF740B120AC1
:10240300A712342A750A01EC4D602BEC1264A1ED7E
:1024130012548A1234E47901120ADEE50845096090
:102423006F850882850983A312648F7902AA08AB9A
:1024330009120ADE805AE5084509602B12548E12F0
:102443003B58123426122836700CEEFAEFFB120AB0
:10245300E4E9F50A80CBEE2403FA12276E70317992
:1024630003EEFAEFFB80CA8E828F83A3E064FE70D3
:1024730003A3E0F4700BEE24030A0A0A12276E701A
:102483000CEEFAEFFB120AE4E9F50A8003750A0081
:10249300A90A7F0302057974F712036090033412CB
:1024A3003466EA4B602FEA75F00BA4FAA8F075F0D6
:1024B3000BEBA428FBEAFEEBFF1215169003361272
:1024C300346690033612475E6012EEFCEFFD79002E
:1024D3001214808007900336E4F0A3F00234569080
:1024E3000334123EC8C3EE98EF9922C082C083EC36
:1024F3004D6005121CC080097C087D007900121410
:102503008002341E74F61203607900EA4B60187877
:102513000088081257D1EB125B5A600479017808DE
:1025230008E8C3940840EA0234F574F712036074B0
:10253300F31208C2ECFEEDFF851882851983E4F0DF
:1025430004120AA7EAF0A3EB124C8A7403120AA737
:10255300AC82AD83EEFAEFFB120AF6EEFAEFFB1252
:102563000AFC02345174F712036074F31208C2ECCC
:10257300FEEDFF851882851983E4F0EAFCEBFD7418
:1025830003120AA71229067401120AA71234E08E55
:10259300828F831234EC74FE68700374FF696004E5
:1025A30079018002790002345174F7120360EAFE64
:1025B300EBFF12260A70141226158E828F83E0F425
:1025C300F88A828B83E058F0120AD2A908023456A3
:1025D30074F7120360EAFEEBFF7508008E828F83A7
:1025E300E0602212260A701D1226158A828B83E070
:1025F3008F838E82F8E058700CE0F88A828B83E038
:1026030048F0120AD280C4120AD8E9F508740165A9
:10261300082212649A12281D12275FFAA3E039FBDD
:102623002274F41203608A088B097C007D00122651
:10263300C41227F312278412648C790085088285DB
:102643000983A3E064FE7003A3E0F460717E007F5E
:10265300008062EEFAEF1222EA6057EEFAEFFBEA2D
:1026630075F00BA4FAA8F075F00BEBA428FB90030C
:1026730036E02AF50AA3E03BF50B8508828509833A
:10268300A3124BD8850A82850B83A3E06A7003A348
:10269300E06B701EE50A2403FAE50B12276F700A3C
:1026A300E50A2403FCE50B1227F0122778790112BF
:1026B30054A01230631226CCEE9AEF9B409502365B
:1026C30096EA24030A0A0AEB22900334125077C3D2
:1026D3002274F31203608A088B098A828B83A31204
:1026E300648F12277312648C750C001226C4122790
:1026F3006F70547E007F008049122751FAA3E0399E
:102703008A82F583E0540F6036122751F50AA3E05D
:1027130039F50BE50A2403FCE50B1227FA3400FB19
:10272300121CBAE964017017850A82850B83A31210
:102733005138A31234EC122778750C011254A012ED
:1027430030631224E240B2A90C7F05020579EEF84A
:10275300EFF9E875F00BA4F812275F22AAF075F0E1
:102763000BE9A42AF9900336E02822EF1228462227
:102773001264A0EB2212278412549BEEF0A3EFF015
:1027830022E5081264A1E5092274F5120360EAFE4A
:10279300EBFF8E828F83A312648F7C007D00EE2477
:1027A300030A0A0AEF1227F3EEFAEFFB120AD8E93B
:1027B300F50A7401650A702912649A122819AAF09D
:1027C30075F00BE912282B850882F5831228051270
:1027D3002836700DE5082403FCE5091227E71227C4
:1027E300F30224933400FDEE2403FAEF221227FAB6
:1027F3003400FB120AF6223400FDE5082403FAE54F
:102803000922A312280A2212280E22E0F8A3E0F9D3
:102813008E828F83A32212281D223400F583123E59
:10282300CCE875F00BA4F822122765F508A3E0396C
:10283300F50922E8F0A3E9F0E5082403FAE5091213
:1028430028462212284C6401223400FB120AFCE9B8
:102853002274F312036074E61208C2126485750CC5
:1028630001750800750900750A00750B008518824B
:10287300851983E4F0EE2403FCEF3400FD740312A6
:102883000AA7122906E964017023740B120AA7121E
:1028930034E47401120AA7124BDC7003A3E06960ED
:1028A30051851882851983858208858309740D12E1
:1028B3000AA7E412290D740E120AA71234EC740D40
:1028C300120AA7AA82AB83120B1AE96401700B7474
:1028D3000D120AA785820A85830B780A1207FEACBC
:1028E30008AD09EEFAEFFB120AEA7402120846E990
:1028F300F50CEEFAEFFB120B14A90C741A1208462E
:1029030002274C122BD9120B2022123461123EC81B
:1029130022C082C083780079008003122A04122621
:10292300CCE89AE99B5029E8FAE9FBEA75F00BA495
:10293300FAACF075F00BEBA42CFB900336E02AFC09
:10294300A3E03B8C82F583E0540F70CF79008002C3
:10295300790102341EC082C083902282123F1EEC92
:1029630075F012A4FCA8F075F012EDA428FD79FF10
:102973007A317B0B12148002341E74F7120360E960
:10298300FEEAFF7A007B00780079008028E8FCE902
:10299300FDEC75F012A4FC85F00875F012EDA4258A
:1029A30008122E19C39E400AE0FCEFC39C40031299
:1029B3002F38122A04122E0D40D3023456C082C07F
:1029C30083780079008003122A041229F8501F1219
:1029D3002E1DF470F2E875F012A4F8AAF075F01247
:1029E300E9A42AF9743128FA740B39FB80047A00BC
:1029F3007B0002341E902282122ECEC3E89AE99BFA
:102A030022E8240108E93400F92274F01203607407
:102A1300F31208C28A0A8B0B8C0C8D0D8908EC45C6
:102A23000D6016AA0CAB0D120B6E8A0E8B0FAE0E39
:102A3300AF0FEE4F6003022ACB120B448A0E8B0FAB
:102A4300A80EA90FE8FEE9FFE849607C90229012E6
:102A53002B2D6022740365086006740465087016E4
:102A63007A047903120B3E902290122B4440077A8A
:102A7300007B00022B2A90228E122B2D601B7401E7
:102A83006508600674026508700F7A027901120BFB
:102A93003E90228E122B4450D6851882851983745A
:102AA30001F0120AA7124F04AC0CAD0D7403120A05
:102AB300A7122BD2740B120AA71234321238CCE4A9
:102AC300124EEC1210128004EE4F604A780074FF2D
:102AD3002508C39404500278048E828F83124F0416
:102AE3008E828F83A3A3A3A3E508F0E88E828F834E
:102AF300A3A3A3A3A3124F0C12020F122EE58E82DF
:102B03008F83A3A3A3A3A3A3A3F0122EDC120A848F
:102B1300125484120A90122B32400590108DE4F067
:102B2300120EECEEFAEFFB023ED212502649227A45
:102B3300047900120B3E902282125B40EA98EB99D3
:102B430022122B5D758322758282E493C398F8A3C6
:102B5300E49399F9C3EA98EB9922E493F874019307
:102B6300F92274F212036074F31208C28A088B0903
:102B7300ECFEEDFF750A00EEFAEFFB120B6E8A0C0A
:102B83008B0DA80CA90DE849603E88828983E06516
:102B9300087004A3E06509602F88828983A3A3A337
:102BA300A3E0C394055021125332851882851983FB
:102BB3007401F0120AA7125336EEFCEFFD740312F0
:102BC3000AA7122BD2750A01A90A740D0249D01261
:102BD3002BD9120B2C22AA82AB83120AF6851882F8
:102BE300851983AA82AB832274F6120360122C2701
:102BF300600FA3A3A3A3E014C3940450047901803A
:102C03000279000234F574F6120360122C27600F68
:102C1300A3A3A3A3E014C39402500479018002790F
:102C2300000234F5120B688A828B83E58245832286
:102C330074F6120360122C27600BA3A3A3A3E07006
:102C4300047901800279000234F5C082C083EAFC72
:102C5300EBFD7A007B0002341BC082C0837C007DC5
:102C63000002341B74F412036074F31208C2EAFE08
:102C7300EBFF8C0A8D0BC3EC94F8ED94FF4007EE49
:102C83004F7003022D20750800750900802E8518EA
:102C9300828519837401F012308B120AA7123099BE
:102CA30060137403120AA7AC82AD83EEFAEFFB1232
:102CB3001CBAE97049E5082401122EB9902282E476
:102CC30012502EE50898E509995052E50875F0125F
:102CD300A4F8AAF075F012E509A42AF9125B73604F
:102CE300D4EE4F70A974FF650A700474FF650B601E
:102CF300C412307B650A7004A3E0650B70B7E50866
:102D030075F012A4F508A8F075F012E509A428F5EA
:102D13000974312508FA740B3509FB80047A007BAA
:102D23000002369174F412036074F31208C275083A
:102D330000120B6E8A0A8B0BAE0AAF0BEE4F602AA2
:102D4300851882851983740112345BF8A3E0F97442
:102D53000B120AA712356F120B0E7C127D0079FF3E
:102D6300EEFAEFFB121480750801122B3250099012
:102D7300108D7401F0120EECA90802369174F7124B
:102D83000360E9FE74FE6A700374FF6B78007900D8
:102D930070058052122A04122E0D504AE8FCE9FDF8
:102DA300EC75F012A4FCAFF075F012EDA42F122E07
:102DB30019F460E0E8FCE9FDEC75F012A4FC75F091
:102DC30012EDA42FFD74312CF582740B3DF583E0D5
:102DD3006A7003A3E06B70BC8009122E1D14C394A8
:102DE300044017122A041229F85018EE70EC122E20
:102DF3001D64016005E0640370E912306CFAA3E01E
:102E0300FB80047AFE7BFF023456902282123F221B
:102E1300C3E89CE99D22122F6D22E8FAE9FBEA75CB
:102E2300F012A4FAACF075F012EBA42CFB74352A63
:102E3300F582740B3BF583E022120B8002341EC033
:102E430082C083790180F274F01203608A0A8B0BCB
:102E53007A047901120B3E8A0C8B0DEA450D603E14
:102E6300EAC333FAEB33FB1215168A088B09AE0853
:102E7300AF09EE4F60237AFE7BFF120B8674FE6A66
:102E8300700374FF6B601B850882850983123466A7
:102E9300E5082402122EB980E1750C0080047E003F
:102EA3007F00850A82850B83E50CF0EEFAEFFB02C7
:102EB3003ED7E5082407F508E5093400F509229013
:102EC3002282123F22C3EA9CEB9D22E493FA74010F
:102ED30093FB22121474740322125495E4F090812C
:102EE300B122E88E828F83A3A3A3A3A3A3A3A312D8
:102EF3002F077401122F07A3F0EE2410125498E445
:102F0300F0A3F0221238D8A3A3A322C082C0837AED
:102F1300007B00800419122F38122EC25010122F7A
:102F230057C3940550F0E970EC122F4180047A00E6
:102F33007B0002341EEA24010AEB3400FB22EA750B
:102F4300F012A4FA75F012EBA428FB74312AFA7478
:102F53000B3BFB22EAFCEBFDEC75F012A4FCA8F0A2
:102F630075F012EDA428122F6D22FD74352CF58215
:102F7300740B3DF583E02274F712036074F31208B7
:102F8300C27E007F0002301FE50875F017A4F8A980
:102F9300F0125DD4FAA3E0FBEEF8EFF9E875F01256
:102FA300A4F8ACF075F012E9A42C12307A6A70031D
:102FB300A3E06B603FE50875F017A4F8AAF0EA12E6
:102FC3005DD3F8A3E0F97401120AA7E0687003A3C4
:102FD300E0696020E50875F017A4F8EAF974AD28F4
:102FE300FC740C39FD7403120AA7AA82AB83121C6A
:102FF300BAE96014E50875F017A4F8A9F074AB28D2
:10300300FA740C39FB12101E0508902294E493F80D
:10301300E508C3985003022F8B123063902282126B
:10302300611A5039EEF8EFF912306CF47003A3E033
:10303300F460E68518828519837401F0EEF8EFF9E0
:10304300E875F012A4F875F012E9A42AF912308B8E
:10305300120AA712309960C175080080AD0234517D
:10306300EE24010EEF3400FF22E875F012A4F8AA53
:10307300F075F012E9A42AF912307F22743128F591
:1030830082740B39F583E022743328F582740B398B
:10309300123EC6740B22E8F0A3E9123577120B2611
:1030A300E922C082C08390033D74DEF0A3740DF067
:1030B30090033F74D8F0A3740DF090034374F8F0B9
:1030C300A3740BF002341E74F7120360EAFEEBFFE5
:1030D300900377E06408601BE0640460168E828FBF
:1030E30083E05403640170481234251239CDE0643F
:1030F30006703D8E828F83A3A3E064FE7003A3E07A
:10310300F4602D8E828F83A3A31234E0900368E0D2
:10311300687003A3E069700BEE2415F582EF125B70
:103123005A6008120E8CE9F5088008120E9280F698
:103133007508C2EEFAEFFB12151C0225CE74F412C9
:1031430003608A088B098A828B83E0F8A3E0FAE89C
:103153002AFAE43400FB1215168A0A8B0BAE0AAF67
:103163000BEE4F6063850882850983E0FC7D00795F
:10317300001214808E828F83A3A312648F120ECE4B
:103183008E828F83A3A3A3A3123466850882850945
:1031930083E0F8EE28F8EF34001234E885088285DE
:1031A3000983A3E0C0E0EE240D125487D0E0F012AF
:1031B3000EE0EE240E125487E9124B39E0C0E0EE24
:1031C3002411125487D0E0F0EEFAEFFB0236967426
:1031D300F612036074EB1208C2EAFEEBFF12475BC0
:1031E30060030232767A077B0012151690033912B8
:1031F300346612475B60788E828F83120A84900351
:103203003A1239D0120A90126353C0E0123282D0BC
:10321300E0F0EE2405FAEF3400FB8A088B098A827A
:10322300F583E0C0E012327DD0E012368DE0C0E0DD
:1032330012327DA3D0E01234D2120A84851882851B
:103243001983120A9088828983E0C0E07405120A08
:10325300A7D0E0F0850882850983E0C0E0740412FA
:103263000AA7D0E0F07407120AA71233B8800679D0
:10327300108002790174150234F2123282A3229073
:103283000339E0FAA3E0F5838A82A3A3A3A322C0B0
:1032930082C08312475B600D90033912506590031F
:1032A30039E4F0A3F0120DFC120FBE02341E74F0C9
:1032B30012036074EB1208C2ECFEEDFF890874255B
:1032C300120AA7780C120A5B7429120AA7E0F97490
:1032D3002A120AA7E0FC742B120AA7E0FD740F69F7
:1032E3007005740F6C60129010D2E064027005795F
:1032F300C10233B3E9C39C40F6900378780C120AF9
:103303004CE50890037EF0E990037CF0ECA3F0ED2C
:1033130090037FF074FF6A700374FF6B701D90104D
:10332300DDE0F47003A3E0F4700512148C800C90BC
:1033330010DD12343BE8F0A3E98007900375EAF04F
:10334300A3EBF0EE4F6017EEFAEFFB12107EE96489
:1033530001700BEEFCEFFD7A897B03121CC0900316
:1033630068E4F0A3F090036BF0A3F0900388F0906F
:1033730010D2E06402700890037C740FF0A3F09005
:1033830003777405F014120AA7E4F0900378120A85
:1033930084851882851983120A9090037EE0C0E029
:1033A3007405120AA7D0E0F07407120AA71233B803
:1033B3007415023ED4E4123577121CEA22C082C08F
:1033C30083900338E070031217D4120BC8804CC0EB
:1033D30082C083900338E090108C7004E4F0802D59
:1033E3007401F0900338E0F460237C41E0C394411E
:1033F3005002E0FCECF8E0C398F0EC75F0E8A4CCE4
:10340300A8F075F003A428FD7A80123F2A7A8C7BFA
:10341300107941121CD88003120B74D083D082021E
:1034230007DEEE12549622E0F508A3E0F509221216
:1034330034362212280EA322123EC890037522743A
:10344300F7120360EB90037FF0120DEA8005740D11
:103453001208467F01020579123461A3E022123477
:10346300D2A322EAF0A3EBF02274F712036074F8FC
:103473001208C2EAFEEBFF7900900377E06408705C
:103483004485188285198374FDF0A374FFF0120E2E
:10349300C87402120AA71234667405120AA7E4124A
:1034A3003461E0C0E07404120AA7D0E01234CDC046
:1034B300E07406120AA7D0E0F07407120AA7E41218
:1034C3003573120F0A74080234531234D2E022F017
:1034D3008E828F8322F085188285198322123EC83B
:1034E30022E0F8A3E0F9125495E8F0A3E9F02212E0
:1034F30008467F02020579C082C08390034974881D
:10350300F0A3740CF09003EF7464F0A3740FF090C5
:10351300034D74BEF0A3740CF090034F7488F0A3B2
:10352300740CF090035174C4F0A3740CF002341EB5
:1035330074F412036074F91208C28A088B098C0AA6
:103543008D0B8518828519837808120A4C7404122E
:103553000AA7E9F07405120AA7E4F07406120AA791
:10356300E4123573120BB07407023693E8F0A3E943
:10357300123577221234D8AA82AB832274F4120351
:10358300608A088B098A828B831254A3EE4F7003DF
:1035930002368B90031212475E60158A828B83A3D7
:1035A300A3E0F9EEFAEFFB9003131239D0121E9F3A
:1035B3008E828F83A3A3A3A3A3A3A3A3A3E06402E5
:1035C30070748E828F83A3A3A3A3A3A3E05402707A
:1035D3000302365D850882850983A3A3E064E9605D
:1035E300798E828F83A3A3A3A3A3A3A3A3A3A3E0FF
:1035F30070149010D5E0048E828F83A3A3A3A3A39A
:10360300A3A3A3A3A3F08E828F83A3A3A3A3A3A3A4
:10361300A3A3A3A3E01412368DA3A3A37404F09071
:1036230010D6124EDEE8F0A3E9125FB78B0BEA4522
:103633000B70031259958E828F83A3A3A3A3A3A315
:10364300A3A3A3E0640260128E828F83A3A3A3A328
:10365300A3A3A3A3A3E06406702E8E828F83A3A3E8
:10366300A3A3A3A3E0A2E0501F850882850983A337
:10367300A3E0F9EEFAEFFB121D7A8E828F83A3A3E8
:10368300A3A3A3A3E054FEF080091238D422740D3F
:103693001208467F0402057974EC12036074DD128C
:1036A30008C2EAFEEBFF8C088D097437120AA7786B
:1036B3000C120A5B750A007405120AA7AC82AD836B
:1036C300121DC27412120AA7E070087415120AA719
:1036D300E060207405120AA7E0A2E6501E8E828FD6
:1036E30083A3A3A3A3A3A3A3A3A3124BD8120F4003
:1036F300E960087903121CA80238BA7405120AA7F4
:10370300E0540C64047005750B018003750B00E035
:10371300A2E55035750A01E50BA2E0402C120ECE4E
:103723008A108B11A810A911123425E0687003A325
:10373300E06960157405120AA7126496124BD4123D
:103743001D86E96004790480AC7405120AA7E0A21F
:10375300E650227406120AA7E05403701874051287
:103763000AA7E0540C640C600CE0540C6408600578
:1037730075100180037510007405120AA7E0540345
:10378300F8740268700C126496124BD4120AC002C9
:1037930038BA740168703AE510A2E050031238C2D7
:1037A3007405120AA7A882A9837403120AA7E8F072
:1037B300A3E9123EBC8518828519831238CCE0C078
:1037C300E07402120AA7D0E0123573121E70023899
:1037D300BAE860030238BA90035FE0640170108EA8
:1037E300828F83A3A3A3A3A3A3E070030237487428
:1037F30022120AA77402123EBC741A120AA71234C8
:10380300ECE510A2E050087405120AA71238C2E5CD
:103813000BA2E0506AEE240FF582EF125B5AC0E070
:103823007417120AA7D0E0F090031412475E7003D6
:103833000238BA120ECE8A128B13A812A913741A65
:10384300120AA7E0687003A3E069706B780C120793
:10385300F6780A12080278081207FEA910740C12EF
:103863000AA7AC82AD837421120AA7AA82AB839004
:1038730003141239CD121E9F74071208468038783C
:103883000C1207F6780A12080278081207FE900352
:1038930075120648EE2412F582EF1258887423122B
:1038A3000AA7AC82AD83740E120AA7AA82AB831255
:1038B3001D6E74091208467423120846025F8212B1
:1038C300649612507312145022E8F0A3E91238D40C
:1038D300221238D822F08E828F83A3A3A3A3A3A39B
:1038E3002274F71203601216C002345674F71203DF
:1038F300601216C602345674F71203601216D2020F
:103903003456C082C0831216CC02341E74F71203DD
:10391300601216D802345674F71203607409120A3F
:10392300A7E0F50878081208021216E474010234BD
:1039330053C082C0831216F002341EC082C08312A9
:1039430016F602341E74F71203601216FC02345684
:1039530074F7120360EAFEEBFF89087401650870CF
:10396300147900120D0090229FE493FC7900EEFA83
:10397300EFFB120C7602345674F412036074F912DE
:1039830008C2E9FE8A088B098C0A8D0B7413120A8C
:10399300A7124BD89005A512475E6027EE851882C3
:1039A300851983F07401120AA77808120A4CEAF801
:1039B300EBF97405120AA712356F9005A51239CDDC
:1039C300121E9F02356AFB90034BE0F8A3E0F583D8
:1039D300888222C082C08312172C02341E74F7120D
:1039E300036090108FE0F97E00800B125B46540D4C
:1039F30064017001190E123BDA5003E970ED0234D1
:103A03005674F7120360901090E0F97E00800B1259
:103A13005B46548D64817001190E123BDA5003E941
:103A230070ED02345674F2120360890BE975F006E7
:103A3300A4240CF508E5F0122EBD8A0CE508250C2C
:103A4300FAE5093400FB1215168A0C8B0DAE0CAF88
:103A53000DEE4F6027AC08AD0979001214801234C3
:103A630025E50BF0EE2508F8EF3509F98E828F83F3
:103A7300A3A3A3A3A3A3A3A3A31234ECEEFAEFFB84
:103A83000249D374F6120360EAFEEBFF120C529064
:103A9300108EE0F8E9C3984009900345124BD81201
:103AA3000C58EE2402F8EF1251E89003471250A28B
:103AB300900347E004F0EEFAEFFB120C5E850882F8
:103AC300850983E002569EC082C083790090034536
:103AD300800109124BD88A828B83E582458370F279
:103AE30002341E74F7120360EAFEEBFFEE4F6056DA
:103AF30090034512475E604E888289837A007B007B
:103B0300EE65827003EF6583600FAA82AB83123B7D
:103B13004CE5824583602F80E7900345123B58684C
:103B23007002EF698E828F8370081234E090034530
:103B33008003125F941234ECEEFAEFFB121E40EE98
:103B4300FAEFFB12151C023456123B5022123ECCE4
:103B53008882898322123EC8EE22C082C0839003EA
:103B63004580048882898312475E600B888289833B
:103B7300124210EC4D70EC8A828B83E4F0A3F0E8E0
:103B83004960068882898380039003451234660264
:103B9300341E74F712036090034580048A828B837A
:103BA300123BD54B60257E0080010E123BDA50ECB0
:103BB300EE75F006A4FCADF0EA2CFCEB3DFDEC2425
:103BC30010F582ED123C2A70E180047A007B00023A
:103BD3003456125077EA22123C33EEC3982274F71C
:103BE3001203607D0080010D123C2FEDC398503409
:103BF300ED75F006A4FEA8F0E8FFEA2EFEEB3FFF0A
:103C0300EE2410F582EF123C2A70DCED75F006A469
:103C1300FEE8FFEA2EFAEB3FFBEA2411F582EB12F2
:103C23005B5A4CF0023456125B666922123C332213
:103C33001264A0EB3400F583E0F82274F6120360FB
:103C4300120D787A007B008025EAF8EBF9E875F02D
:103C530006A4F8ACF075F006E9A42C12504C1263DC
:103C630061A3E4125142F0A31263671264DE90224F
:103C73008A122B3C40D37A007B00801C8A088B0974
:103C8300740378081209D9124B00A374FEF0A3043D
:103C9300124F22A3E41264DE902293123CDD40DC37
:103CA3007A007B00801D8A088B0974037808120947
:103CB300D974D31257D2740F12601974FEF0A3048F
:103CC3001264DE902299123CDD40DB90229DE49346
:103CD300900353F0123CE70234F5E493F8C3EA98F7
:103CE300EB9400227CE87D037A107B009003C2E012
:103CF300F91215D02274F012036074F51208C28A07
:103D0300088B09890A8C0BE9A2E050147508FC752D
:103D130009FFA2E15005D2E4023DBAD2E3023DBA63
:103D23001249BF7003A3E06970057900023E87ACB6
:103D33000A7902AA08AB09120D54E960EDE50AF508
:103D43000C780C12080279027CFE7DFFAA08AB09ED
:103D530012473A120846E96003023E85E50AC2E5C6
:103D6300F50A9003B5E07051E50AA2E6404B7403EF
:103D7300120AA7AC82AD83AA08AB09120B02E97041
:103D83003212405B8A0C8B0DA80CA90DE8FEE9FFEB
:103D9300E8496025EE24020A0AEF12284C601AEE65
:103DA3002402FCEF3400FD7403120AA7AA82AB833A
:103DB300121CC0E50AD2E5F50A900348E0F50C9021
:103DC3000368E0F50EA3E0F50F780E1207FE7D0100
:103DD3007C00900348E0F9AA0EAB0F120D0C74029D
:103DE300120846E9F8900348E004F0E86003023E55
:103DF30085E50AA2E55004740E80027406C0E074DF
:103E030001120AA7D0E01254B48A0E8B0FAE0EAF84
:103E13000FEE4F6069123EA5123EBC8882898374FF
:103E230001F07478550AA31264A6E50C1264A6A3E4
:103E3300E508F0E509123E94E4F0E50AA2E5500F27
:103E43007403120AA7AC82AD83E82406123E8B8E5C
:103E5300828F83A3A374FDF0A374FFF0E50B6015B9
:103E63009022A0E493F8E50BC3985009EE241312B3
:103E73005487E50BF0EEFAEFFB120BA480067910E2
:103E8300800279C7740B8049FAE93400FB121CC025
:103E93002288828983A3A3A3A3123EA02212521BCA
:103EA300A322EE24171254987401F0120EC8EE24C4
:103EB3001A125498EAF0A3EB22F012649A34001217
:103EC3003EC622F583123ECC22E0F8A3E0F9227429
:103ED3000D1208467F0802057974F61203607A0012
:103EE3007B101259A260089003D47401F0802990CA
:103EF3000646E064019010D37006E0FC790180046B
:103F0300E0FC79037A007B00120C76902288123F42
:103F13001E7A007B10123F2C0234F5123F2222E45A
:103F230093FC740193FD227B009003C2E0F9121508
:103F3300CA2274EC1203608A088B098C0C8D0D89DC
:103F43000E7414120AA71249197416120AA7E0F57F
:103F530010A3E0F511120F40E960077AFF7BFF021F
:103F630040589010D2E06402600302404B7900AAEB
:103F730008AB09120D5AA90E120D4E8A128B13AEFD
:103F830012AF13EE4F70030240338E828F83A3A3CD
:103F9300A3A3A3E064018E828F83A3A37069124B52
:103FA300D88E828F83A3A3A3A3A3A3E05418604353
:103FB30090229EE4938E828F83A3A3A3A3F0EA654A
:103FC3000C7003EB650D6014EA650A7003EB650B77
:103FD300600AEA65107003EB6511701F7810120711
:103FE300FEAC0AAD0BAA0CAB0D12103C7402120806
:103FF30046800890036712598CA3F074FE6A70031D
:1040030074FF6B601D804EA3A3A3E0640360298E3D
:10401300828F83A3A3A3A3A3E0640470057AFE02A3
:104023003F608E828F83A3A3A3A3A3E064027008DF
:104033009003B4E06402701012405B8B0BEA450BF3
:104043006006AA08AB09800DAA08AB0990034912C0
:1040530039CD121E9F025F829003751247401210E2
:10406300002274F7120360EAFEEBFF120B56E970AD
:104073000AEEFAEFFB120B62E96006EEFAEFFB8041
:10408300047AFE7BFF02345674F01203608A0A8BB3
:104093000B8C0E8D0F8909750800120F40E979000A
:1040A3006003024202AA0AAB0B120D5AA909120DB0
:1040B3004E8A0C8B0DAE0CAF0DEE4F60198E828FB6
:1040C30083A3A3A3A3A3E0640270559003B4E064A5
:1040D300027003024200AA0AAB0B90034F1239CDC0
:1040E300121E9F120B688A0C8B0DA80CA90DE849B0
:1040F300700302420088828983A3A3A3A3A3E0A23F
:10410300E04003024200750C01A2E150687901AC62
:104113000AAD0BAA0EAB0F120CA6E97064024200A3
:104123008E828F83A3A3A3A3A3E064037005750CFE
:104133000280528E828F83A3A3A3A3A3E0640160B2
:10414300030242009003751242108E828F83124540
:10415300658A0C8B0DA80CA90DE84960D1902297B4
:10416300E493FA88828983E0C39A50C2A3E0600390
:1041730002420080B988828983A3A3A3A3A3D2E1C7
:10418300F0EE4F603A8E828F83A3A3A3A3A3A3E091
:104193005418602B7508018E828F83A3A3120648DF
:1041A300750CFE750DFF780C1207FE7900AC0AAD95
:1041B3000BAA0EAB0F120D6C7404120846803E90CE
:1041C3000368E0650E7004A3E0650F701490229FEE
:1041D300E493FCA909AA0AAB0B120C7675080180BB
:1041E3001CA90CAC0AAD0BAA0EAB0F120CA6E970FE
:1041F3000C750801A909AA0AAB0B120D00A9080244
:104203003ED7E50C2415F582E50D12549B124EF8AA
:104213002274EA12036074F01208C28A0C8B0D8CAC
:10422300088D097426120AA7E0F514A3E0F51575A5
:1042330012069003F512475E602390037512421035
:10424300AA08AB0912102A8A108B11EA4511600DD6
:104253008A828B83A3E07005790002454DE50C2427
:104263001DF50EE50D3400F50F850E8212474AF554
:104273001388828983A3A3A3E0FA88828983A3A3F3
:10428300A3A3E0F9EA2400FEE439FFAA08AB09126C
:104293000D06850E82850F83124588E029F50BE50F
:1042A3000AA2E5500375120E7487550A7017741825
:1042B300550A6418600FE50C2417F582E50D125BAF
:1042C3005A651260077901121CA8808C530A78C3BF
:1042D300EE94F8EF94FF501D7900EEFAEFFB1245D0
:1042E30057601288828983A3A3A3A3A3A3E05418CE
:1042F300600302425B78081207FE7D0012457B12C1
:104303000846E9F8740368700302425BE86003023D
:1043130043C67418550A700302447BE50AD2E0F5DC
:104323000AA2E45004D2E1F50AA90A124BD11245BC
:1043330057605388828983A3A3A3A3A3A3E054183C
:10434300604488828983A3A3A3A3A3E06401703696
:10435300E5104511603090037512421088828983FD
:104363001245658A0E8B0FA80EA90FE849601788BE
:10437300828983A3E0600F851082851183A312567F
:10438300A9500302425BE50AF50E780E12080212E9
:10439300456E120846E9702B7C007D0085148285EA
:1043A300158374FFF0A3F0850C82850D83A3A3A36B
:1043B300A3A3A3A3A3E06003124205A90B124BD14D
:1043C3001216EA851482851583E0F47003A3E0F4E2
:1043D30060399003B4E06402700302425B12490A3D
:1043E300E0FAA3E01239C9121E9FEA65087003EBD5
:1043F3006509600302425BEEFAEF1239C9121E9F90
:10440300851482851583EAF0A3EBF078081207FE82
:104413007D0112457B120846A90AEEFAEFFB120D45
:104423005A8A088B09A808A909900368E0687003F1
:10443300A3E069600302453EEEFAEFFB120B688AC4
:10444300088B09A808A909E849606E88828983A3B3
:10445300A3A3A3E06401600D88828983A3A3A3A31C
:10446300E064027054851882851983AC82AD83EEB3
:10447300FAEFFB120B028055900361E0600FE50A2F
:10448300F50E780E12080212456E120846E50AF57B
:104493000E780E12080279027CFE7DFFEEFAEFFB26
:1044A30012473A120846E960030243C6851482851F
:1044B300158374FFF0A302440D120EC8EAFCEBFD52
:1044C300851882851983AA82AB83121CC0850C824E
:1044D300850D83A3A3A3A3A3A3A3A3E06401700FE8
:1044E3001242057408120AA7AA82AB83121CC012D7
:1044F30047141253204430F5087808120802740157
:10450300120AA785820885830978081207FE740BAF
:10451300120AA785820885830978081207FEE51326
:10452300F50878081208027900EEFCEFFD124BD172
:10453300120CA0740612084602425B12471412546E
:104543008A124588E50BF0120EE074101208467FBC
:104553000E020579120D4E8A0E8B0FA80EA90FE8D5
:104563004922A3A312507712102A227901AC08AD75
:104573000912506C12473A22AC0BA91312506C1259
:104583000D0C740222125328A3A3A3A32274F012C6
:10459300036074F01208C28A0C8B0DECFAEDFB7504
:1045A3000F089003F512475E60141256A28A828B9D
:1045B30083E58245836007A3E0700302470F124738
:1045C30014340012474AF50B8882898312471DE091
:1045D300FBEC2400FEE43BFF88828983A3A31247FC
:1045E3001DA3A3E0FBECF508E43BF509888289836E
:1045F300A3A3A3A3A3A3A3E0F50EE50AA2E4500398
:10460300750F10A2E550067408250FF50F748F552A
:104613000A700FE50C2417F582E50D125B5A650F3E
:1046230060087901121CA802470F530A707800E54D
:104633000AA2E45022124714125B5A2408FCA3E096
:104643003400FD7408120AA7AA82AB83121CC07837
:1046530008E50AC2E4F50AE50AA2E5502812471460
:10466300125B5A28F8A3E03400F9E82408FCE93483
:1046730000FD851882851983AA82AB83121CC0E5CD
:104683000AC2E5F50AAC0EA90BEEFAEFFB120D1206
:10469300E9F87403686075900368E06E7003A3E043
:1046A3006F605EE87054E50AF50F780F1208021286
:1046B300472B120846E97054780A12080274011253
:1046C3000AA785820C85830D780C1207FE740B12E2
:1046D3000AA785820C85830D780C1207FEE50BF57E
:1046E3000A780A120802A90EAC08AD09EEFAEFFB2C
:1046F300120CA074061208468012740468700D80B0
:10470300B7780A12080212472B1208467410023EA9
:10471300D4E50C241DF582E50D22A3A3A3E0FC88B8
:10472300828983A3A3A3A322790112491112549B63
:1047330012474012473A22120CCA740122E0FCA32A
:10474300E0FDAA08AB0922F583123B50A3E0F50A6A
:1047530088828983A3A3E0229003391250D3227461
:10476300E812036074F51208C2EAFEEBFF8C088DB1
:104773000989147423120AA7E0F50F7424120AA7F7
:10478300E0F512A3E0F5137426120AA7E0F516A3C9
:10479300E0F5177428120AA7E0F50EA90F120D18F9
:1047A3008A108B117401120AA77408F0E50EA2E4B3
:1047B30050037410F0E50EA2E55004E02408F085E0
:1047C3001882851983AA82AB83120F288A0C8B0D5A
:1047D300EA450D70030248F1EA2417F582EB12490A
:1047E30003120EC8E50C241AF582E50D12548A1241
:1047F30034667403120AA7AC82AD83AA10AB1112FC
:104803000B02E9601D1248FB7403120AA7A882A9D0
:1048130083E50C2418F582E50D12548AE8F0A3E928
:104823008024E50EA2E4501FE5106E7003E5116FBE
:1048330070151248FBE50C2418F582E50D12548A15
:10484300E512F0A3E513F012490A124919850A8209
:10485300F5837402F0A3E50E124921E50FF0EE850E
:104863000A82850B83A3A3A3F0EF850A82850B83BA
:10487300A3A3A3A3124921A3A3A3E508F0E50985F4
:104883000A82850B83A3A3A3A3A3A3F0AA10AB114E
:10489300120D06E92514850A82850B83A3A3A3A31E
:1048A300A3A3A3F0750800E50EA2E45011AC12AD6A
:1048B30013E50A2408FAE50B123E8D750808E50E88
:1048C300A2E55014AC16AD17E50A2508F8E50B343C
:1048D30000F9E82408123E8B850C82850D83A3A37F
:1048E300E510F0A3E511F0AA0CAB0D120BA4740BA9
:1048F3001208467F10020579E50C2416F582E50DB2
:1049030012549B7401F02212491112549B22E50C9C
:104913001264A1E50D22E0F50AA3E0F50B22F08570
:104923000A82850B83A3A32274F21203608A088B85
:1049330009ECFEEDFF890A79001249BF7003A3E079
:1049430069700479018073750B01900368E0650851
:104953007004A3E06509601F750B00780B12080251
:10496300A90AEEFCEFFDAA08AB09120F7C74011231
:104973000846E9F50B80417900EEFAEFFB120D4E84
:10498300EA4B602B8A828B83A3A3A3A3A3A3E05444
:1049930018601C7508FE7509FF78081207FE8A82E5
:1049A3008B83A3A31206481262B6120846800979C4
:1049B30001EEFAEFFB120C28A90B8014120D5A8A90
:1049C3000C8B0DA80CA90D900368E0682212084611
:1049D3007F0602057974F412036075081B75090ECE
:1049E3007A10125FBE8B0BEA450B7003123CE79003
:1049F3000353E014F0700C90229DE493900353F062
:104A0300120D667E007F00806C850882850983A372
:104A1300A3A3A3E06059F46056E5082404F582E5F6
:104A2300091259867049850882850983A3A3A3A324
:104A3300A3E0640370197902850882850983124211
:104A430010850882850983A3A3124BD8120CA6856F
:104A53000882850983A3A3A3A3A3E064016010854F
:104A6300088285098374FEF0A304124B32E4F0122A
:104A73003063122EB590228C12611A408C7E007F17
:104A8300008039120E6E8E088F097403780812099C
:104A9300D974932508FC740F3509FD7AB27B0C1287
:104AA3000E5CEA4B70DD8E088F09740378081209D7
:104AB300D9124B00126361E4F0123063902293E445
:104AC30093F8C3EE98EF9400501B8E088F0974037C
:104AD30078081209D9124B08E82407F582E912591C
:104AE3008670D680A17E007F00800A124B1360027D
:104AF30014F012306312611740F1023696124B081C
:104B0300888289832274932508F8740F3509F92262
:104B1300EEF8EFF9E875F006A4F8AAF075F006E9E7
:104B2300A42AF9743328F582740F39F583E022122D
:104B33004B39A3A3A322F0850882850983A3A3226B
:104B430074F712036074E11208C2ECFEEDFF7508FE
:104B530000EE4F60728A828B83E0241C1259B712D5
:104B6300475E60638A828B83124BD88518828519CE
:104B730083AC82AD83EA241BF582EB125888EA24C6
:104B83001CF582EB124BD4120EB0740B120AA7124F
:104B93004BDC7003A3E069702E7402120AA7E06471
:104BA300017024741D120AA71239CDE06401701735
:104BB300741D120AA71239CFA3A3E0F88E828F8344
:104BC300E0687003750801A908741F023453124981
:104BD300113400F5831250772212280AE0682274F8
:104BE300F4120360E97024790090034D1239CD1259
:104BF3001E9F8A0A8B0BAE0AAF0B74FE6E70037492
:104C0300FF6F701A90229AE4936013790190034D19
:104C13001239CD121E9F8A0A8B0BAE0AAF0B120EEE
:104C2300EC0231CB74F612036074F31208C212144F
:104C33008C8A088B09AE08AF09900368E06E700395
:104C4300A3E06F60E9120ED4EA6E7002EB6F60DED0
:104C5300EEFAEFFB120F40E970D4EE4F60D08518E7
:104C630082851983E4F004120AA7EEF0A3EF124C35
:104C73008AE970BA74FE6E700374FF6F60B0EEFA67
:104C8300EFFB740D0234F2123577120B1A22C08235
:104C9300C083120EEC02341E7F0A02057974F212ED
:104CA3000360EAFEEBFF8C0A8D0B8908740E120A6F
:104CB300A7E0F50974FC6E700374FF6F700579004B
:104CC3000249D37900120D5A8A0C8B0DAE0CAF0D2D
:104CD300900368E06E7003A3E06F7006E509A2E637
:104CE30050DCA9091261A4706179007AFE7BFF127E
:104CF30061A47056741855097003024DD778007972
:104D0300008003122A0490228C1229FB4003024DD7
:104D1300D7E8FAE9FBEA75F007A4FAACF075F007F7
:104D2300EBA42CFB74212AF582740E3BF583E0542B
:104D33001870D0E875F007A4F8AAF075F007E9A495
:104D43002AF9741B28F8740E39F988828983A3A37E
:104D5300A3A3A3A3E05418600974185509700302B0
:104D63004CC188828983EEF0A3EFF074FE650A706C
:104D73000474FF650B6003124EFE88828983A3A32C
:104D8300A3A3A3A3E509F0A2E0500D88828983A31E
:104D9300A3A3A3A3A3D2E2F0740165088882898345
:104DA300A3A3A3A3A370387401124F22E054186085
:104DB3002890229EE49388828983A3A3A3A3124EFF
:104DC300EC12102A8B0DEA450D6003024CC17800EA
:104DD300790080397902024CC3900367E080D7E001
:104DE30064017003024CC188828983A3A3A3A3A394
:104DF300A3E05418600790229EE493800490036616
:104E0300E0123E94E508F0024CC1122A0490229469
:104E1300E493FAC3E89AE994004003024CC17A0090
:104E23007B00804BEAFCEBFDEC75F007A4FCAEF0D5
:104E330075F007EDA42EFD741D2CF582740E3DF55F
:104E4300831254A3E8FCE9FDEC75F017A4FC85F08C
:104E53000975F017EDA42509FD74AB2CF582740CCC
:104E63003DF583E06E7003A3E06F609E122F3890D0
:104E7300228C122EC540AD123F1EEC6A7002ED6B00
:104E83007088E875F017A4F8AAF075F017E9A42A5A
:104E9300F974AB28FE740C39FF7C177D007900EEA2
:104EA300FAEFFB1214808E828F83124F04900375E6
:104EB300124EDEA3A3A3A3A3A3E8F0A3E9124EE437
:104EC3007401F0EE240E1254877401124F0C120277
:104ED3000FEE240D125487E8024E09123436A3A3B1
:104EE30022F0EE240F12549822F0124EF5AA0AABC8
:104EF3000B22900375E0FCA3E0FD2288828983A343
:104F0300A3E50AF0A3E50BF022F0124F1122902241
:104F130097E4932401F8E43400F97A027B00221227
:104F23003EA0A32274ED1203608A088B09890E1236
:104F3300505540057905025023121732AA08AB09D0
:104F430012512790228A125026650A7003E9650BD5
:104F530070077AFE7BFF12512790228AE412502EAB
:104F6300E50A98E50B994003025021125032601272
:104F7300E50A75F006A4F875F006E50B12507D12EC
:104F8300151CE50E6018E50A75F006A4F8AAF0757D
:104F9300F006E50B1250A9701A7901025023E50AB5
:104FA30075F006A4F8AAF075F006E50B12508AE432
:104FB300F0A3F0E50A75F006A4F8AAF075F006E58B
:104FC3000B12504AA312533688828983A3AA82AB59
:104FD300831250988A828B83E0603F125032603A8A
:104FE3008E108F1175120078101207FAE50EC33375
:104FF300FCE433FDE50A75F006A4F50AA8F075F0A4
:1050030006E50BA428F50B7437250AF582740F35D2
:105013000B124BD6122ED61208467900800279075E
:105023000261BA122B5DE822902282125B4122E5D3
:105033000A75F006A4F8AAF075F006E50B12508580
:10504300F8A3E0F9E84922A42A1251DE8882898371
:10505300A322ECFEEDFF902295E493F8E9C3982296
:10506300F58312507712151C22E50C1264A1E50D8D
:105073003400F583E0FAA3E0FB22125085FAA3E0A3
:10508300FB2212508AE022A42AF9743728F582748D
:105093000F39F58322E50EF09010D41250A222E0CE
:1050A30088828983F022125202F50CE93400F50D4F
:1050B300E50EC333FAE433FB121516850C82850D16
:1050C30083EAF0A3EBF0850C82850D831250D32283
:1050D300123ECCE8492274F4120360ECFEEDFF7437
:1050E3000C120AA71234E088088909125127AC0A66
:1050F300AD0BECF8EDF990228A12512F5021E8758F
:10510300F006A4F8AAF075F006E912504AE08E8280
:105113008F831251421251381234EC790080027994
:1051230004023696120CDC8A0A8B0B22122ECEC393
:10513300EC9AED9B22123EC88508828509832212D0
:1051430052172274F61203607E007F008028EEF867
:10515300EFF9E875F006A4F8ACF075F006E9A42CB5
:10516300F9743528F582740F125DC56A7003A3E0E4
:105173006B605712306312611740D31261127002D1
:10518300E96F704674FE6A700374FF6B703C7E00B7
:105193007F008003123063126117502E124B13707D
:1051A300F3EEF8EFF9E875F006A4F81251D41252B1
:1051B3000960171251F0F8E91251E888821250631E
:1051C300850882850983E4F0A3F0EEFAEFFB02344D
:1051D300F575F006E91251DC22A42AF9743328F894
:1051E300740F39F9223400F98808890922EEF8EF9F
:1051F300F9E875F006A4F875F006E91252022212D6
:1052030051DCE8240422A3A374FE1252141250D3D7
:1052130022F0A30412521B22F088828983A3A3A342
:10522300A32274F6120360EA241DF582EB125320C5
:10523300F9604BEA241DF582EB125B5A2402FCA3AE
:10524300E03400FD125059400302531378008029C3
:105253008C828D83E0F508A3E0FFE5082400E43F9A
:10526300F509E833FEE433FF747B2EF582740F3FB8
:10527300F58312533612531608E8C39940D28A8233
:105283008B83A3A3A3A3A3A3A3A3A312421090035B
:1052930068E06C7003A3E06D700F7C7B7D0F1227B9
:1052A30073124BD4120CD08067EA2411F582EB12EF
:1052B3005B5A605CFC74FF2CF075080178081208D7
:1052C3000275087B75090F78081207FEE9F508785F
:1052D30008120802EA2412F582EB125B5AF50878E9
:1052E30008120802EA2415F582EB12548A120648C2
:1052F300ECF912277312420D8A828B83A3A3A3A313
:10530300A3A3A3A3A3124BD8120CE8740712084655
:105313000234F5EC24020C0CED3400FD2212549BF4
:10532300125328E022E0F8A3E0F5838882A32288C1
:10533300828983E508F0A3E509F02274EA12036089
:1053430074FD1208C28A148B158C0E8D0F890D748F
:1053530019120AA71254A3741B120AA7E0F51174B9
:105363001C120AA7E0F50C741D120AA7124919743E
:105373001F120AA7E0F5106008E50CC3332404806C
:10538300027402C0E07401120AA7D0E01254B48A76
:10539300088B09EA4509700302547F8A828B83A331
:1053A300A3E514F0A3E515125FADE50EF0A3E50F39
:1053B300F0EA2413F582EB12548AE50DF0EA241483
:1053C300F582EB12548AE511F0EA2417F582EB1209
:1053D3005B5A64017040120ECE8A0E8B0FA80EA981
:1053E3000F850882850983A3A3A3A3E0687003A3A1
:1053F300E0696022EE4F6011E508241AF582E509A1
:1054030012548AEEF0A3EF800CE5082417F582E529
:105413000912548AE4F012548E1254A38E828F839D
:105423007405F0A3E5107004E50C80487401250CA5
:105433001254AD7A008028850A82850B83E01254CA
:10544300A9850A82850B83A3E08E828F83F0E50A08
:105453002402F50AE50B3400F50BA30EAF830AEA29
:10546300C3950C40D2120ECEEA1254A9120ECEEB03
:105473008E828F83F0AA08AB09120BA47403024532
:105483004FEE240CF582EF12549B22122784125400
:105493009B22EE240BF582EF3400F5832290033434
:1054A300E0FEA3E0FF228E828F83F0A3AE82AF8360
:1054B30022123577120F2822C082C083E9C333FC3E
:1054C300E433FDEA2CFAEB3DFBEA24FEF582EB34F0
:1054D300FF124BD602341E74F212036089098A0A42
:1054E3001250554004790080407508008002050879
:1054F300E508C39509502AE508C333F8E433F9EE08
:1055030028F582EF39F583C082C083120ECE8A0C50
:105513008B0DD083D082E0650C7004A3E0650D7021
:10552300CDE50A650870BE79010249D374F0120310
:105533006074F31208C28A088B098C0A8D0B890CDC
:10554300750D00120F40E979006003025631AA0875
:10555300AB09120D5AA90C120D4E8A0E8B0FAE0E0B
:10556300AF0FEE4F700302562F8E828F83A3A3A338
:10557300A3A3A3E0A2E2400302562F120ECEEA65D4
:105583000A7003EB650B7011780D120802E4F50E37
:10559300F50F780E1207FE8044AA0AAB0B120B5CC0
:1055A300E9640170688518828519837404F07401B5
:1055B300120AA7124F04851882851983AA82AB8326
:1055C300120B1AE964017045750D01780D1208027A
:1055D300E4F50EF50F780E1207FE750D00780D1227
:1055E3000802780D1208027408120AA785820E8534
:1055F300830F780E1207FE9022A0E493F9AC0AAD54
:105603000BAA08AB09120CE874071208468E828FA6
:1056130083A3A3A3A3A3A3E0A2E1400D8E828F8360
:10562300A3A3A3A3A3A3C2E2F0750D01A90D023E98
:10563300D274F6120360E9FE7900120D5AEEF912E4
:105643000D4E8A088B09A808A909E8496006126467
:10565300E8F9800279040234F574F61203607E07D8
:1056630090035CE070341256A28A088B09A808A93B
:1056730009E8496025900361E0640188828983A376
:10568300A3700B1256A9888289835001A3A3E0F962
:10569300121048E9FEEE70027E07EEF90234F512AD
:1056A3004EF512102A22E0FA88828983A3E0C39A76
:1056B3002274EE120360EAFEEBFF890A8C0C8D0B59
:1056C3007412120AA712342A12577E12505C5051D8
:1056D300890E750F007403780E1209D97499250E7B
:1056E300F582740F350FF583E0F8E50CC398502D60
:1056F300E50B6024751100740378101209D97493B3
:105703002510F8740F3511F988828983A3A3A3A305
:10571300A3A3E50C125788F07900024C9B79038010
:10572300F979007AFE7BFF12577EE49365107004CB
:10573300790280E6E50B60E0890E750F007403784B
:105743000E1209D97493250EF8740F350FF9888258
:105753008983A3EEF0A3EF125788124F22E50C12B0
:105763003E9C74FF126367E50AF0900366E088824B
:105773008983A3A3A3A3A3A3A3809C120D48E9F544
:1057830010902293221264AAA3E508F0A3E509224C
:1057930074F6120360ECFF120D4890229312505CD2
:1057A30050278908750900740378081209D9749879
:1057B3001257D2740F126019E0F8EFC3985006EF36
:1057C300F0790080067903800279040234F5EA2532
:1057D30008F5822274F4120360EAFEEBFF120D480F
:1057E300E9F50A90229312505C5019750B0074036B
:1057F300780A1209D97496250AF582740F350B12AB
:105803004BD6801890034B12475E600CEEFAEFFB09
:105813001239D0121E9F80047AFE7BFF02369674E3
:10582300F61203608A828B83A3A3A3A3A3E4F0F8F5
:10583300800108902299E493F9E8C399501E8808DF
:105843001258808C828D83A3A3A3A3A3A3A3A3E055
:105853006970DFECFAEDFB120E74801EE49368703E
:10586300198C828D83A3A3A3A3A3A3A3A3A37406C9
:10587300F07A008C828D831259AB0234F5741B25A8
:1058830008F5827410125B66F92274F4120360EA5D
:10589300FEEBFF8E828F83A3A3E0141259C2A3E011
:1058A300F9120E508A088B09EA45097003025983DD
:1058B3008E828F83A3A3E070358A828B83A3A3A3F5
:1058C300A3A3A3A3A3A3E064028A828B83A3A3A3BA
:1058D300A3A3A3A3A3A360107406F07AF0850882A0
:1058E3008B831259AB0259837406F00259838E825B
:1058F3008F83A3A3A3A3A3A3E060738E828F83A349
:10590300A3A3A3E0607AEE2403F582EF1259867015
:105913006F90035512598C1259C2E014125FA4E020
:105923006403705C8E828F83A3A3A3A3E0700DAC8A
:1059330008AD09EEFAEFFB120D1E80448A828B83B9
:10594300A3A3A3A3A3A3A3A3A37404F012148CEA95
:10595300540F04850882850983A3A3A3A3F0A3E4BA
:10596300F07A20FB1259A2701712599580128A827D
:105973008B83A3A3A3A3A3A3A3A3A3E0640360AF05
:10598300023696125B6614F022E08E828F83A3A305
:10599300A3227A207B009003C2E0F91214CE2212D4
:1059A3005FC08B09EA450922E0240C1259B7E0F9DC
:1059B300120D9622F8A3E03400F98882898322121B
:1059C30059C7A3221234D2A3A3A32274F6120360ED
:1059D30079007E0080258E0875090074037808120B
:1059E30009D974D32508FA740F3509FB8A828B838E
:1059F300A3A3E06005120D2479010E902299E4938C
:105A0300F8EEC39840D0E9A2E07A407B009003C24D
:105A1300E0F950151215DC8B09EA4509700E7C6418
:105A23007D007A40123CED80031215D60234F574E2
:105A3300F4120360ECFEEDFF7508D375090F7C00CB
:105A43008045850882850983A3A3A3A3A3A3A3E019
:105A5300F8EA2412F582EB125B5A68701F850882FC
:105A63008509831234E0125B5E687003A3E06970FA
:105A73000B850882850983A3A3E070200CE5082425
:105A830008F8E5091251E8902299E493F8ECC398D9
:105A930040B0E4936C7005790002369685088285E0
:105AA3000983A3A3A3A3A3A3E07004790180EA124B
:105AB30061B21210008B0BEA450B600F85088285DB
:105AC3000983A3A3A3A3A3A3E014F07C0080010C88
:105AD3008C0A125B345020EC125B6C60F212307B48
:105AE3006E7003A3E06F70E7850882850983A3A323
:105AF300A3A3A3A3E014F0902294E493F89022824A
:105B0300E49328F8A3E4933400F985088285098394
:105B1300A3A3A3A3A3A3E0FAC3E89AE99400508B39
:105B2300850882850983A3A3A3A3A3A3E4F0025A50
:105B3300AE902282125B40E50A98E49922E4122B8C
