:020000040000FA
:06000000020A2D0201B30B
:03002B0002086068
:030043000206F7BB
:030053000200E4C4
:03007B000208AACE
:100083000201480101FF01010503010F10FEFFB842
:1000930012B812B812B81274116E11B812991F0067
:1000A3000000005D20000000000C0000000C0001B7
:1000B300FFFF0102007205000000E5056400020273
:1000C30000080000050207051E02051E020A0A03B6
:1000D300B80B02803E0102F1FF1496511800020290
:1000E30006C0E074F21203CCA2AFE433FED2AFE554
:1000F300A7FFE5A1F5085F54106006121A5675A113
:10010300EFE5085F54086008121A5C75A1F7802BAD
:10011300EFA2E0C0D0E508A2E092F01209541581E5
:1001230082F05017906198E0F8900AC2E0C398A259
:10013300D265D0335002E8F075A1FEEEA2E092AF93
:100143007F0102042BC0E074F21203CCA2AFE433AC
:10015300FED2AF9061A4E0F8759B00E59158540876
:1001630060087591F7121AA4802AE591585410601B
:10017300087591EF121AAA801BE8A2E0C0D0E5919E
:10018300A2E092F0120954158182F05007E0C2E018
:10019300F0121BEE9061A3E0F8E5E9585404600EF9
:1001A300121BC475E9FB906193E0A2E640F2808BD9
:1001B300C0E074F21203CCA2AFE433FED2AF90617D
:1001C300A5E0F8E5BF585404600675BFFB121C0692
:1001D30002013EC3E498F8E499F91202178026C39A
:1001E300E49AFAE49BFBE920E7E9120217E498F8A2
:1001F300E499F922C3E498F8E499F9120217E49810
:10020300F8E499F9C3E49AFAE49BFB22EB20E7CFE5
:10021300E920E7E0B90010BB0008E88AF084F8AAF7
:10022300F022E4FBC8FA22EB70227B10C833C8C962
:1002330033C9335007C39AC3DBF280069A50012AAD
:10024300DBEAC833F4C8C933F4C9FA2275F008E409
:10025300C833C8C933C933C99AC99B5004C92AC909
:100263003BD5F0ECFBC833F4C8E4C9FA220808080C
:10027300EAC0E0EBC0E086F0E7A4FA180986F0E7ED
:10028300A42AFA180986F0E7A42AFA180986F0E7DF
:10029300A42AFA1986F0E7A4FBE5F02AFA190886DE
:1002A300F0E7A42BFBE5F03AFA190886F0E7A42B54
:1002B300FBE5F03AFA18180986F0E7A4C5F02BFB22
:1002C300E43AFA1908E7C5F0C6A426F6E5F03BFBC5
:1002D300E43AFA1886F0E7A4F6E5F00826F6E43BDC
:1002E30008F6E43A08F6D0E0FBD0E0FA22E4CFC007
:1002F300E0E4CEC0E0E4CDC0E0E4CCC0E075F020A3
:10030300C3E633F608E633F608E633F608E633F6D3
:10031300181818EC33FCED33FDEE33FEEF33FFC357
:10032300EC9709ED9709EE9709EF97191919400F03
:10033300FFEC97FC09ED97FD09EE97FE191906D519
:10034300F0BEECF709EDF709EEF709EFF719191904
:10035300D0E0FCD0E0FDD0E0FED0E0FF222518C5C0
:1003630082C0E0E51934FFC583C0E0E518C3958278
:1003730024F810AF088583198582188008858319AE
:10038300858218D2AFCEF0A3E520F0A37808E60863
:10039300F0A3DEFAEFF0A3E58124FAF8E608F0A370
:1003A300E608F0A3E608F0A30808E608F0A3E608C9
:1003B300F0A315811581D0E0FED0E0F815811581F9
:1003C3001581E8C0E0EEC0E022C0D02518C582C088
:1003D300E0E51934FFC583C0E0E518C3958224F333
:1003E30010AF088583198582188008858319858253
:1003F30018D2AFC8F0A3E9F0A3EAF0A3EBF0A37916
:1004030008E709F0A3D8FAECF0A3EDF0A3EEF0A30C
:10041300EFF0A3D0E0F0A3D0E0F0A3D0E0F0A3E5A9
:1004230020F0A3E5F0F0A322851983851882E0C0AC
:10043300E0A3E0F9A3E0FAA3E0FBA37808E0F60861
:10044300A3DFFAE0FCA3E0FDA3E0FEA3E0FFA3E04B
:10045300C0E0A3E0C0E0A3E0F5D0A3E0F520A3E073
:10046300A3F5F010AF08858319858218800885836A
:1004730019858218D2AFD082D083D0E0F8D0E03291
:10048300120A9CB900030204C5E490030178897938
:100493000E8002F0A3D8FCD9FA901089AA82AB830C
:1004A300900086785F79018015E493A3AC82AD83D5
:1004B3008A828B83F0A3AA82AB838C828D83D8E953
:1004C300D9E775829C7583E674031207D87582A0F9
:1004D30075831E74001207D80975F0108E1A8F1BCE
:1004E30085821F85831E851882851983E0CEA3E04C
:1004F300CF851F82851E83EBC9EAC8EDCBECCAC347
:10050300E833C8E933C9EA33CAEB33CBC3EA9EF510
:100513001DEB9FF51CB35004AB1CAA1DEC33CCEDB3
:1005230033CDD5F0DAAE1AAF1B22D083D082ECC024
:10053300E0EDC0E0E493A3FCE493A3FDED4C600D78
:10054300120605EC24FFFCED34FFFD80EFE493A3DA
:10055300FCE493A3FDED4C600D1206A2EC24FFFC1A
:10056300ED34FFFD80EFD0E0FDD0E0FCE493A3C0C9
:10057300E0E493C0E022851983851882E0A3FEE0BE
:10058300A3F5207808E0A3F608DFFAE0A3FFE0A3D1
:10059300C0E0E0A3C0E0E0A3C0E0E0A3C0E0E0A3CC
:1005A300C0E010AF088582188583198008858218FA
:1005B300858319D2AFD083D0820207DED083D08265
:1005C300E9C0E0E493A3C386F0C5F095F0F908E42D
:1005D30093A386F0C5F095F0700BE493A3C3994001
:1005E30005E9048002A3E475F002A42582F582E5FF
:1005F300F03583F583D0E0F9E493A3C0E0E493C03E
:10060300E022C0E0C3E49396087401939618400F68
:10061300E49366700808740193661870007019A358
:10062300A3C3E49396087401939618A3A3400DD033
:10063300E0D0E0D0E0020569A3A3A3A3A3A3D0E085
:10064300227404800474028000CCC0E0EDC0E0E5B5
:1006530018C39CCCAD1950011D10AF068C188D1911
:1006630080068C188D19D2AF12073CD0E0FDD0E084
:10067300FC2274028000CCC0E0EDC0E0E518C39C0E
:10068300CCAD1950011D10AF068C188D1980068C46
:10069300188D19D2AF12071AD0E0FDD0E0FC22C0AA
:1006A300E0C0F088F0E4936670080874019366185C
:1006B3007000A8F0A3A3700BD0F0D0E0D0E0D0E09E
:1006C300020569A3A3D0F0D0E022D083D082CCC0AE
:1006D300E0E493A3600612077C1470FAE493A3602A
:1006E300061208D81470FAD0E0FCE493A3C0E0E447
:1006F30093C0E022C0E074F21203CCA2AFE433FE55
:10070300D2AFC2C0E5D1A2E450031219CCEEA2E0ED
:1007130092AF7F0102042BCAC0E0E493A3C582CC4D
:10072300C582C583CDC583F0A3C582CCC582C583ED
:10073300CDC583DAE5D0E0CA22CAC0E0E0A3C58212
:10074300CCC582C583CDC583F0A3C582CCC582C584
:1007530083CDC583DAE6D0E0CA22C008C3E096F5AC
:100763000808A3E096420808A3E096420808A3E01D
:100773009645087001D3D00822C0E0E493A3D39C2C
:100783005010E493A3C39C400AD0E0D0E0D0E00231
:1007930006EAA3A3A3D0E022700908080822601682
:1007A300181818C6C333C608C633C608C633C608E6
:1007B300C633C6D5E0EA22C5822518C582C583356E
:1007C3001910AF07F5198582188007F51985821866
:1007D300D2AFC58322C09FF59FE473D09F22D083FD
:1007E300D082C09FE493C0E0740193C0E07402938D
:1007F300F59F227404800A740380067402800274D5
:1008030001C0E0F404120811D0E0120A772225187F
:10081300F58210AF08F518400215198008F5184045
:10082300021519D2AF85198322BB0102E722C082C8
:10083300C08389828A83BB0003E08002E493D08370
:10084300D08222C0D0251810AF08F5185002051920
:100853008008F51850020519D2AFD0D022C0E0C0ED
:10086300D0E8C0E0E5A8D2AFC2C7A2E792AFD0E01C
:10087300F8D0D0D0E0326016080808C6C313C618F3
:10088300C613C618C613C618C613C6D5E0EA22C3D4
:10089300E0C696F608A3E0C696F608A3E0C696F669
:1008A30008A3E0C696F622C0E074F21203CC7A34B1
:1008B3007B81121468758A00C2EB7F0102042B2529
:1008C3001810AF08F518400215198008F5184002F2
:1008D3001519D2AF22C0E0E493A36C7009D0E0D025
:1008E300E0D0E00206EAA3A3D0E022E76670100896
:1008F30009E766700A0809E76670040809E76622D3
:10090300C3E09608A3E09608A3E09608A3E096A2A6
:10091300D265D03322E066701008A3E066700A083F
:10092300A3E066700408A3E06622C3E096F008A380
:10093300E096F008A3E096F008A3E096F022E02604
:10094300F008A3E036F008A3E036F008A3E036F0A1
:1009530022C0E0E8C0E0E58124FCF8E6A2E7D0E0AD
:10096300F8D0E022E647F60809E647F60809E64725
:10097300F60809E647F622E026F608A3E036F6086D
:10098300A3E036F608A3E036F622E627F60809E6E2
:1009930037F60809E637F60809E637F622E657F68A
:1009A3000809E657F60809E657F60809E657F62256
:1009B300E056F608A3E056F608A3E056F608A3E0CF
:1009C30056F622E056F008A3E056F008A3E056F0EE
:1009D30008A3E056F022700422600D18C6C333C684
:1009E30008C633C6D5E0F41822E4C396F608E496A5
:1009F300F608E496F608E496F622C6F4C608C6F4AA
:100A0300C608C6F4C608C6F4C622C3E7960809E7B3
:100A1300960809E7960809E79622C3E09608A3E03B
:100A23009608A3E09608A3E0962275D0007581404E
:100A330075180175190300020483600C08C6C313FB
:100A4300C618C613C6D5E0F422E6F008A3E6F008FC
:100A5300A3E6F008A3E6F022E0F608A3E0F608A375
:100A6300E0F608A3E0F622C5822518C582C58335C2
:100A730019C58322CAC0E0E6F0A308DAFAD0E0FA87
:100A830022E0FAA3E0FBA3E0FCA3E0FD22EAF0A34B
:100A9300EBF0A3ECF0A3EDF022E5C754F84401F525
:100AA300C77901222518F582E43519F58322C2AFEF
:100AB30075D69F020000221207E1F6E3021207E156
:100AC30099E4021207E1E0E5021207E1FEE50212F2
:100AD30007E1AD22001207E1BF22001207E1112353
:100AE300001207E17223001207E1FC23001207E161
:100AF300A024001207E1F424001207E10D250012DF
:100B030007E13325001207E16E25001207E1B22544
:100B1300001207E1D925001207E12A26001207E196
:100B2300DA26001207E19227001207E15A28001281
:100B330007E11A29001207E15E29001207E1832960
:100B4300001207E1C629001207E1132A001207E188
:100B53006B2B001207E1F12B001207E10F2C00129F
:100B630007E1392C001207E1532C001207E1622C34
:100B7300001207E16D2C001207E12D2D001207E191
:100B8300862D001207E1482E001207E1502E0012B5
:100B930007E1142F001207E1802F001207E1AB30A9
:100BA300001207E1D030001207E14631001207E1DD
:100BB300D831001207E19832001207E1B732001270
:100BC30007E1C633001207E1D833001207E14834C6
:100BD300001207E17234001207E10035001207E149
:100BE3003935001207E18535001207E1A1360012FD
:100BF30007E1EA38001207E1F538001207E100398E
:100C0300001207E10B39001207E11539001207E161
:100C13002039001207E13A39001207E14439001282
:100C230007E14E39001207E15939001207E1813912
:100C3300001207E1DC39001207E1E639001207E18F
:100C43000A3A001207E12E3A001207E18C3A001229
:100C530007E1D03A001207E1EC3A001207E1633BE7
:100C6300001207E19B3B001207E1E73B001207E19B
:100C7300443C001207E1FE3C001207E1E23E001291
:100C830007E13B3F001207E16B40001207E191408F
:100C9300001207E11A42001207E19645001207E12C
:100CA3006847001207E13149001207E1DE490012EB
:100CB30007E1494B001207E1E84B001207E12D4C15
:100CC300001207E1974C001207E1A64C001207E15E
:100CD3002D4F001207E1DF50001207E14C510012C3
:100CE30007E12B52001207E14453001207E1C154FC
:100CF300001207E1E054001207E13555001207E145
:100D03003A56001207E16256001207E1BA56001282
:100D130007E19957001207E1DD57001207E1285850
:100D2300001207E19358001207E1D459001207E1BA
:100D3300385A001207E1865B001207E1E65D0012F4
:100D430007E1175E001207E1CF5F001207E124609D
:100D5300001207E12861001207E1C561001207E1F3
:100D63001E62001207E1D162001207E173630012F1
:100D730007E11364001207E1B864001207E1E3819D
:100D8300011207E12282011207E16984011207E1DE
:100D9300B384011207E1CE85011207E13686011201
:100DA30007E16B86011207E1DF87011207E1628A1F
:100DB300011207E18B8B011207E1218C011207E17C
:100DC3002995011207E1BE95011207E1A5980112C9
:100DD30007E19899011207E1069A011207E14C9B7A
:100DE300011207E12E9C011207E1139E011207E194
:100DF30024A0011207E18EA0011207E160A10112F4
:100E030007E18EA1011207E14BA2011207E122A320
:100E1300011207E1E9A3011207E18DA4011207E121
:100E2300B6A4011207E1D8A4011207E12EA701120B
:100E330007E106A8011207E14AA8011207E1B2A8D7
:100E4300011207E16AA9011207E19CA9011207E156
:100E5300E0A9011207E116AA011207E162AA011231
:100E630007E1B7AA011207E1BCAA011207E10FAB20
:100E7300011207E134AB011207E143AC011207E1B0
:100E8300A7AC011207E117AD011207E1A3AD0112EF
:100E930007E170B0011207E154B1011207E1D7B2C3
:100EA300011207E10DB5011207E1BBB5011207E11C
:100EB3006BB6011207E1ACB8011207E14FB9011299
:100EC30007E196B9011207E142BB011207E156BBE4
:100ED300011207E160BB011207E188BB011207E1C0
:100EE30094BB011207E1B3BB011207E1D3BD0112A9
:100EF30007E122BF011207E166BF011207E10EC03D
:100F0300011207E1F1C0011207E19CC1011207E1DF
:100F1300E8C2011207E1E6C3011207E18CC4011222
:100F230007E11CC5011207E133C5011207E16AC5D8
:100F3300011207E174C5011207E17FC5011207E140
:100F43009DC5011207E1E1C5011207E13EC6011289
:100F530007E163C6011207E17DC6011207E109C774
:100F6300011207E126C8011207E193C8011207E144
:100F73007AC9011207E1A1C9011207E115CA0112D9
:100F830007E190CA011207E194CB011207E18ACC71
:100F9300011207E139CD011207E14CCE011207E13D
:100FA300E8CE011207E175CF011207E153D0011218
:100FB30007E18BD0011207E1E3D0011207E1ACD1C5
:100FC300011207E1CDD1011207E154D2011207E169
:100FD30078D2011207E19AD2011207E1E3D201129A
:100FE30007E1F9D4011207E1E0D5011207E191D637
:100FF300011207E1C7D8011207E117D9011207E16E
:1010030057D9011207E199D9011207E1F5D9011264
:1010130007E123DA011207E147DA011207E19ADA5D
:10102300011207E1C8DA011207E101DB011207E14E
:1010330056DB011207E1BCDB011207E110DD0112EF
:1010430007E133DF011207E1A0DF011207E1C9DF86
:10105300011207E154E0011207E1BBE0011207E1CD
:1010630006E1011207E12AE1011207E14EE1011253
:1010730007E1A9E1011207E1C4E1011207E17DE201
:10108300011207E16EF4031207E1ADF4031207E165
:101093007880021207E1BE80021207E19E810212EC
:1010A30007E1A082021207E1A383021207E12F8561
:1010B300021207E18D85021207E14A86021207E157
:1010C3006887021207E1D987021207E11588021225
:1010D30007E16388021207E16D88021207E1B18814
:1010E300021207E10D89021207E1A889021207E142
:1010F300258A021207E1F48A021207E18D8B02129C
:1011030007E1AD8B021207E1E38B021207E1148CB6
:10111300021207E1D58C021207E1E58C021207E106
:10112300398D021207E1548D021207E1668D021216
:1011330007E16F8D021207E1C98D021207E1258EC7
:10114300021207E1718E021207E18C8E021207E18F
:10115300BD8E021207E1DA8E021207E1E68E021259
:1011630007E15A90021207E17390021207E1DA9045
:10117300021207E1ED90021207E1FB90021207E170
:10118300AF91021207E19392021207E199930212BF
:1011930007E12394021207E12D94021207E19A94C6
:1011A300021207E1B194021207E1E394021207E18C
:1011B3001C95021207E14695021207E1A795021258
:1011C30007E1C795021207E1E595021207E12B96A5
:1011D300021207E15197021207E19E97021207E1FB
:1011E300CD97021207E14398021207E16B980212AE
:1011F30007E1A498021207E1B298021207E10A99E3
:10120300021207E15999021207E19899021207E1C4
:10121300C899021207E1F499021207E1FF99021239
:1012230007E11D9A021207E1DF9A021207E1E99A28
:10123300021207E12A9B021207E17F9B021207E1D8
:10124300939B021207E1A19C021207E1B49C0212D4
:1012530007E1C99C021207E16B9D021207E1EE9DB3
:10126300021207E1AC9E021207E1B79E021207E1E8
:10127300E39F021207E1FF9F021207E151A002124E
:1012830007E190A0021207E1A5A0021207E107A15E
:10129300021207E196A1021207E1E1A1021207E19E
:1012A30032A4021207E1B0A4021207E125A502123B
:1012B30007E147A7021207E15FA7021207E162A74E
:1012C300021207E16EA7021207E182A7021207E1E9
:1012D3008AA7021207E1BDA7021207E16DA8021255
:1012E30007E1E3A8021207E156A9021207E10AAADD
:1012F300021207E1BFAA021207E1DEAA021207E106
:1013030084AB021207E1AFAB021207E1B2AB0212E8
:1013130007E11CAC021207E144AD021207E11CAE67
:10132300021207E1A7AE021207E1C0AF021207E102
:101333007DB0021207E1B6B0021207E1E7B0021274
:1013430007E1A5B1021207E1D5B1021207E1B0B27C
:10135300021207E149B3021207E1D4B3021207E113
:1013630085B4021207E108B5021207E13AB5021289
:1013730007E17BB5021207E1A0F4021207E105F5CC
:10138300021207E142F5021207E191F5021207E1A9
:10139300A7F7021207E18AF9021207E1F4FC02122D
:1013A30007E12FFD021207E151FD021207E1B4FD2F
:1013B300021207E1E8FD021207E10BFE021207E148
:1013C30038FE021207E194FE021207E1278D031291
:1013D30007E1A58D031207E1DB8D031207E1478EB9
:1013E300031207E1BA8F031207E1D68F031207E155
:1013F3001B90031207E1BDD7021207E1029103120A
:1014030007E12F92031207E14193031207E19E9331
:10141300031207E10A94031207E16B94031207E135
:10142300AC94031207E15995031207E16B9603127B
:1014330007E19696031207E1E196031207E1289765
:10144300031207E1BA97031207E17598031207E144
:1014530031C0031207E1A9E2021207E1B7C0031288
:1014630007E1CCC1031207E1CDC3031207E18BC42B
:10147300031207E130A0031207E17CA0031207E186
:10148300EAA0031207E10BA1031207E1BBA10312B8
:1014930007E1C4A1031207E117A2031207E140A267
:1014A300031207E1A7A2031207E138A3031207E11E
:1014B3007AA3031207E1C4A3031207E123A40312CF
:1014C30007E14FA4031207E1E0A4031207E11FA5FC
:1014D300031207E15EA5031207E193A5031207E1D7
:1014E300A5A5031207E1B7A5031207E1D6A50312C9
:1014F30007E1DFA5031207E195A6031207E1D5A6CD
:10150300031207E1CBF0031207E16AE4031207E1D8
:10151300A0E4031207E1E9E4031207E139E6031249
:1015230007E1B7E2011207E1F6E3011207E132E452
:10153300011207E1F1E5011207E11AE6011207E1E1
:10154300ADE8011207E1F1E8011207E17AEA0112BD
:1015530007E112EB011207E17AEB011207E11BEC41
:10156300011207E15DEC011207E19DEC011207E1B5
:1015730028EE011207E198EF011207E1BDF1011214
:1015830007E1EBF1011207E112F2011207E11BF28D
:10159300011207E1A2F2011207E1C0F5011207E10E
:1015A300E0FF011207E1F6FF011207E123F4031242
:1015B30007E1C4D6031207E1D7D6031207E174D7B4
:1015C300031207E1AFD7031207E1CAD7031207E1FA
:1015D300EFD7031207E134D8031207E165D80312EA
:1015E30007E196D8031207E11CDA031207E19EF123
:1015F300031207E1D4F1031207E1F0F1031207E14B
:1016030032F2031207E142F2031207E1FEA60312CC
:1016130007E1E3A7031207E135A9031207E151A983
:10162300031207E1C0AA031207E154AB031207E157
:10163300C1AB031207E18FAC031207E129DA0312EE
:1016430007E173DA031207E1A7DA031207E10CDB00
:10165300031207E13BDB031207E1FEDB031207E1A1
:101663000080031207E15580031207E13E81031254
:1016730007E1D781031207E12182031207E17E828A
:10168300031207E19282031207E1C482031207E106
:10169300C283031207E10684031207E121840312C4
:1016A30007E17084031207E18684031207E1938440
:1016B300031207E1C784031207E1E084031207E181
:1016C300AA85031207E10486031207E15286031277
:1016D30007E17486031207E1EB88031207E120890F
:1016E300031207E1B089031207E1258A031207E118
:1016F3002A8A031207E1668A031207E1BC8A0312EE
:1017030007E1808B031207E1A58B031207E1AF8B7F
:10171300031207E1B28B031207E13B8C031207E1CB
:10172300568C031207E1698C031207E1A48C0312A0
:1017330007E1A78C031207E1B28C031207E1EE8CD9
:10174300031207E1D6F3031207E1EEF3031207E1F5
:10175300EC98031207E13B99031207E1DD9A0312A8
:1017630007E1999C031207E1E19C031207E1C99D7C
:10177300031207E1FA9E031207E11C9F031207E11C
:10178300789F031207E1FC9F031207E1046500122F
:1017930007E12565001207E1A265001207E127664C
:1017A300001207E1A366001207E10C67001207E1CC
:1017B3005867001207E1D767001207E16968001252
:1017C30007E1F568001207E13769001207E1806D50
:1017D300001207E1006F001207E1D66F001207E164
:1017E3000570001207E1F071001207E17074001236
:1017F30007E12975001207E14676001207E19D799A
:10180300001207E1AD79001207E10E7B001207E138
:101813009A7B001207E1C37C001207E1B47D00123A
:1018230007E1367E001207E125E6021207E1DFE653
:10183300021207E151E7021207E1EDE7021207E1A5
:101843005DE8021207E116EB021207E1EDEB02126B
:1018530007E15AEC021207E1D7ED021207E1A1EE0C
:10186300021207E111EF021207E1DAF0021207E1B7
:10187300EDF1021207E186F2021207E14CF30212C4
:1018830007E19BC8031207E1EFC8031207E147C949
:10189300031207E192C9031207E1F4C9031207E136
:1018A30060CA031207E113CB031207E154CB0312FF
:1018B30007E16ACB031207E1C6CB031207E104CCAD
:1018C300031207E1A7E8031207E1D8E8031207E1CF
:1018D30092E9031207E1F8E9031207E11BE7031298
:1018E30007E164F5031207E175F5031207E181EAE5
:1018F300031207E18FEA031207E1ECFF021207E18B
:10190300ECF2031207E1FCF2031207E11AF30312EC
:1019130007E17BF3031207E1CDEE031207E152EF78
:10192300031207E1B6EF031207E1CFEF031207E15A
:10193300F1EF031207E15BF0031207E166F0031214
:1019430007E1B1F0031207E1BFCF031207E1D5CFDF
:10195300031207E1FECF031207E119D0031207E1D7
:1019630034D0031207E13ED0031207E148D003123B
:1019730007E15BD0031207E174D0031207E11BD127
:10198300031207E19AD1031207E135CC031207E1F1
:1019930043CC031207E1BDCC031207E1A1CD03122F
:1019A30007E15ACF031207E18FF5031207E10EADEA
:1019B300031207E17AAD031207E139AE031207E11F
:1019C30043AF031207E19CB0031207E1F7B0031220
:1019D30007E14CB1031207E155B1031207E167B107
:1019E300031207E1D1B1031207E1E5B1031207E1E5
:1019F300EFB1031207E1C0B6031207E115B70312F3
:101A030007E111B9031207E143B9031207E165B90D
:101A1300031207E17EB9031207E197B9031207E145
:101A2300A1BA031207E13CBB031207E139EC03122D
:101A330007E15DEC031207E176EC031207E1A9EC81
:101A4300031207E1DAEC031207E108ED031207E1E1
:101A53006AED031207E179ED031207E183ED031247
:101A630007E190ED031207E117DD031207E13DDD06
:101A7300031207E17ADD031207E189DD031207E1AF
:101A8300A8DD031207E110DE031207E119DE0312DA
:101A930007E178DE031207E19CDE031207E15BDF57
:101AA300031207E168DF031207E179DF031207E19D
:101AB300FBF4031207E118F5031207E1B3BB0312AA
:101AC30007E111BD031207E11EBD031207E131BD9A
:101AD300031207E150BD031207E166BD031207E1DC
:101AE3007ABD031207E1EFBD031207E154BE0312EF
:101AF30007E104BF031207E1D9BF031207E1E9BFFE
:101B0300031207E1F8BF031207E153F2031207E1DF
:101B130077F2031207E19FF2031207E1C7F2031200
:101B230007E1A7DF031207E1CEDF031207E1EFDFCF
:101B3300031207E154E0031207E10DE2031207E188
:101B430026E2031207E132E2031207E146E203123F
:101B530007E164E2031207E16EE2031207E178E2B0
:101B6300031207E18BE2031207E1DEE2031207E14E
:101B730017E3031207E146E3031207E194E30312B9
:101B830007E1E3E3031207E1FEE3031207E108E4DD
:101B9300031207E119E4031207E15FE4031207E10B
:101BA30085F3031207E141F6011207E16BF6011217
:101BB30007E187F6011207E19AF6011207E1B0F691
:101BC300011207E10DF7011207E140F7011207E1E6
:101BD3007CFB011207E1A2FC011207E1D5FC011213
:101BE30007E121FD011207E14DFE011207E175FE38
:101BF300011207E18AFE011207E19AFE011207E1D1
:101C0300DEFE011207E13FFF011207E14FFF011260
:101C130007E19AED031207E1B5ED031207E1DEEDEB
:101C2300031207E1F8ED031207E11DEE031207E1CA
:101C33003CEE031207E154EE031207E182EE0312B6
:101C430007E19CEE031207E1B7F4031207E144D363
:101C5300031207E14BD3031207E157D4031207E141
:101C630087D4031207E1ADD4031207E1D0D40312E2
:101C730007E1F2D4031207E12CD5031207E192D551
:101C8300031207E1CBD5031207E117D6031207E1CD
:101C930044D6031207E164D6031207E1E0FE021201
:101CA30007E1F8FE021207E1E6FF021207E1E9FF8E
:101CB300021207E1CE7E001207E1407F001207E126
:101CC3007E7F001207E1BF7F001207E1DAC403122F
:101CD30007E1F9C4031207E148C5031207E164C52C
:101CE300031207E195C5031207E1A2C5031207E139
:101CF300AFC5031207E19BC6031207E1D9C603125E
:101D030007E1E9C7031207E1F4C7031207E106C8B5
:101D1300031207E10FC8031207E119C8031207E111
:101D230003B2031207E148B6031207E156B60312E2
:101D330007E137F5031207E1E17F001207E17DFFB9
:101D4300011207E186D6021207E1DAD5021207E192
:101D530020D4021207E1D0D1021207E157D10212B7
:101D630007E1FED0021207E18ED0021207E165D02F
:101D7300021207E145CE021207E111CE021207E17A
:101D8300DECD021207E1C2CD021207E1DBCC021263
:101D930007E193CC021207E1DECA021207E15ECA31
:101DA300021207E15BCA021207E158C9021207E1F6
:101DB30026C9021207E163C8021207E18EC60212A6
:101DC30007E11FC6021207E154E0021207E172DFC6
:101DD300021207E156DF021207E1F6DE021207E103
:101DE300AEDE021207E1F1C5021207E1EEC50212EF
:101DF30007E1DBC5021207E1FCDD021207E186C53C
:101E0300021207E175C5021207E167C4021207E176
:101E130031C4021207E1DFC3021207E16EDD0212D1
:101E230007E161DD021207E1A4C0031207E180C3E9
:101E3300021207E14FC3021207E117C0021207E1C2
:101E4300D7BF021207E1CBBF021207E12BBF021279
:101E530007E16BBE021207E1EDBB021207E17EB997
:101E6300021207E13CB9021207E110B8021207E1BE
:101E7300C5B7021207E104B7021207E1D7B602128F
:101E830007E11AB6021207E1B0B5021207E1EAB59B
:101E9300021207E15BDA021207E1A99003000000D6
:101EA30080FBE473000136360101000102010001E9
:101EB30003010001040106060502000007010034C6
:101EC3000801000F090401010D0100FF0E080000C5
:101ED30017020000190100FF1A0100011B0100FE97
:101EE3001C0100081D0200001F0100012001000168
:101EF300210200002301000F24020000260100013B
:101F030027010008280200FF2A0100072B010240D5
:101F13002C0100002D0100012E0100012F0100FF03
:101F230030010B1C310800003A0100083B01000F8F
:101F33002F010000030271023001600211027002DE
:101F43000102020202028002100261023A00410011
:101F53006302730272026202430200021302380038
:101F63000002000204021202000200020002000248
:101F730004020402370037003C0244020002390025
:101F8300000200026502000235028102000205021E
:101F9300820283020002030071003001600011001D
:101FA3007000310220035004800010006100000023
:101FB300140063007300720062004300000013000A
:101FC30006000000000004001200000000000000F2
:101FD300000004000400370037003C024400000006
:101FE30000000000000065000000350081000000D3
:101FF3000500000083000000030471040204600470
:1020030011047004020402040104020410046104B4
:10201300000414046304730472046204430400049C
:10202300130406040004000404041204000400045E
:102033000004000451046400000400040004440488
:102043000004000400040004650400043504810452
:102053006400050400048304000401037103010305
:10206300010301030103010322030203010310031C
:102073000003000300030003000300030003420303
:1020830000032403060300030003040312032503D0
:1020930023032503230304030403000300030003B2
:1020A30044030003000323030003650321003503F6
:1020B3008103000305030003000300030101710111
:1020C300010101011101010131010101010180013E
:1020D300100161013B00140063017301720162018D
:1020E30043010001130106013D0135000401120102
:1020F3000001000100010001040104013301330167
:102103003C01440132013600000100016501000178
:1021130035008101000105018201830100013600C0
:102123000100060000000F00000000000000000096
:102133000000000003FFFF00000403FFFF0000FF97
:10214300FF0FF4010005C4040320000100030B008A
:102153000000000000000003010F000040181300FE
:10216300E017010040180200AA170300B01704008B
:10217300B6170500BC170600C817FFFF000001C60D
:102183000D06F60D08F00D0B020E10420D02CC0DDC
:1021930005E40D07D20D0CA80D0DBA0DFF000003C9
:1021A300EAF5E5D5D5C5B5A59595858575756565B7
:1021B3005555454535352525151505CE11FE11D443
:1021C30011DA11F811EC11E61104120A1210121CA3
:1021D30012E011C811C21100160F00000B150B02FB
:1021E3000002220F32000006B812CA12D012981150
:1021F300D61292119E11D210CC1008110E11021199
:10220300BA10121330133613181324131E1330305D
:1022130016181920231A1C1E300C0E020B040B0A6D
:102223000708000F00383C3E363B3B352B432C3030
:102233003017181921301B1D1F30000119161816ED
:10224300161523030000034948424D1817250502BC
:102253000613DC12E212EE12E812F21116122A131E
:1022630022122812020402010101010902DE10E414
:1022730010D8101411000000000000EA10FC100038
:10228300BE040A0E00150004007F00E8030C0028BA
:1022930000000000000308100C0A030809000400F2
:1022A30001FF1E1E0C05040F1008C082C0838A8222
:1022B3008B83E0D2E7F012170E023424C082C0836E
:1022C3007900122779125490C082C083900334128C
:1022D3004216D083D082C3E09CA3E09D500C125BD6
:1022E30064FAA3E01222F0600109023424FBEA75C8
:1022F300F00BA4FAA8F075F00BEBA428FB900336BF
:10230300E02AF8A3E03B8882F583E0540F2274F7B8
:10231300120360890812277912281FACF075F00B9D
:10232300E9A42CF9900336E028FEA3E039FF7401F9
:10233300650860067402650870208A828B83122800
:102343000B1234F274026508701B1226CA1228524B
:1023530070138E828F83E4F0800BEA2403FCEB126C
:1023630027ED1227F9EEFAEFFB120AD202345C745E
:10237300F412036012648B79008E828F83E060769F
:10238300890A890B8065E50A75F00BA4FAA8F07534
:10239300F00BE50B1222FD7046E50A75F00BA4F86D
:1023A300AAF075F00BE50B1228318E828F83E0853E
:1023B3000882850983122913850882850983A3125C
:1023C30034F2EE2403FCEF1227F612342B124F0AD9
:1023D300AA08AB09120AD2790190033412491FE506
:1023E3000A2401F50AE50B3400F50B1226D2E50A9F
:1023F3009AE50B9B409002369C74F5120360EAFE4B
:10240300EBFF740B120AA7123430750A01EC4D600E
:102413002BEC1264A7ED1254901234EA7901120ADC
:10242300DEE5084509606F850882850983A3126488
:10243300957902AA08AB09120ADE805AE508450914
:10244300602B125494123B5E12342C12283C700CF5
:10245300EEFAEFFB120AE4E9F50A80CBEE2403FA65
:1024630012277470317903EEFAEFFB80CA8E828FE4
:1024730083A3E064FE7003A3E0F4700BEE24030A6D
:102483000A0A122774700CEEFAEFFB120AE4E9F55C
:102493000A8003750A00A90A7F0302057974F712FB
:1024A300036090033412346CEA4B602FEA75F00B2F
:1024B300A4FAA8F075F00BEBA428FBEAFEEBFF12DD
:1024C300151690033612346C90033612476460126B
:1024D300EEFCEFFD79001214808007900336E4F0E0
:1024E300A3F002345C900334123ECEC3EE98EF990E
:1024F30022C082C083EC4D6005121CC680097C0893
:102503007D00790012148002342474F6120360797A
:1025130000EA4B6018780088081257D7EB125B600B
:1025230060047901780808E8C3940840EA0234FBA0
:1025330074F712036074F31208C2ECFEEDFF851802
:1025430082851983E4F004120AA7EAF0A3EB124C84
:10255300907403120AA7AC82AD83EEFAEFFB120A62
:10256300F6EEFAEFFB120AFC02345774F71203601B
:1025730074F31208C2ECFEEDFF851882851983E41B
:10258300F0EAFCEBFD7403120AA712290C74011282
:102593000AA71234E68E828F831234F274FE6870B7
:1025A3000374FF696004790180027900023457746F
:1025B300F7120360EAFEEBFF122610701412261BBB
:1025C3008E828F83E0F4F88A828B83E058F0120ABC
:1025D300D2A90802345C74F7120360EAFEEBFF75BC
:1025E30008008E828F83E06022122610701D12264F
:1025F3001B8A828B83E08F838E82F8E058700CE015
:10260300F88A828B83E048F0120AD280C4120AD877
:10261300E9F50874016508221264A0122823122721
:1026230065FAA3E039FB2274F41203608A088B096C
:102633007C007D001226CA1227F912278A1264929F
:102643007900850882850983A3E064FE7003A3E013
:10265300F460717E007F008062EEFAEF1222F06078
:1026630057EEFAEFFBEA75F00BA4FAA8F075F00B3E
:10267300EBA428FB900336E02AF50AA3E03BF50B15
:10268300850882850983A3124BDE850A82850B8325
:10269300A3E06A7003A3E06B701EE50A2403FAE566
:1026A3000B122775700AE50A2403FCE50B1227F6C3
:1026B30012277E79011254A61230691226D2EE9A9D
:1026C300EF9B409502369CEA24030A0A0AEB229008
:1026D300033412507DC32274F31203608A088B09FA
:1026E3008A828B83A3126495122779126492750CE4
:1026F300001226CA12277570547E007F008049128B
:102703002757FAA3E0398A82F583E0540F60361223
:102713002757F50AA3E039F50BE50A2403FCE50B7B
:102723001228003400FB121CC0E964017017850AEB
:1027330082850B83A312513EA31234F212277E75B6
:102743000C011254A61230691224E840B2A90C7F7E
:1027530005020579EEF8EFF9E875F00BA4F81227F6
:102763006522AAF075F00BE9A42AF9900336E02854
:1027730022EF12284C221264A6EB2212278A12544B
:10278300A1EEF0A3EFF022E5081264A7E509227495
:10279300F5120360EAFEEBFF8E828F83A31264952A
:1027A3007C007D00EE24030A0A0AEF1227F9EEFAF1
:1027B300EFFB120AD8E9F50A7401650A702912645D
:1027C300A012281FAAF075F00BE9122831850882A0
:1027D300F58312280B12283C700DE5082403FCE551
:1027E300091227ED1227F90224993400FDEE240380
:1027F300FAEF221228003400FB120AF6223400FDFD
:10280300E5082403FAE50922A3122810221228144A
:1028130022E0F8A3E0F98E828F83A32212282322D9
:102823003400F583123ED2E875F00BA4F822122788
:102833006BF508A3E039F50922E8F0A3E9F0E50810
:102843002403FAE50912284C221228526401223487
:1028530000FB120AFCE92274F312036074E6120807
:10286300C212648B750C01750800750900750A00A6
:10287300750B00851882851983E4F0EE2403FCEFC1
:102883003400FD7403120AA712290CE964017023B2
:10289300740B120AA71234EA7401120AA7124BE24C
:1028A3007003A3E0696051851882851983858208C6
:1028B300858309740D120AA7E4122913740E120AF0
:1028C300A71234F2740D120AA7AA82AB83120B1A51
:1028D300E96401700B740D120AA785820A85830BC4
:1028E300780A1207FEAC08AD09EEFAEFFB120AEA0A
:1028F3007402120846E9F50CEEFAEFFB120B14A969
:102903000C741A120846022752122BDF120B2022D4
:10291300123467123ECE22C082C0837800790080D1
:1029230003122A0A1226D2E89AE99B5029E8FAE907
:10293300FBEA75F00BA4FAACF075F00BEBA42CFBDF
:10294300900336E02AFCA3E03B8C82F583E0540F2E
:1029530070CF790080027901023424C082C0839051
:102963002288123F24EC75F012A4FCA8F075F01233
:10297300EDA428FD79FF7A317B0B121480023424F5
:1029830074F7120360E9FEEAFF7A007B00780079AE
:10299300008028E8FCE9FDEC75F012A4FC85F00842
:1029A30075F012EDA42508122E1FC39E400AE0FC09
:1029B300EFC39C4003122F3E122A0A122E1340D358
:1029C30002345CC082C083780079008003122A0A33
:1029D3001229FE501F122E23F470F2E875F012A490
:1029E300F8AAF075F012E9A42AF9743128FA740BE5
:1029F30039FB80047A007B00023424902288122E53
:102A0300D4C3E89AE99B22E8240108E93400F922B7
:102A130074F012036074F31208C28A0A8B0B8C0CD5
:102A23008D0D8908EC450D6016AA0CAB0D120B6ECB
:102A33008A0E8B0FAE0EAF0FEE4F6003022AD11238
:102A43000B448A0E8B0FA80EA90FE8FEE9FFE84995
:102A5300607C902296122B33602274036508600613
:102A63007404650870167A047903120B3E9022965B
:102A7300122B4A40077A007B00022B3090229412DB
:102A83002B33601B74016508600674026508700FC0
:102A93007A027901120B3E902294122B4A50D6856A
:102AA30018828519837401F0120AA7124F0AAC0C1D
:102AB300AD0D7403120AA7122BD8740B120AA712B6
:102AC30034381238D2E4124EF21210128004EE4F50
:102AD300604A780074FF2508C39404500278048E7A
:102AE300828F83124F0A8E828F83A3A3A3A3E50849
:102AF300F0E88E828F83A3A3A3A3A3124F12120223
:102B03000F122EEB8E828F83A3A3A3A3A3A3A3F001
:102B1300122EE2120A8412548A120A90122B38409F
:102B23000590108DE4F0120EECEEFAEFFB023ED8A6
:102B330012502C49227A047900120B3E90228812FB
:102B43005B46EA98EB9922122B6375832275828880
:102B5300E493C398F8A3E49399F9C3EA98EB992211
:102B6300E493F8740193F92274F212036074F3127C
:102B730008C28A088B09ECFEEDFF750A00EEFAEF36
:102B8300FB120B6E8A0C8B0DA80CA90DE849603E55
:102B930088828983E065087004A3E06509602F8853
:102BA300828983A3A3A3A3E0C394055021125338BE
:102BB3008518828519837401F0120AA712533CEE1B
:102BC300FCEFFD7403120AA7122BD8750A01A90A98
:102BD300740D0249D6122BDF120B2C22AA82AB836F
:102BE300120AF6851882851983AA82AB832274F6AA
:102BF300120360122C2D600FA3A3A3A3E014C394AC
:102C03000450047901800279000234FB74F6120344
:102C130060122C2D600FA3A3A3A3E014C39402504E
:102C2300047901800279000234FB120B688A828BDB
:102C330083E58245832274F6120360122C2D600B08
:102C4300A3A3A3A3E070047901800279000234FBFB
:102C5300C082C083EAFCEBFD7A007B00023421C012
:102C630082C0837C007D0002342174F412036074FB
:102C7300F31208C2EAFEEBFF8C0A8D0BC3EC94F847
:102C8300ED94FF4007EE4F7003022D267508007583
:102C93000900802E8518828519837401F012309102
:102CA300120AA712309F60137403120AA7AC82ADF5
:102CB30083EEFAEFFB121CC0E97049E50824011208
:102CC3002EBF902288E4125034E50898E509995004
:102CD30052E50875F012A4F8AAF075F012E509A4FC
:102CE3002AF9125B7960D4EE4F70A974FF650A70FC
:102CF3000474FF650B60C4123081650A7004A3E09D
:102D0300650B70B7E50875F012A4F508A8F075F027
:102D130012E509A428F50974312508FA740B35095D
:102D2300FB80047A007B0002369774F4120360740C
:102D3300F31208C2750800120B6E8A0A8B0BAE0AD7
:102D4300AF0BEE4F602A8518828519837401123404
:102D530061F8A3E0F9740B120AA7123575120B0E72
:102D63007C127D0079FFEEFAEFFB121480750801E7
:102D7300122B38500990108D7401F0120EECA90833
:102D830002369774F7120360E9FE74FE6A700374E7
:102D9300FF6B7800790070058052122A0A122E13F5
:102DA300504AE8FCE9FDEC75F012A4FCAFF075F0B5
:102DB30012EDA42F122E1FF460E0E8FCE9FDEC7580
:102DC300F012A4FC75F012EDA42FFD74312CF582E2
:102DD300740B3DF583E06A7003A3E06B70BC80095C
:102DE300122E2314C394044017122A0A1229FE50E8
:102DF30018EE70EC122E2364016005E0640370E9A1
:102E0300123072FAA3E0FB80047AFE7BFF02345C8B
:102E1300902288123F28C3E89CE99D22122F732237
:102E2300E8FAE9FBEA75F012A4FAACF075F012EBDC
:102E3300A42CFB74352AF582740B3BF583E0221234
:102E43000B80023424C082C083790180F274F012B3
:102E530003608A0A8B0B7A047901120B3E8A0C8B6E
:102E63000DEA450D603EEAC333FAEB33FB12151648
:102E73008A088B09AE08AF09EE4F60237AFE7BFF09
:102E8300120B8674FE6A700374FF6B601B850882E5
:102E930085098312346CE5082402122EBF80E17584
:102EA3000C0080047E007F00850A82850B83E50C7D
:102EB300F0EEFAEFFB023EDDE5082407F508E5092D
:102EC3003400F50922902288123F28C3EA9CEB9D27
:102ED30022E493FA740193FB2212147474032212F2
:102EE300549BE4F09081B622E88E828F83A3A3A340
:102EF300A3A3A3A3A3122F0D7401122F0DA3F0EE0E
:102F0300241012549EE4F0A3F0221238DEA3A3A3EC
:102F130022C082C0837A007B00800419122F3E12E4
:102F23002EC85010122F5DC3940550F0E970EC12B7
:102F33002F4780047A007B00023424EA24010AEB41
:102F43003400FB22EA75F012A4FA75F012EBA42800
:102F5300FB74312AFA740B3BFB22EAFCEBFDEC75A4
:102F6300F012A4FCA8F075F012EDA428122F73221E
:102F7300FD74352CF582740B3DF583E02274F71252
:102F8300036074F31208C27E007F00023025E50857
:102F930075F017A4F8A9F0125DDAFAA3E0FBEEF8D6
:102FA300EFF9E875F012A4F8ACF075F012E9A42C6F
:102FB3001230806A7003A3E06B603FE50875F01779
:102FC300A4F8AAF0EA125DD9F8A3E0F97401120A91
:102FD300A7E0687003A3E0696020E50875F017A413
:102FE300F8EAF974AD28FC740C39FD7403120AA7CE
:102FF300AA82AB83121CC0E96014E50875F017A41C
:10300300F8A9F074AB28FA740C39FB12101E0508EA
:1030130090229AE493F8E508C3985003022F911283
:1030230030699022881261205039EEF8EFF912309E
:1030330072F47003A3E0F460E68518828519837443
:1030430001F0EEF8EFF9E875F012A4F875F012E963
:10305300A42AF9123091120AA712309F60C1750891
:103063000080AD023457EE24010EEF3400FF22E856
:1030730075F012A4F8AAF075F012E9A42AF9123037
:103083008522743128F582740B39F583E022743379
:1030930028F582740B39123ECC740B22E8F0A3E9B5
:1030A30012357D120B26E922C082C08390033D7442
:1030B300DEF0A3740DF090033F74D8F0A3740DF009
:1030C30090034374F8F0A3740BF002342474F712E2
:1030D3000360EAFEEBFF900377E06408601BE064A3
:1030E3000460168E828F83E05403640170481234A7
:1030F3002B1239D3E06406703D8E828F83A3A3E045
:1031030064FE7003A3E0F4602D8E828F83A3A31269
:1031130034E6900368E0687003A3E069700BEE2463
:1031230015F582EF125B606008120E8CE9F50880DA
:1031330008120E9280F67508C2EEFAEFFB12151C08
:103143000225D474F41203608A088B098A828B8364
:10315300E0F8A3E0FAE82AFAE43400FB1215168A31
:103163000A8B0BAE0AAF0BEE4F60638508828509AD
:1031730083E0FC7D0079001214808E828F83A3A3E9
:10318300126495120ECE8E828F83A3A3A3A312344F
:103193006C850882850983E0F8EE28F8EF34001285
:1031A30034EE850882850983A3E0C0E0EE240D1286
:1031B300548DD0E0F0120EE0EE240E12548DE9127D
:1031C3004B3FE0C0E0EE241112548DD0E0F0EEFA54
:1031D300EFFB02369C74F612036074EB1208C2EA2A
:1031E300FEEBFF124761600302327C7A077B001219
:1031F300151690033912346C12476160788E828FF2
:1032030083120A8490033A1239D6120A9012635930
:10321300C0E0123288D0E0F0EE2405FAEF3400FB70
:103223008A088B098A82F583E0C0E0123283D0E0FA
:10323300123693E0C0E0123283A3D0E01234D812E6
:103243000A84851882851983120A9088828983E00B
:10325300C0E07405120AA7D0E0F0850882850983CF
:10326300E0C0E07404120AA7D0E0F07407120AA7C2
:103273001233BE800679108002790174150234F886
:10328300123288A322900339E0FAA3E0F5838A82FD
:10329300A3A3A3A322C082C083124761600D90033E
:1032A3003912506B900339E4F0A3F0120DFC120FA6
:1032B300BE02342474F012036074EB1208C2ECFEF5
:1032C300EDFF89087425120AA7780C120A5B74298A
:1032D300120AA7E0F9742A120AA7E0FC742B120A57
:1032E300A7E0FD740F697005740F6C60129010D223
:1032F300E06402700579C10233B9E9C39C40F690DA
:103303000378780C120A4CE50890037EF0E99003E9
:103313007CF0ECA3F0ED90037FF074FF6A7003740C
:10332300FF6B701D9010DDE0F47003A3E0F47005F3
:1033330012148C800C9010DD123441E8F0A3E98064
:1033430007900375EAF0A3EBF0EE4F6017EEFAEF88
:10335300FB12107EE96401700BEEFCEFFD7A897BB2
:1033630003121CC6900368E4F0A3F090036BF0A370
:10337300F0900388F09010D2E06402700890037C10
:10338300740FF0A3F09003777405F014120AA7E406
:10339300F0900378120A84851882851983120A90A3
:1033A30090037EE0C0E07405120AA7D0E0F0740732
:1033B300120AA71233BE7415023EDAE412357D12E7
:1033C3001CF022C082C083900338E070031217DA26
:1033D300120BC8804CC082C083900338E090108CDD
:1033E3007004E4F0802D7401F0900338E0F460235E
:1033F3007C41E0C394415002E0FCECF8E0C398F058
:10340300EC75F0E8A4CCA8F075F003A428FD7A804D
:10341300123F307A8C7B107941121CDE8003120B31
:1034230074D083D0820207DEEE12549C22E0F508AA
:10343300A3E0F5092212343C22122814A322123EDF
:10344300CE9003752274F7120360EB90037FF012A2
:103453000DEA8005740D1208467F010205791234C6
:1034630067A3E0221234D8A322EAF0A3EBF022747C
:10347300F712036074F81208C2EAFEEBFF790090BA
:103483000377E06408704485188285198374FDF01E
:10349300A374FFF0120EC87402120AA712346C74DC
:1034A30005120AA7E4123467E0C0E07404120AA705
:1034B300D0E01234D3C0E07406120AA7D0E0F0744F
:1034C30007120AA7E4123579120F0A740802345955
:1034D3001234D8E022F08E828F8322F08518828501
:1034E300198322123ECE22E0F8A3E0F912549BE89E
:1034F300F0A3E9F0221208467F02020579C082C0D8
:10350300839003497488F0A3740CF09003EF746400
:10351300F0A3740FF090034D74BEF0A3740CF090FD
:10352300034F7488F0A3740CF090035174C4F0A398
:10353300740CF002342474F412036074F91208C298
:103543008A088B098C0A8D0B851882851983780864
:10355300120A4C7404120AA7E9F07405120AA7E4CC
:10356300F07406120AA7E4123579120BB07407023D
:103573003699E8F0A3E912357D221234DEAA82AB34
:10358300832274F41203608A088B098A828B831264
:1035930054A9EE4F700302369190031212476460F0
:1035A300158A828B83A3A3E0F9EEFAEFFB90031352
:1035B3001239D6121EA58E828F83A3A3A3A3A3A31E
:1035C300A3A3A3E0640270748E828F83A3A3A3A337
:1035D300A3A3E0540270030236638508828509833E
:1035E300A3A3E064E960798E828F83A3A3A3A3A33B
:1035F300A3A3A3A3A3E070149010D5E0048E828F3D
:1036030083A3A3A3A3A3A3A3A3A3A3F08E828F83C4
:10361300A3A3A3A3A3A3A3A3A3A3E014123693A3D7
:10362300A3A37404F09010D6124EE4E8F0A3E912B9
:103633005FBD8B0BEA450B700312599B8E828F8300
:10364300A3A3A3A3A3A3A3A3A3E0640260128E82F4
:103653008F83A3A3A3A3A3A3A3A3A3E06406702EB2
:103663008E828F83A3A3A3A3A3A3E0A2E0501F850D
:103673000882850983A3A3E0F9EEFAEFFB121D800C
:103683008E828F83A3A3A3A3A3A3E054FEF0800998
:103693001238DA22740D1208467F0402057974EC9D
:1036A30012036074DD1208C2EAFEEBFF8C088D0979
:1036B3007437120AA7780C120A5B750A0074051294
:1036C3000AA7AC82AD83121DC87412120AA7E07058
:1036D300087415120AA7E060207405120AA7E0A275
:1036E300E6501E8E828F83A3A3A3A3A3A3A3A3A3A6
:1036F300124BDE120F40E960087903121CAE023848
:10370300C07405120AA7E0540C64047005750B011C
:103713008003750B00E0A2E55035750A01E50BA2A5
:10372300E0402C120ECE8A108B11A810A91112346E
:103733002BE0687003A3E06960157405120AA712F1
:10374300649C124BDA121D8CE96004790480AC741A
:1037530005120AA7E0A2E650227406120AA7E05453
:103763000370187405120AA7E0540C640C600CE093
:10377300540C64086005751001800375100074050E
:10378300120AA7E05403F8740268700C12649C12C6
:103793004BDA120AC00238C0740168703AE510A20D
:1037A300E050031238C87405120AA7A882A98374CB
:1037B30003120AA7E8F0A3E9123EC285188285190D
:1037C300831238D2E0C0E07402120AA7D0E01235A7
:1037D30079121E760238C0E860030238C090035F96
:1037E300E0640170108E828F83A3A3A3A3A3A3E03D
:1037F300700302374E7422120AA77402123EC27477
:103803001A120AA71234F2E510A2E0500874051246
:103813000AA71238C8E50BA2E0506AEE240FF5821E
:10382300EF125B60C0E07417120AA7D0E0F09003B8
:103833001412476470030238C0120ECE8A128B131F
:10384300A812A913741A120AA7E0687003A3E06907
:10385300706B780C1207F6780A12080278081207C0
:10386300FEA910740C120AA7AC82AD837421120A4C
:10387300A7AA82AB839003141239D3121EA574072F
:103883001208468038780C1207F6780A1208027874
:10389300081207FE900375120648EE2412F582EF14
:1038A30012588E7423120AA7AC82AD83740E120AC7
:1038B300A7AA82AB83121D747409120846742312DB
:1038C3000846025F8812649C12507912145622E84B
:1038D300F0A3E91238DA221238DE22F08E828F83C7
:1038E300A3A3A3A3A3A32274F71203601216C60211
:1038F300345C74F71203601216CC02345C74F71252
:1039030003601216D802345CC082C0831216D2023E
:10391300342474F71203601216DE02345C74F71257
:1039230003607409120AA7E0F50878081208021266
:1039330016EA7401023459C082C0831216F60234A7
:1039430024C082C0831216FC02342474F71203606D
:1039530012170202345C74F7120360EAFEEBFF896C
:10396300087401650870147900120D009022A5E413
:1039730093FC7900EEFAEFFB120C7602345C74F4DC
:1039830012036074F91208C2E9FE8A088B098C0AD3
:103993008D0B7413120AA7124BDE9005A512476410
:1039A3006027EE851882851983F07401120AA778BF
:1039B30008120A4CEAF8EBF97405120AA7123575D6
:1039C3009005A51239D3121EA5023570FB90034B47
:1039D300E0F8A3E0F583888222C082C08312173205
:1039E30002342474F712036090108FE0F97E008094
:1039F3000B125B4C540D64017001190E123BE05025
:103A030003E970ED02345C74F7120360901090E0E8
:103A1300F97E00800B125B4C548D64817001190E8A
:103A2300123BE05003E970ED02345C74F212036060
:103A3300890BE975F006A4240CF508E5F0122EC3F2
:103A43008A0CE508250CFAE5093400FB1215168AE1
:103A53000C8B0DAE0CAF0DEE4F6027AC08AD0979A2
:103A63000012148012342BE50BF0EE2508F8EF3525
:103A730009F98E828F83A3A3A3A3A3A3A3A3A31252
:103A830034F2EEFAEFFB0249D974F6120360EAFE50
:103A9300EBFF120C5290108EE0F8E9C398400990A6
:103AA3000345124BDE120C58EE2402F8EF1251EECE
:103AB3009003471250A8900347E004F0EEFAEFFB9F
:103AC300120C5E850882850983E00256A4C082C079
:103AD300837900900345800109124BDE8A828B8330
:103AE300E582458370F202342474F7120360EAFE20
:103AF300EBFFEE4F6056900345124764604E888299
:103B030089837A007B00EE65827003EF6583600F23
:103B1300AA82AB83123B52E5824583602F80E790F4
:103B23000345123B5E687002EF698E828F837008D3
:103B33001234E69003458003125F9A1234F2EEFAD0
:103B4300EFFB121E46EEFAEFFB12151C02345C1259
:103B53003B5622123ED28882898322123ECEEE2227
:103B6300C082C0839003458004888289831247649E
:103B7300600B88828983124216EC4D70EC8A828B2B
:103B830083E4F0A3F0E84960068882898380039088
:103B9300034512346C02342474F712036090034516
:103BA30080048A828B83123BDB4B60257E0080017D
:103BB3000E123BE050ECEE75F006A4FCADF0EA2CDF
:103BC300FCEB3DFDEC2410F582ED123C3070E180FE
:103BD300047A007B0002345C12507DEA22123C39E5
:103BE300EEC3982274F71203607D0080010D123C2E
:103BF30035EDC3985034ED75F006A4FEA8F0E8FF48
:103C0300EA2EFEEB3FFFEE2410F582EF123C3070FC
:103C1300DCED75F006A4FEE8FFEA2EFAEB3FFBEAC3
:103C23002411F582EB125B604CF002345C125B6C86
:103C33006922123C39221264A6EB3400F583E0F8C2
:103C43002274F6120360120D787A007B008025EA55
:103C5300F8EBF9E875F006A4F8ACF075F006E9A402
:103C63002C125052126367A3E4125148F0A312635B
:103C73006D1264E4902290122B4240D37A007B00B1
:103C8300801C8A088B09740378081209D9124B0621
:103C9300A374FEF0A304124F28A3E41264E4902259
:103CA30099123CE340DC7A007B00801D8A088B0973
:103CB300740378081209D974D31257D8740F126099
:103CC3001F74FEF0A3041264E490229F123CE340AD
:103CD300DB9022A3E493900353F0123CED0234FBF8
:103CE300E493F8C3EA98EB9400227CE87D037A100E
:103CF3007B009003C2E0F91215D02274F012036026
:103D030074F51208C28A088B09890A8C0BE9A2E0B0
:103D130050147508FC7509FFA2E15005D2E4023D79
:103D2300C0D2E3023DC01249C57003A3E069700528
:103D33007900023E8DAC0A7902AA08AB09120D5430
:103D4300E960EDE50AF50C780C12080279027CFEB5
:103D53007DFFAA08AB09124740120846E960030237
:103D63003E8BE50AC2E5F50A9003B5E07051E50A1A
:103D7300A2E6404B7403120AA7AC82AD83AA08AB38
:103D830009120B02E970321240618A0C8B0DA80CE8
:103D9300A90DE8FEE9FFE8496025EE24020A0AEFCF
:103DA300122852601AEE2402FCEF3400FD74031251
:103DB3000AA7AA82AB83121CC6E50AD2E5F50A90CC
:103DC3000348E0F50C900368E0F50EA3E0F50F78E7
:103DD3000E1207FE7D017C00900348E0F9AA0EABAA
:103DE3000F120D0C7402120846E9F8900348E00420
:103DF300F0E86003023E8BE50AA2E55004740E80EE
:103E0300027406C0E07401120AA7D0E01254BA8A01
:103E13000E8B0FAE0EAF0FEE4F6069123EAB123E2C
:103E2300C2888289837401F07478550AA31264AC42
:103E3300E50C1264ACA3E508F0E509123E9AE4F040
:103E4300E50AA2E5500F7403120AA7AC82AD83E81A
:103E53002406123E918E828F83A3A374FDF0A37474
:103E6300FFF0E50B60159022A6E493F8E50BC398E9
:103E73005009EE241312548DE50BF0EEFAEFFB120A
:103E83000BA480067910800279C7740B8049FAE984
:103E93003400FB121CC62288828983A3A3A3A31226
:103EA3003EA622125221A322EE241712549E74011D
:103EB300F0120EC8EE241A12549EEAF0A3EB22F07D
:103EC3001264A03400123ECC22F583123ED222E0CB
:103ED300F8A3E0F922740D1208467F0802057974ED
:103EE300F61203607A007B101259A860089003D47D
:103EF3007401F08029900646E064019010D37006A7
:103F0300E0FC79018004E0FC79037A007B00120C69
:103F13007690228E123F247A007B10123F320234B5
:103F2300FB123F2822E493FC740193FD227B009053
:103F330003C2E0F91215CA2274EC1203608A088BDB
:103F4300098C0C8D0D890E7414120AA712491F7463
:103F530016120AA7E0F510A3E0F511120F40E9606D
:103F6300077AFF7BFF02405E9010D2E06402600399
:103F73000240517900AA08AB09120D5AA90E120D7D
:103F83004E8A128B13AE12AF13EE4F7003024039F9
:103F93008E828F83A3A3A3A3A3E064018E828F8366
:103FA300A3A37069124BDE8E828F83A3A3A3A3A363
:103FB300A3E0541860439022A4E4938E828F83A3DA
:103FC300A3A3A3F0EA650C7003EB650D6014EA6527
:103FD3000A7003EB650B600AEA65107003EB651169
:103FE300701F78101207FEAC0AAD0BAA0CAB0D12B2
:103FF300103C74021208468008900367125992A37A
:10400300F074FE6A700374FF6B601D804EA3A3A35C
:10401300E0640360298E828F83A3A3A3A3A3E06438
:104023000470057AFE023F668E828F83A3A3A3A347
:10403300A3E0640270089003B4E0640270101240BD
:10404300618B0BEA450B6006AA08AB09800DAA0831
:10405300AB099003491239D3121EA5025F8890035E
:10406300751247461210002274F7120360EAFEEB42
:10407300FF120B56E9700AEEFAEFFB120B62E960CE
:1040830006EEFAEFFB80047AFE7BFF02345C74F0E9
:104093001203608A0A8B0B8C0E8D0F890975080039
:1040A300120F40E979006003024208AA0AAB0B121F
:1040B3000D5AA909120D4E8A0C8B0DAE0CAF0DEEE5
:1040C3004F60198E828F83A3A3A3A3A3E06402701E
:1040D300559003B4E064027003024206AA0AAB0BD4
:1040E30090034F1239D3121EA5120B688A0C8B0D45
:1040F300A80CA90DE849700302420688828983A3AC
:10410300A3A3A3A3E0A2E04003024206750C01A20D
:10411300E150687901AC0AAD0BAA0EAB0F120CA6E5
:10412300E970640242068E828F83A3A3A3A3A3E054
:1041330064037005750C0280528E828F83A3A3A340
:10414300A3A3E064016003024206900375124216C2
:104153008E828F8312456B8A0C8B0DA80CA90DE8F8
:104163004960D190229DE493FA88828983E0C39ABF
:1041730050C2A3E0600302420680B988828983A308
:10418300A3A3A3A3D2E1F0EE4F603A8E828F83A361
:10419300A3A3A3A3A3E05418602B7508018E828FF9
:1041A30083A3A3120648750CFE750DFF780C120746
:1041B300FE7900AC0AAD0BAA0EAB0F120D6C7404A2
:1041C300120846803E900368E0650E7004A3E06524
:1041D3000F70149022A5E493FCA909AA0AAB0B1251
:1041E3000C76750801801CA90CAC0AAD0BAA0EABAA
:1041F3000F120CA6E9700C750801A909AA0AAB0BEA
:10420300120D00A908023EDDE50C2415F582E50D2B
:104213001254A1124EFE2274EA12036074F01208C3
:10422300C28A0C8B0D8C088D097426120AA7E0F53F
:1042330014A3E0F5157512069003F5124764602385
:10424300900375124216AA08AB0912102A8A108B22
:1042530011EA4511600D8A828B83A3E07005790012
:10426300024553E50C241DF50EE50D3400F50F85CD
:104273000E82124750F51388828983A3A3A3E0FA21
:1042830088828983A3A3A3A3E0F9EA2400FEE43987
:10429300FFAA08AB09120D06850E82850F8312450E
:1042A3008EE029F50BE50AA2E5500375120E74871B
:1042B300550A70177418550A6418600FE50C241713
:1042C300F582E50D125B60651260077901121CAE81
:1042D300808C530A78C3EE94F8EF94FF501D790055
:1042E300EEFAEFFB12455D601288828983A3A3A3D4
:1042F300A3A3A3E05418600302426178081207FEE7
:104303007D00124581120846E9F8740368700302C0
:104313004261E860030243CC7418550A70030244F7
:1043230081E50AD2E0F50AA2E45004D2E1F50AA934
:104333000A124BD712455D605388828983A3A3A3D6
:10434300A3A3A3E05418604488828983A3A3A3A3EF
:10435300A3E064017036E5104511603090037512D7
:1043630042168882898312456B8A0E8B0FA80EA989
:104373000FE849601788828983A3E0600F85108264
:10438300851183A31256AF5003024261E50AF50E6D
:10439300780E120802124574120846E9702B7C004D
:1043A3007D0085148285158374FFF0A3F0850C824C
:1043B300850D83A3A3A3A3A3A3A3A3E06003124236
:1043C3000BA90B124BD71216F0851482851583E0C7
:1043D300F47003A3E0F460399003B4E06402700363
:1043E300024261124910E0FAA3E01239CF121EA56E
:1043F300EA65087003EB65096003024261EEFAEFB8
:104403001239CF121EA5851482851583EAF0A3EB1A
:10441300F078081207FE7D01124581120846A90AA9
:10442300EEFAEFFB120D5A8A088B09A808A9099026
:104433000368E0687003A3E0696003024544EEFA91
:10444300EFFB120B688A088B09A808A909E84960E1
:104453006E88828983A3A3A3A3E06401600D88828D
:104463008983A3A3A3A3E0640270548518828519EA
:1044730083AC82AD83EEFAEFFB120B0280559003FF
:1044830061E0600FE50AF50E780E1208021245741A
:10449300120846E50AF50E780E12080279027CFE30
:1044A3007DFFEEFAEFFB124740120846E960030274
:1044B30043CC85148285158374FFF0A30244131241
:1044C3000EC8EAFCEBFD851882851983AA82AB83AB
:1044D300121CC6850C82850D83A3A3A3A3A3A3A348
:1044E300A3E06401700F12420B7408120AA7AA8298
:1044F300AB83121CC612471A1253264430F50878B0
:10450300081208027401120AA785820885830978B4
:10451300081207FE740B120AA7858208858309789F
:10452300081207FEE513F50878081208027900EE71
:10453300FCEFFD124BD7120CA07406120846024280
:104543006112471A12549012458EE50BF0120EE0D9
:1045530074101208467F0E020579120D4E8A0E8BD7
:104563000FA80EA90FE84922A3A312507D12102A07
:10457300227901AC08AD0912507212474022AC0BEC
:10458300A913125072120D0C74022212532EA3A3FC
:10459300A3A32274F012036074F01208C28A0C8B76
:1045A3000DECFAEDFB750F089003F51247646014E8
:1045B3001256A88A828B83E58245836007A3E07045
:1045C3000302471512471A3400124750F50B88822D
:1045D3008983124723E0FBEC2400FEE43BFF88823F
:1045E3008983A3A3124723A3A3E0FBECF508E43BD1
:1045F300F50988828983A3A3A3A3A3A3A3E0F50E4C
:10460300E50AA2E45003750F10A2E55006740825CD
:104613000FF50F748F550A700FE50C2417F582E51B
:104623000D125B60650F60087901121CAE0247151D
:10463300530A707800E50AA2E4502212471A125B6B
:10464300602408FCA3E03400FD7408120AA7AA82C0
:10465300AB83121CC67808E50AC2E4F50AE50AA290
:10466300E5502812471A125B6028F8A3E03400F9DA
:10467300E82408FCE93400FD851882851983AA82A1
:10468300AB83121CC6E50AC2E5F50AAC0EA90BEE14
:10469300FAEFFB120D12E9F8740368607590036872
:1046A300E06E7003A3E06F605EE87054E50AF50FF7
:1046B300780F120802124731120846E97054780A3B
:1046C3001208027401120AA785820C85830D780CE7
:1046D3001207FE740B120AA785820C85830D780CD2
:1046E3001207FEE50BF50A780A120802A90EAC08B8
:1046F300AD09EEFAEFFB120CA07406120846801205
:10470300740468700D80B7780A12080212473112D8
:1047130008467410023EDAE50C241DF582E50D22ED
:10472300A3A3A3E0FC88828983A3A3A3A322790183
:104733001249171254A112474612474022120CCABB
:10474300740122E0FCA3E0FDAA08AB0922F5831261
:104753003B56A3E0F50A88828983A3A3E022900352
:10476300391250D92274E812036074F51208C2EAB0
:10477300FEEBFF8C088D0989147423120AA7E0F558
:104783000F7424120AA7E0F512A3E0F5137426129E
:104793000AA7E0F516A3E0F5177428120AA7E0F5B7
:1047A3000EA90F120D188A108B117401120AA77427
:1047B30008F0E50EA2E450037410F0E50EA2E550F4
:1047C30004E02408F0851882851983AA82AB83123A
:1047D3000F288A0C8B0DEA450D70030248F7EA2473
:1047E30017F582EB124909120EC8E50C241AF5825B
:1047F300E50D12549012346C7403120AA7AC82AD07
:1048030083AA10AB11120B02E9601D124901740354
:10481300120AA7A882A983E50C2418F582E50D12D4
:104823005490E8F0A3E98024E50EA2E4501FE510BC
:104833006E7003E5116F7015124901E50C2418F52C
:1048430082E50D125490E512F0A3E513F01249101E
:1048530012491F850A82F5837402F0A3E50E1249FB
:1048630027E50FF0EE850A82850B83A3A3A3F0EF60
:10487300850A82850B83A3A3A3A3124927A3A3A31A
:10488300E508F0E509850A82850B83A3A3A3A3A307
:10489300A3F0AA10AB11120D06E92514850A82852F
:1048A3000B83A3A3A3A3A3A3A3F0750800E50EA200
:1048B300E45011AC12AD13E50A2408FAE50B123EDD
:1048C30093750808E50EA2E55014AC16AD17E50A7A
:1048D3002508F8E50B3400F9E82408123E91850C0D
:1048E30082850D83A3A3E510F0A3E511F0AA0CAB19
:1048F3000D120BA4740B1208467F10020579E50C08
:104903002416F582E50D1254A17401F02212491701
:104913001254A122E50C1264A7E50D22E0F50AA3C7
:10492300E0F50B22F0850A82850B83A3A32274F2A0
:104933001203608A088B09ECFEEDFF890A790012E5
:1049430049C57003A3E069700479018073750B0195
:10495300900368E065087004A3E06509601F750BA8
:1049630000780B120802A90AEEFCEFFDAA08AB09B6
:10497300120F7C7401120846E9F50B80417900EEB1
:10498300FAEFFB120D4EEA4B602B8A828B83A3A3B3
:10499300A3A3A3A3E05418601C7508FE7509FF7850
:1049A300081207FE8A828B83A3A31206481262BCF5
:1049B30012084680097901EEFAEFFB120C28A90BC5
:1049C3008014120D5A8A0C8B0DA80CA90D90036844
:1049D300E068221208467F0602057974F412036028
:1049E30075081B75090E7A10125FC48B0BEA450B11
:1049F3007003123CED900353E014F0700C9022A36B
:104A0300E493900353F0120D667E007F00806C8563
:104A13000882850983A3A3A3A3E06059F46056E544
:104A2300082404F582E50912598C704985088285AA
:104A33000983A3A3A3A3A3E06403701979028508E0
:104A430082850983124216850882850983A3A312EE
:104A53004BDE120CA6850882850983A3A3A3A3A317
:104A6300E06401601085088285098374FEF0A30465
:104A7300124B38E4F0123069122EBB90229212616D
:104A830020408C7E007F008039120E6E8E088F09C5
:104A9300740378081209D974932508FC740F350937
:104AA300FD7AB27B0C120E5CEA4B70DD8E088F0927
:104AB300740378081209D9124B06126367E4F012E3
:104AC3003069902299E493F8C3EE98EF9400501B59
:104AD3008E088F09740378081209D9124B0EE82443
:104AE30007F582E912598C70D680A17E007F008081
:104AF3000A124B19600214F012306912611D40F161
:104B030002369C124B0E888289832274932508F8FF
:104B1300740F3509F922EEF8EFF9E875F006A4F8F9
:104B2300AAF075F006E9A42AF9743328F582740F04
:104B330039F583E022124B3FA3A3A322F085088219
:104B4300850983A3A32274F712036074E11208C2D8
:104B5300ECFEEDFF750800EE4F60728A828B83E0F6
:104B6300241C1259BD12476460638A828B83124BE3
:104B7300DE851882851983AC82AD83EA241BF58216
:104B8300EB12588EEA241CF582EB124BDA120EB0AC
:104B9300740B120AA7124BE27003A3E069702E7420
:104BA30002120AA7E064017024741D120AA71239C5
:104BB300D3E064017017741D120AA71239D5A3A399
:104BC300E0F88E828F83E0687003750801A908748A
:104BD3001F0234591249173400F58312507D2212F3
:104BE3002810E0682274F4120360E97024790090BD
:104BF300034D1239D3121EA58A0A8B0BAE0AAF0BD3
:104C030074FE6E700374FF6F701A9022A0E49360B9
:104C130013790190034D1239D3121EA58A0A8B0B07
:104C2300AE0AAF0B120EEC0231D174F612036074AC
:104C3300F31208C212148C8A088B09AE08AF0990CC
:104C43000368E06E7003A3E06F60E9120ED4EA6EAE
:104C53007002EB6F60DEEEFAEFFB120F40E970D4E7
:104C6300EE4F60D0851882851983E4F004120AA7F9
:104C7300EEF0A3EF124C90E970BA74FE6E700374F9
:104C8300FF6F60B0EEFAEFFB740D0234F812357D5E
:104C9300120B1A22C082C083120EEC0234247F0A44
:104CA30002057974F2120360EAFEEBFF8C0A8D0BA6
:104CB3008908740E120AA7E0F50974FC6E70037478
:104CC300FF6F700579000249D97900120D5A8A0CD9
:104CD3008B0DAE0CAF0D900368E06E7003A3E06F15
:104CE3007006E509A2E650DCA9091261AA70617990
:104CF300007AFE7BFF1261AA70567418550970037F
:104D0300024DDD780079008003122A0A9022921264
:104D13002A014003024DDDE8FAE9FBEA75F007A436
:104D2300FAACF075F007EBA42CFB74212AF582741E
:104D33000E3BF583E0541870D0E875F007A4F8AA89
:104D4300F075F007E9A42AF9741B28F8740E39F9F1
:104D530088828983A3A3A3A3A3A3E054186009743F
:104D63001855097003024CC788828983EEF0A3EFBC
:104D7300F074FE650A700474FF650B6003124F0440
:104D830088828983A3A3A3A3A3A3E509F0A2E05088
:104D93000D88828983A3A3A3A3A3A3D2E2F0740102
:104DA300650888828983A3A3A3A3A370387401121F
:104DB3004F28E0541860289022A4E49388828983C2
:104DC300A3A3A3A3124EF212102A8B0DEA450D6082
:104DD30003024CC77800790080397902024CC990EC
:104DE3000367E080D7E064017003024CC7888289BF
:104DF30083A3A3A3A3A3A3E0541860079022A4E46E
:104E0300938004900366E0123E9AE508F0024CC7D3
:104E1300122A0A90229AE493FAC3E89AE99400408A
:104E230003024CC77A007B00804BEAFCEBFDEC7578
:104E3300F007A4FCAEF075F007EDA42EFD741D2C55
:104E4300F582740E3DF5831254A9E8FCE9FDEC7577
:104E5300F017A4FC85F00975F017EDA42509FD747E
:104E6300AB2CF582740C3DF583E06E7003A3E06F09
:104E7300609E122F3E902292122ECB40AD123F2401
:104E8300EC6A7002ED6B7088E875F017A4F8AAF06D
:104E930075F017E9A42AF974AB28FE740C39FF7C6A
:104EA300177D007900EEFAEFFB1214808E828F8358
:104EB300124F0A900375124EE4A3A3A3A3A3A3E87E
:104EC300F0A3E9124EEA7401F0EE240E12548D742D
:104ED30001124F1212020FEE240D12548DE8024EEE
:104EE3000F12343CA3A322F0EE240F12549E22F09F
:104EF300124EFBAA0AAB0B22900375E0FCA3E0FD64
:104F03002288828983A3A3E50AF0A3E50BF022F0AC
:104F1300124F172290229DE4932401F8E43400F900
:104F23007A027B0022123EA6A32274ED1203608A4A
:104F3300088B09890E12505B40057905025029122E
:104F43001738AA08AB0912512D90229012502C65E4
:104F53000A7003E9650B70077AFE7BFF12512D90EF
:104F63002290E4125034E50A98E50B99400302506D
:104F7300271250386012E50A75F006A4F875F0069A
:104F8300E50B12508312151CE50E6018E50A75F047
:104F930006A4F8AAF075F006E50B1250AF701A7963
:104FA30001025029E50A75F006A4F8AAF075F00687
:104FB300E50B125090E4F0A3F0E50A75F006A4F8AF
:104FC300AAF075F006E50B125050A312533C8882E9
:104FD3008983A3AA82AB8312509E8A828B83E0606B
:104FE3003F125038603A8E108F11751200781012EC
:104FF30007FAE50EC333FCE433FDE50A75F006A4B6
:10500300F50AA8F075F006E50BA428F50B7437250F
:105013000AF582740F350B124BDC122EDC12084694
:105023007900800279070261C0122B63E822902283
:1050330088125B4722E50A75F006A4F8AAF075F01A
:1050430006E50B12508BF8A3E0F9E84922A42A12D3
:1050530051E488828983A322ECFEEDFF90229BE436
:1050630093F8E9C39822F58312507D12151C22E5AB
:105073000C1264A7E50D3400F583E0FAA3E0FB22EC
:1050830012508BFAA3E0FB22125090E022A42AF9DB
:10509300743728F582740F39F58322E50EF09010EA
:1050A300D41250A822E088828983F022125208F594
:1050B3000CE93400F50DE50EC333FAE433FB1215A6
:1050C30016850C82850D83EAF0A3EBF0850C8285AF
:1050D3000D831250D922123ED2E8492274F41203EE
:1050E30060ECFEEDFF740C120AA71234E6880889FF
:1050F3000912512DAC0AAD0BECF8EDF99022901288
:1051030051355021E875F006A4F8AAF075F006E9C8
:10511300125050E08E828F8312514812513E123446
:10512300F279008002790402369C120CDC8A0A8B25
:105133000B22122ED4C3EC9AED9B22123ECE85088D
:10514300828509832212521D2274F61203607E00A7
:105153007F008028EEF8EFF9E875F006A4F8ACF0CC
:1051630075F006E9A42CF9743528F582740F125DE5
:10517300CB6A7003A3E06B605712306912611D4064
:10518300D31261187002E96F704674FE6A7003747B
:10519300FF6B703C7E007F00800312306912611D3B
:1051A300502E124B1970F3EEF8EFF9E875F006A4E0
:1051B300F81251DA12520F60171251F6F8E9125130
:1051C300EE8882125069850882850983E4F0A3F092
:1051D300EEFAEFFB0234FB75F006E91251E222A46A
:1051E3002AF9743328F8740F39F9223400F988083E
:1051F300890922EEF8EFF9E875F006A4F875F006D0
:10520300E9125208221251E2E8240422A3A374FEF5
:1052130012521A1250D922F0A30412522122F088FA
:10522300828983A3A3A3A32274F6120360EA241D35
:10523300F582EB125326F9604BEA241DF582EB123B
:105243005B602402FCA3E03400FD12505F400302C4
:105253005319780080298C828D83E0F508A3E0FF41
:10526300E5082400E43FF509E833FEE433FF747BEB
:105273002EF582740F3FF58312533C12531C08E83A
:10528300C39940D28A828B83A3A3A3A3A3A3A3A37B
:10529300A3124216900368E06C7003A3E06D700FD5
:1052A3007C7B7D0F122779124BDA120CD08067EAD0
:1052B3002411F582EB125B60605CFC74FF2CF075CB
:1052C3000801780812080275087B75090F7808121F
:1052D30007FEE9F5087808120802EA2412F582EBC2
:1052E300125B60F5087808120802EA2415F582EBD0
:1052F300125490120648ECF91227791242138A824B
:105303008B83A3A3A3A3A3A3A3A3A3124BDE120C78
:10531300E874071208460234FBEC24020C0CED344B
:1053230000FD221254A112532EE022E0F8A3E0F56F
:10533300838882A32288828983E508F0A3E509F0A4
:105343002274EA12036074FD1208C28A148B158C4E
:105353000E8D0F890D7419120AA71254A9741B120A
:105363000AA7E0F511741C120AA7E0F50C741D12CC
:105373000AA712491F741F120AA7E0F5106008E577
:105383000CC333240480027402C0E07401120AA720
:10539300D0E01254BA8A088B09EA45097003025413
:1053A300858A828B83A3A3E514F0A3E515125FB36B
:1053B300E50EF0A3E50FF0EA2413F582EB12549007
:1053C300E50DF0EA2414F582EB125490E511F0EAAE
:1053D3002417F582EB125B6064017040120ECE8AD3
:1053E3000E8B0FA80EA90F850882850983A3A3A39B
:1053F300A3E0687003A3E0696022EE4F6011E50843
:10540300241AF582E509125490EEF0A3EF800CE51F
:10541300082417F582E509125490E4F0125494120B
:1054230054A98E828F837405F0A3E5107004E50CF4
:1054330080487401250C1254B37A008028850A82AF
:10544300850B83E01254AF850A82850B83A3E08E1C
:10545300828F83F0E50A2402F50AE50B3400F50B8D
:10546300A30EAF830AEAC3950C40D2120ECEEA1202
:1054730054AF120ECEEB8E828F83F0AA08AB0912C3
:105483000BA47403024555EE240CF582EF1254A1CC
:105493002212278A1254A122EE240BF582EF340044
:1054A300F58322900334E0FEA3E0FF228E828F83F4
:1054B300F0A3AE82AF832212357D120F2822C08261
:1054C300C083E9C333FCE433FDEA2CFAEB3DFBEA8A
:1054D30024FEF582EB34FF124BDC02342474F21207
:1054E300036089098A0A12505B4004790080407581
:1054F300080080020508E508C39509502AE508C39A
:1055030033F8E433F9EE28F582EF39F583C082C02E
:1055130083120ECE8A0C8B0DD083D082E0650C7083
:1055230004A3E0650D70CDE50A650870BE7901023C
:1055330049D974F012036074F31208C28A088B0904
:105543008C0A8D0B890C750D00120F40E9790060F0
:1055530003025637AA08AB09120D5AA90C120D4EB5
:105563008A0E8B0FAE0EAF0FEE4F70030256358EC1
:10557300828F83A3A3A3A3A3A3E0A2E240030256C3
:1055830035120ECEEA650A7003EB650B7011780DC8
:10559300120802E4F50EF50F780E1207FE8044AAF6
:1055A3000AAB0B120B5CE9640170688518828519DC
:1055B300837404F07401120AA7124F0A85188285B6
:1055C3001983AA82AB83120B1AE964017045750D26
:1055D30001780D120802E4F50EF50F780E1207FE9E
:1055E300750D00780D120802780D12080274081266
:1055F3000AA785820E85830F780E1207FE9022A6D6
:10560300E493F9AC0AAD0BAA08AB09120CE87407D2
:105613001208468E828F83A3A3A3A3A3A3E0A2E1D0
:10562300400D8E828F83A3A3A3A3A3A3C2E2F0752D
:105633000D01A90D023ED874F6120360E9FE79004C
:10564300120D5AEEF9120D4E8A088B09A808A90902
:10565300E84960061264EEF9800279040234FB74AF
:10566300F61203607E0790035CE070341256A88A3A
:10567300088B09A808A909E8496025900361E0643B
:105683000188828983A3A3700B1256AF8882898312
:105693005001A3A3E0F9121048E9FEEE70027E0761
:1056A300EEF90234FB124EFB12102A22E0FA888232
:1056B3008983A3E0C39A2274EE120360EAFEEBFF30
:1056C300890A8C0C8D0B7412120AA71234301257EC
:1056D300841250625051890E750F007403780E12B4
:1056E30009D97499250EF582740F350FF583E0F807
:1056F300E50CC398502DE50B6024751100740378F5
:10570300101209D974932510F8740F3511F9888292
:105713008983A3A3A3A3A3A3E50C12578EF0790057
:10572300024CA1790380F979007AFE7BFF1257843A
:10573300E49365107004790280E6E50B60E0890E5E
:10574300750F007403780E1209D97493250EF8743B
:105753000F350FF988828983A3EEF0A3EF12578EDA
:10576300124F28E50C123EA274FF12636DE50AF096
:10577300900366E088828983A3A3A3A3A3A3A38042
:105783009C120D48E9F510902299221264B0A3E50A
:1057930008F0A3E5092274F6120360ECFF120D482A
:1057A3009022991250625027890875090074037872
:1057B300081209D974981257D8740F12601FE0F8B1
:1057C300EFC3985006EFF0790080067903800279E1
:1057D300040234FBEA2508F5822274F4120360EA1A
:1057E300FEEBFF120D48E9F50A9022991250625020
:1057F30019750B007403780A1209D97496250AF5F2
:1058030082740F350B124BDC801890034B124764E4
:10581300600CEEFAEFFB1239D6121EA580047AFE55
:105823007BFF02369C74F61203608A828B83A3A3E8
:10583300A3A3A3E4F0F880010890229FE493F9E87E
:10584300C399501E88081258868C828D83A3A3A304
:10585300A3A3A3A3A3E06970DFECFAEDFB120E741C
:10586300801EE4936870198C828D83A3A3A3A3A3E2
:10587300A3A3A3A37406F07A008C828D831259B17B
:105883000234FB741B2508F5827410125B6CF92239
:1058930074F4120360EAFEEBFF8E828F83A3A3E00E
:1058A300141259C8A3E0F9120E508A088B09EA456D
:1058B3000970030259898E828F83A3A3E070358A0E
:1058C300828B83A3A3A3A3A3A3A3A3A3E064028ABA
:1058D300828B83A3A3A3A3A3A3A3A3A36010740690
:1058E300F07AF08508828B831259B10259897406C4
:1058F300F00259898E828F83A3A3A3A3A3A3E0609D
:10590300738E828F83A3A3A3A3E0607AEE2403F5AF
:1059130082EF12598C706F9003551259921259C825
:10592300E014125FAAE06403705C8E828F83A3A3EA
:10593300A3A3E0700DAC08AD09EEFAEFFB120D1E48
:1059430080448A828B83A3A3A3A3A3A3A3A3A37447
:1059530004F012148CEA540F04850882850983A38A
:10596300A3A3A3F0A3E4F07A20FB1259A8701712A3
:10597300599B80128A828B83A3A3A3A3A3A3A3A36C
:10598300A3E0640360AF02369C125B6C14F022E068
:105993008E828F83A3A3A3227A207B009003C2E08D
:1059A300F91214CE22125FC68B09EA450922E024BC
:1059B3000C1259BDE0F9120D9622F8A3E03400F958
:1059C30088828983221259CDA3221234D8A3A3A398
:1059D3002274F612036079007E0080258E08750913
:1059E30000740378081209D974D32508FA740F35A3
:1059F30009FB8A828B83A3A3E06005120D2479013E
:105A03000E90229FE493F8EEC39840D0E9A2E07A87
:105A1300407B009003C2E0F950151215DC8B09EAB4
:105A23004509700E7C647D007A40123CF3800312BA
:105A330015D60234FB74F4120360ECFEEDFF750817
:105A4300D375090F7C008045850882850983A3A34C
:105A5300A3A3A3A3A3E0F8EA2412F582EB125B60ED
:105A630068701F8508828509831234E6125B6468B7
:105A73007003A3E069700B850882850983A3A3E003
:105A830070200CE5082408F8E5091251EE90229FD6
:105A9300E493F8ECC39840B0E4936C70057900028A
:105AA300369C850882850983A3A3A3A3A3A3E070DF
:105AB30004790180EA1261B81210008B0BEA450BDE
:105AC300600F850882850983A3A3A3A3A3A3E0147E
:105AD300F07C0080010C8C0A125B3A5020EC125BC4
:105AE3007260F21230816E7003A3E06F70E7850875
:105AF30082850983A3A3A3A3A3A3E014F090229A0E
:105B0300E493F8902288E49328F8A3E4933400F90B
:105B1300850882850983A3A3A3A3A3A3E0FAC3E80B
:105B23009AE99400508B850882850983A3A3A3A3D4
:105B3300A3A3E4F0025AB4902288125B46E50A98C4
