:020000040000FA
:06000000020A9C0201CD82
:03002B000208F0D8
:0300430002076E43
:030053000200FEAA
:03006B0002074940
:100083000201620101FF0503015D105D105D105D5A
:1000930010190F130F5D10A823000000000A24009D
:1000A3000000000C0000000C000100002B120000F7
:1000B30000000000F7120000000000000000000034
:1000C300FFFF010101002D050000007E05E8036428
:1000D300006400B801020200080000050207051EC3
:1000E30002051E0A03B80B020102F1FF02DF811FA2
:1000F30000E0079651180002020612C0E074F212E3
:1001030003E6A2AFE433FED2AFE5A7FFE5A1F5080E
:100113005F5410600612195175A1EFE5085F54088A
:10012300600812195775A1F7802BEFA2E0C0D0E544
:1001330008A2E092F01209D9158182F0501790615C
:1001430098E0F8900852E0C398A2D265D0335002E9
:10015300E8F075A1FEEEA2E092AF7F01020445C074
:10016300E074F21203E6A2AFE433FED2AF9061A4CF
:10017300E0F8759B00E59158540860087591F712F3
:10018300199F802AE59158541060087591EF121950
:10019300A5801BE8A2E0C0D0E591A2E092F012098D
:1001A300D9158182F05007E0C2E0F0121AE990619C
:1001B300A3E0F8E5E9585404600E121ABF75E9FB91
:1001C300906193E0A2E640F2808BC0E074F21203E8
:1001D300E6A2AFE433FED2AF9061A5E0F8E5BF58E5
:1001E3005404600675BFFB121B01020158C3E49857
:1001F300F8E499F91202318026C3E49AFAE49BFBEE
:10020300E920E7E9120231E498F8E499F922C3E41A
:1002130098F8E499F9120231E498F8E499F9C3E4FF
:100223009AFAE49BFB22EB20E7CFE920E7E0B90051
:1002330010BB0008E88AF084F8AAF022E4FBC8FAAD
:1002430022EB70227B10C833C8C933C9335007C3AC
:100253009AC3DBF280069A50012ADBEAC833F4C85A
:10026300C933F4C9FA2275F008E4C833C8C933C9DD
:1002730033C99AC99B5004C92AC93BD5F0ECFBC8C2
:1002830033F4C8E4C9FA22080808EAC0E0EBC0E086
:1002930086F0E7A4FA180986F0E7A42AFA18098673
:1002A300F0E7A42AFA180986F0E7A42AFA1986F0D7
:1002B300E7A4FBE5F02AFA190886F0E7A42BFBE58F
:1002C300F03AFA190886F0E7A42BFBE5F03AFA189E
:1002D300180986F0E7A4C5F02BFBE43AFA1908E7FE
:1002E300C5F0C6A426F6E5F03BFBE43AFA1886F01F
:1002F300E7A4F6E5F00826F6E43B08F6E43A08F648
:10030300D0E0FBD0E0FA22E4CFC0E0E4CEC0E0E4EA
:10031300CDC0E0E4CCC0E075F020C3E633F608E6D8
:1003230033F608E633F608E633F6181818EC33FC10
:10033300ED33FDEE33FEEF33FFC3EC9709ED970981
:10034300EE9709EF97191919400FFFEC97FC09ED88
:1003530097FD09EE97FE191906D5F0BEECF709EDE6
:10036300F709EEF709EFF7191919D0E0FCD0E0FD12
:10037300D0E0FED0E0FF222518C582C0E0E51934A5
:10038300FFC583C0E0E518C3958224F810AF088544
:1003930083198582188008858319858218D2AFCE88
:1003A300F0A3E520F0A37808E608F0A3DEFAEFF067
:1003B300A3E58124FAF8E608F0A3E608F0A3E6082B
:1003C300F0A30808E608F0A3E608F0A31581158159
:1003D300D0E0FED0E0F8158115811581E8C0E0EE8C
:1003E300C0E022C0D02518C582C0E0E51934FFC59E
:1003F30083C0E0E518C3958224F310AF0885831901
:100403008582188008858319858218D2AFC8F0A326
:10041300E9F0A3EAF0A3EBF0A37908E709F0A3D886
:10042300FAECF0A3EDF0A3EEF0A3EFF0A3D0E0F02D
:10043300A3D0E0F0A3D0E0F0A3E520F0A3E5F0F033
:10044300A322851983851882E0C0E0A3E0F9A3E025
:10045300FAA3E0FBA37808E0F608A3DFFAE0FCA325
:10046300E0FDA3E0FEA3E0FFA3E0C0E0A3E0C0E063
:10047300A3E0F5D0A3E0F520A3E0A3F5F010AF08C7
:100483008583198582188008858319858218D2AFE0
:10049300D082D083D0E0F8D0E032120B0BB9000346
:1004A3000204DFE490030178A9790A8002F0A3D85B
:1004B300FCD9FA900CA9AA82AB839000867879794B
:1004C300018015E493A3AC82AD838A828B83F0A36E
:1004D300AA82AB838C828D83D8E9D9E77582AE7506
:1004E3008393740312084F7582A775831D740012DA
:1004F300084FE8030875F0108E1A8F1B85821F853D
:10050300831E851882851983E0CEA3E0CF851F82E1
:10051300851E83EBC9EAC8EDCBECCAC3E833C8E94F
:1005230033C9EA33CAEB33CBC3EA9EF51DEB9FF520
:100533001CB35004AB1CAA1DEC33CCED33CDD5F06A
:10054300DAAE1AAF1B22D083D082ECC0E0EDC0E05C
:10055300E493A3FCE493A3FDED4C600D120621ECA0
:1005630024FFFCED34FFFD80EFE493A3FCE493A3AD
:10057300FDED4C600D1206F4EC24FFFCED34FFFDA1
:1005830080EFD0E0FDD0E0FCE493A3C0E0E493C0AF
:10059300E022D083D082E9C0E0E493A3C386F0C510
:1005A300F095F0F908E493A386F0C5F095F0700B8D
:1005B300E493A3C3994005E9048002A3E475F00220
:1005C300A42582F582E5F03583F583D0E0F9E49341
:1005D300A3C0E0E493C0E022851983851882E0A3D9
:1005E300FEE0A3F5207808E0A3F608DFFAE0A3FF16
:1005F300E0A3C0E0E0A3C0E0E0A3C0E0E0A3C0E06C
:10060300E0A3C0E010AF08858218858319800885B0
:100613008218858319D2AFD083D082020855C0E0F7
:10062300C3E49396087401939618400FE49366709D
:100633000808740193661870007019A3A3C3E493A8
:1006430096087401939618A3A3400DD0E0D0E0D090
:10065300E0020585A3A3A3A3A3A3D0E022D083D064
:1006630082C5F0E493A3C5F0C395F0F5F0E493A33A
:10067300C395F04005E5F0048001E475F002A4257C
:1006830082F582E5F03583F583E493A3C0E0E49338
:10069300C0E0227404800474028000CCC0E0EDC08A
:1006A300E0E518C39CCCAD1950011D10AF068C18A2
:1006B3008D1980068C188D19D2AF1207B3D0E0FDC7
:1006C300D0E0FC2274028000CCC0E0EDC0E0E5186D
:1006D300C39CCCAD1950011D10AF068C188D198029
:1006E300068C188D19D2AF120791D0E0FDD0E0FC33
:1006F30022C0E0C0F088F0E49366700808740193A8
:1007030066187000A8F0A3A3700BD0F0D0E0D0E07F
:10071300D0E0020585A3A3D0F0D0E022D083D0821D
:10072300CCC0E0E493A360061208121470FAE493B9
:10073300A360061209211470FAD0E0FCE493A3C06D
:10074300E0E493C0E022C0E074F21203E67AF27BA5
:10075300801212E57CFA7D007B327A05790112184A
:100763008B5389DFC2C57F01020445C0E074F212D6
:1007730003E6A2AFE433FED2AFC2C0E5D1A2E45098
:10078300031218C7EEA2E092AF7F01020445CAC06C
:10079300E0E493A3C582CCC582C583CDC583F0A312
:1007A300C582CCC582C583CDC583DAE5D0E0CA2234
:1007B300CAC0E0E0A3C582CCC582C583CDC583F0A2
:1007C300A3C582CCC582C583CDC583DAE6D0E0CA92
:1007D300227009080808226016181818C6C333C601
:1007E30008C633C608C633C608C633C6D5E0EA22F0
:1007F300C008C3E096F50808A3E096420808A3E002
:1008030096420808A3E09645087001D3D00822C099
:10081300E0E493A3D39C5010E493A3C39C400AD079
:10082300E0D0E0D0E002073CA3A3A3D0E022C5823E
:100833002518C582C583351910AF07F519858218A8
:100843008007F519858218D2AFC58322C09FF59F13
:10085300E473D09F22D083D082C09FE493C0E0741E
:100863000193C0E0740293F59F222518F58210AF1F
:1008730008F518400215198008F51840021519D219
:10088300AF851983227404800A740380067402807E
:10089300027401C0E0F40412086DD0E0120AE622EB
:1008A300C0D0251810AF08F518500205198008F5B7
:1008B3001850020519D2AFD0D022BB0102E722C0E3
:1008C30082C08389828A83BB0003E08002E493D0E1
:1008D30083D082226016080808C6C313C618C6133D
:1008E300C618C613C618C613C6D5E0EA22C0E0C0B0
:1008F300D0E8C0E0E5A8D2AFC2C7A2E792AFD0E08C
:10090300F8D0D0D0E032C3E0C696F608A3E0C6968E
:10091300F608A3E0C696F608A3E0C696F622C0E062
:10092300E493A36C7009D0E0D0E0D0E002073CA3CD
:10093300A3D0E022251810AF08F51840021519803E
:1009430008F51840021519D2AF22E766701008099E
:10095300E766700A0809E76670040809E76622E09B
:1009630066701008A3E066700A08A3E066700408C6
:10097300A3E06622C3E09608A3E09608A3E09608E6
:10098300A3E096A2D265D03322C3E096F008A3E099
:1009930096F008A3E096F008A3E096F022E026F094
:1009A30008A3E036F008A3E036F008A3E036F0220F
:1009B300E627F60809E637F60809E637F60809E6F2
:1009C30037F622E026F608A3E036F608A3E036F66B
:1009D30008A3E036F622C0E0E8C0E0E58124FCF895
:1009E300E6A2E7D0E0F8D0E022E647F60809E647BA
:1009F300F60809E647F60809E647F622E657F60839
:100A030009E657F60809E657F60809E657F622E01D
:100A130056F608A3E056F608A3E056F608A3E056F8
:100A2300F622E056F008A3E056F008A3E056F008DB
:100A3300A3E056F022700422600D18C6C333C60823
:100A4300C633C6D5E0F41822E4C396F608E496F656
:100A530008E496F608E496F622600D08C6A2E713AA
:100A6300C618C613C6D5E0F322C6F4C608C6F4C634
:100A730008C6F4C608C6F4C622C3E7960809E79673
:100A83000809E7960809E79622C3E09608A3E096CB
:100A930008A3E09608A3E0962275D00075814075FF
:100AA30018017519030002049D600C08C6C313C620
:100AB30018C613C6D5E0F422E6F008A3E6F008A3AF
:100AC300E6F008A3E6F022E0F608A3E0F608A3E0C8
:100AD300F608A3E0F622C5822518C582C583351919
:100AE300C58322CAC0E0E6F0A308DAFAD0E0FA220E
:100AF300E0FAA3E0FBA3E0FCA3E0FD22EAF0A3EB12
:100B0300F0A3ECF0A3EDF022E5C754F84401F5C7D8
:100B13007901222518F582E43519F58322C2AF75D0
:100B2300D69F02000022120858ABB1011208584E9A
:100B3300B20112085899B301120858B7B301120849
:100B430058DE5D00120858F05D00120858425E003E
:100B5300120858A35E001208582D5F00120858D1DE
:100B63005F001208582560001208583E6000120802
:100B7300586460001208589F6000120858E3600030
:100B83001208580A61001208585B61001208580BDA
:100B93006200120858C362001208588B63001208DF
:100BA30058686400120858EE6400120858FD640087
:100BB30012085808650012085811660012085822D6
:100BC30066001208589866001208582A670012082F
:100BD300588267001208584868001208587968005C
:100BE300120858BE6800120858CB68001208585FF4
:100BF3006A00120858C26B00120858DE6C00120813
:100C030058486F00120858536F001208585D6F0060
:100C1300120858686F00120858726F001208587C47
:100C23006F00120858876F00120858926F0012085D
:100C330058C36F00120858E76F001208580B700072
:100C4300120858707000120858B47000120858D077
:100C530070001208584771001208587F710012087B
:100C630058CB71001208582872001208580A7400F1
:100C730012085890740012085861750012085871D0
:100C83007800120858C67800120858F27800120843
:100C9300583E7A001208588E7A00120858E37A00F8
:100CA300120858E47B001208587C7C00120858FE96
:100CB3007C001208589E7D0012085829260012084D
:100CC300586226001208583C28001208587B280056
:100CD300120858C528001208586A2900120858C972
:100CE3002900120858FD29001208586A2A00120820
:100CF30058872B001208588F2C00120858252D00F6
:100D03001208586C3000120858153100120858F1B7
:100D130031001208585232001208586F330012087B
:100D2300589935001208585036001208585A3600A0
:100D33001208588D3600120858543700120858EF1D
:100D430037001208585438001208587D380012082A
:100D5300589F3800120858CE3A00120858A53B0095
:100D6300120858E93B00120858563C001208581163
:100D73003D00120858433D00120858873D001208F1
:100D830058BA3D001208580F3E00120858643E003E
:100D9300120858F83E001208585A3F00120858C269
:100DA3003F001208586B41001208585342001208C2
:100DB30058954300120858C345001208588346004B
:100DC300120858B24800120858554900120858939F
:100DD30049001208583F4B00120858534B001208A1
:100DE300585D4B00120858874B00120858934B006C
:100DF300120858B24B00120858694C00120858A840
:100E03004C00120858B24C00120858664D001208E4
:100E130058654E001208585E4F00120858FB4F00E9
:100E23001208589D5000120858B45000120858EB8D
:100E330050001208580951001208584D5100120869
:100E430058725100120858585200120858C45200E0
:100E53001208583E53001208584D54001208588C7B
:100E63005500120858EE5500120858A856001208EB
:100E730058CB56001208589F5700120858EA5700DB
:100E83001208582C5800120858835800120858BAF0
:100E93005800120858E8580012085821590012083F
:100EA30058465900120858CE5900120858F15B00F1
:100EB300120858505C00120858E45C00120858509D
:100EC3005D00120858A45D0012085830B8031208D8
:100ED300586FB803120858FCB40112085856B501EC
:100EE300120858B2B501120858FEB5011208581974
:100EF300B6011208584AB60112085867B60112081B
:100F03005873B601120858E7B70112085800B80120
:100F130012085867B8011208587AB801120858889D
:100F2300B8011208583CB90112085820BA01120836
:100F33005826BB01120858ACBB01120858B6BB01B6
:100F430012085823BC011208583ABC011208586C05
:100F5300BC01120858A5BC01120858CFBC011208E5
:100F63005830BD0112085850BD011208586EBD011A
:100F7300120858B4BD01120858DABE0112085827E6
:100F8300BF0112085856BF01120858CCBF011208FE
:100F930058F4BF011208582DC0011208583BC00174
:100FA30012085893C001120858E2C00112085821D0
:100FB300C10112085851C1011208587DC10112081C
:100FC3005888C101120858A6C10112085868C20105
:100FD30012085872C201120858ADC201120858C350
:100FE300C201120858CCC20112085821C3011208C9
:100FF3005835C30112085843C40112085856C40196
:101003001208586BC4011208580DC50112085890F4
:10101300C5011208584EC60112085859C6011208D4
:10102300587FC7011208589BC701120858EDC70122
:101033001208582CC80112085841C80112085883D5
:10104300C801120858D0CA011208584ECB01120821
:1010530058C1CB01120858E3CD01120858FBCD014A
:10106300120858FECD011208580ACE011208581E64
:10107300CE0112085826CE0112085859CE01120883
:101083005809CF011208587FCF01120858F2CF0137
:10109300120858A6D0011208585BD1011208587AD9
:1010A300D1011208581AD20112085826D201120887
:1010B3005851D20112085854D201120858BED20115
:1010C300120858E6D301120858BED4011208584931
:1010D300D50112085862D6011208581FD701120809
:1010E3005858D70112085889D70112085829D8012E
:1010F30012085859D80112085834D901120858CD8A
:10110300D90112085858DA0112085809DB011208EC
:10111300588BDB01120858BDDB01120858FEDB01B6
:10112300120858E2C20212085847C3021208588430
:10113300C302120858D3C302120858E9C5021208A1
:1011430058CCC70212085836CB0212085871CB028A
:1011530012085893CB02120858F6CB021208582AE9
:10116300CC021208584DCC021208587ACC0212084D
:1011730058D6CC02120858CCAC021208584AAD0219
:1011830012085880AD02120858ECAD021208585FDD
:10119300AF021208587BAF02120858C0AF02120800
:1011A300584EB002120858A7B002120858D4B10220
:1011B300120858E6B20212085843B302120858AF95
:1011C300B30212085810B40212085851B40212089C
:1011D30058FEB40212085810B6021208583BB60261
:1011E30012085886B602120858CDB6021208585F84
:1011F300B7021208581AB80212085893AD0312081E
:1012030058A4AD03120858F5AD031208583AAE03BB
:10121300120858E4AE03120858D4B3031208585105
:101223007E00120858A97F0012085891B8021208CC
:101233005836B90212085856B90212085876B9023C
:101243001208588AB902120858E2B9021208581251
:10125300BA0212085893BB0212085839BC0212088A
:10126300581BBD021208586CBD02120858AFBD02CC
:10127300120858F2BD0212085858BE0212085879D3
:10128300BE0212085805BF0212085836BF021208E0
:1012930058AABF0212085858C10212085832C20293
:1012A30012085874C202120858CEC2021208587D9E
:1012B300A8031208589EA803120858D4A9031208B9
:1012C30058FEA903120858B1F00212085824F1027B
:1012D3001208582FF10212085858F1021208586DDB
:1012E300F2021208586EF4021208582CF502120882
:1012F300588FA00212085892A0021208584CA1025B
:1013030012085877A102120858BEA102120858E326
:10131300A10212085804A20212085838A2021208A5
:101323005871A2021208589AA302120858D1A302B4
:10133300120858F1A3021208588CA402120858513B
:10134300A50212085888A502120858FDA602120821
:1013530058A0A70212085899A802120858C2A80256
:1013630012085816A902120858DCA9021208580AD2
:10137300AA021208589FAB0212085820AC021208A6
:101383005853AC0212085822CD021208582CCD0231
:1013930012085878CD02120858E6CD0212085807F1
:1013A300CE021208581ECE021208585EA50112087A
:1013B3005862D1021208586BD102120858BED102EA
:1013C300120858E7D1021208584ED202120858DF09
:1013D300D20212085821D3021208586BD302120802
:1013E30058CAD3021208585BD4021208589AD4027E
:1013F300120858D9D4021208580ED50212085820E0
:10140300D50212085832D50212085858B0011208F2
:10141300585AD50212085810D60212085850D6024C
:10142300120858B48403120858878503120858A178
:101433008503120858B28503120858C78703120898
:1014430058E687031208584BA60312085881A603CF
:10145300120858CAA6031208581AA80312085833C8
:10146300DC0112085872DD01120858AEDD011208C2
:10147300586DDF0112085896DF0112085829E2015E
:101483001208586DE201120858F6E3011208588E4B
:10149300E401120858F6E40112085897E50112080E
:1014A30058D9E50112085819E601120858A4E701B2
:1014B30012085814E90112085839EB011208586749
:1014C300EB011208588EEB0112085897EB01120832
:1014D30058F2EB0112085885EC01120858A3EF01EA
:1014E30012085824F001120858E3B903120858E50A
:1014F300B7031208584990031208585C9003120866
:1015030058F990031208583491031208584F910365
:10151300120858749103120858B99103120858EA33
:1015230091031208581B9203120858A1930312083F
:10153300585CB00312085892B003120858AEB003B7
:10154300120858F0B00312085800B1031208589556
:10155300B1031208580CE602120858D3E602120827
:101563005857E8021208586BE8021208583BE90280
:1015730012085808EA02120858D8EA0212085881D9
:10158300F001120858D6F00112085880F101120830
:101593005828F20112085885F201120858DEF201A8
:1015A300120858A8F40112085823F5011208584DDF
:1015B300F5011208580AF70112085825F701120815
:1015C3005874F7011208588AF70112085897F7015F
:1015D300120858C7F701120858DDF70112085863BB
:1015E300F80112085872F801120858CBF8011208D2
:1015F3005825F90112085877F90112085881FA01A0
:1016030012085803FD011208589DFD01120858DF06
:10161300FD0112085874FE0112085891FE011208C8
:101623005894FE0112085897FE011208580AFF0148
:1016330012085825FF0112085851FF011208588C4F
:10164300FF011208588FFF01120858A2FF01120868
:1016530058C9FF0112085832B6031208583EB603A0
:1016630012085878B603120858BE9002120858E9B7
:101673009002120858B591021208583A92021208C1
:1016830058A39202120858EF92021208586E93025E
:101693001208580094021208588C9402120858CE6B
:1016A30094021208583A9902120858BA9A02120878
:1016B30058F99A02120858C29B02120858769C02E3
:1016C300120858269E02120858B29E0212085800A9
:1016D3008002120858BA80021208582C810212089C
:1016E300583B8102120858B581021208582482021D
:1016F3001208582E8302120858578302120858F70B
:101703008302120858458402120858B5840212084D
:1017130058E98502120858C586021208583687020E
:10172300120858B388021208587589021208581013
:101733008A021208586B8A02120858D68A021208C3
:1017430058DA8B021208589B8D021208583A8E02FF
:10175300120858AC8E02120858698F0212085801F9
:101763009A03120858559A03120858AD9A0312089F
:1017730058F89A031208585A9B03120858F39B030C
:101783001208585B9C03120858679C03120858F50B
:10179300A30312085826A403120858E0A40312084E
:1017A3005846A503120858B7A503120858309403E6
:1017B300120858BC9503120858C7B403120858D826
:1017C300B40312085878B5031208584EAA03120836
:1017D300585CAA03120858F9B903120858B5B6039E
:1017E300120858C5B603120858E0B6031208582861
:1017F300B703120858D2B20312085857B30312089A
:1018030058BBB303120858A6B903120858A9B90361
:10181300120858B5DF02120858C3DF021208580431
:10182300E00212085825E002120858AFE00212083D
:1018330058D1E0021208583DE10212085858E1025B
:1018430012085873E1021208587DE1021208588702
:10185300E1021208589AE102120858B3E102120891
:10186300584FE2021208580BE30212085882E302AF
:10187300120858FCE30212085862E4021208583FA7
:1018830089031208584D8903120858C7890312089F
:1018930058AB8A03120858648C0312085884B9039E
:1018A3001208587CEB02120858E9EB02120858AAF6
:1018B300EC021208581AED0212085823EE0212081D
:1018C300589BEF02120858FFEF0212085854F00217
:1018D3001208585DF0021208586CF0021208587F83
:1018E300F00212085895F0021208589EF0021208EE
:1018F300587BF502120858D0F502120858CCF702AB
:10190300120858FEF70212085820F8021208583934
:10191300F80212085852F8021208585CF902120829
:1019230058F7F902120858FBAE031208581FAF0309
:1019330012085838AF031208586BAF031208589CAB
:10194300AF03120858CAAF031208582CB003120889
:10195300583BB00312085845B00312085852B0035D
:10196300120858A29C03120858C89C031208580571
:101973009D03120858149D03120858339D0312083F
:10198300589B9D03120858A49D03120858039E03F5
:10199300120858279E03120858E69E03120858F3AC
:1019A3009E03120858049F03120858BDB803120877
:1019B30058DAB8031208586EFA02120858CCFB0220
:1019C300120858D9FB02120858ECFB021208580BF4
:1019D300FC0212085821FC0212085835FC021208B6
:1019E30058AAFC021208580FFD02120858BFFD0244
:1019F30012085894FE02120858A4FE02120858B3A3
:101A0300FE0212085899B503120858BDB50312080F
:101A130058E5B5031208580DB603120858329F0350
:101A2300120858599F031208587A9F03120858DF67
:101A33009F0312085898A103120858B1A103120872
:101A430058BDA103120858D1A103120858EFA103EE
:101A5300120858F9A10312085803A20312085816D2
:101A6300A20312085869A203120858A2A20312087B
:101A730058D1A2031208581FA3031208586EA303D8
:101A830012085889A30312085893A303120858A4F1
:101A9300A303120858EAA30312085894B7031208C1
:101AA3005879D602120858A3D602120858BFD60294
:101AB300120858D2D602120858E8D602120858451E
:101AC300D70212085878D702120858B4DB0212085A
:101AD30058DADC021208580DDD0212085859DD02EB
:101AE30012085885DE02120858ADDE02120858C2E9
:101AF300DE02120858D2DE0212085816DF0212085C
:101B03005877DF0212085887DF021208589FB10383
:101B1300120858BAB103120858E3B103120858FD6A
:101B2300B10312085822B20312085841B203120833
:101B33005859B20312085887B203120858A1B203C6
:101B430012085879B803120858C98C03120858D0E0
:101B53008C03120858DC8D031208580C8E031208EC
:101B630058328E03120858558E03120858778E0385
:101B7300120858B18E03120858178F0312085850D1
:101B83008F031208589C8F03120858C98F03120839
:101B930058E98F0312085806AC0312085818AC030F
:101BA30012085803AD0312085890AD03120858ECFD
:101BB300FE021208585EFF021208589CFF02120828
:101BC30058DDFF02120858E19603120858FD9603E8
:101BD3001208584C9703120858689703120858992B
:101BE3009703120858A997031208589598031208E7
:101BF300589F9803120858AC9803120858BC9903CD
:101C0300120858D09903120858D99903120858009A
:101C130080031208584584031208584A84031208A3
:101C2300582FB903120858F9B8031208585CB903BE
:101C3300120858C5B90312085831B70312085832AD
:101C4300A40112085886A301120858D7A10112084B
:101C530058929F01120858199F01120858C09E01FB
:101C6300120858549E011208582B9E011208581E40
:101C73009C01120858EA9B01120858B79B011208ED
:101C8300589B9B01120858C19A01120858799A016E
:101C9300120858AE98011208582E98011208582BB2
:101CA3009801120858329701120858009701120838
:101CB300583D9601120858689401120858F9930187
:101CC30012085809AE0112085812AD01120858F64D
:101CD300AC01120858A2AC011208585AAC01120800
:101CE30058CB9301120858C89301120858B59301B1
:101CF3001208584D930112085898AB011208583C2A
:101D030093011208581D9201120858E79101120815
:101D130058AA91011208584B91011208580BAB01B4
:101D2300120858FEAA0112085851D5021208581A6F
:101D33009101120858D58D01120858C68C0112085A
:101D430058558C011208581A8C01120858E58B015A
:101D5300120858D98B01120858398B011208588080
:101D63008A01120858538801120858DF85011208A6
:101D7300589D85011208586884011208581D840172
:101D83001208584F8301120858A6820112085842BC
:101D930082011208587C82011208580CA80112080B
:101DA30058CECE0200000080FBE473000000000068
:101DB30000000000000000000000001010101010D0
:101DC3001000003030000000142850000000000014
:101DD30000000000000000002828FC284850FC50A8
:101DE3005000000000103854543018145454381064
:101DF3000000000044A8A8B0541A2A2A4400000096
:101E0300000020505060ACA898927C0000006060F5
:101E130020C00000000000000000000004080810BB
:101E230010101010100808040000004020100804CF
:101E3300081020400000000000001010D63838D6EB
:101E43001010000000000000101010FE1010100011
:101E5300000000000000000000000000006060209F
:101E6300C0000000000000FC0000000000000000B3
:101E73000000000000000000006060000000020499
:101E830004040808101020202040000000003048FF
:101E93008484848484483000000000001070101093
:101EA300101010107C000000000038444404081097
:101EB30020447C00000000003844441804044444D7
:101EC3003800000000080818284848887C081C00CF
:101ED300000000007C404078440444443800000083
:101EE30000003C4480B8C48484847800000000006F
:101EF3007C44480810101010100000000000788483
:101F03008448788484847800000000007884848482
:101F13008C740488F00000000000000030300000E2
:101F2300003030000000000000000010000000003E
:101F330010102000000408102040201008040000A6
:101F4300000000000000FC0000FC00000000000096
:101F53000040201008040810204000000000007812
:101F630084848408101000303000000000003844DE
:101F73009AAAAAAAB4423C00000000001010282824
:101F830028384444EE0000000000F84444784444F8
:101F93004444F800000000003C4484808080804476
:101FA300380000000000F048444444444448F00032
:101FB30000000000FC44404878484044FC00000016
:101FC3000000FC42404878484040E0000000000028
:101FD3003C448480808E8444380000000000EE443A
:101FE30044447C444444EE00000000007C10101084
:101FF300101010107C00000000007C101010101056
:1020030010101090E0000000EE444850704848441F
:10201300EE0000000000E040404040404044FC002F
:1020230000000000EE6C6C6C54545454D600000055
:102033000000EE64645454544C4CE400000000006F
:102043003048848484848448300000000000F844CD
:10205300444478404040E00000000000304884845D
:102063008484B448380C00000000F8444478504895
:102073004844E600000000003C44402018040444A7
:10208300780000000000FE921010101010103800AD
:1020930000000000EE44444444444444380000003B
:1020A3000000EE44442828282810100000000000F7
:1020B300D6545454546C2828280000000000EE44E1
:1020C300282810282844EE0000000000EE442828A9
:1020D300101010103800000000007C880810202029
:1020E3004044FC0000001C101010101010101010C1
:1020F300101C000070101010101010101010107031
:10210300000070101010101010101010107000004C
:102113001028000000000000000000000000000084
:1021230000000000000000000000FE00606020C00E
:102133000000000000000000000000000000003864
:10214300441C24443E0000000000C0404078444446
:1021530044447800000000000000003C4440404438
:102163003800000000000C04043C444444443E0096
:102173000000000000000038447C404438000000A8
:1021830000001C2420F820202020780000000000FC
:102193000000003C48483040784438000000C0400C
:1021A300405864444444EE000000000010000070F6
:1021B300101010107C000000000008000038080810
:1021C3000808080870000000C040405C4850704890
:1021D300EC000000000070101010101010107C00B4
:1021E30000000000000000F854545454D6000000CE
:1021F3000000000000D864444444EE0000000000E6
:10220300000000384444444438000000000000004B
:1022130000F8444444447840E00000000000003CDF
:10222300444444443C040E000000000000EC302011
:102233002020F800000000000000003C4430084467
:102243007800000000000010107C101010100C002B
:1022530000000000000000CC444444443E00000061
:102263000000000000EE44282828100000000000B1
:10227300000000D654545428280000000000000039
:1022830000DC48303048EC0000000000000000EEA5
:10229300442828101020E00000000000007C4810B3
:1022A30010247C00001010101010101010101010CB
:1022B3001010100001363601010001020100010374
:1022C30001000104010606050200000701003408AD
:1022D30001000F090401010D0100FF0E08000017A2
:1022E300020000190100FF1A0100011B0100FE1C7E
:1022F3000100081D0200001F01000120010001214F
:102303000200002301000F24020000260100012720
:10231300010008280200FF2A0100072B0102402CBC
:102323000100002D0100012E0100012F0100FF30EB
:10233300010B1C310800003A0100083B01000F2F7C
:1023430001000003027102300160021102700201F8
:1023530002020202028002100261023A004100639B
:102363000273027202620243020002130238000087
:102373000200020402120200020002000200020430
:10238300020402370037003C024402000239000015
:102393000200026502000235028102000205028288
:1023A300028302000203007100300160001100701B
:1023B300003102200350048000100061000000146B
:1023C3000063007300720062004300000013000604
:1023D30000000000000400120000000000000000E4
:1023E3000004000400370037003C024400000000F2
:1023F30000000000006500000035008100000005BA
:1024030000000083000000010371030103010301C5
:10241300030103010322030203010310030003006A
:10242300030003000300030003000342030003242B
:1024330003060300030003040312032503230325F8
:102443000323030403040300030003000344030002
:102453000300032303000365032100350381030005
:1024630003050300030003000301017101010101DE
:10247300011101010131010101010180011001611B
:10248300013B001400630173017201620143010007
:1024930001130106013D0135000401120100010091
:1024A300010001000104010401330133013C014433
:1024B3000132013600000100016501000135008190
:1024C30001000105018201830100013600010006BC
:1024D3000000000F000000000000000000000000EA
:1024E3000003FFFF00000403FFFF0000FFFF0FF4E2
:1024F300010005C4040320000100030B00000000D9
:102503000000000003010F01000B170200811603F6
:1025130000871604008D160500931606009F1611FA
:1025230000B7161400BD161500B116FFFF000073A7
:102533000FA30F790F7F0F9D0F910F8B0FA90FAF74
:102543000FB50FC10F850F6D0F670F03EAF5E5D5C3
:10255300D5C5B5A595958585757565655555454568
:10256300353525251515050A3F0D02090D051B0DEA
:10257300070F0D0CEB0C0DFD0CFF000000160F00F8
:10258300000B150B020002220F320000065D106FD4
:102593001075103D0F7B10370F430FBD10DB10E19B
:1025A30010C310CF10C91000034948424D18172516
:1025B30005020C0E020B040B0A0708000F00011999
:1025C300161816161523030000383C3E363B3B35E0
:1025D3002B432C303016181920231A1C1E30303090
:1025E30017181921301B1D1F30970FBB0FD510C7AC
:1025F3000FCD0FB1108110871093108D10020402BC
:1026030001010101090200000000000000BE040AEC
:102613000E00150004002800050C0A030908FF1E1C
:102623001E0F0404100C74F712037AE99003B0F040
:10263300900365E4F0121B979003B5E4F0A3F090C8
:1026430003B1F0A3F0120E77121B9D900334E4F054
:10265300A3F090262493FA7902121BFD0252BF7451
:10266300F212037AEAFEEBFF548060699003B0E054
:10267300F91213C98A088B09EA4509604F7C008067
:10268300010CEC75F003A4F8A9F0746A28F58274C0
:102693002539F583E493F4602CE493F88508828B61
:1026A30083E06870DCAA08EC75F003A4F8746B2867
:1026B300F582742539F583E493C0E0740193F583BF
:1026C300D082121DACAA08AB091213BDEEFAEF6457
:1026D30080FB02282FEF5420601D120D998A088B6E
:1026E30009EA4509600A120CFDAA08AB091213BDD9
:1026F300EEFAEF642080DAEEA2E0501A90036AE06B
:10270300640F700B7900120CC7E96003122832EED4
:102713006401FAEF80BB542070030227FD750C009F
:10272300123D048B09EA450970107C027D007A2072
:102733007B009003B0E0F91215137C0079047A0052
:102743007B00120D758A088B09801885088285091C
:1027530083A3A3A3A3A3A3A3A3A37401F0850A083C
:10276300850B09E5084509606D7C007904AA08AB6F
:1027730009120D758A0A8B0B750C01E5082404F800
:10278300E509123AA824FFF0A3E034FF125D9B7021
:10279300CC850882850983A3A3A3A3A3A3A3A3A38F
:1027A300A3E0640170A5850882850983A3A3A3A37D
:1027B300A3A3E054047094850882850983A3A3A38B
:1027C300A3A3A3A3A3A37406F07AB78508828509FC
:1027D3008312295E8087120D457C0079017A007B84
:1027E30000120D758B09EA45097009E50C70057A2D
:1027F30020124C5EEE6420022715EF5402600B1288
:102803000E71EEFAEF64020226D4EF54046019123B
:102813004DF5124D157901900363125079120C0D89
:10282300EEFAEF64040226D47A007B00022A659054
:102833000CF31230FC120CDF22C082C08374EA1244
:102843000937851882851983AA82AB83794B121BBA
:10285300D37408120B167402F07409120B16AA82B1
:10286300AB837950121BD37413120B16E412524824
:10287300121BF1741602422274F712037A74E112E6
:102883000937EAFEEBFFEE4F603385188285198323
:10289300AC82AD83120DBD7406120B16E0601E747C
:1028A30017120B16E0FD7401120B16E0FCEEFAEFA3
:1028B300FB7900120B35E9600479A48002790002E8
:1028C30052BA74F612037AEAFEEBFF8E828F83A369
:1028D300A3A3A3A3A3E05440601B125737122A2CCF
:1028E30060067AFF7BFF801A8E828F83123EAEFAD8
:1028F300A3E0FB8003120DE174FE6A700374FF6BA7
:102903006041125737124CA2120E35E98E828F8323
:102913006006122957E480051229577401F07CCD13
:102923007D0C8E828F83125079121BF7E9F50870A4
:1029330015EE4F60097901EEFAEFFB120D51A9086C
:10294300024CD37508CDAA088E828F8312295EE9C3
:1029530060DF80EAE0240D12437D22E0240C124361
:102963007DE0F9120CD92274F612037AE9FEEAFF2C
:102973007A0F7B001213B7EA4B60198A828B837438
:102983000CF0EEA3A3F0EF8A828B83A3F0124CFE2C
:102993007900802FEEF9120D7B8A088B09A808A90C
:1029A30009E849601C88828983A3A3A3A3A3A3A3E3
:1029B300A3A374061259C2E0F9120C91EEF9120D99
:1029C300577910024CD3C082C08390036AE0640F2E
:1029D3007014EA4B6010900365E064086005E064DE
:1029E3000470031229EC02424CEAFCEBFD7A017BF2
:1029F300009003B0E0F912150D22C082C083790064
:102A0300EA241DF582EB123EAB24FD600B14600833
:102A130024FD600424FD70010902424C8E828F83E1
:102A2300A3A3A3A3A3A3A3A3A3122A3022123EF317
:102A3300FB120E35E9228E828F83A3A3A3A3A3A344
:102A4300A3A3A3122A306402228E828F83A3A3A39B
:102A5300A3A3A3A3A3A3124243900356E0682212A5
:102A630008A37F060205DB74F412037A74FD1209CE
:102A7300378A088B098A828B83A3A3E0F9120D7B23
:102A83008A0A8B0BAE0AAF0BEE4F7003022B7185D4
:102A93000882850983A3E064F16030850882850993
:102AA30083A3E064CD6024850882850983A3E06461
:102AB3001A6018850882850983A3E064E9600C85A0
:102AC3000882850983A3E064E170087900120D513F
:102AD300E9706C850882850983A3E0C0E074021263
:102AE3000B16D0E0124227EEF0A3EF1235528518F1
:102AF30082851983AA82AB837005120BF5800312BA
:102B03000E1D7402120B16E064E970338E828F83FC
:102B1300122B7D750A01780A120894750AE9780A5E
:102B2300120894E508240CF582E5091230441235A5
:102B33002FFCA3E0FD8A828B831235491208A38EF2
:102B4300828F83A3A3A3A3A3A3A3A3A3E06402707D
:102B5300108E828F83A3A3A3A3A3A3A3A3A374060B
:102B6300F0850882850983A3A3E0F9120D57120D9E
:102B730045900CF7122835023101E0F8A3E0F9E89B
:102B8300FAE9FB2274F412037AEAFEEBFF750800FC
:102B93008E828F83A3A3A3A3A3E060427508088E4C
:102BA300828F83A3A3A3A3A3A3A3A31241568B0B37
:102BB300EA450B601075082C8E828F83A3A3A3A311
:102BC300A3E0D2E0F08E828F83A3A3A3A3A3E05458
:102BD3000364016003022C70430811022C70EE247D
:102BE3001812310E6033EE241A12310E700F122AAE
:102BF3004C7003A3E06970757508228070EE241B86
:102C0300F582EF122C75241AF582EF12355AEE2451
:102C13001912576B120C7F8054122A3970037508EE
:102C230001122A4C7003A3E0697006E508D2E1F5AE
:102C330008E50860158E828F83A3A3E07006E5087C
:102C4300D2E58004E508D2E6F508122A1F64017074
:102C530006E508D2E0F5088E828F83A3A3E0600D1A
:102C6300122C8364016006E508C2E0F508A9080296
:102C73003106123E99122C7C22E0FCA3E0FDEE22E9
:102C8300123E93123ECBF9120E23E922C082C08377
:102C930079018A828B83A3A3E0C394024001198A3A
:102CA300828B83A3A3A3A3E0C39402400279008A87
:102CB300828B83A3A3A3A3A3A3A3A3A3E064F8701A
:102CC30003A3E0F460458A828B83A3A3A3A3A3A3F6
:102CD300A3A3A3E064F97003A3E0F4602E8A828BBC
:102CE30083A3A3A3A3A3A3A3A3A3E064FA7003A34F
:102CF300E0F460178A828B83A3A3A3A3A3A3A3A354
:102D0300A3E064FB7003A3E0F4700279008A828B72
:102D130083A3A3A3E0F8900353E068600279000261
:102D2300424C74F012037A74DE120937EAFEEBFFA9
:102D33008E828F83A3A3A3A3E0600E900CF5124CA5
:102D4300CA6006900CF51228357403120B16AC8278
:102D5300AD838E828F83A3A3A3124D4C125585E9B5
:102D6300600F7403120B16AA82AB83120CF7E9707F
:102D7300087901121BA9023039EE241B123E9E74FE
:102D830010120B16124D157409120B16E060217404
:102D93001A120B16E0FD7404120B16E0FC8E828FE0
:102DA300831250777901120B35E96004790280C3ED
:102DB3007403120B16AA82AB83120CF1E9F50A74A1
:102DC30009120B16E0702A90034DE060247422551B
:102DD3000A6422601C7442550A644270CF74201244
:102DE3000B16123057600A7420120B1612305070F3
:102DF300BBE9A2E650417403120B16AA82AB8312FD
:102E03000CE5E97003022D747420120B16123EAE0A
:102E13006403700F7420120B16A3124CBCA3E0645E
:102E23000D60147403120B16AA82AB83120E47E9CA
:102E330064017003023039EE242C123041123365E1
:102E43007003A3E069701C75080078081208947871
:102E530008120894EE242E12576B12305D12354976
:102E63001208A37409120B16E07003022F16123016
:102E73005D125079120E9B8A088B09EA450970038B
:102E8300022FB37404120B16E0F88E828F83A3A370
:102E9300E028F8A3E03400F9E8240D1230488A82D0
:102EA3008B83A3A3A3E068601CE88A828B83A3A31C
:102EB300A3F0908208120AF3850882850983A3A3ED
:102EC300A3A3120AFF7904E9120B161255622AF81A
:102ED300A3E034008882F583A3AA82AB831213A5EF
:102EE3008A0C8B0D8C0E8D0F850882850983A3A315
:102EF300A3A3780C1207F340030230399081FC78C6
:102F03000C1209C6850882850983A3A3A3A3780CA1
:102F1300120ABB900365E064046008E0640960037F
:102F2300023039E50AA2E54003022FF1EE242E1206
:102F3300310E851882851983F0EE242F12310EC0CD
:102F4300E07401120B16D0E0F0EE243012310EC003
:102F5300E07402120B16D0E0F07414120B16E06446
:102F6300017027740E120B16123EA4EE24121231B6
:102F73000E687003A3E0697011740C120B16122A09
:102F83004670077414120B16E4F0EE242412304139
:102F93001206967404120B16AC82AD837407120BDF
:102FA30016AA82AB83120BFB74041208A3023039F6
:102FB3009003AAE064016003022F167420120B161B
:102FC3001230577009E50AA2E65003022F16741057
:102FD300120B16E0F47003A3E0F4605AEEFCEFFD6D
:102FE3007403120B16AA82AB83120D038048A2E668
:102FF30050447420120B16125088701A741A120B54
:1030030016E0640270307403120B16AA82AB837944
:1030130000120E1180207420120B161230507016FD
:10302300741A120B16E06404700C7403120B16AAC4
:1030330082AB83120E0B7422025434EE240BF582FE
:10304300EF123E9922F582E9124D2EF822125749CA
:10305300E0640722123ECB640622EE242A123E9637
:10306300122C7C2412123E962274F412037AEAFE86
:10307300EBFF8C088D099005DBE0600F122A4C7082
:1030830003A3E0697005120C6D804F790012506C38
:10309300120C9D8A828B83E58245836035A3A3A3AB
:1030A300A3A3A3E05418602AE508241BF582E509CD
:1030B30012304412069A12374212304412069AEE24
:1030C300241812576B1230DF120CAF74041208A3CA
:1030D300800879001230DF120C7380278E828F8371
:1030E300A3A3A3A3A3A3A3A3A3122C7C240BF582C2
:1030F300EF1230F8223400F583123EF3FB227403FF
:103103001208A37F040205DBEE2417F582EF124DAC
:103113002E2274F712037A74F7120937EAFEEBFFD3
:10312300900365E06403600DE064016008E06409F6
:1031330060030231DF8E828F83A3E0707E7C007D8B
:10314300007A027B00121BA3EE2402FAEF123AAFBD
:10315300123EA4900356124D157953121BD97900D0
:103163001231E4E06409600312357785188285190A
:10317300837401124CEB9003657404F07401120B19
:1031830016AA82AB83794A121BD37401120B16ACB5
:1031930082AD837A5B7B03121BC190035612557B6E
:1031A3007A03123581900350E0A2E35004D2F080F9
:1031B30002C2F0124CD8122832801E8E828F83A353
:1031C300AE82AF83FC7D007A037B10121BA38E8239
:1031D3008F83E0F91231E4E4F0120D2D74090252E9
:1031E300BC9003631230FC120C0D90036522C08265
:1031F300C083900334124CCA701F900365E01460BF
:103203000924FC600A14600C800F90033C80329008
:103213000338802D90033A8028E8496008900335ED
:10322300123529700C8A828B83A3E0F9120C01807A
:103233001B9003351237DE7005120E65800E900366
:10324300D2124CCA6006124CBC121DAC02424C7422
:10325300F412037A74FB1209378A088B097A0F7BFD
:10326300001213B78A0A8B0BAE0AAF0BEE4F700333
:103273000233598E828F831252467950121BD385A3
:103283000882850983A3E06003023341900363E06E
:10329300F47003A3E0F46034900363E064FE70030E
:1032A300A3E0F460278518828519831233657003C0
:1032B300A3E0696017850882850983A374EA123540
:1032C3005F7A637B037950121BD9807285188285DC
:1032D300198312572A124D157A567B037953121B01
:1032E300D3900356124D46124D157A597B03794BF1
:1032F300121BD37A587B0379E1121BD390036AE044
:10330300C3940F5021900358E0C0E07402120B16CF
:10331300D0E0F07404120B167401F004120B16AA19
:1033230082AB83121BEB750A00780A120894780AA1
:10333300120894900D1FE0F91235401208A3850876
:103343008285098312335EA3F09003657403F0EE64
:10335300FAEFFB124CFE7405023103A3E08E828F59
:10336300832212572EE068221243842274F512033B
:103373007A74D81209378A088B098A828B83A3A3AC
:10338300A3123ED07415120B16AC82AD838A828BC6
:1033930083A3A3A3A3A3A3A3A312352FFAA3E0FBA1
:1033A300120D337415120B16E0706B8508828509B4
:1033B30083A3A3A3A3A3A3A3A3E0C3940B40578E08
:1033C300828F83A3A3A3A3A3A3A3A3E06402704652
:1033D300EE240B12310EF4703D900365E06402603D
:1033E3003AE064066035900334124CCA6005123526
:1033F30029604F900365E064086005E0640470167B
:103403007417120B16E0F9741C120B16AC82AD8301
:1034130012506C120D397428025C48900334124C1C
:10342300CA701F7508007808120894780812089467
:10343300EE2410123041125783123B971235491272
:1034430008A38E828F83124FE8123AC1123EA474EE
:1034530002120B16124D15EE240D12310EC0E0743C
:1034630004120B16D0E0123552F508A3E0F50974E7
:103473000F7808120AAC7405120B16E508F07419DC
:10348300120B16E0C0E07406120B16D0E0F0741BAA
:10349300120B16E0C0E07407120B16D0E0F074169E
:1034A300120B16E0C0E07409120B16D0E0F074178B
:1034B300120B16E0C0E07408120B16D0E0F0EE24F5
:1034C3001012310EC0E0740A120B16D0E0F0741A19
:1034D300120B16E0C0E0740B120B16D0E0F0742749
:1034E300120B16E0C0E0740C120B16D0E0F0741C43
:1034F300120B16A982AA8389088A09750A0078081B
:1035030012088C7C087D007410120B16AA82AB8300
:103513001248791208A3851882851983AA82AB837E
:10352300120C070234191237E4640122E0F98A828B
:103533008B83A3A3A3A3A3A3A3A3A3E022900363C7
:1035430012557F9003591230FC120DF3740222F0CE
:10355300EE240B124D2B22124D2EFA22F07A567BBB
:1035630003795312356A22121BD97A597B03794B9B
:10357300121BD9229003631230FC120E95227B009A
:10358300121BA390035912557F7A047B00121BA3CD
:1035930022F012578E2274F212037A74F81209374A
:1035A300EAFEEBFF8C0A8D0B890C85188285198343
:1035B300AC82AD837583817582D774081207B3F526
:1035C3000DEEFCEFFD851882851983AA82AB831269
:1035D3004F497003750D019003B1803BEEFCEFFD85
:1035E300E508240BFAE5093400124F48601E8508EC
:1035F30082850983A3A3E0650C7011850882850980
:1036030083E0650A7004A3E0650B6038E5082414C1
:10361300F582E509123044123AB9E50845096024F8
:10362300E50DA2E040B6850882850983E0650A704E
:1036330004A3E0650B70D5850882850983A3A3E005
:10364300650C70C8AA08AB097408022A62C082C05C
:10365300839003B102424974F712037A9003B112C3
:103663003EF38012EA2414F582EB123044123ED06A
:10367300121459EEFAEFFBEA4B70E99003B1E4F050
:10368300A3F00252BF7F070205DB74F112037AEA4B
:10369300FEEBFF890A8C088D098E828F83E08C8272
:1036A3008D83124160AE82AF83E01249391248AA7A
:1036B300C412493912374BE054038C828D8312486C
:1036C300A8A2E2E4338C828D831248A71313135408
:1036D3001F1249391248A6A2E7E4338C828D83A3D3
:1036E300A3A3A312374B8E0C8F0D750E00780C120B
:1036F300088C7C087D00E50824071254EE1208A309
:103703001255598E0C8F0D780C12088C7C037D009A
:10371300E508240F1254EE1208A3E50AC3940F40E0
:10372300148E828F83A3A3A3E0C0E012374212302A
:1037330044D0E080061237421259B6F0023688E5CB
:10374300082412F582E50922A3A31241640EAF8374
:103753002274F412037A74F9120937EAFEEBFF8933
:1037630008900334124CCA600E1237DE7009EEFA69
:10377300EFFB120E5F805F900363E06E7003A3E0C4
:103783006F70537401650860097A777B03124F49A0
:1037930070447A007B02123D088B0BEA450B7036AE
:1037A300900366120AF3851882851983120AFF9023
:1037B300036CE0C0E07404120B16D0E0F074051241
:1037C3000B167401F07406120B16125246120BD12B
:1037D300E9609B120BD774070231031237E46402CA
:1037E3002212574AA3A3A3A3A3A3E02274F51203AF
:1037F3007A8A088B098A828B83A3AE82AF83E0F92E
:10380300120C258E828F83E064EB600C8508828521
:103813000983A3E064E17009850882850983A3E431
:10382300F0122832750A01780A12089485088285F5
:103833000983A3E0F508780812089479001235404B
:103843001208A3120D45025C4BEAF0A3EBF002420F
:103853004C74F612037A9003B4E0701B7C00790178
:103863007A007B00120D75EA4B600C8A828B8312FF
:103873004CCA6003120CD3024CD3C082C083123CE7
:10388300F0401079FF120D6FE9F8902628E493C3F6
:1038930098500479018002790002424C74F01203BB
:1038A3007A8A088B09890B750C008A828B83A3A300
:1038B300A3A3A3A3A3A3E0F9120D7B8A0E8B0FAEE0
:1038C3000EAF0F750A01EE4F600302397D85088242
:1038D300850983A3A3A3A3A3A312557B850882858C
:1038E3000983A3A3A3A3A3A3A31246791250791216
:1038F3000D638A0C8B0DAE0CAF0DEE4F7003023AC5
:10390300A08E828F83A3A3A3A3E4F0A3F0E50824EE
:103913000B123AACE0C0E012303ED0E0F0120E3BA6
:10392300EE240CF582EF124C9EE508240EF582E599
:1039330009123EA1EE240EF582EF124D12750C0111
:10394300EE2406F8EF123AA8547FF0A3E054FC12D9
:1039530057E0E054046003023A03900CFB12466AFA
:1039630074077808120A388E828F83A3A3A3A3A3B4
:10397300A3E04508F0A3E04509F08E828F83A3A35B
:10398300A3A3123AB774077808120AACE5085407E0
:10399300F508E50B607A8E828F83A3A3A3A3A3A369
:1039A300A3A3A374021248AB240D124379E0A2E24D
:1039B300500B900351124D46A3A3124D15E5087009
:1039C30003023A75EE2406F8EF3400F9E8FAE9FB4E
:1039D3008A828B83E0547FFCA3E054FCFDE508243A
:1039E300FFF508E434FFF50974077808120A38EC88
:1039F3004508F8ED4509F98A828B83124D158072CB
:103A03008E828F83A3A3A3A3A3A3E0448002397C64
:103A1300E5087005750A0080598E828F83A3A3A3DE
:103A2300A3A3A3E0542060121213B1EA547F245FCE
:103A33008E828F83A3A3A3A380238E828F83A3A3CA
:103A4300A3A3A3A3E05410600A1213B1EA540F24F2
:103A53000A80DD8E828F83A3A3A3A37401F0A3E462
:103A6300123AC17404123CFF8B09EA450970031230
:103A73004C91E50CA2E050288E828F83A3A3A3A3CD
:103A83001252ACF9EEFAEFFB120D69E96012124C17
:103A9300C06003123E89EEFAEFFB121459750A0057
:103AA300A90A025437124E0922FAE5093400FB8AA7
:103AB300828B8322A3A3E0F508A3E0F50922123A3F
:103AC300C52212550AA3A3A3A3A32274F412037A53
:103AD30074F71209377E00120D7BEA4B7003023B29
:103AE300908A828B83A3A3A3A3A3A3A3A3A3E0642A
:103AF300066003023B908A828B83A3A3A3A3A3A3A1
:103B0300A3E0FF8A828B8312438CE0C0E074081227
:103B13000B16D0E0123EC4124F4F124D15120D8DED
:103B2300EF5408606685188285198312557B7A00E5
:103B33007B00120D5D8B0BEA450B704F90036312F4
:103B43003FB4121C037C007D007A007B0080288E2A
:103B5300828F83123EAEF47003A3E0F4602D9003D2
:103B630063123B971250791218F7E9641A601C7CB0
:103B7300007D00EEFAEFFB120D5D8A0A8B0BAE0A95
:103B8300AF0BEE4F70C97900121C097E01EEF97478
:103B930009023103123B9B22E0FCA3E0FD8E828FDE
:103BA3008322C082C083EA4B70059003B580068AE6
:103BB300828B83A3A3123DB460258A828B83A3A344
:103BC300A3A3A3A3A3E0540860E5EC4D60158A8288
:103BD3008B83123EAE6C7003A3E06D70D280047AC7
:103BE300007B0002424C74F212037AEAFEEBFF8977
:103BF3000A8C088D097A107B00121453EA4B603F3C
:103C03008A828B83A3A3A3A3A3A3A3A3A3E4123EA8
:103C1300B2A3E50A125750A3123C4C8A828B83A3AA
:103C2300A3A3A3E4F0A3123EBEA3F01255E4EA2437
:103C33000CF582EB124150123C45A3A3F0A3F00212
:103C43002A65A3F08A828B8322A3A3E508F0A3E568
:103C530009F02274F412037AEAFEEBFF89088C0A56
:103C63008D0BEE4F60557401650870147901120DC8
:103C73006FE9F8902620E493C398500F7911806A76
:103C830074046508702F123CF040F18E828F83A379
:103C9300A3A3A3A3A3A3A3A3E508124160A3125C58
:103CA300D58E828F83A3A3E4F0A3F09003B5124CC7
:103CB300CA6021800D7402650860D079C1802BE051
:103CC300F8A3124D3FA3A3123DB488828983A3A313
:103CD30070ED80039003B5EEF0A3EF123CFF8B0B66
:103CE300EA450B7003124C917900023106790412F4
:103CF3000D6FE9F890261BE493C39822F0123D045C
:103D0300227A207B009003B0E0F912151F22C082B3
:103D1300C083E9F879009003B5801D8A828B83A361
:103D2300A3A3A3A3A3A3A3A3E068600574FF687080
:103D330001098A828B83A3A3123DB470DE02424C35
:103D430074F712037AEA4B70059003B580068A82F2
:103D53008B83A3A3123DB460248A828B83A3A3A382
:103D6300A3A3A3A3A3A3E06970E4EC60148A828BEA
:103D730083E0240D12556CA2E240D380047A007BC9
:103D8300000252BFC082C0839003B580068A828B33
:103D930083A3A3123DB460128A828B83A3A3A3A33C
:103DA300A3A3A3A3E06970E580047A007B00024229
:103DB3004C1230FCEA4B2274F212037A8A0A8B0B00
:103DC3008C0C8D0D750800750900EA450B602E906B
:103DD30003B580068E828F83A3A3123E07601EACB9
:103DE3000CAD0DEEFAEFFB850A82850B83121DAC39
:103DF300E9640170DFEEF8EFF988088909AA08ABD6
:103E030009022A65E0FEA3E0FFEE4F2274F71203D6
:103E13007A9003B5123EA47C007D00800DE8FCE996
:103E2300FD88828983A3A3123EA4E8496030EA682F
:103E33007002EB6970E79003B5125079E86A70027B
:103E4300E96B88828983A3A37008123EA49003B50B
:103E53008009123EA48C828D83A3A3124D150252B6
:103E6300BF74F712037AEAFEEBFFEE4F6015120DF3
:103E730087123ED6124CC06003123E89EEFAEFFB66
:103E83001214590252BFEE240C123E96123EEB223C
:103E9300EE241DF582EF3400F58322F582EF123E06
:103EA3009912424322F582EF123E99123ECB22121F
:103EB3003EB622125758A3A3A3A322123EB6A3A32E
:103EC30022123C46123ECB22125743E022E0FEA3CD
:103ED300E0FF228E828F83E0241C12437D123EEB8F
:103EE3008E828F83123EEB22123EF3FB1214592271
:103EF300E0FAA3E022C082C083EAFCEBFDEC4D7044
:103F03000479058044EC24FBF582ED34FF124CC8A0
:103F13007007123F4FE0F460051213BD80E3900376
:103F2300B0E0C0E0123F4FD0E0F090261DE493F9DB
:103F33007AB77B031213E7E96401700B7A007B20E5
:103F4300124C9579008002790402424CEC24FFF56F
:103F530082ED34FFF5832274F412037AA2AFE433C3
:103F6300F508C2AF9003B7123E076038EE24FBF5A5
:103F730082EF34FF124CC87A007B209003B06005B7
:103F8300124C988005E0F91213F3E4F50AF50B7867
:103F93000A120890EEFCEFFD7AB77B031213E1746B
:103FA300021208A3E508A2E092AFEEFAEFFB02319A
:103FB3000612557F851882851983AA82AB832274E2
:103FC300F212037A74FC120937EAFEEBFF750AFE5C
:103FD300750BFF120D4BE960057911024145EE2483
:103FE3001512310E6037900D0FE0C43354E0F8E042
:103FF300333354FC48C0E0EE2415123041D0E012B4
:1040030041601241568B09EA45096011750AFFEEBA
:10401300240F12310E4404124D23D2E0F08E828F0E
:1040230083122A2A6006EE241212414DEE24131243
:10403300310E7010902623E493C0E0EE2413123067
:1040430041D0E0F08E828F83E0A2E75004540380D6
:104053001CEE241412310E7015900342E0C0E0EE02
:104063002414123041D0E0F0900342E004F0EE2437
:104073001112310E640170169005D2E0600D9003A9
:104083004DE0700A8E828F83E0700312414A8E8264
:104093008F83E064017013EE240B123EA864027058
:1040A30009EE240F12310E4440F0851882851983DE
:1040B300AC82AD83EEFAEFFB120DB18A088B097463
:1040C300FE650A700374FFF470098E828F83A3A3C5
:1040D3001254FAEA450960668E828F83E0C0E07469
:1040E30001120B16D0E0F07402120B161255E8748D
:1040F30001120B1685820C85830D780C120890EE45
:10410300240F12304112069AEE240E12310EF50CD2
:10411300780C12089490035612069A7407120B1621
:10412300E0F9AC0AAD0B120DAB74071208A3E9FE5C
:1041330074106E700BAA08AB0912145980027E101A
:10414300EEF97404022A62EE2411F582EF123E990D
:10415300E4F022A31230FC79FF121CDB221241642B
:1041630022F08E828F83A322C082C08374DE120961
:10417300378A828B83A3A3A3A3123EA4740E120BCC
:1041830016E8F0A3E912423A740C120B16124233EA
:10419300240DF582EB123111C0E0741A120B16D004
:1041A300E0F0125447EB123EA17420120B16124298
:1041B300332415F582EB123111C0E07408120B168B
:1041C300D0E0F0EA241CF582EB123EA17412120B2C
:1041D300161242332411F582EB123111C0E0740937
:1041E300120B16D0E012422774FFF07401120B1663
:1041F30074FFF07402120B1674FFF090820812061B
:10420300967404120B16AC82AD837407120B16AAB4
:1042130082AB83120BFB74041208A379007422127D
:1042230008A3802512422B22F08518828519832248
:10423300E8F0A3E9F0EA22123C46A312424222A389
:10424300E0F8A3E0F922125079D083D08202085516
:1042530074EC12037A74EE1209378A128B13ECFE94
:10426300EDFF89097426120B161254FA7428120BE7
:1042730016E0F5107429120B1612436E742B120BF1
:1042830016E0F50EA3E0F50F7508107A1E7B0012F9
:1042930014537402120B16124CA27402120B161250
:1042A3004CCA7003024367851882851983AA82ABBF
:1042B300837950124B7D1250797402120B161243FC
:1042C3008CA3124CA27410120B16125CD774021238
:1042D3000B16E0240B1243797402F0120B161243EF
:1042E3008C7402F0120B1612573B1255E87402122B
:1042F3000B1612508EE509F07402120B16E0240C13
:10430300124379E510F07402120B16124376E5128C
:10431300F0A3E513F07408120B16E50CF0A3E50DFA
:10432300F0740A120B16E510F0850E82850F83C018
:1043330082C083740D120B16AC82AD83D083D082FE
:1043430074031207B3F97402120B16AA82AB831219
:104353000D51E96401700575080080087402120BA1
:1043630016123E8FA9087412025511E0F50CA3E052
:10437300F50D22E0241C12437D22F8A3E0124384AE
:10438300223400F98882898322125081A3A3A3A334
:10439300A32274EE12037AEAFEEBFF8C088D098EDA
:1043A300828F83A37408124D5EE060088E828F8330
:1043B300A37410F012310B60098E828F83A3E02463
:1043C30008F0EE241512310E60088E828F83A3E06D
:1043D30004F08E828F83A3A3A3A3A3A3E060198E0B
:1043E300828F83A3A3A3A3A3A3A3E0C3332402F8CD
:1043F3008E828F83A3E028F0EE241112310E600524
:10440300750B0E8003750B008E828F83A3C082C051
:1044130083EE240D12310ED083D082F8E028250BD1
:104423008C828D83F0EE241112310E6005124889BF
:1044330028F0850882850983E0C3947540097508CF
:1044430000750900024577E0FA7B00125696700367
:10445300024577EEFAEFFB120DB7EA85088285096C
:1044630083124CA3EE2402F8EF12336B124671123F
:1044730045B3F0EE24040808EF12336B124AB3A3DA
:104483001245B3A3A3F0EE2413124599F0EE2414BE
:10449300124599A3F0750A08EE241612310E601026
:1044A300EE2418125578E5082408125779750A1076
:1044B30012310B6016EE241A125578850A0CE508A2
:1044C300250C1257797408250AF50A8E828F83A367
:1044D300A3A3A3A3A3E06059EE2407F510EF3400D0
:1044E300F511851082F583E0C0E012458012304457
:1044F300D0E01245A3E0C0E0124580123044D0E082
:104503001245A3A312458C12088C85108285118352
:10451300E0C333FCE433FD850A0CE508250C125493
:10452300EE1208A3851082851183E0C333250AF5B3
:104533000AEE241512310E600BC0E01245801230D2
:1045430044D0E0F012303E12458C12088CEE240D5C
:1045530012310EFC7D00850B0A8E828F83A3E0F857
:10456300E50828F8E5093400F9E8250AFAE91254C0
:10457300F11208A3AA08AB097F0A0205DB850A0C1E
:10458300E508250CF582E50922E0F50CA3E0F50D1D
:10459300750E00780C22123E961245BDA3A3A322EA
:1045A300F0050A8E828F83A3A3A3A3A3A3A3A322AD
:1045B300A3A31257E4A31245BD22124AB7A3A32211
:1045C30074F612037A8A828B83E0FC9003531246BB
:1045D3006A74027808120A38EC4508FCAD09EA242B
:1045E3001212466474067808120A38EC4508FCED8A
:1045F3004509FDEA2415F582EB12311160047801B7
:1046030080027800E4C8F9ED49FDEA2411F582EB54
:10461300123111F508880974097808120A38ED4532
:1046230009FDEA2416124664740B7808120A38ED61
:104633004509FDEA2417124664740C7808120A38F7
:10464300ED4509FD8A828B83A3A3A3A3A3A31246EB
:104653006A740A7808120A38ECFAED4509FB024C31
:10466300D3F582EB123E99E0F50875090022E08547
:10467300088285098322A3E0F985088285098322BC
:1046830074EE12037A8A0A8B0BECFEEDFF750F01B1
:10469300E9C39408500579000248768E828F83E936
:1046A300F0124ADCE96003750F00124AC08E828F54
:1046B30083124B0AEE125448EF124AFFC0E0EE2475
:1046C30011123041D0E0124AF7C0E0EE241212304A
:1046D30041D0E01241607408125502A3A3A3E06025
:1046E30015124AA8EE2413F582EF124D128E828F13
:1046F30083A3E02408F08E828F83A3A3A3A3A3A3A1
:10470300A3A3E060218E828F83A38582088583091A
:10471300124AEBEE2415F582EF124D1285088285BD
:104723000983E02408F08E828F83A3A3A3A3A3E0CD
:10473300601A8E828F83A3858208858309124ACFEC
:104743008E828F83A3A3A3A3A312489BEE241912E3
:10475300414DEE241B12414DA3124D56E07003024E
:10476300480AEE2419F8EF3400F98E828F83A3856B
:104773008208858309E0FAE50A2AF582E50B1231FE
:10478300118882898312489BFAE50A2AF582E50B90
:10479300123111C0E0EE241A123041D0E012489BCE
:1047A30088828983E06059F890261CE493C398506B
:1047B3000575110C8008EE241912310EF5118E8245
:1047C3008F83A3E0F8E50A28F50CE50B12487F1266
:1047D300088CE511C333FCE433FD7AAD7B0B12483F
:1047E300791208A3EE241B12304174ADF0A3740BAD
:1047F300F0E511C333F8850882850983E028800634
:10480300EE24181259B3F08E828F83A3E0F88E82C0
:104813008F83E0C3985003024699A3E0FA8A08E520
:104823000A2508F8E50B3400F9EE241DF582EF1292
:104833004E1E1248ABC39AC0E0EE2417123041D08B
:10484300E0124D1B602BEE2417F8EF3400F98808B3
:1048530089098882F583E024F2124DFF240EFAA31E
:10486300E03400FB88828983124CA2124889C398E2
:10487300F0A90F02457B12138D7403223400F50D4A
:10488300750E00780C2290034EE0F9120B3BE9F809
:10489300850882850983E022F0850882850983E003
:1048A30004F022A3A3A3A3A3F08E828F83E0227438
:1048B300F412037A8A088B09EA124940F0EA1313C7
:1048C300543F124939A3A3A3F0EAC4131312494076
:1048D300A3A3F0EB12493212494A7409780A120A67
:1048E300AC124930124949740A780A120AACE50A33
:1048F3005401C0E0EC2418F582ED123044D0E012EC
:10490300494F740B780A120AAC124930A312494971
:10491300740C780A120AAC124930A3A3A3A3A3A36D
:10492300A3A3F0740D7808120AAC022C70E50A54A4
:10493300018C828D8322540F8C828D832254038CAD
:10494300828D83A3A322A3A3A3A3A3A3F08A0A8B89
:104953000B22C082C08379008A828B83A3A3A3A383
:10496300A3A3E090034D600FE070228A828B83A3A0
:10497300A3E07019098016E060138A828B831250BA
:1049830070900356E06A7003A3E06B70E702424C39
:1049930074F012037A8A0A8B0B890C8C088D091226
:1049A3004ADC124AC0850882850983124B0AE5084E
:1049B300125448E509124AFFC0E0E5082411F582C4
:1049C300E509123044D0E0124AF7C0E01237421230
:1049D3003044D0E0124E267408124E3F6011124A42
:1049E300A8E5082413124E1A124E26E02408F08577
:1049F3000882850983A3A3A3A3A3A3A3A3E06017AA
:104A0300850882850983A3124AE7E5082415124E17
:104A13001A1248AB2408F0850882850983A3A3A34F
:104A2300A3A3E06019850882850983A3AE82AF83BF
:104A3300124ACF8508828509831248A604F0AA0882
:104A4300AB09120DC9E9F50D7056850882850983F6
:104A5300A3A3A3A3A3A3124AB37014E0FA8A0EE597
:104A63000A250EF8E50B124D07E50CC39A802112B7
:104A73004AE7E8240EF8E9124D0790034EE0F912D5
:104A83000B3B8E828F83E0F8E50CC39824F2C39925
:104A9300C0E0E5082417F582E509123044D0E0F0C0
:104AA300A90D025437E50A2408F8E50B3400F9226E
:104AB300124AB722E0850882850983A322850A82E8
:104AC300850B83A3A3124B20E0F9EA22E0F8E50A61
:104AD30028F582E50B124D2E228A828B8312543CD9
:104AE300120DC322AE82AF83E0F8E50A28F8E50B86
:104AF3003400F922124B33A3A3A3E022123E99E818
:104B0300124B2CA3A3E022A3A3A3A3A3A3A3A3A316
:104B1300124B2C124B20A3A3E0F9EAF822E0FA850A
:104B23000A82850B83A3A3A322F0A3E9124B3322AA
:104B3300F0850A82850B83A3A3A3A322C082C0832B
:104B43007AC57B0379E2121BD37AC57B0302424CFD
:104B5300C082C083900356024249C082C08374FE60
:104B6300120937851882851983AA82AB83794B1280
:104B73004B7D1250797402024222121BD385188294
:104B830085198322C082C083794A121BD302424C07
:104B930074F612037A9003CDE0FE04F0EEF9120DE1
:104BA3007B8B09EA450970EDEE60EAF9024CD37498
:104BB300F012037AEAFEEBFF8C088D09890A741060
:104BC300120B16E0F50B7411120B16E0F50C120E16
:104BD3009BEA4B7013E50C7042A90AAC08AD09EED1
:104BE300FAEFFB120EB3806EE50A6021EA2402F5A8
:104BF30082EB123111850A082508F8E4340013E822
:104C030013F070098A828B83A3A37401F0E50C600F
:104C130045E50B70068A828B83E4F07401650C70A2
:104C230035E50B9003D47004E4F0802AE004F0909F
:104C33000CFCE0F89003D4E0C398401AE4F090032E
:104C430059E06E7003A3E06F700CEEFAEFFB79018D
:104C5300120C1F124C5C0254377A017B009003B094
:104C6300E0F912151922C082C08374016A7001EB46
:104C730070077A01124C938012900CF3124CA2EA43
:104C83004B60051229EC8003124C5C02424C7A20E3
:104C93007B009003B0E0F91213ED223400F583EAB0
:104CA300F0A3EBF022C082C083900CF502384CC015
:104CB30082C083900CF702384C12574A22EE240C20
:104CC300F582EF3400F583124243E849221208A328
:104CD3007F020205DBA2F0E4338518828519831273
:104CE3004CF47952121BD922124CF47942121BD97B
:104CF30022F0AA82AB8322AA08AB099003B0E0F9A1
:104D03001213C3223400F9E508241DF582E50912C4
:104D13003E99E8F0A3E9F022125506A3A3E022A3EB
:104D2300F0EE2415124D2B22F582EF3400F583E0CB
:104D330022124D38223400F583E0F8A3E0F988828B
:104D4300898322E0F8124D4C22A3E0F98E828F83EF
:104D5300A3A322F0EE2418123E9622F0EE2416129C
:104D63003E962274F412037AEAFEEBFF7A007B0488
:104D7300124C60124DF5124D159003657409F01233
:104D83000DD58A088B09AC08AD09EE241312304106
:104D9300125079124F49640170487A0F124DE8603E
:104DA300418A828B837402124DFFFAA3E0FB8A824D
:104DB3008B83A3E0FC8A828B83A3A3E0FBEC8508AF
:104DC30082850983A3A3124CA38882898312507D11
:104DD300124671124D22FAA3E0FB794A121BD91233
:104DE3004CFA0231067B001213B78A088B09EA4595
:104DF3000922900336124243900CF722F0EE241D51
:104E0300F8EF124E0922124384E022124E1222348A
:104E130000F5837401F022F582E509123E99E8F06A
:104E2300A3E922124E2A22124E2E22F085088285F1
:104E33000983A322124E2EA3A3A3A322124E37A3A8
:104E4300A3E022125250120E2922EE2417F582EF0C
:104E5300124E12120DD5EE241A123E96EAF0A3EB6F
:104E6300F02274F412037A74F31209378908EAFE04
:104E7300EBFF7C0D7D007900851882851983AA825A
:104E8300AB83121399EE241D12304112573BA3E05A
:104E9300F8741F58600A7901121BA97900024F4068
:104EA300E8A2E55008740C120B167401F0E8A2E7AF
:104EB3005008740B120B167401F0E8A2E6740A5042
:104EC30008120B167401F08008120B16E0640170CF
:104ED30005EE24138003EE24151255787402120B89
:104EE30016AA82AB83121BC112303E124F4E124DD3
:104EF30015740A120B16E064017033122A1F703BFB
:104F0300120DE18A0A8B0BA80AA90BEE240B1231AE
:104F13000E687003A3E0697022120DD5EAFCEBFD65
:104F23007402120B16AA82AB83124F49600D8518C7
:104F330082851983AA82AB83120C19A908740D0206
:104F43003103EEFAEFFB121BBBE922E0124F5322AF
:104F5300F8A3E0F98518828519832274F612037A7F
:104F630074F31209378A088B09ECFEEDFF7C0D7D83
:104F7300007900851882851983AA82AB831258E0D1
:104F8300A3A3A3A3A3A3A3A3A3124FE8124FF1F8D0
:104F9300A2E55008740B120B167401F0E8A2E75057
:104FA30008740A120B167401F0E8A2E6EE5004240A
:104FB30013800224151255787402120B16124FDA5D
:104FC300A3A3E0C0E0740C120B16D0E012524812F7
:104FD3000C13740D024CD0AA82AB83121BC185083B
:104FE3008285098322E0124F53E8F0A3E922F012ED
:104FF3003E9312573FA3E02274F712037A74E1122F
:105003000937EAFEEBFF8E828F8312507DA3A3A3A1
:10501300E0A2E050518E828F83122B7F8A828B8392
:10502300A3A3A3A3A3A3E054FE1250958A828B8368
:1050330012508EE0F98A828B83E0241CFAA3E012DB
:105043003AAF125079120DCFE9701B741D120B1673
:105053001250887011851882851983AC82AD83EE56
:10506300FAEFFB120E170252BA8E828F83A3A3A309
:10507300A3A3A3A3A3A31230FC221250812212578D
:1050830043A3A3A322123ECB640422E0241B1243B6
:105093007D2212422BAC82AD8322E9F8790074049D
:1050A30068600A740A68600574036870010902087D
:1050B3005574F612037A8A828B837420F0A3A37447
:1050C30001F0120BC58A088B09AE08AF09EE4F60D9
:1050D300108E828F837401F09003A3E07003124E4D
:1050E3004DEEFAEFFB024CD3C082C0839003B97438
:1050F30001F0E9A2E350037403F0E9A2E15004E0F4
:10510300D2E2F002424C74F612037A79007C008AF0
:10511300088B097808120595F8FF073C513A513A74
:10512300513A513A51335137513C5130510C800966
:105133007C0480050C80F67C089003B9E05C600376
:10514300098003EC600109024CD374F612037A8AD6
:10515300828B83E07012A3124CCA600C8A828B8309
:10516300125078121D0580047A007B00024CD37420
:10517300F512037A74F31209378A088B09ECFEEDF2
:10518300FF750A12EA45097005790002524190033E
:1051930056E065087004A3E065097014120DD5EAA2
:1051A300FCEBFD124F457005750A018003750A007B
:1051B300851882851983E4F004120B16E508F0A321
:1051C300E509125248120B89E960277403120B1682
:1051D300AA82AB83120B6BE964017016750A017422
:1051E30003120B16AC82AD83124F456021750A0082
:1051F300801C7412650A70169003A2E06402700E9C
:10520300EEFCEFFDAA08AB09120BA1E970DFEEFC7F
:10521300EFFDAA08AB09120EA1E9F8740A6870053C
:10522300750A01801774A0687012EEFCEFFDAA08DE
:10523300AB09120EADAA08AB09120EBFA90A740D71
:10524300025C48740212524C221252502212422B18
:10525300AA82AB832274F712037AEAFEEBFF8E82F3
:105263008F83A3A3A3A3A3A3A3A3E06015EE241595
:105273001230411230EC120E41E9640170047901DD
:1052830080258E828F83A3A3A3A3A3A3A3E060158A
:10529300EE24131230411252ACFAA3E0FB120E417A
:1052A300E9640160D979008013123B9BA3A3A3A3F4
:1052B300A3A3A3A3A3E022741F1208A37F010205E3
:1052C300DB74F012037A74FD1209378A088B09EC38
:1052D300FEEDFF890B7413120B16E0F50C750A0132
:1052E3007401120B1674041257736048E50C601DA9
:1052F300EA2417F582EB1259B61257618A828B831F
:10530300E0D2E7F0EA2414F582EB1241501254473D
:10531300EB124D347403125CD9EE88828983A3A304
:10532300F0EF88828983A3A3123C45123C4C120BF5
:10533300BFE9F50AA90A740302543474EC12037A20
:1053430074F51209378A0A8B0B890C8C0E8D0F7436
:105353001F120B16E0F50D7420120B16E0F510A3C7
:10536300E0F5117E01EE120B16740AF0E97007E501
:105373000DC333240AF0125519700302541B12553E
:105383002E7409F0A3E50CC43354E0450D125540C7
:10539300E50C702D7C008023ECC333F8E433F9E58E
:1053A3001028F8E51139F9888289831254288882F4
:1053B300898312335EF0A30EAF830CECC3950D40CB
:1053C300D7E5082417F582E509124E0E120DD5E52F
:1053D30008241AF582E509124C9E7403120B16ACCD
:1053E30082AD83AA0AAB0B120B71E96019E508249D
:1053F30016F582E509125422120B16A882A983E539
:10540300082418124D0E850882850983125CD5AADB
:1054130008AB09120BBFE9FEEEF9740B025511122A
:105423004E12740322E08E828F83F0A3AE82AF8389
:10543300221208A37F080205DB123EF3F9EA2400D7
:10544300E439FB22EA240BF5822274EE12037A8AF2
:105453000C8B0D890E8C088D097412120B16E0F556
:105463000F7413120B161254FA900541124CCA60B2
:1054730077E50FC333F8E433F9E8240EFAE934008F
:10548300FB1213B78A108B11AE10AF11EE4F605899
:105493008E828F8374D4F0A3A3E50CF0A3E50D12E1
:1054A3005502E50EF0AC08AD09EE2405FAEF1257EC
:1054B3007CEE240D123041E50FF0850A08850B09B7
:1054C300750A00780812088CE50FC333FCE433FD3A
:1054D300EE240EFAEF1254F11208A3EEFAEFFB904A
:1054E300054112573B121DAC02457BFAE509340016
:1054F300FB12138D740322E0F50AA3E0F50B2212CD
:1055030055062212550A22124164A3A3A3221208AC
:10551300A37F0C0205DB851882851983AA82AB83DE
:10552300120E298A088B09EA450922EA240BF5821F
:10553300EB124D2EFEA3E0FF8E828F8322F0A3AEEB
:1055430082AF83AC0EAD0FEEFAEFFB12555222126F
:105553001BC112555922EE2408FEEF3400FF22E04E
:10556300FA8E828F83A3A3E022FEA3E03400FF8E92
:10557300828F83E022123E9612557F22E0FCA3E045
:10558300FD221230FC120DBD2274F612037AEAFEDC
:10559300EBFF9003BA801388828983E06E7003A3C4
:1055A300E06F603A88828983A3A3124CCA70E87AB9
:1055B300047B001214538A088B09A808A909E84937
:1055C300601C888289831255E89003BA1250798847
:1055D300828983A3A3124CA29003BA124D15024CE5
:1055E300D38A828B83EEF0A3EFF02274F412037A52
:1055F3007E009003BA80070E88828983A3A3124C8E
:10560300CA70F4EEC333FAE433FB125696607E7F1E
:10561300009003BA80248882898312557BEFC333B9
:10562300FAE433FBE5082AF582E5093BF583ECF060
:10563300A3EDF00F88828983A3A3124CCA70D7907D
:1056430003AB122A597003A3E06978087019120892
:1056530090EEF50A780A1208947C777D037900901E
:1056630003AB1256A1801A120890EEF50A780A12BB
:1056730008947C777D0379009003AB125079120E66
:105683005374031208A3AA08AB09121459120BD7B7
:105693000231061214538A088B09EA450922123093
:1056A300FC120E5922C082C08380128A828B83A38C
:1056B300A3123EA49003BA124D151214599003BAC3
:1056C300123DB470E602424C74F612037A900363FF
:1056D300123ED09003CE12572A124D157ACE7B0379
:1056E3007950121BD99003CE122C78FAEFFB120ECD
:1056F300B99003CE123ED0900543124CCA60257A6E
:10570300067B001213B7EA4B601A8A828B8374D527
:10571300F0A3A3E4125750041257619005431257A4
:105723003B121DAC024CD312572E22E0F8A3E0F932
:10573300900363228E828F8312573F221257432294
:10574300E0F812574922A3E0F583888222125754C6
:105753002212575822F08A828B83A3A3A3221257C3
:1057630054A3EEF0A3EFF022F582EF124D2EF922AF
:10577300124E46EA4B22FAE5093400FB121BC12202
:10578300124D4DA3A3A3A3A3A3A32290261EE49388
:105793002401F8E43400F97A027B002274F712033F
:1057A3007A7E008004125D8C0E1258B040F77E00A2
:1057B300EE1257CB74FEF0A3041257E0E4F00EEEA2
:1057C300C3940340EB0252BF75F003A4F8A9F0742D
:1057D300BC28F8740339F988828983A3221257E419
:1057E30022F0888289832274F712037A7F00800172
:1057F3000F902626E493F8EFC3985026EF12599C96
:105803006A7003A3E06B70E8125D396C7003A3E068
:105813006D600A74FF6C700374FF6D70D31258A728
:1058230080047A007B000252BF74F612037A7CFF75
:105833007DFF7AFE7BFF120E7DEA4B7040750800F8
:105843008036E50875F017A4F8A9F0744828F582A6
:10585300740A1259AE600C744728F582740A1259FF
:10586300AE7013743928FE740A39FF8E828F831247
:1058730059BBEEFAEFFB050812591640C5024CD38B
:1058830074F412037A8A088B09ECFEEDFF800B1285
:105893000E8FEEFCEFFDAA08AB09120E7DEA4B70EA
:1058A300EE023106743928FA740A39FB229026264F
:1058B300E493F8EEC3982274F712037AEAFEEBFF3F
:1058C300EE4F60101258DA74FEF0A304125CDF147A
:1058D300F0A304F00252BF7C177D007900121399E4
:1058E3008E828F832274F712037AEAFEEBFF750828
:1058F300008018E50875F017A4F8A9F0125D44704C
:1059030003A3E06F6003125D94050812591640E388
:105913000252BF902626E493F8E508C3982274F652
:1059230012037A120E7D8A088B09A808A909E8498F
:10593300600AE8240DFAE93400FB80047A007B0056
:10594300024CD374F412037A8A0A8B0BECFEEDFF3C
:10595300750800750900802EE50975F017A4F8A9EC
:10596300F0125D7F601EE50912599C650A7004A35D
:10597300E0650B700375080AEEFCEFFD125C3B60FB
:10598300034308A00509902626E493F8E509C39884
:105993005004E50860C2022C7075F017A4F8A9F052
:1059A3001259A722743928F582740A39F583E02243
:1059B300F582EF123E99E4221230FC120CB522124A
:1059C30057E4A3A3A3A3A3A3A3A32274F212037A6A
:1059D3008A088B09ECFEEDFF740E120B161254FAB3
:1059E300750C007C007D0180101213B1E50CF5F0FD
:1059F300EA84ACF0750C007D007800790080031216
:105A03005B78125BD44003025A9AE8FAE9FBEA7521
:105A1300F017A4FA85F00D75F017EBA4250D125BB2
:105A2300B07003A3E0F460D7125B8E65087004A323
:105A3300E0650960CA125B8E6E7003A3E06F60BFFE
:105A4300125B8E650A7004A3E0650B60B2E8FAE9A5
:105A5300FBEA75F017A4FA75F017EBA4250DFB7498
:105A6300472AF582740A125B6F509474016D050C1A
:105A7300608DE50CC39C4087E875F017A4F8AAF085
:105A830075F017E9A42AF9743928F582740A39F5EF
:105A930083125079025B6C780079008003125B7883
:105AA300125BE14003025B53E8FAE9FBEA75F0128B
:105AB300A4FA85F00D125BC064FE7003A3E0F460EA
:105AC300DC125BB665087004A3E0650960CF125B66
:105AD300B66E7003A3E06F60C4125BB6650A700410
:105AE300A3E0650B60B7E8FAE9FBEA75F012A4FAE4
:105AF30075F012EBA4250DFB74C82AF58274081205
:105B03005B6F5099E8FAE9FBEA75F012A4FA75F0B5
:105B130012EBA4250D125B8164016081E0640270C5
:105B230003025AA074016D050C7003025AA0E50C20
:105B3300C39C5003025AA0E875F012A4F8AAF075AA
