:020000040000FA
:06000000020B230201CBFC
:03002B0002095E69
:030043000207F5BC
:030053000200FCAC
:03006B000201EEA1
:100083000201600101FF050301E410E410E410E440
:1000930010A00F9A0FE410831E00000000471F00FA
:1000A3000000000C0000000C00010000B212000070
:1000B300000000007E1300000000000000000000AC
:1000C300FFFF01010101010101002F050000008074
:1000D30005E80364006400B801020200080000059B
:1000E3000207051E02051E0A03B80B020102F1FFF7
:1000F300029651180002020612C0E074F212049430
:10010300A2AFE433FED2AFE5A7FFE5A1F5085F5444
:100113001060061219A275A1EFE5085F5408600884
:100123001219A875A1F7802BEFA2E0C0D0E508A2B1
:10013300E092F0120A60158182F05017906198E006
:10014300F8900854E0C398A2D265D0335002E8F087
:1001530075A1FEEEA2E092AF7F010204F3C0E0744A
:10016300F2120494A2AFE433FED2AF9061A4E0F89C
:10017300759B00E59158540860087591F71219F0C2
:10018300802AE59158541060087591EF1219F68092
:100193001BE8A2E0C0D0E591A2E092F0120A60153C
:1001A3008182F05007E0C2E0F0121B3A9061A3E0B5
:1001B300F8E5E9585404600E121B1075E9FB9061D1
:1001C30093E0A2E640F2808BC0E074F2120494A2A2
:1001D300AFE433FED2AF9061A5E0F8E5BF58540415
:1001E300600675BFFB121B52020156C0E074F11288
:1001F3000494C2BDE589A2E4503DA284E433900C8B
:10020300EBF0A2E04028F8900CEAE0686026900C3E
:10021300EBE0900CEAF09005087401F07C327D006D
:100223007A047B009004D8E0F91215888006900CBC
:10023300EA7401F05389EFE589A2E6505590050A67
:100243007401F01214AA90050B120B86A286E433F4
:10025300900CEDF0A2E04017F8900CECE06860150C
:10026300900CEDE0900CECF0900509E00480059013
:100273000CEC7401F05389BFA286E433F5087509C9
:100283000078081208FC7A547B8212136C740212F1
:100293000944C2C5D2BD7F020204F3C3E498F8E463
:1002A30099F91202DF8026C3E49AFAE49BFBE92062
:1002B300E7E91202DFE498F8E499F922C3E498F835
:1002C300E499F91202DFE498F8E499F9C3E49AFA9D
:1002D300E49BFB22EB20E7CFE920E7E0B90010BB6A
:1002E3000008E88AF084F8AAF022E4FBC8FA22EBBB
:1002F30070227B10C833C8C933C9335007C39AC3AC
:10030300DBF280069A50012ADBEAC833F4C8C9330A
:10031300F4C9FA2275F008E4C833C8C933C933C92C
:100323009AC99B5004C92AC93BD5F0ECFBC833F4E6
:10033300C8E4C9FA22080808EAC0E0EBC0E086F086
:10034300E7A4FA180986F0E7A42AFA180986F0E761
:10035300A42AFA180986F0E7A42AFA1986F0E7A472
:10036300FBE5F02AFA190886F0E7A42BFBE5F03A3F
:10037300FA190886F0E7A42BFBE5F03AFA181809F6
:1003830086F0E7A4C5F02BFBE43AFA1908E7C5F0B9
:10039300C6A426F6E5F03BFBE43AFA1886F0E7A498
:1003A300F6E5F00826F6E43B08F6E43A08F6D0E072
:1003B300FBD0E0FA22E4CFC0E0E4CEC0E0E4CDC05D
:1003C300E0E4CCC0E075F020C3E633F608E633F68C
:1003D30008E633F608E633F6181818EC33FCED3369
:1003E300FDEE33FEEF33FFC3EC9709ED9709EE976C
:1003F30009EF97191919400FFFEC97FC09ED97FDC9
:1004030009EE97FE191906D5F0BEECF709EDF709C9
:10041300EEF709EFF7191919D0E0FCD0E0FDD0E0B1
:10042300FED0E0FF222518C582C0E0E51934FFC5E0
:1004330083C0E0E518C3958224F810AF08858319BB
:100443008582188008858319858218D2AFCEF0A3E0
:10045300E520F0A37808E608F0A3DEFAEFF0A3E5C1
:100463008124FAF8E608F0A3E608F0A3E608F0A36F
:100473000808E608F0A3E608F0A315811581D0E08B
:10048300FED0E0F8158115811581E8C0E0EEC0E0EB
:1004930022C0D02518C582C0E0E51934FFC583C04A
:1004A300E0E518C3958224F310AF0885831985828C
:1004B300188008858319858218D2AFC8F0A3E9F0A4
:1004C300A3EAF0A3EBF0A37908E709F0A3D8FAECC9
:1004D300F0A3EDF0A3EEF0A3EFF0A3D0E0F0A3D0F0
:1004E300E0F0A3D0E0F0A3E520F0A3E5F0F0A32231
:1004F300851983851882E0C0E0A3E0F9A3E0FAA39D
:10050300E0FBA37808E0F608A3DFFAE0FCA3E0FD34
:10051300A3E0FEA3E0FFA3E0C0E0A3E0C0E0A3E00C
:10052300F5D0A3E0F520A3E0A3F5F010AF08858391
:10053300198582188008858319858218D2AFD082E5
:10054300D083D0E0F8D0E032120B92B90003020559
:100553008DE490030178AB790A8002F0A3D8FCD92B
:10056300FA900CABAA82AB839000867877790180EE
:1005730015E493A3AC82AD838A828B83F0A3AA8212
:10058300AB838C828D83D8E9D9E77582DB75839C35
:1005930074031208B87582EC75831D74001208B8D1
:1005A3000875F0108E1A8F1B85821F85831E851890
:1005B30082851983E0CEA3E0CF851F82851E83EB5E
:1005C300C9EAC8EDCBECCAC3E833C8E933C9EA3397
:1005D300CAEB33CBC3EA9EF51DEB9FF51CB3500466
:1005E300AB1CAA1DEC33CCED33CDD5F0DAAE1AAF8C
:1005F3001B22D083D082ECC0E0EDC0E0E493A3FCE7
:10060300E493A3FDED4C600D1206CDEC24FFFCED4D
:1006130034FFFD80EFE493A3FCE493A3FDED4C6072
:100623000D1207A0EC24FFFCED34FFFD80EFD0E0BA
:10063300FDD0E0FCE493A3C0E0E493C0E02285197D
:1006430083851882E0A3FEE0A3F5207808E0A3F6F3
:1006530008DFFAE0A3FFE0A3C0E0E0A3C0E0E0A36B
:10066300C0E0E0A3C0E0E0A3C0E010AF08858218BB
:100673008583198008858218858319D2AFD083D0EA
:10068300820208BED083D082E9C0E0E493A3C3868C
:10069300F0C5F095F0F908E493A386F0C5F095F062
:1006A300700BE493A3C3994005E9048002A3E475A6
:1006B300F002A42582F582E5F03583F583D0E0F9D5
:1006C300E493A3C0E0E493C0E022C0E0C3E49396C4
:1006D300087401939618400FE49366700808740138
:1006E30093661870007019A3A3C3E493960874016A
:1006F300939618A3A3400DD0E0D0E0D0E0020631DA
:10070300A3A3A3A3A3A3D0E022D083D082C5F0E404
:1007130093A3C5F0C395F0F5F0E493A3C395F0401C
:1007230005E5F0048001E475F002A42582F582E575
:10073300F03583F583E493A3C0E0E493C0E022742F
:1007430004800474028000CCC0E0EDC0E0E518C36F
:100753009CCCAD1950011D10AF068C188D19800665
:100763008C188D19D2AF12083AD0E0FDD0E0FC22EC
:1007730074028000CCC0E0EDC0E0E518C39CCCADB2
:100783001950011D10AF068C188D1980068C188D19
:1007930019D2AF120818D0E0FDD0E0FC22C0E0C0AF
:1007A300F088F0E49366700808740193661870008B
:1007B300A8F0A3A3700BD0F0D0E0D0E0D0E0020605
:1007C30031A3A3D0F0D0E022D083D082CCC0E0E428
:1007D30093A360061208991470FAE493A3600612B7
:1007E30009A81470FAD0E0FCE493A3C0E0E493C03A
:1007F300E022C0E074F2120494A2AFE433FED2AF5D
:10080300C2C0E5D1A2E45003121918EEA2E092AFE0
:100813007F010204F3CAC0E0E493A3C582CCC5827E
:10082300C583CDC583F0A3C582CCC582C583CDC5A1
:1008330083DAE5D0E0CA22CAC0E0E0A3C582CCC512
:1008430082C583CDC583F0A3C582CCC582C583CDC4
:10085300C583DAE6D0E0CA227009080808226016C8
:10086300181818C6C333C608C633C608C633C60825
:10087300C633C6D5E0EA22C008C3E096F50808A34C
:10088300E096420808A3E096420808A3E0964508CC
:100893007001D3D00822C0E0E493A3D39C5010E4AA
:1008A30093A3C39C400AD0E0D0E0D0E00207E8A3C2
:1008B300A3A3D0E022C09FF59FE473D09F22D083EF
:1008C300D082C09FE493C0E0740193C0E0740293AC
:1008D300F59F22C5822518C582C583351910AF0738
:1008E300F5198582188007F519858218D2AFC5835B
:1008F300227404800A74038006740280027401C0A7
:10090300E0F40412090FD0E0120B6D222518F582D2
:1009130010AF08F518400215198008F518400215A4
:1009230019D2AF85198322BB0102E722C082C0839B
:1009330089828A83BB0003E08002E493D083D08260
:1009430022C0D0251810AF08F518500205198008E9
:10095300F51850020519D2AFD0D022C0E0C0D0E8BC
:10096300C0E0E5A8D2AFC2C7A2E792AFD0E0F8D00B
:10097300D0D0E0326016080808C6C313C618C613E1
:10098300C618C613C618C613C6D5E0EA22C3E0C606
:1009930096F608A3E0C696F608A3E0C696F608A363
:1009A300E0C696F622C0E0E493A36C7009D0E0D0D1
:1009B300E0D0E00207E8A3A3D0E022251810AF0897
:1009C300F518400215198008F51840021519D2AF21
:1009D30022E066701008A3E066700A08A3E0667060
:1009E3000408A3E06622C3E09608A3E09608A3E008
:1009F3009608A3E096A2D265D03322E7667010086A
:100A030009E766700A0809E76670040809E76622C1
:100A1300C3E096F008A3E096F008A3E096F008A3DD
:100A2300E096F022E026F008A3E036F008A3E036D3
:100A3300F008A3E036F022E627F60809E637F608C1
:100A430009E637F60809E637F622E026F608A3E0BA
:100A530036F608A3E036F608A3E036F622C0E0E84F
:100A6300C0E0E58124FCF8E6A2E7D0E0F8D0E0227C
:100A7300E647F60809E647F60809E647F60809E6F1
:100A830047F622E657F60809E657F60809E657F649
:100A93000809E657F622E056F608A3E056F608A33F
:100AA300E056F608A3E056F622E056F008A3E05617
:100AB300F008A3E056F008A3E056F0227004226089
:100AC3000D18C6C333C608C633C6D5E0F41822E4EE
:100AD300C396F608E496F608E496F608E496F6223A
:100AE300600D08C6A2E713C618C613C6D5E0F322E5
:100AF300C6F4C608C6F4C608C6F4C608C6F4C622B9
:100B0300C3E7960809E7960809E7960809E79622D6
:100B1300C3E09608A3E09608A3E09608A3E0962214
:100B230075D0007581407518017519030002054BD6
:100B3300600C08C6C313C618C613C6D5E0F422E674
:100B4300F008A3E6F008A3E6F008A3E6F022E0F637
:100B530008A3E0F608A3E0F608A3E0F622C5822581
:100B630018C582C5833519C58322CAC0E0E6F0A340
:100B730008DAFAD0E0FA22E0FAA3E0FBA3E0FCA350
:100B8300E0FD22EAF0A3EBF0A3ECF0A3EDF022E505
:100B9300C754F84401F5C77901222518F582E435D5
:100BA30019F58322C2AF75D69F020000221208C135
:100BB30044B2011208C1E7B2011208C132B40112F2
:100BC30008C150B4011208C11D59001208C12F59A0
:100BD300001208C18159001208C1E259001208C16C
:100BE3006C5A001208C1105B001208C1645B00124A
:100BF30008C17D5B001208C1A35B001208C1DE5B64
:100C0300001208C1225C001208C1495C001208C12D
:100C13009A5C001208C14A5D001208C1025E00120C
:100C230008C1CA5E001208C1A75F001208C12D6087
:100C3300001208C13C60001208C14760001208C1DD
:100C43005061001208C16161001208C1D76100122E
:100C530008C16962001208C1C162001208C187633A
:100C6300001208C1B863001208C1FD63001208C175
:100C73000A64001208C19E65001208C101670012D0
:100C830008C11D68001208C1876A001208C1926A70
:100C9300001208C19C6A001208C1A76A001208C1A9
:100CA300B16A001208C1BB6A001208C1C66A001209
:100CB30008C1D16A001208C1026B001208C1266B79
:100CC300001208C14A6B001208C1AF6B001208C1C1
:100CD300F36B001208C10F6C001208C1866C00127E
:100CE30008C1BE6C001208C10A6D001208C1676D0D
:100CF300001208C1496F001208C1CF6F001208C16A
:100D0300A070001208C1B073001208C1057400126C
:100D130008C13174001208C17D75001208C1CD7578
:100D2300001208C12276001208C12377001208C1FD
:100D3300BB77001208C13D78001208C1DD780012AC
:100D430008C16821001208C1A121001208C17B2338
:100D5300001208C1BA23001208C10424001208C1FA
:100D6300A924001208C10825001208C13C2500125D
:100D730008C1A925001208C1C626001208C1CE2742
:100D8300001208C16428001208C1AB2B001208C16D
:100D9300542C001208C1302D001208C1912D0012ED
:100DA30008C1AE2E001208C1D830001208C18F311D
:100DB300001208C19931001208C1CC31001208C1D8
:100DC3009332001208C12E33001208C1933300126C
:100DD30008C1BC33001208C1DE33001208C10D364E
:100DE300001208C1E436001208C12837001208C1F6
:100DF3009537001208C15038001208C1823800121A
:100E030008C1C638001208C1F938001208C14E39AA
:100E1300001208C1A339001208C1373A001208C1F1
:100E2300993A001208C1013B001208C1AA3C001202
:100E330008C1923D001208C1D43E001208C102410C
:100E4300001208C1C241001208C1F143001208C1D7
:100E53009444001208C1D244001208C17E46001215
:100E630008C19246001208C19C46001208C1C6463A
:100E7300001208C1D246001208C1F146001208C18F
:100E8300A847001208C1E747001208C1F147001242
:100E930008C1A548001208C1A449001208C19D4A0F
:100EA300001208C13A4B001208C1DC4B001208C102
:100EB300F34B001208C12A4C001208C1484C00121F
:100EC30008C18C4C001208C1B14C001208C1974DE7
:100ED300001208C1034E001208C17D4E001208C162
:100EE3008C4F001208C1CB50001208C12D510012C3
:100EF30008C1E751001208C10A52001208C1DE52AC
:100F0300001208C12953001208C16B53001208C113
:100F1300C253001208C1F953001208C1275400122A
:100F230008C16054001208C18554001208C10D5550
:100F3300001208C13057001208C18F57001208C1B0
:100F43002358001208C18F58001208C1E358001239
:100F530008C12DB0031208C16CB0031208C195B5C6
:100F6300011208C1EFB5011208C14BB6011208C145
:100F730097B6011208C1B2B6011208C1E3B6011255
:100F830008C100B7011208C10CB7011208C180B82B
:100F9300011208C199B8011208C100B9011208C1B0
:100FA30013B9011208C121B9011208C1D5B901123F
:100FB30008C1B9BA011208C1BFBB011208C145BCBF
:100FC300011208C14FBC011208C1BCBC011208C107
:100FD300D3BC011208C105BD011208C13EBD0112F7
:100FE30008C168BD011208C1C9BD011208C1E9BD2C
:100FF300011208C107BE011208C14DBE011208C18A
:1010030073BF011208C1C0BF011208C1EFBF0112B3
:1010130008C165C0011208C18DC0011208C1C6C054
:10102300011208C1D4C0011208C12CC1011208C1A8
:101033007BC1011208C1BAC1011208C1EAC1011280
:1010430008C116C2011208C121C2011208C13FC260
:10105300011208C101C3011208C10BC3011208C167
:1010630046C3011208C15CC3011208C165C3011262
:1010730008C1BAC3011208C1CEC3011208C1DCC43E
:10108300011208C1EFC4011208C104C5011208C14D
:10109300A6C5011208C129C6011208C1E7C601127B
:1010A30008C1F2C6011208C118C8011208C134C828
:1010B300011208C186C8011208C1C5C8011208C1BE
:1010C300DAC8011208C11CC9011208C169CB011297
:1010D30008C1E7CB011208C15ACC011208C17CCE6A
:1010E300011208C194CE011208C197CE011208C1A2
:1010F300A3CE011208C1B7CE011208C1BFCE01129F
:1011030008C1F2CE011208C1A2CF011208C118D042
:10111300011208C18BD0011208C13FD1011208C1CD
:10112300F4D1011208C113D2011208C1B3D20112C2
:1011330008C1BFD2011208C1EAD2011208C1EDD21F
:10114300011208C157D3011208C17FD4011208C18B
:1011530057D5011208C1E2D5011208C1FBD601120D
:1011630008C1B8D7011208C1F1D7011208C122D8AA
:10117300011208C1C2D8011208C1F2D8011208C174
:10118300CDD9011208C166DA011208C1F1DA0112E0
:1011930008C1A2DB011208C124DC011208C156DC1C
:1011A300011208C197DC011208C1F0C5021208C17F
:1011B30055C6021208C192C6021208C1E1C6021244
:1011C30008C1F7C8021208C1DACA021208C144CE24
:1011D300021208C17FCE021208C1A1CE021208C1B9
:1011E30004CF021208C138CF021208C15BCF02122A
:1011F30008C188CF021208C1E4CF021208C1DAAFD6
:10120300021208C158B0021208C18EB0021208C1FE
:10121300FAB0021208C16DB2021208C189B20212F9
:1012230008C1CEB2021208C15CB3021208C1B5B341
:10123300021208C1E2B4021208C1F4B5021208C1D5
:1012430051B6021208C1BDB6021208C11EB702127E
:1012530008C15FB7021208C10CB8021208C11EB957
:10126300021208C149B9021208C194B9021208C195
:10127300DBB9021208C16DBA021208C128BB0212FF
:1012830008C116A4031208C127A4031208C178A435
:10129300031208C1BDA4031208C167A5031208C144
:1012A3002AAB031208C16FA2031208C1C7A303121A
:1012B30008C19FBB021208C144BC021208C164BC2E
:1012C300021208C184BC021208C198BC021208C1F0
:1012D300F0BC021208C120BD021208C1A1BE021255
:1012E30008C147BF021208C129C0021208C17AC04F
:1012F300021208C1BDC0021208C100C1021208C116
:1013030066C1021208C187C1021208C113C20212C8
:1013130008C144C2021208C1B8C2021208C166C49D
:10132300021208C140C5021208C182C5021208C1D7
:10133300DCC5021208C1E69E031208C1079F03120F
:1013430008C13DA0031208C167A0031208C1907928
:10135300001208C1037A001208C10E7A001208C1F4
:101363002F7A001208C1797C001208C17A7E00121C
:1013730008C1367F001208C11AF1011208C11DF11C
:10138300011208C1D7F1011208C102F2011208C10A
:1013930049F2011208C16EF2011208C18FF2011263
:1013A30008C1C3F2011208C1FCF2011208C125F4FD
:1013B300011208C15CF4011208C17CF4011208C1D6
:1013C30017F5011208C1DCF5011208C113F6011269
:1013D30008C188F7011208C12BF8011208C124F9CA
:1013E300011208C14DF9011208C1A1F9011208C186
:1013F30067FA011208C195FA011208C12AFC011209
:1014030008C1ABFC011208C1DEFC011208C16CD992
:10141300021208C1F7A5011208C126DA021208C197
:1014230047DA021208C15EDA021208C10EDB0212A9
:1014330008C117DB021208C16ADB021208C193DB81
:10144300021208C1FADB021208C18BDC021208C1C6
:10145300CDDC021208C117DD021208C176DD0212CB
:1014630008C107DE021208C146DE021208C185DE8A
:10147300021208C1F1B0011208C1CCDE021208C188
:10148300DEDE021208C1FDDE021208C106DF02120F
:1014930008C1BCDF021208C1FCDF021208C1A8F8B0
:1014A300021208C17BF9021208C195F9021208C1A0
:1014B300A6F9021208C1BBFB021208C1DAFB021231
:1014C30008C1A99A031208C1DF9A031208C1289B15
:1014D300031208C1789C031208C1CCDC011208C1B5
:1014E3000BDE011208C147DE011208C106E001123A
:1014F30008C12FE0011208C1C2E2011208C106E3CC
:10150300011208C18FE4011208C127E5011208C1C5
:101513008FE5011208C130E6011208C172E601121B
:1015230008C1B2E6011208C13DE8011208C1ADE9E4
:10153300011208C1D2EB011208C100EC011208C16B
:1015430027EC011208C130EC011208C18BEC011227
:1015530008C11EED011208C13CF0011208C1BDF023
:10156300011208C1E87F001208C1E2AF031208C1EB
:101573008F8A031208C1A28A031208C13F8B031288
:1015830008C17A8B031208C1958B031208C1BA8B69
:10159300031208C1FF8B031208C1308C031208C168
:1015A300618C031208C1E78D031208C1E8AC031272
:1015B30008C11EAD031208C13AAD031208C17CADC8
:1015C300031208C18CAD031208C15AE5021208C107
:1015D30021E6021208C1BCE7021208C1C7E80212E1
:1015E30008C12CE9021208C135AF031208C162A079
:1015F300021208C1B7A0021208C161A1021208C1F8
:1016030009A2021208C166A2021208C1BFA20212F5
:1016130008C189A4021208C104A5021208C12EA59B
:10162300021208C1EBA6021208C106A7021208C1E2
:1016330055A7021208C16BA7021208C178A70212AC
:1016430008C1A8A7021208C1BEA7021208C144A874
:10165300021208C153A8021208C1ACA8021208C1A1
:1016630006A9021208C158A9021208C162AA0212ED
:1016730008C1E4AC021208C17EAD021208C1C0ADBC
:10168300021208C155AE021208C172AE021208C19D
:1016930075AE021208C178AE021208C1EBAE021297
:1016A30008C106AF021208C132AF021208C16DAF02
:1016B300021208C170AF021208C183AF021208C13F
:1016C300AAAF021208C136AE031208C142AE03121A
:1016D30008C17CAE031208C1BE90021208C1E99092
:1016E300021208C1AB91021208C13092021208C162
:1016F3009992021208C1E592021208C16493021280
:1017030008C1F693021208C18294021208C1C4945C
:10171300021208C10D99021208C18D9A021208C162
:10172300CC9A021208C1959B021208C1499C02126D
:1017330008C1F99D021208C1859E021208C10080EA
:10174300021208C1BA80021208C12C81021208C118
:101753003B81021208C1B581021208C12482021220
:1017630008C12E83021208C15783021208C1F783EE
:10177300021208C14584021208C1B584021208C1CD
:10178300E985021208C1C586021208C13687021212
:1017930008C1B388021208C17589021208C1108AF0
:1017A300021208C16B8A021208C1D68A021208C14A
:1017B300DA8B021208C19B8D021208C13A8E021203
:1017C30008C1AC8E021208C1698F021208C164FD00
:1017D300011208C1B8FD011208C110FE011208C1AF
:1017E3005BFE011208C1BDFE011208C156FF0112C2
:1017F30008C1BEFF011208C1CAFF011208C15398F4
:10180300031208C18498031208C13E99031208C148
:10181300A499031208C1159A031208C15A9D031211
:1018230008C10791031208C1A991031208C11A92B2
:10183300031208C11DAC031208C12EAC031208C168
:10184300CEAC031208C1B7A0031208C1C5A003128E
:1018530008C161B1031208C1B9AE031208C1C9AE10
:10186300031208C1E4AE031208C12CAF031208C16E
:1018730028AA031208C1ADAA031208C111AB0312AF
:1018830008C1F6B0031208C1F9B0031208C18A8374
:10189300031208C1A083031208C1C983031208C13C
:1018A300E483031208C1FF83031208C109840312EE
:1018B30008C11384031208C12684031208C13F849C
:1018C300031208C1E684031208C16585031208C127
:1018D3000080031208C10E80031208C1888003121E
:1018E30008C16C81031208C12583031208C121B109
:1018F300031208C125E0021208C192E0021208C1D6
:1019030053E1021208C1C3E1021208C1CCE2021280
:1019130008C144E4021208C1A8E4021208C1FDE4AC
:10192300021208C106E5021208C115E5021208C138
:1019330028E5021208C13EE5021208C147E502127A
:1019430008C183EA021208C1D8EA021208C1D4EC22
:10195300021208C106ED021208C128ED021208C1E5
:1019630041ED021208C15AED021208C164EE0212DF
:1019730008C1FFEE021208C17EA5031208C1A2A589
:10198300031208C1BBA5031208C1EEA5031208C1C7
:101993001FA6031208C14DA6031208C1AFA6031266
:1019A30008C1BEA6031208C1C8A6031208C1D5A662
:1019B300031208C13DFD021208C163FD021208C1F2
:1019C300A0FD021208C1AFFD021208C1CEFD021232
:1019D30008C136FE021208C13FFE021208C19EFE74
:1019E300021208C1C2FE021208C181FF021208C11D
:1019F3008EFF021208C19FFF021208C1BAB0031280
:101A030008C1D7B0031208C176EF021208C1D4F09F
:101A1300021208C1E1F0021208C1F4F0021208C177
:101A230013F1021208C129F1021208C13DF1021299
:101A330008C1B2F1021208C117F2021208C1C7F2BB
:101A4300021208C19CF3021208C1ACF3021208C1CE
:101A5300BBF3021208C19DAD031208C1C1AD03124D
:101A630008C1E9AD031208C111AE031208C1909376
:101A7300031208C1B793031208C1D893031208C114
:101A83003D94031208C1F695031208C10F96031281
:101A930008C11B96031208C12F96031208C14D9665
:101AA300031208C15796031208C16196031208C1B5
:101AB3007496031208C1C796031208C10097031254
:101AC30008C12F97031208C17D97031208C1CC9751
:101AD300031208C1E797031208C1F197031208C163
:101AE3000298031208C14898031208C191AF031268
:101AF30008C130D0021208C15AD0021208C176D0F0
:101B0300021208C189D0021208C19FD0021208C173
:101B1300FCD0021208C12FD1021208C16BD50212E8
:101B230008C191D6021208C1C4D6021208C110D747
:101B3300021208C13CD8021208C164D8021208C1BB
:101B430079D8021208C189D8021208C1CDD802126D
:101B530008C12ED9021208C13ED9021208C1DFA65C
:101B6300031208C1FAA6031208C123A7031208C16E
:101B73003DA7031208C162A7031208C181A703127C
:101B830008C199A7031208C1C7A7031208C1E1A797
:101B9300031208C176B0031208C10F87031208C1EC
:101BA3001687031208C12288031208C15288031240
:101BB30008C17888031208C19B88031208C1BD8835
:101BC300031208C1F788031208C15D89031208C113
:101BD3009689031208C1E289031208C10F8A03120E
:101BE30008C12F8A031208C125A9031208C137A906
:101BF300031208C122AA031208C125AA031208C1AD
:101C030012A8031208C184A8031208C1C2A80312B0
:101C130008C103A9031208C1F48D031208C1108E71
:101C2300031208C15F8E031208C17B8E031208C121
:101C3300AC8E031208C1BC8E031208C1A88F031215
:101C430008C1B28F031208C1BF8F031208C1CF901E
:101C5300031208C1E390031208C1EC90031208C1F8
:101C6300F4F3021208C139F8021208C13EF8021255
:101C730008C1CDFF021208C143B1031208C1857F19
:101C8300001208C1CBA4011208C11FA4011208C18C
:101C930070A2011208C12BA0011208C1B29F011248
:101CA30008C1599F011208C1ED9E011208C1C49ECB
:101CB300011208C1B79C011208C1839C011208C11B
:101CC300509C011208C1349C011208C15A9B011295
:101CD30008C1129B011208C14799011208C1C79894
:101CE300011208C1C498011208C1CB97011208C19F
:101CF3009997011208C1D696011208C101950112E4
:101D030008C19294011208C1A2AE011208C1ABAD81
:101D1300011208C18FAD011208C13BAD011208C108
:101D2300F3AC011208C16494011208C16194011259
:101D330008C14E94011208C1E693011208C131ACE7
:101D4300011208C1D593011208C1B692011208C14C
:101D53008092011208C14392011208C1E491011259
:101D630008C1A4AB011208C197AB011208C1BADEC6
:101D7300021208C1B391011208C16E8E011208C18B
:101D83005F8D011208C1EE8C011208C1B38C0112E0
:101D930008C17E8C011208C1728C011208C1D28B5A
:101DA300011208C1198B011208C1EC88011208C184
:101DB3007886011208C13686011208C10185011215
:101DC30008C1B684011208C1E883011208C13F8328
:101DD300011208C1DB82011208C11583011208C177
:101DE300A5A8011208C1B8D90200000080FBE47362
:101DF3000001363601010001020100010301000167
:101E03000401060605020000070100340801000F63
:101E1300090401010D0100FF0E0800001702000074
:101E2300190100FF1A0100011B0100FE1C0100083B
:101E33001D0200001F01000120010001210200001A
:101E43002301000F240200002601000127010008DE
:101E5300280200FF2A0100072B0102402C01000089
:101E63002D0100012E0100012F0100FF30010B1C89
:101E7300310800003A0100083B01000F2F01000068
:101E83000300710030016000110070003102200373
:101E93005004800010006100000014006300730010
:101EA30072006200430000001300060000000000FF
:101EB3000400120000000000000000000400040001
:101EC300370037003C02440000000000000000001F
:101ED300650000003500810000000500000083005C
:101EE300000003027102300160021102700201025C
:101EF300020202028002100261023A004100630200
:101F030073027202620243020002130238000002EB
:101F13000002040212020002000200020002040294
:101F23000402370037003C02440200023900000279
:101F330000026502000235028102000205028202EC
:101F4300830200020103710301030103010301037F
:101F53000103220302030103100300030003000330
:101F630000030003000300034203000324030603EA
:101F730000030003040312032503230325032303A0
:101F830004030403000300030003440300030003EA
:101F930023030003650321003503810300030503C5
:101FA300000300030003010171010101010111019B
:101FB30001013101010101018001100161013B00B7
:101FC30014006301730172016201430100011301F3
:101FD30006013D0135000401120100010001000169
:101FE300000104010401330133013C0144013201C6
:101FF3003600000100016501000135008101000187
:102003000501820183010001360001000600000082
:102013000F0000000000000000000000000003FFAC
:10202300FF00000403FFFF0000FFFF0FF4010005A2
:10203300C4040320000100030B00000000000000A3
:102043000003010F01007A170200F0160300F616D1
:102053000400FC160500021706000E1711002617D0
:1020630014002C1715002017FFFF000003EAF5E505
:10207300D5D5C5B5A59595858575756565555545BD
:102083004535352525151505FA0F2A1000100610BC
:10209300241018101210301036103C1048100C1079
:1020A300F40FEE0F0AC60D02900D05A20D07960D53
:1020B3000C720D0D840DFF000000160F00000B15B0
:1020C3000B020002220F32000006E410F610FC108F
:1020D300C40F0211BE0FCA0F4411621168114A11D5
:1020E300561150110C0E020B040B0A0708000F3097
:1020F3003016181920231A1C1E3000011916181641
:10210300161523030000034948424D1817250502FD
:1021130000383C3E363B3B352B432C3030171819E7
:1021230021301B1D1F30381108110E111A11141103
:102133001E1042105C114E105410020402010101E2
:1021430001090200000000000000BE040A0E00E8BE
:1021530003040015002800040C05030908FF1E1ED4
:102163000A040F100C74F7120428E99003B0F090DE
:102173000365E4F0121BE89003B5E4F0A3F09003C9
:10218300B1F0A3F0120EFE121BEE900334E4F0A3A1
:10219300F090216593FA7902121C4E024DFE74F2FF
:1021A300120428EAFEEBFF548060699003B0E0F963
:1021B3001214448A088B09EA4509604F7C008001A8
:1021C3000CEC75F003A4F8A9F074A728F582742029
:1021D30039F583E493F4602CE493F88508828B83C8
:1021E300E06870DCAA08EC75F003A4F874A828F57D
:1021F30082742039F583E493C0E0740193F583D0AE
:1022030082121DF1AA08AB09121438EEFAEF6480AA
:10221300FB02236EEF5420601D120E208A088B09E7
:10222300EA4509600A120D84AA08AB09121438EEB4
:10223300FAEF642080DAEEA2E0501A90036AE064B9
:102243000F700B7900120D4EE96003122371EE64D7
:1022530001FAEF80BB5420700302233C750C00127B
:1022630038438B09EA450970107C027D007A207B94
:10227300009003B0E0F912158E7C0079047A007B9C
:1022830000120DFC8A088B09801885088285098352
:10229300A3A3A3A3A3A3A3A3A37401F0850A0885FF
:1022A3000B09E5084509606D7C007904AA08AB09B0
:1022B300120DFC8A0A8B0B750C01E5082404F8E562
:1022C300091235E724FFF0A3E034FF1258DA70CC8B
:1022D300850882850983A3A3A3A3A3A3A3A3A3A37D
:1022E300E0640170A5850882850983A3A3A3A3A342
:1022F300A3E054047094850882850983A3A3A3A350
:10230300A3A3A3A3A37406F07AB7850882850983E0
:1023130012249D8087120DCC7C0079017A007B000A
:10232300120DFC8B09EA45097009E50C70057A204A
:1023330012479DEE6420022254EF5402600B120EEA
:10234300F8EEFAEF6402022213EF54046019124903
:10235300341248547901900363124BB8120C94EE73
:10236300FAEF64040222137A007B000225A4900C86
:10237300F9122C3B120D6622C082C08374EA120943
:10238300BE851882851983AA82AB83794B121C24DC
:102393007408120B9D7402F07409120B9DAA82AB90
:1023A300837950121C247413120B9DE4124D87126F
:1023B3001C427416023D6174F712042874E1120979
:1023C300BEEAFEEBFFEE4F6033851882851983ACBE
:1023D30082AD83120E447406120B9DE0601E7417C7
:1023E300120B9DE0FD7401120B9DE0FCEEFAEFFB76
:1023F3007900120BBCE9600479A480027900024DD4
:10240300F974F6120428EAFEEBFF8E828F83A3A3EE
:10241300A3A3A3A3E05440601B12527612256B6062
:10242300067AFF7BFF801A8E828F831239EDFAA31F
:10243300E0FB8003120E6874FE6A700374FF6B6026
:10244300411252761247E1120EBCE98E828F8360ED
:1024530006122496E480051224967401F07C547DC0
:102463000D8E828F83124BB8121C48E9F508701544
:10247300EE4F60097901EEFAEFFB120DD8A90802BD
:1024830048127508CDAA088E828F8312249DE960B5
:10249300DF80EAE0240D123EBC22E0240C123EBC95
:1024A300E0F9120D602274F6120428E9FEEAFF7ABD
:1024B3000F7B00121432EA4B60198A828B83740CEF
:1024C300F0EEA3A3F0EF8A828B83A3F012483D7949
:1024D30000802FEEF9120E028A088B09A808A909B9
:1024E300E849601C88828983A3A3A3A3A3A3A3A30E
:1024F300A37406125501E0F9120D18EEF9120DDE60
:102503007910024812C082C08390036AE0640F709E
:1025130014EA4B6010900365E064086005E064040E
:10252300700312252B023D8BEAFCEBFD7A017B0045
:102533009003B0E0F912158822C082C0837900EAC3
:10254300241DF582EB1239EA24FD600B1460082484
:10255300FD600424FD700109023D8B8E828F83A3ED
:10256300A3A3A3A3A3A3A3A312256F22123A32FB0F
:10257300120EBCE9228E828F83A3A3A3A3A3A3A3DA
:10258300A3A312256F6402228E828F83A3A3A3A326
:10259300A3A3A3A3A3123D82900356E068221209CA
:1025A300447F0602064174F412042874FD1209BE26
:1025B3008A088B098A828B83A3A3E0F9120E028A0D
:1025C3000A8B0BAE0AAF0BEE4F70030226B08508E1
:1025D30082850983A3E064F16030850882850983DD
:1025E300A3E064CD6024850882850983A3E0641A8F
:1025F3006018850882850983A3E064E9600C850877
:1026030082850983A3E064E170087900120DD8E99B
:10261300706C850882850983A3E0C0E07402120B05
:102623009DD0E0123D66EEF0A3EF12309185188243
:10263300851983AA82AB837005120C7C8003120E6A
:10264300A47402120B9DE064E970338E828F8312AF
:1026530026BC750A01780A120900750AE9780A127C
:102663000900E508240CF582E509122B8312306E6C
:10267300FCA3E0FD8A828B831230881209448E8288
:102683008F83A3A3A3A3A3A3A3A3A3E064027010B4
:102693008E828F83A3A3A3A3A3A3A3A3A37406F0F0
:1026A300850882850983A3A3E0F9120DDE120DCC00
:1026B300900CFD122374022C40E0F8A3E0F9E8FA31
:1026C300E9FB2274F4120428EAFEEBFF7508008E7E
:1026D300828F83A3A3A3A3A3E060427508088E821D
:1026E3008F83A3A3A3A3A3A3A3A3123C958B0BEA5A
:1026F300450B601075082C8E828F83A3A3A3A3A31D
:10270300E0D2E0F08E828F83A3A3A3A3A3E05403BC
:10271300640160030227AF4308110227AFEE2418B8
:10272300122C4D6033EE241A122C4D700F12258B90
:102733007003A3E06970757508228070EE241BF5A1
:1027430082EF1227B4241AF582EF123099EE24197E
:102753001252AA120D0680541225787003750801CF
:1027630012258B7003A3E0697006E508D2E1F50832
:10277300E50860158E828F83A3A3E07006E508D277
:10278300E58004E508D2E6F50812255E64017006CB
:10279300E508D2E0F5088E828F83A3A3E0600D12D3
:1027A30027C264016006E508C2E0F508A908022C07
:1027B300451239D81227BB22E0FCA3E0FDEE22121A
:1027C30039D2123A0AF9120EAAE922C082C08379D9
:1027D300018A828B83A3A3E0C394024001198A82F6
:1027E3008B83A3A3A3A3E0C39402400279008A824C
:1027F3008B83A3A3A3A3A3A3A3A3A3E064F870035E
:10280300A3E0F460458A828B83A3A3A3A3A3A3A31A
:10281300A3A3E064F97003A3E0F4602E8A828B83A0
:10282300A3A3A3A3A3A3A3A3A3E064FA7003A3E0B6
:10283300F460178A828B83A3A3A3A3A3A3A3A3A355
:10284300E064FB7003A3E0F4700279008A828B8357
:10285300A3A3A3E0F8900353E06860027900023D6C
:102863008B74F012042874DE1209BEEAFEEBFF8EAD
:10287300828F83A3A3A3A3E0600E900CFB124809ED
:102883006006900CFB1223747403120B9DAC82AD93
:10289300838E828F83A3A3A312488B1250C4E96053
:1028A3000F7403120B9DAA82AB83120D7EE970088D
:1028B3007901121BFA022B78EE241B1239DD7410F6
:1028C300120B9D1248547409120B9DE06021741A77
:1028D300120B9DE0FD7404120B9DE0FC8E828F832E
:1028E300124BB67901120BBCE96004790280C37400
:1028F30003120B9DAA82AB83120D78E9F50A7409C2
:10290300120B9DE0702A90034DE060247422550A57
:102913006422601C7442550A644270CF7420120B07
:102923009D122B96600A7420120B9D122B8F70BB85
:10293300E9A2E650417403120B9DAA82AB83120DE8
:102943006CE970030228B37420120B9D1239ED64F5
:1029530003700F7420120B9DA31247FBA3E0640DB9
:1029630060147403120B9DAA82AB83120ECEE9642A
:10297300017003022B78EE242C122B80122EA470EC
:1029830003A3E069701C7508007808120900780831
:10299300120900EE242E1252AA122B9C1230881216
:1029A30009447409120B9DE07003022A55122B9CF3
:1029B300124BB8120F228A088B09EA4509700302E9
:1029C3002AF27404120B9DE0F88E828F83A3A3E096
:1029D30028F8A3E03400F9E8240D122B878A828BB0
:1029E30083A3A3A3E068601CE88A828B83A3A3A3C9
:1029F300F09082A9120B7A850882850983A3A3A389
:102A0300A3120B867904E9120B9D1250A12AF8A395
:102A1300E034008882F583A3AA82AB831214268A4A
:102A23000C8B0D8C0E8D0F850882850983A3A3A3C0
:102A3300A3780C12087A4003022B789082BD780C9D
:102A4300120A4D850882850983A3A3A3A3780C12D8
:102A53000B42900365E064046008E06409600302CC
:102A63002B78E50AA2E54003022B30EE242E122C2C
:102A73004D851882851983F0EE242F122C4DC0E06A
:102A83007401120B9DD0E0F0EE2430122C4DC0E007
:102A93007402120B9DD0E0F07414120B9DE06401DC
:102AA3007027740E120B9D1239E3EE2412122C4D73
:102AB300687003A3E0697011740C120B9D122585D5
:102AC30070077414120B9DE4F0EE2424122B801271
:102AD30007427404120B9DAC82AD837407120B9DE5
:102AE300AA82AB83120C827404120944022B7890DD
:102AF30003AAE064016003022A557420120B9D129D
:102B03002B967009E50AA2E65003022A55741012A7
:102B13000B9DE0F47003A3E0F4605AEEFCEFFD7448
:102B230003120B9DAA82AB83120D8A8048A2E65042
:102B3300447420120B9D124BC7701A741A120B9D0A
:102B4300E0640270307403120B9DAA82AB83790098
:102B5300120E9880207420120B9D122B8F70167406
:102B63001A120B9DE06404700C7403120B9DAA826D
:102B7300AB83120E927422024F73EE240BF582EF95
:102B83001239D822F582E912486DF822125288E0F0
:102B9300640722123A0A640622EE242A1239D51255
:102BA30027BB24121239D52274F4120428EAFEEB4F
:102BB300FF8C088D099005DDE0600F12258B7003F3
:102BC300A3E0697005120CF4804F7900124BAB122D
:102BD3000D248A828B83E58245836035A3A3A3A357
:102BE300A3A3E05418602AE508241BF582E5091223
:102BF3002B83120746123281122B83120746EE24CF
:102C0300181252AA122C1E120D3674041209448093
:102C1300087900122C1E120CFA80278E828F83A350
:102C2300A3A3A3A3A3A3A3A31227BB240BF582EF00
:102C3300122C37223400F583123A32FB227403122A
:102C430009447F04020641EE2417F582EF12486D12
:102C53002274F712042874F71209BEEAFEEBFF9000
:102C63000365E06403600DE064016008E0640960EB
:102C730003022D1E8E828F83A3E0707E7C007D0075
:102C83007A027B00121BF4EE2402FAEF1235EE12E5
:102C930039E39003561248547953121C2A790012CF
:102CA3002D23E0640960031230B6851882851983E9
:102CB300740112482A9003657404F07401120B9D89
:102CC300AA82AB83794A121C247401120B9DAC8235
:102CD300AD837A5B7B03121C129003561250BA7AAF
:102CE300031230C0900350E0A2E35004D2F08002FC
:102CF300C2F0124817122371801E8E828F83A3AEF7
:102D030082AF83FC7D007A037B10121BF48E828FCB
:102D130083E0F9122D23E4F0120DB47409024DFB84
:102D2300900363122C3B120C9490036522C082C063
:102D330083900334124809701F900365E0146009FF
:102D430024FC600A14600C800F90033C80329003D3
:102D530038802D90033A8028E849600890033512A3
:102D63003068700C8A828B83A3E0F9120C88801B75
:102D730090033512331D7005120EEC800E9003D2B2
:102D830012480960061247FB121DF1023D8B74F4D1
:102D930012042874FB1209BE8A088B097A0F7B0080
:102DA3001214328A0A8B0BAE0AAF0BEE4F7003027A
:102DB3002E988E828F83124D857950121C2485089C
:102DC30082850983A3E06003022E80900363E0F40D
:102DD3007003A3E0F46034900363E064FE7003A324
:102DE300E0F46027851882851983122EA47003A34B
:102DF300E0696017850882850983A374EA12309E0F
:102E03007A637B037950121C2A8072851882851994
:102E1300831252691248547A567B037953121C2445
:102E23009003561248851248547A597B03794B1202
:102E33001C247A587B0379E1121C2490036AE0C3B3
:102E4300940F5021900358E0C0E07402120B9DD000
:102E5300E0F07404120B9D7401F004120B9DAA821E
:102E6300AB83121C3C750A00780A120900780A1217
:102E73000900900D1FE0F912307F12094485088282
:102E8300850983122E9DA3F09003657403F0EEFA77
:102E9300EFFB12483D7405022C42A3E08E828F8320
:102EA3002212526DE06822123EC32274F5120428E6
:102EB30074D81209BE8A088B098A828B83A3A3A3C1
:102EC300123A0F7415120B9DAC82AD838A828B83E9
:102ED300A3A3A3A3A3A3A3A312306EFAA3E0FB129D
:102EE3000DBA7415120B9DE0706B850882850983FA
:102EF300A3A3A3A3A3A3A3A3E0C3940B40578E82CE
:102F03008F83A3A3A3A3A3A3A3A3E064027046EEAA
:102F1300240B122C4DF4703D900365E06402603A7B
:102F2300E064066035900334124809600512306886
:102F3300604F900365E064086005E06404701674F4
:102F430017120B9DE0F9741C120B9DAC82AD83121A
:102F53004BAB120DC07428025787900334124809F3
:102F6300701F75080078081209007808120900EE2E
:102F73002410122B801252C21236D6123088120934
:102F8300448E828F83124B271236001239E3740268
:102F9300120B9D124854EE240D122C4DC0E0740404
:102FA300120B9DD0E0123091F508A3E0F509740FE0
:102FB3007808120B337405120B9DE508F07419128F
:102FC3000B9DE0C0E07406120B9DD0E0F0741B1261
:102FD3000B9DE0C0E07407120B9DD0E0F074161255
:102FE3000B9DE0C0E07409120B9DD0E0F074171242
:102FF3000B9DE0C0E07408120B9DD0E0F0EE2410AE
:10300300122C4DC0E0740A120B9DD0E0F0741A121A
:103013000B9DE0C0E0740B120B9DD0E0F0742712FF
:103023000B9DE0C0E0740C120B9DD0E0F0741C12F9
:103033000B9DA982AA8389088A09750A0078081258
:1030430008F87C087D007410120B9DAA82AB8312D2
:1030530043B8120944851882851983AA82AB831267
:103063000C8E022F58123323640122E0F98A828BDB
:1030730083A3A3A3A3A3A3A3A3A3E0229003631205
:1030830050BE900359122C3B120E7A740222F0EEBA
:10309300240B12486A2212486DFA22F07A567B03F7
:1030A30079531230A922121C2A7A597B03794B12C5
:1030B3001C2A22900363122C3B120F1C227B00124A
:1030C3001BF49003591250BE7A047B00121BF422A6
:1030D300F01252CD2274F212042874F81209BEEAD7
:1030E300FEEBFF8C0A8D0B890C851882851983AC46
:1030F30082AD83758382758265740812083AF50D73
:10310300EEFCEFFD851882851983AA82AB83124AF0
:10311300887003750D019003B1803BEEFCEFFDE574
:1031230008240BFAE5093400124A87601E850882D9
:10313300850983A3A3E0650C701185088285098343
:10314300E0650A7004A3E0650B6038E5082414F514
:1031530082E509122B831235F8E50845096024E559
:103163000DA2E040B6850882850983E0650A7004F4
:10317300A3E0650B70D5850882850983A3A3E06569
:103183000C70C8AA08AB0974080225A1C082C083C9
:103193009003B1023D8874F71204289003B1123AE8
:1031A300328012EA2414F582EB122B83123A0F12A7
:1031B30014D4EEFAEFFBEA4B70E99003B1E4F0A309
:1031C300F0024DFE7F0702064174F1120428EAFE65
:1031D300EBFF890A8C088D098E828F83E08C828DA8
:1031E30083123C9FAE82AF83E01244781243E9C45A
:1031F30012447812328AE054038C828D831243E79F
:10320300A2E2E4338C828D831243E6131313541F1B
:103213001244781243E5A2E7E4338C828D83A3A39F
:10322300A3A312328A8E0C8F0D750E00780C120830
:10323300F87C087D00E508240712502D120944127A
:1032430050988E0C8F0D780C1208F87C037D00E5E6
:1032530008240F12502D120944E50AC3940F401499
:103263008E828F83A3A3A3E0C0E0123281122B834B
:10327300D0E080061232811254F5F00231C7E5081E
:103283002412F582E50922A3A3123CA30EAF8322E5
:1032930074F412042874F91209BEEAFEEBFF8908DC
:1032A300900334124809600E12331D7009EEFAEFD1
:1032B300FB120EE6805F900363E06E7003A3E06F82
:1032C30070537401650860097A777B03124A88702A
:1032D300447A007B021238478B0BEA450B70369019
:1032E3000366120B7A851882851983120B86900365
:1032F3006CE0C0E07404120B9DD0E0F07405120B77
:103303009D7401F07406120B9D124D85120C58E941
:10331300609B120C5E7407022C4212332364022258
:10332300125289A3A3A3A3A3A3E02274F512042832
:103333008A088B098A828B83A3AE82AF83E0F9125A
:103343000CAC8E828F83E064EB600C850882850968
:1033530083A3E064E17009850882850983A3E4F00F
:10336300122371750A01780A1209008508828509FA
:1033730083A3E0F5087808120900790012307F1260
:103383000944120DCC02578AEAF0A3EBF0023D8BFD
:1033930074F61204289003B4E0701B7C0079017A60
:1033A300007B00120DFCEA4B600C8A828B8312486F
:1033B300096003120D5A024812C082C08312382FCB
:1033C300401079FF120DF6E9F8902167E493C39852
:1033D3005004790180027900023D8B74F0120428B5
:1033E3008A088B09890B750C008A828B83A3A3A39C
:1033F300A3A3A3A3A3E0F9120E028A0E8B0FAE0EB2
:10340300AF0F750A01EE4F60030234BC8508828555
:103413000983A3A3A3A3A3A31250BA850882850992
:1034230083A3A3A3A3A3A3A31241B8124BB8120D62
:10343300EA8A0C8B0DAE0CAF0DEE4F70030235DF35
:103443008E828F83A3A3A3A3E4F0A3F0E508240B48
:103453001235EBE0C0E0122B7DD0E0F0120EC2EE8D
:10346300240CF582EF1247DDE508240EF582E50909
:103473001239E0EE240EF582EF124851750C01EE7D
:103483002406F8EF1235E7547FF0A3E054FC1253FF
:103493001FE054046003023542900D011241A974E8
:1034A300077808120ABF8E828F83A3A3A3A3A3A3C3
:1034B300E04508F0A3E04509F08E828F83A3A3A320
:1034C300A31235F674077808120B33E5085407F591
:1034D30008E50B607A8E828F83A3A3A3A3A3A3A380
:1034E300A3A374021243EA240D123EB8E0A2E250F1
:1034F3000B900351124885A3A3124854E5087003A7
:103503000235B4EE2406F8EF3400F9E8FAE9FB8A51
:10351300828B83E0547FFCA3E054FCFDE50824FF89
:10352300F508E434FFF50974077808120ABFEC457F
:1035330008F8ED4509F98A828B8312485480728E0C
:10354300828F83A3A3A3A3A3A3E044800234BBE598
:10355300087005750A0080598E828F83A3A3A3A3E5
:10356300A3A3E05420601212142CEA547F245F8E2C
:10357300828F83A3A3A3A380238E828F83A3A3A37A
:10358300A3A3A3E05410600A12142CEA540F240AD4
:1035930080DD8E828F83A3A3A3A37401F0A3E4121F
:1035A3003600740412383E8B09EA4509700312474A
:1035B300D0E50CA2E050288E828F83A3A3A3A3128D
:1035C3004DEBF9EEFAEFFB120DF0E960121247FF33
:1035D30060031239C8EEFAEFFB1214D4750A00A97E
:1035E3000A024F7612494822FAE5093400FB8A821F
:1035F3008B8322A3A3E0F508A3E0F5092212360486
:1036030022125049A3A3A3A3A32274F4120428747F
:10361300F71209BE7E00120E02EA4B70030236CF88
:103623008A828B83A3A3A3A3A3A3A3A3A3E0640678
:1036330060030236CF8A828B83A3A3A3A3A3A3A38E
:10364300E0FF8A828B83123ECBE0C0E07408120B4A
:103653009DD0E0123A03124A8E124854120E14EF10
:10366300540860668518828519831250BA7A007BE4
:1036730000120DE48B0BEA450B704F900363123A73
:10368300F3121C547C007D007A007B0080288E821C
:103693008F831239EDF47003A3E0F4602D9003637C
:1036A3001236D6124BB8121948E9641A601C7C0012
:1036B3007D00EEFAEFFB120DE48A0A8B0BAE0AAF24
:1036C3000BEE4F70C97900121C5A7E01EEF9740992
:1036D300022C421236DA22E0FCA3E0FD8E828F83B5
:1036E30022C082C083EA4B70059003B580068A82AC
:1036F3008B83A3A31238F360258A828B83A3A3A3AE
:10370300A3A3A3A3E0540860E5EC4D60158A828B64
:10371300831239ED6C7003A3E06D70D280047A00DC
:103723007B00023D8B74F2120428EAFEEBFF890A48
:103733008C088D097A107B001214CEEA4B603F8A05
:10374300828B83A3A3A3A3A3A3A3A3A3E41239F10B
:10375300A3E50A12528FA312378B8A828B83A3A30A
:10376300A3A3E4F0A31239FDA3F0125123EA240C1E
:10377300F582EB123C8F123784A3A3F0A3F002254A
:10378300A4A3F08A828B8322A3A3E508F0A3E5090F
:10379300F02274F4120428EAFEEBFF89088C0A8DE8
:1037A3000BEE4F60557401650870147901120DF624
:1037B300E9F890215FE493C398500F7911806A74FC
:1037C300046508702F12382F40F18E828F83A3A3D4
:1037D300A3A3A3A3A3A3A3E508123C9FA312581476
:1037E3008E828F83A3A3E4F0A3F09003B51248095C
:1037F3006021800D7402650860D079C1802BE0F8E8
:10380300A312487EA3A31238F388828983A3A370EB
:10381300ED80039003B5EEF0A3EF12383E8B0BEA75
:10382300450B70031247D07900022C457904120D21
:10383300F6E9F890215CE493C39822F0123843220E
:103843007A207B009003B0E0F912159A22C082C05F
:1038530083E9F879009003B5801D8A828B83A3A343
:10386300A3A3A3A3A3A3A3E068600574FF687001E7
:10387300098A828B83A3A31238F370DE023D8B7413
:10388300F7120428EA4B70059003B580068A828BF1
:1038930083A3A31238F360248A828B83A3A3A3A3F5
:1038A300A3A3A3A3A3E06970E4EC60148A828B83CF
:1038B300E0240D1250ABA2E240D380047A007B00D7
:1038C300024DFEC082C0839003B580068A828B833B
:1038D300A3A31238F360128A828B83A3A3A3A3A3A7
:1038E300A3A3A3E06970E580047A007B00023D8B0B
:1038F300122C3BEA4B2274F21204288A0A8B0B8C9B
:103903000C8D0D750800750900EA450B602E9003B8
:10391300B580068E828F83A3A3123946601EAC0C3A
:10392300AD0DEEFAEFFB850A82850B83121DF1E9DB
:10393300640170DFEEF8EFF988088909AA08AB097A
:103943000225A4E0FEA3E0FFEE4F2274F712042841
:103953009003B51239E37C007D00800DE8FCE9FD9E
:1039630088828983A3A31239E3E8496030EA687047
:1039730002EB6970E79003B5124BB8E86A7002E98D
:103983006B88828983A3A370081239E39003B580FF
:10399300091239E38C828D83A3A3124854024DFE8E
:1039A30074F7120428EAFEEBFFEE4F6015120E0EB9
:1039B300123A151247FF60031239C8EEFAEFFB12F1
:1039C30014D4024DFEEE240C1239D5123A2A22EEFB
:1039D300241DF582EF3400F58322F582EF1239D8E6
:1039E300123D8222F582EF1239D8123A0A22123995
:1039F300F522125297A3A3A3A3221239F5A3A3225C
:103A0300123785123A0A22125282E022E0FEA3E024
:103A1300FF228E828F83E0241C123EBC123A2A8E30
:103A2300828F83123A2A22123A32FB1214D422E0F2
:103A3300FAA3E022C082C083EAFCEBFDEC4D7004E4
:103A430079058044EC24FBF582ED34FF12480770BE
:103A530007123A8EE0F4600512143880E39003B045
:103A6300E0C0E0123A8ED0E0F0902163E493F97A5B
:103A7300B77B03121462E96401700B7A007B201296
:103A830047D4790080027904023D8BEC24FFF58250
:103A9300ED34FFF5832274F4120428A2AFE433F566
:103AA30008C2AF9003B71239466038EE24FBF582A3
:103AB300EF34FF1248077A007B209003B0600512B1
:103AC30047D78005E0F912146EE4F50AF50B780A7E
:103AD3001208FCEEFCEFFD7AB77B0312145C740250
:103AE300120944E508A2E092AFEEFAEFFB022C457F
:103AF3001250BE851882851983AA82AB832274F281
:103B030012042874FC1209BEEAFEEBFF750AFE7567
:103B13000BFF120DD2E960057911023C84EE2415E6
:103B2300122C4D6037900D15E0C43354E0F8E033A8
:103B33003354FC48C0E0EE2415122B80D0E0123C35
:103B43009F123C958B09EA45096011750AFFEE2423
:103B53000F122C4D4404124862D2E0F08E828F8300
:103B63001225696006EE2412123C8CEE2413122CEB
:103B73004D7010902162E493C0E0EE2413122B8069
:103B8300D0E0F08E828F83E0A2E750045403801CC0
:103B9300EE2414122C4D7015900342E0C0E0EE2485
:103BA30014122B80D0E0F0900342E004F0EE2411D5
:103BB300122C4D640170169005D4E0600D90034DF6
:103BC300E0700A8E828F83E07003123C898E828FAD
:103BD30083E064017013EE240B1239E76402700969
:103BE300EE240F122C4D4440F0851882851983ACC6
:103BF30082AD83EEFAEFFB120E388A088B0974FE4E
:103C0300650A700374FFF470098E828F83A3A31275
:103C13005039EA450960668E828F83E0C0E0740103
:103C2300120B9DD0E0F07402120B9D125127740108
:103C3300120B9D85820C85830D780C1208FCEE24F3
:103C43000F122B80120746EE240E122C4DF50C7822
:103C53000C1209009003561207467407120B9DE0DD
:103C6300F9AC0AAD0B120E327407120944E9FE7463
:103C7300106E700BAA08AB091214D480027E10EEEA
:103C8300F974040225A1EE2411F582EF1239D8E468
:103C9300F022A3122C3B79FF121D2022123CA322F7
:103CA300F08E828F83A322C082C08374DE1209BE8A
:103CB3008A828B83A3A3A3A31239E3740E120B9DF1
:103CC300E8F0A3E9123D79740C120B9D123D7224A6
:103CD3000DF582EB122C50C0E0741A120B9DD0E04C
:103CE300F0124F86EB1239E07420120B9D123D72D5
:103CF3002415F582EB122C50C0E07408120B9DD0F2
:103D0300E0F0EA241CF582EB1239E07412120B9DE9
:103D1300123D722411F582EB122C50C0E07409128B
:103D23000B9DD0E0123D6674FFF07401120B9D747D
:103D3300FFF07402120B9D74FFF09082A9120742E8
:103D43007404120B9DAC82AD837407120B9DAA827F
:103D5300AB83120C82740412094479007422120991
:103D6300448025123D6A22F085188285198322E852
:103D7300F0A3E9F0EA22123785A3123D8122A3E0E2
:103D8300F8A3E0F922124BB8D083D0820208BE74A4
:103D9300EC12042874EE1209BE8A128B13ECFEEDAA
:103DA300FF89097426120B9D1250397428120B9D3A
:103DB300E0F5107429120B9D123EAD742B120B9D6E
:103DC300E0F50EA3E0F50F7508107A1E7B001214C0
:103DD300CE7402120B9D1247E17402120B9D12481E
:103DE300097003023EA6851882851983AA82AB83D4
:103DF30079501246BC124BB87402120B9D123ECB83
:103E0300A31247E17410120B9D1258167402120B81
:103E13009DE0240B123EB87402F0120B9D123ECBB0
:103E23007402F0120B9D12527A1251277402120B74
:103E33009D124BCDE509F07402120B9DE0240C1288
:103E43003EB8E510F07402120B9D123EB5E512F078
:103E5300A3E513F07408120B9DE50CF0A3E50DF038
:103E6300740A120B9DE510F0850E82850F83C082C4
:103E7300C083740D120B9DAC82AD83D083D082744A
:103E83000312083AF97402120B9DAA82AB83120D36
:103E9300D8E96401700575080080087402120B9D4F
:103EA3001239CEA9087412025050E0F50CA3E0F5C4
:103EB3000D22E0241C123EBC22F8A3E0123EC322D2
:103EC3003400F98882898322124BC0A3A3A3A3A33E
:103ED3002274EE120428EAFEEBFF8C088D098E8211
:103EE3008F83A3740812489DE060088E828F83A39A
:103EF3007410F0122C4A60098E828F83A3E0240889
:103F0300F0EE2415122C4D60088E828F83A3E004FB
:103F1300F08E828F83A3A3A3A3A3A3E060198E8251
:103F23008F83A3A3A3A3A3A3A3E0C3332402F88E85
:103F3300828F83A3E028F0EE2411122C4D600575C7
:103F43000B0E8003750B008E828F83A3C082C08308
:103F5300EE240D122C4DD083D082F8E028250B8C53
:103F6300828D83F0EE2411122C4D60051243C82874
:103F7300F0850882850983E0C394754009750800BC
:103F83007509000240B6E0FA7B001251D5700302B6
:103F930040B6EEFAEFFB120E3EEA850882850983EE
:103FA3001247E2EE2402F8EF122EAA1241B0124099
:103FB300F2F0EE24040808EF122EAA1245F2A3121F
:103FC30040F2A3A3F0EE24131240D8F0EE2414120F
:103FD30040D8A3F0750A08EE2416122C4D6010EE9B
:103FE30024181250B7E50824081252B8750A1012A3
:103FF3002C4A6016EE241A1250B7850A0CE50825E0
:104003000C1252B87408250AF50A8E828F83A3A373
:10401300A3A3A3A3E06059EE2407F510EF3400F542
:1040230011851082F583E0C0E01240BF122B83D0CC
:10403300E01240E2E0C0E01240BF122B83D0E01256
:1040430040E2A31240CB1208F8851082851183E069
:10405300C333FCE433FD850A0CE508250C12502D0F
:10406300120944851082851183E0C333250AF50ABA
:10407300EE2415122C4D600BC0E01240BF122B83AF
:10408300D0E0F0122B7D1240CB1208F8EE240D1273
:104093002C4DFC7D00850B0A8E828F83A3E0F8E50F
:1040A3000828F8E5093400F9E8250AFAE91250303E
:1040B300120944AA08AB097F0A020641850A0CE5E6
:1040C30008250CF582E50922E0F50CA3E0F50D7552
:1040D3000E00780C221239D51240FCA3A3A322F0C0
:1040E300050A8E828F83A3A3A3A3A3A3A3A322A3BF
:1040F300A3125323A31240FC221245F6A3A3227456
:10410300F61204288A828B83E0FC9003531241A9A0
:1041130074027808120ABFEC4508FCAD09EA2412C0
:104123001241A374067808120ABFEC4508FCED455A
:1041330009FDEA2415F582EB122C50600478018006
:10414300027800E4C8F9ED49FDEA2411F582EB1287
:104153002C50F508880974097808120ABFED45093F
:10416300FDEA24161241A3740B7808120ABFED4529
:1041730009FDEA24171241A3740C7808120ABFED53
:104183004509FD8A828B83A3A3A3A3A3A31241A9F9
:10419300740A7808120ABFECFAED4509FB024812CB
:1041A300F582EB1239D8E0F50875090022E085089D
:1041B3008285098322A3E0F9850882850983227415
:1041C300EE1204288A0A8B0BECFEEDFF750F01E952
:1041D300C39408500579000243B58E828F83E9F0BA
:1041E30012461BE96003750F001245FF8E828F8311
:1041F300124649EE124F87EF12463EC0E0EE2411FD
:10420300122B80D0E0124636C0E0EE2412122B802F
:10421300D0E0123C9F7408125041A3A3A3E06015A1
:104223001245E7EE2413F582EF1248518E828F83F5
:10423300A3E02408F08E828F83A3A3A3A3A3A3A345
:10424300A3E060218E828F83A38582088583091270
:10425300462AEE2415F582EF124851850882850916
:1042630083E02408F08E828F83A3A3A3A3A3E0603B
:104273001A8E828F83A385820885830912460E8E48
:10428300828F83A3A3A3A3A31243DAEE2419123CC0
:104293008CEE241B123C8CA3124895E0700302435E
:1042A30049EE2419F8EF3400F98E828F83A38582B7
:1042B30008858309E0FAE50A2AF582E50B122C50FA
:1042C300888289831243DAFAE50A2AF582E50B121A
:1042D3002C50C0E0EE241A122B80D0E01243DA886F
:1042E300828983E06059F890215BE493C398500579
:1042F30075110C8008EE2419122C4DF5118E828F46
:1043030083A3E0F8E50A28F50CE50B1243BE120877
:10431300F8E511C333FCE433FD7AAF7B0B1243B8EA
:10432300120944EE241B122B8074AFF0A3740BF01C
:10433300E511C333F8850882850983E0288006EEFA
:1043430024181254F2F08E828F83A3E0F88E828FAA
:1043530083E0C39850030241D8A3E0FA8A08E50A30
:104363002508F8E50B3400F9EE241DF582EF124918
:104373005D1243EAC39AC0E0EE2417122B80D0E00B
:1043830012485A602BEE2417F8EF3400F988088995
:10439300098882F583E024F212493E240EFAA3E051
:1043A3003400FB888289831247E11243C8C398F023
:1043B300A90F0240BA12140E7403223400F50D75CE
:1043C3000E00780C2290034EE0F9120BC2E9F88537
:1043D3000882850983E022F0850882850983E00449
:1043E300F022A3A3A3A3A3F08E828F83E02274F40D
:1043F3001204288A088B09EA12447FF0EA13135443
:104403003F124478A3A3A3F0EAC4131312447FA377
:10441300A3F0EB1244711244897409780A120B3326
:1044230012446F124488740A780A120B33E50A5453
:1044330001C0E0EC2418F582ED122B83D0E0124486
:104443008E740B780A120B3312446FA312448874D0
:104453000C780A120B3312446FA3A3A3A3A3A3A341
:10446300A3F0740D7808120B330227AFE50A540149
:104473008C828D8322540F8C828D832254038C82F1
:104483008D83A3A322A3A3A3A3A3A3F08A0A8B0BC5
:1044930022C082C08379008A828B83A3A3A3A3A3B0
:1044A300A3E090034D600FE070228A828B83A3A365
:1044B300E07019098016E060138A828B83124BAF78
:1044C300900356E06A7003A3E06B70E7023D8B74C0
:1044D300F01204288A0A8B0B890C8C088D0912466A
:1044E3001B1245FF850882850983124649E5081298
:1044F3004F87E50912463EC0E0E5082411F582E541
:1045030009122B83D0E0124636C0E0123281122BFF
:1045130083D0E0124965740812497E60111245E7A1
:10452300E5082413124959124965E02408F0850867
:1045330082850983A3A3A3A3A3A3A3A3E0601785F1
:104543000882850983A3124626E5082415124959D2
:104553001243EA2408F0850882850983A3A3A3A351
:10456300A3E06019850882850983A3AE82AF831215
:10457300460E8508828509831243E504F0AA08AB39
:1045830009120E50E9F50D7056850882850983A33B
:10459300A3A3A3A3A31245F27014E0FA8A0EE50ABB
:1045A300250EF8E50B124846E50CC39A8021124606
:1045B30026E8240EF8E912484690034EE0F9120B60
:1045C300C28E828F83E0F8E50CC39824F2C399C0AE
:1045D300E0E5082417F582E509122B83D0E0F0A962
:1045E3000D024F76E50A2408F8E50B3400F9221290
:1045F30045F622E0850882850983A322850A828500
:104603000B83A3A312465FE0F9EA22E0F8E50A2848
:10461300F582E50B12486D228A828B83124F7B123F
:104623000E4A22AE82AF83E0F8E50A28F8E50B34A0
:1046330000F922124672A3A3A3E0221239D8E8128A
:10464300466BA3A3E022A3A3A3A3A3A3A3A3A312A1
:10465300466B12465FA3A3E0F9EAF822E0FA850A63
:1046630082850B83A3A3A322F0A3E912467222F04F
:10467300850A82850B83A3A3A3A322C082C0837A66
:10468300C57B0379E2121C247AC57B03023D8BC0F0
:1046930082C083900356023D88C082C08374FE1299
:1046A30009BE851882851983AA82AB83794B12468A
:1046B300BC124BB87402023D61121C24851882851A
:1046C300198322C082C083794A121C24023D8B7451
:1046D300F61204289003CDE0FE04F0EEF9120E0268
:1046E3008B09EA450970EDEE60EAF902481274F0AD
:1046F300120428EAFEEBFF8C088D09890A74101254
:104703000B9DE0F50B7411120B9DE0F50C120F22BB
:10471300EA4B7013E50C7042A90AAC08AD09EEFA36
:10472300EFFB120F3A806EE50A6021EA2402F5825C
:10473300EB122C50850A082508F8E4340013E8131B
:10474300F070098A828B83A3A37401F0E50C6045A2
:10475300E50B70068A828B83E4F07401650C703577
:10476300E50B9003D47004E4F0802AE004F0900D8C
:1047730002E0F89003D4E0C398401AE4F0900359A0
:10478300E06E7003A3E06F700CEEFAEFFB79011299
:104793000CA612479B024F767A017B009003B0E090
:1047A300F912159422C082C08374016A7001EB7000
:1047B300077A011247D28012900CF91247E1EA4BB3
:1047C300600512252B800312479B023D8B7A207BC9
:1047D300009003B0E0F9121468223400F583EAF084
:1047E300A3EBF022C082C083900CFB02338BC08208
:1047F300C083900CFD02338B12528922EE240CF5F8
:1048030082EF3400F583123D82E849221209447F86
:1048130002020641A2F0E433851882851983124807
:10482300337952121C2A221248337942121C2A224B
:10483300F0AA82AB8322AA08AB099003B0E0F91275
:10484300143E223400F9E508241DF582E5091239E6
:10485300D8E8F0A3E9F022125045A3A3E022A3F085
:10486300EE241512486A22F582EF3400F583E02224
:10487300124877223400F583E0F8A3E0F9888289AF
:104883008322E0F812488B22A3E0F98E828F83A360
:10489300A322F0EE24181239D522F0EE2416123991
:1048A300D52274F4120428EAFEEBFF7A007B04128B
:1048B300479F1249341248549003657409F0120E4D
:1048C3005C8A088B09AC08AD09EE2413122B801205
:1048D3004BB8124A88640170487A0F124927604125
:1048E3008A828B83740212493EFAA3E0FB8A828B8D
:1048F30083A3E0FC8A828B83A3A3E0FBEC8508827D
:10490300850983A3A31247E288828983124BBC12D1
:1049130041B0124861FAA3E0FB794A121C2A1248FB
:1049230039022C457B001214328A088B09EA4509A7
:1049330022900336123D82900CFD22F0EE241DF8E6
:10494300EF12494822123EC3E02212495122340099
:10495300F5837401F022F582E5091239D8E8F0A352
:10496300E9221249692212496D22F08508828509DC
:1049730083A32212496DA3A3A3A322124976A3A35F
:10498300E022124D8F120EB022EE2417F582EF12A1
:104993004951120E5CEE241A1239D5EAF0A3EBF05A
:1049A3002274F412042874F31209BE8908EAFEEB98
:1049B300FF7C0D7D007900851882851983AA82AB5F
:1049C3008312141AEE241D122B8012527AA3E0F8DC
:1049D300741F58600A7901121BFA7900024A7FE8B2
:1049E300A2E55008740C120B9D7401F0E8A2E75085
:1049F30008740B120B9D7401F0E8A2E6740A5008C8
:104A0300120B9D7401F08008120B9DE06401700588
:104A1300EE24138003EE24151250B77402120B9D7B
:104A2300AA82AB83121C12122B7D124A8D12485498
:104A3300740A120B9DE06401703312255E703B1201
:104A43000E688A0A8B0BA80AA90BEE240B122C4DB5
:104A5300687003A3E0697022120E5CEAFCEBFD743C
:104A630002120B9DAA82AB83124A88600D851882BD
:104A7300851983AA82AB83120CA0A908740D022C9A
:104A830042EEFAEFFB121C0CE922E0124A9222F8E2
:104A9300A3E0F98518828519832274F61204287419
:104AA300F31209BE8A088B09ECFEEDFF7C0D7D0035
:104AB3007900851882851983AA82AB8312541FA3B8
:104AC300A3A3A3A3A3A3A3A3124B27124B30F8A220
:104AD300E55008740B120B9D7401F0E8A2E750082F
:104AE300740A120B9D7401F0E8A2E6EE500424133D
:104AF300800224151250B77402120B9D124B19A396
:104B0300A3E0C0E0740C120B9DD0E0124D87120C91
:104B13009A740D02480FAA82AB83121C1285088275
:104B230085098322E0124A92E8F0A3E922F01239C0
:104B3300D212527EA3E02274F712042874E1120900
:104B4300BEEAFEEBFF8E828F83124BBCA3A3A3E0CE
:104B5300A2E050518E828F831226BE8A828B83A35A
:104B6300A3A3A3A3A3E054FE124BD48A828B831284
:104B73004BCDE0F98A828B83E0241CFAA3E0123543
:104B8300EE124BB8120E56E9701B741D120B9D12D8
:104B93004BC77011851882851983AC82AD83EEFAF9
:104BA300EFFB120E9E024DF98E828F83A3A3A3A364
:104BB300A3A3A3A3A3122C3B22124BC02212528203
:104BC300A3A3A322123A0A640422E0241B123EBCCC
:104BD30022123D6AAC82AD8322E9F879007404683D
:104BE300600A740A6860057403687001090208BEEC
:104BF30074F61204288A828B837420F0A3A37401B1
:104C0300F0120C4C8A088B09AE08AF09EE4F601006
:104C13008E828F837401F09003A3E0700312498C9A
:104C2300EEFAEFFB024812C082C0839003B974010D
:104C3300F0E9A2E350037403F0E9A2E15004E0D2E7
:104C4300E2F0023D8B74F612042879007C008A0896
:104C53008B097808120687F8FF077B4C794C794C4F
:104C6300794C794C724C764C7B4C6F4C0C80097CA4
:104C73000480050C80F67C089003B9E05C600309AE
:104C83008003EC60010902481274F61204288A8238
:104C93008B83E07012A3124809600C8A828B831203
:104CA3004BB7121D4A80047A007B0002481274F548
:104CB30012042874F31209BE8A088B09ECFEEDFF77
:104CC300750A12EA450970057900024D8090035672
:104CD300E065087004A3E065097014120E5CEAFC39
:104CE300EBFD124A847005750A018003750A00857D
:104CF3001882851983E4F004120B9DE508F0A3E5FF
:104D030009124D87120C10E960277403120B9DAA38
:104D130082AB83120BF2E964017016750A01740306
:104D2300120B9DAC82AD83124A846021750A008008
:104D33001C7412650A70169003A2E06402700EEEF2
:104D4300FCEFFDAA08AB09120C28E970DFEEFCEFBB
:104D5300FDAA08AB09120F28E9F8740A68700575F3
:104D63000A01801774A0687012EEFCEFFDAA08AB6D
:104D730009120F34AA08AB09120F46A90A740D02CF
:104D830057877402124D8B22124D8F22123D6AAA4D
:104D930082AB832274F7120428EAFEEBFF8E828F24
:104DA30083A3A3A3A3A3A3A3A3E06015EE241512D7
:104DB3002B80122C2B120EC8E96401700479018038
:104DC300258E828F83A3A3A3A3A3A3A3E06015EEE1
:104DD3002413122B80124DEBFAA3E0FB120EC8E949
:104DE300640160D9790080131236DAA3A3A3A3A3C5
:104DF300A3A3A3A3E022741F1209447F0102064167
:104E030074F012042874FD1209BE8A088B09ECFEA3
:104E1300EDFF890B7413120B9DE0F50C750A0174F9
:104E230001120B9D74041252B26048E50C601DEA36
:104E33002417F582EB1254F51252A08A828B83E079
:104E4300D2E7F0EA2414F582EB123C8F124F86EB83
:104E53001248737403125818EE88828983A3A3F04F
:104E6300EF88828983A3A312378412378B120C46EF
:104E7300E9F50AA90A7403024F7374EC1204287447
:104E8300F51209BE8A0A8B0B890C8C0E8D0F741FC9
:104E9300120B9DE0F50D7420120B9DE0F510A3E0BD
:104EA300F5117E01EE120B9D740AF0E97007E50D12
:104EB300C333240AF01250587003024F5A12506D34
:104EC3007409F0A3E50CC43354E0450D12507FE59B
:104ED3000C702D7C008023ECC333F8E433F9E51028
:104EE30028F8E51139F988828983124F6788828906
:104EF30083122E9DF0A30EAF830CECC3950D40D708
:104F0300E5082417F582E50912494D120E5CE50800
:104F1300241AF582E5091247DD7403120B9DAC8256
:104F2300AD83AA0AAB0B120BF8E96019E508241646
:104F3300F582E509124F61120B9DA882A983E5084A
:104F4300241812484D850882850983125814AA082B
:104F5300AB09120C46E9FEEEF9740B0250501249EC
:104F630051740322E08E828F83F0A3AE82AF83223B
:104F73001209447F08020641123A32F9EA2400E496
:104F830039FB22EA240BF5822274EE1204288A0CE0
:104F93008B0D890E8C088D097412120B9DE0F50F91
:104FA3007413120B9D125039900543124809607710
:104FB300E50FC333F8E433F9E8240EFAE93400FBD0
:104FC3001214328A108B11AE10AF11EE4F60588E4F
:104FD300828F8374D4F0A3A3E50CF0A3E50D1250E4
:104FE30041E50EF0AC08AD09EE2405FAEF1252BB11
:104FF300EE240D122B80E50FF0850A08850B097549
:105003000A0078081208F8E50FC333FCE433FDEE19
:10501300240EFAEF125030120944EEFAEFFB90051A
:105023004312527A121DF10240BAFAE5093400FB29
:1050330012140E740322E0F50AA3E0F50B221250BA
:10504300452212504922123CA3A3A3A322120944CE
:105053007F0C020641851882851983AA82AB8312CD
:105063000EB08A088B09EA450922EA240BF582EB84
:1050730012486DFEA3E0FF8E828F8322F0A3AE82DF
:10508300AF83AC0EAD0FEEFAEFFB12509122121C60
:105093001212509822EE2408FEEF3400FF22E0FAA9
:1050A3008E828F83A3A3E022FEA3E03400FF8E82CF
:1050B3008F83E0221239D51250BE22E0FCA3E0FD1B
:1050C30022122C3B120E442274F6120428EAFEEB41
:1050D300FF9003BA801388828983E06E7003A3E094
:1050E3006F603A88828983A3A312480970E87A041F
:1050F3007B001214CE8A088B09A808A909E8496025
:105103001C888289831251279003BA124BB8888274
:105113008983A3A31247E19003BA124854024812A9
:105123008A828B83EEF0A3EFF02274F41204287EBC
:10513300009003BA80070E88828983A3A3124809CB
:1051430070F4EEC333FAE433FB1251D5607E7F0073
:105153009003BA8024888289831250BAEFC333FA4A
:10516300E433FBE5082AF582E5093BF583ECF0A37C
:10517300EDF00F88828983A3A312480970D79003A7
:10518300AB1225987003A3E069780870191208FC24
:10519300EEF50A780A1209007C777D037900900303
:1051A300AB1251E0801A1208FCEEF50A780A1209D4
:1051B300007C777D0379009003AB124BB8120EDAB3
:1051C3007403120944AA08AB091214D4120C5E0228
:1051D3002C451214CE8A088B09EA450922122C3B6E
:1051E300120EE022C082C08380128A828B83A3A323
:1051F3001239E39003BA1248541214D49003BA122A
:1052030038F370E6023D8B74F612042890036312A0
:105213003A0F9003CE1252691248547ACE7B037927
:1052230050121C2A9003CE1227B7FAEFFB120F403D
:105233009003CE123A0F90054512480960257A066D
:105243007B00121432EA4B601A8A828B8374D5F086
:10525300A3A3E412528F041252A090054512527A6E
:10526300121DF102481212526D22E0F8A3E0F990E8
:105273000363228E828F8312527E2212528222E095
:10528300F812528822A3E0F58388822212529322D5
:1052930012529722F08A828B83A3A3A322125293E2
:1052A300A3EEF0A3EFF022F582EF12486DF922127C
:1052B3004985EA4B22FAE5093400FB121C1222123B
:1052C300488CA3A3A3A3A3A3A32290215DE49324C7
:1052D30001F8E43400F97A027B002274F7120428FF
:1052E3007E0080041258CB0E1253EF40F77E00EE7F
:1052F30012530A74FEF0A30412531FE4F00EEEC31C
:10530300940340EB024DFE75F003A4F8A9F074BCBE
:1053130028F8740339F988828983A322125323223C
:10532300F0888289832274F71204287F0080010F9A
:1053330090215AE493F8EFC3985026EF1254DB6A96
:105343007003A3E06B70E81258786C7003A3E06DF0
:10535300600A74FF6C700374FF6D70D31253E680A0
:10536300047A007B00024DFE74F61204287CFF7D54
:10537300FF7AFE7BFF120F04EA4B70407508008032
:1053830036E50875F017A4F8A9F0744A28F5827475
:105393000A1254ED600C744928F582740A1254ED14
:1053A3007013743B28FE740A39FF8E828F83125464
:1053B300FAEEFAEFFB050812545540C50248127481
:1053C300F41204288A088B09ECFEEDFF800B120F00
:1053D30016EEFCEFFDAA08AB09120F04EA4B70EEC0
:1053E300022C45743B28FA740A39FB2290215AE4B3
:1053F30093F8EEC3982274F7120428EAFEEBFFEE4B
:105403004F601012541974FEF0A30412581E14F0C6
:10541300A304F0024DFE7C177D00790012141A8E4E
:10542300828F832274F7120428EAFEEBFF750800CB
:105433008018E50875F017A4F8A9F01258837003D3
:10544300A3E06F60031258D3050812545540E302DA
:105453004DFE90215AE493F8E508C3982274F6129E
:105463000428120F048A088B09A808A909E84960CF
:105473000AE8240DFAE93400FB80047A007B000279
:10548300481274F41204288A0A8B0BECFEEDFF75A4
:105493000800750900802EE50975F017A4F8A9F036
:1054A3001258BE601EE5091254DB650A7004A3E0BE
:1054B300650B700375080AEEFCEFFD12577A600363
:1054C3004308A0050990215AE493F8E509C39850CD
:1054D30004E50860C20227AF75F017A4F8A9F0121B
:1054E30054E622743B28F582740A39F583E022F5E9
:1054F30082EF1239D8E422122C3B120D3C221253B4
:1055030023A3A3A3A3A3A3A3A32274F21204288A0D
:10551300088B09ECFEEDFF740E120B9D12503975CA
:105523000C007C007D01801012142CE50CF5F0EAD0
:1055330084ACF0750C007D0078007900800312566E
:10554300B712571340030255D9E8FAE9FBEA75F09D
:1055530017A4FA85F00D75F017EBA4250D1256EF7D
:105563007003A3E0F460D71256CD65087004A3E07E
:10557300650960CA1256CD6E7003A3E06F60BF1257
:1055830056CD650A7004A3E0650B60B2E8FAE9FB47
:10559300EA75F017A4FA75F017EBA4250DFB74490F
:1055A3002AF582740A1256AE509474016D050C608C
:1055B3008DE50CC39C4087E875F017A4F8AAF07535
:1055C300F017E9A42AF9743B28F582740A39F583A4
:1055D300124BB80256AB7800790080031256B7120B
:1055E30057204003025692E8FAE9FBEA75F012A449
:1055F300FA85F00D1256FF64FE7003A3E0F460DC3D
:105603001256F565087004A3E0650960CF1256F5DC
:105613006E7003A3E06F60C41256F5650A7004A3AD
:10562300E0650B60B7E8FAE9FBEA75F012A4FA75D6
:10563300F012EBA4250DFB74CA2AF58274081256E6
:10564300AE5099E8FAE9FBEA75F012A4FA75F01284
:10565300EBA4250D1256C064016081E0640270035F
:105663000255DF74016D050C70030255DFE50CC3B1
:105673009C50030255DFE875F012A4F8AAF075F008
:1056830012E9A42AF974C128F58274080255D0E5F9
:105693000C6011EC700E7401650C600302552B7CD9
:1056A300010255367AFE7BFF0225A43BF583E01405
:1056B300C3940622E8240108E93400F922FB74C5E7
:1056C3002AF58274083BF583E022E8FAE9FBEA75E0
:1056D300F017A4FA75F017EBA4250D1256E222FB7E
:1056E300743B2AF582740A3BF583E0221256E26486
:1056F300FE22E8FAE9FBEA75F012A4FA75F012EB60
:10570300A4250DFB74C12AF58274083BF583E022BE
:1057130090215AE493FAC3E89AE99400229021561F
:10572300E493FA740193FBC3E89AE99B2274F5129C
:1057330004288A088B09ECFEEDFF750A0080020538
:105743000A90215AE493F8E50AC3985028EEFCEF37
:10575300FDE50A75F017A4F8A9F012577A60E0E5A1
:105763000A75F017A4F8A9F0743B28F582740A3976
:10577300F58312378D8010743D28FA740A39FB12B1
:105783001C0CE9221209447F0302064174F012043F
:10579300288A088B098C0A8D0B890C120F0A8A0E32
:1057A3008B0FAE0EAF0FEE4F6055125419E508F094
:1057B300A3E50912581E125816E50C600AEE240FD1
:1057C300122B80E50C8006EE240F12580EF0900386
:1057D300D0124809601A9003AAE064017008EE240D
:1057E3000E1254F28010EE240E122B8074078006E2
:1057F300EE240E12580E1230D31202D7125805029D
:105803004F76EE240D1239D5E8F0221239D5740102
:1058130022A3A3E50AF0A3E50BF022123604A32288
:1058230074F51204288A088B09ECFEEDFF750A0053
:10583300800F1258837003A3E06F60031258D305DF
:105843000A90215AE493F8E50AC3985025E50A75AE
:10585300F017A4F8A9F012587865087004A3E0655E
:105863000970CF744528F582740A39F583125127DC
:1058730080CD02578A744528F582740A1254ED22AA
:10588300744528F582740A1254ED6E2274F71204DB
:1058930028EAFEEBFF7508008019E5081254DB6E59
:1058A3007003A3E06F700A1258BE7005E508125822
:1058B300CC050812545540E2024DFE743D28FA749B
:1058C3000A39FB120BF2E922EE75F017A4F8A9F0DE
:1058D3001253E6120F1622125323123D82E8492275
:1058E300C082C08374F81209BE851882851983ACFF
:1058F30082AD8375838275827D740812083A851898
:1059030082851983AC82AD83124A8864017004795D
:1059130000800279017408023D61C082C0838A82DB
:105923008B83E0D2E7F01216900263B1C082C0838A
:105933007900125DE912738AC082C083900330122A
:105943006FACD083D082C3E09CA3E09D500C127552
:1059530059FAA3E01259606001090263B1FBEA75C9
:10596300F00BA4FAA8F075F00BEBA428FB9003321C
:10597300E02AF8A3E03B8882F583E0540F2274F712
:105983001204288908125DE9125E8FACF075F00BE2
:10599300E9A42CF9900332E028FEA3E039FF740157
:1059A300650860067402650870208A828B83125E24
:1059B3007B126A5F74026508701B125D3A125EC245
:1059C30070138E828F83E4F0800BEA2403FCEB12C6
:1059D3005E5D125E69EEFAEFFB120BC80266E474B9
:1059E300F412042812794D79008E828F83E0607659
:1059F300890A890B8065E50A75F00BA4FAA8F0758E
:105A0300F00BE50B12596D7046E50A75F00BA4F81F
:105A1300AAF075F00BE50B125EA18E828F83E085F1
:105A23000882850983125F83850882850983A3120F
:105A33006A5FEE2403FCEF125E661265881273043C
:105A4300AA08AB09120BC87901900330126FC7E59E
:105A53000A2401F50AE50B3400F50B125D42E50A51
:105A63009AE50B9B409002681874F5120428EAFE2D
:105A7300EBFF740B120B9D12658D750A01EC4D60E3
:105A83002BEC127969ED12738A126A577901120BA2
:105A9300D4E5084509606F850882850983A31279D7
:105AA300577902AA08AB09120BD4805AE5084509B5
:105AB300602B12738E126C81126589125EAC700CAE
:105AC300EEFAEFFB120BDAE9F50A80CBEE2403FAC8
:105AD300125DE470317903EEFAEFFB80CA8E828F98
:105AE30083A3E064FE7003A3E0F4700BEE24030AC7
:105AF3000A0A125DE4700CEEFAEFFB120BDAE9F519
:105B03000A8003750A00A90A7F0302064174F7128B
:105B130004289003301266E9EA4B602FEA75F00B14
:105B2300A4FAA8F075F00BEBA428FBEAFEEBFF1236
:105B330014CE9003321266E9900332126FB36012EF
