:020000040000FA
:06000000020AC30201C761
:03002B00020917B0
:030043000207951C
:030053000200F8B0
:03006B000204EF9D
:1000830002015C0101FF05030184108410841084C4
:1000930010400F3A0F84101D1E00000000E11E00E7
:1000A3000000000C0000000C0001000052120000D0
:1000B300000000001E13000000000000000000000C
:1000C300FFFF010101002E050000007F05E8036426
:1000D300006400B801020200080000050207051EC3
:1000E30002051E0A03B80B020102F1FF0296511822
:1000F3000002020612C0E074F21203E0A2AFE4337E
:10010300FED2AFE5A7FFE5A1F5085F541060061224
:10011300193C75A1EFE5085F540860081219427590
:10012300A1F7802BEFA2E0C0D0E508A2E092F01285
:100133000A00158182F05017906198E0F8900853F7
:10014300E0C398A2D265D0335002E8F075A1FEEE69
:10015300A2E092AF7F0102043FC0E074F21203E019
:10016300A2AFE433FED2AF9061A4E0F8759B00E543
:100173009158540860087591F712198A802AE591FD
:1001830058541060087591EF121990801BE8A2E093
:10019300C0D0E591A2E092F0120A00158182F050DE
:1001A30007E0C2E0F0121AD49061A3E0F8E5E95841
:1001B3005404600E121AAA75E9FB906193E0A2E65B
:1001C30040F2808BC0E074F21203E0A2AFE433FE8E
:1001D300D2AF9061A5E0F8E5BF585404600675BF3F
:1001E300FB121AEC020152C3E498F8E499F91202E3
:1001F3002B8026C3E49AFAE49BFBE920E7E9120289
:100203002BE498F8E499F922C3E498F8E499F912F5
:10021300022BE498F8E499F9C3E49AFAE49BFB22ED
:10022300EB20E7CFE920E7E0B90010BB0008E88A3C
:10023300F084F8AAF022E4FBC8FA22EB70227B10C8
:10024300C833C8C933C9335007C39AC3DBF2800626
:100253009A50012ADBEAC833F4C8C933F4C9FA2235
:1002630075F008E4C833C8C933C933C99AC99B5068
:1002730004C92AC93BD5F0ECFBC833F4C8E4C9FA76
:1002830022080808EAC0E0EBC0E086F0E7A4FA1809
:100293000986F0E7A42AFA180986F0E7A42AFA18CF
:1002A3000986F0E7A42AFA1986F0E7A4FBE5F02A09
:1002B300FA190886F0E7A42BFBE5F03AFA19088649
:1002C300F0E7A42BFBE5F03AFA18180986F0E7A447
:1002D300C5F02BFBE43AFA1908E7C5F0C6A426F6E5
:1002E300E5F03BFBE43AFA1886F0E7A4F6E5F008FC
:1002F30026F6E43B08F6E43A08F6D0E0FBD0E0FA51
:1003030022E4CFC0E0E4CEC0E0E4CDC0E0E4CCC062
:10031300E075F020C3E633F608E633F608E633F675
:1003230008E633F6181818EC33FCED33FDEE33FE14
:10033300EF33FFC3EC9709ED9709EE9709EF971990
:100343001919400FFFEC97FC09ED97FD09EE97FE95
:10035300191906D5F0BEECF709EDF709EEF709EF29
:10036300F7191919D0E0FCD0E0FDD0E0FED0E0FF92
:10037300222518C582C0E0E51934FFC583C0E0E536
:1003830018C3958224F810AF0885831985821880D5
:1003930008858319858218D2AFCEF0A3E520F0A398
:1003A3007808E608F0A3DEFAEFF0A3E58124FAF873
:1003B300E608F0A3E608F0A3E608F0A30808E608B9
:1003C300F0A3E608F0A315811581D0E0FED0E0F894
:1003D300158115811581E8C0E0EEC0E022C0D0256B
:1003E30018C582C0E0E51934FFC583C0E0E518C332
:1003F300958224F310AF08858319858218800885B8
:100403008319858218D2AFC8F0A3E9F0A3EAF0A359
:10041300EBF0A37908E709F0A3D8FAECF0A3EDF029
:10042300A3EEF0A3EFF0A3D0E0F0A3D0E0F0A3D0CD
:10043300E0F0A3E520F0A3E5F0F0A322851983857E
:100443001882E0C0E0A3E0F9A3E0FAA3E0FBA378FD
:1004530008E0F608A3DFFAE0FCA3E0FDA3E0FEA3B7
:10046300E0FFA3E0C0E0A3E0C0E0A3E0F5D0A3E099
:10047300F520A3E0A3F5F010AF0885831985821852
:100483008008858319858218D2AFD082D083D0E0CB
:10049300F8D0E032120B32B900030204D9E490031E
:1004A3000178AA790A8002F0A3D8FCD9FA900CAAA1
:1004B300AA82AB83900086787379018015E493A3B5
:1004C300AC82AD838A828B83F0A3AA82AB838C82B6
:1004D3008D83D8E9D9E77582FD7583987403120873
:1004E3007675828675831D7400120876C0E074F2F7
:1004F3001203E0E589A2E450205389EF90050B74C1
:1005030001F07C287D007A047B009004DDE0F91281
:1005130015287AFF7B8012130CE589A2E6501A5343
:1005230089BF7C287D007A087B009004DDE0F91206
:1005330015287AE07B8012130CC2C57F0102043FA9
:100543000875F0108E1A8F1B85821F85831E8518F0
:1005530082851983E0CEA3E0CF851F82851E83EBBE
:10056300C9EAC8EDCBECCAC3E833C8E933C9EA33F7
:10057300CAEB33CBC3EA9EF51DEB9FF51CB35004C6
:10058300AB1CAA1DEC33CCED33CDD5F0DAAE1AAFEC
:100593001B22D083D082ECC0E0EDC0E0E493A3FC47
:1005A300E493A3FDED4C600D12066DEC24FFFCED0E
:1005B30034FFFD80EFE493A3FCE493A3FDED4C60D3
:1005C3000D120740EC24FFFCED34FFFD80EFD0E07B
:1005D300FDD0E0FCE493A3C0E0E493C0E022D08329
:1005E300D082E9C0E0E493A3C386F0C5F095F0F9A7
:1005F30008E493A386F0C5F095F0700BE493A3C3CE
:10060300994005E9048002A3E475F002A42582F56C
:1006130082E5F03583F583D0E0F9E493A3C0E0E409
:1006230093C0E022851983851882E0A3FEE0A3F539
:10063300207808E0A3F608DFFAE0A3FFE0A3C0E018
:10064300E0A3C0E0E0A3C0E0E0A3C0E0E0A3C0E01B
:1006530010AF0885821885831980088582188583E1
:1006630019D2AFD083D08202087CC0E0C3E4939652
:10067300087401939618400FE49366700808740198
:1006830093661870007019A3A3C3E49396087401CA
:10069300939618A3A3400DD0E0D0E0D0E00205D19B
:1006A300A3A3A3A3A3A3D0E022D083D082C5F0E465
:1006B30093A3C5F0C395F0F5F0E493A3C395F0407D
:1006C30005E5F0048001E475F002A42582F582E5D6
:1006D300F03583F583E493A3C0E0E493C0E0227490
:1006E30004800474028000CCC0E0EDC0E0E518C3D0
:1006F3009CCCAD1950011D10AF068C188D198006C6
:100703008C188D19D2AF1207DAD0E0FDD0E0FC22AD
:1007130074028000CCC0E0EDC0E0E518C39CCCAD12
:100723001950011D10AF068C188D1980068C188D79
:1007330019D2AF1207B8D0E0FDD0E0FC22C0E0C070
:10074300F088F0E4936670080874019366187000EB
:10075300A8F0A3A3700BD0F0D0E0D0E0D0E0020566
:10076300D1A3A3D0F0D0E022D083D082CCC0E0E4E8
:1007730093A360061208391470FAE493A360061277
:1007830009481470FAD0E0FCE493A3C0E0E493C0FA
:10079300E022C0E074F21203E0A2AFE433FED2AF72
:1007A300C2C0E5D1A2E450031218B2EEA2E092AFA8
:1007B3007F0102043FCAC0E0E493A3C582CCC58293
:1007C300C583CDC583F0A3C582CCC582C583CDC502
:1007D30083DAE5D0E0CA22CAC0E0E0A3C582CCC573
:1007E30082C583CDC583F0A3C582CCC582C583CD25
:1007F300C583DAE6D0E0CA22700908080822601629
:10080300181818C6C333C608C633C608C633C60885
:10081300C633C6D5E0EA22C008C3E096F50808A3AC
:10082300E096420808A3E096420808A3E09645082C
:100833007001D3D00822C0E0E493A3D39C5010E40A
:1008430093A3C39C400AD0E0D0E0D0E0020788A382
:10085300A3A3D0E022C5822518C582C5833519100C
:10086300AF07F5198582188007F519858218D2AF6D
:10087300C58322C09FF59FE473D09F22D083D0828B
:10088300C09FE493C0E0740193C0E0740293F59FAA
:10089300222518F58210AF08F518400215198008B3
:1008A300F51840021519D2AF851983227404800A02
:1008B30074038006740280027401C0E0F404120819
:1008C30094D0E0120B0D22C0D0251810AF08F518F4
:1008D300500205198008F51850020519D2AFD0D07F
:1008E30022BB0102E722C082C08389828A83BB00C4
:1008F30003E08002E493D083D082226016080808C4
:10090300C6C313C618C613C618C613C618C613C65D
:10091300D5E0EA22C0E0C0D0E8C0E0E5A8D2AFC28B
:10092300C7A2E792AFD0E0F8D0D0D0E032C3E0C6A0
:1009330096F608A3E0C696F608A3E0C696F608A3C3
:10094300E0C696F622C0E0E493A36C7009D0E0D031
:10095300E0D0E0020788A3A3D0E022251810AF0857
:10096300F518400215198008F51840021519D2AF81
:1009730022E76670100809E766700A0809E76670DF
:10098300040809E76622E066701008A3E066700AAF
:1009930008A3E066700408A3E06622C3E09608A3F8
:1009A300E09608A3E09608A3E096A2D265D033228E
:1009B300C3E096F008A3E096F008A3E096F008A33E
:1009C300E096F022E026F008A3E036F008A3E03634
:1009D300F008A3E036F022E627F60809E637F60822
:1009E30009E637F60809E637F622E026F608A3E01B
:1009F30036F608A3E036F608A3E036F622C0E0E8B0
:100A0300C0E0E58124FCF8E6A2E7D0E0F8D0E022DC
:100A1300E647F60809E647F60809E647F60809E651
:100A230047F622E657F60809E657F60809E657F6A9
:100A33000809E657F622E056F608A3E056F608A39F
:100A4300E056F608A3E056F622E056F008A3E05677
:100A5300F008A3E056F008A3E056F02270042260E9
:100A63000D18C6C333C608C633C6D5E0F41822E44E
:100A7300C396F608E496F608E496F608E496F6229A
:100A8300600D08C6A2E713C618C613C6D5E0F32245
:100A9300C6F4C608C6F4C608C6F4C608C6F4C62219
:100AA300C3E7960809E7960809E7960809E7962237
:100AB300C3E09608A3E09608A3E09608A3E0962275
:100AC30075D00075814075180175190300020497EC
:100AD300600C08C6C313C618C613C6D5E0F422E6D5
:100AE300F008A3E6F008A3E6F008A3E6F022E0F698
:100AF30008A3E0F608A3E0F608A3E0F622C58225E2
:100B030018C582C5833519C58322CAC0E0E6F0A3A0
:100B130008DAFAD0E0FA22E0FAA3E0FBA3E0FCA3B0
:100B2300E0FD22EAF0A3EBF0A3ECF0A3EDF022E565
:100B3300C754F84401F5C77901222518F582E43535
:100B430019F58322C2AF75D69F0200002212087FD7
:100B5300B4B10112087F57B20112087FA2B3011288
:100B6300087FC0B30112087FB7580012087FC95825
:100B73000012087F1B590012087F7C590012087F5E
:100B8300065A0012087FAA5A0012087FFE5A001262
:100B9300087F175B0012087F3D5B0012087F785BBC
:100BA3000012087FBC5B0012087FE35B0012087F22
:100BB300345C0012087FE45C0012087F9C5D001225
:100BC300087F645E0012087F415F0012087FC75FE1
:100BD3000012087FD65F0012087FE15F0012087FD2
:100BE300EA600012087FFB600012087F7161001247
:100BF300087F03620012087F5B620012087F216393
:100C03000012087F52630012087F97630012087F67
:100C1300A4630012087F38650012087F9B660012E8
:100C2300087FB7670012087F216A0012087F2C6AC9
:100C33000012087F366A0012087F416A0012087F9B
:100C43004B6A0012087F556A0012087F606A00121F
:100C5300087F6B6A0012087F9C6A0012087FC06AD3
:100C63000012087FE46A0012087F496B0012087FB4
:100C73008D6B0012087FA96B0012087F206C001295
:100C8300087F586C0012087FA46C0012087F016D66
:100C93000012087FE36E0012087F696F0012087F5D
:100CA3003A700012087F4A730012087F9F73001284
:100CB300087FCB730012087F17750012087F6775D2
:100CC3000012087FBC750012087FBD760012087FF2
:100CD30055770012087FD7770012087F77780012C4
:100CE300087F02210012087F3B210012087F152391
:100CF3000012087F54230012087F9E230012087FEE
:100D030043240012087FA2240012087FD624001275
:100D1300087F43250012087F60260012087F68279A
:100D23000012087FFE270012087F452B0012087F60
:100D3300EE2B0012087FCA2C0012087F2B2D001205
:100D4300087F482E0012087F72300012087F293175
:100D53000012087F33310012087F66310012087FCA
:100D63002D320012087FC8320012087F2D33001283
:100D7300087F56330012087F78330012087FA735A7
:100D83000012087F7E360012087FC2360012087FE9
:100D93002F370012087FEA370012087F1C38001231
:100DA300087F60380012087F93380012087FE83804
:100DB3000012087F3D390012087FD1390012087FE5
:100DC300333A0012087F9B3A0012087F443C00121A
:100DD300087F2C3D0012087F6E3E0012087F9C4066
:100DE3000012087F5C410012087F8B430012087FCA
:100DF3002E440012087F6C440012087F184600122C
:100E0300087F2C460012087F36460012087F604692
:100E13000012087F6C460012087F8B460012087F81
:100E230042470012087F81470012087F8B47001258
:100E3300087F3F480012087F3E490012087F374A67
:100E43000012087FD44A0012087F764B0012087FF5
:100E53008D4B0012087FC44B0012087FE24B001237
:100E6300087F264C0012087F4B4C0012087F314D3F
:100E73000012087F9D4D0012087F174E0012087F55
:100E8300264F0012087F65500012087FC7500012DA
:100E9300087F81510012087FA4510012087F785205
:100EA3000012087FC3520012087F05530012087F07
:100EB3005C530012087F93530012087FC153001242
:100EC300087FFA530012087F1F540012087FA754AB
:100ED3000012087FCA560012087F29570012087FA4
:100EE300BD570012087F29580012087F7D58001251
:100EF300087F56AC0312087F95AC0312087F05B533
:100F03000112087F5FB50112087FBBB50112087F8C
:100F130007B60112087F22B60112087F53B60112E9
:100F2300087F70B60112087F7CB60112087FF0B704
:100F33000112087F09B80112087F70B80112087FF7
:100F430083B80112087F91B80112087F45B90112D5
:100F5300087F29BA0112087F2FBB0112087FB5BB96
:100F63000112087FBFBB0112087F2CBC0112087F4E
:100F730043BC0112087F75BC0112087FAEBC01128D
:100F8300087FD8BC0112087F39BD0112087F59BD03
:100F93000112087F77BD0112087FBDBD0112087FD2
:100FA300E3BE0112087F30BF0112087F5FBF011249
:100FB300087FD5BF0112087FFDBF0112087F36C02D
:100FC3000112087F44C00112087F9CC00112087FF0
:100FD300EBC00112087F2AC10112087F5AC1011216
:100FE300087F86C10112087F91C10112087FAFC13A
:100FF3000112087F71C20112087F7BC20112087FB0
:10100300B6C20112087FCCC20112087FD5C20112F9
:10101300087F2AC30112087F3EC30112087F4CC414
:101023000112087F5FC40112087F74C40112087F94
:1010330016C50112087F99C50112087F57C6011210
:10104300087F62C60112087F88C70112087FA4C700
:101053000112087FF6C70112087F35C80112087F05
:101063004AC80112087F8CC80112087FD9CA01122D
:10107300087F57CB0112087FCACB0112087FECCD42
:101083000112087F04CE0112087F07CE0112087FE8
:1010930013CE0112087F27CE0112087F2FCE011233
:1010A300087F62CE0112087F12CF0112087F88CF1A
:1010B3000112087FFBCF0112087FAFD00112087F16
:1010C30064D10112087F83D10112087F23D2011258
:1010D300087F2FD20112087F5AD20112087F5DD2F6
:1010E3000112087FC7D20112087FEFD30112087FD4
:1010F300C7D40112087F52D50112087F6BD60112A3
:10110300087F28D70112087F61D70112087F92D781
:101113000112087F32D80112087F62D80112087FBA
:101123003DD90112087FD6D90112087F61DA011275
:10113300087F12DB0112087F94DB0112087FC6DBF4
:101143000112087F07DC0112087FF0C50212087F35
:1011530055C60212087F92C60212087FE1C6021228
:10116300087FF7C80212087FDACA0212087F44CE4A
:101173000212087F7FCE0212087FA1CE0212087FDF
:1011830004CF0212087F38CF0212087F5BCF02120E
:10119300087F88CF0212087FE4CF0212087FDAAFFC
:1011A3000212087F58B00212087F8EB00212087F25
:1011B300FAB00212087F6DB20212087F89B20212DE
:1011C300087FCEB20212087F5CB30212087FB5B368
:1011D3000212087FE2B40212087FF4B50212087FFC
:1011E30051B60212087FBDB60212087F1EB7021263
:1011F300087F5FB70212087F0CB80212087F1EB97E
:101203000212087F49B90212087F94B90212087FBB
:10121300DBB90212087F6DBA0212087F28BB0212E3
:10122300087F38A00312087F49A00312087F9AA001
:101233000312087FDFA00312087F89A10312087F2E
:101243004CA70312087F919E0312087FE99F0312A4
:10125300087F9FBB0212087F44BC0212087F64BC54
:101263000212087F84BC0212087F98BC0212087F16
:10127300F0BC0212087F20BD0212087FA1BE021239
:10128300087F47BF0212087F29C00212087F7AC075
:101293000212087FBDC00212087F00C10212087F3C
:1012A30066C10212087F87C10212087F13C20212AD
:1012B300087F44C20212087FB8C20212087F66C4C4
:1012C3000212087F40C50212087F82C50212087FFE
:1012D300DCC50212087F089B0312087F299B0312B7
:1012E300087F5F9C0312087F899C0312087F04E533
:1012F3000212087F77E50212087F82E50212087F57
:10130300ABE50212087FC0E60212087FC1E80212B1
:10131300087F7FE90212087F8AF00112087F8DF0AF
:101323000112087F47F10112087F72F10112087F51
:10133300B9F10112087FDEF10112087FFFF10112FA
:10134300087F33F20112087F6CF20112087F95F3D4
:101353000112087FCCF30112087FECF30112087F1E
:1013630087F40112087F4CF50112087F83F50112FF
:10137300087FF8F60112087F9BF70112087F94F8A3
:101383000112087FBDF80112087F11F90112087FCD
:10139300D7F90112087F05FA0112087F9AFB01129F
:1013A300087F1BFC0112087F4EFC0112087F67A512
:1013B3000112087F76790012087FE4790012087F12
:1013C300057A0012087F1C7A0012087FCC7A00127B
:1013D300087FD57A0012087F287B0012087F517B93
:1013E3000012087FB87B0012087F497C0012087F37
:1013F3008B7C0012087FD57C0012087F347D00129D
:10140300087FC57D0012087F047E0012087F61B04B
:101413000112087F787E0012087F8A7E0012087FFF
:101423009C7E0012087FBB7E0012087FC77E0012DD
:10143300087F7D7F0012087FBD7F0012087FF3F7CE
:101443000212087FC6F80212087FE0F80212087F32
:10145300F1F80212087F06FB0212087F25FB021235
:10146300087FCB960312087F01970312087F4A97E0
:101473000312087F9A980312087F3CDC0112087F4D
:101483007BDD0112087FB7DD0112087F76DF0112D1
:10149300087F9FDF0112087F32E20112087F76E2A4
:1014A3000112087FFFE30112087F97E40112087F0E
:1014B300FFE40112087FA0E50112087FE2E50112B3
:1014C300087F22E60112087FADE70112087F1DE9BC
:1014D3000112087F42EB0112087F70EB0112087FB3
:1014E30097EB0112087FA0EB0112087FFBEB0112BF
:1014F300087F8EEC0112087FACEF0112087F2DF0FC
:101503000112087FE67F0012087F0BAC0312087FED
:101513000F870312087F22870312087FBF870312F6
:10152300087FFA870312087F15880312087F3A8819
:101533000312087F7F880312087FB0880312087F95
:10154300E1880312087F678A0312087F0AA903123E
:10155300087F40A90312087F5CA90312087F9EA994
:101563000312087FAEA90312087F6CD90212087F09
:1015730047DA0212087F50DC0212087F64DC021291
:10158300087F29DD0212087F3BDD0212087FEFDDB1
:101593000212087FDBDE0212087F62A00212087FBC
:1015A300B7A00212087F61A10212087F09A20212EA
:1015B300087F66A20212087FBFA20212087F89A4D5
:1015C3000212087F04A50212087F2EA50212087FCB
:1015D300EBA60212087F06A70212087F55A7021284
:1015E300087F6BA70212087F78A70212087FA8A7BB
:1015F3000212087FBEA70212087F44A80212087FC6
:1016030053A80212087FACA80212087F06A902128F
:10161300087F58A90212087F62AA0212087FE4AC6D
:101623000212087F7EAD0212087FC0AD0212087F4E
:1016330055AE0212087F72AE0212087F75AE021217
:10164300087F78AE0212087FEBAE0212087F06AF66
:101653000212087F32AF0212087F6DAF0212087FB9
:1016630070AF0212087F83AF0212087FAAAF021283
:10167300087F58AA0312087F64AA0312087F9EAA50
:101683000312087FBE900212087FE9900212087FBE
:10169300AB910212087F30920212087F99920212D4
:1016A300087FE5920212087F64930212087FF69383
:1016B3000212087F82940212087FC4940212087FE8
:1016C3000D990212087F8D9A0212087FCC9A02129A
:1016D300087F959B0212087F499C0212087FF99D9F
:1016E3000212087F859E0212087F00800212087F83
:1016F300BA800212087F2C810212087F3B810212FA
:10170300087FB5810212087F24820212087F2E838C
:101713000212087F57830212087FF7830212087FA1
:1017230045840212087FB5840212087FE9850212FC
:10173300087FC5860212087F36870212087FB388A6
:101743000212087F75890212087F108A0212087F2D
:101753006B8A0212087FD68A0212087FDA8B021282
:10176300087F9B8D0212087F3A8E0212087FAC8E8F
:101773000212087F698F0212087F818A0312087F91
:10178300D58A0312087F2D8B0312087F788B0312EF
:10179300087FDA8B0312087F738C0312087FDB8CBC
:1017A3000312087FE78C0312087F75940312087FE6
:1017B300A6940312087F60950312087FC69503124F
:1017C300087F37960312087F7C990312087F3FA88E
:1017D3000312087F50A80312087FF0A80312087FA2
:1017E300D99C0312087FE79C0312087F95AD03126F
:1017F300087FDBAA0312087FEBAA0312087F06AB5C
:101803000312087F4EAB0312087F4AA60312087F18
:10181300CFA60312087F33A70312087F4CAD031230
:10182300087F4FAD0312087F8A830312087FA083CA
:101833000312087FC9830312087FE4830312087F1E
:10184300FF830312087F09840312087F13840312A2
:10185300087F26840312087F3F840312087FE684EF
:101863000312087F65850312087F00800312087F37
:101873000E800312087F88800312087F6C81031295
:10188300087F25830312087FDAFF0112087FCFDF69
:101893000212087F3CE00212087FFDE00212087F7B
:1018A3006DE10212087F76E20212087FEEE3021274
:1018B300087F52E40212087FA7E40212087FB0E413
:1018C3000212087FBFE40212087FD2E40212087FEB
:1018D300E8E40212087FF1E40212087FCEE9021263
:1018E300087F23EA0212087F1FEC0212087F51ECE3
:1018F3000212087F73EC0212087F8CEC0212087F3D
:10190300A5EC0212087FAFED0212087F4AEE021225
:10191300087FA0A10312087FC4A10312087FDDA1E1
:101923000312087F10A20312087F41A20312087F4B
:101933006FA20312087FD1A20312087FE0A2031251
:10194300087FEAA20312087FF7A20312087F228D01
:101953000312087F488D0312087F858D0312087FC9
:10196300948D0312087FB38D0312087F1B8E03121D
:10197300087F248E0312087F838E0312087FA78EAD
:101983000312087F668F0312087F738F0312087F89
:10199300848F0312087FE3AC0312087F00AD0312A8
:1019A300087FC1EE0212087F1FF00212087F2CF09D
:1019B3000212087F3FF00212087F5EF00212087FD6
:1019C30074F00212087F88F00212087FFDF0021201
:1019D300087F62F10212087F12F20212087FE7F217
:1019E3000212087FF7F20212087F06F30212087F41
:1019F300BFA90312087FE3A90312087F0BAA0312EE
:101A0300087F33AA0312087FB28F0312087FD98F8E
:101A13000312087FFA8F0312087F5F900312087F77
:101A230018920312087F31920312087F3D9203122A
:101A3300087F51920312087F6F920312087F7992F5
:101A43000312087F83920312087F96920312087F82
:101A5300E9920312087F22930312087F5193031222
:101A6300087F9F930312087FEE930312087F099464
:101A73000312087F13940312087F24940312087F30
:101A83006A940312087FBAAB0312087F30D00212A4
:101A9300087F5AD00212087F76D00212087F89D0BD
:101AA3000212087F9FD00212087FFCD00212087F27
:101AB3002FD10212087F6BD50212087F91D6021232
:101AC300087FC4D60212087F10D70212087F3CD8C1
:101AD3000212087F64D80212087F79D80212087FA5
:101AE30089D80212087FCDD80212087F2ED902129C
:101AF300087F3ED90212087F01A30312087F1CA3AB
:101B03000312087F45A30312087F5FA30312087F14
:101B130084A30312087FA3A30312087FBBA30312AA
:101B2300087FE9A30312087F03A40312087F9FAC75
:101B33000312087F7EFC0212087F85FC0212087FD5
:101B430091FD0212087FC1FD0212087FE7FD021218
:101B5300087F0AFE0212087F2CFE0212087F66FE2F
:101B63000212087FCCFE0212087F05FF0212087FD3
:101B730051FF0212087F7EFF0212087F9EFF0212AE
:101B8300087F47A50312087F59A50312087F44A6BF
:101B93000312087F47A60312087F34A40312087FA9
:101BA300A6A40312087FE4A40312087F25A5031249
:101BB300087FC7FC0112087FE3FC0112087F32FD96
:101BC3000112087F4EFD0112087F7FFD0112087F7D
:101BD3008FFD0112087F7BFE0112087F85FE011233
:101BE300087F92FE0112087FA2FF0112087FB6FF51
:101BF3000112087FBFFF0112087F3FF30212087F23
:101C030084F70212087F89F70212087F1FAD0312BF
:101C1300087F77AD0312087F57AB0312087F3BA4FD
:101C23000112087F8FA30112087FE0A10112087F30
:101C33009B9F0112087F229F0112087FC99E0112F8
:101C4300087F5D9E0112087F349E0112087F279C46
:101C53000112087FF39B0112087FC09B0112087FCA
:101C6300A49B0112087FCA9A0112087F829A01126B
:101C7300087FB7980112087F37980112087F3498BC
:101C83000112087F3B970112087F09970112087F11
:101C930046960112087F71940112087F0294011283
:101CA300087F12AE0112087F1BAD0112087FFFAC43
:101CB3000112087FABAC0112087F63AC0112087FED
:101CC300D4930112087FD1930112087FBE930112AE
:101CD300087F56930112087FA1AB0112087F459339
:101CE3000112087F26920112087FF0910112087FEA
:101CF300B3910112087F54910112087F14AB0112B2
:101D0300087F07AB0112087F437E0012087F2391EF
:101D13000112087FDE8D0112087FCF8C0112087F2C
:101D23005E8C0112087F238C0112087FEE8B011257
:101D3300087FE28B0112087F428B0112087F898A98
:101D43000112087F5C880112087FE8850112087F71
:101D5300A6850112087F71840112087F268401126F
:101D6300087F58830112087FAF820112087F4B82DC
:101D73000112087F85820112087F15A80112087FCE
:101D83002A790000000080FBE4730001363601016C
:101D9300000102010001030100010401060605021E
:101DA3000000070100340801000F090401010D01BF
:101DB30000FF0E08000017020000190100FF1A01BE
:101DC30000011B0100FE1C0100081D0200001F0191
:101DD300000120010001210200002301000F240261
:101DE30000002601000127010008280200FF2A0144
:101DF30000072B0102402C0100002D0100012E01E0
:101E030000012F0100FF30010B1C310800003A01D3
:101E130000083B01000F2F01000003007100300197
:101E23006000110070003102200350048000100094
:101E3300610000001400630073007200620043003D
:101E43000000130006000000000004001200000060
:101E530000000000000004000400370037003C02CB
:101E63004400000000000000000065000000350091
:101E730081000000050000008300000003027102DE
:101E830030016002110270020102020202028002AA
:101E9300100261023A00410063027302720262029D
:101EA300430200021302380000020002040212027D
:101EB300000200020002000204020402370037009D
:101EC3003C024402000239000002000265020002E3
:101ED300350281020002050282028302000201032D
:101EE300710301030103010301030103220302033D
:101EF30001031003000300030003000300030003B6
:101F03000003420300032403060300030003040346
:101F130012032503230325032303040304030003FC
:101F230000030003440300030003230300036503CA
:101F330021003503810300030503000300030003AD
:101F430001017101010101011101010131010101CE
:101F530001018001100161013B0014006301730161
:101F63007201620143010001130106013D013500C5
:101F73000401120100010001000100010401040138
:101F8300330133013C0144013201360000010001F9
:101F93006501000135008101000105018201830112
:101FA300000136000100060000000F0000000000E1
:101FB300000000000000000003FFFF00000403FF17
:101FC300FF0000FFFF0FF4010005C404032000011C
:101FD30000030B000000000000000003010F0100DC
:101FE300261702009C160300A2160400A81605007B
:101FF300AE160600BA161100D2161400D816150034
:10200300CC16FFFF000003EAF5E5D5D5C5B5A595C8
:10201300958585757565655555454535352525156D
:1020230015059A0FCA0FA00FA60FC40FB80FB20F52
:10203300D00FD60FDC0FE80FAC0F940F8E0F0A668C
:102043000D02300D05420D07360D0C120D0D240D3A
:10205300FF000000160F00000B150B020002220FF9
:1020630032000006841096109C10640FA2105E0FBD
:102073006A0FE41002110811EA10F610F0100C0EAA
:10208300020B040B0A0708000F303016181920231F
:102093001A1C1E300001191618161615230300000A
:1020A300034948424D181725050200383C3E363B8C
:1020B3003B352B432C303017181921301B1D1F3093
:1020C300D810A810AE10BA10B410BE0FE20FFC1057
:1020D300EE0FF40F020402010101010902000000E6
:1020E30000000000BE040A0E00E8030400150028E7
:1020F30000040C05030908FF1E1E0A040F100C74CC
:10210300F7120374E99003B0F0900365E4F0121B37
:10211300829003B5E4F0A3F09003B1F0A3F0120EA4
:102123009E121B88900334E4F0A3F09020FF93FAEF
:102133007902121BE8024D9874F2120374EAFEEB63
:10214300FF548060699003B0E0F91213E48A088BAE
:1021530009EA4509604F7C0080010CEC75F003A48B
:10216300F8A9F0744128F582742039F583E493F4D7
:10217300602CE493F88508828B83E06870DCAA08FE
:10218300EC75F003A4F8744228F582742039F583C2
:10219300E493C0E0740193F583D082121D8BAA08E7
:1021A300AB091213D8EEFAEF6480FB022308EF5455
:1021B30020601D120DC08A088B09EA4509600A12C6
:1021C3000D24AA08AB091213D8EEFAEF642080DAC3
:1021D300EEA2E0501A90036AE0640F700B790012CC
:1021E3000CEEE9600312230BEE6401FAEF80BB549B
:1021F3002070030222D6750C001237DD8B09EA45E5
:102203000970107C027D007A207B009003B0E0F916
:1022130012152E7C0079047A007B00120D9C8A082B
:102223008B098018850882850983A3A3A3A3A3A38D
:10223300A3A3A37401F0850A08850B09E5084509E2
:10224300606D7C007904AA08AB09120D9C8A0A8B85
:102253000B750C01E5082404F8E50912358124FF08
:10226300F0A3E034FF12587470CC8508828509838B
:10227300A3A3A3A3A3A3A3A3A3A3E0640170A5851E
:102283000882850983A3A3A3A3A3A3E054047094A2
:10229300850882850983A3A3A3A3A3A3A3A3A374EC
:1022A30006F07AB78508828509831224378087125E
:1022B3000D6C7C0079017A007B00120D9C8B09EA7E
:1022C30045097009E50C70057A20124737EE642042
:1022D3000221EEEF5402600B120E98EEFAEF640245
:1022E3000221ADEF540460191248CE1247EE790172
:1022F300900363124B52120C34EEFAEF6404022182
:10230300AD7A007B0002253E900CF4122BD5120D02
:102313000622C082C08374EA12095E851882851979
:1023230083AA82AB83794B121BBE7408120B3D74D4
:1023330002F07409120B3DAA82AB837950121BBEC3
:102343007413120B3DE4124D21121BDC7416023C74
:10235300FB74F712037474E112095EEAFEEBFFEEFD
:102363004F6033851882851983AC82AD83120DE4E7
:102373007406120B3DE0601E7417120B3DE0FD74F2
:1023830001120B3DE0FCEEFAEFFB7900120B5CE966
:10239300600479A480027900024D9374F6120374E9
:1023A300EAFEEBFF8E828F83A3A3A3A3A3A3E05430
:1023B30040601B12521012250560067AFF7BFF80D6
:1023C3001A8E828F83123987FAA3E0FB8003120EE1
:1023D3000874FE6A700374FF6B6041125210124757
:1023E3007B120E5CE98E828F836006122430E480B8
:1023F300051224307401F07CF47D0C8E828F8312DD
:102403004B52121BE2E9F5087015EE4F6009790192
:10241300EEFAEFFB120D78A9080247AC7508CDAAB6
:10242300088E828F83122437E960DF80EAE0240D6F
:10243300123E5622E0240C123E56E0F9120D002201
:1024430074F6120374E9FEEAFF7A0F7B001213D2CB
:10245300EA4B60198A828B83740CF0EEA3A3F0EF2E
:102463008A828B83A3F01247D77900802FEEF9126B
:102473000DA28A088B09A808A909E849601C88826B
:102483008983A3A3A3A3A3A3A3A3A3740612549B07
:10249300E0F9120CB8EEF9120D7E79100247ACC0C8
:1024A30082C08390036AE0640F7014EA4B6010905B
:1024B3000365E064086005E0640470031224C50248
:1024C3003D25EAFCEBFD7A017B009003B0E0F912B5
:1024D300152822C082C0837900EA241DF582EB12FD
:1024E300398424FD600B14600824FD600424FD700E
:1024F3000109023D258E828F83A3A3A3A3A3A3A3D4
:10250300A3A3122509221239CCFB120E5CE9228EF9
:10251300828F83A3A3A3A3A3A3A3A3A312250964C5
:1025230002228E828F83A3A3A3A3A3A3A3A3A31295
:102533003D1C900356E068221208CA7F0602062754
:1025430074F412037474FD12095E8A088B098A827B
:102553008B83A3A3E0F9120DA28A0A8B0BAE0AAFF9
:102563000BEE4F700302264A850882850983A3E098
:1025730064F16030850882850983A3E064CD60241B
:10258300850882850983A3E0641A6018850882851B
:102593000983A3E064E9600C850882850983A3E0CD
:1025A30064E170087900120D78E9706C8508828502
:1025B3000983A3E0C0E07402120B3DD0E0123D009A
:1025C300EEF0A3EF12302B851882851983AA82AB14
:1025D300837005120C1C8003120E447402120B3D0F
:1025E300E064E970338E828F83122656750A017870
:1025F3000A1208BB750AE9780A1208BBE508240C1D
:10260300F582E509122B1D123008FCA3E0FD8A8236
:102613008B831230221208CA8E828F83A3A3A3A3B3
:10262300A3A3A3A3A3E0640270108E828F83A3A34A
:10263300A3A3A3A3A3A3A37406F085088285098398
:10264300A3A3E0F9120D7E120D6C900CF812230E69
:10265300022BDAE0F8A3E0F9E8FAE9FB2274F412BA
:102663000374EAFEEBFF7508008E828F83A3A3A396
:10267300A3A3E060427508088E828F83A3A3A3A35C
:10268300A3A3A3A3123C2F8B0BEA450B6010750881
:102693002C8E828F83A3A3A3A3A3E0D2E0F08E8228
:1026A3008F83A3A3A3A3A3E05403640160030227BE
:1026B30049430811022749EE2418122BE76033EE31
:1026C300241A122BE7700F1225257003A3E06970FB
:1026D300757508228070EE241BF582EF12274E24B5
:1026E3001AF582EF123033EE2419125244120CA65B
:1026F300805412251270037508011225257003A357
:10270300E0697006E508D2E1F508E50860158E82F8
:102713008F83A3A3E07006E508D2E58004E508D221
:10272300E6F5081224F864017006E508D2E0F5081E
:102733008E828F83A3A3E0600D12275C6401600681
:10274300E508C2E0F508A908022BDF123972122747
:102753005522E0FCA3E0FDEE2212396C1239A4F9F4
:10276300120E4AE922C082C08379018A828B83A335
:10277300A3E0C394024001198A828B83A3A3A3A37A
:10278300E0C39402400279008A828B83A3A3A3A3AC
:10279300A3A3A3A3A3E064F87003A3E0F460458AB2
:1027A300828B83A3A3A3A3A3A3A3A3A3E064F9702E
:1027B30003A3E0F4602E8A828B83A3A3A3A3A3A322
:1027C300A3A3A3E064FA7003A3E0F460178A828BE7
:1027D30083A3A3A3A3A3A3A3A3A3E064FB7003A363
:1027E300E0F4700279008A828B83A3A3A3E0F890BC
:1027F3000353E06860027900023D2574F01203740C
:1028030074DE12095EEAFEEBFF8E828F83A3A3A31D
:10281300A3E0600E900CF61247A36006900CF6122C
:10282300230E7403120B3DAC82AD838E828F83A380
:10283300A3A312482512505EE9600F7403120B3DE7
:10284300AA82AB83120D1EE970087901121B940250
:102853002B12EE241B1239777410120B3D1247EE24
:102863007409120B3DE06021741A120B3DE0FD74F4
:1028730004120B3DE0FC8E828F83124B50790112C0
:102883000B5CE96004790280C37403120B3DAA82D6
:10289300AB83120D18E9F50A7409120B3DE0702A97
:1028A30090034DE060247422550A6422601C744234
:1028B300550A644270CF7420120B3D122B30600A0C
:1028C3007420120B3D122B2970BBE9A2E650417410
:1028D30003120B3DAA82AB83120D0CE9700302288D
:1028E3004D7420120B3D1239876403700F7420124C
:1028F3000B3DA3124795A3E0640D60147403120B00
:102903003DAA82AB83120E6EE964017003022B129F
:10291300EE242C122B1A122E3E7003A3E069701CB6
:1029230075080078081208BB78081208BBEE242E3D
:10293300125244122B361230221208CA7409120B97
:102943003DE070030229EF122B36124B52120EC2D6
:102953008A088B09EA45097003022A8C7404120B56
:102963003DE0F88E828F83A3A3E028F8A3E0340030
:10297300F9E8240D122B218A828B83A3A3A3E06899
:10298300601CE88A828B83A3A3A3F090821B120BA3
:102993001A850882850983A3A3A3A3120B267904AE
:1029A300E9120B3D12503B2AF8A3E034008882F56C
:1029B30083A3AA82AB831213C68A0C8B0D8C0E8D54
:1029C3000F850882850983A3A3A3A3780C12081A91
:1029D3004003022B1290822F780C1209ED85088296
:1029E300850983A3A3A3A3780C120AE2900365E0ED
:1029F30064046008E064096003022B12E50AA2E59F
:102A03004003022ACAEE242E122BE7851882851969
:102A130083F0EE242F122BE7C0E07401120B3DD09C
:102A2300E0F0EE2430122BE7C0E07402120B3DD02D
:102A3300E0F07414120B3DE064017027740E120B66
:102A43003D12397DEE2412122BE7687003A3E0696F
:102A53007011740C120B3D12251F70077414120BA6
:102A63003DE4F0EE2424122B1A1206E27404120B36
:102A73003DAC82AD837407120B3DAA82AB83120C6B
:102A83002274041208CA022B129003AAE0640160A4
:102A9300030229EF7420120B3D122B307009E50A53
:102AA300A2E650030229EF7410120B3DE0F4700309
:102AB300A3E0F4605AEEFCEFFD7403120B3DAA820F
:102AC300AB83120D2A8048A2E650447420120B3DBA
:102AD300124B61701A741A120B3DE0640270307469
:102AE30003120B3DAA82AB837900120E3880207447
:102AF30020120B3D122B297016741A120B3DE06441
:102B030004700C7403120B3DAA82AB83120E327451
:102B130022024F0DEE240BF582EF12397222F58259
:102B2300E9124807F822125222E06407221239A45C
:102B3300640622EE242A12396F1227552412123901
:102B43006F2274F4120374EAFEEBFF8C088D099074
:102B530005DCE0600F1225257003A3E06970051200
:102B63000C94804F7900124B45120CC48A828B83DC
:102B7300E58245836035A3A3A3A3A3A3E054186010
:102B83002AE508241BF582E509122B1D1206E6121D
:102B9300321B122B1D1206E6EE2418125244122B7E
:102BA300B8120CD674041208CA80087900122BB824
:102BB300120C9A80278E828F83A3A3A3A3A3A3A31C
:102BC300A3A3122755240BF582EF122BD122340035
:102BD300F5831239CCFB2274031208CA7F04020660
:102BE30027EE2417F582EF1248072274F7120374B5
:102BF30074F712095EEAFEEBFF900365E06403607D
:102C03000DE064016008E064096003022CB88E8261
:102C13008F83A3E0707E7C007D007A027B00121B11
:102C23008EEE2402FAEF12358812397D9003561284
:102C330047EE7953121BC47900122CBDE06409607E
:102C43000312305085188285198374011247C4908A
:102C530003657404F07401120B3DAA82AB83794AB5
:102C6300121BBE7401120B3DAC82AD837A5B7B03F6
:102C7300121BAC9003561250547A0312305A90032D
:102C830050E0A2E35004D2F08002C2F01247B11226
:102C9300230B801E8E828F83A3AE82AF83FC7D00C5
:102CA3007A037B10121B8E8E828F83E0F9122CBD68
:102CB300E4F0120D547409024D95900363122BD561
:102CC300120C3490036522C082C0839003341247F0
:102CD300A3701F900365E014600924FC600A14606C
:102CE3000C800F90033C8032900338802D90033A80
:102CF3008028E8496008900335123002700C8A82FC
:102D03008B83A3E0F9120C28801B9003351232B792
:102D13007005120E8C800E9003D21247A360061228
:102D23004795121D8B023D2574F412037474FB1234
:102D3300095E8A088B097A0F7B001213D28A0A8BE9
:102D43000BAE0AAF0BEE4F7003022E328E828F83CF
:102D5300124D1F7950121BBE850882850983A3E09B
:102D63006003022E1A900363E0F47003A3E0F4609F
:102D730034900363E064FE7003A3E0F460278518D6
:102D830082851983122E3E7003A3E06960178508BC
:102D930082850983A374EA1230387A637B037950FE
:102DA300121BC4807285188285198312520312473D
:102DB300EE7A567B037953121BBE90035612481FBB
:102DC3001247EE7A597B03794B121BBE7A587B0369
:102DD30079E1121BBE90036AE0C3940F5021900364
:102DE30058E0C0E07402120B3DD0E0F07404120B03
:102DF3003D7401F004120B3DAA82AB83121BD675FE
:102E03000A00780A1208BB780A1208BB900D1AE070
:102E1300F91230191208CA850882850983122E37E0
:102E2300A3F09003657403F0EEFAEFFB1247D77437
:102E330005022BDCA3E08E828F8322125207E06807
:102E430022123E5D2274F512037474D812095E8A4D
:102E5300088B098A828B83A3A3A31239A974151241
:102E63000B3DAC82AD838A828B83A3A3A3A3A3A3CD
:102E7300A3A3123008FAA3E0FB120D5A7415120B28
:102E83003DE0706B850882850983A3A3A3A3A3A355
:102E9300A3A3E0C3940B40578E828F83A3A3A3A362
:102EA300A3A3A3A3E064027046EE240B122BE7F462
:102EB300703D900365E06402603AE064066035901B
:102EC30003341247A36005123002604F900365E09C
:102ED30064086005E0640470167417120B3DE0F992
:102EE300741C120B3DAC82AD83124B45120D607402
:102EF300280257219003341247A3701F75080078E6
:102F0300081208BB78081208BBEE2410122B1A1201
:102F1300525C1236701230221208CA8E828F8312CC
:102F23004AC112359A12397D7402120B3D1247EED3
:102F3300EE240D122BE7C0E07404120B3DD0E01217
:102F4300302BF508A3E0F509740F7808120AD3743F
:102F530005120B3DE508F07419120B3DE0C0E07457
:102F630006120B3DD0E0F0741B120B3DE0C0E07481
:102F730007120B3DD0E0F07416120B3DE0C0E07475
:102F830009120B3DD0E0F07417120B3DE0C0E07462
:102F930008120B3DD0E0F0EE2410122BE7C0E074D2
:102FA3000A120B3DD0E0F0741A120B3DE0C0E0743E
:102FB3000B120B3DD0E0F07427120B3DE0C0E07420
:102FC3000C120B3DD0E0F0741C120B3DA982AA83B6
:102FD30089088A09750A0078081208B37C087D00FD
:102FE3007410120B3DAA82AB831243521208CA8596
:102FF3001882851983AA82AB83120C2E022EF21239
:1030030032BD640122E0F98A828B83A3A3A3A3A325
:10301300A3A3A3A3E0229003631250589003591271
:103023002BD5120E1A740222F0EE240B124804223E
:10303300124807FA22F07A567B037953123043225F
:10304300121BC47A597B03794B121BC4229003636E
:10305300122BD5120EBC227B00121B8E9003591229
:1030630050587A047B00121B8E22F012526722748E
:10307300F212037474F812095EEAFEEBFF8C0A8DF8
:103083000B890C851882851983AC82AD8375838186
:103093007582EF74081207DAF50DEEFCEFFD851863
:1030A30082851983AA82AB83124A227003750D01AC
:1030B3009003B1803BEEFCEFFDE508240BFAE50934
:1030C3003400124A21601E850882850983A3A3E088
:1030D300650C7011850882850983E0650A7004A375
:1030E300E0650B6038E5082414F582E509122B1D11
:1030F300123592E50845096024E50DA2E040B68546
:103103000882850983E0650A7004A3E0650B70D526
:10311300850882850983A3A3E0650C70C8AA08AB60
:1031230009740802253BC082C0839003B1023D228B
:1031330074F71203749003B11239CC8012EA241489
:10314300F582EB122B1D1239A9121474EEFAEFFB60
:10315300EA4B70E99003B1E4F0A3F0024D987F07C6
:1031630002062774F1120374EAFEEBFF890A8C0846
:103173008D098E828F83E08C828D83123C39AE82DF
:10318300AF83E0124412124383C412441212322456
:10319300E054038C828D83124381A2E2E4338C8258
:1031A3008D83124380131313541F12441212437F4F
:1031B300A2E7E4338C828D83A3A3A3A31232248ECC
:1031C3000C8F0D750E00780C1208B37C087D00E59A
:1031D300082407124FC71208CA1250328E0C8F0DE3
:1031E300780C1208B37C037D00E508240F124FC747
:1031F3001208CAE50AC3940F40148E828F83A3A3D7
:10320300A3E0C0E012321B122B1DD0E08006123265
:103213001B12548FF0023161E5082412F582E5098F
:1032230022A3A3123C3D0EAF832274F412037474E1
:10323300F912095EEAFEEBFF89089003341247A3F3
:10324300600E1232B77009EEFAEFFB120E86805F42
:10325300900363E06E7003A3E06F7053740165081D
:1032630060097A777B03124A2270447A007B021248
:1032730037E18B0BEA450B7036900366120B1A8508
:103283001882851983120B2690036CE0C0E0740446
:10329300120B3DD0E0F07405120B3D7401F074067F
:1032A300120B3D124D1F120BF8E9609B120BFE74BB
:1032B30007022BDC1232BD640222125223A3A3A302
:1032C300A3A3A3E02274F51203748A088B098A82EC
:1032D3008B83A3AE82AF83E0F9120C4C8E828F8373
:1032E300E064EB600C850882850983A3E064E170E8
:1032F30009850882850983A3E4F012230B750A016B
:10330300780A1208BB850882850983A3E0F508784B
:10331300081208BB79001230191208CA120D6C0288
:103323005724EAF0A3EBF0023D2574F612037490E0
:1033330003B4E0701B7C0079017A007B00120D9CC2
:10334300EA4B600C8A828B831247A36003120CFA48
:103353000247ACC082C0831237C9401079FF120DF7
:1033630096E9F8902101E493C3985004790180020F
:103373007900023D2574F01203748A088B09890BC6
:10338300750C008A828B83A3A3A3A3A3A3A3A3E0A7
:10339300F9120DA28A0E8B0FAE0EAF0F750A01EE56
:1033A3004F6003023456850882850983A3A3A3A330
:1033B300A3A3125054850882850983A3A3A3A3A3BF
:1033C300A3A3124152124B52120D8A8A0C8B0DAEDB
:1033D3000CAF0DEE4F70030235798E828F83A3A35A
:1033E300A3A3E4F0A3F0E508240B123585E0C0E0C5
:1033F300122B17D0E0F0120E62EE240CF582EF12BE
:103403004777E508240EF582E50912397AEE240E92
:10341300F582EF1247EB750C01EE2406F8EF123537
:1034230081547FF0A3E054FC1252B9E054046003CA
:103433000234DC900CFC12414374077808120A5FD3
:103443008E828F83A3A3A3A3A3A3E04508F0A3E0E5
:103453004509F08E828F83A3A3A3A312359074072B
:103463007808120AD3E5085407F508E50B607A8E4D
:10347300828F83A3A3A3A3A3A3A3A3A3740212432F
:1034830084240D123E52E0A2E2500B9003511248E5
:103493001FA3A31247EEE508700302354EEE240680
:1034A300F8EF3400F9E8FAE9FB8A828B83E0547F72
:1034B300FCA3E054FCFDE50824FFF508E434FFF524
:1034C3000974077808120A5FEC4508F8ED4509F915
:1034D3008A828B831247EE80728E828F83A3A3A38B
:1034E300A3A3A3E04480023455E5087005750A00E0
:1034F30080598E828F83A3A3A3A3A3A3E054206048
:10350300121213CCEA547F245F8E828F83A3A3A36A
:10351300A380238E828F83A3A3A3A3A3A3E054102A
:10352300600A1213CCEA540F240A80DD8E828F8343
:10353300A3A3A3A37401F0A3E412359A740412376E
:10354300D88B09EA4509700312476AE50CA2E050DB
:10355300288E828F83A3A3A3A3124D85F9EEFAEFDE
:10356300FB120D90E960121247996003123962EE63
:10357300FAEFFB121474750A00A90A024F101248DD
:10358300E222FAE5093400FB8A828B8322A3A3E0BB
:10359300F508A3E0F5092212359E22124FE3A3A3F7
:1035A300A3A3A32274F412037474F712095E7E00BA
:1035B300120DA2EA4B70030236698A828B83A3A39E
:1035C300A3A3A3A3A3A3A3E0640660030236698AAB
:1035D300828B83A3A3A3A3A3A3A3E0FF8A828B83EA
:1035E300123E65E0C0E07408120B3DD0E012399D35
:1035F300124A281247EE120DB4EF5408606685187C
:10360300828519831250547A007B00120D848B0B30
:10361300EA450B704F900363123A8D121BEE7C0048
:103623007D007A007B0080288E828F83123987F495
:103633007003A3E0F4602D900363123670124B52B3
:103643001218E2E9641A601C7C007D00EEFAEFFBBD
:10365300120D848A0A8B0BAE0AAF0BEE4F70C97939
:1036630000121BF47E01EEF97409022BDC1236748E
:1036730022E0FCA3E0FD8E828F8322C082C083EA16
:103683004B70059003B580068A828B83A3A31238FF
:103693008D60258A828B83A3A3A3A3A3A3A3E05452
:1036A3000860E5EC4D60158A828B831239876C7054
:1036B30003A3E06D70D280047A007B00023D257481
:1036C300F2120374EAFEEBFF890A8C088D097A1063
:1036D3007B0012146EEA4B603F8A828B83A3A3A301
:1036E300A3A3A3A3A3A3E412398BA3E50A1252292C
:1036F300A31237258A828B83A3A3A3A3E4F0A31287
:103703003997A3F01250BDEA240CF582EB123C2941
:1037130012371EA3A3F0A3F002253EA3F08A828BE7
:103723008322A3A3E508F0A3E509F02274F41203AE
:1037330074EAFEEBFF89088C0A8D0BEE4F6055741B
:1037430001650870147901120D96E9F89020F9E4E7
:1037530093C398500F7911806A74046508702F120F
:1037630037C940F18E828F83A3A3A3A3A3A3A3A3EB
:10377300A3E508123C39A31257AE8E828F83A3A30D
:10378300E4F0A3F09003B51247A36021800D740207
:10379300650860D079C1802BE0F8A3124818A3A371
:1037A30012388D88828983A3A370ED80039003B5BB
:1037B300EEF0A3EF1237D88B0BEA450B70031247D9
:1037C3006A7900022BDF7904120D96E9F89020F64E
:1037D300E493C39822F01237DD227A207B00900312
:1037E300B0E0F912153A22C082C083E9F87900905B
:1037F30003B5801D8A828B83A3A3A3A3A3A3A3A33F
:10380300A3E068600574FF687001098A828B83A353
:10381300A312388D70DE023D2574F7120374EA4B50
:1038230070059003B580068A828B83A3A312388D1B
:1038330060248A828B83A3A3A3A3A3A3A3A3A3E04C
:103843006970E4EC60148A828B83E0240D12504586
:10385300A2E240D380047A007B00024D98C082C06C
:10386300839003B580068A828B83A3A312388D606D
:10387300128A828B83A3A3A3A3A3A3A3A3E0697048
:10388300E580047A007B00023D25122BD5EA4B220A
:1038930074F21203748A0A8B0B8C0C8D0D7508005D
:1038A300750900EA450B602E9003B580068E828F62
:1038B30083A3A31238E0601EAC0CAD0DEEFAEFFB50
:1038C300850A82850B83121D8BE9640170DFEEF894
:1038D300EFF988088909AA08AB0902253EE0FEA38F
:1038E300E0FFEE4F2274F71203749003B512397D93
:1038F3007C007D00800DE8FCE9FD88828983A3A319
:1039030012397DE8496030EA687002EB6970E7902C
:1039130003B5124B52E86A7002E96B88828983A36C
:10392300A3700812397D9003B5800912397D8C820A
:103933008D83A3A31247EE024D9874F7120374EA22
:10394300FEEBFFEE4F6015120DAE1239AF12479921
:103953006003123962EEFAEFFB121474024D98EE13
:10396300240C12396F1239C422EE241DF582EF3470
:1039730000F58322F582EF123972123D1C22F58283
:10398300EF1239721239A42212398F22125231A343
:10399300A3A3A32212398FA3A32212371F1239A480
:1039A3002212521CE022E0FEA3E0FF228E828F83CC
:1039B300E0241C123E561239C48E828F831239C4FE
:1039C300221239CCFB12147422E0FAA3E022C08243
:1039D300C083EAFCEBFDEC4D700479058044EC24D4
:1039E300FBF582ED34FF1247A17007123A28E0F489
:1039F30060051213D880E39003B0E0C0E0123A28C8
:103A0300D0E0F09020FDE493F97AB77B031214021F
:103A1300E96401700B7A007B2012476E7900800203
:103A23007904023D25EC24FFF582ED34FFF5832272
:103A330074F4120374A2AFE433F508C2AF9003B772
:103A43001238E06038EE24FBF582EF34FF1247A111
:103A53007A007B209003B060051247718005E0F97E
:103A6300121D08E4F50AF50B780A1208B7EEFCEF0D
:103A7300FD7AB77B031213FC74021208CAE508A28D
:103A8300E092AFEEFAEFFB022BDF1250588518825B
:103A9300851983AA82AB832274F212037474FC1215
:103AA300095EEAFEEBFF750AFE750BFF120D72E964
:103AB30060057911023C1EEE2415122BE760379046
:103AC3000D10E0C43354E0F8E0333354FC48C0E055
:103AD300EE2415122B1AD0E0123C39123C2F8B091D
:103AE300EA45096011750AFFEE240F122BE744041F
:103AF3001247FCD2E0F08E828F831225036006EE1C
:103B03002412123C26EE2413122BE770109020FC93
:103B1300E493C0E0EE2413122B1AD0E0F08E828FD0
:103B230083E0A2E750045403801CEE2414122BE715
:103B33007015900342E0C0E0EE2414122B1AD0E07B
:103B4300F0900342E004F0EE2411122BE7640170BD
:103B5300169005D3E0600D90034DE0700A8E828FBE
:103B630083E07003123C238E828F83E06401701321
:103B7300EE240B12398164027009EE240F122BE735
:103B83004440F0851882851983AC82AD83EEFAEF49
:103B9300FB120DD88A088B0974FE650A700374FF43
:103BA300F470098E828F83A3A3124FD3EA45096071
:103BB300668E828F83E0C0E07401120B3DD0E0F08B
:103BC3007402120B3D1250C17401120B3D85820C1D
:103BD30085830D780C1208B7EE240F122B1A1206E8
:103BE300E6EE240E122BE7F50C780C1208BB9003BB
:103BF300561206E67407120B3DE0F9AC0AAD0B1240
:103C03000DD274071208CAE9FE74106E700BAA086D
:103C1300AB0912147480027E10EEF9740402253B82
:103C2300EE2411F582EF123972E4F022A3122BD5A0
:103C330079FF121CBA22123C3D22F08E828F83A39D
:103C430022C082C08374DE12095E8A828B83A3A39F
:103C5300A3A312397D740E120B3DE8F0A3E9123DC4
:103C630013740C120B3D123D0C240DF582EB122B39
:103C7300EAC0E0741A120B3DD0E0F0124F20EB12B1
:103C8300397A7420120B3D123D0C2415F582EB1288
:103C93002BEAC0E07408120B3DD0E0F0EA241CF5D7
:103CA30082EB12397A7412120B3D123D0C2411F57A
:103CB30082EB122BEAC0E07409120B3DD0E0123DF7
:103CC3000074FFF07401120B3D74FFF07402120BC9
:103CD3003D74FFF090821B1206E27404120B3DAC9C
:103CE30082AD837407120B3DAA82AB83120C22743C
:103CF300041208CA790074221208CA8025123D04EE
:103D030022F085188285198322E8F0A3E9F0EA22DC
:103D130012371FA3123D1B22A3E0F8A3E0F92212DE
:103D23004B52D083D08202087C74EC12037474EE7D
:103D330012095E8A128B13ECFEEDFF8909742612B9
:103D43000B3D124FD37428120B3DE0F5107429126A
:103D53000B3D123E47742B120B3DE0F50EA3E0F52D
:103D63000F7508107A1E7B0012146E7402120B3D3D
:103D730012477B7402120B3D1247A37003023E40AD
:103D8300851882851983AA82AB837950124656120D
:103D93004B527402120B3D123E65A312477B741003
:103DA300120B3D1257B07402120B3DE0240B123E6E
:103DB300527402F0120B3D123E657402F0120B3D79
:103DC3001252141250C17402120B3D124B67E509D3
:103DD300F07402120B3DE0240C123E52E510F07415
:103DE30002120B3D123E4FE512F0A3E513F07408E7
:103DF300120B3DE50CF0A3E50DF0740A120B3DE543
:103E030010F0850E82850F83C082C083740D120B60
:103E13003DAC82AD83D083D08274031207DAF97488
:103E230002120B3DAA82AB83120D78E9640170057F
:103E330075080080087402120B3D123968A90874D2
:103E430012024FEAE0F50CA3E0F50D22E0241C1268
:103E53003E5622F8A3E0123E5D223400F98882899F
:103E63008322124B5AA3A3A3A3A32274EE120374B7
:103E7300EAFEEBFF8C088D098E828F83A3740812F0
:103E83004837E060088E828F83A37410F0122BE40E
:103E930060098E828F83A3E02408F0EE2415122B91
:103EA300E760088E828F83A3E004F08E828F83A362
:103EB300A3A3A3A3A3E060198E828F83A3A3A3A3C9
:103EC300A3A3A3E0C3332402F88E828F83A3E02845
:103ED300F0EE2411122BE76005750B0E8003750BB2
:103EE300008E828F83A3C082C083EE240D122BE742
:103EF300D083D082F8E028250B8C828D83F0EE24CA
:103F030011122BE7600512436228F08508828509A8
:103F130083E0C39475400975080075090002405099
:103F2300E0FA7B0012516F7003024050EEFAEFFB90
:103F3300120DDEEA85088285098312477CEE24028E
:103F4300F8EF122E4412414A12408CF0EE2404087A
:103F530008EF122E4412458CA312408CA3A3F0EE5B
:103F63002413124072F0EE2414124072A3F0750A67
:103F730008EE2416122BE76010EE2418125051E5B8
:103F8300082408125252750A10122BE46016EE240C
:103F93001A125051850A0CE508250C125252740866
:103FA300250AF50A8E828F83A3A3A3A3A3A3E060AC
:103FB30059EE2407F510EF3400F511851082F583CF
:103FC300E0C0E0124059122B1DD0E012407CE0C04B
:103FD300E0124059122B1DD0E012407CA312406521
:103FE3001208B3851082851183E0C333FCE433FDEB
:103FF300850A0CE508250C124FC71208CA851082E2
:10400300851183E0C333250AF50AEE2415122BE745
:10401300600BC0E0124059122B1DD0E0F0122B1799
:104023001240651208B3EE240D122BE7FC7D0085C8
:104033000B0A8E828F83A3E0F8E50828F8E509349C
:1040430000F9E8250AFAE9124FCA1208CAAA08AB0E
:10405300097F0A020627850A0CE508250CF582E587
:104063000922E0F50CA3E0F50D750E00780C221281
:10407300396F124096A3A3A322F0050A8E828F8381
:10408300A3A3A3A3A3A3A3A322A3A31252BDA312D7
:10409300409622124590A3A32274F61203748A82D7
:1040A3008B83E0FC90035312414374027808120A95
:1040B3005FEC4508FCAD09EA241212413D74067811
:1040C30008120A5FEC4508FCED4509FDEA2415F5E5
:1040D30082EB122BEA6004780180027800E4C8F9CD
:1040E300ED49FDEA2411F582EB122BEAF508880964
:1040F30074097808120A5FED4509FDEA2416124196
:104103003D740B7808120A5FED4509FDEA24171286
:10411300413D740C7808120A5FED4509FD8A828BD4
:1041230083A3A3A3A3A3A3124143740A7808120A87
:104133005FECFAED4509FB0247ACF582EB123972ED
:10414300E0F50875090022E085088285098322A32A
:10415300E0F98508828509832274EE1203748A0AC2
:104163008B0BECFEEDFF750F01E9C3940850057945
:104173000002434F8E828F83E9F01245B5E9600355
:10418300750F001245998E828F831245E3EE124F0D
:1041930021EF1245D8C0E0EE2411122B1AD0E01201
:1041A30045D0C0E0EE2412122B1AD0E0123C397431
:1041B30008124FDBA3A3A3E06015124581EE24137D
:1041C300F582EF1247EB8E828F83A3E02408F08EF3
:1041D300828F83A3A3A3A3A3A3A3A3E060218E82BF
:1041E3008F83A38582088583091245C4EE2415F5C0
:1041F30082EF1247EB850882850983E02408F08E5D
:10420300828F83A3A3A3A3A3E0601A8E828F83A3C9
:104213008582088583091245A88E828F83A3A3A371
:10422300A3A3124374EE2419123C26EE241B123C62
:1042330026A312482FE070030242E3EE2419F8EF9D
:104243003400F98E828F83A3858208858309E0FA7F
:10425300E50A2AF582E50B122BEA88828983124349
:1042630074FAE50A2AF582E50B122BEAC0E0EE2484
:104273001A122B1AD0E012437488828983E06059A2
:10428300F89020F5E493C398500575110C8008EE5F
:104293002419122BE7F5118E828F83A3E0F8E50A28
:1042A30028F50CE50B1243581208B3E511C333FC90
:1042B300E433FD7AAE7B0B1243521208CAEE241B81
:1042C300122B1A74AEF0A3740BF0E511C333F88507
:1042D3000882850983E0288006EE241812548CF0A6
:1042E3008E828F83A3E0F88E828F83E0C39850037E
:1042F300024172A3E0FA8A08E50A2508F8E50B34BF
:1043030000F9EE241DF582EF1248F7124384C39A95
:10431300C0E0EE2417122B1AD0E01247F4602BEE04
:104323002417F8EF3400F9880889098882F583E0B7
:1043330024F21248D8240EFAA3E03400FB888289C1
:104343008312477B124362C398F0A90F02405412B1
:104353001D807403223400F50D750E00780C229035
:10436300034EE0F9120B62E9F8850882850983E0C0
:1043730022F0850882850983E004F022A3A3A3A386
:10438300A3F08E828F83E02274F41203748A088B65
:1043930009EA124419F0EA1313543F124412A3A377
:1043A300A3F0EAC41313124419A3A3F0EB12440BB2
:1043B3001244237409780A120AD3124409124422BC
:1043C300740A780A120AD3E50A5401C0E0EC2418EF
:1043D300F582ED122B1DD0E0124428740B780A12DB
:1043E3000AD3124409A3124422740C780A120AD382
:1043F300124409A3A3A3A3A3A3A3A3F0740D780852
:10440300120AD3022749E50A54018C828D83225470
:104413000F8C828D832254038C828D83A3A322A3CA
:10442300A3A3A3A3A3F08A0A8B0B22C082C0837920
:10443300008A828B83A3A3A3A3A3A3E090034D606D
:104443000FE070228A828B83A3A3E0701909801680
:10445300E060138A828B83124B49900356E06A70A3
:1044630003A3E06B70E7023D2574F01203748A0A1C
:104473008B0B890C8C088D091245B512459985085B
:10448300828509831245E3E508124F21E5091245A8
:10449300D8C0E0E5082411F582E509122B1DD0E010
:1044A3001245D0C0E012321B122B1DD0E01248FF80
:1044B30074081249186011124581E5082413124843
:1044C300F31248FFE02408F0850882850983A3A33B
:1044D300A3A3A3A3A3A3E06017850882850983A3ED
:1044E3001245C0E50824151248F31243842408F04A
:1044F300850882850983A3A3A3A3A3E06019850884
:1045030082850983A3AE82AF831245A8850882857D
:10451300098312437F04F0AA08AB09120DF0E9F5F1
:104523000D7056850882850983A3A3A3A3A3A312B1
:10453300458C7014E0FA8A0EE50A250EF8E50B1295
:1045430047E0E50CC39A80211245C0E8240EF8E940
:104553001247E090034EE0F9120B628E828F83E0E4
:10456300F8E50CC39824F2C399C0E0E5082417F5D5
:1045730082E509122B1DD0E0F0A90D024F10E50AC8
:104583002408F8E50B3400F92212459022E085084F
:1045930082850983A322850A82850B83A3A31245FF
:1045A300F9E0F9EA22E0F8E50A28F582E50B12487A
:1045B30007228A828B83124F15120DEA22AE82AF35
:1045C30083E0F8E50A28F8E50B3400F92212460CDB
:1045D300A3A3A3E022123972E8124605A3A3E022A3
:1045E300A3A3A3A3A3A3A3A3A31246051245F9A3BD
:1045F300A3E0F9EAF822E0FA850A82850B83A3A3F4
:10460300A322F0A3E912460C22F0850A82850B83CC
:10461300A3A3A3A322C082C0837AC57B0379E2123A
:104623001BBE7AC57B03023D25C082C0839003561F
:10463300023D22C082C08374FE12095E8518828502
:104643001983AA82AB83794B124656124B527402DA
:10465300023CFB121BBE85188285198322C082C0CF
:1046630083794A121BBE023D2574F612037490032C
:10467300CDE0FE04F0EEF9120DA28B09EA450970B4
:10468300EDEE60EAF90247AC74F0120374EAFEEB54
:10469300FF8C088D09890A7410120B3DE0F50B7429
:1046A30011120B3DE0F50C120EC2EA4B7013E50C30
:1046B3007042A90AAC08AD09EEFAEFFB120EDA80DC
:1046C3006EE50A6021EA2402F582EB122BEA850AE1
:1046D300082508F8E4340013E813F070098A828B84
:1046E30083A3A37401F0E50C6045E50B70068A8291
:1046F3008B83E4F07401650C7035E50B9003D47083
:1047030004E4F0802AE004F0900CFDE0F89003D478
:10471300E0C398401AE4F0900359E06E7003A3E0FD
:104723006F700CEEFAEFFB7901120C46124735025B
:104733004F107A017B009003B0E0F912153422C0C8
:1047430082C08374016A7001EB70077A0112476CAF
:104753008012900CF412477BEA4B60051224C5804B
:1047630003124735023D257A207B009003B0E0F920
:10477300121408223400F583EAF0A3EBF022C0827E
:10478300C083900CF6023325C082C083900CF802DC
:10479300332512522322EE240CF582EF3400F583E5
:1047A300123D1CE849221208CA7F02020627A2F022
:1047B300E4338518828519831247CD7952121BC4BD
:1047C300221247CD7942121BC422F0AA82AB832264
:1047D300AA08AB099003B0E0F91213DE223400F902
:1047E300E508241DF582E509123972E8F0A3E9F022
:1047F30022124FDFA3A3E022A3F0EE2415124804F4
:1048030022F582EF3400F583E022124811223400AE
:10481300F583E0F8A3E0F98882898322E0F812485F
:104823002522A3E0F98E828F83A3A322F0EE24181E
:1048330012396F22F0EE241612396F2274F4120328
:1048430074EAFEEBFF7A007B041247391248CE125A
:1048530047EE9003657409F0120DFC8A088B09ACCE
:1048630008AD09EE2413122B1A124B52124A22647A
:104873000170487A0F1248C160418A828B837402A7
:104883001248D8FAA3E0FB8A828B83A3E0FC8A82D6
:104893008B83A3A3E0FBEC850882850983A3A31282
:1048A300477C88828983124B5612414A1247FBFA8E
:1048B300A3E0FB794A121BC41247D3022BDF7B0010
:1048C3001213D28A088B09EA450922900336123D56
:1048D3001C900CF822F0EE241DF8EF1248E222128D
:1048E3003E5DE0221248EB223400F5837401F0228E
:1048F300F582E509123972E8F0A3E922124903228D
:1049030012490722F0850882850983A322124907E9
:10491300A3A3A3A322124910A3A3E022124D291299
:104923000E5022EE2417F582EF1248EB120DFCEE27
:10493300241A12396FEAF0A3EBF02274F412037411
:1049430074F312095E8908EAFEEBFF7C0D7D0079A2
:1049530000851882851983AA82AB831213BAEE24C9
:104963001D122B1A125214A3E0F8741F58600A790F
:1049730001121B947900024A19E8A2E55008740C4D
:10498300120B3D7401F0E8A2E75008740B120B3DC3
:104993007401F0E8A2E6740A5008120B3D7401F0AA
:1049A3008008120B3DE064017005EE24138003EED2
:1049B30024151250517402120B3DAA82AB83121BB1
:1049C300AC122B17124A271247EE740A120B3DE062
:1049D300640170331224F8703B120E088A0A8B0BA1
:1049E300A80AA90BEE240B122BE7687003A3E06956
:1049F3007022120DFCEAFCEBFD7402120B3DAA823D
:104A0300AB83124A22600D851882851983AA82AB73
:104A130083120C40A908740D022BDCEEFAEFFB1293
:104A23001BA6E922E0124A2C22F8A3E0F98518829A
:104A33008519832274F612037474F312095E8A08CB
:104A43008B09ECFEEDFF7C0D7D00790085188285D6
:104A53001983AA82AB831253B9A3A3A3A3A3A3A3CA
:104A6300A3A3124AC1124ACAF8A2E55008740B1252
:104A73000B3D7401F0E8A2E75008740A120B3D7471
:104A830001F0E8A2E6EE500424138002241512502C
:104A9300517402120B3D124AB3A3A3E0C0E0740C9D
:104AA300120B3DD0E0124D21120C3A740D0247A9AE
:104AB300AA82AB83121BAC85088285098322E0128C
:104AC3004A2CE8F0A3E922F012396C125218A3E041
:104AD3002274F712037474E112095EEAFEEBFF8E8F
:104AE300828F83124B56A3A3A3E0A2E050518E8280
:104AF3008F831226588A828B83A3A3A3A3A3A3E045
:104B030054FE124B6E8A828B83124B67E0F98A82C2
:104B13008B83E0241CFAA3E0123588124B52120D4A
:104B2300F6E9701B741D120B3D124B617011851851
:104B330082851983AC82AD83EEFAEFFB120E3E023F
:104B43004D938E828F83A3A3A3A3A3A3A3A3A31293
:104B53002BD522124B5A2212521CA3A3A322123981
:104B6300A4640422E0241B123E5622123D04AC82AC
:104B7300AD8322E9F87900740468600A740A6860F6
:104B83000574036870010902087C74F61203748AC1
:104B9300828B837420F0A3A37401F0120BEC8A08B8
:104BA3008B09AE08AF09EE4F60108E828F837401BC
:104BB300F09003A3E07003124926EEFAEFFB0247DD
:104BC300ACC082C0839003B97401F0E9A2E350033F
:104BD3007403F0E9A2E15004E0D2E2F0023D25744F
:104BE300F612037479007C008A088B097808120591
:104BF300E1F8FF07154C134C134C134C134C0C4C9E
:104C0300104C154C094C0C80097C0480050C80F673
:104C13007C089003B9E05C6003098003EC60010940
:104C23000247AC74F61203748A828B83E07012A37A
:104C33001247A3600C8A828B83124B51121CE480AF
:104C4300047A007B000247AC74F512037474F31208
:104C5300095E8A088B09ECFEEDFF750A12EA450925
:104C630070057900024D1A900356E065087004A39D
:104C7300E065097014120DFCEAFCEBFD124A1E708C
:104C830005750A018003750A00851882851983E476
:104C9300F004120B3DE508F0A3E509124D21120BB8
:104CA300B0E960277403120B3DAA82AB83120B9207
:104CB300E964017016750A017403120B3DAC82ADF1
:104CC30083124A1E6021750A00801C7412650A70E3
:104CD300169003A2E06402700EEEFCEFFDAA08AB8F
:104CE30009120BC8E970DFEEFCEFFDAA08AB09124D
:104CF3000EC8E9F8740A687005750A01801774A074
:104D0300687012EEFCEFFDAA08AB09120ED4AA08D4
:104D1300AB09120EE6A90A740D0257217402124D53
:104D23002522124D2922123D04AA82AB832274F755
:104D3300120374EAFEEBFF8E828F83A3A3A3A3A3C4
:104D4300A3A3A3E06015EE2415122B1A122BC51290
:104D53000E68E964017004790180258E828F83A334
:104D6300A3A3A3A3A3A3E06015EE2413122B1A128B
:104D73004D85FAA3E0FB120E68E9640160D979005E
:104D83008013123674A3A3A3A3A3A3A3A3A3E02214
:104D9300741F1208CA7F0102062774F01203747489
:104DA300FD12095E8A088B09ECFEEDFF890B741373
:104DB300120B3DE0F50C750A017401120B3D7404EE
:104DC30012524C6048E50C601DEA2417F582EB1281
:104DD300548F12523A8A828B83E0D2E7F0EA24148A
:104DE300F582EB123C29124F20EB12480D7403128B
:104DF30057B2EE88828983A3A3F0EF88828983A3C5
:104E0300A312371E123725120BE6E9F50AA90A7415
:104E130003024F0D74EC12037474F512095E8A0ACF
:104E23008B0B890C8C0E8D0F741F120B3DE0F50D4F
:104E33007420120B3DE0F510A3E0F5117E01EE1294
:104E43000B3D740AF0E97007E50DC333240AF01231
:104E53004FF27003024EF41250077409F0A3E50CED
:104E6300C43354E0450D125019E50C702D7C0080BD
:104E730023ECC333F8E433F9E51028F8E51139F9E5
:104E830088828983124F0188828983122E37F0A387
:104E93000EAF830CECC3950D40D7E5082417F582BC
:104EA300E5091248E7120DFCE508241AF582E50925
:104EB3001247777403120B3DAC82AD83AA0AAB0B86
:104EC300120B98E96019E5082416F582E509124EDC
:104ED300FB120B3DA882A983E50824181247E78536
:104EE30008828509831257AEAA08AB09120BE6E9BB
:104EF300FEEEF9740B024FEA1248EB740322E08EC4
:104F0300828F83F0A3AE82AF83221208CA7F080286
:104F130006271239CCF9EA2400E439FB22EA240BF0
:104F2300F5822274EE1203748A0C8B0D890E8C08A1
:104F33008D097412120B3DE0F50F7413120B3D1221
:104F43004FD39005421247A36077E50FC333F8E4CC
:104F530033F9E8240EFAE93400FB1213D28A108BDA
:104F630011AE10AF11EE4F60588E828F8374D4F060
:104F7300A3A3E50CF0A3E50D124FDBE50EF0AC089F
:104F8300AD09EE2405FAEF125255EE240D122B1A39
:104F9300E50FF0850A08850B09750A0078081208E1
:104FA300B3E50FC333FCE433FDEE240EFAEF124FE7
:104FB300CA1208CAEEFAEFFB900542125214121DF0
:104FC3008B024054FAE5093400FB121D807403225E
:104FD300E0F50AA3E0F50B22124FDF22124FE32282
:104FE300123C3DA3A3A3221208CA7F0C0206278505
:104FF3001882851983AA82AB83120E508A088B0903
:10500300EA450922EA240BF582EB124807FEA3E0E6
:10501300FF8E828F8322F0A3AE82AF83AC0EAD0FDF
:10502300EEFAEFFB12502B22121BAC12503222EE7F
:105033002408FEEF3400FF22E0FA8E828F83A3A3BD
:10504300E022FEA3E03400FF8E828F83E022123938
:105053006F12505822E0FCA3E0FD22122BD5120D53
:10506300E42274F6120374EAFEEBFF9003BA801392
:1050730088828983E06E7003A3E06F603A88828937
:1050830083A3A31247A370E87A047B0012146E8AE9
:10509300088B09A808A909E849601C88828983123A
:1050A30050C19003BA124B5288828983A3A312473B
:1050B3007B9003BA1247EE0247AC8A828B83EEF0F1
:1050C300A3EFF02274F41203747E009003BA8007F6
:1050D3000E88828983A3A31247A370F4EEC333FA25
:1050E300E433FB12516F607E7F009003BA80248803
:1050F300828983125054EFC333FAE433FBE5082A61
:10510300F582E5093BF583ECF0A3EDF00F88828986
:1051130083A3A31247A370D79003AB122532700366
:10512300A3E069780870191208B7EEF50A780A1235
:1051330008BB7C777D0379009003AB12517A801A08
:105143001208B7EEF50A780A1208BB7C777D03795B
:10515300009003AB124B52120E7A74031208CAAAC0
:1051630008AB09121474120BFE022BDF12146E8AA1
:10517300088B09EA450922122BD5120E8022C08220
:10518300C08380128A828B83A3A312397D9003BAD2
:105193001247EE1214749003BA12388D70E6023D72
:1051A3002574F61203749003631239A99003CE1287
:1051B30052031247EE7ACE7B037950121BC490033D
:1051C300CE122751FAEFFB120EE09003CE1239A94B
:1051D3009005441247A360257A067B001213D2EA96
:1051E3004B601A8A828B8374D5F0A3A3E4125229ED
:1051F3000412523A900544125214121D8B0247AC0A
:1052030012520722E0F8A3E0F9900363228E828F03
:10521300831252182212521C22E0F812522222A3A5
:10522300E0F58388822212522D2212523122F08A13
:10523300828B83A3A3A32212522DA3EEF0A3EFF03C
:1052430022F582EF124807F92212491FEA4B22FA8C
:10525300E5093400FB121BAC22124826A3A3A3A327
:10526300A3A3A3229020F7E4932401F8E43400F9E4
:105273007A027B002274F71203747E0080041258B2
:10528300650E12538940F77E00EE1252A474FEF0AD
:10529300A3041252B9E4F00EEEC3940340EB024DA3
:1052A3009875F003A4F8A9F074BC28F8740339F9CD
:1052B30088828983A3221252BD22F08882898322A5
:1052C30074F71203747F0080010F9020F4E493F8C5
:1052D300EFC3985026EF1254756A7003A3E06B7006
:1052E300E81258126C7003A3E06D600A74FF6C70CF
:1052F3000374FF6D70D312538080047A007B000225
:105303004D9874F61203747CFF7DFF7AFE7BFF12C7
:105313000EA4EA4B70407508008036E50875F01757
:10532300A4F8A9F0744928F582740A125487600C12
:10533300744828F582740A1254877013743A28FE4D
:10534300740A39FF8E828F83125494EEFAEFFB05B1
:10535300081253EF40C50247AC74F41203748A0871
:105363008B09ECFEEDFF800B120EB6EEFCEFFDAAEF
:1053730008AB09120EA4EA4B70EE022BDF743A2835
:10538300FA740A39FB229020F4E493F8EEC39822CE
:1053930074F7120374EAFEEBFFEE4F60101253B37F
:1053A30074FEF0A3041257B814F0A304F0024D984E
:1053B3007C177D0079001213BA8E828F832274F7D3
:1053C300120374EAFEEBFF7508008018E50875F018
:1053D30017A4F8A9F012581D7003A3E06F6003121D
:1053E300586D05081253EF40E3024D989020F4E402
:1053F30093F8E508C3982274F6120374120EA48A74
:10540300088B09A808A909E849600AE8240DFAE904
:105413003400FB80047A007B000247AC74F412036F
:10542300748A0A8B0BECFEEDFF750800750900808A
:105433002EE50975F017A4F8A9F0125858601EE577
:1054430009125475650A7004A3E0650B70037508AF
:105453000AEEFCEFFD12571460034308A005099000
:1054630020F4E493F8E509C3985004E50860C20208
:10547300274975F017A4F8A9F012548022743A282A
:10548300F582740A39F583E022F582EF123972E46A
:1054930022122BD5120CDC221252BDA3A3A3A3A369
:1054A300A3A3A32274F21203748A088B09ECFEED02
:1054B300FF740E120B3D124FD3750C007C007D015F
:1054C30080101213CCE50CF5F0EA84ACF0750C00F7
:1054D3007D007800790080031256511256AD4003C7
:1054E300025573E8FAE9FBEA75F017A4FA85F00DA3
:1054F30075F017EBA4250D1256897003A3E0F46031
:10550300D712566765087004A3E0650960CA12568E
:10551300676E7003A3E06F60BF125667650A70047D
:10552300A3E0650B60B2E8FAE9FBEA75F017A4FAA9
:1055330075F017EBA4250DFB74482AF582740A1243
:105543005648509474016D050C608DE50CC39C4066
:1055530087E875F017A4F8AAF075F017E9A42AF9FB
:10556300743A28F582740A39F583124B5202564570
:105573007800790080031256511256BA400302563E
:105583002CE8FAE9FBEA75F012A4FA85F00D12563D
:105593009964FE7003A3E0F460DC12568F65087013
:1055A30004A3E0650960CF12568F6E7003A3E06F0A
:1055B30060C412568F650A7004A3E0650B60B7E8F8
:1055C300FAE9FBEA75F012A4FA75F012EBA4250DC3
:1055D300FB74C92AF58274081256485099E8FAE90F
:1055E300FBEA75F012A4FA75F012EBA4250D12561E
:1055F3005A64016081E06402700302557974016D9D
:10560300050C7003025579E50CC39C5003025579D0
:10561300E875F012A4F8AAF075F012E9A42AF97457
:10562300C028F582740802556AE50C6011EC700E0F
:105633007401650C60030254C57C010254D07AFEE8
:105643007BFF02253E3BF583E014C3940622E82446
:105653000108E93400F922FB74C42AF58274083B7B
:10566300F583E022E8FAE9FBEA75F017A4FA75F08E
:1056730017EBA4250D12567C22FB743A2AF582748B
:105683000A3BF583E02212567C64FE22E8FAE9FB2A
:10569300EA75F012A4FA75F012EBA4250DFB74C0A1
:1056A3002AF58274083BF583E0229020F4E493FA10
:1056B300C3E89AE99400229020F0E493FA740193EA
:1056C300FBC3E89AE99B2274F51203748A088B09D9
:1056D300ECFEEDFF750A008002050A9020F4E493C6
:1056E300F8E50AC3985028EEFCEFFDE50A75F017BC
:1056F300A4F8A9F012571460E0E50A75F017A4F8AE
:10570300A9F0743A28F582740A39F5831237278091
:1057130010743C28FA740A39FB121BA6E9221208FA
:10572300CA7F0302062774F01203748A088B098C5C
:105733000A8D0B890C120EAA8A0E8B0FAE0EAF0FB9
:10574300EE4F60551253B3E508F0A3E5091257B8BD
:105753001257B0E50C600AEE240F122B1AE50C80E9
:1057630006EE240F1257A8F09003D01247A3601A35
:105773009003AAE064017008EE240E12548C80108A
:10578300EE240E122B1A74078006EE240E1257A86D
:1057930012306D12022312579F024F10EE240D1286
:1057A300396FE8F02212396F740122A3A3E50AF0DE
:1057B300A3E50BF02212359EA32274F51203748A1B
:1057C300088B09ECFEEDFF750A00800F12581D705F
:1057D30003A3E06F600312586D050A9020F4E4936D
:1057E300F8E50AC3985025E50A75F017A4F8A9F05F
:1057F30012581265087004A3E0650970CF74442839
:10580300F582740A39F5831250C180CD025724748E
:105813004428F582740A12548722744428F582744A
:105823000A1254876E2274F7120374EAFEEBFF75B3
:1058330008008019E5081254756E7003A3E06F70B9
:105843000A1258587005E50812586605081253EFF6
:1058530040E2024D98743C28FA740A39FB120B9209
:10586300E922EE75F017A4F8A9F0125380120EB6D0
:10587300221252BD123D1CE84922C082C08374F833
:1058830012095E851882851983AC82AD8375838185
:105893007582F774081207DA851882851983AC823A
:1058A300AD83124A22640170047900800279017485
:1058B30008023CFBC082C0838A828B83E0D2E7F07C
:1058C30012163C02634BC082C0837900125D8312BF
:1058D3007324C082C083900330126F46D083D0827A
:1058E300C3E09CA3E09D500C1274F3FAA3E012589A
:1058F300FA60010902634BFBEA75F00BA4FAA8F006
:1059030075F00BEBA428FB900332E02AF8A3E03BED
:105913008882F583E0540F2274F712037489081206
:105923005D83125E29ACF075F00BE9A42CF99003AA
:1059330032E028FEA3E039FF7401650860067402B3
:10594300650870208A828B83125E151269F97402CE
:105953006508701B125CD4125E5C70138E828F8399
:10596300E4F0800BEA2403FCEB125DF7125E03EE16
:10597300FAEFFB120B6802667E74F412037412785A
:10598300E779008E828F83E06076890A890B8065D0
:10599300E50A75F00BA4FAA8F075F00BE50B1259A4
:1059A300077046E50A75F00BA4F8AAF075F00BE54D
:1059B3000B125E3B8E828F83E085088285098312FA
:1059C3005F1D850882850983A31269F9EE2403FC10
:1059D300EF125E0012652212729EAA08AB09120B27
:1059E300687901900330126F61E50A2401F50AE535
:1059F3000B3400F50B125CDCE50A9AE50B9B409037
:105A03000267B274F5120374EAFEEBFF740B120B18
:105A13003D126527750A01EC4D602BEC127903EDFD
:105A23001273241269F17901120B74E508450960B8
:105A33006F850882850983A31278F17902AA08ABDE
:105A430009120B74805AE5084509602B127328125A
:105A53006C1B126523125E46700CEEFAEFFB120B01
:105A63007AE9F50A80CBEE2403FA125D7E70317970
:105A730003EEFAEFFB80CA8E828F83A3E064FE708D
:105A830003A3E0F4700BEE24030A0A0A125D7E708E
:105A93000CEEFAEFFB120B7AE9F50A8003750A00A4
:105AA300A90A7F0302062774F712037490033012C6
:105AB3006683EA4B602FEA75F00BA4FAA8F075F041
:105AC3000BEBA428FBEAFEEBFF12146E90033212D9
:105AD3006683900332126F4D6012EEFCEFFD790086
:105AE3001213BA8007900332E4F0A3F002667E90AB
:105AF3000330126ED1C3EE98EF9922C082C083ECBB
:105B03004D6005121BAC80097C087D0079001213DF
:105B1300BA02634B74F61203747900EA4B60187887
:105B23000088081274AAEB1274EF600479017808F4
:105B330008E8C3940840EA02669674F71203747483
