:020000040000FA
:06000000020A870201C79D
:03002B000208C305
:0300430002074170
:030053000200F8B0
:03007B000208DC9C
:1000830002015C0101FF05030148104810481048B4
:1000930010040FFE0E4810F91D00000000BD1E00E5
:1000A3000000000C0000000C00010000161200000C
:1000B30000000000E2120000000000000000000049
:1000C300FFFF010101002D050000007E05E8036428
:1000D300006400B801020200080000050207051EC3
:1000E30002051E0A03B80B020102F1FF0296511822
:1000F3000002020612C0E074F21203E0A2AFE4337E
:10010300FED2AFE5A7FFE5A1F5085F541060061224
:10011300191875A1EFE5085F5408600812191E75D8
:10012300A1F7802BEFA2E0C0D0E508A2E092F01285
:1001330009C4158182F05017906198E0F890085730
:10014300E0C398A2D265D0335002E8F075A1FEEE69
:10015300A2E092AF7F0102043FC0E074F21203E019
:10016300A2AFE433FED2AF9061A4E0F8759B00E543
:100173009158540860087591F7121966802AE59121
:1001830058541060087591EF12196C801BE8A2E0B7
:10019300C0D0E591A2E092F01209C4158182F0501B
:1001A30007E0C2E0F0121AB09061A3E0F8E5E95865
:1001B3005404600E121A8675E9FB906193E0A2E67F
:1001C30040F2808BC0E074F21203E0A2AFE433FE8E
:1001D300D2AF9061A5E0F8E5BF585404600675BF3F
:1001E300FB121AC8020152C3E498F8E499F9120207
:1001F3002B8026C3E49AFAE49BFBE920E7E9120289
:100203002BE498F8E499F922C3E498F8E499F912F5
:10021300022BE498F8E499F9C3E49AFAE49BFB22ED
:10022300EB20E7CFE920E7E0B90010BB0008E88A3C
:10023300F084F8AAF022E4FBC8FA22EB70227B10C8
:10024300C833C8C933C9335007C39AC3DBF2800626
:100253009A50012ADBEAC833F4C8C933F4C9FA2235
:1002630075F008E4C833C8C933C933C99AC99B5068
:1002730004C92AC93BD5F0ECFBC833F4C8E4C9FA76
:1002830022080808EAC0E0EBC0E086F0E7A4FA1809
:100293000986F0E7A42AFA180986F0E7A42AFA18CF
:1002A3000986F0E7A42AFA1986F0E7A4FBE5F02A09
:1002B300FA190886F0E7A42BFBE5F03AFA19088649
:1002C300F0E7A42BFBE5F03AFA18180986F0E7A447
:1002D300C5F02BFBE43AFA1908E7C5F0C6A426F6E5
:1002E300E5F03BFBE43AFA1886F0E7A4F6E5F008FC
:1002F30026F6E43B08F6E43A08F6D0E0FBD0E0FA51
:1003030022E4CFC0E0E4CEC0E0E4CDC0E0E4CCC062
:10031300E075F020C3E633F608E633F608E633F675
:1003230008E633F6181818EC33FCED33FDEE33FE14
:10033300EF33FFC3EC9709ED9709EE9709EF971990
:100343001919400FFFEC97FC09ED97FD09EE97FE95
:10035300191906D5F0BEECF709EDF709EEF709EF29
:10036300F7191919D0E0FCD0E0FDD0E0FED0E0FF92
:10037300222518C582C0E0E51934FFC583C0E0E536
:1003830018C3958224F810AF0885831985821880D5
:1003930008858319858218D2AFCEF0A3E520F0A398
:1003A3007808E608F0A3DEFAEFF0A3E58124FAF873
:1003B300E608F0A3E608F0A3E608F0A30808E608B9
:1003C300F0A3E608F0A315811581D0E0FED0E0F894
:1003D300158115811581E8C0E0EEC0E022C0D0256B
:1003E30018C582C0E0E51934FFC583C0E0E518C332
:1003F300958224F310AF08858319858218800885B8
:100403008319858218D2AFC8F0A3E9F0A3EAF0A359
:10041300EBF0A37908E709F0A3D8FAECF0A3EDF029
:10042300A3EEF0A3EFF0A3D0E0F0A3D0E0F0A3D0CD
:10043300E0F0A3E520F0A3E5F0F0A322851983857E
:100443001882E0C0E0A3E0F9A3E0FAA3E0FBA378FD
:1004530008E0F608A3DFFAE0FCA3E0FDA3E0FEA3B7
:10046300E0FFA3E0C0E0A3E0C0E0A3E0F5D0A3E099
:10047300F520A3E0A3F5F010AF0885831985821852
:100483008008858319858218D2AFD082D083D0E0CB
:10049300F8D0E032120AF6B900030204D9E490035B
:1004A3000178AE790A8002F0A3D8FCD9FA900CAE99
:1004B300AA82AB83900086787379018015E493A3B5
:1004C300AC82AD838A828B83F0A3AA82AB838C82B6
:1004D3008D83D8E9D9E775828175839874031208EF
:1004E3000475826275831D74001208040875F01088
:1004F3008E1A8F1B85821F85831E8518828519831B
:10050300E0CEA3E0CF851F82851E83EBC9EAC8ED49
:10051300CBECCAC3E833C8E933C9EA33CAEB33CBFC
:10052300C3EA9EF51DEB9FF51CB35004AB1CAA1D3B
:10053300EC33CCED33CDD5F0DAAE1AAF1B22D0833A
:10054300D082ECC0E0EDC0E0E493A3FCE493A3FD10
:10055300ED4C600D120619EC24FFFCED34FFFD8019
:10056300EFE493A3FCE493A3FDED4C600D1206ECC2
:10057300EC24FFFCED34FFFD80EFD0E0FDD0E0FC88
:10058300E493A3C0E0E493C0E022D083D082E9C027
:10059300E0E493A3C386F0C5F095F0F908E493A3D0
:1005A30086F0C5F095F0700BE493A3C3994005E979
:1005B300048002A3E475F002A42582F582E5F035F8
:1005C30083F583D0E0F9E493A3C0E0E493C0E02291
:1005D300851983851882E0A3FEE0A3F5207808E05F
:1005E300A3F608DFFAE0A3FFE0A3C0E0E0A3C0E0C6
:1005F300E0A3C0E0E0A3C0E0E0A3C0E010AF088543
:1006030082188583198008858218858319D2AFD013
:1006130083D08202080AC0E0C3E49396087401936E
:100623009618400FE4936670080874019366187077
:10063300007019A3A3C3E49396087401939618A3B7
:10064300A3400DD0E0D0E0D0E002057DA3A3A3A397
:10065300A3A3D0E022D083D082C5F0E493A3C5F056
:10066300C395F0F5F0E493A3C395F04005E5F004DA
:100673008001E475F002A42582F582E5F03583F567
:1006830083E493A3C0E0E493C0E022740480047481
:10069300028000CCC0E0EDC0E0E518C39CCCAD19EE
:1006A30050011D10AF068C188D1980068C188D19FA
:1006B300D2AF120786D0E0FDD0E0FC2274028000A6
:1006C300CCC0E0EDC0E0E518C39CCCAD1950011DD2
:1006D30010AF068C188D1980068C188D19D2AF12A5
:1006E3000764D0E0FDD0E0FC22C0E0C0F088F0E475
:1006F300936670080874019366187000A8F0A3A3AA
:10070300700BD0F0D0E0D0E0D0E002057DA3A3D001
:10071300F0D0E022D083D082CCC0E0E493A3600683
:100723001207C61470FAE493A36006120922147028
:10073300FAD0E0FCE493A3C0E0E493C0E022C0E07D
:1007430074F21203E0A2AFE433FED2AFC2C0E5D12C
:10075300A2E4500312188EEEA2E092AF7F010204CE
:100763003FCAC0E0E493A3C582CCC582C583CDC58F
:1007730083F0A3C582CCC582C583CDC583DAE5D01A
:10078300E0CA22CAC0E0E0A3C582CCC582C583CD3E
:10079300C583F0A3C582CCC582C583CDC583DAE604
:1007A300D0E0CA227009080808226016181818C673
:1007B300C333C608C633C608C633C608C633C6D550
:1007C300E0EA22C0E0E493A3D39C5010E493A3C3D4
:1007D3009C400AD0E0D0E0D0E0020734A3A3A3D02A
:1007E300E022C008C3E096F50808A3E09642080893
:1007F300A3E096420808A3E09645087001D3D00809
:1008030022C09FF59FE473D09F22D083D082C09FE4
:10081300E493C0E0740193C0E0740293F59F22C592
:10082300822518C582C583351910AF07F51985824E
:10083300188007F519858218D2AFC5832274048006
:100843000A74038006740280027401C0E0F4041287
:10085300085BD0E0120AD1222518F58210AF08F503
:1008630018400215198008F51840021519D2AF85F2
:10087300198322BB0102E722C082C08389828A8353
:10088300BB0003E08002E493D083D08222C0D02552
:100893001810AF08F518500205198008F518500212
:1008A3000519D2AFD0D0226016080808C6C313C6F4
:1008B30018C613C618C613C618C613C6D5E0EA224F
:1008C300C0E0C0D0E8C0E0E5A8D2AFC2C7A2E792BB
:1008D300AFD0E0F8D0D0D0E032C0E074F21203E041
:1008E3007A6D7B811212D0758A00C2EB7F010204FC
:1008F3003FC3E0C696F608A3E0C696F608A3E0C693
:1009030096F608A3E0C696F622251810AF08F51848
:10091300400215198008F51840021519D2AF22C0FC
:10092300E0E493A36C7009D0E0D0E0D0E002073498
:10093300A3A3D0E022E76670100809E766700A08EF
:1009430009E76670040809E76622E066701008A3E9
:10095300E066700A08A3E066700408A3E06622C399
:10096300E09608A3E09608A3E09608A3E096A2D237
:1009730065D03322C3E096F008A3E096F008A3E025
:1009830096F008A3E096F022E026F008A3E036F004
:1009930008A3E036F008A3E036F022E627F60809BC
:1009A300E637F60809E637F60809E637F622E026C1
:1009B300F608A3E036F608A3E036F608A3E036F619
:1009C30022C0E0E8C0E0E58124FCF8E6A2E7D0E03D
:1009D300F8D0E022E647F60809E647F60809E647B5
:1009E300F60809E647F622E657F60809E657F60839
:1009F30009E657F60809E657F622E056F608A3E09B
:100A030056F608A3E056F608A3E056F622E056F0A1
:100A130008A3E056F008A3E056F008A3E056F0223E
:100A2300700422600D18C6C333C608C633C6D5E0AA
:100A3300F41822E4C396F608E496F608E496F6085A
:100A4300E496F622600D08C6A2E713C618C613C6BD
:100A5300D5E0F322C6F4C608C6F4C608C6F4C60831
:100A6300C6F4C622C3E7960809E7960809E796087D
:100A730009E79622C3E09608A3E09608A3E0960848
:100A8300A3E0962275D0007581407518017519038E
:100A930000020497600C08C6C313C618C613C6D554
:100AA300E0F422E6F008A3E6F008A3E6F008A3E6E4
:100AB300F022E0F608A3E0F608A3E0F608A3E0F6C8
:100AC30022C5822518C582C5833519C58322CAC0AC
:100AD300E0E6F0A308DAFAD0E0FA22E0FAA3E0FBBA
:100AE300A3E0FCA3E0FD22EAF0A3EBF0A3ECF0A368
:100AF300EDF022E5C754F84401F5C7790122251822
:100B0300F582E43519F58322C2AF75D69F02000042
:100B13002212080D95B10112080D38B20112080D09
:100B230083B30112080DA1B30112080D93580012EB
:100B3300080DA5580012080DF7580012080D585952
:100B43000012080DE2590012080D865A0012080D12
:100B5300DA5A0012080DF35A0012080D195B00123D
:100B6300080D545B0012080D985B0012080DBF5B63
:100B73000012080D105C0012080DC05C0012080D75
:100B8300785D0012080D405E0012080D1D5F001213
:100B9300080DA35F0012080DB25F0012080DBD5FC0
:100BA3000012080DC6600012080DD7600012080D70
:100BB3004D610012080DDF610012080D376200124B
:100BC300080DFD620012080D2E630012080D7363F9
:100BD3000012080D80630012080D14650012080D41
:100BE30077660012080D93670012080DFD69001265
:100BF300080D086A0012080D126A0012080D1D6A1A
:100C03000012080D276A0012080D316A0012080D40
:100C13003C6A0012080D476A0012080D786A001238
:100C2300080D9C6A0012080DC06A0012080D256B9E
:100C33000012080D696B0012080D856B0012080D78
:100C4300FC6B0012080D346C0012080D806C00124E
:100C5300080DDD6C0012080DBF6E0012080D456F04
:100C63000012080D16700012080D26730012080DED
:100C73007B730012080DA7730012080DF3740012A2
:100C8300080D43750012080D98750012080D99762A
:100C93000012080D31770012080DB3770012080D0A
:100CA30053780012080DDE200012080D17210012E0
:100CB300080DF1220012080D30230012080D7A23CB
:100CC3000012080D1F240012080D7E240012080DC7
:100CD300B2240012080D1F250012080D3C26001235
:100CE300080D44270012080DDA270012080D212BE6
:100CF3000012080DCA2B0012080DA62C0012080DB5
:100D0300072D0012080D242E0012080D4E3000127C
:100D1300080D05310012080D0F310012080D423184
:100D23000012080D09320012080DA4320012080D3A
:100D330009330012080D32330012080D5433001228
:100D4300080D83350012080D5A360012080D9E3621
:100D53000012080D0B370012080DC6370012080DDC
:100D6300F8370012080D3C380012080D6F380012D6
:100D7300080DC4380012080D19390012080DAD39D9
:100D83000012080D0F3A0012080D773A0012080DF1
:100D9300203C0012080D083D0012080D4A3E0012C7
:100DA300080D78400012080D38410012080D674302
:100DB3000012080D0A440012080D48440012080DE1
:100DC300F4450012080D08460012080D12460012E1
:100DD300080D3C460012080D48460012080D6746F0
:100DE3000012080D1E470012080D5D470012080D82
:100DF30067470012080D1B480012080D1A4900121C
:100E0300080D134A0012080DB04A0012080D524B88
:100E13000012080D694B0012080DA04B0012080DBB
:100E2300BE4B0012080D024C0012080D274C001295
:100E3300080D0D4D0012080D794D0012080DF34DEC
:100E43000012080D024F0012080D41500012080D48
:100E5300A3500012080D5D510012080D80510012BD
:100E6300080D54520012080D9F520012080DE15252
:100E73000012080D38530012080D6F530012080DAD
:100E83009D530012080DD6530012080DFB53001298
:100E9300080D83540012080DA6560012080D0557BD
:100EA3000012080D99570012080D05580012080D7D
:100EB30059580012080D3DAC0312080D7CAC031207
:100EC300080DE6B40112080D40B50112080D9CB5DA
:100ED3000112080DE8B50112080D03B60112080D41
:100EE30034B60112080D51B60112080D5DB6011298
:100EF300080DD1B70112080DEAB70112080D51B858
:100F03000112080D64B80112080D72B80112080D20
:100F130026B90112080D0ABA0112080D10BB0112FD
:100F2300080D96BB0112080DA0BB0112080D0DBCE4
:100F33000112080D24BC0112080D56BC0112080D44
:100F43008FBC0112080DB9BC0112080D1ABD0112A4
:100F5300080D3ABD0112080D58BD0112080D9EBDC2
:100F63000112080DC4BE0112080D11BF0112080DB4
:100F730040BF0112080DB6BF0112080DDEBF0112FA
:100F8300080D17C00112080D25C00112080D7DC000
:100F93000112080DCCC00112080D0BC10112080D7E
:100FA3003BC10112080D67C10112080D72C1011284
:100FB300080D90C10112080D52C20112080D5CC246
:100FC3000112080D97C20112080DADC20112080DDE
:100FD300B6C20112080D0BC30112080D1FC3011283
:100FE300080D2DC40112080D40C40112080D55C48B
:100FF3000112080DF7C40112080D7AC50112080D7C
:1010030038C60112080D43C60112080D69C7011243
:10101300080D85C70112080DD7C70112080D16C8A0
:101023000112080D2BC80112080D6DC80112080D1D
:10103300BACA0112080D38CB0112080DABCB01124D
:10104300080DCDCD0112080DE5CD0112080DE8CD37
:101053000112080DF4CD0112080D08CE0112080D7E
:1010630010CE0112080D43CE0112080DF3CE01126A
:10107300080D69CF0112080DDCCF0112080D90D0C5
:101083000112080D45D10112080D64D10112080D9A
:1010930004D20112080D10D20112080D3BD2011225
:1010A300080D3ED20112080DA8D20112080DD0D3AB
:1010B3000112080DA8D40112080D33D50112080D31
:1010C3004CD60112080D09D70112080D42D701129F
:1010D300080D73D70112080D13D80112080D43D858
:1010E3000112080D1ED90112080DB7D90112080DFE
:1010F30042DA0112080DF3DA0112080D75DB011251
:10110300080DA7DB0112080DE8DB0112080DB5C2BB
:101113000212080D1AC30212080D57C30212080D5A
:10112300A6C30212080DBCC50212080D9FC7021206
:10113300080D09CB0212080D44CB0212080D66CB31
:101143000212080DC9CB0212080DFDCB0212080DC5
:1011530020CC0212080D4DCC0212080DA9CC0212AC
:10116300080D9FAC0212080D1DAD0212080D53AD00
:101173000212080DBFAD0212080D32AF0212080DA4
:101183004EAF0212080D93AF0212080D21B00212E6
:10119300080D7AB00212080DA7B10212080DB9B2F8
:1011A3000212080D16B30212080D82B30212080DC3
:1011B300E3B30212080D24B40212080DD1B40212D3
:1011C300080DE3B50212080D0EB60212080D59B64A
:1011D3000212080DA0B60212080D32B70212080D52
:1011E300EDB70212080DBC9F0312080DCD9F031229
:1011F300080D1EA00312080D63A00312080D0DA114
:101203000312080DC9A60312080D159E0312080D3B
:101213006D9F0312080D64B80212080D09B902127A
:10122300080D29B90212080D49B90212080D5DB95A
:101233000212080DB5B90212080DE5B90212080D24
:1012430066BB0212080D0CBC0212080DEEBC0212A2
:10125300080D3FBD0212080D82BD0212080DC5BD67
:101263000212080D2BBE0212080D4CBE0212080D0D
:10127300D8BE0212080D09BF0212080D7DBF02126B
:10128300080D2BC10212080D05C20212080D47C238
:101293000212080DA1C20212080D8C9A0312080D46
:1012A300AD9A0312080DE39B0312080D0D9C031264
:1012B300080D67E00212080DDAE00212080DE5E0FE
:1012C3000212080D0EE10212080D23E20212080DAC
:1012D30024E40212080DE2E40212080D62A00212D5
:1012E300080D65A00212080D1FA10212080D4AA1E4
:1012F3000212080D91A10212080DB6A10212080DE7
:10130300D7A10212080D0BA20212080D44A2021269
:10131300080D6DA30212080DA4A30212080DC4A3A5
:101323000212080D5FA40212080D24A50212080D73
:101333005BA50212080DD0A60212080D73A70212B4
:10134300080D6CA80212080D95A80212080DE9A851
:101353000212080DAFA90212080DDDA90212080D31
:1013630072AB0212080DF3AB0212080D26AC021287
:10137300080D06790012080D52790012080D48A5D0
:101383000112080DE1790012080DF8790012080D19
:10139300A87A0012080DB17A0012080D047B00121E
:1013A300080D2D7B0012080D947B0012080D257C7F
:1013B3000012080D677C0012080DB17C0012080DA5
:1013C300107D0012080DA17D0012080DE07D0012B2
:1013D300080D1F7E0012080D547E0012080D42B046
:1013E3000112080D787E0012080D977E0012080D79
:1013F300A07E0012080D567F0012080D967F001282
:10140300080D56F30212080D29F40212080D43F4D5
:101413000212080D54F40212080D69F60212080DA7
:1014230088F60212080D4F960312080D85960312D3
:10143300080DCE960312080D1E980312080D1DDC2D
:101443000112080D5CDD0112080D98DD0112080D73
:1014530057DF0112080D80DF0112080D13E201129C
:10146300080D57E20112080DE0E30112080D78E4BC
:101473000112080DE0E40112080D81E50112080DC7
:10148300C3E50112080D03E60112080D8EE70112F0
:10149300080DFEE80112080D23EB0112080D51EBB4
:1014A3000112080D78EB0112080D81EB0112080DF2
:1014B300DCEB0112080D6FEC0112080D8DEF011228
:1014C300080D0EF00112080D37AD0312080DF2AB33
:1014D3000312080D80830312080D93830312080D72
:1014E30030840312080D6B840312080D86840312E3
:1014F300080DAB840312080DF0840312080D218537
:101503000312080D52850312080DD8860312080D25
:1015130087A80312080DBDA80312080DD9A803124A
:10152300080D1BA90312080D2BA90312080D66DB76
:101533000212080D4BDC0212080DDCDD0212080D4D
:10154300FDDD0212080DD4DE0212080DF0DE0212D8
:10155300080DB0DF0212080DA5AB0312080D6BF0E6
:101563000112080DC3F00112080D6DF10112080DEF
:1015730015F20112080D72F20112080DCBF20112DD
:10158300080DDFF20112080DA9F40112080D24F56C
:101593000112080D4EF50112080D0BF70112080D8B
:1015A30026F70112080D75F70112080D8BF70112CA
:1015B300080D98F70112080DCCF70112080DE2F798
:1015C3000112080D68F80112080D77F80112080DD1
:1015D300D0F80112080D2AF90112080D78F9011249
:1015E300080D82FA0112080D04FD0112080D9EFD7B
:1015F3000112080DE0FD0112080D75FE0112080D20
:1016030092FE0112080D95FE0112080D98FE0112BB
:10161300080D0BFF0112080D26FF0112080D52FFE2
:101623000112080D8DFF0112080D90FF0112080D24
:10163300A3FF0112080DCAFF0112080D6EAA0312BF
:10164300080D7AAA0312080DB4AA0312080DBE905E
:101653000212080DE9900212080DAB910212080D57
:1016630030920212080D99920212080DE5920212AD
:10167300080D64930212080DF6930212080D82946A
:101683000212080DC4940212080D0D990212080DDE
:101693008D9A0212080DCC9A0212080D959B021224
:1016A300080D499C0212080DF99D0212080D859E32
:1016B3000212080D00800212080DBA800212080DF2
:1016C3002C810212080D3B810212080DB581021212
:1016D300080D24820212080D2E830212080D57836F
:1016E3000212080DF7830212080D45840212080D39
:1016F300B5840212080DE9850212080DC58602128F
:10170300080D36870212080DB3880212080D758979
:101713000212080D108A0212080D6B8A0212080DBC
:10172300D68A0212080DDA8B0212080D9B8D021263
:10173300080D3A8E0212080DAC8E0212080D698F45
:101743000212080D058A0312080D598A0312080DA7
:10175300B18A0312080DFC8A0312080D5E8B031273
:10176300080DF78B0312080D5F8C0312080D6B8CA9
:101773000312080DF9930312080D2A940312080D9E
:10178300E4940312080D4A950312080DBB95031246
:10179300080D00990312080DBCA70312080DCDA76D
:1017A3000312080D6DA80312080D5D9C0312080DAA
:1017B3006B9C0312080D4DAD0312080DD5A903123E
:1017C300080DE5A90312080D03AA0312080D64AA64
:1017D3000312080DCBA40312080D50A50312080D24
:1017E300B4A50312080DCDA50312080DEFA503122E
:1017F300080D59A60312080D64A60312080DAFA61F
:101803000312080D6BFB0212080D81FB0212080D77
:10181300AAFB0212080DC5FB0212080DE0FB02121F
:10182300080DEAFB0212080DF4FB0212080D07FC77
:101833000212080D20FC0212080DC7FC0212080D4B
:1018430046FD0212080DE1F70212080DEFF702122E
:10185300080D69F80212080D4DF90212080D06FB76
:101863000212080DF7AC0312080D31D60212080D4F
:101873009ED60212080D5FD70212080DCFD70212AF
:10188300080DD8D80212080D50DA0212080DB4DA86
:101893000212080D09DB0212080D12DB0212080DF9
:1018A30021DB0212080D34DB0212080D4ADB02129F
:1018B300080D53DB0212080D31E50212080D86E50F
:1018C3000212080D82E70212080DB4E70212080D96
:1018D300D6E70212080DEFE70212080D08E802121C
:1018E300080D12E90212080DADE90212080D24A138
:1018F3000312080D48A10312080D61A10312080D7C
:1019030094A10312080DC5A10312080DF3A103123C
:10191300080D55A20312080D64A20312080D6EA24E
:101923000312080D7BA20312080DA68C0312080DE7
:10193300CC8C0312080D098D0312080D188D0312A8
:10194300080D378D0312080D9F8D0312080DA88D06
:101953000312080D078E0312080D2B8E0312080DB8
:10196300EA8E0312080DF78E0312080D088F031277
:10197300080DBF7F0012080DDC7F0012080D24EA5A
:101983000212080D82EB0212080D8FEB0212080DF2
:10199300A2EB0212080DC1EB0212080DD7EB0212E3
:1019A300080DEBEB0212080D60EC0212080DC5ECFA
:1019B3000212080D75ED0212080D4AEE0212080D0F
:1019C3005AEE0212080D69EE0212080D3CA9031229
:1019D300080D60A90312080D88A90312080DB0A908
:1019E3000312080D368F0312080D5D8F0312080DC5
:1019F3007E8F0312080DE38F0312080D9C910312CF
:101A0300080DB5910312080DC1910312080DD5916C
:101A13000312080DF3910312080DFD910312080D33
:101A230007920312080D1A920312080D6D92031206
:101A3300080DA6920312080DD5920312080D2393E5
:101A43000312080D72930312080D8D930312080DF0
:101A530097930312080DA8930312080DEE93031234
:101A6300080D54AB0312080DF5CC0212080D1FCD5F
:101A73000212080D3BCD0212080D4ECD0212080DC5
:101A830064CD0212080DC1CD0212080DF4CD02126D
:101A9300080D30D20212080D56D30212080D89D355
:101AA3000212080DD5D30212080D01D50212080D3A
:101AB30029D50212080D3ED50212080D4ED5021289
:101AC300080D92D50212080DF3D50212080D03D6A4
:101AD3000212080D85A20312080DA0A20312080D1D
:101AE300C9A20312080DE3A20312080D08A30312EF
:101AF300080D27A30312080D3FA30312080D6DA3BE
:101B03000312080D87A30312080D86AC0312080DF8
:101B130000800312080D07800312080D13810312BE
:101B2300080D43810312080D69810312080D8C818E
:101B33000312080DAE810312080DE8810312080D8C
:101B43004E820312080D87820312080DD3820312FB
:101B5300080D00830312080D20830312080DF0FE05
:101B63000212080D02FF0212080DEDFF0212080D0A
:101B7300F0FF0212080DB8A30312080D2AA40312E2
:101B8300080D68A40312080DA9A40312080DE58625
:101B93000312080D01870312080D50870312080D65
:101BA3006C870312080D9D870312080DAD8703127E
:101BB300080D99880312080DA3880312080DB08835
:101BC3000312080DC0890312080DD4890312080DEE
:101BD300DD890312080DA2EE0212080DE7F20212CC
:101BE300080DECF20212080DCAAC0312080D19AD70
:101BF3000312080DF1AA0312080D1CA40112080D0B
:101C030070A30112080DC1A10112080D7C9F0112DE
:101C1300080D039F0112080DAA9E0112080D3E9E96
:101C23000112080D159E0112080D089C0112080DE2
:101C3300D49B0112080DA19B0112080D859B011273
:101C4300080DAB9A0112080D639A0112080D9898BA
:101C53000112080D18980112080D15980112080DAC
:101C63001C970112080DEA960112080D279601121E
:101C7300080D52940112080DE3930112080DF3AD00
:101C83000112080DFCAC0112080DE0AC0112080DA5
:101C93008CAC0112080D44AC0112080DB59301126E
:101CA300080DB2930112080D9F930112080D37938B
:101CB3000112080D82AB0112080D26930112080DC3
:101CC30007920112080DD1910112080D949101128E
:101CD300080D35910112080DF5AA0112080DE8AAA5
:101CE3000112080D667E0012080D04910112080D01
:101CF300BF8D0112080DB08C0112080D3F8C01122B
:101D0300080D048C0112080DCF8B0112080DC38B33
:101D13000112080D238B0112080D6A8A0112080DA6
:101D23003D880112080DC9850112080D878501122E
:101D3300080D52840112080D07840112080D39831E
:101D43000112080D90820112080D2C820112080D58
:101D530066820112080DF6A70112080DC079000072
:101D6300000080FBE473000136360101000102012B
:101D7300000103010001040106060502000007013A
:101D830000340801000F090401010D0100FF0E08D2
:101D9300000017020000190100FF1A0100011B01D6
:101DA30000FE1C0100081D0200001F0100012001AC
:101DB3000001210200002301000F2402000026017C
:101DC300000127010008280200FF2A0100072B0158
:101DD30002402C0100002D0100012E0100012F0102
:101DE30000FF30010B1C310800003A0100083B01E1
:101DF300000F2F010000030071003001600011008B
:101E030070003102200350048000100061000000C4
:101E130014006300730072006200430000001300AB
:101E23000600000000000400120000000000000093
:101E3300000004000400370037003C0244000000A7
:101E43000000000000006500000035008100000074
:101E530005000000830000000302710230016002EC
:101E630011027002010202020202800210026102E8
:101E73003A004100630273027202620243020002EB
:101E830013023800000200020402120200020002E0
:101E93000002000204020402370037003C0244023D
:101EA30000023900000200026502000235028102CD
:101EB300000205028202830200020103710301038F
:101EC30001030103010301032203020301031003BE
:101ED30000030003000300030003000300034203A5
:101EE3000003240306030003000304031203250372
:101EF3002303250323030403040300030003000354
:101F03004403000300032303000365032100350397
:101F130081030003050300030003000301017101B2
:101F230001010101110101013101010101018001DF
:101F3300100161013B00140063017301720162012E
:101F430043010001130106013D01350004011201A3
:101F53000001000100010001040104013301330108
:101F63003C0144013201360000010001650100011A
:101F73003500810100010501820183010001360062
:101F83000100060000000F00000000000000000038
:101F93000000000003FFFF00000403FFFF0000FF39
:101FA300FF0FF4010005C4040320000100030B002C
:101FB3000000000000000003010F0100F016020002
:101FC300661603006C1604007216050078160600E8
:101FD300841611009C161400A21615009616FFFF16
:101FE300000003EAF5E5D5D5C5B5A59595858575B5
:101FF30075656555554545353525251515055E0F1B
:102003008E0F640F6A0F880F7C0F760F940F9A0F51
:10201300A00FAC0F700F580F520F0A2A0D02F40CC9
:1020230005060D07FA0C0CD60C0DE80CFF0000009A
:10203300160F00000B150B020002220F32000006E0
:1020430048105A106010280F6610220F2E0FA81088
:10205300C610CC10AE10BA10B4100C0E020B040B49
:102063000A0708000F303016181920231A1C1E30D7
:1020730000011916181616152303000003494842D8
:102083004D181725050200383C3E363B3B352B43A4
:102093002C303017181921301B1D1F309C106C1069
:1020A30072107E107810820FA60FC010B20FB80FF7
:1020B3000204020101010109020000000000000006
:1020C300BE040A0E00E803040015002800040C05F2
:1020D300030908FF1E1E0A040F100C74F712037481
:1020E300E99003B0F0900365E4F0121B5E9003B532
:1020F300E4F0A3F09003B1F0A3F0120E62121B649C
:10210300900334E4F0A3F09020DB93FA7902121BDE
:10211300C4024D7474F2120374EAFEEBFF54806040
:10212300699003B0E0F91213A88A088B09EA4509FC
:10213300604F7C0080010CEC75F003A4F8A9F074E7
:102143001D28F582742039F583E493F4602CE4931D
:10215300F88508828B83E06870DCAA08EC75F003CD
:10216300A4F8741E28F582742039F583E493C0E043
:10217300740193F583D082121D67AA08AB09121369
:102183009CEEFAEF6480FB0222E4EF5420601D1200
:102193000D848A088B09EA4509600A120CE8AA082B
:1021A300AB0912139CEEFAEF642080DAEEA2E05042
:1021B3001A90036AE0640F700B7900120CB2E960A5
:1021C300031222E7EE6401FAEF80BB54207003028E
:1021D30022B2750C001237B98B09EA450970107CDD
:1021E300027D007A207B009003B0E0F91214F27CA8
:1021F3000079047A007B00120D608A088B0980182D
:10220300850882850983A3A3A3A3A3A3A3A3A3747C
:1022130001F0850A08850B09E5084509606D7C0016
:102223007904AA08AB09120D608A0A8B0B750C019D
:10223300E5082404F8E50912355D24FFF0A3E03432
:10224300FF12585070CC850882850983A3A3A3A3EA
:10225300A3A3A3A3A3A3E0640170A58508828509B2
:1022630083A3A3A3A3A3A3E0540470948508828546
:102273000983A3A3A3A3A3A3A3A3A37406F07AB779
:102283008508828509831224138087120D307C0010
:1022930079017A007B00120D608B09EA4509700908
:1022A300E50C70057A20124713EE64200221CAEF71
:1022B3005402600B120E5CEEFAEF6402022189EF06
:1022C300540460191248AA1247CA79019003631291
:1022D3004B2E120BF8EEFAEF64040221897A007B8D
:1022E3000002251A900CF8122BB1120CCA22C082DC
:1022F300C08374EA12090C851882851983AA82ABFC
:1023030083794B121B9A7408120B017402F074093F
:10231300120B01AA82AB837950121B9A7413120B0E
:1023230001E4124CFD121BB87416023CD774F71269
:10233300037474E112090CEAFEEBFFEE4F60338580
:102343001882851983AC82AD83120DA87406120B13
:1023530001E0601E7417120B01E0FD7401120B0102
:10236300E0FCEEFAEFFB7900120B20E9600479A49C
:1023730080027900024D6F74F6120374EAFEEBFFDC
:102383008E828F83A3A3A3A3A3A3E05440601B1255
:1023930051EC1224E160067AFF7BFF801A8E828F54
:1023A30083123963FAA3E0FB8003120DCC74FE6A37
:1023B300700374FF6B60411251EC124757120E20E9
:1023C300E98E828F83600612240CE4800512240CAC
:1023D3007401F07CB87D0C8E828F83124B2E121BFE
:1023E300BEE9F5087015EE4F60097901EEFAEFFBCF
:1023F300120D3CA9080247887508CDAA088E828F62
:1024030083122413E960DF80EAE0240D123E3222B6
:10241300E0240C123E32E0F9120CC42274F61203CB
:1024230074E9FEEAFF7A0F7B00121396EA4B6019F8
:102433008A828B83740CF0EEA3A3F0EF8A828B83E2
:10244300A3F01247B37900802FEEF9120D668A08C4
:102453008B09A808A909E849601C88828983A3A37A
:10246300A3A3A3A3A3A3A37406125477E0F9120CA6
:102473007CEEF9120D427910024788C082C0839026
:10248300036AE0640F7014EA4B6010900365E06424
:10249300086005E0640470031224A1023D01EAFC14
:1024A300EBFD7A017B009003B0E0F91214EC22C03B
:1024B30082C0837900EA241DF582EB12396024FD82
:1024C300600B14600824FD600424FD700109023DC3
:1024D300018E828F83A3A3A3A3A3A3A3A3A31224E5
:1024E300E5221239A8FB120E20E9228E828F83A3E4
:1024F300A3A3A3A3A3A3A3A31224E56402228E820E
:102503008F83A3A3A3A3A3A3A3A3A3123CF8900322
:1025130056E068221208907F060205D374F4120372
:102523007474FD12090C8A088B098A828B83A3A316
:10253300E0F9120D668A0A8B0BAE0AAF0BEE4F70F1
:1025430003022626850882850983A3E064F16030AF
:10255300850882850983A3E064CD6024850882858C
:102563000983A3E0641A6018850882850983A3E0C0
:1025730064E9600C850882850983A3E064E170083F
:102583007900120D3CE9706C850882850983A3E00C
:10259300C0E07402120B01D0E0123CDCEEF0A3EFBA
:1025A300123007851882851983AA82AB83700512BE
:1025B3000BE08003120E087402120B01E064E97051
:1025C300338E828F83122632750A01780A12084CE1
:1025D300750AE9780A12084CE508240CF582E50926
:1025E300122AF9122FE4FCA3E0FD8A828B83122FB7
:1025F300FE1208908E828F83A3A3A3A3A3A3A3A3F6
:10260300A3E0640270108E828F83A3A3A3A3A3A36A
:10261300A3A3A37406F0850882850983A3A3E0F925
:10262300120D42120D30900CFC1222EA022BB6E07E
:10263300F8A3E0F9E8FAE9FB2274F4120374EAFE62
:10264300EBFF7508008E828F83A3A3A3A3A3E0608F
:10265300427508088E828F83A3A3A3A3A3A3A3A376
:10266300123C0B8B0BEA450B601075082C8E828F86
:1026730083A3A3A3A3A3E0D2E0F08E828F83A3A3BB
:10268300A3A3A3E0540364016003022725430811B5
:10269300022725EE2418122BC36033EE241A122BC3
:1026A300C3700F1225017003A3E0697075750822CA
:1026B3008070EE241BF582EF12272A241AF582EF8D
:1026C30012300FEE2419125220120C6A8054122475
:1026D300EE70037508011225017003A3E06970060B
:1026E300E508D2E1F508E50860158E828F83A3A380
:1026F300E07006E508D2E58004E508D2E6F50812A5
:1027030024D464017006E508D2E0F5088E828F8335
:10271300A3A3E0600D12273864016006E508C2E058
:10272300F508A908022BBB12394E12273122E0FC0F
:10273300A3E0FDEE22123948123980F9120E0EE998
:1027430022C082C08379018A828B83A3A3E0C394CE
:10275300024001198A828B83A3A3A3A3E0C394023B
:10276300400279008A828B83A3A3A3A3A3A3A3A379
:10277300A3E064F87003A3E0F460458A828B83A32B
:10278300A3A3A3A3A3A3A3A3E064F97003A3E0F407
:10279300602E8A828B83A3A3A3A3A3A3A3A3A3E0F3
:1027A30064FA7003A3E0F460178A828B83A3A3A364
:1027B300A3A3A3A3A3A3E064FB7003A3E0F47002A9
:1027C30079008A828B83A3A3A3E0F8900353E06884
:1027D30060027900023D0174F012037474DE120981
:1027E3000CEAFEEBFF8E828F83A3A3A3A3E0600E0C
:1027F300900CFA12477F6006900CFA1222EA7403D7
:10280300120B01AC82AD838E828F83A3A3A31248E4
:102813000112503AE9600F7403120B01AA82AB83D1
:10282300120CE2E970087901121B70022AEEEE2401
:102833001B1239537410120B011247CA7409120B7D
:1028430001E06021741A120B01E0FD7404120B0104
:10285300E0FC8E828F83124B2C7901120B20E960EE
:1028630004790280C37403120B01AA82AB83120C96
:10287300DCE9F50A7409120B01E0702A90034DE0BC
:1028830060247422550A6422601C7442550A64420F
:1028930070CF7420120B01122B0C600A7420120BE0
:1028A30001122B0570BBE9A2E650417403120B0120
:1028B300AA82AB83120CD0E9700302282974201278
:1028C3000B011239636403700F7420120B01A312FE
:1028D3004771A3E0640D60147403120B01AA82AB69
:1028E30083120E32E964017003022AEEEE242C12E5
:1028F3002AF6122E1A7003A3E069701C750800787B
:102903000812084C780812084CEE242E125220129A
:102913002B12122FFE1208907409120B01E07003A0
:102923000229CB122B12124B2E120E868A088B0908
:10293300EA45097003022A687404120B01E0F88E59
:10294300828F83A3A3E028F8A3E03400F9E8240DE1
:10295300122AFD8A828B83A3A3A3E068601CE88A02
:10296300828B83A3A3A3F0908208120ADE850882D8
:10297300850983A3A3A3A3120AEA7904E9120B012D
:102983001250172AF8A3E034008882F583A3AA82A1
:10299300AB8312138A8A0C8B0D8C0E8D0F850882E4
:1029A300850983A3A3A3A3780C1207E54003022A96
:1029B300EE908210780C1209B1850882850983A3F1
:1029C300A3A3A3780C120AA6900365E0640460082D
:1029D300E064096003022AEEE50AA2E54003022A45
:1029E300A6EE242E122BC3851882851983F0EE24BC
:1029F3002F122BC3C0E07401120B01D0E0F0EE24C0
:102A030030122BC3C0E07402120B01D0E0F0741437
:102A1300120B01E064017027740E120B0112395975
:102A2300EE2412122BC3687003A3E0697011740CB7
:102A3300120B011224FB70077414120B01E4F0EE65
:102A43002424122AF612068E7404120B01AC82ADF2
:102A5300837407120B01AA82AB83120BE674041270
:102A63000890022AEE9003AAE0640160030229CBD6
:102A73007420120B01122B0C7009E50AA2E6500315
:102A83000229CB7410120B01E0F47003A3E0F4608D
:102A93005AEEFCEFFD7403120B01AA82AB83120CF6
:102AA300EE8048A2E650447420120B01124B3D7095
:102AB3001A741A120B01E0640270307403120B01D2
:102AC300AA82AB837900120DFC80207420120B01C3
:102AD300122B057016741A120B01E06404700C7447
:102AE30003120B01AA82AB83120DF67422024EE984
:102AF300EE240BF582EF12394E22F582E91247E3F9
:102B0300F8221251FEE0640722123980640622EE95
:102B1300242A12394B122731241212394B2274F40E
:102B2300120374EAFEEBFF8C088D099005DBE0606D
:102B33000F1225017003A3E0697005120C58804F32
:102B43007900124B21120C888A828B83E58245839C
:102B53006035A3A3A3A3A3A3E05418602AE5082424
:102B63001BF582E509122AF91206921231F7122A8D
:102B7300F9120692EE2418125220122B94120C9A78
:102B8300740412089080087900122B94120C5E8052
:102B9300278E828F83A3A3A3A3A3A3A3A3A31227F5
:102BA30031240BF582EF122BAD223400F583123959
:102BB300A8FB2274031208907F040205D3EE2417A6
:102BC300F582EF1247E32274F712037474F71209C4
:102BD3000CEAFEEBFF900365E06403600DE0640123
:102BE3006008E064096003022C948E828F83A3E063
:102BF300707E7C007D007A027B00121B6AEE240249
:102C0300FAEF1235641239599003561247CA7953B1
:102C1300121BA07900122C99E06409600312302C76
:102C230085188285198374011247A0900365740483
:102C3300F07401120B01AA82AB83794A121B9A74B6
:102C430001120B01AC82AD837A5B7B03121B88906C
:102C530003561250307A03123036900350E0A2E349
:102C63005004D2F08002C2F012478D1222E7801E78
:102C73008E828F83A3AE82AF83FC7D007A037B10A9
:102C8300121B6A8E828F83E0F9122C99E4F0120DE5
:102C9300187409024D71900363122BB1120BF89053
:102CA300036522C082C08390033412477F701F9054
:102CB3000365E014600924FC600A14600C800F9023
:102CC300033C8032900338802D90033A8028E849F2
:102CD3006008900335122FDE700C8A828B83A3E089
:102CE300F9120BEC801B9003351232937005120E10
:102CF30050800E9003D212477F6006124771121D57
:102D030067023D0174F412037474FB12090C8A0800
:102D13008B097A0F7B001213968A0A8B0BAE0AAFCC
:102D23000BEE4F7003022E0E8E828F83124CFB79B3
:102D330050121B9A850882850983A3E06003022D44
:102D4300F6900363E0F47003A3E0F460349003634C
:102D5300E064FE7003A3E0F460278518828519837D
:102D6300122E1A7003A3E069601785088285098310
:102D7300A374EA1230147A637B037950121BA08088
:102D8300728518828519831251DF1247CA7A567BDE
:102D9300037953121B9A9003561247FB1247CA7AC0
:102DA300597B03794B121B9A7A587B0379E1121BE7
:102DB3009A90036AE0C3940F5021900358E0C0E057
:102DC3007402120B01D0E0F07404120B017401F0D1
:102DD30004120B01AA82AB83121BB2750A00780A94
:102DE30012084C780A12084C900D1EE0F9122FF5C8
:102DF300120890850882850983122E13A3F090038D
:102E0300657403F0EEFAEFFB1247B37405022BB8B7
:102E1300A3E08E828F83221251E3E06822123E39AF
:102E23002274F512037474D812090C8A088B098A68
:102E3300828B83A3A3A31239857415120B01AC8271
:102E4300AD838A828B83A3A3A3A3A3A3A3A3122FDC
:102E5300E4FAA3E0FB120D1E7415120B01E0706B74
:102E6300850882850983A3A3A3A3A3A3A3A3E0C384
:102E7300940B40578E828F83A3A3A3A3A3A3A3A3DF
:102E8300E064027046EE240B122BC3F4703D9003F2
:102E930065E06402603AE0640660359003341247EB
:102EA3007F6005122FDE604F900365E064086005C4
:102EB300E0640470167417120B01E0F9741C120B12
:102EC30001AC82AD83124B21120D2474280256FDEE
:102ED30090033412477F701F750800780812084C5E
:102EE300780812084CEE2410122AF61252381236C1
:102EF3004C122FFE1208908E828F83124A9D123538
:102F0300761239597402120B011247CAEE240D12BC
:102F13002BC3C0E07404120B01D0E0123007F50894
:102F2300A3E0F509740F7808120A977405120B01D0
:102F3300E508F07419120B01E0C0E07406120B01EE
:102F4300D0E0F0741B120B01E0C0E07407120B0118
:102F5300D0E0F07416120B01E0C0E07409120B010B
:102F6300D0E0F07417120B01E0C0E07408120B01FB
:102F7300D0E0F0EE2410122BC3C0E0740A120B0150
:102F8300D0E0F0741A120B01E0C0E0740B120B01D5
:102F9300D0E0F07427120B01E0C0E0740C120B01B7
:102FA300D0E0F0741C120B01A982AA8389088A0954
:102FB300750A0078081208447C087D007410120B0F
:102FC30001AA82AB8312432E1208908518828519B9
:102FD30083AA82AB83120BF2022ECE1232996401C2
:102FE30022E0F98A828B83A3A3A3A3A3A3A3A3A30E
:102FF300E022900363125034900359122BB1120D47
:10300300DE740222F0EE240B1247E0221247E3FAA9
:1030130022F07A567B03795312301F22121BA07AB7
:10302300597B03794B121BA022900363122BB1121D
:103033000E80227B00121B6A9003591250347A04CB
:103043007B00121B6A22F01252432274F2120374A1
:1030530074F812090CEAFEEBFF8C0A8D0B890C85C0
:103063001882851983AC82AD837583817582C4749C
:1030730008120786F50DEEFCEFFD8518828519838E
:10308300AA82AB831249FE7003750D019003B180D0
:103093003BEEFCEFFDE508240BFAE5093400124989
:1030A300FD601E850882850983A3A3E0650C70116A
:1030B300850882850983E0650A7004A3E0650B60D7
:1030C30038E5082414F582E509122AF912356EE56C
:1030D3000845096024E50DA2E040B685088285090C
:1030E30083E0650A7004A3E0650B70D585088285CB
:1030F3000983A3A3E0650C70C8AA08AB097408028E
:103103002517C082C0839003B1023CFE74F71203FB
:10311300749003B11239A88012EA2414F582EB12D9
:103123002AF9123985121438EEFAEFFBEA4B70E9EB
:103133009003B1E4F0A3F0024D747F070205D3744A
:10314300F1120374EAFEEBFF890A8C088D098E8263
:103153008F83E08C828D83123C15AE82AF83E012A5
:1031630043EE12435FC41243EE123200E054038C69
:10317300828D8312435DA2E2E4338C828D831243FA
:103183005C131313541F1243EE12435BA2E7E433A1
:103193008C828D83A3A3A3A31232008E0C8F0D7593
:1031A3000E00780C1208447C087D00E50824071201
:1031B3004FA312089012500E8E0C8F0D780C12082C
:1031C300447C037D00E508240F124FA3120890E509
:1031D3000AC3940F40148E828F83A3A3A3E0C0E09D
:1031E3001231F7122AF9D0E080061231F712546B2C
:1031F300F002313DE5082412F582E50922A3A3126A
:103203003C190EAF832274F412037474F912090C7F
:10321300EAFEEBFF890890033412477F600E1232F7
:10322300937009EEFAEFFB120E4A805F900363E09E
:103233006E7003A3E06F70537401650860097A77B9
:103243007B031249FE70447A007B021237BD8B0B5D
:10325300EA450B7036900366120ADE8518828519DB
:1032630083120AEA90036CE0C0E07404120B01D0ED
:10327300E0F07405120B017401F07406120B0112D5
:103283004CFB120BBCE9609B120BC27407022BB8F8
:103293001232996402221251FFA3A3A3A3A3A3E0B2
:1032A3002274F51203748A088B098A828B83A3AE76
:1032B30082AF83E0F9120C108E828F83E064EB609F
:1032C3000C850882850983A3E064E170098508827F
:1032D300850983A3E4F01222E7750A01780A12082C
:1032E3004C850882850983A3E0F508780812084C09
:1032F3007900122FF5120890120D30025700EAF0F0
:10330300A3EBF0023D0174F61203749003B4E07072
:103313001B7C0079017A007B00120D60EA4B600C84
:103323008A828B8312477F6003120CBE024788C0D8
:1033330082C0831237A5401079FF120D5AE9F89025
:1033430020DDE493C3985004790180027900023DA3
:103353000174F01203748A088B09890B750C008AB7
:10336300828B83A3A3A3A3A3A3A3A3E0F9120D6654
:103373008A0E8B0FAE0EAF0F750A01EE4F6003027C
:103383003432850882850983A3A3A3A3A3A3125080
:1033930030850882850983A3A3A3A3A3A3A3124112
:1033A3002E124B2E120D4E8A0C8B0DAE0CAF0DEE62
:1033B3004F70030235558E828F83A3A3A3A3E4F03A
:1033C300A3F0E508240B123561E0C0E0122AF3D024
:1033D300E0F0120E26EE240CF582EF124753E508B7
:1033E300240EF582E509123956EE240EF582EF120A
:1033F30047C7750C01EE2406F8EF12355D547FF0D4
:10340300A3E054FC125295E0540460030234B890D4
:103413000D0012411F74077808120A238E828F83CE
:10342300A3A3A3A3A3A3E04508F0A3E04509F08E5B
:10343300828F83A3A3A3A312356C74077808120A9F
:1034430097E5085407F508E50B607A8E828F83A30E
:10345300A3A3A3A3A3A3A3A37402124360240D12E3
:103463003E2EE0A2E2500B9003511247FBA3A3129E
:1034730047CAE508700302352AEE2406F8EF340044
:10348300F9E8FAE9FB8A828B83E0547FFCA3E054DA
:10349300FCFDE50824FFF508E434FFF5097407781B
:1034A30008120A23EC4508F8ED4509F98A828B8353
:1034B3001247CA80728E828F83A3A3A3A3A3A3E020
:1034C3004480023431E5087005750A0080598E8204
:1034D3008F83A3A3A3A3A3A3E0542060121213908A
:1034E300EA547F245F8E828F83A3A3A3A380238EBA
:1034F300828F83A3A3A3A3A3A3E05410600A121390
:1035030090EA540F240A80DD8E828F83A3A3A3A3A2
:103513007401F0A3E412357674041237B48B09EA0C
:1035230045097003124746E50CA2E050288E828FAE
:1035330083A3A3A3A3124D61F9EEFAEFFB120D547B
:10354300E96012124775600312393EEEFAEFFB127F
:103553001438750A00A90A024EEC1248BE22FAE595
:10356300093400FB8A828B8322A3A3E0F508A3E03E
:10357300F5092212357A22124FBFA3A3A3A3A322D4
:1035830074F412037474F712090C7E00120D66EAC8
:103593004B70030236458A828B83A3A3A3A3A3A301
:1035A300A3A3A3E0640660030236458A828B83A348
:1035B300A3A3A3A3A3A3E0FF8A828B83123E41E0CC
:1035C300C0E07408120B01D0E0123979124A0412D8
:1035D30047CA120D78EF54086066851882851983EF
:1035E3001250307A007B00120D488B0BEA450B70AA
:1035F3004F900363123A69121BCA7C007D007A0064
:103603007B0080288E828F83123963F47003A3E0DA
:10361300F4602D90036312364C124B2E1218BEE940
:10362300641A601C7C007D00EEFAEFFB120D488AE1
:103633000A8B0BAE0AAF0BEE4F70C97900121BD089
:103643007E01EEF97409022BB812365022E0FCA376
:10365300E0FD8E828F8322C082C083EA4B70059087
:1036630003B580068A828B83A3A312386960258AF7
:10367300828B83A3A3A3A3A3A3A3E0540860E5ECD5
:103683004D60158A828B831239636C7003A3E06DDE
:1036930070D280047A007B00023D0174F21203743D
:1036A300EAFEEBFF890A8C088D097A107B0012145D
:1036B30032EA4B603F8A828B83A3A3A3A3A3A3A372
:1036C300A3A3E4123967A3E50A125205A312370133
:1036D3008A828B83A3A3A3A3E4F0A3123973A3F079
:1036E300125099EA240CF582EB123C051236FAA328
:1036F300A3F0A3F002251AA3F08A828B8322A3A34B
:10370300E508F0A3E509F02274F4120374EAFEEB72
:10371300FF89088C0A8D0BEE4F60557401650870A4
:10372300147901120D5AE9F89020D5E493C3985007
:103733000F7911806A74046508702F1237A540F160
:103743008E828F83A3A3A3A3A3A3A3A3A3E508129A
:103753003C15A312578A8E828F83A3A3E4F0A3F0B0
:103763009003B512477F6021800D7402650860D015
:1037730079C1802BE0F8A31247F4A3A31238698818
:10378300828983A3A370ED80039003B5EEF0A3EFCA
:103793001237B48B0BEA450B7003124746790002CC
:1037A3002BBB7904120D5AE9F89020D2E493C39805
:1037B30022F01237B9227A207B009003B0E0F9128D
:1037C30014FE22C082C083E9F879009003B5801DFE
:1037D3008A828B83A3A3A3A3A3A3A3A3A3E0686069
:1037E3000574FF687001098A828B83A3A312386969
:1037F30070DE023D0174F7120374EA4B7005900307
:10380300B580068A828B83A3A312386960248A82D7
:103813008B83A3A3A3A3A3A3A3A3A3E06970E4EC53
:1038230060148A828B83E0240D125021A2E240D3DC
:1038330080047A007B00024D74C082C0839003B57C
:1038430080068A828B83A3A312386960128A828BD3
:1038530083A3A3A3A3A3A3A3A3E06970E580047A2E
:10386300007B00023D01122BB1EA4B2274F21203DA
:10387300748A0A8B0B8C0C8D0D750800750900EA90
:10388300450B602E9003B580068E828F83A3A3120F
:1038930038BC601EAC0CAD0DEEFAEFFB850A8285D9
:1038A3000B83121D67E9640170DFEEF8EFF98808F6
:1038B3008909AA08AB0902251AE0FEA3E0FFEE4F2F
:1038C3002274F71203749003B51239597C007D00FA
:1038D300800DE8FCE9FD88828983A3A3123959E8A6
:1038E300496030EA687002EB6970E79003B5124BE8
:1038F3002EE86A7002E96B88828983A3A370081299
:1039030039599003B580091239598C828D83A3A349
:103913001247CA024D7474F7120374EAFEEBFFEE0A
:103923004F6015120D7212398B12477560031239ED
:103933003EEEFAEFFB121438024D74EE240C1239EA
:103943004B1239A022EE241DF582EF3400F58322B9
:10395300F582EF12394E123CF822F582EF12394EFE
:103963001239802212396B2212520DA3A3A3A32270
:1039730012396BA3A3221236FB123980221251F89B
:10398300E022E0FEA3E0FF228E828F83E0241C125C
:103993003E321239A08E828F831239A0221239A8A7
:1039A300FB12143822E0FAA3E022C082C083EAFCAF
:1039B300EBFDEC4D700479058044EC24FBF582EDBE
:1039C30034FF12477D7007123A04E0F460051213C6
:1039D3009C80E39003B0E0C0E0123A04D0E0F090A2
:1039E30020D9E493F97AB77B031213C6E964017013
:1039F3000B7A007B2012474A790080027904023D4A
:103A030001EC24FFF582ED34FFF5832274F41203F5
:103A130074A2AFE433F508C2AF9003B71238BC60A9
:103A230038EE24FBF582EF34FF12477D7A007B20CA
:103A33009003B0600512474D8005E0F91213D2E4FC
:103A4300F50AF50B780A120848EEFCEFFD7AB77B0E
:103A5300031213C07402120890E508A2E092AFEEBD
:103A6300FAEFFB022BBB125034851882851983AA07
:103A730082AB832274F212037474FC12090CEAFE03
:103A8300EBFF750AFE750BFF120D36E96005791120
:103A9300023BFAEE2415122BC36037900D14E0C4D9
:103AA3003354E0F8E0333354FC48C0E0EE241512FD
:103AB3002AF6D0E0123C15123C0B8B09EA4509604B
:103AC30011750AFFEE240F122BC344041247D8D2F8
:103AD300E0F08E828F831224DF6006EE2412123C04
:103AE30002EE2413122BC370109020D8E493C0E08D
:103AF300EE2413122AF6D0E0F08E828F83E0A2E741
:103B030050045403801CEE2414122BC3701590032D
:103B130042E0C0E0EE2414122AF6D0E0F090034213
:103B2300E004F0EE2411122BC3640170169005D249
:103B3300E0600D90034DE0700A8E828F83E0700386
:103B4300123BFF8E828F83E064017013EE240B120D
:103B5300395D64027009EE240F122BC34440F085D3
:103B63001882851983AC82AD83EEFAEFFB120D9CAC
:103B73008A088B0974FE650A700374FFF470098E5A
:103B8300828F83A3A3124FAFEA450960668E828FAB
:103B930083E0C0E07401120B01D0E0F07402120B59
:103BA3000112509D7401120B0185820C85830D78DF
:103BB3000C120848EE240F122AF6120692EE240E77
:103BC300122BC3F50C780C12084C90035612069274
:103BD3007407120B01E0F9AC0AAD0B120D967407D2
:103BE300120890E9FE74106E700BAA08AB09121448
:103BF3003880027E10EEF97404022517EE2411F5C5
:103C030082EF12394EE4F022A3122BB179FF121C7A
:103C13009622123C1922F08E828F83A322C082C087
:103C23008374DE12090C8A828B83A3A3A3A31239A4
:103C330059740E120B01E8F0A3E9123CEF740C1255
:103C43000B01123CE8240DF582EB122BC6C0E07485
:103C53001A120B01D0E0F0124EFCEB12395674200D
:103C6300120B01123CE82415F582EB122BC6C0E0BF
:103C73007408120B01D0E0F0EA241CF582EB123930
:103C8300567412120B01123CE82411F582EB122B2D
:103C9300C6C0E07409120B01D0E0123CDC74FFF0E3
:103CA3007401120B0174FFF07402120B0174FFF024
:103CB30090820812068E7404120B01AC82AD8374D9
:103CC30007120B01AA82AB83120BE674041208904D
:103CD300790074221208908025123CE022F08518A6
:103CE3008285198322E8F0A3E9F0EA221236FBA3C6
:103CF300123CF722A3E0F8A3E0F922124B2ED08363
:103D0300D08202080A74EC12037474EE12090C8A4E
:103D1300128B13ECFEEDFF89097426120B01124F6F
:103D2300AF7428120B01E0F5107429120B01123E37
:103D330023742B120B01E0F50EA3E0F50F750810A9
:103D43007A1E7B001214327402120B01124757744D
:103D530002120B0112477F7003023E1C85188285F5
:103D63001983AA82AB837950124632124B2E740206
:103D7300120B01123E41A31247577410120B01128A
:103D8300578C7402120B01E0240B123E2E7402F0C6
:103D9300120B01123E417402F0120B011251F01288
:103DA300509D7402120B01124B43E509F074021289
:103DB3000B01E0240C123E2EE510F07402120B01ED
:103DC300123E2BE512F0A3E513F07408120B01E584
:103DD3000CF0A3E50DF0740A120B01E510F0850E4B
:103DE30082850F83C082C083740D120B01AC82AD38
:103DF30083D083D0827403120786F97402120B01F5
:103E0300AA82AB83120D3CE964017005750800803A
:103E1300087402120B01123944A9087412024FC626
:103E2300E0F50CA3E0F50D22E0241C123E3222F84B
:103E3300A3E0123E39223400F98882898322124B8F
:103E430036A3A3A3A3A32274EE120374EAFEEBFF2B
:103E53008C088D098E828F83A37408124813E06047
:103E6300088E828F83A37410F0122BC060098E8298
:103E73008F83A3E02408F0EE2415122BC360088E71
:103E8300828F83A3E004F08E828F83A3A3A3A3A3D3
:103E9300A3E060198E828F83A3A3A3A3A3A3A3E0AC
:103EA300C3332402F88E828F83A3E028F0EE24111B
:103EB300122BC36005750B0E8003750B008E828F6A
:103EC30083A3C082C083EE240D122BC3D083D08280
:103ED300F8E028250B8C828D83F0EE2411122BC37E
:103EE300600512433E28F0850882850983E0C39468
:103EF30075400975080075090002402CE0FA7B0043
:103F030012514B700302402CEEFAEFFB120DA2EAA2
:103F1300850882850983124758EE2402F8EF122E92
:103F230020124126124068F0EE24040808EF122EF6
:103F330020124568A3124068A3A3F0EE2413124095
:103F43004EF0EE241412404EA3F0750A08EE241628
:103F5300122BC36010EE241812502DE5082408120A
:103F6300522E750A10122BC06016EE241A12502D11
:103F7300850A0CE508250C12522E7408250AF50A49
:103F83008E828F83A3A3A3A3A3A3E06059EE240788
:103F9300F510EF3400F511851082F583E0C0E012CF
:103FA3004035122AF9D0E0124058E0C0E012403503
:103FB300122AF9D0E0124058A31240411208448556
:103FC3001082851183E0C333FCE433FD850A0CE5DD
:103FD30008250C124FA3120890851082851183E0E7
:103FE300C333250AF50AEE2415122BC3600BC0E078
:103FF300124035122AF9D0E0F0122AF3124041128E
:104003000844EE240D122BC3FC7D00850B0A8E821F
:104013008F83A3E0F8E50828F8E5093400F9E825DB
:104023000AFAE9124FA6120890AA08AB097F0A02FE
:1040330005D3850A0CE508250CF582E50922E0F590
:104043000CA3E0F50D750E00780C2212394B1240CB
:1040530072A3A3A322F0050A8E828F83A3A3A3A333
:10406300A3A3A3A322A3A3125299A31240722212C1
:10407300456CA3A32274F61203748A828B83E0FC3B
:1040830090035312411F74027808120A23EC450867
:10409300FCAD09EA241212411974067808120A23A6
:1040A300EC4508FCED4509FDEA2415F582EB122BDE
:1040B300C66004780180027800E4C8F9ED49FDEA9E
:1040C3002411F582EB122BC6F508880974097808C8
:1040D300120A23ED4509FDEA2416124119740B78DF
:1040E30008120A23ED4509FDEA2417124119740C3D
:1040F3007808120A23ED4509FD8A828B83A3A3A3C3
:10410300A3A3A312411F740A7808120A23ECFAED41
:104113004509FB024788F582EB12394EE0F5087535
:10412300090022E085088285098322A3E0F9850836
:10413300828509832274EE1203748A0A8B0BECFEC8
:10414300EDFF750F01E9C394085005790002432B75
:104153008E828F83E9F0124591E96003750F001297
:1041630045758E828F831245BFEE124EFDEF1245C9
:10417300B4C0E0EE2411122AF6D0E01245ACC0E040
:10418300EE2412122AF6D0E0123C157408124FB72F
:10419300A3A3A3E0601512455DEE2413F582EF128D
:1041A30047C78E828F83A3E02408F08E828F83A378
:1041B300A3A3A3A3A3A3A3E060218E828F83A385DC
:1041C30082088583091245A0EE2415F582EF124774
:1041D300C7850882850983E02408F08E828F83A334
:1041E300A3A3A3A3E0601A8E828F83A3858208858D
:1041F30083091245848E828F83A3A3A3A3A31243AF
:1042030050EE2419123C02EE241B123C02A3124866
:104213000BE070030242BFEE2419F8EF3400F98E6D
:10422300828F83A3858208858309E0FAE50A2AF54C
:1042330082E50B122BC688828983124350FAE50A62
:104243002AF582E50B122BC6C0E0EE241A122AF6D9
:10425300D0E012435088828983E06059F89020D1DE
:10426300E493C398500575110C8008EE2419122BA2
:10427300C3F5118E828F83A3E0F8E50A28F50CE5D8
:104283000B124334120844E511C333FCE433FD7AC3
:10429300B27B0B12432E120890EE241B122AF674E3
:1042A300B2F0A3740BF0E511C333F88508828509D6
:1042B30083E0288006EE2418125468F08E828F83E0
:1042C300A3E0F88E828F83E0C398500302414EA38C
:1042D300E0FA8A08E50A2508F8E50B3400F9EE242C
:1042E3001DF582EF1248D3124360C39AC0E0EE2457
:1042F30017122AF6D0E01247D0602BEE2417F8EFFE
:104303003400F9880889098882F583E024F2124889
:10431300B4240EFAA3E03400FB8882898312475742
:1043230012433EC398F0A90F024030121372740374
:10433300223400F50D750E00780C2290034EE0F93F
:10434300120B26E9F8850882850983E022F08508A7
:1043530082850983E004F022A3A3A3A3A3F08E82A2
:104363008F83E02274F41203748A088B09EA1243E0
:10437300F5F0EA1313543F1243EEA3A3A3F0EAC4E8
:1043830013131243F5A3A3F0EB1243E71243FF7495
:1043930009780A120A971243E51243FE740A780A4F
:1043A300120A97E50A5401C0E0EC2418F582ED12D5
:1043B3002AF9D0E0124404740B780A120A971243C4
:1043C300E5A31243FE740C780A120A971243E5A37D
:1043D300A3A3A3A3A3A3A3F0740D7808120A9702BF
:1043E3002725E50A54018C828D8322540F8C828DFC
:1043F300832254038C828D83A3A322A3A3A3A3A309
:10440300A3F08A0A8B0B22C082C08379008A828B35
:1044130083A3A3A3A3A3A3E090034D600FE07022A3
:104423008A828B83A3A3E07019098016E060138A44
:10443300828B83124B25900356E06A7003A3E06BD3
:1044430070E7023D0174F01203748A0A8B0B890C26
:104453008C088D091245911245758508828509835B
:104463001245BFE508124EFDE5091245B4C0E0E56B
:10447300082411F582E509122AF9D0E01245ACC0EF
:10448300E01231F7122AF9D0E01248DB740812481F
:10449300F4601112455DE50824131248CF1248DB7E
:1044A300E02408F0850882850983A3A3A3A3A3A31B
:1044B300A3A3E06017850882850983A312459CE5C1
:1044C3000824151248CF1243602408F0850882851A
:1044D3000983A3A3A3A3A3E06019850882850983A5
:1044E300A3AE82AF83124584850882850983124374
:1044F3005B04F0AA08AB09120DB4E9F50D705685FB
:104503000882850983A3A3A3A3A3A31245687014F8
:10451300E0FA8A0EE50A250EF8E50B1247BCE50C16
:10452300C39A802112459CE8240EF8E91247BC90F7
:10453300034EE0F9120B268E828F83E0F8E50CC35D
:104543009824F2C399C0E0E5082417F582E509121F
:104553002AF9D0E0F0A90D024EECE50A2408F8E5AB
:104563000B3400F92212456C22E085088285098309
:10457300A322850A82850B83A3A31245D5E0F9EA1A
:1045830022E0F8E50A28F582E50B1247E3228A8246
:104593008B83124EF1120DAE22AE82AF83E0F8E5AB
:1045A3000A28F8E50B3400F9221245E8A3A3A3E097
:1045B3002212394EE81245E1A3A3E022A3A3A3A349
:1045C300A3A3A3A3A31245E11245D5A3A3E0F9EA4C
:1045D300F822E0FA850A82850B83A3A3A322F0A322
:1045E300E91245E822F0850A82850B83A3A3A3A3DE
:1045F30022C082C0837AC57B0379E2121B9A7AC5F3
:104603007B03023D01C082C083900356023CFEC07F
:1046130082C08374FE12090C851882851983AA82CD
:10462300AB83794B124632124B2E7402023CD712E3
:104633001B9A85188285198322C082C083794A1206
:104643001B9A023D0174F61203749003CDE0FE043D
:10465300F0EEF9120D668B09EA450970EDEE60EA9A
:10466300F902478874F0120374EAFEEBFF8C088D9D
:1046730009890A7410120B01E0F50B7411120B0176
:10468300E0F50C120E86EA4B7013E50C7042A90A92
:10469300AC08AD09EEFAEFFB120E9E806EE50A60E0
:1046A30021EA2402F582EB122BC6850A082508F8B5
:1046B300E4340013E813F070098A828B83A3A37494
:1046C30001F0E50C6045E50B70068A828B83E4F00C
:1046D3007401650C7035E50B9003D47004E4F0802D
:1046E3002AE004F0900D01E0F89003D4E0C3984071
:1046F3001AE4F0900359E06E7003A3E06F700CEEC0
:10470300FAEFFB7901120C0A124711024EEC7A01FF
:104713007B009003B0E0F91214F822C082C08374C6
:10472300016A7001EB70077A011247488012900CFE
:10473300F8124757EA4B60051224A1800312471170
:10474300023D017A207B009003B0E0F91213CC22E2
:104753003400F583EAF0A3EBF022C082C083900C0F
:10476300FA023301C082C083900CFC023301125160
:10477300FF22EE240CF582EF3400F583123CF8E8B7
:1047830049221208907F020205D3A2F0E433851870
:10479300828519831247A97952121BA0221247A9B5
:1047A3007942121BA022F0AA82AB8322AA08AB098A
:1047B3009003B0E0F91213A2223400F9E508241D96
:1047C300F582E50912394EE8F0A3E9F022124FBB56
:1047D300A3A3E022A3F0EE24151247E022F582EF13
:1047E3003400F583E0221247ED223400F583E0F82C
:1047F300A3E0F98882898322E0F812480122A3E02A
:10480300F98E828F83A3A322F0EE241812394B2250
:10481300F0EE241612394B2274F4120374EAFEEB01
:10482300FF7A007B041247151248AA1247CA900365
:10483300657409F0120DC08A088B09AC08AD09EE46
:104843002413122AF6124B2E1249FE640170487A81
:104853000F12489D60418A828B8374021248B4FA16
:10486300A3E0FB8A828B83A3E0FC8A828B83A3A3CE
:10487300E0FBEC850882850983A3A312475888824D
:104883008983124B321241261247D7FAA3E0FB79F0
:104893004A121BA01247AF022BBB7B001213968A4E
:1048A300088B09EA450922900336123CF8900CFC68
:1048B30022F0EE241DF8EF1248BE22123E39E02208
:1048C3001248C7223400F5837401F022F582E5090A
:1048D30012394EE8F0A3E9221248DF221248E322FC
:1048E300F0850882850983A3221248E3A3A3A3A327
:1048F300221248ECA3A3E022124D05120E1422EE5D
:104903002417F582EF1248C7120DC0EE241A12398C
:104913004BEAF0A3EBF02274F412037474F312095C
:104923000C8908EAFEEBFF7C0D7D00790085188277
:10493300851983AA82AB83121D5CEE241D122AF60D
:104943001251F0A3E0F8741F58600A7901121B702A
:1049530079000249F5E8A2E55008740C120B0174C2
:1049630001F0E8A2E75008740B120B017401F0E8A0
:10497300A2E6740A5008120B017401F08008120BAE
:1049830001E064017005EE24138003EE2415125038
:104993002D7402120B01AA82AB83121B88122AF315
:1049A300124A031247CA740A120B01E064017033FE
:1049B3001224D4703B120DCC8A0A8B0BA80AA90BC4
:1049C300EE240B122BC3687003A3E0697022120D4F
:1049D300C0EAFCEBFD7402120B01AA82AB831249FD
:1049E300FE600D851882851983AA82AB83120C049D
:1049F300A908740D022BB8EEFAEFFB121B82E92211
:104A0300E0124A0822F8A3E0F98518828519832267
:104A130074F612037474F312090C8A088B09ECFE02
:104A2300EDFF7C0D7D007900851882851983AA82AC
:104A3300AB83125395A3A3A3A3A3A3A3A3A3124A34
:104A43009D124AA6F8A2E55008740B120B017401DB
:104A5300F0E8A2E75008740A120B017401F0E8A20F
:104A6300E6EE500424138002241512502D74021212
:104A73000B01124A8FA3A3E0C0E0740C120B01D008
:104A8300E0124CFD120BFE740D024785AA82AB8324
:104A9300121B8885088285098322E0124A08E8F000
:104AA300A3E922F01239481251F4A3E02274F71259
:104AB300037474E112090CEAFEEBFF8E828F8312FA
:104AC3004B32A3A3A3E0A2E050518E828F83122620
:104AD300348A828B83A3A3A3A3A3A3E054FE124B24
:104AE3004A8A828B83124B43E0F98A828B83E024C8
:104AF3001CFAA3E0123564124B2E120DBAE9701B97
:104B0300741D120B01124B3D701185188285198398
:104B1300AC82AD83EEFAEFFB120E02024D6F8E8272
:104B23008F83A3A3A3A3A3A3A3A3A3122BB1221293
:104B33004B36221251F8A3A3A32212398064042214
:104B4300E0241B123E3222123CE0AC82AD8322E908
:104B5300F87900740468600A740A6860057403686D
:104B630070010902080A74F61203748A828B837433
:104B730020F0A3A37401F0120BB08A088B09AE08CE
:104B8300AF09EE4F60108E828F837401F09003A300
:104B9300E07003124902EEFAEFFB024788C082C0BD
:104BA300839003B97401F0E9A2E350037403F0E9BD
:104BB300A2E15004E0D2E2F0023D0174F612037464
:104BC30079007C008A088B09780812058DF8FF07A5
:104BD300F14BEF4BEF4BEF4BEF4BE84BEC4BF14B08
:104BE300E54B0C80097C0480050C80F67C0890035F
:104BF300B9E05C6003098003EC6001090247887433
:104C0300F61203748A828B83E07012A312477F60CB
:104C13000C8A828B83124B2D121CC080047A007B7A
:104C23000002478874F512037474F312090C8A089E
:104C33008B09ECFEEDFF750A12EA45097005790050
:104C4300024CF6900356E065087004A3E065097012
:104C530014120DC0EAFCEBFD1249FA7005750A0146
:104C63008003750A00851882851983E4F004120B0A
:104C730001E508F0A3E509124CFD120B74E9602766
:104C83007403120B01AA82AB83120B56E964017001
:104C930016750A017403120B01AC82AD831249FA33
:104CA3006021750A00801C7412650A70169003A2B5
:104CB300E06402700EEEFCEFFDAA08AB09120B8C48
:104CC300E970DFEEFCEFFDAA08AB09120E8CE9F8E0
:104CD300740A687005750A01801774A0687012EE73
:104CE300FCEFFDAA08AB09120E98AA08AB09120E35
:104CF300AAA90A740D0256FD7402124D0122124D27
:104D03000522123CE0AA82AB832274F7120374EAF1
:104D1300FEEBFF8E828F83A3A3A3A3A3A3A3A3E08E
:104D23006015EE2415122AF6122BA1120E2CE9643B
:104D3300017004790180258E828F83A3A3A3A3A38B
:104D4300A3A3E06015EE2413122AF6124D61FAA311
:104D5300E0FB120E2CE9640160D97900801312364E
:104D630050A3A3A3A3A3A3A3A3A3E022741F120886
:104D7300907F010205D374F012037474FD12090CC1
:104D83008A088B09ECFEEDFF890B7413120B01E00B
:104D9300F50C750A017401120B0174041252286098
:104DA30048E50C601DEA2417F582EB12546B12528E
:104DB300168A828B83E0D2E7F0EA2414F582EB12A1
:104DC3003C05124EFCEB1247E9740312578EEE8832
:104DD300828983A3A3F0EF88828983A3A31236FA7F
:104DE300123701120BAAE9F50AA90A7403024EE964
:104DF30074EC12037474F512090C8A0A8B0B890C78
:104E03008C0E8D0F741F120B01E0F50D7420120B25
:104E130001E0F510A3E0F5117E01EE120B01740A17
:104E2300F0E97007E50DC333240AF0124FCE700387
:104E3300024ED0124FE37409F0A3E50CC43354E0DF
:104E4300450D124FF5E50C702D7C008023ECC33328
:104E5300F8E433F9E51028F8E51139F988828983F4
:104E6300124EDD88828983122E13F0A30EAF830CBA
:104E7300ECC3950D40D7E5082417F582E5091248E0
:104E8300C3120DC0E508241AF582E50912475374CD
:104E930003120B01AC82AD83AA0AAB0B120B5CE9C4
:104EA3006019E5082416F582E509124ED7120B01A5
:104EB300A882A983E50824181247C38508828509B7
:104EC3008312578AAA08AB09120BAAE9FEEEF974FA
:104ED3000B024FC61248C7740322E08E828F83F001
:104EE300A3AE82AF83221208907F080205D3123942
:104EF300A8F9EA2400E439FB22EA240BF5822274A0
:104F0300EE1203748A0C8B0D890E8C088D097412B2
:104F1300120B01E0F50F7413120B01124FAF900542
:104F23004112477F6077E50FC333F8E433F9E82490
:104F33000EFAE93400FB1213968A108B11AE10AFF0
:104F430011EE4F60588E828F8374D4F0A3A3E50CC7
:104F5300F0A3E50D124FB7E50EF0AC08AD09EE2452
:104F630005FAEF125231EE240D122AF6E50FF08501
:104F73000A08850B09750A007808120844E50FC36F
:104F830033FCE433FDEE240EFAEF124FA612089021
:104F9300EEFAEFFB9005411251F0121D670240300B
:104FA300FAE5093400FB121372740322E0F50AA335
:104FB300E0F50B22124FBB22124FBF22123C19A362
:104FC300A3A3221208907F0C0205D38518828519AA
:104FD30083AA82AB83120E148A088B09EA4509223D
:104FE300EA240BF582EB1247E3FEA3E0FF8E828FE8
:104FF3008322F0A3AE82AF83AC0EAD0FEEFAEFFBCC
:1050030012500722121B8812500E22EE2408FEEFC4
:105013003400FF22E0FA8E828F83A3A3E022FEA353
:10502300E03400FF8E828F83E02212394B1250341A
:1050330022E0FCA3E0FD22122BB1120DA82274F68C
:10504300120374EAFEEBFF9003BA8013888289830C
:10505300E06E7003A3E06F603A88828983A3A31292
:10506300477F70E87A047B001214328A088B09A800
:1050730008A909E849601C8882898312509D90031E
:10508300BA124B2E88828983A3A31247579003BA7F
:105093001247CA0247888A828B83EEF0A3EFF0227D
:1050A30074F41203747E009003BA80070E88828919
:1050B30083A3A312477F70F4EEC333FAE433FB12E6
:1050C300514B607E7F009003BA80248882898312CB
:1050D3005030EFC333FAE433FBE5082AF582E509E0
:1050E3003BF583ECF0A3EDF00F88828983A3A31231
:1050F300477F70D79003AB12250E7003A3E0697846
:10510300087019120848EEF50A780A12084C7C77E1
:105113007D0379009003AB125156801A120848EEB2
:10512300F50A780A12084C7C777D0379009003AB6B
:10513300124B2E120E3E7403120890AA08AB0912EA
:105143001438120BC2022BBB1214328A088B09EAE1
:10515300450922122BB1120E4422C082C083801251
:105163008A828B83A3A31239599003BA1247CA12B6
:1051730014389003BA12386970E6023D0174F612CE
:1051830003749003631239859003CE1251DF1247E3
:10519300CA7ACE7B037950121BA09003CE12272D1F
:1051A300FAEFFB120EA49003CE1239859005431239
:1051B300477F60257A067B00121396EA4B601A8AB2
:1051C300828B8374D5F0A3A3E41252050412521602
:1051D3009005431251F0121D670247881251E322D2
:1051E300E0F8A3E0F9900363228E828F831251F4D7
:1051F300221251F822E0F81251FE22A3E0F583882F
:1052030082221252092212520D22F08A828B83A328
:10521300A3A322125209A3EEF0A3EFF022F582EF2B
:105223001247E3F9221248FBEA4B22FAE50934005C
:10523300FB121B8822124802A3A3A3A3A3A3A322A6
:105243009020D3E4932401F8E43400F97A027B003C
:105253002274F71203747E0080041258410E125315
:105263006540F77E00EE12528074FEF0A3041252E2
:1052730095E4F00EEEC3940340EB024D7475F00316
:10528300A4F8A9F074BC28F8740339F988828983D7
:10529300A32212529922F0888289832274F712037F
:1052A300747F0080010F9020D0E493F8EFC39850EF
:1052B30026EF1254516A7003A3E06B70E81257EEA5
:1052C3006C7003A3E06D600A74FF6C700374FF6D70
:1052D30070D312535C80047A007B00024D7474F621
:1052E3001203747CFF7DFF7AFE7BFF120E68EA4B8C
:1052F30070407508008036E50875F017A4F8A9F02A
:10530300744D28F582740A125463600C744C28F5AA
:1053130082740A1254637013743E28FE740A39FFB0
:105323008E828F83125470EEFAEFFB05081253CB73
:1053330040C502478874F41203748A088B09ECFE93
:10534300EDFF800B120E7AEEFCEFFDAA08AB0912FB
:105353000E68EA4B70EE022BBB743E28FA740A39CE
:10536300FB229020D0E493F8EEC3982274F7120343
:1053730074EAFEEBFFEE4F601012538F74FEF0A33E
:105383000412579414F0A304F0024D747C177D00AB
:105393007900121D5C8E828F832274F7120374EAE4
:1053A300FEEBFF7508008018E50875F017A4F8A94F
:1053B300F01257F97003A3E06F6003125849050810
:1053C3001253CB40E3024D749020D0E493F8E508E8
:1053D300C3982274F6120374120E688A088B09A804
:1053E30008A909E849600AE8240DFAE93400FB80BA
:1053F300047A007B0002478874F41203748A0A8BD0
:105403000BECFEEDFF750800750900802EE50975AC
:10541300F017A4F8A9F0125834601EE5091254518C
:10542300650A7004A3E0650B700375080AEEFCEFD0
:10543300FD1256F060034308A005099020D0E493C1
:10544300F8E509C3985004E50860C202272575F002
:1054530017A4F8A9F012545C22743E28F582740A4A
:1054630039F583E022F582EF12394EE422122BB193
:10547300120CA022125299A3A3A3A3A3A3A3A32212
:1054830074F21203748A088B09ECFEEDFF740E129A
:105493000B01124FAF750C007C007D0180101213BD
:1054A30090E50CF5F0EA84ACF0750C007D00780013
:1054B3007900800312562D125689400302554FE896
:1054C300FAE9FBEA75F017A4FA85F00D75F017EB0E
:1054D300A4250D1256657003A3E0F460D71256435A
:1054E30065087004A3E0650960CA1256436E700331
:1054F300A3E06F60BF125643650A7004A3E0650B17
:1055030060B2E8FAE9FBEA75F017A4FA75F017EB55
:10551300A4250DFB744C2AF582740A125624509468
:1055230074016D050C608DE50CC39C4087E875F034
:1055330017A4F8AAF075F017E9A42AF9743E28F520
:1055430082740A39F583124B2E02562178007900B2
:10555300800312562D1256964003025608E8FAE9C4
:10556300FBEA75F012A4FA85F00D12567564FE700D
:1055730003A3E0F460DC12566B65087004A3E065D6
:105583000960CF12566B6E7003A3E06F60C41256AE
:105593006B650A7004A3E0650B60B7E8FAE9FBEA00
:1055A30075F012A4FA75F012EBA4250DFB74CD2A45
:1055B300F58274081256245099E8FAE9FBEA75F06B
:1055C30012A4FA75F012EBA4250D1256366401608D
:1055D30081E06402700302555574016D050C70037C
:1055E300025555E50CC39C5003025555E875F0125E
:1055F300A4F8AAF075F012E9A42AF974C428F58274
:105603007408025546E50C6011EC700E7401650CCC
:1056130060030254A17C010254AC7AFE7BFF022595
:105623001A3BF583E014C3940622E8240108E93405
:1056330000F922FB74C82AF58274083BF583E02243
:10564300E8FAE9FBEA75F017A4FA75F017EBA4255D
:105653000D12565822FB743E2AF582740A3BF583D9
:10566300E02212565864FE22E8FAE9FBEA75F012CA
:10567300A4FA75F012EBA4250DFB74C42AF5827409
:10568300083BF583E0229020D0E493FAC3E89AE93B
:105693009400229020CCE493FA740193FBC3E89A1C
:1056A300E99B2274F51203748A088B09ECFEEDFF63
:1056B300750A008002050A9020D0E493F8E50AC336
:1056C300985028EEFCEFFDE50A75F017A4F8A9F051
:1056D3001256F060E0E50A75F017A4F8A9F0743EDD
:1056E30028F582740A39F583123703801074402831
:1056F300FA740A39FB121B82E9221208907F030213
:1057030005D374F01203748A088B098C0A8D0B89F4
:105713000C120E6E8A0E8B0FAE0EAF0FEE4F60554E
:1057230012538FE508F0A3E50912579412578CE53D
:105733000C600AEE240F122AF6E50C8006EE240F05
:10574300125784F09003D012477F601A9003AAE0A7
:1057530064017008EE240E1254688010EE240E12B9
:105763002AF674078006EE240E125784123049126B
:10577300022312577B024EECEE240D12394BE8F054
:105783002212394B740122A3A3E50AF0A3E50BF01F
:105793002212357AA32274F51203748A088B09EC5A
:1057A300FEEDFF750A00800F1257F97003A3E06F37
:1057B3006003125849050A9020D0E493F8E50AC320
:1057C300985025E50A75F017A4F8A9F01257EE656D
:1057D300087004A3E0650970CF744828F582740A41
:1057E30039F58312509D80CD025700744828F58205
:1057F300740A12546322744828F582740A1254639B
:105803006E2274F7120374EAFEEBFF750800801929
:10581300E5081254516E7003A3E06F700A125834F6
:105823007005E50812584205081253CB40E2024DB9
:1058330074744028FA740A39FB120B56E922EE7588
:10584300F017A4F8A9F012535C120E7A221252999F
:10585300123CF8E84922C082C08374F812090C850F
:105863001882851983AC82AD837583817582AC748C
:1058730008120786851882851983AC82AD83124985
:10588300FE640170047900800279017408023CD738
:10589300C082C0838A828B83E0D2E7F012160602AD
:1058A3006327C082C0837900125D5F127300C082D8
:1058B300C083900330126F22D083D082C3E09CA3B5
:1058C300E09D500C1274CFFAA3E01258D660010980
:1058D300026327FBEA75F00BA4FAA8F075F00BEB53
:1058E300A428FB900332E02AF8A3E03B8882F583E7
:1058F300E0540F2274F71203748908125D5F125E7D
:1059030005ACF075F00BE9A42CF9900332E028FE06
:10591300A3E039FF7401650860067402650870200E
:105923008A828B83125DF11269D574026508701B3C
:10593300125CB0125E3870138E828F83E4F0800B9A
:10594300EA2403FCEB125DD3125DDFEEFAEFFB12E8
:105953000B2C02665A74F41203741278C379008E06
:10596300828F83E06076890A890B8065E50A75F08A
:105973000BA4FAA8F075F00BE50B1258E37046E59B
:105983000A75F00BA4F8AAF075F00BE50B125E177D
:105993008E828F83E0850882850983125EF98508EC
:1059A30082850983A31269D5EE2403FCEF125DDC23
:1059B3001264FE12727AAA08AB09120B2C790190B9
:1059C3000330126F3DE50A2401F50AE50B3400F5B7
:1059D3000B125CB8E50A9AE50B9B409002678E7444
:1059E300F5120374EAFEEBFF740B120B011265034D
:1059F300750A01EC4D602BEC1278DFED1273001287
:105A030069CD7901120B38E5084509606F85088275
:105A1300850983A31278CD7902AA08AB09120B3842
:105A2300805AE5084509602B127304126BF7126460
:105A3300FF125E22700CEEFAEFFB120B3EE9F50A41
:105A430080CBEE2403FA125D5A70317903EEFAEF3C
:105A5300FB80CA8E828F83A3E064FE7003A3E0F40D
:105A6300700BEE24030A0A0A125D5A700CEEFAEF69
:105A7300FB120B3EE9F50A8003750A00A90A7F03AE
:105A83000205D374F712037490033012665FEA4B76
:105A9300602FEA75F00BA4FAA8F075F00BEBA428BD
:105AA300FBEAFEEBFF12143290033212665F90039F
:105AB30032126F296012EEFCEFFD7900121D5C803B
:105AC30007900332E4F0A3F002665A900330126E9B
:105AD300ADC3EE98EF9922C082C083EC4D600512EE
:105AE3001B8880097C087D007900121D5C026327F6
:105AF30074F61203747900EA4B6018780088081270
:105B03007486EB1274CB60047901780808E8C394B7
:105B13000840EA02667274F712037474F312090CF4
:105B2300ECFEEDFF851882851983E4F004120B0166
:105B3300EAF0A3EB12700A7403120B01AC82AD837B
