:020000040000FA
:06000000020AAD0201CD71
:03002B00020901C6
:0300430002077F32
:030053000200FEAA
:03006B00020696F4
:100083000201620101FF0503016E106E106E106E16
:10009300102A0F240F6E10B3230000000015240054
:1000A3000000000C0000000C000100003C120000E6
:1000B3000000000008130000000000000000000022
:1000C300FFFF010101002C050000007D05E803642A
:1000D300006400B801020200080000050207051EC3
:1000E30002051E0A03B80B020102F1FF02CB811FB6
:1000F30000E0079651180002020612C0E074F212E3
:1001030003E6A2AFE433FED2AFE5A7FFE5A1F5080E
:100113005F5410600612195C75A1EFE5085F54087F
:10012300600812196275A1F7802BEFA2E0C0D0E539
:1001330008A2E092F01209EA158182F0501790614B
:1001430098E0F8900851E0C398A2D265D0335002EA
:10015300E8F075A1FEEEA2E092AF7F01020445C074
:10016300E074F21203E6A2AFE433FED2AF9061A4CF
:10017300E0F8759B00E59158540860087591F712F3
:1001830019AA802AE59158541060087591EF121945
:10019300B0801BE8A2E0C0D0E591A2E092F0120982
:1001A300EA158182F05007E0C2E0F0121AF4906180
:1001B300A3E0F8E5E9585404600E121ACA75E9FB86
:1001C300906193E0A2E640F2808BC0E074F21203E8
:1001D300E6A2AFE433FED2AF9061A5E0F8E5BF58E5
:1001E3005404600675BFFB121B0C020158C3E4984C
:1001F300F8E499F91202318026C3E49AFAE49BFBEE
:10020300E920E7E9120231E498F8E499F922C3E41A
:1002130098F8E499F9120231E498F8E499F9C3E4FF
:100223009AFAE49BFB22EB20E7CFE920E7E0B90051
:1002330010BB0008E88AF084F8AAF022E4FBC8FAAD
:1002430022EB70227B10C833C8C933C9335007C3AC
:100253009AC3DBF280069A50012ADBEAC833F4C85A
:10026300C933F4C9FA2275F008E4C833C8C933C9DD
:1002730033C99AC99B5004C92AC93BD5F0ECFBC8C2
:1002830033F4C8E4C9FA22080808EAC0E0EBC0E086
:1002930086F0E7A4FA180986F0E7A42AFA18098673
:1002A300F0E7A42AFA180986F0E7A42AFA1986F0D7
:1002B300E7A4FBE5F02AFA190886F0E7A42BFBE58F
:1002C300F03AFA190886F0E7A42BFBE5F03AFA189E
:1002D300180986F0E7A4C5F02BFBE43AFA1908E7FE
:1002E300C5F0C6A426F6E5F03BFBE43AFA1886F01F
:1002F300E7A4F6E5F00826F6E43B08F6E43A08F648
:10030300D0E0FBD0E0FA22E4CFC0E0E4CEC0E0E4EA
:10031300CDC0E0E4CCC0E075F020C3E633F608E6D8
:1003230033F608E633F608E633F6181818EC33FC10
:10033300ED33FDEE33FEEF33FFC3EC9709ED970981
:10034300EE9709EF97191919400FFFEC97FC09ED88
:1003530097FD09EE97FE191906D5F0BEECF709EDE6
:10036300F709EEF709EFF7191919D0E0FCD0E0FD12
:10037300D0E0FED0E0FF222518C582C0E0E51934A5
:10038300FFC583C0E0E518C3958224F810AF088544
:1003930083198582188008858319858218D2AFCE88
:1003A300F0A3E520F0A37808E608F0A3DEFAEFF067
:1003B300A3E58124FAF8E608F0A3E608F0A3E6082B
:1003C300F0A30808E608F0A3E608F0A31581158159
:1003D300D0E0FED0E0F8158115811581E8C0E0EE8C
:1003E300C0E022C0D02518C582C0E0E51934FFC59E
:1003F30083C0E0E518C3958224F310AF0885831901
:100403008582188008858319858218D2AFC8F0A326
:10041300E9F0A3EAF0A3EBF0A37908E709F0A3D886
:10042300FAECF0A3EDF0A3EEF0A3EFF0A3D0E0F02D
:10043300A3D0E0F0A3D0E0F0A3E520F0A3E5F0F033
:10044300A322851983851882E0C0E0A3E0F9A3E025
:10045300FAA3E0FBA37808E0F608A3DFFAE0FCA325
:10046300E0FDA3E0FEA3E0FFA3E0C0E0A3E0C0E063
:10047300A3E0F5D0A3E0F520A3E0A3F5F010AF08C7
:100483008583198582188008858319858218D2AFE0
:10049300D082D083D0E0F8D0E032120B1CB9000335
:1004A3000204DFE490030178A8790A8002F0A3D85C
:1004B300FCD9FA900CA8AA82AB839000867879794C
:1004C300018015E493A3AC82AD838A828B83F0A36E
:1004D300AA82AB838C828D83D8E9D9E77582AE7506
:1004E300839374031208607582B275831D740012BE
:1004F3000860E8030875F0108E1A8F1B85821F852C
:10050300831E851882851983E0CEA3E0CF851F82E1
:10051300851E83EBC9EAC8EDCBECCAC3E833C8E94F
:1005230033C9EA33CAEB33CBC3EA9EF51DEB9FF520
:100533001CB35004AB1CAA1DEC33CCED33CDD5F06A
:10054300DAAE1AAF1B22D083D082ECC0E0EDC0E05C
:10055300E493A3FCE493A3FDED4C600D120621ECA0
:1005630024FFFCED34FFFD80EFE493A3FCE493A3AD
:10057300FDED4C600D12072AEC24FFFCED34FFFD6A
:1005830080EFD0E0FDD0E0FCE493A3C0E0E493C0AF
:10059300E022D083D082E9C0E0E493A3C386F0C510
:1005A300F095F0F908E493A386F0C5F095F0700B8D
:1005B300E493A3C3994005E9048002A3E475F00220
:1005C300A42582F582E5F03583F583D0E0F9E49341
:1005D300A3C0E0E493C0E022851983851882E0A3D9
:1005E300FEE0A3F5207808E0A3F608DFFAE0A3FF16
:1005F300E0A3C0E0E0A3C0E0E0A3C0E0E0A3C0E06C
:10060300E0A3C0E010AF08858218858319800885B0
:100613008218858319D2AFD083D082020866C0E0E6
:10062300C3E49396087401939618400FE49366709D
:100633000808740193661870007019A3A3C3E493A8
:1006430096087401939618A3A3400DD0E0D0E0D090
:10065300E0020585A3A3A3A3A3A3D0E022D083D064
:1006630082C5F0E493A3C5F0C395F0F5F0E493A33A
:10067300C395F04005E5F0048001E475F002A4257C
:1006830082F582E5F03583F583E493A3C0E0E49338
:10069300C0E022C0E074F21203E65389DFC2C5D280
:1006A3008790050B7401F07C327D007A057B009006
:1006B30004DDE0F912151E7CFA7D007B327A0579A0
:1006C300021218967F0102044574048004740280A8
:1006D30000CCC0E0EDC0E0E518C39CCCAD195001DF
:1006E3001D10AF068C188D1980068C188D19D2AF8A
:1006F3001207C4D0E0FDD0E0FC2274028000CCC01D
:10070300E0EDC0E0E518C39CCCAD1950011D10AF5E
:10071300068C188D1980068C188D19D2AF1207A27A
:10072300D0E0FDD0E0FC22C0E0C0F088F0E49366A6
:1007330070080874019366187000A8F0A3A3700BE7
:10074300D0F0D0E0D0E0D0E0020585A3A3D0F0D074
:10075300E022D083D082CCC0E0E493A360061208E9
:10076300231470FAE493A360061209321470FAD0CA
:10077300E0FCE493A3C0E0E493C0E022C0E074F2A1
:100783001203E6A2AFE433FED2AFC2C0E5D1A2E4C6
:1007930050031218D2EEA2E092AF7F01020445CAC1
:1007A300C0E0E493A3C582CCC582C583CDC583F0E5
:1007B300A3C582CCC582C583CDC583DAE5D0E0CAA3
:1007C30022CAC0E0E0A3C582CCC582C583CDC58360
:1007D300F0A3C582CCC582C583CDC583DAE6D0E05C
:1007E300CA227009080808226016181818C6C333ED
:1007F300C608C633C608C633C608C633C6D5E0EA3C
:1008030022C008C3E096F50808A3E096420808A3AF
:10081300E096420808A3E09645087001D3D0082269
:10082300C0E0E493A3D39C5010E493A3C39C400A79
:10083300D0E0D0E0D0E0020772A3A3A3D0E022C5AA
:10084300822518C582C583351910AF07F51985822E
:10085300188007F519858218D2AFC58322C09FF58A
:100863009FE473D09F22D083D082C09FE493C0E0E3
:10087300740193C0E0740293F59F222518F582104A
:10088300AF08F518400215198008F518400215192C
:10089300D2AF851983227404800A7403800674021C
:1008A30080027401C0E0F40412087ED0E0120AF75B
:1008B30022C0D0251810AF08F5185002051980087A
:1008C300F51850020519D2AFD0D022BB0102E7229E
:1008D300C082C08389828A83BB0003E08002E493E1
:1008E300D083D082226016080808C6C313C618C670
:1008F30013C618C613C618C613C6D5E0EA22C0E04D
:10090300C0D0E8C0E0E5A8D2AFC2C7A2E792AFD09B
:10091300E0F8D0D0D0E032C3E0C696F608A3E0C634
:1009230096F608A3E0C696F608A3E0C696F622C09C
:10093300E0E493A36C7009D0E0D0E0D0E00207724A
:10094300A3A3D0E022251810AF08F518400215190B
:100953008008F51840021519D2AF22E76670100817
:1009630009E766700A0809E76670040809E7662262
:10097300E066701008A3E066700A08A3E0667004DE
:1009830008A3E06622C3E09608A3E09608A3E096D6
:1009930008A3E096A2D265D03322C3E096F008A361
:1009A300E096F008A3E096F008A3E096F022E02694
:1009B300F008A3E036F008A3E036F008A3E036F031
:1009C30022E627F60809E637F60809E637F60809A6
:1009D300E637F622E026F608A3E036F608A3E0366B
:1009E300F608A3E036F622C0E0E8C0E0E58124FC87
:1009F300F8E6A2E7D0E0F8D0E022E647F60809E6F9
:100A030047F60809E647F60809E647F622E657F6E9
:100A13000809E657F60809E657F60809E657F622E5
:100A2300E056F608A3E056F608A3E056F608A3E05E
:100A330056F622E056F008A3E056F008A3E056F07D
:100A430008A3E056F022700422600D18C6C333C613
:100A530008C633C6D5E0F41822E4C396F608E49634
:100A6300F608E496F608E496F622600D08C6A2E7B7
:100A730013C618C613C6D5E0F322C6F4C608C6F4D7
:100A8300C608C6F4C608C6F4C622C3E7960809E733
:100A9300960809E7960809E79622C3E09608A3E0BB
:100AA3009608A3E09608A3E0962275D000758140CE
:100AB3007518017519030002049D600C08C6C31361
:100AC300C618C613C6D5E0F422E6F008A3E6F0087C
:100AD300A3E6F008A3E6F022E0F608A3E0F608A3F5
:100AE300E0F608A3E0F622C5822518C582C5833542
:100AF30019C58322CAC0E0E6F0A308DAFAD0E0FA07
:100B030022E0FAA3E0FBA3E0FCA3E0FD22EAF0A3CA
:100B1300EBF0A3ECF0A3EDF022E5C754F84401F5A4
:100B2300C77901222518F582E43519F58322C2AF6E
:100B330075D69F0200002212086991B1011208695B
:100B430034B2011208697FB3011208699DB301121F
:100B53000869E95D00120869FB5D001208694D5ED2
:100B630000120869AE5E00120869385F0012086956
:100B7300DC5F0012086930600012086949600012E6
:100B830008696F6000120869AA6000120869EE60C4
:100B9300001208691561001208696661001208698C
:100BA300166200120869CE62001208699663001289
:100BB3000869736400120869F9640012086908651A
:100BC300001208691365001208691C66001208699F
:100BD3002D6600120869A3660012086935670012C2
:100BE30008698D67001208695368001208698468F0
:100BF30000120869C96800120869D66800120869FA
:100C03006A6A00120869CD6B00120869E96C001268
:100C13000869536F001208695E6F00120869686FF4
:100C230000120869736F001208697D6F001208696A
:100C3300876F00120869926F001208699D6F001296
:100C43000869CE6F00120869F26F00120869167006
:100C5300001208697B7000120869BF7000120869EE
:100C6300DB70001208695271001208698A71001260
:100C73000869D67100120869337200120869157485
:100C8300001208699B74001208696C7500120869E8
:100C93007C7800120869D17800120869FD78001287
:100CA3000869497A00120869997A00120869EE7A8C
:100CB30000120869EF7B00120869877C001208693B
:100CC300097D00120869A97D001208693426001203
:100CD30008696D26001208694728001208698628EA
:100CE30000120869D02800120869752900120869E2
:100CF300D42900120869082A00120869752A00120B
:100D03000869922B001208699A2C00120869302D89
:100D1300001208697730001208692031001208694F
:100D2300FC31001208695D32001208697A3300123F
:100D33000869A435001208695B3600120869653634
:100D4300001208699836001208695F3700120869B3
:100D5300FA37001208695F380012086988380012F0
:100D63000869AA3800120869D93A00120869B03B29
:100D730000120869F43B00120869613C001208691B
:100D83001C3D001208694E3D00120869923D001295
:100D93000869C53D001208691A3E001208696F3ED2
:100DA30000120869033F00120869653F00120869D1
:100DB300CD3F001208697641001208695E420012B5
:100DC3000869A04300120869CE45001208698E46DF
:100DD30000120869BD4800120869604900120869D9
:100DE3009E49001208694A4B001208695E4B0012C3
:100DF3000869684B00120869924B001208699E4B00
:100E030000120869BD4B00120869744C001208698E
:100E1300B34C00120869BD4C00120869714D0012F1
:100E23000869704E00120869694F0012086906507C
:100E330000120869A85000120869BF50001208691F
:100E4300F650001208691451001208695851001233
:100E530008697D5100120869635200120869CF5274
:100E630000120869495300120869585400120869AE
:100E7300975500120869F95500120869B356001214
:100E83000869D65600120869AA5700120869F5576F
:100E9300001208693758001208698E580012086951
:100EA300C55800120869F358001208692C5900123A
:100EB3000869515900120869D95900120869FC5B85
:100EC300001208695B5C00120869EF5C0012086994
:100ED3005B5D00120869AF5D00120869B6B70312C3
:100EE3000869F5B703120869E2B4011208693CB551
:100EF3000112086998B501120869E4B5011208697D
:100F0300FFB50112086930B6011208694DB6011226
:100F1300086959B601120869CDB701120869E6B725
:100F2300011208694DB80112086960B80112086915
:100F33006EB80112086922B90112086906BA0112D2
:100F430008690CBB0112086992BB011208699CBBBA
:100F53000112086909BC0112086920BC0112086961
:100F630052BC011208698BBC01120869B5BC01129D
:100F7300086916BD0112086936BD0112086954BD1E
:100F8300011208699ABD01120869C0BE01120869FD
:100F93000DBF011208693CBF01120869B2BF0112FB
:100FA3000869DABF0112086913C00112086921C078
:100FB3000112086979C001120869C8C001120869E1
:100FC30007C10112086937C10112086963C101121F
:100FD30008696EC1011208698CC1011208694EC209
:100FE3000112086958C20112086993C20112086903
:100FF300A9C201120869B2C20112086907C301122A
:1010030008691BC30112086929C4011208693CC499
:101013000112086951C401120869F3C40112086975
:1010230076C50112086934C6011208693FC6011268
:10103300086965C70112086981C701120869D3C726
:101043000112086912C80112086927C80112086948
:1010530069C801120869B6CA0112086934CB0112C2
:101063000869A7CB01120869C9CD01120869E1CD4E
:1010730001120869E4CD01120869F0CD0112086973
:1010830004CE011208690CCE011208693FCE011289
:101093000869EFCE0112086965CF01120869D8CF3C
:1010A300011208698CD00112086941D10112086943
:1010B30060D10112086900D2011208690CD2011231
:1010C300086937D2011208693AD201120869A4D219
:1010D30001120869CCD301120869A4D4011208696A
:1010E3002FD50112086948D60112086905D70112E4
:1010F30008693ED7011208696FD7011208690FD832
:10110300011208693FD8011208691AD90112086946
:10111300B3D9011208693EDA01120869EFDA011244
:10112300086971DB01120869A3DB01120869E4DBBA
:1011330001120869E2C20212086947C30212086970
:1011430084C302120869D3C302120869E9C50212F3
:101153000869CCC70212086936CB0212086971CB41
:101163000212086993CB02120869F6CB02120869CE
:101173002ACC021208694DCC021208697ACC0212F9
:101183000869D6CC02120869CCAC021208694AADD0
:101193000212086980AD02120869ECAD02120869F7
:1011A3005FAF021208697BAF02120869C0AF021277
:1011B30008694EB002120869A7B002120869D4B1D7
:1011C30002120869E6B20212086943B302120869FF
:1011D300AFB30212086910B40212086951B40212C3
:1011E3000869FEB40212086910B6021208693BB618
:1011F3000212086986B602120869CDB6021208699E
:101203005FB7021208691AB80212086906AC031222
:10121300086917AC0312086968AC03120869ADAC1E
:101223000312086957AD031208695AB30312086918
:1012330054FE02120869ACFF0212086991B8021247
:10124300086936B90212086956B90212086976B9F3
:10125300021208698AB902120869E2B9021208691E
:1012630012BA0212086993BB0212086939BC02124E
:1012730008691BBD021208696CBD02120869AFBD83
:1012830002120869F2BD0212086958BE0212086907
:1012930079BE0212086905BF0212086936BF02123D
:1012A3000869AABF0212086958C10212086932C24A
:1012B3000212086974C202120869CEC202120869D6
:1012C3007DA8031208699EA803120869D4A9031212
:1012D3000869FEA90312086919F0021208698CF063
:1012E3000212086997F002120869C0F00212086935
:1012F300D5F102120869D6F30212086994F40212B6
:1013030008698FA00212086992A0021208694CA111
:101313000212086977A102120869BEA102120869C4
:10132300E3A10212086904A20212086938A2021298
:10133300086971A2021208699AA302120869D1A36B
:1013430002120869F1A3021208698CA40212086947
:1013530051A50212086988A502120869FDA60212A6
:101363000869A0A70212086999A802120869C2A80D
:101373000212086916A902120869DCA90212086997
:101383000AAA021208699FAB0212086920AC021272
:10139300086953AC0212086922CD021208692CCDE8
:1013A3000212086978CD02120869E6CD02120869B3
:1013B30007CE021208691ECE0212086944A5011263
:1013C300086962D1021208696BD102120869BED1A1
:1013D30002120869E7D1021208694ED202120869A3
:1013E300DFD20212086921D3021208696BD30212F9
:1013F3000869CAD3021208695BD4021208699AD435
:1014030002120869D9D4021208690ED502120869BA
:1014130020D50212086932D5021208693EB00112C2
:1014230008695AD50212086910D60212086950D603
:1014330002120869B48403120869878503120869D4
:10144300A18503120869B28503120869C7870312CD
:101453000869E687031208694BA60312086981A687
:1014630003120869CAA6031208691AA803120869B5
:1014730019DC0112086958DD0112086994DD0112B3
:10148300086953DF011208697CDF011208690FE262
:101493000112086953E201120869DCE301120869C9
:1014A30074E401120869DCE4011208697DE50112A4
:1014B3000869BFE501120869FFE5011208698AE7B7
:1014C30001120869FAE8011208691FEB01120869A1
:1014D3004DEB0112086974EB011208697DEB0112EF
:1014E3000869D8EB011208696BEC0112086989EFEE
:1014F300011208690AF001120869E97F00120869FC
:101503006BB7031208694990031208695C900312D0
:101513000869F990031208693491031208694F911D
:1015230003120869749103120869B99103120869D7
:10153300EA91031208691B9203120869A19303122B
:101543000869CFAE0312086905AF0312086921AF1A
:101553000312086963AF0312086973AF03120869C2
:1015630008B00312086941EB0212086908EC021281
:101573000869BBED02120869CFED0212086974EE27
:101583000212086941EF0212086967F00112086943
:10159300BCF00112086966F1011208690EF201122A
:1015A30008696BF201120869C4F2011208698EF42A
:1015B3000112086909F50112086933F50112086976
:1015C300F0F6011208690BF7011208695AF70112C4
:1015D300086970F7011208697DF701120869ADF710
:1015E30001120869C3F70112086949F80112086971
:1015F30058F801120869B1F8011208690BF90112D0
:1016030008695DF90112086967FA01120869E9FCC2
:101613000112086983FD01120869C5FD01120869F9
:101623005AFE0112086977FE011208697AFE011257
:1016330008697DFE01120869F0FE011208690BFFBB
:101643000112086937FF0112086972FF0112086964
:1016530075FF0112086988FF01120869AFFF0112C3
:101663000869B8B503120869C4B503120869FEB561
:1016730003120869BE9002120869E9900212086910
:10168300B591021208693A9202120869A3920212F2
:101693000869EF92021208696E93021208690094B6
:1016A300021208698C9402120869CE940212086926
:1016B3003A9902120869BA9A02120869F99A02124F
:1016C3000869C29B02120869769C02120869269E69
:1016D30002120869B29E02120869008002120869A8
:1016E300BA80021208692C81021208693B81021236
:1016F3000869B581021208692482021208692E83DF
:1017030002120869578302120869F78302120869F3
:10171300458402120869B58402120869E985021238
:101723000869C58602120869368702120869B388F8
:1017330002120869758902120869108A021208697F
:101743006B8A02120869D68A02120869DA8B0212BE
:1017530008699B8D021208693A8E02120869AC8EE1
:1017630002120869698F02120869019A0312086953
:10177300559A03120869AD9A03120869F89A03127D
:1017830008695A9B03120869F39B031208695B9C5F
:1017930003120869679C03120869F5A30312086919
:1017A30026A403120869E0A40312086946A50312DC
:1017B3000869B7A503120869309403120869BC9538
:1017C300031208694DB4031208695EB40312086971
:1017D300FEB4031208694EAA031208695CAA031235
:1017E30008694AB9031208693BB6031208694BB684
:1017F3000312086966B603120869AEB603120869D4
:1018030058B203120869DDB20312086941B3031227
:101813000869DFFF01120869E2FF01120869B5DFF9
:1018230002120869C3DF0212086904E002120869A0
:1018330025E002120869AFE002120869D1E0021242
:1018430008693DE10212086958E10212086973E16F
:10185300021208697DE10212086987E10212086930
:101863009AE102120869B3E1021208694FE2021217
:1018730008690BE30212086982E302120869FCE3B8
:101883000212086962E4021208693F8903120869B7
:101893004D8903120869C78903120869AB8A0312C9
:1018A3000869648C031208690AB9031208690CE613
:1018B3000212086979E6021208693AE70212086916
:1018C300AAE702120869B3E8021208692BEA0212B6
:1018D30008698FEA02120869E4EA02120869EDEA6C
:1018E30002120869FCEA021208690FEB0212086986
:1018F30025EB021208692EEB02120869E3F40212C7
:10190300086938F50212086934F70212086966F7A4
:101913000212086988F702120869A1F7021208691E
:10192300BAF702120869C4F8021208695FF90212D1
:1019330008696EAD0312086992AD03120869ABAD75
:1019430003120869DEAD031208690FAE03120869BA
:101953003DAE031208699FAE03120869AEAE0312CF
:101963000869B8AE03120869C5AE03120869A29CE0
:1019730003120869C89C03120869059D03120869CC
:10198300149D03120869339D031208699B9D03127A
:101993000869A49D03120869039E03120869279E20
:1019A30003120869E69E03120869F39E031208698D
:1019B300049F0312086943B80312086960B803124D
:1019C3000869D6F90212086934FB0212086941FB5F
:1019D3000212086954FB0212086973FB02120869B8
:1019E30089FB021208699DFB0212086912FC0212AC
:1019F300086977FC0212086927FD02120869FCFDD9
:101A0300021208690CFE021208691BFE0212086921
:101A13001FB50312086943B5031208696BB50312B6
:101A2300086993B503120869329F03120869599F25
:101A3300031208697A9F03120869DF9F031208697A
:101A430098A103120869B1A103120869BDA1031289
:101A53000869D1A103120869EFA103120869F9A16A
:101A63000312086903A20312086916A20312086984
:101A730069A203120869A2A203120869D1A2031280
:101A830008691FA3031208696EA30312086989A3D7
:101A93000312086993A303120869A4A30312086934
:101AA300EAA3031208691AB70312086979D6021266
:101AB3000869A3D602120869BFD602120869D2D6F2
:101AC30002120869E8D60212086945D702120869AA
:101AD30078D702120869B4DB02120869DADC021251
:101AE30008690DDD0212086959DD0212086985DEF5
:101AF30002120869ADDE02120869C2DE0212086929
:101B0300D2DE0212086916DF0212086977DF0212B9
:101B1300086987DF0212086912B0031208692DB041
:101B23000312086956B00312086970B003120869FA
:101B330095B003120869B4B003120869CCB003125C
:101B43000869FAB00312086914B103120869FFB7F0
:101B530003120869C98C03120869D08C031208693F
:101B6300DC8D031208690C8E03120869328E03128E
:101B73000869558E03120869778E03120869B18EBE
:101B830003120869178F03120869508F031208693B
:101B93009C8F03120869C98F03120869E98F031226
:101BA30008695C7E001208696E7E00120869597F1D
:101BB30000120869E67F0012086945B1031208693B
:101BC300B7B103120869F5B10312086936B20312FB
:101BD3000869E19603120869FD96031208694C9798
:101BE3000312086968970312086999970312086931
:101BF300A997031208699598031208699F9803121D
:101C03000869AC9803120869BC9903120869D09952
:101C130003120869D999031208690080031208693D
:101C23004584031208694A8403120869B5B803128C
:101C330008697FB803120869E2B8031208692CB96E
:101C430003120869B7B60312086918A401120869D8
:101C53006CA301120869BDA101120869789F0112E2
:101C63000869FF9E01120869A69E011208693A9E3F
:101C730001120869119E01120869049C0112086986
:101C8300D09B011208699D9B01120869819B011277
:101C93000869A79A011208695F9A01120869949862
:101CA3000112086914980112086911980112086950
:101CB300189701120869E696011208692396011222
:101CC30008694E9401120869DF9301120869EFADA8
:101CD30001120869F8AC01120869DCAC0112086949
:101CE30088AC0112086940AC01120869B193011272
:101CF3000869AE93011208699B9301120869339333
:101D0300011208697EAB0112086922930112086966
:101D1300039201120869CD91011208699091011291
:101D23000869319101120869F1AA01120869E4AA4C
:101D33000112086951D5021208690091011208695C
:101D4300BB8D01120869AC8C011208693B8C01122E
:101D53000869008C01120869CB8B01120869BF8BDB
:101D6300011208691F8B01120869668A011208694A
:101D7300398801120869C585011208698385011232
:101D830008694E84011208690384011208693583C6
:101D9300011208698C8201120869288201120869FC
:101DA300628201120869F2A701120869CECE02000D
:101DB300000080FBE473000000000000000000004E
:101DC3000000000000001010101010100000303050
:101DD3000000001428500000000000000000000074
:101DE3000000002828FC284850FC50500000000048
:101DF3001038545430181454543810000000004460
:101E0300A8A8B0541A2A2A44000000000020505009
:101E130060ACA898927C000000606020C0000000C5
:101E2300000000000000000408081010101010103B
:101E33000808040000004020100804081020400097
:101E430000000000001010D63838D6101000000033
:101E5300000000101010FE10101000000000000021
:101E63000000000000000000606020C000000000CF
:101E73000000FC0000000000000000000000000063
:101E83000000000060600000000204040408081061
:101E93001020202040000000003048848484848483
:101EA3004830000000000010701010101010107C5B
:101EB300000000000038444404081020447C000063
:101EC300000000384444180404444438000000006F
:101ED300080818284848887C081C00000000007C7B
:101EE300404078440444443800000000003C4480EF
:101EF300B8C48484847800000000007C444808103F
:101F03001010101000000000007884844878848446
:101F130084780000000000788484848C740488F042
:101F230000000000000000303000000030300000EE
:101F3300000000000000100000000010102000004E
:101F430004081020402010080400000000000000D6
:101F530000FC0000FC00000000000000402010080E
:101F630004081020400000000000788484840810D6
:101F730010003030000000000038449AAAAAAAB426
:101F8300423C00000000001010282828384444EE8A
:101F93000000000000F844447844444444F800003E
:101FA3000000003C448480808080443800000000AE
:101FB30000F048444444444448F00000000000FC5E
:101FC30044404878484044FC0000000000FC424084
:101FD3004878484040E000000000003C4484808092
:101FE3008E8444380000000000EE4444447C4444A2
:101FF30044EE00000000007C101010101010107C44
:1020030000000000007C101010101010101090E061
:10201300000000EE44485070484844EE00000000C1
:1020230000E040404040404044FC0000000000EE1F
:102033006C6C6C54545454D60000000000EE64647D
:102043005454544C4CE40000000000304884848411
:10205300848448300000000000F844444478404041
:1020630040E00000000000304884848484B4483891
:102073000C00000000F844447850484844E600004F
:102083000000003C44402018040444780000000091
:1020930000FE92101010101010380000000000EE27
:1020A30044444444444444380000000000EE4444A3
:1020B3002828282810100000000000D65454545437
:1020C3006C2828280000000000EE44282810282847
:1020D30044EE0000000000EE4428281010101038D1
:1020E30000000000007C88081020204044FC000011
:1020F300001C101010101010101010101C00007095
:10210300101010101010101010107000007010102C
:102113001010101010101010700000102800000094
:1021230000000000000000000000000000000000AC
:102133000000000000FE00606020C00000000000FE
:102143000000000000000000000038441C24443E4E
:102153000000000000C0404078444444447800003C
:102163000000000000003C444040443800000000F0
:10217300000C04043C444444443E000000000000BE
:10218300000038447C40443800000000001C242038
:10219300F8202020207800000000000000003C48C8
:1021A300483040784438000000C0404058644444FC
:1021B30044EE000000000010000070101010107CAE
:1021C300000000000008000038080808080808702C
:1021D300000000C040405C48507048EC0000000024
:1021E3000070101010101010107C00000000000090
:1021F3000000F854545454D60000000000000000BE
:10220300D864444444EE0000000000000000384459
:10221300444444380000000000000000F8444444F3
:10222300447840E00000000000003C444444443C47
:10223300040E000000000000EC30202020F8000015
:102243000000000000003C44300844780000000017
:10225300000010107C101010100C00000000000093
:102263000000CC444444443E000000000000000051
:10227300EE44282828100000000000000000D65477
:10228300545428280000000000000000DC483030CF
:1022930048EC0000000000000000EE442828101065
:1022A30020E00000000000007C481010247C0000A7
:1022B300101010101010101010101010101000013A
:1022C300363601010001020100010301000104018E
:1022D300060605020000070100340801000F090487
:1022E30001010D0100FF0E08000017020000190193
:1022F30000FF1A0100011B0100FE1C0100081D0262
:1023030000001F0100012001000121020000230140
:10231300000F240200002601000127010008280203
:1023230000FF2A0100072B0102402C0100002D01B0
:1023330000012E0100012F0100FF30010B1C3108A9
:1023430000003A0100083B01000F2F0100000302C7
:1023530071023001600211027002010202020202E4
:102363008002100261023A004100630273027202AA
:102373006202430200021302380000020002040258
:1023830012020002000200020002040204023700EB
:1023930037003C02440200023900000200026502D9
:1023A300000235028102000205028202830200025A
:1023B300030071003001600011007000310220033E
:1023C30050048000100061000000140063007300DB
:1023D30072006200430000001300060000000000CA
:1023E30004001200000000000000000004000400CC
:1023F300370037003C0244000000000000000000EA
:102403006500000035008100000005000000830026
:10241300000001037103010301030103010301032D
:10242300220302030103100300030003000300035C
:102433000003000300034203000324030603000315
:1024430000030403120325032303250323030403C7
:1024530004030003000300034403000300032303F6
:102463000003650321003503810300030503000313
:1024730000030003010171010101010111010101C7
:102483003101010101018001100161013B001400D0
:10249300630173017201620143010001130106012B
:1024A3003D0135000401120100010001000100019A
:1024B30004010401330133013C01440132013600BC
:1024C30000010001650100013500810100010501E2
:1024D30082018301000136000100060000000F00A5
:1024E30000000000000000000000000003FFFF00E8
:1024F300000403FFFF0000FFFF0FF4010005C40405
:102503000320000100030B00000000000000000393
:10251300010F0100161702008C1603009216040027
:10252300981605009E160600AA161100C21614007E
:10253300C8161500BC16FFFF0000840FB40F8A0FE6
:10254300900FAE0FA20F9C0FBA0FC00FC60FD20F82
:10255300960F7E0F780F03EAF5E5D5D5C5B5A5959A
:102563009585857575656555554545353525251518
:1025730015050A500D021A0D052C0D07200D0CFC34
:102583000C0D0E0DFF000000160F00000B150B02C3
:102593000002220F320000066E10801086104E0FCC
:1025A3008C10480F540FCE10EC10F210D410E01022
:1025B300DA1000034948424D18172505020C0E0294
:1025C3000B040B0A0708000F00011916181616153D
:1025D30023030000383C3E363B3B352B432C303045
:1025E30016181920231A1C1E3030301718192130E1
:1025F3001B1D1F30A80FCC0FE610D80FDE0FC21023
:1026030092109810A4109E10020402010101010906
:102613000200000000000000BE040A0E00150004C2
:10262300002800050C0A030908FF1E1E0F040410EE
:102633000C74F712037AE99003B0F0900365E4F0A9
:10264300121BA29003B5E4F0A3F09003B1F0A3F042
:10265300120E88121BA8900334E4F0A3F090262FE7
:1026630093FA7902121C080252CA74F212037AEA2C
:10267300FEEBFF548060699003B0E0F91213DA8A2D
:10268300088B09EA4509604F7C0080010CEC75F06A
:1026930003A4F8A9F0747528F582742539F583E449
:1026A30093F4602CE493F88508828B83E06870DCF4
:1026B300AA08EC75F003A4F8747628F5827425391A
:1026C300F583E493C0E0740193F583D082121DB7C0
:1026D300AA08AB091213CEEEFAEF6480FB02283A84
:1026E300EF5420601D120DAA8A088B09EA45096080
:1026F3000A120D0EAA08AB091213CEEEFAEF6420EC
:1027030080DAEEA2E0501A90036AE0640F700B794E
:1027130000120CD8E9600312283DEE6401FAEF8041
:10272300BB54207003022808750C00123D0F8B095F
:10273300EA450970107C027D007A207B009003B08B
:10274300E0F91215247C0079047A007B00120D86CF
:102753008A088B098018850882850983A3A3A3A30C
:10276300A3A3A3A3A37401F0850A08850B09E508B5
:102773004509606D7C007904AA08AB09120D868AAD
:102783000A8B0B750C01E5082404F8E509123AB32A
:1027930024FFF0A3E034FF125DA670CC8508828588
:1027A3000983A3A3A3A3A3A3A3A3A3A3E064017087
:1027B300A5850882850983A3A3A3A3A3A3E0540447
:1027C3007094850882850983A3A3A3A3A3A3A3A3CA
:1027D300A37406F07AB78508828509831229698074
:1027E30087120D567C0079017A007B00120D868BCF
:1027F30009EA45097009E50C70057A20124C69EE67
:102803006420022720EF5402600B120E82EEFAEFCF
:1028130064020226DFEF54046019124E00124D20A9
:102823007901900363125084120C1EEEFAEF6404D4
:102833000226DF7A007B00022A70900CF212310725
:10284300120CF022C082C08374EA120948851882F0
:10285300851983AA82AB83794B121BDE7408120B92
:10286300277402F07409120B27AA82AB83795012E2
:102873001BDE7413120B27E4125253121BFC741643
:1028830002422D74F712037A74E1120948EAFEEB4F
:10289300FFEE4F6033851882851983AC82AD8312B6
:1028A3000DCE7406120B27E0601E7417120B27E07F
:1028B300FD7401120B27E0FCEEFAEFFB7900120B1B
:1028C30046E9600479A4800279000252C574F612C5
:1028D300037AEAFEEBFF8E828F83A3A3A3A3A3A3B2
:1028E300E05440601B125742122A3760067AFF7B7E
:1028F300FF801A8E828F83123EB9FAA3E0FB800316
:10290300120DF274FE6A700374FF6B60411257423A
:10291300124CAD120E46E98E828F83600612296235
:10292300E480051229627401F07CDE7D0C8E828FB7
:1029330083125084121C02E9F5087015EE4F6009EA
:102943007901EEFAEFFB120D62A908024CDE75085D
:10295300CDAA088E828F83122969E960DF80EAE0BD
:10296300240D12438822E0240C124388E0F9120C50
:10297300EA2274F612037AE9FEEAFF7A0F7B001269
:1029830013C8EA4B60198A828B83740CF0EEA3A3FD
:10299300F0EF8A828B83A3F0124D097900802FEE2A
:1029A300F9120D8C8A088B09A808A909E849601C4B
:1029B30088828983A3A3A3A3A3A3A3A3A3740612B7
:1029C30059CDE0F9120CA2EEF9120D687910024C00
:1029D300DEC082C08390036AE0640F7014EA4B6028
:1029E30010900365E064086005E064047003122935
:1029F300F7024257EAFCEBFD7A017B009003B0E05B
:102A0300F912151E22C082C0837900EA241DF582C3
:102A1300EB123EB624FD600B14600824FD60042411
:102A2300FD7001090242578E828F83A3A3A3A3A340
:102A3300A3A3A3A3122A3B22123EFEFB120E46E9D6
:102A4300228E828F83A3A3A3A3A3A3A3A3A3122A48
:102A53003B6402228E828F83A3A3A3A3A3A3A3A376
:102A6300A312424E900356E068221208B47F060276
:102A730005DB74F412037A74FD1209488A088B0982
:102A83008A828B83A3A3E0F9120D8C8A0A8B0BAE87
:102A93000AAF0BEE4F7003022B7C850882850983F6
:102AA300A3E064F16030850882850983A3E064CDE7
:102AB3006024850882850983A3E0641A6018850869
:102AC30082850983A3E064E9600C85088285098314
:102AD300A3E064E170087900120D62E9706C850867
:102AE30082850983A3E0C0E07402120B27D0E012B1
:102AF3004232EEF0A3EF12355D851882851983AA61
:102B030082AB837005120C068003120E2E74021220
:102B13000B27E064E970338E828F83122B88750A4A
:102B230001780A1208A5750AE9780A1208A5E508CA
:102B3300240CF582E50912304F12353AFCA3E0FD6F
:102B43008A828B831235541208B48E828F83A3A397
:102B5300A3A3A3A3A3A3A3E0640270108E828F8315
:102B6300A3A3A3A3A3A3A3A3A37406F085088285A9
:102B73000983A3A3E0F9120D68120D56900CF61207
:102B8300284002310CE0F8A3E0F9E8FAE9FB2274EB
:102B9300F412037AEAFEEBFF7508008E828F83A39B
:102BA300A3A3A3A3E060427508088E828F83A3A327
:102BB300A3A3A3A3A3A31241618B0BEA450B60104C
:102BC30075082C8E828F83A3A3A3A3A3E0D2E0F086
:102BD3008E828F83A3A3A3A3A3E0540364016003A2
:102BE300022C7B430811022C7BEE2418123119604E
:102BF30033EE241A123119700F122A577003A3E00F
:102C03006970757508228070EE241BF582EF122C13
:102C130080241AF582EF123565EE241912577612C5
:102C23000C908054122A447003750801122A5770BD
:102C330003A3E0697006E508D2E1F508E50860152D
:102C43008E828F83A3A3E07006E508D2E58004E5B6
:102C530008D2E6F508122A2A64017006E508D2E0D4
:102C6300F5088E828F83A3A3E0600D122C8E64017E
:102C73006006E508C2E0F508A908023111123EA476
:102C8300122C8722E0FCA3E0FDEE22123E9E123EB0
:102C9300D6F9120E34E922C082C08379018A828B6D
:102CA30083A3A3E0C394024001198A828B83A3A365
:102CB300A3A3E0C39402400279008A828B83A3A377
:102CC300A3A3A3A3A3A3A3E064F87003A3E0F46006
:102CD300458A828B83A3A3A3A3A3A3A3A3A3E06493
:102CE300F97003A3E0F4602E8A828B83A3A3A3A3CA
:102CF300A3A3A3A3A3E064FA7003A3E0F460178A79
:102D0300828B83A3A3A3A3A3A3A3A3A3E064FB70C6
:102D130003A3E0F4700279008A828B83A3A3A3E068
:102D2300F8900353E0686002790002425774F0128E
:102D3300037A74DE120948EAFEEBFF8E828F83A3C7
:102D4300A3A3A3E0600E900CF4124CD56006900C84
:102D5300F41228407403120B27AC82AD838E828F4A
:102D630083A3A3A3124D57125590E9600F74031266
:102D73000B27AA82AB83120D08E970087901121B95
:102D8300B4023044EE241B123EA97410120B271216
:102D93004D207409120B27E06021741A120B27E0EF
:102DA300FD7404120B27E0FC8E828F83125082790C
:102DB30001120B46E96004790280C37403120B27E6
:102DC300AA82AB83120D02E9F50A7409120B27E0FC
:102DD300702A90034DE060247422550A6422601C1B
:102DE3007442550A644270CF7420120B271230626A
:102DF300600A7420120B2712305B70BBE9A2E65005
:102E0300417403120B27AA82AB83120CF6E97003F9
:102E1300022D7F7420120B27123EB96403700F74C6
:102E230020120B27A3124CC7A3E0640D6014740394
:102E3300120B27AA82AB83120E58E96401700302B6
:102E43003044EE242C12304C1233707003A3E0692B
:102E5300701C75080078081208A578081208A5EEFA
:102E6300242E1257761230681235541208B474099E
:102E7300120B27E07003022F2112306812508412C4
:102E83000EAC8A088B09EA45097003022FBE74044D
:102E9300120B27E0F88E828F83A3A3E028F8A3E028
:102EA3003400F9E8240D1230538A828B83A3A3A341
:102EB300E068601CE88A828B83A3A3A3F09081EE71
:102EC300120B04850882850983A3A3A3A3120B1005
:102ED3007904E9120B2712556D2AF8A3E034008810
:102EE30082F583A3AA82AB831213B68A0C8B0D8C53
:102EF3000E8D0F850882850983A3A3A3A3780C12E3
:102F030008044003023044908216780C1209D785D6
:102F13000882850983A3A3A3A3780C120ACC900388
:102F230065E064046008E064096003023044E50A74
:102F3300A2E54003022FFCEE242E123119851882DC
:102F4300851983F0EE242F123119C0E07401120B9E
:102F530027D0E0F0EE2430123119C0E07402120BD6
:102F630027D0E0F07414120B27E064017027740E6D
:102F7300120B27123EAFEE2412123119687003A30D
:102F8300E0697011740C120B27122A517007741424
:102F9300120B27E4F0EE242412304C1206CC7404F6
:102FA300120B27AC82AD837407120B27AA82AB8363
:102FB300120C0C74041208B40230449003AAE064A7
:102FC300016003022F217420120B27123062700953
:102FD300E50AA2E65003022F217410120B27E0F436
:102FE3007003A3E0F4605AEEFCEFFD7403120B27A9
:102FF300AA82AB83120D148048A2E65044742012B7
:103003000B27125093701A741A120B27E064027084
:10301300307403120B27AA82AB837900120E22802D
:10302300207420120B2712305B7016741A120B27B0
:10303300E06404700C7403120B27AA82AB83120E94
:103043001C742202543FEE240BF582EF123EA4229D
:10305300F582E9124D39F822125754E0640722121F
:103063003ED6640622EE242A123EA1122C87241295
:10307300123EA12274F412037AEAFEEBFF8C088D50
:10308300099005DAE0600F122A577003A3E0697014
:1030930005120C7E804F7900125077120CAE8A8293
:1030A3008B83E58245836035A3A3A3A3A3A3E05445
:1030B30018602AE508241BF582E50912304F120631
:1030C300D012374D12304F1206D0EE241812577615
:1030D3001230EA120CC074041208B480087900128A
:1030E30030EA120C8480278E828F83A3A3A3A3A329
:1030F300A3A3A3A3122C87240BF582EF123103227F
:103103003400F583123EFEFB2274031208B47F04DD
:103113000205DBEE2417F582EF124D392274F71204
:10312300037A74F7120948EAFEEBFF900365E06443
:1031330003600DE064016008E0640960030231EAA2
:103143008E828F83A3E0707E7C007D007A027B00F9
:10315300121BAEEE2402FAEF123ABA123EAF9003FC
:1031630056124D207953121BE479001231EFE064BB
:103173000960031235828518828519837401124C04
:10318300F69003657404F07401120B27AA82AB83D3
:10319300794A121BDE7401120B27AC82AD837A5B72
:1031A3007B03121BCC9003561255867A0312358C7F
:1031B300900350E0A2E35004D2F08002C2F0124C1C
:1031C300E312283D801E8E828F83A3AE82AF83FCE1
:1031D3007D007A037B10121BAE8E828F83E0F9127F
:1031E30031EFE4F0120D3E74090252C790036312EB
:1031F3003107120C1E90036522C082C083900334F2
:10320300124CD5701F900365E014600924FC600A1A
:1032130014600C800F90033C8032900338802D9013
:10322300033A8028E8496008900335123534700C5E
:103233008A828B83A3E0F9120C12801B9003351250
:1032430037E97005120E76800E9003D2124CD560CA
:1032530006124CC7121DB702425774F412037A7454
:10326300FB1209488A088B097A0F7B001213C88A5C
:103273000A8B0BAE0AAF0BEE4F70030233648E82E0
:103283008F831252517950121BDE85088285098380
:10329300A3E0600302334C900363E0F47003A3E004
:1032A300F46034900363E064FE7003A3E0F46027EA
:1032B3008518828519831233707003A3E069601740
:1032C300850882850983A374EA12356A7A637B03CE
:1032D3007950121BE4807285188285198312573541
:1032E300124D207A567B037953121BDE900356123C
:1032F3004D51124D207A597B03794B121BDE7A58BC
:103303007B0379E1121BDE90036AE0C3940F502123
:10331300900358E0C0E07402120B27D0E0F074046D
:10332300120B277401F004120B27AA82AB83121B22
:10333300F6750A00780A1208A5780A1208A5900DF6
:103343001EE0F912354B1208B485088285098312F1
:103353003369A3F09003657403F0EEFAEFFB124DAB
:1033630009740502310EA3E08E828F83221257392E
:10337300E0682212438F2274F512037A74D812097B
:10338300488A088B098A828B83A3A3A3123EDB742A
:1033930015120B27AC82AD838A828B83A3A3A3A3CD
:1033A300A3A3A3A312353AFAA3E0FB120D447415A9
:1033B300120B27E0706B850882850983A3A3A3A35F
:1033C300A3A3A3A3E0C3940B40578E828F83A3A32D
:1033D300A3A3A3A3A3A3E064027046EE240B1231BC
:1033E30019F4703D900365E06402603AE06406609E
:1033F30035900334124CD56005123534604F900379
:1034030065E064086005E0640470167417120B2706
:10341300E0F9741C120B27AC82AD83125077120DA6
:103423004A7428025C53900334124CD5701F7508FC
:103433000078081208A578081208A5EE24101230A7
:103443004C12578E123BA21235541208B48E828F3F
:1034530083124FF3123ACC123EAF7402120B2712AF
:103463004D20EE240D123119C0E07404120B27D045
:10347300E012355DF508A3E0F509740F7808120A28
:10348300BD7405120B27E508F07419120B27E0C071
:10349300E07406120B27D0E0F0741B120B27E0C078
:1034A300E07407120B27D0E0F07416120B27E0C06C
:1034B300E07409120B27D0E0F07417120B27E0C059
:1034C300E07408120B27D0E0F0EE2410123119C07B
:1034D300E0740A120B27D0E0F0741A120B27E0C035
:1034E300E0740B120B27D0E0F07427120B27E0C017
:1034F300E0740C120B27D0E0F0741C120B27A98286
:10350300AA8389088A09750A00780812089D7C082D
:103513007D007410120B27AA82AB83124884120811
:10352300B4851882851983AA82AB83120C180234DE
:10353300241237EF640122E0F98A828B83A3A3A3C9
:10354300A3A3A3A3A3A3E02290036312558A90032A
:1035530059123107120E04740222F0EE240B124D9D
:103563003622124D39FA22F07A567B0379531235FB
:103573007522121BE47A597B03794B121BE42290C8
:103583000363123107120EA6227B00121BAE9003B7
:103593005912558A7A047B00121BAE22F0125799F6
:1035A3002274F212037A74F8120948EAFEEBFF8CD4
:1035B3000A8D0B890C851882851983AC82AD8375BE
:1035C300838175829B74081207C4F50DEEFCEFFD31
:1035D300851882851983AA82AB83124F54700375B1
:1035E3000D019003B1803BEEFCEFFDE508240BFADF
:1035F300E5093400124F53601E850882850983A3B1
:10360300A3E0650C7011850882850983E0650A7063
:1036130004A3E0650B6038E5082414F582E509127C
:10362300304F123AC4E50845096024E50DA2E04095
:10363300B6850882850983E0650A7004A3E0650BFB
:1036430070D5850882850983A3A3E0650C70C8AA99
:1036530008AB097408022A6DC082C0839003B102CB
:10366300425474F712037A9003B1123EFE8012EAB9
:103673002414F582EB12304F123EDB12146AEEFA79
:10368300EFFBEA4B70E99003B1E4F0A3F00252CAF6
:103693007F070205DB74F112037AEAFEEBFF890A66
:1036A3008C088D098E828F83E08C828D8312416B0F
:1036B300AE82AF83E01249441248B5C412494412A2
:1036C3003756E054038C828D831248B3A2E2E4336D
:1036D3008C828D831248B2131313541F1249441260
:1036E30048B1A2E7E4338C828D83A3A3A3A312374B
:1036F300568E0C8F0D750E00780C12089D7C087D7C
:1037030000E50824071254F91208B41255648E0C0C
:103713008F0D780C12089D7C037D00E508240F12A1
:1037230054F91208B4E50AC3940F40148E828F83B0
:10373300A3A3A3E0C0E012374D12304FD0E08006C0
:1037430012374D1259C1F0023693E5082412F5825F
:10375300E50922A3A312416F0EAF832274F412036F
:103763007A74F9120948EAFEEBFF890890033412D0
:103773004CD5600E1237E97009EEFAEFFB120E70AA
:10378300805F900363E06E7003A3E06F7053740176
:10379300650860097A777B03124F5470447A007B83
:1037A30002123D138B0BEA450B7036900366120B26
:1037B30004851882851983120B1090036CE0C0E016
:1037C3007404120B27D0E0F07405120B277401F078
:1037D3007406120B27125251120BE2E9609B120B73
:1037E300E8740702310E1237EF640222125755A311
:1037F300A3A3A3A3A3E02274F512037A8A088B0977
:103803008A828B83A3AE82AF83E0F9120C368E8259
:103813008F83E064EB600C850882850983A3E064F1
:10382300E17009850882850983A3E4F012283D75B8
:103833000A01780A1208A5850882850983A3E0F5A1
:103843000878081208A5790012354B1208B4120D36
:1038530056025C56EAF0A3EBF002425774F61203E9
:103863007A9003B4E0701B7C0079017A007B00122C
:103873000D86EA4B600C8A828B83124CD56003124F
:103883000CE4024CDEC082C083123CFB401079FF83
:10389300120D80E9F8902633E493C398500479011C
:1038A3008002790002425774F012037A8A088B0966
:1038B300890B750C008A828B83A3A3A3A3A3A3A361
:1038C300A3E0F9120D8C8A0E8B0FAE0EAF0F750AA3
:1038D30001EE4F6003023988850882850983A3A31B
:1038E300A3A3A3A3125586850882850983A3A3A353
:1038F300A3A3A3A3124684125084120D748A0C8BC3
:103903000DAE0CAF0DEE4F7003023AAB8E828F8378
:10391300A3A3A3A3E4F0A3F0E508240B123AB7E0B2
:10392300C0E0123049D0E0F0120E4CEE240CF582C8
:10393300EF124CA9E508240EF582E509123EACEE20
:10394300240EF582EF124D1D750C01EE2406F8EFDF
:10395300123AB3547FF0A3E054FC1257EBE0540443
:103963006003023A0E900CFA124675740778081237
:103973000A498E828F83A3A3A3A3A3A3E04508F0E0
:10398300A3E04509F08E828F83A3A3A3A3123AC2B7
:1039930074077808120ABDE5085407F508E50B60BB
:1039A3007A8E828F83A3A3A3A3A3A3A3A3A3740247
:1039B3001248B6240D124384E0A2E2500B90035147
:1039C300124D51A3A3124D20E5087003023A80EE75
:1039D3002406F8EF3400F9E8FAE9FB8A828B83E0E6
:1039E300547FFCA3E054FCFDE50824FFF508E43410
:1039F300FFF50974077808120A49EC4508F8ED4504
:103A030009F98A828B83124D2080728E828F83A361
:103A1300A3A3A3A3A3E04480023987E50870057537
:103A23000A0080598E828F83A3A3A3A3A3A3E05488
:103A33002060121213C2EA547F245F8E828F83A305
:103A4300A3A3A380238E828F83A3A3A3A3A3A3E013
:103A53005410600A1213C2EA540F240A80DD8E82C6
:103A63008F83A3A3A3A37401F0A3E4123ACC740439
:103A7300123D0A8B09EA45097003124C9CE50CA21E
:103A8300E050288E828F83A3A3A3A31252B7F9EE2B
:103A9300FAEFFB120D7AE96012124CCB6003123E6F
:103AA30094EEFAEFFB12146A750A00A90A02544253
:103AB300124E1422FAE5093400FB8A828B8322A377
:103AC300A3E0F508A3E0F50922123AD02212551516
:103AD300A3A3A3A3A32274F412037A74F7120948CD
:103AE3007E00120D8CEA4B7003023B9B8A828B8310
:103AF300A3A3A3A3A3A3A3A3A3E064066003023B1E
:103B03009B8A828B83A3A3A3A3A3A3A3E0FF8A829D
:103B13008B83124397E0C0E07408120B27D0E012A6
:103B23003ECF124F5A124D20120D9EEF540860667D
:103B33008518828519831255867A007B00120D6ED3
:103B43008B0BEA450B704F900363123FBF121C0EA1
:103B53007C007D007A007B0080288E828F83123E5A
:103B6300B9F47003A3E0F4602D900363123BA21237
:103B73005084121902E9641A601C7C007D00EEFA7D
:103B8300EFFB120D6E8A0A8B0BAE0AAF0BEE4F7072
:103B9300C97900121C147E01EEF9740902310E1268
:103BA3003BA622E0FCA3E0FD8E828F8322C082C06D
:103BB30083EA4B70059003B580068A828B83A3A3A7
:103BC300123DBF60258A828B83A3A3A3A3A3A3A3D0
:103BD300E0540860E5EC4D60158A828B83123EB990
:103BE3006C7003A3E06D70D280047A007B00024204
:103BF3005774F212037AEAFEEBFF890A8C088D09E7
:103C03007A107B00121464EA4B603F8A828B83A391
:103C1300A3A3A3A3A3A3A3A3E4123EBDA3E50A12F4
:103C2300575BA3123C578A828B83A3A3A3A3E4F01D
:103C3300A3123EC9A3F01255EFEA240CF582EB124E
:103C4300415B123C50A3A3F0A3F0022A70A3F08AB5
:103C5300828B8322A3A3E508F0A3E509F02274F481
:103C630012037AEAFEEBFF89088C0A8D0BEE4F6094
:103C7300557401650870147901120D80E9F89026D6
:103C83002BE493C398500F7911806A74046508700C
:103C93002F123CFB40F18E828F83A3A3A3A3A3A384
:103CA300A3A3A3E50812416BA3125CE08E828F836A
:103CB300A3A3E4F0A3F09003B5124CD56021800DCB
:103CC3007402650860D079C1802BE0F8A3124D4AD5
:103CD300A3A3123DBF88828983A3A370ED800390C1
:103CE30003B5EEF0A3EF123D0A8B0BEA450B70030D
:103CF300124C9C79000231117904120D80E9F8907D
:103D03002626E493C39822F0123D0F227A207B00EB
:103D13009003B0E0F912153022C082C083E9F8792C
:103D2300009003B5801D8A828B83A3A3A3A3A3A3BF
:103D3300A3A3A3E068600574FF687001098A828BFE
:103D430083A3A3123DBF70DE02425774F712037AB6
:103D5300EA4B70059003B580068A828B83A3A31276
:103D63003DBF60248A828B83A3A3A3A3A3A3A3A39E
:103D7300A3E06970E4EC60148A828B83E0240D1263
:103D83005577A2E240D380047A007B000252CAC076
:103D930082C0839003B580068A828B83A3A3123DDE
:103DA300BF60128A828B83A3A3A3A3A3A3A3A3E0CD
:103DB3006970E580047A007B00024257123107EAFA
:103DC3004B2274F212037A8A0A8B0B8C0C8D0D75BD
:103DD3000800750900EA450B602E9003B580068E36
:103DE300828F83A3A3123E12601EAC0CAD0DEEFABC
:103DF300EFFB850A82850B83121DB7E9640170DF2F
:103E0300EEF8EFF988088909AA08AB09022A70E0DD
:103E1300FEA3E0FFEE4F2274F712037A9003B5126C
:103E23003EAF7C007D00800DE8FCE9FD888289833C
:103E3300A3A3123EAFE8496030EA687002EB6970F1
:103E4300E79003B5125084E86A7002E96B888289AF
:103E530083A3A37008123EAF9003B58009123EAF4F
:103E63008C828D83A3A3124D200252CA74F71203CE
:103E73007AEAFEEBFFEE4F6015120D98123EE11247
:103E83004CCB6003123E94EEFAEFFB12146A02521B
:103E9300CAEE240C123EA1123EF622EE241DF58238
:103EA300EF3400F58322F582EF123EA412424E2234
:103EB300F582EF123EA4123ED622123EC1221257C1
:103EC30063A3A3A3A322123EC1A3A322123C5112B4
:103ED3003ED62212574EE022E0FEA3E0FF228E825E
:103EE3008F83E0241C124388123EF68E828F831246
:103EF3003EF622123EFEFB12146A22E0FAA3E022EF
:103F0300C082C083EAFCEBFDEC4D7004790580446C
:103F1300EC24FBF582ED34FF124CD37007123F5AA9
:103F2300E0F460051213CE80E39003B0E0C0E0122A
:103F33003F5AD0E0F0902628E493F97AB77B031236
:103F430013F8E96401700B7A007B20124CA079000E
:103F530080027904024257EC24FFF582ED34FFF529
:103F6300832274F412037AA2AFE433F508C2AF904C
:103F730003B7123E126038EE24FBF582EF34FF12D2
:103F83004CD37A007B209003B06005124CA38005CC
:103F9300E0F9121404E4F50AF50B780A1208A1EE0D
:103FA300FCEFFD7AB77B031213F274021208B4E537
:103FB30008A2E092AFEEFAEFFB02311112558A85A7
:103FC3001882851983AA82AB832274F212037A744E
:103FD300FC120948EAFEEBFF750AFE750BFF120D92
:103FE3005CE960057911024150EE24151231196024
:103FF30037900D0EE0C43354E0F8E0333354FC48FB
:10400300C0E0EE241512304CD0E012416B12416136
:104013008B09EA45096011750AFFEE240F12311965
:104023004404124D2ED2E0F08E828F83122A356023
:1040330006EE2412124158EE241312311970109017
:10404300262EE493C0E0EE241312304CD0E0F08E21
:10405300828F83E0A2E750045403801CEE241412E1
:1040630031197015900342E0C0E0EE241412304C75
:10407300D0E0F0900342E004F0EE24111231196411
:104083000170169005D1E0600D90034DE0700A8E2B
:10409300828F83E070031241558E828F83E0640127
:1040A3007013EE240B123EB364027009EE240F1258
:1040B30031194440F0851882851983AC82AD83EEB3
:1040C300FAEFFB120DC28A088B0974FE650A7003AE
:1040D30074FFF470098E828F83A3A3125505EA45FA
:1040E3000960668E828F83E0C0E07401120B27D0D3
:1040F300E0F07402120B271255F37401120B27859B
:10410300820C85830D780C1208A1EE240F12304C1B
:104113001206D0EE240E123119F50C780C1208A5F4
:104123009003561206D07407120B27E0F9AC0AADC0
:104133000B120DBC74071208B4E9FE74106E700BF9
:10414300AA08AB0912146A80027E10EEF974040205
:104153002A6DEE2411F582EF123EA4E4F022A3129D
:10416300310779FF121CE62212416F22F08E828FF3
:1041730083A322C082C08374DE1209488A828B83A0
:10418300A3A3A3A3123EAF740E120B27E8F0A3E977
:10419300124245740C120B2712423E240DF582EB9A
:1041A30012311CC0E0741A120B27D0E0F0125452E3
:1041B300EB123EAC7420120B2712423E2415F582FB
:1041C300EB12311CC0E07408120B27D0E0F0EA2494
:1041D3001CF582EB123EAC7412120B2712423E24E2
:1041E30011F582EB12311CC0E07409120B27D0E0E9
:1041F30012423274FFF07401120B2774FFF0740241
:10420300120B2774FFF09081EE1206CC7404120B8C
:1042130027AC82AD837407120B27AA82AB83120CDF
:104223000C74041208B4790074221208B4802512A5
:10423300423622F085188285198322E8F0A3E9F03B
:10424300EA22123C51A312424D22A3E0F8A3E0F963
:1042530022125084D083D08202086674EC12037A4F
:1042630074EE1209488A128B13ECFEEDFF89097470
:1042730026120B271255057428120B27E0F510742C
:1042830029120B27124379742B120B27E0F50EA387
:10429300E0F50F7508107A1E7B0012146474021285
:1042A3000B27124CAD7402120B27124CD57003026C
:1042B3004372851882851983AA82AB837950124B86
:1042C300881250847402120B27124397A3124CAD29
:1042D3007410120B27125CE27402120B27E0240BFA
:1042E3001243847402F0120B271243977402F012E4
:1042F3000B271257461255F37402120B27125099CB
:10430300E509F07402120B27E0240C124384E51034
:10431300F07402120B27124381E512F0A3E513F0A8
:104323007408120B27E50CF0A3E50DF0740A120BC9
:1043330027E510F0850E82850F83C082C083740D3C
:10434300120B27AC82AD83D083D08274031207C4CF
:10435300F97402120B27AA82AB83120D62E964017E
:10436300700575080080087402120B27123E9AA983
:1043730008741202551CE0F50CA3E0F50D22E024AD
:104383001C12438822F8A3E012438F223400F988D9
:104393008289832212508CA3A3A3A3A32274EE12B7
:1043A300037AEAFEEBFF8C088D098E828F83A37458
:1043B30008124D69E060088E828F83A37410F01297
:1043C300311660098E828F83A3E02408F0EE241552
:1043D30012311960088E828F83A3E004F08E828FDE
:1043E30083A3A3A3A3A3A3E060198E828F83A3A3B4
:1043F300A3A3A3A3A3E0C3332402F88E828F83A3D2
:10440300E028F0EE24111231196005750B0E8003BC
:10441300750B008E828F83A3C082C083EE240D129E
:104423003119D083D082F8E028250B8C828D83F05C
:10443300EE2411123119600512489428F085088280
:10444300850983E0C3947540097508007509000266
:104453004582E0FA7B001256A17003024582EEFA10
:10446300EFFB120DC8EA850882850983124CAEEE74
:104473002402F8EF12337612467C1245BEF0EE2486
:10448300040808EF123376124ABEA31245BEA3A353
:10449300F0EE24131245A4F0EE24141245A4A3F065
:1044A300750A08EE24161231196010EE24181255FD
:1044B30083E5082408125784750A10123116601612
:1044C300EE241A125583850A0CE508250C1257842D
:1044D3007408250AF50A8E828F83A3A3A3A3A3A33B
:1044E300E06059EE2407F510EF3400F511851082D2
:1044F300F583E0C0E012458B12304FD0E01245AE99
:10450300E0C0E012458B12304FD0E01245AEA3124B
:10451300459712089D851082851183E0C333FCE41F
:1045230033FD850A0CE508250C1254F91208B485ED
:104533001082851183E0C333250AF50AEE24151290
:104543003119600BC0E012458B12304FD0E0F012EE
:10455300304912459712089DEE240D123119FC7D46
:1045630000850B0A8E828F83A3E0F8E50828F8E51F
:10457300093400F9E8250AFAE91254FC1208B4AA2E
:1045830008AB097F0A0205DB850A0CE508250CF553
:1045930082E50922E0F50CA3E0F50D750E00780C19
:1045A30022123EA11245C8A3A3A322F0050A8E82BC
:1045B3008F83A3A3A3A3A3A3A3A322A3A31257EF0E
:1045C300A31245C822124AC2A3A32274F612037A85
:1045D3008A828B83E0FC9003531246757402780839
:1045E300120A49EC4508FCAD09EA241212466F741D
:1045F300067808120A49EC4508FCED4509FDEA2452
:1046030015F582EB12311C6004780180027800E416
:10461300C8F9ED49FDEA2411F582EB12311CF508C6
:10462300880974097808120A49ED4509FDEA241638
:1046330012466F740B7808120A49ED4509FDEA2406
:104643001712466F740C7808120A49ED4509FD8A62
:10465300828B83A3A3A3A3A3A3124675740A78082A
:10466300120A49ECFAED4509FB024CDEF582EB1226
:104673003EA4E0F50875090022E0850882850983D8
:1046830022A3E0F98508828509832274EE12037A56
:104693008A0A8B0BECFEEDFF750F01E9C3940850FA
:1046A3000579000248818E828F83E9F0124AE7E997
:1046B3006003750F00124ACB8E828F83124B15EE67
:1046C300125453EF124B0AC0E0EE241112304CD0B7
:1046D300E0124B02C0E0EE241212304CD0E0124143
:1046E3006B740812550DA3A3A3E06015124AB3EE31
:1046F3002413F582EF124D1D8E828F83A3E02408CD
:10470300F08E828F83A3A3A3A3A3A3A3A3E060211B
:104713008E828F83A3858208858309124AF6EE244D
:1047230015F582EF124D1D850882850983E0240863
:10473300F08E828F83A3A3A3A3A3E0601A8E828F3C
:1047430083A3858208858309124ADA8E828F83A325
:10475300A3A3A3A31248A6EE2419124158EE241BC7
:10476300124158A3124D61E07003024815EE24195B
:10477300F8EF3400F98E828F83A38582088583093D
:10478300E0FAE50A2AF582E50B12311C8882898357
:104793001248A6FAE50A2AF582E50B12311CC0E09D
:1047A300EE241A12304CD0E01248A688828983E0A6
:1047B3006059F8902627E493C398500575110C802F
:1047C30008EE2419123119F5118E828F83A3E0F8B4
:1047D300E50A28F50CE50B12488A12089DE511C37A
:1047E30033FCE433FD7AAC7B0B1248841208B4EE3D
:1047F300241B12304C74ACF0A3740BF0E511C333DB
:10480300F8850882850983E0288006EE241812596A
:10481300BEF08E828F83A3E0F88E828F83E0C398ED
:1048230050030246A4A3E0FA8A08E50A2508F8E53E
:104833000B3400F9EE241DF582EF124E291248B60F
:10484300C39AC0E0EE241712304CD0E0124D26601C
:104853002BEE2417F8EF3400F9880889098882F5CC
:1048630083E024F2124E0A240EFAA3E03400FB88FC
:10487300828983124CAD124894C398F0A90F024564
:104883008612139E7403223400F50D750E00780C06
:104893002290034EE0F9120B4CE9F8850882850952
:1048A30083E022F0850882850983E004F022A3A334
:1048B300A3A3A3F08E828F83E02274F412037A8A77
:1048C300088B09EA12494BF0EA1313543F12494487
:1048D300A3A3A3F0EAC4131312494BA3A3F0EB124F
:1048E300493D1249557409780A120ABD12493B120F
:1048F3004954740A780A120ABDE50A5401C0E0EC6F
:104903002418F582ED12304FD0E012495A740B7817
:104913000A120ABD12493BA3124954740C780A12B5
:104923000ABD12493BA3A3A3A3A3A3A3A3F0740D9E
:104933007808120ABD022C7BE50A54018C828D8310
:1049430022540F8C828D832254038C828D83A3A3E4
:1049530022A3A3A3A3A3A3F08A0A8B0B22C082C022
:104963008379008A828B83A3A3A3A3A3A3E09003E9
:104973004D600FE070228A828B83A3A3E070190934
:104983008016E060138A828B8312507B900356E07B
:104993006A7003A3E06B70E702425774F012037A64
:1049A3008A0A8B0B890C8C088D09124AE7124ACBB1
:1049B300850882850983124B15E508125453E509CE
:1049C300124B0AC0E0E5082411F582E50912304FC5
:1049D300D0E0124B02C0E012374D12304FD0E0123C
:1049E3004E317408124E4A6011124AB3E50824137B
:1049F300124E25124E31E02408F085088285098382
:104A0300A3A3A3A3A3A3A3A3E06017850882850997
:104A130083A3124AF2E5082415124E251248B62440
:104A230008F0850882850983A3A3A3A3A3E06019E3
:104A3300850882850983A3AE82AF83124ADA85088B
:104A4300828509831248B104F0AA08AB09120DDA72
:104A5300E9F50D7056850882850983A3A3A3A3A353
:104A6300A3124ABE7014E0FA8A0EE50A250EF8E591
:104A73000B124D12E50CC39A8021124AF2E8240E60
:104A8300F8E9124D1290034EE0F9120B4C8E828F0F
:104A930083E0F8E50CC39824F2C399C0E0E5082449
:104AA30017F582E50912304FD0E0F0A90D02544208
:104AB300E50A2408F8E50B3400F922124AC222E081
:104AC300850882850983A322850A82850B83A3A394
:104AD300124B2BE0F9EA22E0F8E50A28F582E50B10
:104AE300124D39228A828B83125447120DD422AE7F
:104AF30082AF83E0F8E50A28F8E50B3400F92212C7
:104B03004B3EA3A3A3E022123EA4E8124B37A3A378
:104B1300E022A3A3A3A3A3A3A3A3A3124B37124BE4
:104B23002BA3A3E0F9EAF822E0FA850A82850B8336
:104B3300A3A3A322F0A3E9124B3E22F0850A8285A8
:104B43000B83A3A3A3A322C082C0837AC57B03796B
:104B5300E2121BDE7AC57B03024257C082C08390F8
:104B63000356024254C082C08374FE12094885185A
:104B730082851983AA82AB83794B124B88125084A6
:104B8300740202422D121BDE85188285198322C00E
:104B930082C083794A121BDE02425774F612037AEB
:104BA3009003CDE0FE04F0EEF9120D8C8B09EA457B
:104BB3000970EDEE60EAF9024CDE74F012037AEA52
:104BC300FEEBFF8C088D09890A7410120B27E0F5A0
:104BD3000B7411120B27E0F50C120EACEA4B701399
:104BE300E50C7042A90AAC08AD09EEFAEFFB120E10
:104BF300C4806EE50A6021EA2402F582EB12311CBF
:104C0300850A082508F8E4340013E813F070098ACC
:104C1300828B83A3A37401F0E50C6045E50B70065A
:104C23008A828B83E4F07401650C7035E50B900385
:104C3300D47004E4F0802AE004F0900CFBE0F890D8
:104C430003D4E0C398401AE4F0900359E06E700374
:104C5300A3E06F700CEEFAEFFB7901120C30124CEB
:104C6300670254427A017B009003B0E0F912152ADF
:104C730022C082C08374016A7001EB70077A01124B
:104C83004C9E8012900CF2124CADEA4B6005122937
:104C9300F78003124C670242577A207B009003B0DF
:104CA300E0F91213FE223400F583EAF0A3EBF022BD
:104CB300C082C083900CF4023857C082C083900C2A
:104CC300F602385712575522EE240CF582EF3400C2
:104CD300F58312424EE849221208B47F020205DB33
:104CE300A2F0E433851882851983124CFF7952129E
:104CF3001BE422124CFF7942121BE422F0AA82AB7E
:104D03008322AA08AB099003B0E0F91213D422342A
:104D130000F9E508241DF582E509123EA4E8F0A395
:104D2300E9F022125511A3A3E022A3F0EE241512F9
:104D33004D3622F582EF3400F583E022124D4322F3
:104D43003400F583E0F8A3E0F98882898322E0F850
:104D5300124D5722A3E0F98E828F83A3A322F0EE94
:104D63002418123EA122F0EE2416123EA12274F45E
:104D730012037AEAFEEBFF7A007B04124C6B124EAD
:104D830000124D209003657409F0120DE68A088B1A
:104D930009AC08AD09EE241312304C125084124FA3
:104DA30054640170487A0F124DF360418A828B83F9
:104DB3007402124E0AFAA3E0FB8A828B83A3E0FCFF
:104DC3008A828B83A3A3E0FBEC850882850983A3F6
:104DD300A3124CAE8882898312508812467C124DEE
:104DE3002DFAA3E0FB794A121BE4124D050231119F
:104DF3007B001213C88A088B09EA450922900336FF
:104E030012424E900CF622F0EE241DF8EF124E14CF
:104E13002212438FE022124E1D223400F5837401C7
:104E2300F022F582E509123EA4E8F0A3E922124E2E
:104E33003522124E3922F0850882850983A3221276
:104E43004E39A3A3A3A322124E42A3A3E0221252DC
:104E53005B120E3A22EE2417F582EF124E1D120D4D
:104E6300E6EE241A123EA1EAF0A3EBF02274F41248
:104E7300037A74F31209488908EAFEEBFF7C0D7D7F
:104E8300007900851882851983AA82AB831213AA3D
:104E9300EE241D12304C125746A3E0F8741F5860DD
:104EA3000A7901121BB47900024F4BE8A2E55008BE
:104EB300740C120B277401F0E8A2E75008740B126C
:104EC3000B277401F0E8A2E6740A5008120B27744A
:104ED30001F08008120B27E064017005EE241380B3
:104EE30003EE24151255837402120B27AA82AB8397
:104EF300121BCC123049124F59124D20740A120B57
:104F030027E064017033122A2A703B120DF28A0AD9
:104F13008B0BA80AA90BEE240B123119687003A39B
:104F2300E0697022120DE6EAFCEBFD7402120B2716
:104F3300AA82AB83124F54600D851882851983AA08
:104F430082AB83120C2AA908740D02310EEEFAEF1C
:104F5300FB121BC6E922E0124F5E22F8A3E0F9859B
:104F630018828519832274F612037A74F31209489E
:104F73008A088B09ECFEEDFF7C0D7D007900851816
:104F830082851983AA82AB831258EBA3A3A3A3A39D
:104F9300A3A3A3A3124FF3124FFCF8A2E550087486
:104FA3000B120B277401F0E8A2E75008740A120BE6
:104FB300277401F0E8A2E6EE5004241380022415BE
:104FC3001255837402120B27124FE5A3A3E0C0E02E
:104FD300740C120B27D0E0125253120C24740D02DE
:104FE3004CDBAA82AB83121BCC8508828509832202
:104FF300E0124F5EE8F0A3E922F0123E9E12574AF8
:10500300A3E02274F712037A74E1120948EAFEEB73
:10501300FF8E828F83125088A3A3A3E0A2E0505196
:105023008E828F83122B8A8A828B83A3A3A3A3A34B
:10503300A3E054FE1250A08A828B83125099E0F9A8
:105043008A828B83E0241CFAA3E0123ABA125084BA
:10505300120DE0E9701B741D120B2712509370118F
:10506300851882851983AC82AD83EEFAEFFB120EAD
:10507300280252C58E828F83A3A3A3A3A3A3A3A3B2
:10508300A31231072212508C2212574EA3A3A3223C
:10509300123ED6640422E0241B12438822124236B5
:1050A300AC82AD8322E9F87900740468600A740A5B
:1050B30068600574036870010902086674F61203D8
:1050C3007A8A828B837420F0A3A37401F0120BD627
:1050D3008A088B09AE08AF09EE4F60108E828F836A
:1050E3007401F09003A3E07003124E58EEFAEFFB45
:1050F300024CDEC082C0839003B97401F0E9A2E3DD
:1051030050037403F0E9A2E15004E0D2E2F002425A
:105113005774F612037A79007C008A088B097808A1
:10512300120595F8FF0747514551455145514551E2
:105133003E51425147513B510C80097C0480050C80
:1051430080F67C089003B9E05C6003098003EC609F
:105153000109024CDE74F612037A8A828B83E070B3
:1051630012A3124CD5600C8A828B83125083121DBA
:105173001080047A007B00024CDE74F512037A740B
:10518300F31209488A088B09ECFEEDFF750A12EA4F
:1051930045097005790002524C900356E06508708A
:1051A30004A3E065097014120DE6EAFCEBFD124F4F
:1051B300507005750A018003750A008518828519E8
:1051C30083E4F004120B27E508F0A3E50912525318
:1051D300120B9AE960277403120B27AA82AB83127E
:1051E3000B7CE964017016750A017403120B27AC7A
:1051F30082AD83124F506021750A00801C741265C2
:105203000A70169003A2E06402700EEEFCEFFDAA92
:1052130008AB09120BB2E970DFEEFCEFFDAA08AB95
:1052230009120EB2E9F8740A687005750A0180174D
:1052330074A0687012EEFCEFFDAA08AB09120EBE53
:10524300AA08AB09120ED0A90A740D025C537402AA
:105253001252572212525B22124236AA82AB832287
:1052630074F712037AEAFEEBFF8E828F83A3A3A364
:10527300A3A3A3A3A3E06015EE241512304C1230B0
:10528300F7120E52E964017004790180258E828F32
:1052930083A3A3A3A3A3A3A3E06015EE2413123057
:1052A3004C1252B7FAA3E0FB120E52E9640160D923
:1052B30079008013123BA6A3A3A3A3A3A3A3A3A331
:1052C300E022741F1208B47F010205DB74F012039D
:1052D3007A74FD1209488A088B09ECFEEDFF890BED
:1052E3007413120B27E0F50C750A017401120B27D6
:1052F300740412577E6048E50C601DEA2417F5829A
:10530300EB1259C112576C8A828B83E0D2E7F0EA21
:105313002414F582EB12415B125452EB124D3F748D
:1053230003125CE4EE88828983A3A3F0EF88828969
:1053330083A3A3123C50123C57120BD0E9F50AA9E0
:105343000A740302543F74EC12037A74F512094889
:105353008A0A8B0B890C8C0E8D0F741F120B27E09E
:10536300F50D7420120B27E0F510A3E0F5117E0173
:10537300EE120B27740AF0E97007E50DC333240A14
:10538300F012552470030254261255397409F0A300
:10539300E50CC43354E0450D12554BE50C702D7CE0
:1053A300008023ECC333F8E433F9E51028F8E51162
:1053B30039F9888289831254338882898312336945
:1053C300F0A30EAF830CECC3950D40D7E50824176B
:1053D300F582E509124E19120DE6E508241AF58245
:1053E300E509124CA97403120B27AC82AD83AA0AF8
:1053F300AB0B120B82E96019E5082416F582E50967
:1054030012542D120B27A882A983E5082418124DE4
:1054130019850882850983125CE0AA08AB09120B7F
:10542300D0E9FEEEF9740B02551C124E1D740322D3
:10543300E08E828F83F0A3AE82AF83221208B47F03
:10544300080205DB123EFEF9EA2400E439FB22EAF6
:10545300240BF5822274EE12037A8A0C8B0D890ECB
:105463008C088D097412120B27E0F50F7413120BBD
:1054730027125505900540124CD56077E50FC333CD
:10548300F8E433F9E8240EFAE93400FB1213C88A6E
:10549300108B11AE10AF11EE4F60588E828F837454
:1054A300D4F0A3A3E50CF0A3E50D12550DE50EF022
:1054B300AC08AD09EE2405FAEF125787EE240D125E
:1054C300304CE50FF0850A08850B09750A0078084A
:1054D30012089DE50FC333FCE433FDEE240EFAEF0F
:1054E3001254FC1208B4EEFAEFFB90054012574633
:1054F300121DB7024586FAE5093400FB12139E74A8
:105503000322E0F50AA3E0F50B22125511221255EE
:10551300152212416FA3A3A3221208B47F0C020524
:10552300DB851882851983AA82AB83120E3A8A0817
:105533008B09EA450922EA240BF582EB124D39FE69
:10554300A3E0FF8E828F8322F0A3AE82AF83AC0EE3
:10555300AD0FEEFAEFFB12555D22121BCC12556410
:1055630022EE2408FEEF3400FF22E0FA8E828F83BE
:10557300A3A3E022FEA3E03400FF8E828F83E02208
:10558300123EA112558A22E0FCA3E0FD221231074C
:10559300120DCE2274F612037AEAFEEBFF9003BAE1
:1055A300801388828983E06E7003A3E06F603A887A
:1055B300828983A3A3124CD570E87A047B0012146A
:1055C300648A088B09A808A909E849601C888289AC
:1055D300831255F39003BA12508488828983A3A35C
:1055E300124CAD9003BA124D20024CDE8A828B839B
:1055F300EEF0A3EFF02274F412037A7E009003BA64
:1056030080070E88828983A3A3124CD570F4EEC35E
:1056130033FAE433FB1256A1607E7F009003BA8015
:105623002488828983125586EFC333FAE433FBE57A
:10563300082AF582E5093BF583ECF0A3EDF00F882A
:10564300828983A3A3124CD570D79003AB122A642B
:105653007003A3E069780870191208A1EEF50A78BF
:105663000A1208A57C777D0379009003AB1256AC30
:10567300801A1208A1EEF50A780A1208A57C777D34
:105683000379009003AB125084120E647403120862
:10569300B4AA08AB0912146A120BE80231111214EE
:1056A300648A088B09EA450922123107120E6A221D
:1056B300C082C08380128A828B83A3A3123EAF90E1
:1056C30003BA124D2012146A9003BA123DBF70E65A
:1056D30002425774F612037A900363123EDB90037F
:1056E300CE125735124D207ACE7B037950121BE42C
:1056F3009003CE122C83FAEFFB120ECA9003CE1244
:105703003EDB900542124CD560257A067B001213CE
:10571300C8EA4B601A8A828B8374D5F0A3A3E41280
:10572300575B0412576C900542125746121DB7027D
:105733004CDE12573922E0F8A3E0F9900363228E7E
:10574300828F8312574A2212574E22E0F81257547F
:1057530022A3E0F58388822212575F221257632225
:10576300F08A828B83A3A3A32212575FA3EEF0A335
:10577300EFF022F582EF124D39F922124E51EA4B26
:1057830022FAE5093400FB121BCC22124D58A3A3C5
:10579300A3A3A3A3A322902629E4932401F8E4342A
:1057A30000F97A027B002274F712037A7E008004E8
:1057B300125D970E1258BB40F77E00EE1257D67457
:1057C300FEF0A3041257EBE4F00EEEC3940340EB98
:1057D3000252CA75F003A4F8A9F074BC28F8740344
:1057E30039F988828983A3221257EF22F0888289AC
:1057F300832274F712037A7F0080010F902631E42D
:1058030093F8EFC3985026EF1259A76A7003A3E0E9
:105813006B70E8125D446C7003A3E06D600A74FF63
:105823006C700374FF6D70D31258B280047A007BDE
:10583300000252CA74F612037A7CFF7DFF7AFE7B64
:10584300FF120E8EEA4B70407508008036E508752E
:10585300F017A4F8A9F0744728F582740A1259B90D
:10586300600C744628F582740A1259B9701374389F
:1058730028FE740A39FF8E828F831259C6EEFAEF1F
:10588300FB050812592140C5024CDE74F412037A59
:105893008A088B09ECFEEDFF800B120EA0EEFCEFE5
:1058A300FDAA08AB09120E8EEA4B70EE0231117499
:1058B3003828FA740A39FB22902631E493F8EEC3B0
:1058C300982274F712037AEAFEEBFFEE4F60101290
:1058D30058E574FEF0A304125CEA14F0A304F0028A
:1058E30052CA7C177D0079001213AA8E828F8322FD
:1058F30074F712037AEAFEEBFF7508008018E508D7
:1059030075F017A4F8A9F0125D4F7003A3E06F6060
:1059130003125D9F050812592140E30252CA9026E3
:1059230031E493F8E508C3982274F612037A120E51
:105933008E8A088B09A808A909E849600AE8240D9A
:10594300FAE93400FB80047A007B00024CDE74F435
:1059530012037A8A0A8B0BECFEEDFF7508007509BA
:1059630000802EE50975F017A4F8A9F0125D8A608E
:105973001EE5091259A7650A7004A3E0650B7003BD
:1059830075080AEEFCEFFD125C4660034308A005B0
:1059930009902631E493F8E509C3985004E50860BB
:1059A300C2022C7B75F017A4F8A9F01259B2227425
:1059B3003828F582740A39F583E022F582EF123E26
:1059C300A4E422123107120CC6221257EFA3A3A399
:1059D300A3A3A3A3A32274F212037A8A088B09EC6C
:1059E300FEEDFF740E120B27125505750C007C009B
:1059F3007D0180101213C2E50CF5F0EA84ACF0755A
:105A03000C007D00780079008003125B83125BDF5A
:105A13004003025AA5E8FAE9FBEA75F017A4FA85F0
:105A2300F00D75F017EBA4250D125BBB7003A3E01B
:105A3300F460D7125B9965087004A3E0650960CA36
:105A4300125B996E7003A3E06F60BF125B99650AE6
:105A53007004A3E0650B60B2E8FAE9FBEA75F0179E
:105A6300A4FA75F017EBA4250DFB74462AF582748E
:105A73000A125B7A509474016D050C608DE50CC3BA
:105A83009C4087E875F017A4F8AAF075F017E9A40D
:105A93002AF9743828F582740A39F583125084027E
:105AA3005B77780079008003125B83125BEC400321
:105AB300025B5EE8FAE9FBEA75F012A4FA85F00DE1
:105AC300125BCB64FE7003A3E0F460DC125BC16580
:105AD300087004A3E0650960CF125BC16E7003A375
:105AE300E06F60C4125BC1650A7004A3E0650B60DC
:105AF300B7E8FAE9FBEA75F012A4FA75F012EBA421
:105B0300250DFB74C72AF5827408125B7A5099E855
:105B1300FAE9FBEA75F012A4FA75F012EBA4250D6D
:105B2300125B8C64016081E064027003025AAB74FF
:105B3300016D050C7003025AABE50CC39C500302C4
