:020000040000FA
:06000000020B230201CBFC
:03002B0002095E69
:030043000207F5BC
:030053000200FCAC
:03006B000201EEA1
:100083000201600101FF050301E410E410E410E440
:1000930010A00F9A0FE410711E00000000351F001E
:1000A3000000000C0000000C00010000B212000070
:1000B300000000007E1300000000000000000000AC
:1000C300FFFF01010101010101003205000000836E
:1000D30005E80364006400B801020200080000059B
:1000E3000207051E02051E0A03B80B020102F1FFF7
:1000F300029651180002020612C0E074F212049430
:10010300A2AFE433FED2AFE5A7FFE5A1F5085F5444
:1001130010600612199075A1EFE5085F5408600896
:1001230012199675A1F7802BEFA2E0C0D0E508A2C3
:10013300E092F0120A60158182F05017906198E006
:10014300F8900857E0C398A2D265D0335002E8F084
:1001530075A1FEEEA2E092AF7F010204F3C0E0744A
:10016300F2120494A2AFE433FED2AF9061A4E0F89C
:10017300759B00E59158540860087591F71219DED4
:10018300802AE59158541060087591EF1219E480A4
:100193001BE8A2E0C0D0E591A2E092F0120A60153C
:1001A3008182F05007E0C2E0F0121B289061A3E0C7
:1001B300F8E5E9585404600E121AFE75E9FB9061E4
:1001C30093E0A2E640F2808BC0E074F2120494A2A2
:1001D300AFE433FED2AF9061A5E0F8E5BF58540415
:1001E300600675BFFB121B40020156C0E074F1129A
:1001F3000494C2BDE589A2E4503DA284E433900C8B
:10020300EEF0A2E04028F8900CEDE0686026900C38
:10021300EEE0900CEDF090050B7401F07C327D0064
:100223007A047B009004DDE0F91215888006900CB7
:10023300ED7401F05389EFE589A2E6505590050D61
:100243007401F01214AA90050E120B86A286E433F1
:10025300900CF0F0A2E04017F8900CEFE068601506
:10026300900CF0E0900CEFF090050CE0048005900A
:100273000CEF7401F05389BFA286E433F5087509C6
:100283000078081208FC7A917B8112136C740212B5
:100293000944C2C5D2BD7F020204F3C3E498F8E463
:1002A30099F91202DF8026C3E49AFAE49BFBE92062
:1002B300E7E91202DFE498F8E499F922C3E498F835
:1002C300E499F91202DFE498F8E499F9C3E49AFA9D
:1002D300E49BFB22EB20E7CFE920E7E0B90010BB6A
:1002E3000008E88AF084F8AAF022E4FBC8FA22EBBB
:1002F30070227B10C833C8C933C9335007C39AC3AC
:10030300DBF280069A50012ADBEAC833F4C8C9330A
:10031300F4C9FA2275F008E4C833C8C933C933C92C
:100323009AC99B5004C92AC93BD5F0ECFBC833F4E6
:10033300C8E4C9FA22080808EAC0E0EBC0E086F086
:10034300E7A4FA180986F0E7A42AFA180986F0E761
:10035300A42AFA180986F0E7A42AFA1986F0E7A472
:10036300FBE5F02AFA190886F0E7A42BFBE5F03A3F
:10037300FA190886F0E7A42BFBE5F03AFA181809F6
:1003830086F0E7A4C5F02BFBE43AFA1908E7C5F0B9
:10039300C6A426F6E5F03BFBE43AFA1886F0E7A498
:1003A300F6E5F00826F6E43B08F6E43A08F6D0E072
:1003B300FBD0E0FA22E4CFC0E0E4CEC0E0E4CDC05D
:1003C300E0E4CCC0E075F020C3E633F608E633F68C
:1003D30008E633F608E633F6181818EC33FCED3369
:1003E300FDEE33FEEF33FFC3EC9709ED9709EE976C
:1003F30009EF97191919400FFFEC97FC09ED97FDC9
:1004030009EE97FE191906D5F0BEECF709EDF709C9
:10041300EEF709EFF7191919D0E0FCD0E0FDD0E0B1
:10042300FED0E0FF222518C582C0E0E51934FFC5E0
:1004330083C0E0E518C3958224F810AF08858319BB
:100443008582188008858319858218D2AFCEF0A3E0
:10045300E520F0A37808E608F0A3DEFAEFF0A3E5C1
:100463008124FAF8E608F0A3E608F0A3E608F0A36F
:100473000808E608F0A3E608F0A315811581D0E08B
:10048300FED0E0F8158115811581E8C0E0EEC0E0EB
:1004930022C0D02518C582C0E0E51934FFC583C04A
:1004A300E0E518C3958224F310AF0885831985828C
:1004B300188008858319858218D2AFC8F0A3E9F0A4
:1004C300A3EAF0A3EBF0A37908E709F0A3D8FAECC9
:1004D300F0A3EDF0A3EEF0A3EFF0A3D0E0F0A3D0F0
:1004E300E0F0A3D0E0F0A3E520F0A3E5F0F0A32231
:1004F300851983851882E0C0E0A3E0F9A3E0FAA39D
:10050300E0FBA37808E0F608A3DFFAE0FCA3E0FD34
:10051300A3E0FEA3E0FFA3E0C0E0A3E0C0E0A3E00C
:10052300F5D0A3E0F520A3E0A3F5F010AF08858391
:10053300198582188008858319858218D2AFD082E5
:10054300D083D0E0F8D0E032120B92B90003020559
:100553008DE490030178AE790A8002F0A3D8FCD928
:10056300FA900CAEAA82AB839000867877790180EB
:1005730015E493A3AC82AD838A828B83F0A3AA8212
:10058300AB838C828D83D8E9D9E7758262758399B1
:1005930074031208B87582DA75831D74001208B8E3
:1005A3000875F0108E1A8F1B85821F85831E851890
:1005B30082851983E0CEA3E0CF851F82851E83EB5E
:1005C300C9EAC8EDCBECCAC3E833C8E933C9EA3397
:1005D300CAEB33CBC3EA9EF51DEB9FF51CB3500466
:1005E300AB1CAA1DEC33CCED33CDD5F0DAAE1AAF8C
:1005F3001B22D083D082ECC0E0EDC0E0E493A3FCE7
:10060300E493A3FDED4C600D1206CDEC24FFFCED4D
:1006130034FFFD80EFE493A3FCE493A3FDED4C6072
:100623000D1207A0EC24FFFCED34FFFD80EFD0E0BA
:10063300FDD0E0FCE493A3C0E0E493C0E02285197D
:1006430083851882E0A3FEE0A3F5207808E0A3F6F3
:1006530008DFFAE0A3FFE0A3C0E0E0A3C0E0E0A36B
:10066300C0E0E0A3C0E0E0A3C0E010AF08858218BB
:100673008583198008858218858319D2AFD083D0EA
:10068300820208BED083D082E9C0E0E493A3C3868C
:10069300F0C5F095F0F908E493A386F0C5F095F062
:1006A300700BE493A3C3994005E9048002A3E475A6
:1006B300F002A42582F582E5F03583F583D0E0F9D5
:1006C300E493A3C0E0E493C0E022C0E0C3E49396C4
:1006D300087401939618400FE49366700808740138
:1006E30093661870007019A3A3C3E493960874016A
:1006F300939618A3A3400DD0E0D0E0D0E0020631DA
:10070300A3A3A3A3A3A3D0E022D083D082C5F0E404
:1007130093A3C5F0C395F0F5F0E493A3C395F0401C
:1007230005E5F0048001E475F002A42582F582E575
:10073300F03583F583E493A3C0E0E493C0E022742F
:1007430004800474028000CCC0E0EDC0E0E518C36F
:100753009CCCAD1950011D10AF068C188D19800665
:100763008C188D19D2AF12083AD0E0FDD0E0FC22EC
:1007730074028000CCC0E0EDC0E0E518C39CCCADB2
:100783001950011D10AF068C188D1980068C188D19
:1007930019D2AF120818D0E0FDD0E0FC22C0E0C0AF
:1007A300F088F0E49366700808740193661870008B
:1007B300A8F0A3A3700BD0F0D0E0D0E0D0E0020605
:1007C30031A3A3D0F0D0E022D083D082CCC0E0E428
:1007D30093A360061208991470FAE493A3600612B7
:1007E30009A81470FAD0E0FCE493A3C0E0E493C03A
:1007F300E022C0E074F2120494A2AFE433FED2AF5D
:10080300C2C0E5D1A2E45003121906EEA2E092AFF2
:100813007F010204F3CAC0E0E493A3C582CCC5827E
:10082300C583CDC583F0A3C582CCC582C583CDC5A1
:1008330083DAE5D0E0CA22CAC0E0E0A3C582CCC512
:1008430082C583CDC583F0A3C582CCC582C583CDC4
:10085300C583DAE6D0E0CA227009080808226016C8
:10086300181818C6C333C608C633C608C633C60825
:10087300C633C6D5E0EA22C008C3E096F50808A34C
:10088300E096420808A3E096420808A3E0964508CC
:100893007001D3D00822C0E0E493A3D39C5010E4AA
:1008A30093A3C39C400AD0E0D0E0D0E00207E8A3C2
:1008B300A3A3D0E022C09FF59FE473D09F22D083EF
:1008C300D082C09FE493C0E0740193C0E0740293AC
:1008D300F59F22C5822518C582C583351910AF0738
:1008E300F5198582188007F519858218D2AFC5835B
:1008F300227404800A74038006740280027401C0A7
:10090300E0F40412090FD0E0120B6D222518F582D2
:1009130010AF08F518400215198008F518400215A4
:1009230019D2AF85198322BB0102E722C082C0839B
:1009330089828A83BB0003E08002E493D083D08260
:1009430022C0D0251810AF08F518500205198008E9
:10095300F51850020519D2AFD0D022C0E0C0D0E8BC
:10096300C0E0E5A8D2AFC2C7A2E792AFD0E0F8D00B
:10097300D0D0E0326016080808C6C313C618C613E1
:10098300C618C613C618C613C6D5E0EA22C3E0C606
:1009930096F608A3E0C696F608A3E0C696F608A363
:1009A300E0C696F622C0E0E493A36C7009D0E0D0D1
:1009B300E0D0E00207E8A3A3D0E022251810AF0897
:1009C300F518400215198008F51840021519D2AF21
:1009D30022E066701008A3E066700A08A3E0667060
:1009E3000408A3E06622C3E09608A3E09608A3E008
:1009F3009608A3E096A2D265D03322E7667010086A
:100A030009E766700A0809E76670040809E76622C1
:100A1300C3E096F008A3E096F008A3E096F008A3DD
:100A2300E096F022E026F008A3E036F008A3E036D3
:100A3300F008A3E036F022E627F60809E637F608C1
:100A430009E637F60809E637F622E026F608A3E0BA
:100A530036F608A3E036F608A3E036F622C0E0E84F
:100A6300C0E0E58124FCF8E6A2E7D0E0F8D0E0227C
:100A7300E647F60809E647F60809E647F60809E6F1
:100A830047F622E657F60809E657F60809E657F649
:100A93000809E657F622E056F608A3E056F608A33F
:100AA300E056F608A3E056F622E056F008A3E05617
:100AB300F008A3E056F008A3E056F0227004226089
:100AC3000D18C6C333C608C633C6D5E0F41822E4EE
:100AD300C396F608E496F608E496F608E496F6223A
:100AE300600D08C6A2E713C618C613C6D5E0F322E5
:100AF300C6F4C608C6F4C608C6F4C608C6F4C622B9
:100B0300C3E7960809E7960809E7960809E79622D6
:100B1300C3E09608A3E09608A3E09608A3E0962214
:100B230075D0007581407518017519030002054BD6
:100B3300600C08C6C313C618C613C6D5E0F422E674
:100B4300F008A3E6F008A3E6F008A3E6F022E0F637
:100B530008A3E0F608A3E0F608A3E0F622C5822581
:100B630018C582C5833519C58322CAC0E0E6F0A340
:100B730008DAFAD0E0FA22E0FAA3E0FBA3E0FCA350
:100B8300E0FD22EAF0A3EBF0A3ECF0A3EDF022E505
:100B9300C754F84401F5C77901222518F582E435D5
:100BA30019F58322C2AF75D69F020000221208C135
:100BB30083B1011208C126B2011208C171B3011237
:100BC30008C18FB3011208C10B59001208C11D5986
:100BD300001208C16F59001208C1D059001208C190
:100BE3005A5A001208C1FE5A001208C1525B001281
:100BF30008C16B5B001208C1915B001208C1CC5B9A
:100C0300001208C1105C001208C1375C001208C151
:100C1300885C001208C1385D001208C1F05D001243
:100C230008C1B85E001208C1955F001208C11B60BD
:100C3300001208C12A60001208C13560001208C101
:100C43003E61001208C14F61001208C1C561001264
:100C530008C15762001208C1AF62001208C1756370
:100C6300001208C1A663001208C1EB63001208C199
:100C7300F863001208C18C65001208C1EF66001208
:100C830008C10B68001208C1756A001208C1806AA6
:100C9300001208C18A6A001208C1956A001208C1CD
:100CA3009F6A001208C1A96A001208C1B46A00123F
:100CB30008C1BF6A001208C1F06A001208C1146BB0
:100CC300001208C1386B001208C19D6B001208C1E5
:100CD300E16B001208C1FD6B001208C1746C0012B5
:100CE30008C1AC6C001208C1F86C001208C1556D44
:100CF300001208C1376F001208C1BD6F001208C18E
:100D03008E70001208C19E73001208C1F3730012A3
:100D130008C11F74001208C16B75001208C1BB75AE
:100D2300001208C11076001208C11177001208C121
:100D3300A977001208C12B78001208C1CB780012E2
:100D430008C15621001208C18F21001208C169236E
:100D5300001208C1A823001208C1F223001208C11F
:100D63009724001208C1F624001208C12A25001294
:100D730008C19725001208C1B426001208C1BC2778
:100D8300001208C15228001208C1992B001208C191
:100D9300422C001208C11E2D001208C17F2D001223
:100DA30008C19C2E001208C1C630001208C17D3153
:100DB300001208C18731001208C1BA31001208C1FC
:100DC3008132001208C11C33001208C181330012A2
:100DD30008C1AA33001208C1CC33001208C1FB3585
:100DE300001208C1D236001208C11637001208C11A
:100DF3008337001208C13E38001208C17038001250
:100E030008C1B438001208C1E738001208C13C39E0
:100E1300001208C19139001208C1253A001208C115
:100E2300873A001208C1EF3A001208C1983C001239
:100E330008C1803D001208C1C23E001208C1F04043
:100E4300001208C1B041001208C1DF43001208C1FB
:100E53008244001208C1C044001208C16C4600124B
:100E630008C18046001208C18A46001208C1B44670
:100E7300001208C1C046001208C1DF46001208C1B3
:100E83009647001208C1D547001208C1DF47001278
:100E930008C19348001208C19249001208C18B4A45
:100EA300001208C1284B001208C1CA4B001208C126
:100EB300E14B001208C1184C001208C1364C001255
:100EC30008C17A4C001208C19F4C001208C1854D1D
:100ED300001208C1F14D001208C16B4E001208C187
:100EE3007A4F001208C1B950001208C11B510012F9
:100EF30008C1D551001208C1F851001208C1CC52E3
:100F0300001208C11753001208C15953001208C137
:100F1300B053001208C1E753001208C11554001260
:100F230008C14E54001208C17354001208C1FB5487
:100F3300001208C11E57001208C17D57001208C1D4
:100F43001158001208C17D58001208C1D15800126F
:100F530008C18DAB031208C1CCAB031208C1D4B4D2
:100F6300011208C12EB5011208C18AB5011208C1C8
:100F7300D6B5011208C1F1B5011208C122B601129A
:100F830008C13FB6011208C14BB6011208C1BFB771
:100F9300011208C1D8B7011208C13FB8011208C134
:100FA30052B8011208C160B8011208C114B9011284
:100FB30008C1F8B9011208C1FEBA011208C184BB05
:100FC300011208C18EBB011208C1FBBB011208C18B
:100FD30012BC011208C144BC011208C17DBC01123C
:100FE30008C1A7BC011208C108BD011208C128BD70
:100FF300011208C146BD011208C18CBD011208C10E
:10100300B2BE011208C1FFBE011208C12EBF0112F8
:1010130008C1A4BF011208C1CCBF011208C105C099
:10102300011208C113C0011208C16BC0011208C12B
:10103300BAC0011208C1F9C0011208C129C10112C5
:1010430008C155C1011208C160C1011208C17EC1A6
:10105300011208C140C2011208C14AC2011208C1EB
:1010630085C2011208C19BC2011208C1A4C20112A8
:1010730008C1F9C2011208C10DC3011208C11BC482
:10108300011208C12EC4011208C143C4011208C1D0
:10109300E5C4011208C168C5011208C126C60112C0
:1010A30008C131C6011208C157C7011208C173C76D
:1010B300011208C1C5C7011208C104C8011208C141
:1010C30019C8011208C15BC8011208C1A8CA0112DC
:1010D30008C126CB011208C199CB011208C1BBCDAF
:1010E300011208C1D3CD011208C1D6CD011208C126
:1010F300E2CD011208C1F6CD011208C1FECD0112E5
:1011030008C131CE011208C1E1CE011208C157CF87
:10111300011208C1CACF011208C17ED0011208C151
:1011230033D1011208C152D1011208C1F2D1011207
:1011330008C1FED1011208C129D2011208C12CD263
:10114300011208C196D2011208C1BED3011208C10F
:1011530096D4011208C121D5011208C13AD6011251
:1011630008C1F7D6011208C130D7011208C161D7EF
:10117300011208C101D8011208C131D8011208C1F6
:101183000CD9011208C1A5D9011208C130DA011224
:1011930008C1E1DA011208C163DB011208C195DB62
:1011A300011208C1D6DB011208C189C2021208C1AB
:1011B300EEC2021208C12BC3021208C17AC3021283
:1011C30008C190C5021208C173C7021208C1DDCA63
:1011D300021208C118CB021208C13ACB021208C18D
:1011E3009DCB021208C1D1CB021208C1F4CB02126B
:1011F30008C121CC021208C17DCC021208C173AC14
:10120300021208C1F1AC021208C127AD021208C1D3
:1012130093AD021208C106AF021208C122AF021237
:1012230008C167AF021208C1F5AF021208C14EB080
:10123300021208C17BB1021208C18DB2021208C1A9
:10124300EAB2021208C156B3021208C1B7B30212BE
:1012530008C1F8B3021208C1A5B4021208C1B7B598
:10126300021208C1E2B5021208C12DB6021208C16A
:1012730074B6021208C106B7021208C1C1B702123E
:1012830008C19DA0031208C1AEA0031208C1FFA0AC
:10129300031208C144A1031208C1EEA1031208C13D
:1012A300B1A7031208C1F69E031208C14EA0031290
:1012B30008C138B8021208C1DDB8021208C1FDB86E
:1012C300021208C11DB9021208C131B9021208C1C4
:1012D30089B9021208C1B9B9021208C13ABB021294
:1012E30008C1E0BB021208C1C2BC021208C113BD8F
:1012F300021208C156BD021208C199BD021208C1EB
:10130300FFBD021208C120BE021208C1ACBE021208
:1013130008C1DDBE021208C151BF021208C1FFC0DD
:10132300021208C1D9C1021208C11BC2021208C1AC
:1013330075C2021208C16D9B031208C18E9B031272
:1013430008C1C49C031208C1EE9C031208C1F3E157
:10135300021208C166E2021208C171E2021208C158
:101363009AE2021208C1AFE3021208C1B0E5021209
:1013730008C16EE6021208C136A0021208C139A0E4
:10138300021208C1F3A0021208C11EA1021208C171
:1013930065A1021208C18AA1021208C1ABA10212FF
:1013A30008C1DFA1021208C118A2021208C141A399
:1013B300021208C178A3021208C198A3021208C13D
:1013C30033A4021208C1F8A4021208C12FA5021205
:1013D30008C1A4A6021208C147A7021208C140A867
:1013E300021208C169A8021208C1BDA8021208C1ED
:1013F30083A9021208C1B1A9021208C146AB0212A5
:1014030008C1C7AB021208C136A5011208C105D62F
:10141300021208C151D6021208C1BFD6021208C176
:10142300E0D6021208C1F7D6021208C1A7D70212EA
:1014330008C1B0D7021208C103D8021208C12CD8C0
:10144300021208C193D8021208C124D9021208C19A
:1014530066D9021208C1B0D9021208C10FDA02120A
:1014630008C1A0DA021208C130B0011208C11EDBA4
:10147300021208C153DB021208C165DB021208C164
:1014830077DB021208C196DB021208C19FDB02124E
:1014930008C155DC021208C195DC021208C1E2F44E
:1014A300021208C1B5F5021208C1CFF5021208C134
:1014B300E0F5021208C1F5F7021208C114F802128E
:1014C30008C13097031208C16697031208C1AF978A
:1014D300031208C1FF98031208C10BDC011208C1F3
:1014E3004ADD011208C186DD011208C145DF011280
:1014F30008C16EDF011208C101E2011208C145E211
:10150300011208C1CEE3011208C166E4011208C149
:10151300CEE4011208C16FE5011208C1B1E5011261
:1015230008C1F1E5011208C17CE7011208C1ECE82A
:10153300011208C111EB011208C13FEB011208C1EE
:1015430066EB011208C16FEB011208C1CAEB01126D
:1015530008C15DEC011208C17BEF011208C1FCEF69
:10156300011208C1EEAC031208C142AB031208C159
:101573000587031208C11887031208C1B587031230
:1015830008C1F087031208C10B88031208C1308811
:10159300031208C17588031208C1A688031208C183
:1015A300D788031208C15D8A031208C1A4A80312D5
:1015B30008C1DAA8031208C1F6A8031208C138A9A2
:1015C300031208C148A9031208C17E79001208C199
:1015D300437A001208C1DE7B001208C19C7C001212
:1015E30008C19C7D001208C18A7E001208C1BE900A
:1015F300021208C11391021208C1BD91021208C15F
:101603006592021208C1C292021208C11B93021210
:1016130008C1E594021208C16095021208C18A95B7
:10162300021208C14797021208C16297021208C149
:10163300B197021208C1C797021208C1D4970212C8
:1016430008C10498021208C11A98021208C1A0988E
:10165300021208C1AF98021208C10899021208C108
:101663006299021208C1B499021208C1BE9A021209
:1016730008C1409D021208C1DA9D021208C11C9ED6
:10168300021208C1B19E021208C1CE9E021208C105
:10169300D19E021208C1D49E021208C1479F0212B2
:1016A30008C1629F021208C18E9F021208C1C99F1E
:1016B300021208C1CC9F021208C1DF9F021208C1A7
:1016C30006A0021208C1F2A9031208C1FEA903125F
:1016D30008C138AA031208C159F0011208C184F0E5
:1016E300011208C146F1011208C1CBF1011208C170
:1016F30034F2011208C180F2011208C1FFF2011293
:1017030008C191F3011208C11DF4011208C15FF46D
:10171300011208C1A8F8011208C128FA011208C170
:1017230067FA011208C130FB011208C1E4FB011280
:1017330008C194FD011208C120FE011208C10080F6
:10174300021208C1BA80021208C12C81021208C118
:101753003B81021208C1B581021208C12482021220
:1017630008C12E83021208C15783021208C1F783EE
:10177300021208C14584021208C1B584021208C1CD
:10178300E985021208C1C586021208C13687021212
:1017930008C1B388021208C17589021208C1108AF0
:1017A300021208C16B8A021208C1D68A021208C14A
:1017B300DA8B021208C19B8D021208C13A8E021203
:1017C30008C1AC8E021208C1698F021208C104FD60
:1017D300021208C158FD021208C1B0FD021208C16D
:1017E300FBFD021208C15DFE021208C1F6FE0212E1
:1017F30008C15EFF021208C16AFF021208C1DA942F
:10180300031208C10B95031208C1C595031208C141
:101813002B96031208C19C96031208C1E199031287
:1018230008C12D7F001208C13E7F001208C1DE7F70
:10183300001208C13E9D031208C14C9D031208C14A
:1018430004AD031208C175AA031208C185AA0312C5
:1018530008C1A0AA031208C1E8AA031208C1AFA6CF
:10186300031208C134A7031208C198A7031208C1C1
:1018730083AC031208C186AC031208C100800312B3
:1018830008C11680031208C13F80031208C15A80A1
:10189300031208C17580031208C17F80031208C1B7
:1018A3008980031208C19C80031208C1B58003120A
:1018B30008C15C81031208C1DB81031208C16DF901
:1018C300021208C17BF9021208C1F5F9021208C11C
:1018D300D9FA021208C192FC021208C1AEAC03127B
:1018E30008C1BEDC021208C12BDD021208C1ECDD07
:1018F300021208C15CDE021208C165DF021208C1D0
:10190300DDE0021208C141E1021208C196E10212B0
:1019130008C19FE1021208C1AEE1021208C1C1E190
:10192300021208C1D7E1021208C1E0E1021208C1A4
:10193300BDE6021208C112E7021208C10EE9021243
:1019430008C140E9021208C162E9021208C17BE939
:10195300021208C194E9021208C19EEA021208C1E8
:1019630039EB021208C105A2031208C129A203120E
:1019730008C142A2031208C175A2031208C1A6A29C
:10198300031208C1D4A2031208C136A3031208C16B
:1019930045A3031208C14FA3031208C15CA303129A
:1019A30008C1878D031208C1AD8D031208C1EA8DEA
:1019B300031208C1F98D031208C1188E031208C15E
:1019C300808E031208C1898E031208C1E88E0312A8
:1019D30008C10C8F031208C1CB8F031208C1D88F23
:1019E300031208C1E98F031208C11AAC031208C11C
:1019F30037AC031208C1B0EB021208C10EED02129C
:101A030008C11BED021208C12EED021208C14DEDF3
:101A1300021208C163ED021208C177ED021208C178
:101A2300ECED021208C151EE021208C101EF0212DD
:101A330008C1D6EF021208C1E6EF021208C1F5EFA2
:101A4300021208C159A9031208C17DA9031208C1D2
:101A5300A5A9031208C1CDA9031208C11790031247
:101A630008C13E90031208C15F90031208C1C490DD
:101A7300031208C17D92031208C19692031208C192
:101A8300A292031208C1B692031208C1D4920312A0
:101A930008C1DE92031208C1E892031208C1FB9247
:101AA300031208C14E93031208C18793031208C19E
:101AB300B693031208C10494031208C1539403128A
:101AC30008C16E94031208C17894031208C1899463
:101AD300031208C1CF94031208C1F1AA031208C16B
:101AE300C9CC021208C1F3CC021208C10FCD0212F5
:101AF30008C122CD021208C138CD021208C195CD0A
:101B0300021208C1C8CD021208C104D2021208C1D0
:101B13002AD3021208C15DD3021208C1A9D302124B
:101B230008C1D5D4021208C1FDD4021208C112D5CE
:101B3300021208C122D5021208C166D5021208C1D9
:101B4300C7D5021208C1D7D5021208C166A3031272
:101B530008C181A3031208C1AAA3031208C1C4A325
:101B6300031208C1E9A3031208C108A4031208C1A0
:101B730020A4031208C14EA4031208C168A40312CF
:101B830008C1D6AB031208C18583031208C18C8335
:101B9300031208C19884031208C1C884031208C140
:101BA300EE84031208C11185031208C133850312A1
:101BB30008C16D85031208C1D385031208C10C86C1
:101BC300031208C15886031208C18586031208C18F
:101BD300A586031208C1ACA5031208C1BEA5031252
:101BE30008C1A9A6031208C1ACA6031208C199A48F
:101BF300031208C10BA5031208C149A5031208C1AA
:101C03008AA5031208C16A8A031208C1868A0312CD
:101C130008C1D58A031208C1F18A031208C1228BB5
:101C2300031208C1328B031208C11E8C031208C1B0
:101C3300288C031208C1358C031208C1458D031289
:101C430008C1598D031208C1628D031208C12EF019
:101C5300021208C173F4021208C178F4021208C117
:101C630056AC031208C1D0AC031208C19BFF021289
:101C730008C10AA4011208C15EA3011208C1AFA1E1
:101C8300011208C16A9F011208C1F19E011208C125
:101C9300989E011208C12C9E011208C1039E0112D5
:101CA30008C1F69B011208C1C29B011208C18F9B98
:101CB300011208C1739B011208C1999A011208C14C
:101CC300519A011208C18698011208C1069801129F
:101CD30008C10398011208C10A97011208C1D896D6
:101CE300011208C11596011208C14094011208C1DE
:101CF300D193011208C1E1AD011208C1EAAC01128E
:101D030008C1CEAC011208C17AAC011208C132ACD1
:101D1300011208C1A393011208C1A093011208C1C3
:101D23008D93011208C12593011208C170AB0112F2
:101D330008C11493011208C1F591011208C1BF91A2
:101D4300011208C18291011208C12391011208C135
:101D5300E3AA011208C1D6AA011208C1DFDA0212EE
:101D630008C1F290011208C1AD8D011208C19E8C09
:101D7300011208C12D8C011208C1F28B011208C196
:101D8300BD8B011208C1B18B011208C1118B011265
:101D930008C1588A011208C12B88011208C1B785EE
:101DA300011208C17585011208C14084011208C1DE
:101DB300F583011208C12783011208C17E82011233
:101DC30008C11A82011208C15482011208C1E4A792
:101DD300011208C1FAAB0200000080FBE4730001AA
:101DE3003636010100010201000103010001040173
:101DF300060605020000070100340801000F09046C
:101E030001010D0100FF0E08000017020000190177
:101E130000FF1A0100011B0100FE1C0100081D0246
:101E230000001F0100012001000121020000230125
:101E3300000F2402000026010001270100082802E8
:101E430000FF2A0100072B0102402C0100002D0195
:101E530000012E0100012F0100FF30010B1C31088E
:101E630000003A0100083B01000F2F0100000300AE
:101E73007100300160001100700031022003500432
:101E83008000100061000000140063007300720002
:101E9300620043000000130006000000000004007D
:101EA30012000000000000000000040004003700DE
:101EB30037003C0244000000000000000000650001
:101EC30000003500810000000500000083000000D1
:101ED3000302710230016002110270020102020268
:101EE30002028002100261023A004100630273029F
:101EF300720262024302000213023800000200026F
:101F030004021202000200020002000204020402A0
:101F1300370037003C02440200023900000200028D
:101F23006502000235028102000205028202830279
:101F33000002010371030103010301030103010310
:101F43002203020301031003000300030003000341
:101F530000030003000342030003240306030003FA
:101F630000030403120325032303250323030403AC
:101F730004030003000300034403000300032303DB
:101F830000036503210035038103000305030003F8
:101F930000030003010171010101010111010101AC
:101FA3003101010101018001100161013B001400B5
:101FB3006301730172016201430100011301060110
:101FC3003D0135000401120100010001000100017F
:101FD30004010401330133013C01440132013600A1
:101FE30000010001650100013500810100010501C7
:101FF30082018301000136000100060000000F008A
:1020030000000000000000000000000003FFFF00CC
:10201300000403FFFF0000FFFF0FF4010005C404E9
:102023000320000100030B00000000000000000378
:10203300010F01007A170200F0160300F6160400E0
:10204300FC160500021706000E17110026171400D0
:102053002C1715002017FFFF000003EAF5E5D5D57F
:10206300C5B5A595958585757565655555454535FD
:10207300352525151505FA0F2A1000100610241012
:1020830018101210301036103C1048100C10F40FBA
:10209300EE0F0AC60D02900D05A20D07960D0C72E8
:1020A3000D0D840DFF000000160F00000B150B0231
:1020B3000002220F32000006E410F610FC10C40FD9
:1020C3000211BE0FCA0F4411621168114A11561151
:1020D30050110C0E020B040B0A0708000F303016C8
:1020E300181920231A1C1E3000011916181616156C
:1020F30023030000034948424D1817250502003801
:102103003C3E363B3B352B432C30301718192130DE
:102113001B1D1F30381108110E111A1114111E1036
:1021230042105C114E105410020402010101010916
:102133000200000000000000BE040A0E00E80304D1
:102143000015002800040C05030908FF1E1E0A04DD
:102153000F100C74F7120428E99003B0F090036594
:10216300E4F0121BD69003B5E4F0A3F09003B1F0B2
:10217300A3F0120EFE121BDC900334E4F0A3F090E4
:10218300215393FA7902121C3C024DEC74F21204AF
:1021930028EAFEEBFF548060699003B0E0F9121463
:1021A300448A088B09EA4509604F7C0080010CECE6
:1021B30075F003A4F8A9F0749528F582742039F515
:1021C30083E493F4602CE493F88508828B83E068BE
:1021D30070DCAA08EC75F003A4F8749628F58274F1
:1021E3002039F583E493C0E0740193F583D0821220
:1021F3001DDFAA08AB09121438EEFAEF6480FB0264
:10220300235CEF5420601D120E208A088B09EA45D7
:1022130009600A120D84AA08AB09121438EEFAEF0A
:10222300642080DAEEA2E0501A90036AE0640F7033
:102233000B7900120D4EE9600312235FEE6401FA7D
:10224300EF80BB5420700302232A750C001238312F
:102253008B09EA450970107C027D007A207B00908F
:1022630003B0E0F912158E7C0079047A007B00122A
:102273000DFC8A088B098018850882850983A3A32E
:10228300A3A3A3A3A3A3A37401F0850A08850B0941
:10229300E5084509606D7C007904AA08AB09120DB5
:1022A300FC8A0A8B0B750C01E5082404F8E5091276
:1022B30035D524FFF0A3E034FF1258C870CC85084D
:1022C30082850983A3A3A3A3A3A3A3A3A3A3E064D6
:1022D3000170A5850882850983A3A3A3A3A3A3E013
:1022E30054047094850882850983A3A3A3A3A3A39D
:1022F300A3A3A37406F07AB7850882850983122401
:102303008B8087120DCC7C0079017A007B00120D43
:10231300FC8B09EA45097009E50C70057A20124720
:102323008BEE6420022242EF5402600B120EF8EE91
:10233300FAEF6402022201EF5404601912492212D7
:1023430048427901900363124BA6120C94EEFAEF04
:1023530064040222017A007B00022592900CFC1295
:102363002C29120D6622C082C08374EA1209BE852D
:102373001882851983AA82AB83794B121C127408C5
:10238300120B9D7402F07409120B9DAA82AB837920
:1023930050121C127413120B9DE4124D75121C3053
:1023A3007416023D4F74F712042874E11209BEEA51
:1023B300FEEBFFEE4F6033851882851983AC82AD47
:1023C30083120E447406120B9DE0601E7417120BE9
:1023D3009DE0FD7401120B9DE0FCEEFAEFFB79002A
:1023E300120BBCE9600479A480027900024DE77402
:1023F300F6120428EAFEEBFF8E828F83A3A3A3A326
:10240300A3A3E05440601B12526412255960067A5C
:10241300FF7BFF801A8E828F831239DBFAA3E0FBE6
:102423008003120E6874FE6A700374FF6B604112BE
:1024330052641247CF120EBCE98E828F836006125C
:102443002484E480051224847401F07C547D0D8E71
:10245300828F83124BA6121C36E9F5087015EE4FD6
:1024630060097901EEFAEFFB120DD8A908024800C2
:102473007508CDAA088E828F8312248BE960DF80D2
:10248300EAE0240D123EAA22E0240C123EAAE0F94F
:10249300120D602274F6120428E9FEEAFF7A0F7B1C
:1024A30000121432EA4B60198A828B83740CF0EEAB
:1024B300A3A3F0EF8A828B83A3F012482B790080C9
:1024C3002FEEF9120E028A088B09A808A909E84918
:1024D300601C88828983A3A3A3A3A3A3A3A3A37438
:1024E300061254EFE0F9120D18EEF9120DDE791011
:1024F300024800C082C08390036AE0640F7014EA4C
:102503004B6010900365E064086005E064047003A9
:10251300122519023D79EAFCEBFD7A017B00900359
:10252300B0E0F912158822C082C0837900EA241D25
:10253300F582EB1239D824FD600B14600824FD608A
:102543000424FD700109023D798E828F83A3A3A326
:10255300A3A3A3A3A3A312255D22123A20FB120E69
:10256300BCE9228E828F83A3A3A3A3A3A3A3A3A3C4
:1025730012255D6402228E828F83A3A3A3A3A3A348
:10258300A3A3A3123D70900356E068221209447F6F
:102593000602064174F412042874FD1209BE8A0867
:1025A3008B098A828B83A3A3E0F9120E028A0A8B1A
:1025B3000BAE0AAF0BEE4F700302269E8508828591
:1025C3000983A3E064F16030850882850983A3E071
:1025D30064CD6024850882850983A3E0641A6018AA
:1025E300850882850983A3E064E9600C85088285F8
:1025F3000983A3E064E170087900120DD8E9706CD7
:10260300850882850983A3E0C0E07402120B9DD084
:10261300E0123D54EEF0A3EF12307F851882851946
:1026230083AA82AB837005120C7C8003120EA47400
:1026330002120B9DE064E970338E828F831226AA07
:10264300750A01780A120900750AE9780A12090065
:10265300E508240CF582E509122B7112305CFCA30A
:10266300E0FD8A828B831230761209448E828F8337
:10267300A3A3A3A3A3A3A3A3A3E0640270108E82C6
:102683008F83A3A3A3A3A3A3A3A3A37406F0850883
:1026930082850983A3A3E0F9120DDE120DCC900D00
:1026A30000122362022C2EE0F8A3E0F9E8FAE9FB1A
:1026B3002274F4120428EAFEEBFF7508008E828F61
:1026C30083A3A3A3A3A3E060427508088E828F832C
:1026D300A3A3A3A3A3A3A3A3123C838B0BEA450B3E
:1026E300601075082C8E828F83A3A3A3A3A3E0D2CB
:1026F300E0F08E828F83A3A3A3A3A3E0540364011A
:10270300600302279D43081102279DEE2418122C13
:102713003B6033EE241A122C3B700F1225797003A1
:10272300A3E06970757508228070EE241BF582EFB3
:102733001227A2241AF582EF123087EE24191252BF
:1027430098120D0680541225667003750801122530
:10275300797003A3E0697006E508D2E1F508E5089E
:1027630060158E828F83A3A3E07006E508D2E5800F
:1027730004E508D2E6F50812254C64017006E50865
:10278300D2E0F5088E828F83A3A3E0600D1227B0F9
:1027930064016006E508C2E0F508A908022C3312BB
:1027A30039C61227A922E0FCA3E0FDEE221239C0AC
:1027B3001239F8F9120EAAE922C082C08379018A7C
:1027C300828B83A3A3E0C394024001198A828B8383
:1027D300A3A3A3A3E0C39402400279008A828B835C
:1027E300A3A3A3A3A3A3A3A3A3E064F87003A3E0F9
:1027F300F460458A828B83A3A3A3A3A3A3A3A3A368
:10280300E064F97003A3E0F4602E8A828B83A3A3B0
:10281300A3A3A3A3A3A3A3E064FA7003A3E0F460B8
:10282300178A828B83A3A3A3A3A3A3A3A3A3E06475
:10283300FB7003A3E0F4700279008A828B83A3A365
:10284300A3E0F8900353E06860027900023D7974D5
:10285300F012042874DE1209BEEAFEEBFF8E828FAB
:1028630083A3A3A3A3E0600E900CFE1247F76006B8
:10287300900CFE1223627403120B9DAC82AD838E07
:10288300828F83A3A3A31248791250B2E9600F7415
:1028930003120B9DAA82AB83120D7EE970087901A6
:1028A300121BE8022B66EE241B1239CB7410120B99
:1028B3009D1248427409120B9DE06021741A120B99
:1028C3009DE0FD7404120B9DE0FC8E828F83124BFE
:1028D300A47901120BBCE96004790280C37403126A
:1028E3000B9DAA82AB83120D78E9F50A7409120BCA
:1028F3009DE0702A90034DE060247422550A6422FF
:10290300601C7442550A644270CF7420120B9D12EE
:102913002B84600A7420120B9D122B7D70BBE9A2DD
:10292300E650417403120B9DAA82AB83120D6CE92E
:1029330070030228A17420120B9D1239DB6403700B
:102943000F7420120B9DA31247E9A3E0640D6014DA
:102953007403120B9DAA82AB83120ECEE96401703D
:1029630003022B66EE242C122B6E122E927003A3FD
:10297300E069701C750800780812090078081209CC
:1029830000EE242E125298122B8A1230761209442A
:102993007409120B9DE07003022A43122B8A124B17
:1029A300A6120F228A088B09EA45097003022AE05E
:1029B3007404120B9DE0F88E828F83A3A3E028F8A2
:1029C300A3E03400F9E8240D122B758A828B83A3CC
:1029D300A3A3E068601CE88A828B83A3A3A3F0907F
:1029E30081E2120B7A850882850983A3A3A3A3122C
:1029F3000B867904E9120B9D12508F2AF8A3E03459
:102A0300008882F583A3AA82AB831214268A0C8BD7
:102A13000D8C0E8D0F850882850983A3A3A3A3784C
:102A23000C12087A4003022B669081FE780C120A7E
:102A33004D850882850983A3A3A3A3780C120B42B7
:102A4300900365E064046008E064096003022B6698
:102A5300E50AA2E54003022B1EEE242E122C3B8531
:102A63001882851983F0EE242F122C3BC0E07401E9
:102A7300120B9DD0E0F0EE2430122C3BC0E0740228
:102A8300120B9DD0E0F07414120B9DE064017027CB
:102A9300740E120B9D1239D1EE2412122C3B687066
:102AA30003A3E0697011740C120B9D122573700758
:102AB3007414120B9DE4F0EE2424122B6E120742C1
:102AC3007404120B9DAC82AD837407120B9DAA8212
:102AD300AB83120C827404120944022B669003AA7E
:102AE300E064016003022A437420120B9D122B84BD
:102AF3007009E50AA2E65003022A437410120B9DE3
:102B0300E0F47003A3E0F4605AEEFCEFFD740312EB
:102B13000B9DAA82AB83120D8A8048A2E6504474AF
:102B230020120B9D124BB5701A741A120B9DE064A0
:102B33000270307403120B9DAA82AB837900120ECC
:102B43009880207420120B9D122B7D7016741A121C
:102B53000B9DE06404700C7403120B9DAA82AB837B
:102B6300120E927422024F61EE240BF582EF12399A
:102B7300C622F582E912485BF822125276E0640716
:102B8300221239F8640622EE242A1239C31227A925
:102B930024121239C32274F4120428EAFEEBFF8CC8
:102BA300088D099005E0E0600F1225797003A3E01A
:102BB300697005120CF4804F7900124B99120D24A1
:102BC3008A828B83E58245836035A3A3A3A3A3A352
:102BD300E05418602AE508241BF582E509122B71DD
:102BE30012074612326F122B71120746EE24181287
:102BF3005298122C0C120D36740412094480087971
:102C030000122C0C120CFA80278E828F83A3A3A3AD
:102C1300A3A3A3A3A3A31227A9240BF582EF122C2A
:102C230025223400F583123A20FB2274031209444F
:102C33007F04020641EE2417F582EF12485B2274EB
:102C4300F712042874F71209BEEAFEEBFF9003653E
:102C5300E06403600DE064016008E064096003025E
:102C63002D0C8E828F83A3E0707E7C007D007A0220
:102C73007B00121BE2EE2402FAEF1235DC1239D18B
:102C83009003561248427953121C187900122D11E1
:102C9300E0640960031230A48518828519837401E6
:102CA3001248189003657404F07401120B9DAA82F4
:102CB300AB83794A121C127401120B9DAC82AD8353
:102CC3007A5B7B03121C009003561250A87A0312FE
:102CD30030AE900350E0A2E35004D2F08002C2F081
:102CE30012480512235F801E8E828F83A3AE82AFAC
:102CF30083FC7D007A037B10121BE28E828F83E0BC
:102D0300F9122D11E4F0120DB47409024DE9900388
:102D130063122C29120C9490036522C082C0839005
:102D230003341247F7701F900365E014600924FC15
:102D3300600A14600C800F90033C8032900338804B
:102D43002D90033A8028E8496008900335123056E5
:102D5300700C8A828B83A3E0F9120C88801B90038A
:102D63003512330B7005120EEC800E9003D212470E
:102D7300F760061247E9121DDF023D7974F412046D
:102D83002874FB1209BE8A088B097A0F7B00121480
:102D9300328A0A8B0BAE0AAF0BEE4F7003022E86FC
:102DA3008E828F83124D737950121C12850882858F
:102DB3000983A3E06003022E6E900363E0F47003C3
:102DC300A3E0F46034900363E064FE7003A3E0F4D3
:102DD3006027851882851983122E927003A3E069F8
:102DE3006017850882850983A374EA12308C7A639D
:102DF3007B037950121C18807285188285198312FF
:102E030052571248427A567B037953121C1290038D
:102E1300561248731248427A597B03794B121C129B
:102E23007A587B0379E1121C1290036AE0C3940F72
:102E33005021900358E0C0E07402120B9DD0E0F0E3
:102E43007404120B9D7401F004120B9DAA82AB83D0
:102E5300121C2A750A00780A120900780A1209005E
:102E6300900D22E0F912306D12094485088285091C
:102E730083122E8BA3F09003657403F0EEFAEFFB3D
:102E830012482B7405022C30A3E08E828F8322120A
:102E9300525BE06822123EB12274F512042874D802
:102EA3001209BE8A088B098A828B83A3A3A31239D2
:102EB300FD7415120B9DAC82AD838A828B83A3A311
:102EC300A3A3A3A3A3A312305CFAA3E0FB120DBA3E
:102ED3007415120B9DE0706B850882850983A3A38B
:102EE300A3A3A3A3A3A3E0C3940B40578E828F8312
:102EF300A3A3A3A3A3A3A3A3E064027046EE240B9E
:102F0300122C3BF4703D900365E06402603AE06488
:102F13000660359003341247F76005123056604F50
:102F2300900365E064086005E0640470167417128A
:102F33000B9DE0F9741C120B9DAC82AD83124B996F
:102F4300120DC074280257759003341247F7701F8F
:102F530075080078081209007808120900EE241099
:102F6300122B6E1252B01236C41230761209448EEE
:102F7300828F83124B151235EE1239D17402120B64
:102F83009D124842EE240D122C3BC0E07404120B38
:102F93009DD0E012307FF508A3E0F509740F78089F
:102FA300120B337405120B9DE508F07419120B9D77
:102FB300E0C0E07406120B9DD0E0F0741B120B9D71
:102FC300E0C0E07407120B9DD0E0F07416120B9D65
:102FD300E0C0E07409120B9DD0E0F07417120B9D52
:102FE300E0C0E07408120B9DD0E0F0EE2410122C28
:102FF3003BC0E0740A120B9DD0E0F0741A120B9DD3
:10300300E0C0E0740B120B9DD0E0F07427120B9D0F
:10301300E0C0E0740C120B9DD0E0F0741C120B9D09
:10302300A982AA8389088A09750A0078081208F810
:103033007C087D007410120B9DAA82AB831243A6F9
:10304300120944851882851983AA82AB83120C8ED8
:10305300022F46123311640122E0F98A828B83A383
:10306300A3A3A3A3A3A3A3A3E0229003631250AC3F
:10307300900359122C29120E7A740222F0EE240BBB
:103083001248582212485BFA22F07A567B0379538E
:1030930012309722121C187A597B03794B121C1891
:1030A30022900363122C29120F1C227B00121BE2B5
:1030B3009003591250AC7A047B00121BE222F012E7
:1030C30052BB2274F212042874F81209BEEAFEEB12
:1030D300FF8C0A8D0B890C851882851983AC82AD10
:1030E300837583817582A2740812083AF50DEEFC8C
:1030F300EFFD851882851983AA82AB83124A767005
:1031030003750D019003B1803BEEFCEFFDE5082450
:103113000BFAE5093400124A75601E850882850999
:1031230083A3A3E0650C7011850882850983E0659C
:103133000A7004A3E0650B6038E5082414F582E502
:1031430009122B711235E6E50845096024E50DA245
:10315300E040B6850882850983E0650A7004A3E030
:10316300650B70D5850882850983A3A3E0650C7080
:10317300C8AA08AB09740802258FC082C0839003D4
:10318300B1023D7674F71204289003B1123A2080FD
:1031930012EA2414F582EB122B711239FD1214D4A6
:1031A300EEFAEFFBEA4B70E99003B1E4F0A3F0020F
:1031B3004DEC7F0702064174F1120428EAFEEBFF8F
:1031C300890A8C088D098E828F83E08C828D83120D
:1031D3003C8DAE82AF83E01244661243D7C41244DF
:1031E30066123278E054038C828D831243D5A2E2B7
:1031F300E4338C828D831243D4131313541F12446C
:10320300661243D3A2E7E4338C828D83A3A3A3A3E3
:103213001232788E0C8F0D750E00780C1208F87C24
:10322300087D00E508240712501B1209441250863A
:103233008E0C8F0D780C1208F87C037D00E50824B2
:103243000F12501B120944E50AC3940F40148E82D7
:103253008F83A3A3A3E0C0E012326F122B71D0E0DF
:10326300800612326F1254E3F00231B5E5082412DE
:10327300F582E50922A3A3123C910EAF832274F4D5
:1032830012042874F91209BEEAFEEBFF89089003C1
:10329300341247F7600E12330B7009EEFAEFFB128C
:1032A3000EE6805F900363E06E7003A3E06F7053DC
:1032B3007401650860097A777B03124A7670447A51
:1032C300007B021238358B0BEA450B703690036690
:1032D300120B7A851882851983120B8690036CE092
:1032E300C0E07404120B9DD0E0F07405120B9D74C2
:1032F30001F07406120B9D124D73120C58E9609B7A
:10330300120C5E7407022C30123311640222125223
:1033130077A3A3A3A3A3A3E02274F51204288A0826
:103323008B098A828B83A3AE82AF83E0F9120CAC44
:103333008E828F83E064EB600C850882850983A30A
:10334300E064E17009850882850983A3E4F0122310
:103353005F750A01780A120900850882850983A32B
:10336300E0F5087808120900790012306D1209445B
:10337300120DCC025778EAF0A3EBF0023D7974F614
:103383001204289003B4E0701B7C0079017A007B5F
:1033930000120DFCEA4B600C8A828B831247F760A4
:1033A30003120D5A024800C082C08312381D401018
:1033B30079FF120DF6E9F8902155E493C398500470
:1033C300790180027900023D7974F01204288A0899
:1033D3008B09890B750C008A828B83A3A3A3A3A3F8
:1033E300A3A3A3E0F9120E028A0E8B0FAE0EAF0F4A
:1033F300750A01EE4F60030234AA850882850983AA
:10340300A3A3A3A3A3A31250A8850882850983A31A
:10341300A3A3A3A3A3A31241A6124BA6120DEA8A48
:103423000C8B0DAE0CAF0DEE4F70030235CD8E82BB
:103433008F83A3A3A3A3E4F0A3F0E508240B123521
:10344300D9E0C0E0122B6BD0E0F0120EC2EE240CD8
:10345300F582EF1247CBE508240EF582E509123910
:10346300CEEE240EF582EF12483F750C01EE2406D2
:10347300F8EF1235D5547FF0A3E054FC12530DE05E
:1034830054046003023530900D0412419774077899
:1034930008120ABF8E828F83A3A3A3A3A3A3E0452D
:1034A30008F0A3E04509F08E828F83A3A3A3A312A0
:1034B30035E474077808120B33E5085407F508E57B
:1034C3000B607A8E828F83A3A3A3A3A3A3A3A3A337
:1034D30074021243D8240D123EA6E0A2E2500B90D0
:1034E3000351124873A3A3124842E508700302353F
:1034F300A2EE2406F8EF3400F9E8FAE9FB8A828B9E
:1035030083E0547FFCA3E054FCFDE50824FFF508A9
:10351300E434FFF50974077808120ABFEC4508F88C
:10352300ED4509F98A828B8312484280728E828F1D
:1035330083A3A3A3A3A3A3E044800234A9E5087053
:1035430005750A0080598E828F83A3A3A3A3A3A327
:10355300E05420601212142CEA547F245F8E828F71
:1035630083A3A3A3A380238E828F83A3A3A3A3A355
:10357300A3E05410600A12142CEA540F240A80DDCD
:103583008E828F83A3A3A3A37401F0A3E41235EE69
:10359300740412382C8B09EA450970031247BEE5FF
:1035A3000CA2E050288E828F83A3A3A3A3124DD92C
:1035B300F9EEFAEFFB120DF0E960121247ED60032A
:1035C3001239B6EEFAEFFB1214D4750A00A90A02F7
:1035D3004F6412493622FAE5093400FB8A828B8351
:1035E30022A3A3E0F508A3E0F509221235F2221283
:1035F3005037A3A3A3A3A32274F412042874F712CD
:1036030009BE7E00120E02EA4B70030236BD8A82A7
:103613008B83A3A3A3A3A3A3A3A3A3E06406600331
:103623000236BD8A828B83A3A3A3A3A3A3A3E0FF34
:103633008A828B83123EB9E0C0E07408120B9DD0DE
:10364300E01239F1124A7C124842120E14EF540868
:1036530060668518828519831250A87A007B001250
:103663000DE48B0BEA450B704F900363123AE112A2
:103673001C427C007D007A007B0080288E828F8331
:103683001239DBF47003A3E0F4602D900363123668
:10369300C4124BA6121936E9641A601C7C007D0023
:1036A300EEFAEFFB120DE48A0A8B0BAE0AAF0BEEB8
:1036B3004F70C97900121C487E01EEF97409022C7F
:1036C300301236C822E0FCA3E0FD8E828F8322C035
:1036D30082C083EA4B70059003B580068A828B8390
:1036E300A3A31238E160258A828B83A3A3A3A3A398
:1036F300A3A3E0540860E5EC4D60158A828B831226
:1037030039DB6C7003A3E06D70D280047A007B0018
:10371300023D7974F2120428EAFEEBFF890A8C0851
:103723008D097A107B001214CEEA4B603F8A828B9C
:1037330083A3A3A3A3A3A3A3A3A3E41239DFA3E5B2
:103743000A12527DA31237798A828B83A3A3A3A380
:10375300E4F0A31239EBA3F0125111EA240CF58221
:10376300EB123C7D123772A3A3F0A3F0022592A3C0
:10377300F08A828B8322A3A3E508F0A3E509F02254
:1037830074F4120428EAFEEBFF89088C0A8D0BEE11
:103793004F60557401650870147901120DF6E9F84C
:1037A30090214DE493C398500F7911806A74046596
:1037B30008702F12381D40F18E828F83A3A3A3A319
:1037C300A3A3A3A3A3E508123C8DA31258028E82E0
:1037D3008F83A3A3E4F0A3F09003B51247F760210E
:1037E300800D7402650860D079C1802BE0F8A312C4
:1037F300486CA3A31238E188828983A3A370ED8068
:10380300039003B5EEF0A3EF12382C8B0BEA450BB4
:1038130070031247BE7900022C337904120DF6E9C6
:10382300F890214AE493C39822F0123831227A2087
:103833007B009003B0E0F912159A22C082C083E99D
:10384300F879009003B5801D8A828B83A3A3A3A379
:10385300A3A3A3A3A3E068600574FF687001098AAA
:10386300828B83A3A31238E170DE023D7974F712D1
:103873000428EA4B70059003B580068A828B83A3E4
:10388300A31238E160248A828B83A3A3A3A3A3A3F7
:10389300A3A3A3E06970E4EC60148A828B83E02421
:1038A3000D125099A2E240D380047A007B00024DAE
:1038B300ECC082C0839003B580068A828B83A3A366
:1038C3001238E160128A828B83A3A3A3A3A3A3A3C9
:1038D300A3E06970E580047A007B00023D79122C35
:1038E30029EA4B2274F21204288A0A8B0B8C0C8D62
:1038F3000D750800750900EA450B602E9003B5802D
:10390300068E828F83A3A3123934601EAC0CAD0DD7
:10391300EEFAEFFB850A82850B83121DDFE9640152
:1039230070DFEEF8EFF988088909AA08AB090225C8
:1039330092E0FEA3E0FFEE4F2274F71204289003F7
:10394300B51239D17C007D00800DE8FCE9FD888249
:103953008983A3A31239D1E8496030EA687002EB86
:103963006970E79003B5124BA6E86A7002E96B88A9
:10397300828983A3A370081239D19003B5800912F9
:1039830039D18C828D83A3A3124842024DEC74F784
:10399300120428EAFEEBFFEE4F6015120E0E123AE8
:1039A300031247ED60031239B6EEFAEFFB1214D49B
:1039B300024DECEE240C1239C3123A1822EE241DE8
:1039C300F582EF3400F58322F582EF1239C6123DFA
:1039D3007022F582EF1239C61239F8221239E32226
:1039E300125285A3A3A3A3221239E3A3A32212375E
:1039F300731239F822125270E022E0FEA3E0FF2294
:103A03008E828F83E0241C123EAA123A188E828F74
:103A130083123A1822123A20FB1214D422E0FAA39A
:103A2300E022C082C083EAFCEBFDEC4D7004790513
:103A33008044EC24FBF582ED34FF1247F570071246
:103A43003A7CE0F4600512143880E39003B0E0C0E0
:103A5300E0123A7CD0E0F0902151E493F97AB77BFD
:103A630003121462E96401700B7A007B201247C2CF
:103A7300790080027904023D79EC24FFF582ED346C
:103A8300FFF5832274F4120428A2AFE433F508C2CD
:103A9300AF9003B71239346038EE24FBF582EF346C
:103AA300FF1247F57A007B209003B060051247C5EB
:103AB3008005E0F912146EE4F50AF50B780A120892
:103AC300FCEEFCEFFD7AB77B0312145C740212095F
:103AD30044E508A2E092AFEEFAEFFB022C3312505A
:103AE300AC851882851983AA82AB832274F21204EF
:103AF3002874FC1209BEEAFEEBFF750AFE750BFF84
:103B0300120DD2E960057911023C72EE2415122CD4
:103B13003B6037900D18E0C43354E0F8E03333547E
:103B2300FC48C0E0EE2415122B6ED0E0123C8D123F
:103B33003C838B09EA45096011750AFFEE240F12D5
:103B43002C3B4404124850D2E0F08E828F8312251E
:103B5300576006EE2412123C7AEE2413122C3B70AB
:103B630010902150E493C0E0EE2413122B6ED0E0AA
:103B7300F08E828F83E0A2E750045403801CEE246E
:103B830014122C3B7015900342E0C0E0EE24141293
:103B93002B6ED0E0F0900342E004F0EE2411122CDF
:103BA3003B640170169005D7E0600D90034DE07003
:103BB3000A8E828F83E07003123C778E828F83E0BC
:103BC30064017013EE240B1239D564027009EE24DC
:103BD3000F122C3B4440F0851882851983AC82ADCB
:103BE30083EEFAEFFB120E388A088B0974FE650A1E
:103BF300700374FFF470098E828F83A3A31250277E
:103C0300EA450960668E828F83E0C0E07401120B7F
:103C13009DD0E0F07402120B9D1251157401120B2A
:103C23009D85820C85830D780C1208FCEE240F12FF
:103C33002B6E120746EE240E122C3BF50C780C1259
:103C430009009003561207467407120B9DE0F9AC66
:103C53000AAD0B120E327407120944E9FE74106E9A
:103C6300700BAA08AB091214D480027E10EEF9740B
:103C73000402258FEE2411F582EF1239C6E4F022F7
:103C8300A3122C2979FF121D0E22123C9122F08ED1
:103C9300828F83A322C082C08374DE1209BE8A820C
:103CA3008B83A3A3A3A31239D1740E120B9DE8F047
:103CB300A3E9123D67740C120B9D123D60240DF5B0
:103CC30082EB122C3EC0E0741A120B9DD0E0F0126E
:103CD3004F74EB1239CE7420120B9D123D602415E4
:103CE300F582EB122C3EC0E07408120B9DD0E0F07D
:103CF300EA241CF582EB1239CE7412120B9D123D8D
:103D0300602411F582EB122C3EC0E07409120B9D66
:103D1300D0E0123D5474FFF07401120B9D74FFF058
:103D23007402120B9D74FFF09081E2120742740437
:103D3300120B9DAC82AD837407120B9DAA82AB83D9
:103D4300120C82740412094479007422120944800B
:103D530025123D5822F085188285198322E8F0A3A5
:103D6300E9F0EA22123773A3123D6F22A3E0F8A30E
:103D7300E0F922124BA6D083D0820208BE74EC1263
:103D8300042874EE1209BE8A128B13ECFEEDFF8930
:103D9300097426120B9D1250277428120B9DE0F50F
:103DA300107429120B9D123E9B742B120B9DE0F590
:103DB3000EA3E0F50F7508107A1E7B001214CE7463
:103DC30002120B9D1247CF7402120B9D1247F7701C
:103DD30003023E94851882851983AA82AB837950A6
:103DE3001246AA124BA67402120B9D123EB9A312DD
:103DF30047CF7410120B9D1258047402120B9DE0EE
:103E0300240B123EA67402F0120B9D123EB97402EB
:103E1300F0120B9D1252681251157402120B9D126F
:103E23004BBBE509F07402120B9DE0240C123EA675
:103E3300E510F07402120B9D123EA3E512F0A3E508
:103E430013F07408120B9DE50CF0A3E50DF0740A52
:103E5300120B9DE510F0850E82850F83C082C0830F
:103E6300740D120B9DAC82AD83D083D08274031288
:103E7300083AF97402120B9DAA82AB83120DD8E99A
:103E83006401700575080080087402120B9D1239D5
:103E9300BCA908741202503EE0F50CA3E0F50D2214
:103EA300E0241C123EAA22F8A3E0123EB122340001
:103EB300F98882898322124BAEA3A3A3A3A32274FE
:103EC300EE120428EAFEEBFF8C088D098E828F83A5
:103ED300A3740812488BE060088E828F83A374104A
:103EE300F0122C3860098E828F83A3E02408F0EE51
:103EF3002415122C3B60088E828F83A3E004F08E7E
:103F0300828F83A3A3A3A3A3A3E060198E828F83CD
:103F1300A3A3A3A3A3A3A3E0C3332402F88E828F96
:103F230083A3E028F0EE2411122C3B6005750B0EE1
:103F33008003750B008E828F83A3C082C083EE241F
:103F43000D122C3BD083D082F8E028250B8C828D78
:103F530083F0EE2411122C3B60051243B628F08542
:103F63000882850983E0C3947540097508007509C3
:103F7300000240A4E0FA7B001251C370030240A484
:103F8300EEFAEFFB120E3EEA85088285098312479B
:103F9300D0EE2402F8EF122E9812419E1240E0F068
:103FA300EE24040808EF122E981245E0A31240E015
:103FB300A3A3F0EE24131240C6F0EE24141240C65D
:103FC300A3F0750A08EE2416122C3B6010EE241899
:103FD3001250A5E50824081252A6750A10122C38AF
:103FE3006016EE241A1250A5850A0CE508250C125A
:103FF30052A67408250AF50A8E828F83A3A3A3A36E
:10400300A3A3E06059EE2407F510EF3400F5118502
:104013001082F583E0C0E01240AD122B71D0E012A4
:1040230040D0E0C0E01240AD122B71D0E01240D07E
:10403300A31240B91208F8851082851183E0C333B7
:10404300FCE433FD850A0CE508250C12501B12090C
:1040530044851082851183E0C333250AF50AEE24D3
:1040630015122C3B600BC0E01240AD122B71D0E057
:10407300F0122B6B1240B91208F8EE240D122C3BF0
:10408300FC7D00850B0A8E828F83A3E0F8E5082868
:10409300F8E5093400F9E8250AFAE912501E120975
:1040A30044AA08AB097F0A020641850A0CE50825E4
:1040B3000CF582E50922E0F50CA3E0F50D750E0081
:1040C300780C221239C31240EAA3A3A322F0050AF3
:1040D3008E828F83A3A3A3A3A3A3A3A322A3A31229
:1040E3005311A31240EA221245E4A3A32274F61249
:1040F30004288A828B83E0FC900353124197740255
:104103007808120ABFEC4508FCAD09EA24121241F3
:104113009174067808120ABFEC4508FCED4509FDC9
:10412300EA2415F582EB122C3E60047801800278B4
:1041330000E4C8F9ED49FDEA2411F582EB122C3EA7
:10414300F508880974097808120ABFED4509FDEAE4
:104153002416124191740B7808120ABFED4509FD2C
:10416300EA2417124191740C7808120ABFED45092D
:10417300FD8A828B83A3A3A3A3A3A3124197740AEB
:104183007808120ABFECFAED4509FB024800F582F4
:10419300EB1239C6E0F50875090022E0850882852F
:1041A300098322A3E0F98508828509832274EE122C
:1041B30004288A0A8B0BECFEEDFF750F01E9C3940B
:1041C30008500579000243A38E828F83E9F01246DB
:1041D30009E96003750F001245ED8E828F83124645
:1041E30037EE124F75EF12462CC0E0EE2411122B5E
:1041F3006ED0E0124624C0E0EE2412122B6ED0E003
:10420300123C8D740812502FA3A3A3E0601512452E
:10421300D5EE2413F582EF12483F8E828F83A3E0FD
:104223002408F08E828F83A3A3A3A3A3A3A3A3E055
:1042330060218E828F83A3858208858309124618A5
:10424300EE2415F582EF12483F850882850983E045
:104253002408F08E828F83A3A3A3A3A3E0601A8E06
:10426300828F83A38582088583091245FC8E828F02
:1042730083A3A3A3A3A31243C8EE2419123C7AEE8B
:10428300241B123C7AA3124883E07003024337EEE7
:104293002419F8EF3400F98E828F83A38582088571
:1042A3008309E0FAE50A2AF582E50B122C3E88829F
:1042B30089831243C8FAE50A2AF582E50B122C3EDC
:1042C300C0E0EE241A122B6ED0E01243C888828914
:1042D30083E06059F8902149E493C3985005751120
:1042E3000C8008EE2419122C3BF5118E828F83A3C8
:1042F300E0F8E50A28F50CE50B1243AC1208F8E5E3
:1043030011C333FCE433FD7AB27B0B1243A61209CB
:1043130044EE241B122B6E74B2F0A3740BF0E51160
:10432300C333F8850882850983E0288006EE2418C4
:104333001254E0F08E828F83A3E0F88E828F83E0A5
:10434300C39850030241C6A3E0FA8A08E50A250888
:10435300F8E50B3400F9EE241DF582EF12494B12F8
:1043630043D8C39AC0E0EE2417122B6ED0E0124854
:1043730048602BEE2417F8EF3400F9880889098880
:1043830082F583E024F212492C240EFAA3E03400D0
:10439300FB888289831247CF1243B6C398F0A90FD3
:1043A3000240A812140E7403223400F50D750E009A
:1043B300780C2290034EE0F9120BC2E9F8850882CB
:1043C300850983E022F0850882850983E004F022D1
:1043D300A3A3A3A3A3F08E828F83E02274F4120419
:1043E300288A088B09EA12446DF0EA1313543F122A
:1043F3004466A3A3A3F0EAC4131312446DA3A3F06A
:10440300EB12445F1244777409780A120B33124497
:104413005D124476740A780A120B33E50A5401C01C
:10442300E0EC2418F582ED122B71D0E012447C7479
:104433000B780A120B3312445DA3124476740C7882
:104443000A120B3312445DA3A3A3A3A3A3A3A3F054
:10445300740D7808120B3302279DE50A54018C82F0
:104463008D8322540F8C828D832254038C828D83FF
:10447300A3A322A3A3A3A3A3A3F08A0A8B0B22C003
:1044830082C08379008A828B83A3A3A3A3A3A3E01F
:1044930090034D600FE070228A828B83A3A3E070A8
:1044A30019098016E060138A828B83124B9D900357
:1044B30056E06A7003A3E06B70E7023D7974F01273
:1044C30004288A0A8B0B890C8C088D091246091261
:1044D30045ED850882850983124637E508124F7535
:1044E300E50912462CC0E0E5082411F582E509121E
:1044F3002B71D0E0124624C0E012326F122B71D020
:10450300E0124953740812496C60111245D5E5084D
:104513002413124947124953E02408F08508828581
:104523000983A3A3A3A3A3A3A3A3E060178508827E
:10453300850983A3124614E508241512494712433B
:10454300D82408F0850882850983A3A3A3A3A3E045
:104553006019850882850983A3AE82AF831245FC67
:104563008508828509831243D304F0AA08AB091294
:104573000E50E9F50D7056850882850983A3A3A320
:10458300A3A3A31245E07014E0FA8A0EE50A250EF0
:10459300F8E50B124834E50CC39A8021124614E85F
:1045A300240EF8E912483490034EE0F9120BC28E40
:1045B300828F83E0F8E50CC39824F2C399C0E0E549
:1045C300082417F582E509122B71D0E0F0A90D023A
:1045D3004F64E50A2408F8E50B3400F9221245E498
:1045E30022E0850882850983A322850A82850B83BD
:1045F300A3A312464DE0F9EA22E0F8E50A28F58282
:10460300E50B12485B228A828B83124F69120E4A92
:1046130022AE82AF83E0F8E50A28F8E50B3400F90F
:1046230022124660A3A3A3E0221239C6E812465918
:10463300A3A3E022A3A3A3A3A3A3A3A3A3124659C3
:1046430012464DA3A3E0F9EAF822E0FA850A82852F
:104653000B83A3A3A322F0A3E912466022F0850AE9
:1046630082850B83A3A3A3A322C082C0837AC57BC5
:104673000379E2121C127AC57B03023D79C082C022
:1046830083900356023D76C082C08374FE1209BE36
:10469300851882851983AA82AB83794B1246AA12A5
:1046A3004BA67402023D4F121C1285188285198392
:1046B30022C082C083794A121C12023D7974F61219
:1046C30004289003CDE0FE04F0EEF9120E028B09EC
:1046D300EA450970EDEE60EAF902480074F012044D
:1046E30028EAFEEBFF8C088D09890A7410120B9DD2
:1046F300E0F50B7411120B9DE0F50C120F22EA4B3F
:104703007013E50C7042A90AAC08AD09EEFAEFFB91
:10471300120F3A806EE50A6021EA2402F582EB1259
:104723002C3E850A082508F8E4340013E813F070DA
:10473300098A828B83A3A37401F0E50C6045E50B22
:1047430070068A828B83E4F07401650C7035E50B87
:104753009003D47004E4F0802AE004F0900D05E0A7
:10476300F89003D4E0C398401AE4F0900359E06E44
:104773007003A3E06F700CEEFAEFFB7901120CA645
:10478300124789024F647A017B009003B0E0F9126B
:10479300159422C082C08374016A7001EB70077A9A
:1047A300011247C08012900CFC1247CFEA4B600500
:1047B3001225198003124789023D797A207B0090E4
:1047C30003B0E0F9121D5C223400F583EAF0A3EB99
:1047D300F022C082C083900CFE023379C082C08372
:1047E300900D0002337912527722EE240CF582EFFA
:1047F3003400F583123D70E849221209447F020216
:104803000641A2F0E4338518828519831248217981
:1048130052121C18221248217942121C1822F0AAA3
:1048230082AB8322AA08AB099003B0E0F912143ECD
:10483300223400F9E508241DF582E5091239C6E89A
:10484300F0A3E9F022125033A3A3E022A3F0EE2455
:104853001512485822F582EF3400F583E0221248FE
:1048630065223400F583E0F8A3E0F9888289832286
:10487300E0F812487922A3E0F98E828F83A3A32262
:10488300F0EE24181239C322F0EE24161239C32293
:1048930074F4120428EAFEEBFF7A007B0412478DBE
:1048A3001249221248429003657409F0120E5C8A81
:1048B300088B09AC08AD09EE2413122B6E124BA61C
:1048C300124A76640170487A0F12491560418A8250
:1048D3008B83740212492CFAA3E0FB8A828B83A395
:1048E300E0FC8A828B83A3A3E0FBEC850882850925
:1048F30083A3A31247D088828983124BAA12419EB5
:1049030012484FFAA3E0FB794A121C1812482702F7
:104913002C337B001214328A088B09EA4509229052
:104923000336123D70900D0022F0EE241DF8EF12B5
:10493300493622123EB1E02212493F223400F58368
:104943007401F022F582E5091239C6E8F0A3E922E1
:104953001249572212495B22F0850882850983A3F5
:104963002212495BA3A3A3A322124964A3A3E022B7
:10497300124D7D120EB022EE2417F582EF12493F3D
:10498300120E5CEE241A1239C3EAF0A3EBF0227480
:10499300F412042874F31209BE8908EAFEEBFF7CC3
:1049A3000D7D007900851882851983AA82AB831255
:1049B300141AEE241D122B6E125268A3E0F8741F12
:1049C30058600A7901121BE87900024A6DE8A2E5F2
:1049D3005008740C120B9D7401F0E8A2E7500874A0
:1049E3000B120B9D7401F0E8A2E6740A5008120B37
:1049F3009D7401F08008120B9DE064017005EE24A4
:104A0300138003EE24151250A57402120B9DAA8283
:104A1300AB83121C00122B6B124A7B124842740A9E
:104A2300120B9DE06401703312254C703B120E682B
:104A33008A0A8B0BA80AA90BEE240B122C3B687075
:104A430003A3E0697022120E5CEAFCEBFD74021210
:104A53000B9DAA82AB83124A76600D851882851955
:104A630083AA82AB83120CA0A908740D022C30EE2A
:104A7300FAEFFB121BFAE922E0124A8022F8A3E0C4
:104A8300F98518828519832274F612042874F312A7
:104A930009BE8A088B09ECFEEDFF7C0D7D007900D1
:104AA300851882851983AA82AB8312540DA3A3A30D
:104AB300A3A3A3A3A3A3124B15124B1EF8A2E55065
:104AC30008740B120B9D7401F0E8A2E75008740AF6
:104AD300120B9D7401F0E8A2E6EE50042413800249
:104AE30024151250A57402120B9D124B07A3A3E0C9
:104AF300C0E0740C120B9DD0E0124D75120C9A7429
:104B03000D0247FDAA82AB83121C0085088285092A
:104B13008322E0124A80E8F0A3E922F01239C0129E
:104B2300526CA3E02274F712042874E11209BEEA5E
:104B3300FEEBFF8E828F83124BAAA3A3A3E0A2E016
:104B430050518E828F831226AC8A828B83A3A3A3B8
:104B5300A3A3A3E054FE124BC28A828B83124BBBE6
:104B6300E0F98A828B83E0241CFAA3E01235DC127D
:104B73004BA6120E56E9701B741D120B9D124BB5FA
:104B83007011851882851983AC82AD83EEFAEFFB31
:104B9300120E9E024DE78E828F83A3A3A3A3A3A32A
:104BA300A3A3A3122C2922124BAE22125270A3A349
:104BB300A3221239F8640422E0241B123EAA221213
:104BC3003D58AC82AD8322E9F87900740468600A29
:104BD300740A6860057403687001090208BE74F6FC
:104BE3001204288A828B837420F0A3A37401F01229
:104BF3000C4C8A088B09AE08AF09EE4F60108E8209
:104C03008F837401F09003A3E0700312497AEEFAE4
:104C1300EFFB024800C082C0839003B97401F0E93E
:104C2300A2E350037403F0E9A2E15004E0D2E2F0FE
:104C3300023D7974F612042879007C008A088B09F6
:104C43007808120687F8FF07694C674C674C674C76
:104C5300674C604C644C694C5D4C0C80097C04804F
:104C6300050C80F67C089003B9E05C6003098003BF
:104C7300EC60010902480074F61204288A828B83CF
:104C8300E07012A31247F7600C8A828B83124BA544
:104C9300121D3880047A007B0002480074F5120468
:104CA3002874F31209BE8A088B09ECFEEDFF750A1E
:104CB30012EA450970057900024D6E900356E065CE
:104CC300087004A3E065097014120E5CEAFCEBFDA6
:104CD300124A727005750A018003750A00851882ED
:104CE300851983E4F004120B9DE508F0A3E509128E
:104CF3004D75120C10E960277403120B9DAA82AB49
:104D030083120BF2E964017016750A017403120B26
:104D13009DAC82AD83124A726021750A00801C74B7
:104D230012650A70169003A2E06402700EEEFCEFA7
:104D3300FDAA08AB09120C28E970DFEEFCEFFDAA0F
:104D430008AB09120F28E9F8740A687005750A019F
:104D5300801774A0687012EEFCEFFDAA08AB09126D
:104D63000F34AA08AB09120F46A90A740D0257752E
:104D73007402124D7922124D7D22123D58AA82AB44
:104D8300832274F7120428EAFEEBFF8E828F83A33B
:104D9300A3A3A3A3A3A3A3E06015EE2415122B6E74
:104DA300122C19120EC8E964017004790180258E52
:104DB300828F83A3A3A3A3A3A3A3E06015EE24136D
:104DC300122B6E124DD9FAA3E0FB120EC8E964014F
:104DD30060D9790080131236C8A3A3A3A3A3A3A306
:104DE300A3A3E022741F1209447F0102064174F059
:104DF30012042874FD1209BE8A088B09ECFEEDFF2C
:104E0300890B7413120B9DE0F50C750A01740112E2
:104E13000B9D74041252A06048E50C601DEA241730
:104E2300F582EB1254E312528E8A828B83E0D2E72F
:104E3300F0EA2414F582EB123C7D124F74EB124816
:104E4300617403125806EE88828983A3A3F0EF8866
:104E5300828983A3A3123772123779120C46E9F5BC
:104E63000AA90A7403024F6174EC12042874F51240
:104E730009BE8A0A8B0B890C8C0E8D0F741F120BC3
:104E83009DE0F50D7420120B9DE0F510A3E0F511E4
:104E93007E01EE120B9D740AF0E97007E50DC33332
:104EA300240AF01250467003024F4812505B7409F3
:104EB300F0A3E50CC43354E0450D12506DE50C70BE
:104EC3002D7C008023ECC333F8E433F9E51028F894
:104ED300E51139F988828983124F558882898312B3
:104EE3002E8BF0A30EAF830CECC3950D40D7E508D2
:104EF3002417F582E50912493B120E5CE508241AD2
:104F0300F582E5091247CB7403120B9DAC82AD8386
:104F1300AA0AAB0B120BF8E96019E5082416F5820F
:104F2300E509124F4F120B9DA882A983E5082418A7
:104F330012483B850882850983125802AA08AB09E7
:104F4300120C46E9FEEEF9740B02503E12493F740F
:104F53000322E08E828F83F0A3AE82AF83221209F5
:104F6300447F08020641123A20F9EA2400E439FB9F
:104F730022EA240BF5822274EE1204288A0C8B0D8C
:104F8300890E8C088D097412120B9DE0F50F7413B2
:104F9300120B9D1250279005461247F76077E50FD5
:104FA300C333F8E433F9E8240EFAE93400FB1214AE
:104FB300328A108B11AE10AF11EE4F60588E828F74
:104FC3008374D4F0A3A3E50CF0A3E50D12502FE5F1
:104FD3000EF0AC08AD09EE2405FAEF1252A9EE2447
:104FE3000D122B6EE50FF0850A08850B09750A0073
:104FF30078081208F8E50FC333FCE433FDEE240E02
:10500300FAEF12501E120944EEFAEFFB9005461216
:105013005268121DDF0240A8FAE5093400FB12149E
:105023000E740322E0F50AA3E0F50B22125033229B
:1050330012503722123C91A3A3A3221209447F0CDE
:10504300020641851882851983AA82AB83120EB0AA
:105053008A088B09EA450922EA240BF582EB1248F8
:105063005BFEA3E0FF8E828F8322F0A3AE82AF8329
:10507300AC0EAD0FEEFAEFFB12507F22121C0012A2
:10508300508622EE2408FEEF3400FF22E0FA8E82DF
:105093008F83A3A3E022FEA3E03400FF8E828F83DD
:1050A300E0221239C31250AC22E0FCA3E0FD22122D
:1050B3002C29120E442274F6120428EAFEEBFF9008
:1050C30003BA801388828983E06E7003A3E06F6064
:1050D3003A88828983A3A31247F770E87A047B0096
:1050E3001214CE8A088B09A808A909E849601C880C
:1050F3008289831251159003BA124BA68882898341
:10510300A3A31247CF9003BA1248420248008A82EF
:105113008B83EEF0A3EFF02274F41204287E009048
:1051230003BA80070E88828983A3A31247F770F41A
:10513300EEC333FAE433FB1251C3607E7F00900366
:10514300BA8024888289831250A8EFC333FAE433E8
:10515300FBE5082AF582E5093BF583ECF0A3EDF0C6
:105163000F88828983A3A31247F770D79003AB12EA
:1051730025867003A3E069780870191208FCEEF520
:105183000A780A1209007C777D0379009003AB1239
:1051930051CE801A1208FCEEF50A780A1209007C37
:1051A300777D0379009003AB124BA6120EDA7403DA
:1051B300120944AA08AB091214D4120C5E022C3350
:1051C3001214CE8A088B09EA450922122C29120EE1
:1051D300E022C082C08380128A828B83A3A3123908
:1051E300D19003BA1248421214D49003BA1238E190
:1051F30070E6023D7974F61204289003631239FDB8
:105203009003CE1252571248427ACE7B0379501242
:105213001C189003CE1227A5FAEFFB120F40900340
:10522300CE1239FD9005481247F760257A067B00B8
:10523300121432EA4B601A8A828B8374D5F0A3A3CB
:10524300E412527D0412528E900548125268121DC8
:10525300DF02480012525B22E0F8A3E0F9900363F7
:10526300228E828F8312526C2212527022E0F81225
:10527300527622A3E0F583888222125281221252AF
:105283008522F08A828B83A3A3A322125281A3EEE9
:10529300F0A3EFF022F582EF12485BF92212497373
:1052A300EA4B22FAE5093400FB121C002212487A69
:1052B300A3A3A3A3A3A3A32290214BE4932401F8C4
:1052C300E43400F97A027B002274F71204287E008A
:1052D30080041258B90E1253DD40F77E00EE1252CD
:1052E300F874FEF0A30412530DE4F00EEEC394031E
:1052F30040EB024DEC75F003A4F8A9F074BC28F858
:10530300740339F988828983A32212531122F08806
:105313008289832274F71204287F0080010F902171
:1053230048E493F8EFC3985026EF1254C96A700308
:10533300A3E06B70E81258666C7003A3E06D600A1B
:1053430074FF6C700374FF6D70D31253D480047AAE
:10535300007B00024DEC74F61204287CFF7DFF7A7B
:10536300FE7BFF120F04EA4B70407508008036E5A0
:105373000875F017A4F8A9F0744D28F582740A1281
:1053830054DB600C744C28F582740A1254DB7013DE
:10539300743E28FE740A39FF8E828F831254E8EE1E
:1053A300FAEFFB050812544340C502480074F41297
:1053B30004288A088B09ECFEEDFF800B120F16EE12
:1053C300FCEFFDAA08AB09120F04EA4B70EE022CA6
:1053D30033743E28FA740A39FB22902148E493F887
:1053E300EEC3982274F7120428EAFEEBFFEE4F6037
:1053F3001012540774FEF0A30412580C14F0A30403
:10540300F0024DEC7C177D00790012141A8E828F06
:10541300832274F7120428EAFEEBFF750800801854
:10542300E50875F017A4F8A9F01258717003A3E00A
:105433006F60031258C1050812544340E3024DEC58
:10544300902148E493F8E508C3982274F6120428DF
:10545300120F048A088B09A808A909E849600AE819
:10546300240DFAE93400FB80047A007B0002480033
:1054730074F41204288A0A8B0BECFEEDFF75080006
:10548300750900802EE50975F017A4F8A9F01258E4
:10549300AC601EE5091254C9650A7004A3E0650BEC
:1054A300700375080AEEFCEFFD12576860034308AA
:1054B300A00509902148E493F8E509C3985004E551
:1054C3000860C202279D75F017A4F8A9F01254D4FE
:1054D30022743E28F582740A39F583E022F582EFBF
:1054E3001239C6E422122C29120D3C22125311A3A5
:1054F300A3A3A3A3A3A3A32274F21204288A088B51
:1055030009ECFEEDFF740E120B9D125027750C0073
:105513007C007D01801012142CE50CF5F0EA84ACBC
:10552300F0750C007D007800790080031256A512F7
:10553300570140030255C7E8FAE9FBEA75F017A4DF
:10554300FA85F00D75F017EBA4250D1256DD7003E7
:10555300A3E0F460D71256BB65087004A3E06509A5
:1055630060CA1256BB6E7003A3E06F60BF1256BBD6
:10557300650A7004A3E0650B60B2E8FAE9FBEA751B
:10558300F017A4FA75F017EBA4250DFB744C2AF55C
:1055930082740A12569C509474016D050C608DE55B
:1055A3000CC39C4087E875F017A4F8AAF075F017B0
:1055B300E9A42AF9743E28F582740A39F583124B5B
:1055C300A60256997800790080031256A512570E49
:1055D3004003025680E8FAE9FBEA75F012A4FA8563
:1055E300F00D1256ED64FE7003A3E0F460DC125676
:1055F300E365087004A3E0650960CF1256E36E709B
:1056030003A3E06F60C41256E3650A7004A3E06568
:105613000B60B7E8FAE9FBEA75F012A4FA75F01229
:10562300EBA4250DFB74CD2AF582740812569C5009
:1056330099E8FAE9FBEA75F012A4FA75F012EBA403
:10564300250D1256AE64016081E0640270030255B9
:10565300CD74016D050C70030255CDE50CC39C5050
:10566300030255CDE875F012A4F8AAF075F012E91B
:10567300A42AF974C428F58274080255BEE50C60A7
:1056830011EC700E7401650C60030255197C010264
:1056930055247AFE7BFF0225923BF583E014C394E5
:1056A3000622E8240108E93400F922FB74C82AF52C
:1056B3008274083BF583E022E8FAE9FBEA75F01708
:1056C300A4FA75F017EBA4250D1256D022FB743EF5
:1056D3002AF582740A3BF583E0221256D064FE2237
:1056E300E8FAE9FBEA75F012A4FA75F012EBA425C7
:1056F3000DFB74C42AF58274083BF583E0229021E4
:1057030048E493FAC3E89AE9940022902144E4938D
:10571300FA740193FBC3E89AE99B2274F5120428F7
:105723008A088B09ECFEEDFF750A008002050A90DA
:105733002148E493F8E50AC3985028EEFCEFFDE511
:105743000A75F017A4F8A9F012576860E0E50A7526
:10575300F017A4F8A9F0743E28F582740A39F5838A
:1057630012377B8010744028FA740A39FB121BFA33
:10577300E9221209447F0302064174F01204288AC5
:10578300088B098C0A8D0B890C120F0A8A0E8B0F5A
:10579300AE0EAF0FEE4F6055125407E508F0A3E5C8
:1057A3000912580C125804E50C600AEE240F122B50
:1057B3006EE50C8006EE240F1257FCF09003D01216
:1057C30047F7601A9003AAE064017008EE240E12F2
:1057D30054E08010EE240E122B6E74078006EE2424
:1057E3000E1257FC1230C11202D71257F3024F6444
:1057F300EE240D1239C3E8F0221239C3740122A337
:10580300A3E50AF0A3E50BF0221235F2A32274F507
:105813001204288A088B09ECFEEDFF750A00800F3D
:105823001258717003A3E06F60031258C1050A9008
:105833002148E493F8E50AC3985025E50A75F01763
:10584300A4F8A9F012586665087004A3E06509700E
:10585300CF744828F582740A39F58312511580CD27
:10586300025778744828F582740A1254DB2274486C
:1058730028F582740A1254DB6E2274F7120428EAA4
:10588300FEEBFF7508008019E5081254C96E70031A
:10589300A3E06F700A1258AC7005E5081258BA05F8
:1058A3000812544340E2024DEC744028FA740A395A
:1058B300FB120BF2E922EE75F017A4F8A9F01253CC
:1058C300D4120F1622125311123D70E84922C082DE
:1058D300C08374F81209BE851882851983AC82AD22
:1058E300837583817582BA740812083A8518828594
:1058F3001983AC82AD83124A766401700479008007
:105903000279017408023D4FC082C0838A828B836F
:10591300E0D2E7F012169002639FC082C083790041
:10592300125DD7127378C082C083900330126F9ACE
:10593300D083D082C3E09CA3E09D500C127547FA3C
:10594300A3E012594E60010902639FFBEA75F00B55
:10595300A4FAA8F075F00BEBA428FB900332E02A1D
:10596300F8A3E03B8882F583E0540F2274F7120416
:10597300288908125DD7125E7DACF075F00BE9A49F
:105983002CF9900332E028FEA3E039FF7401650887
:1059930060067402650870208A828B83125E691226
:1059A3006A4D74026508701B125D28125EB0701395
:1059B3008E828F83E4F0800BEA2403FCEB125E4BB0
:1059C300125E57EEFAEFFB120BC80266D274F412A2
:1059D300042812793B79008E828F83E06076890AEE
:1059E300890B8065E50A75F00BA4FAA8F075F00B36
:1059F300E50B12595B7046E50A75F00BA4F8AAF0A3
:105A030075F00BE50B125E8F8E828F83E085088223
:105A1300850983125F71850882850983A3126A4D04
:105A2300EE2403FCEF125E541265761272F2AA089A
:105A3300AB09120BC87901900330126FB5E50A2444
:105A430001F50AE50B3400F50B125D30E50A9AE522
:105A53000B9B409002680674F5120428EAFEEBFFE4
:105A6300740B120B9D12657B750A01EC4D602BECD8
:105A7300127957ED127378126A457901120BD4E546
:105A8300084509606F850882850983A312794579E2
:105A930002AA08AB09120BD4805AE5084509602B0A
:105AA30012737C126C6F126577125E9A700CEEFAA9
:105AB300EFFB120BDAE9F50A80CBEE2403FA125D51
:105AC300D270317903EEFAEFFB80CA8E828F83A303
:105AD300E064FE7003A3E0F4700BEE24030A0A0AE9
:105AE300125DD2700CEEFAEFFB120BDAE9F50A80C5
:105AF30003750A00A90A7F0302064174F7120428FA
:105B03009003301266D7EA4B602FEA75F00BA4FAC4
:105B1300A8F075F00BEBA428FBEAFEEBFF1214CE02
:105B23009003321266D7900332126FA16012EEFC1B
:105B3300EFFD790012141A8007900332E4F0A3F00A
