:020000040000FA
:06000000020AB40201D95E
:03002B00020908BF
:030033000206EDD5
:030043000207862B
:0300530002010A9D
:03006B000206D3B7
:1000830002016E0101FF05030175107510751075EE
:1000930010310F2B0F7510E42300000000822300A2
:1000A3000000000C0000000C0001000043120000DF
:1000B3000000000009130000000000000000000021
:1000C300FFFF414C442072656C6179264C45440026
:1000D3000101010029050000007A05E803640064BA
:1000E30000B801020200080000050207051E020510
:1000F3001E0A03B80B020102F1FF021F00E007967C
:1001030051180002020612C0E074F21203F2A2AF09
:10011300E433FED2AFE5A7FFE5A1F5085F54106015
:100123000612198D75A1EFE5085F540860081219CE
:100133009375A1F7802BEFA2E0C0D0E508A2E0926F
:10014300F01209F1158182F05017906198E0F89050
:100153000854E0C398A2D265D0335002E8F075A1E9
:10016300FEEEA2E092AF7F01020451C0E074F212EE
:1001730003F2A2AFE433FED2AF9061A4E0F8759B23
:1001830000E59158540860087591F71219DB802A2D
:10019300E59158541060087591EF1219E1801BE83E
:1001A300A2E0C0D0E591A2E092F01209F11581829C
:1001B300F05007E0C2E0F0121B259061A3E0F8E5E0
:1001C300E9585404600E121AFB75E9FB906193E041
:1001D300A2E640F2808BC0E074F21203F2A2AFE415
:1001E30033FED2AF9061A5E0F8E5BF585404600632
:1001F30075BFFB121B3D020164C3E498F8E499F94F
:1002030012023D8026C3E49AFAE49BFBE920E7E966
:1002130012023DE498F8E499F922C3E498F8E499CA
:10022300F912023DE498F8E499F9C3E49AFAE49BDD
:10023300FB22EB20E7CFE920E7E0B90010BB000881
:10024300E88AF084F8AAF022E4FBC8FA22EB7022D1
:100253007B10C833C8C933C9335007C39AC3DBF211
:1002630080069A50012ADBEAC833F4C8C933F4C9BB
:10027300FA2275F008E4C833C8C933C933C99AC927
:100283009B5004C92AC93BD5F0ECFBC833F4C8E43E
:10029300C9FA22080808EAC0E0EBC0E086F0E7A448
:1002A300FA180986F0E7A42AFA180986F0E7A42ABF
:1002B300FA180986F0E7A42AFA1986F0E7A4FBE501
:1002C300F02AFA190886F0E7A42BFBE5F03AFA19AD
:1002D3000886F0E7A42BFBE5F03AFA18180986F034
:1002E300E7A4C5F02BFBE43AFA1908E7C5F0C6A466
:1002F30026F6E5F03BFBE43AFA1886F0E7A4F6E5C8
:10030300F00826F6E43B08F6E43A08F6D0E0FBD022
:10031300E0FA22E4CFC0E0E4CEC0E0E4CDC0E0E404
:10032300CCC0E075F020C3E633F608E633F608E602
:1003330033F608E633F6181818EC33FCED33FDEE0C
:1003430033FEEF33FFC3EC9709ED9709EE9709EFFF
:1003530097191919400FFFEC97FC09ED97FD09EE6A
:1003630097FE191906D5F0BEECF709EDF709EEF77C
:1003730009EFF7191919D0E0FCD0E0FDD0E0FED069
:10038300E0FF222518C582C0E0E51934FFC583C00C
:10039300E0E518C3958224F810AF08858319858298
:1003A300188008858319858218D2AFCEF0A3E52083
:1003B300F0A37808E608F0A3DEFAEFF0A3E58124C2
:1003C300FAF8E608F0A3E608F0A3E608F0A30808A5
:1003D300E608F0A3E608F0A315811581D0E0FED06E
:1003E300E0F8158115811581E8C0E0EEC0E022C078
:1003F300D02518C582C0E0E51934FFC583C0E0E508
:1004030018C3958224F310AF088583198582188059
:1004130008858319858218D2AFC8F0A3E9F0A3EA4F
:10042300F0A3EBF0A37908E709F0A3D8FAECF0A363
:10043300EDF0A3EEF0A3EFF0A3D0E0F0A3D0E0F053
:10044300A3D0E0F0A3E520F0A3E5F0F0A322851903
:1004530083851882E0C0E0A3E0F9A3E0FAA3E0FB00
:10046300A37808E0F608A3DFFAE0FCA3E0FDA3E02D
:10047300FEA3E0FFA3E0C0E0A3E0C0E0A3E0F5D06B
:10048300A3E0F520A3E0A3F5F010AF088583198559
:1004930082188008858319858218D2AFD082D083D1
:1004A300D0E0F8D0E032120B23B900030204EBE4EE
:1004B30090030178AB790A8002F0A3D8FCD9FA90B3
:1004C3000CABAA82AB83900086788579018015E412
:1004D30093A3AC82AD838A828B83F0A3AA82AB837E
:1004E3008C828D83D8E9D9E77582937583917403E0
:1004F3001208677582E375831D7400120867E803A9
:100503000875F0108E1A8F1B85821F85831E851830
:1005130082851983E0CEA3E0CF851F82851E83EBFE
:10052300C9EAC8EDCBECCAC3E833C8E933C9EA3337
:10053300CAEB33CBC3EA9EF51DEB9FF51CB3500406
:10054300AB1CAA1DEC33CCED33CDD5F0DAAE1AAF2C
:100553001B22D083D082ECC0E0EDC0E0E493A3FC87
:10056300E493A3FDED4C600D12062DEC24FFFCED8E
:1005730034FFFD80EFE493A3FCE493A3FDED4C6013
:100583000D120731EC24FFFCED34FFFD80EFD0E0CA
:10059300FDD0E0FCE493A3C0E0E493C0E02285191E
:1005A30083851882E0A3FEE0A3F5207808E0A3F694
:1005B30008DFFAE0A3FFE0A3C0E0E0A3C0E0E0A30C
:1005C300C0E0E0A3C0E0E0A3C0E010AF088582185C
:1005D3008583198008858218858319D2AFD083D08B
:1005E3008202086DD083D082E9C0E0E493A3C3867E
:1005F300F0C5F095F0F908E493A386F0C5F095F003
:10060300700BE493A3C3994005E9048002A3E47546
:10061300F002A42582F582E5F03583F583D0E0F975
:10062300E493A3C0E0E493C0E022C0E0C3E4939664
:10063300087401939618400FE493667008087401D8
:1006430093661870007019A3A3C3E493960874010A
:10065300939618A3A3400DD0E0D0E0D0E00205911B
:10066300A3A3A3A3A3A3D0E022D083D082C5F0E4A5
:1006730093A3C5F0C395F0F5F0E493A3C395F040BD
:1006830005E5F0048001E475F002A42582F582E516
:10069300F03583F583E493A3C0E0E493C0E02274D0
:1006A30004800474028000CCC0E0EDC0E0E518C310
:1006B3009CCCAD1950011D10AF068C188D19800606
:1006C3008C188D19D2AF1207CBD0E0FDD0E0FC22FD
:1006D300C0E074F21203F2E589A2E1500312183D5F
:1006E300758900C2C57F01020451C0E074F2120390
:1006F300F2E58BA2E0500312183D758B00C2E8802F
:10070300E474028000CCC0E0EDC0E0E518C39CCCEB
:10071300AD1950011D10AF068C188D1980068C1869
:100723008D19D2AF1207A9D0E0FDD0E0FC22C0E0C2
:10073300C0F088F0E493667008087401936618703B
:1007430000A8F0A3A3700BD0F0D0E0D0E0D0E0027B
:100753000591A3A3D0F0D0E022D083D082CCC0E017
:10076300E493A3600612082A1470FAE493A36006C4
:100773001209391470FAD0E0FCE493A3C0E0E493C7
:10078300C0E022C0E074F21203F2A2AFE433FED25F
:10079300AFC2C0E5D1A2E45003121903EEA2E09266
:1007A300AF7F01020451CAC0E0E493A3C582CCC564
:1007B30082C583CDC583F0A3C582CCC582C583CD55
:1007C300C583DAE5D0E0CA22CAC0E0E0A3C582CC83
:1007D300C582C583CDC583F0A3C582CCC582C5833D
:1007E300CDC583DAE6D0E0CA227009080808226082
:1007F30016181818C6C333C608C633C608C633C688
:1008030008C633C6D5E0EA22C008C3E096F5080857
:10081300A3E096420808A3E096420808A3E09645A1
:10082300087001D3D00822C0E0E493A3D39C5010F6
:10083300E493A3C39C400AD0E0D0E0D0E002077960
:10084300A3A3A3D0E022C5822518C582C583351989
:1008530010AF07F5198582188007F519858218D21C
:10086300AFC58322C09FF59FE473D09F22D083D06E
:1008730082C09FE493C0E0740193C0E0740293F5D7
:100883009F222518F58210AF08F51840021519802C
:1008930008F51840021519D2AF8519832274048014
:1008A3000A74038006740280027401C0E0F4041227
:1008B3000885D0E0120AFE22C0D0251810AF08F533
:1008C30018500205198008F51850020519D2AFD047
:1008D300D022BB0102E722C082C08389828A83BB04
:1008E3000003E08002E493D083D0822260160808DC
:1008F30008C6C313C618C613C618C613C618C6132C
:10090300C6D5E0EA22C0E0C0D0E8C0E0E5A8D2AF97
:10091300C2C7A2E792AFD0E0F8D0D0D0E032C3E0B4
:10092300C696F608A3E0C696F608A3E0C696F608B0
:10093300A3E0C696F622C0E0E493A36C7009D0E06E
:10094300D0E0D0E0020779A3A3D0E022251810AFAE
:1009530008F518400215198008F51840021519D238
:10096300AF22E76670100809E766700A0809E766B0
:1009730070040809E76622E066701008A3E0667059
:100983000A08A3E066700408A3E06622C3E09608A1
:10099300A3E09608A3E09608A3E096A2D265D0331D
:1009A30022C3E096F008A3E096F008A3E096F008CF
:1009B300A3E096F022E026F008A3E036F008A3E0D7
:1009C30036F008A3E036F022E627F60809E637F604
:1009D3000809E637F60809E637F622E026F608A303
:1009E300E036F608A3E036F608A3E036F622C0E0C8
:1009F300E8C0E0E58124FCF8E6A2E7D0E0F8D0E027
:100A030022E647F60809E647F60809E647F6080925
:100A1300E647F622E657F60809E657F60809E657C9
:100A2300F60809E657F622E056F608A3E056F6085C
:100A3300A3E056F608A3E056F622E056F008A3E03A
:100A430056F008A3E056F008A3E056F02270042203
:100A5300600D18C6C333C608C633C6D5E0F41822E2
:100A6300E4C396F608E496F608E496F608E496F6E8
:100A730022600D08C6A2E713C618C613C6D5E0F355
:100A830022C6F4C608C6F4C608C6F4C608C6F4C629
:100A930022C3E7960809E7960809E7960809E79647
:100AA30022C3E09608A3E09608A3E09608A3E09685
:100AB3002275D00075814075180175190300020471
:100AC300A9600C08C6C313C618C613C6D5E0F42222
:100AD300E6F008A3E6F008A3E6F008A3E6F022E0B8
:100AE300F608A3E0F608A3E0F608A3E0F622C58221
:100AF3002518C582C5833519C58322CAC0E0E6F02F
:100B0300A308DAFAD0E0FA22E0FAA3E0FBA3E0FCC0
:100B1300A3E0FD22EAF0A3EBF0A3ECF0A3EDF022B7
:100B2300E5C754F84401F5C77901222518F582E495
:100B33003519F58322C2AF75D69F02000022120831
:100B430070DFB60112087082B701120870CDB801C8
:100B5300120870EBB8011208706B5E001208707D0A
:100B63005E00120870CF5E00120870305F0012083A
:100B730070BA5F001208705E6000120870B2600005
:100B8300120870CB6000120870F160001208702C1C
:100B930061001208707061001208709761001208FA
:100BA30070E86100120870986200120870506300C8
:100BB300120870186400120870F564001208707B44
:100BC30065001208708A65001208709565001208A6
:100BD300709E6600120870AF6600120870256700E9
:100BE300120870B767001208700F6800120870D5FA
:100BF30068001208700669001208704B6900120839
:100C030070586900120870EC6A001208704F6C008B
:100C13001208706B6D00120870D56F00120870E037
:100C23006F00120870EA6F00120870F56F00120867
:100C330070FF6F00120870097000120870147000C2
:100C43001208701F70001208705070001208707440
:100C53007000120870987000120870FD700012087E
:100C6300704171001208705D7100120870D4710038
:100C73001208700C7200120870587200120870B5D6
:100C830072001208709774001208701D7500120824
:100C930070EE7500120870FE780012087053790028
:100CA3001208707F7900120870CB7A001208701B4B
:100CB3007B00120870707B00120870717C001208B0
:100CC30070097D001208708B7D001208702B7E0066
:100CD300120870B62600120870EF2600120870C9B9
:100CE30028001208700829001208705229001208FF
:100CF30070F72900120870562A001208708A2A0019
:100D0300120870F72A00120870142C001208701CC5
:100D13002D00120870B22D00120870F9300012086D
:100D230070A231001208707E3200120870DF3200A8
:100D3300120870FC3300120870263600120870DDAA
:100D43003600120870E736001208701A37001208CE
:100D530070E137001208707C3800120870E1380027
:100D63001208700A39001208702C39001208705BDF
:100D73003B00120870323C00120870763C001208E7
:100D830070E33C001208709E3D00120870D03D00D5
:100D9300120870143E00120870473E001208709C3F
:100DA3003E00120870F13E00120870853F001208E1
:100DB30070E73F001208704F4000120870F84100BE
:100DC300120870E0420012087022440012087050AA
:100DD30046001208701047001208703F49001208BD
:100DE30070E24900120870204A00120870CC4B00D0
:100DF300120870E04B00120870EA4B0012087014DE
:100E03004C00120870204C001208703F4C0012086E
:100E130070F64C00120870354D001208703F4D00FB
:100E2300120870F34D00120870F24E00120870EBB6
:100E33004F001208708850001208702A51001208DF
:100E430070415100120870785100120870965100D9
:100E5300120870DA5100120870FF5100120870E591
:100E63005200120870515300120870CB530012083D
:100E730070DA54001208701956001208707B56007D
:100E83001208703557001208705857001208702C5A
:100E93005800120870775800120870B958001208E9
:100EA30070105900120870475900120870755900E4
:100EB300120870AE5900120870D359001208705B03
:100EC3005A001208707E5C00120870DD5C00120884
:100ED30070715D00120870DD5D00120870315E00F4
:100EE300120870B7BF03120870F6BF031208703000
:100EF300BA011208708ABA01120870E6BA01120820
:100F03007032BB011208704DBB011208707EBB0129
:100F13001208709BBB01120870A7BB011208701B5B
:100F2300BD0112087034BD011208709BBD01120887
:100F330070AEBD01120870BCBD0112087070BE0115
:100F430012087054BF011208705AC001120870E0F1
:100F5300C001120870EAC00112087057C1011208DB
:100F6300706EC101120870A0C101120870D9C101CD
:100F730012087003C20112087064C201120870845F
:100F8300C201120870A2C201120870E8C20112085D
:100F9300700EC4011208705BC4011208708AC40188
:100FA30012087000C50112087028C501120870618B
:100FB300C5011208706FC501120870C7C501120878
:100FC3007016C60112087055C60112087085C60155
:100FD300120870B1C601120870BCC601120870DA9B
:100FE300C6011208709CC701120870A6C701120837
:100FF30070E1C701120870F7C70112087000C80139
:1010030012087055C80112087069C8011208707778
:10101300C9011208708AC9011208709FC901120818
:101023007041CA01120870C4CA0112087082CB0150
:101033001208708DCB01120870B3CC01120870CF67
:10104300CC0112087021CD0112087060CD01120885
:101053007075CD01120870B7CD0112087004D0016C
:1010630012087082D001120870F5D00112087017AF
:10107300D3011208702FD30112087032D301120862
:10108300703ED30112087052D3011208705AD30173
:101093001208708DD3011208703DD401120870B389
:1010A300D40112087026D501120870DAD50112088E
:1010B300708FD601120870AED6011208704ED70198
:1010C3001208705AD70112087085D7011208708868
:1010D300D701120870F2D7011208701AD901120849
:1010E30070F2D9011208707DDA0112087096DB01E3
:1010F30012087053DC011208708CDC01120870BDF9
:10110300DC011208705DDD011208708DDD0112082B
:101113007068DE0112087001DF011208708CDF01B4
:101123001208703DE001120870BFE001120870F16F
:10113300E00112087032E101120870B5F5011208DE
:10114300701AF60112087057F601120870A6F6011C
:10115300120870BCF8011208709FFA011208700996
:10116300FE0112087044FE0112087066FE011208A7
:1011730070C9FE01120870FDFE0112087020FF0104
:101183001208704DFF01120870A9FF01120870F9CF
:10119300BC0212087077BD02120870ADBD021208BE
:1011A3007019BE021208708CBF02120870A8BF0229
:1011B300120870EDBF021208707BC002120870D4CF
:1011C300C00212087001C20212087013C30212088F
:1011D3007070C302120870DCC3021208703DC402AF
:1011E3001208707EC4021208702BC5021208703DEB
:1011F300C60212087068C602120870B3C60212084B
:1012030070FAC6021208708CC70212087047C8022F
:1012130012087051B40312087062B403120870B359
:10122300B403120870F8B403120870A2B5031208CD
:1012330070A4BB031208701DB10312087075B203CA
:10124300120870BEC80212087063C90212087083C4
:10125300C902120870A3C902120870B7C9021208A2
:10126300700FCA021208703FCA02120870C0CB0284
:1012730012087066CC0212087048CD0212087099E9
:10128300CD02120870DCCD021208701FCE021208C4
:101293007085CE02120870A6CE0212087032CF02F9
:1012A30012087063CF02120870D7CF02120870853C
:1012B300D1021208705FD202120870A1D202120882
:1012C30070FBD20212087094AD03120870B5AD031F
:1012D300120870EBAE0312087015AF031208703FCB
:1012E3008903120870B28903120870BD89031208BA
:1012F30070DE8903120870C88A03120870C98C0350
:10130300120870BCB002120870BFB00212087079E4
:10131300B102120870A4B102120870EBB1021208F4
:101323007010B20212087031B20212087065B20274
:101333001208709EB202120870C7B302120870FE40
:10134300B3021208701EB402120870B9B402120874
:10135300707EB502120870B5B5021208702AB70282
:10136300120870CDB702120870C6B802120870EFE7
:10137300B80212087043B90212087009BA021208BF
:101383007037BA02120870CCBB021208704DBC024F
:1013930012087080BC021208700FD3021208701971
:1013A300D30212087065D302120870D3D302120855
:1013B30070F4D3021208700BD402120870BBD4026B
:1013C3001208704FD70212087058D702120870AB78
:1013D300D70212087092AA011208703BD8021208B1
:1013E30070CCD8021208700ED90212087058D902B4
:1013F300120870B7D90212087048DA02120870870F
:10140300DA02120870C6DA02120870FBDA02120856
:10141300700DDB021208701FDB021208703EDB0244
:1014230012087047DB02120870FDDB021208703DE0
:10143300DC021208708CB50112087087850312084C
:1014430070A18503120870B28503120870C7870361
:10145300120870E6870312087062AB0312087098D3
:10146300AB03120870E1AB0312087031AD0312082D
:101473007067E101120870A6E201120870E2E2014E
:10148300120870A1E401120870CAE4011208705D29
:10149300E701120870A1E7011208702AE901120896
:1014A30070C2E9011208702AEA01120870CBEA013E
:1014B3001208700DEB011208704DEB01120870D881
:1014C300EC0112087048EE011208706DF001120869
:1014D300709BF001120870C2F001120870CBF0018A
:1014E30012087026F101120870B9F101120870D7C1
:1014F300F40112087058F5011208704BC103120869
:10150300706CBF03120870939803120870A69803B7
:101513001208704399031208707E99031208709998
:101523009903120870BE9903120870039A031208F4
:1015330070349A03120870659A03120870EB9B03C8
:101543001208701AB70312087050B7031208706CB0
:10155300B703120870AEB703120870BEB7031208C0
:101563007053B803120870878D031208706E8E03D0
:10157300120870898F03120870AF8F031208700767
:1015830090031208701E9003120870D5900312087E
:10159300702DA10212087085A1021208702FA202F9
:1015A300120870D7A20212087034A3021208708DB9
:1015B300A302120870A1A3021208706BA5021208FD
:1015C30070E6A50212087010A602120870CDA702D9
:1015D300120870E8A70212087037A8021208704DAB
:1015E300A8021208705AA8021208708EA8021208E4
:1015F30070A4A8021208702AA90212087039A9025D
:1016030012087092A902120870ECA9021208703A2B
:10161300AA0212087044AB02120870C6AD02120887
:101623007060AE02120870A2AE0212087037AF02E9
:1016330012087054AF0212087057AF021208705AA2
:10164300AF02120870CDAF02120870E8AF021208A1
:101653007014B0021208704FB00212087052B00238
:1016630012087065B0021208708CB00212087098EC
:10167300BE03120870A4BE03120870DEBE03120874
:1016830070BE9002120870E99002120870B59102C0
:101693001208703A9202120870A39202120870EFB5
:1016A30092021208706E93021208700094021208DC
:1016B30070909402120870D294021208703E99023C
:1016C300120870BE9A02120870FD9A02120870C6C0
:1016D3009B021208707A9C021208702A9E0212085A
:1016E30070B69E02120870B89F0212087000800242
:1016F300120870BA80021208702C81021208703B23
:101703008102120870B58102120870248202120845
:10171300702E8302120870578302120870F7830237
:10172300120870458402120870B58402120870E929
:101733008502120870C586021208703687021208E5
:1017430070B38802120870758902120870108A0239
:101753001208706B8A02120870D68A02120870DAB5
:101763008B021208709B8D021208703A8E021208C7
:1017730070AC8E02120870698F02120870189F03F2
:101783001208706C9F03120870C49F031208700F35
:10179300A00312087071A0031208700AA1031208B3
:1017A3007072A1031208707EA1031208700CA903C2
:1017B3001208703DA903120870F7A9031208705D9F
:1017C300AA03120870CEAA031208701E920312080D
:1017D30070AA930312087097BC03120870A8BC0385
:1017E30012087048BD0312087065AF0312087073C6
:1017F300AF0312087061C10312087002BE0312081E
:101803007012BE031208702DBE031208708EBE0341
:10181300120870A2BA0312087027BB031208708B58
:10182300BB0312087090B903120870B2B90312080F
:10183300701CBA0312087027BA031208706BBA033C
:10184300120870A2E502120870B0E502120870F1E6
:10185300E50212087012E6021208709CE6021208F2
:1018630070BEE6021208702AE70212087045E7020A
:1018730012087060E7021208706AE70212087074B7
:10188300E70212087087E702120870A0E702120845
:10189300703CE802120870F8E8021208706FE9025F
:1018A300120870E9E90212087035EA02120870DBC7
:1018B300EA02120870B7EB0212087007FC02120862
:1018C3007015FC021208708FFC0212087073FD027F
:1018D3001208702CFF021208700BC103120870610A
:1018E300ED02120870CEED021208708FEE0212089C
:1018F30070FFEE0212087008F00212087080F10205
:10190300120870E4F10212087039F20212087042F0
:10191300F20212087051F20212087064F202120805
:10192300707AF20212087083F20212087096F202C1
:10193300120870EBF202120870E7F4021208701931
:10194300F5021208703BF50212087054F5021208F2
:10195300706DF50212087077F60212087012F70222
:10196300120870B9B503120870DDB503120870F6DA
:10197300B50312087029B6031208705AB603120889
:101983007088B603120870EAB603120870F9B6033A
:1019930012087003B70312087010B703120870B966
:1019A300A103120870DFA1031208701CA20312081E
:1019B300702BA2031208704AA203120870B2A2038A
:1019C300120870BBA2031208701AA3031208703E18
:1019D300A303120870FDA3031208700AA4031208DC
:1019E300701BA40312087044C00312087061C00383
:1019F30012087089F702120870E7F802120870F4EF
:101A0300F80212087007F90212087026F902120888
:101A1300703CF90212087050F902120870C5F902FD
:101A23001208702AFA02120870DAFA02120870AF6A
:101A3300FB02120870BFFB02120870CEFB021208F1
:101A43007069BD031208708DBD03120870B5BD0324
:101A5300120870DDBD0312087049A40312087070E8
:101A6300A40312087091A403120870F6A4031208C9
:101A730070AFA603120870C8A603120870D4A60399
:101A8300120870E8A60312087006A7031208701064
:101A9300A7031208701AA7031208702DA7031208D0
:101AA3007080A703120870B9A703120870E8A70390
:101AB30012087036A80312087085A803120870A0D4
:101AC300A803120870AAA803120870BBA80312087F
:101AD3007001A9031208701BBF0312087066DC02B1
:101AE30012087090DC02120870ACDC02120870BF9E
:101AF300DC02120870D5DC0212087032DD02120813
:101B03007065DD02120870A1E102120870C7E202DB
:101B1300120870FAE20212087046E30212087072A9
:101B2300E4021208709AE402120870AFE402120889
:101B330070BFE40212087003E50212087064E50244
:101B430012087074E5021208705DB8031208707809
:101B5300B803120870A1B803120870BBB8031208C7
:101B630070E0B803120870FFB80312087017B903C6
:101B730012087045B9031208705FB90312087000A8
:101B8300C0031208701395031208701A9503120804
:101B9300702696031208705696031208707C9603FB
:101BA3001208709F9603120870C19603120870FB07
:101BB30096031208706197031208709A970312082C
:101BC30070E6970312087013980312087033980392
:101BD300120870C4B203120870D6B203120870C19F
:101BE300B3031208704EB403120870DE7E001208AD
:101BF30070507F001208708E7F00120870CF7F0034
:101C0300120870F89B03120870149C031208706387
:101C13009C031208707F9C03120870B09C03120887
:101C230070C09C03120870AC9D03120870B69D032C
:101C3300120870C39D03120870D39E03120870E745
:101C43009E03120870F09E031208700080031208AE
:101C5300704584031208704A8403120870B6C003E7
:101C630012087080C003120870E3C0031208702DBD
:101C7300C10312087091FF0212087066A9011208CD
:101C830070BAA8011208700BA701120870C6A4014C
:101C93001208704DA401120870F4A3011208708891
:101CA300A3011208705FA30112087052A101120868
:101CB300701EA101120870EBA001120870CFA001E1
:101CC300120870F59F01120870AD9F01120870E2AF
:101CD3009D01120870629D011208705F9D01120838
:101CE30070669C01120870349C01120870719B018C
:101CF3001208709C99011208702D99011208703D09
:101D0300B30112087046B2011208702AB201120818
:101D130070D6B1011208708EB101120870FF9801DC
:101D2300120870FC9801120870E99801120870817A
:101D33009801120870CCB001120870709801120853
:101D4300705197011208701B9701120870DE9601FB
:101D53001208707F96011208703FB00112087032AA
:101D6300B001120870B484031208704E9601120871
:101D730070099301120870FA910112087089910198
:101D83001208704E91011208701991011208700D1A
:101D930091011208706D9001120870B48F0112083E
:101DA30070878D01120870138B01120870D18A019C
:101DB3001208709C890112087051890112087083FE
:101DC3008801120870DA87011208707687011208F9
:101DD30070B0870112087040AD01120870D4D702A9
:101DE30000000080FBE4730000000000000000001E
:101DF3000000000000000010101010101000003050
:101E03003000000014285000000000000000000013
:101E1300000000002828FC284850FC505000000017
:101E23000010385454301814545438100000000073
:101E330044A8A8B0541A2A2A4400000000002050E5
:101E43005060ACA898927C000000606020C0000045
:101E5300000000000000000004080810101010101B
:101E63001008080400000040201008040810204057
:101E73000000000000001010D63838D61010000003
:101E830000000000101010FE1010100000000000F1
:101E9300000000000000000000606020C00000009F
:101EA300000000FC00000000000000000000000033
:101EB3000000000000606000000002040404080841
:101EC30010102020204000000000304884848484C7
:101ED3008448300000000000107010101010101023
:101EE3007C000000000038444404081020447C00B7
:101EF300000000003844441804044444380000003F
:101F030000080818284848887C081C0000000000C6
:101F13007C404078440444443800000000003C44C2
:101F230080B8C48484847800000000007C4448089E
:101F3300101010101000000000007884844878848A
:101F43008484780000000000788484848C7404887E
:101F5300F0000000000000003030000000303000CE
:101F6300000000000000001000000000101020001E
:101F730000040810204020100804000000000000A6
:101F83000000FC0000FC00000000000000402010E6
:101F930008040810204000000000007884848408AE
:101FA3001010003030000000000038449AAAAAAA9A
:101FB300B4423C0000000000101028282838444494
:101FC300EE0000000000F844447844444444F80020
:101FD300000000003C44848080808044380000007E
:101FE3000000F048444444444448F000000000002A
:101FF300FC44404878484044FC0000000000FC4298
:10200300404878484040E000000000003C448480A1
:10201300808E8444380000000000EE4444447C4435
:102023004444EE00000000007C101010101010104B
:102033007C00000000007C10101010101010109095
:10204300E0000000EE44485070484844EE000000B1
:102053000000E040404040404044FC0000000000DD
:10206300EE6C6C6C54545454D60000000000EE64C3
:10207300645454544C4CE400000000003048848401
:1020830084848448300000000000F84444447840CD
:102093004040E00000000000304884848484B44859
:1020A300380C00000000F844447850484844E600E7
:1020B300000000003C444020180404447800000061
:1020C3000000FE92101010101010380000000000E5
:1020D300EE44444444444444380000000000EE44C9
:1020E300442828282810100000000000D654545417
:1020F300546C2828280000000000EE4428281028EB
:102103002844EE0000000000EE44282810101010B0
:102113003800000000007C88081020204044FC00A8
:1021230000001C101010101010101010101C0000D4
:10213300701010101010101010101070000070109C
:102143001010101010101010107000001028000054
:10215300000000000000000000000000000000007C
:10216300000000000000FE00606020C000000000CE
:10217300000000000000000000000038441C24445C
:102183003E0000000000C0404078444444447800CE
:10219300000000000000003C4440404438000000C0
:1021A30000000C04043C444444443E00000000008E
:1021B30000000038447C40443800000000001C2428
:1021C30020F8202020207800000000000000003CC0
:1021D30048483040784438000000C04040586444C8
:1021E3004444EE00000000001000007010101010B6
:1021F3007C000000000008000038080808080808F0
:1022030070000000C040405C48507048EC00000083
:10221300000070101010101010107C00000000005F
:10222300000000F854545454D6000000000000008D
:1022330000D864444444EE0000000000000000386D
:1022430044444444380000000000000000F84444C3
:1022530044447840E00000000000003C444444440F
:102263003C040E000000000000EC30202020F800A9
:10227300000000000000003C4430084478000000E7
:1022830000000010107C101010100C000000000063
:10229300000000CC444444443E0000000000000021
:1022A30000EE44282828100000000000000000D69B
:1022B30054545428280000000000000000DC48307B
:1022C3003048EC0000000000000000EE4428281015
:1022D3001020E00000000000007C481010247C0067
:1022E300001010101010101010101010101010000B
:1022F300013636010100010201000103010001045E
:1023030001060605020000070100340801000F0959
:102313000401010D0100FF0E08000017020000195F
:102323000100FF1A0100011B0100FE1C0100081D32
:102333000200001F0100012001000121020000230F
:1023430001000F24020000260100012701000828D4
:102353000200FF2A0100072B0102402C0100002D7F
:102363000100012E0100012F0100FF30010B1C3180
:102373000800003A0100083B01000F2F0100000193
:102383000371030103010301030103010322030298
:102393000301031003000300030003000300030011
:1023A30003000342030003240306030003000304A2
:1023B3000312032503230325032303040304030058
:1023C3000300030003440300030003230300036526
:1023D3000321003503810300030503000300030009
:1023E300030300710030016000110070003102200E
:1023F30003500480001000610000001400630073A8
:102403000072006200430000001300060000000099
:10241300000400120000000000000000000400049B
:1024230000370037003C02440000000000000000B9
:1024330000650000003500810000000500000083F6
:1024430000000001017101010101011101010131CC
:1024530001010101018001100161013B00140063CE
:102463000173017201620143010001130106013D81
:102473000135000401120100010001000100010403
:10248300010401330133013C0144013201360000F0
:102493000100016501000135008101000105018290
:1024A3000183010001030271023001600211027015
:1024B300020102020202028002100261023A00419A
:1024C30000630273027202620243020002130238C3
:1024D30000000200020402120200020002000200D5
:1024E3000204020402370037003C024402000239AE
:1024F30000000200026502000235028102000205AB
:1025030002820283020002C9EEDBDACAD0B0B2C192
:10251300AAB5C2BFC6BCBCD3C3BBA7B5C7C2BCD5D3
:10252300CABAC5C3DCC2EBC8B7B6A8C8A1CFFBD72C
:10253300A8D2B5D7A8D7A2CEDECFDFCDA8D1B6B368
:10254300CFD0C5C1A2D7E3B4B4D0C2D6C2D4B6C724
:10255300BFB4F3D4ADA3BA003600010006000000F7
:102563000F0000000000000000000000000003FF57
:10257300FF00000403FFFF0000FFFF0FF40100054D
:10258300C4040320000100030B000000000000004E
:102593000003010F010029170200991603009F167B
:1025A3000400A5160500AB160600B7161100CF16DA
:1025B3001400D5161500C916FFFF000003EAF5E560
:1025C300D5D5C5B5A5959585857575656555554568
:1025D30045353525251515058B0FBB0F910F970F26
:1025E300B50FA90FA30FC10FC70FCD0FD90F9D0FA4
:1025F300850F7F0F0A570D02210D05330D07270D98
:102603000C030D0D150DFF000000160F00000B1538
:102613000B020002220F32000006751087108D1086
:10262300550F93104F0F5B0FD510F310F910DB10FC
:10263300E710E11000011916181616152303000CF4
:102643000E020B040B0A0708000F00034948424D12
:10265300181725050200383C3E363B3B352B432CEF
:10266300303016181920231A1C1E30303017181951
:1026730021301B1D1F30AF0FD30FED10DF0FE50F00
:10268300C91099109F10AB10A5100204020101019B
:1026930001090200000000000000BE040A0E00153C
:1026A3000004002800050C0A030908FF1E1E0F047E
:1026B30004100C74F7120386E99003B0F0900365DD
:1026C300E4F0121BD39003B5E4F0A3F09003B1F050
:1026D300A3F0120E8F121BD9900334E4F0A3F090F1
:1026E30026B193FA7902121C3902534C74F2120385
:1026F30086EAFEEBFF548060699003B0E0F91213A1
:10270300DB8A088B09EA4509604F7C0080010CECE9
:1027130075F003A4F8A9F074F728F582742539F548
:1027230083E493F4602CE493F88508828B83E06858
:1027330070DCAA08EC75F003A4F874F828F5827429
:102743002539F583E493C0E0740193F583D08212B5
:102753001DE8AA08AB091213CFEEFAEF6480FB025F
:1027630028BCEF5420601D120DB18A088B09EA457D
:1027730009600A120D15AA08AB091213CFEEFAEF7E
:10278300642080DAEEA2E0501A90036AE0640F70CE
:102793000B7900120CDFE960031228BFEE6401FA23
:1027A300EF80BB5420700302288A750C00123D9100
:1027B3008B09EA450970107C027D007A207B00902A
:1027C30003B0E0F91215257C0079047A007B00122E
:1027D3000D8D8A088B098018850882850983A3A338
:1027E300A3A3A3A3A3A3A37401F0850A08850B09DC
:1027F300E5084509606D7C007904AA08AB09120D50
:102803008D8A0A8B0B750C01E5082404F8E509127F
:102813003B3524FFF0A3E034FF125E2870CC85081B
:1028230082850983A3A3A3A3A3A3A3A3A3A3E06470
:102833000170A5850882850983A3A3A3A3A3A3E0AD
:1028430054047094850882850983A3A3A3A3A3A337
:10285300A3A3A37406F07AB7850882850983122996
:10286300EB8087120D5D7C0079017A007B00120DED
:102873008D8B09EA45097009E50C70057A20124C25
:10288300EBEE64200227A2EF5402600B120E89EED6
:10289300FAEF6402022761EF54046019124E8212A8
:1028A3004DA27901900363125106120C25EEFAEF43
:1028B30064040227617A007B00022AF2900D03125E
:1028C3003189120CF722C082C08374EA12094F8542
:1028D3001882851983AA82AB83794B121C0F740863
:1028E300120B2E7402F07409120B2EAA82AB837999
:1028F30050121C0F7413120B2EE41252D5121C2DFE
:1029030074160242AF74F712038674E112094FEA98
:10291300FEEBFFEE4F6033851882851983AC82ADE1
:1029230083120DD57406120B2EE0601E7417120B62
:102933002EE0FD7401120B2EE0FCEEFAEFFB7900A2
:10294300120B4DE9600479A48002790002534774A5
:10295300F6120386EAFEEBFF8E828F83A3A3A3A363
:10296300A3A3E05440601B1257C4122AB960067A2D
:10297300FF7BFF801A8E828F83123F3BFAA3E0FB1B
:102983008003120DF974FE6A700374FF6B604112C9
:1029930057C4124D2F120E4DE98E828F836006129B
:1029A30029E4E480051229E47401F07CE57D0C8EB2
:1029B300828F83125106121C33E9F5087015EE4F0E
:1029C30060097901EEFAEFFB120D69A908024D6067
:1029D3007508CDAA088E828F831229EBE960DF8008
:1029E300EAE0240D12440A22E0240C12440AE0F91E
:1029F300120CF12274F6120386E9FEEAFF7A0F7BCA
:102A0300001213C9EA4B60198A828B83740CF0EEAF
:102A1300A3A3F0EF8A828B83A3F0124D8B790080FE
:102A23002FEEF9120D938A088B09A808A909E84922
:102A3300601C88828983A3A3A3A3A3A3A3A3A374D2
:102A430006125A4FE0F9120CA9EEF9120D6F791024
:102A5300024D60C082C08390036AE0640F7014EA81
:102A63004B6010900365E064086005E06404700344
:102A7300122A790242D9EAFCEBFD7A017B0090032A
:102A8300B0E0F912151F22C082C0837900EA241D29
:102A9300F582EB123F3824FD600B14600824FD60BF
:102AA3000424FD7001090242D98E828F83A3A3A35C
:102AB300A3A3A3A3A3A3122ABD22123F80FB120E3A
:102AC3004DE9228E828F83A3A3A3A3A3A3A3A3A3CE
:102AD300122ABD6402228E828F83A3A3A3A3A3A37E
:102AE300A3A3A31242D0900356E068221208BB7F2F
:102AF300060205A174F412038674FD12094F8A08B5
:102B03008B098A828B83A3A3E0F9120D938A0A8B24
:102B13000BAE0AAF0BEE4F7003022BFE85088285C6
:102B23000983A3E064F16030850882850983A3E00B
:102B330064CD6024850882850983A3E0641A601844
:102B4300850882850983A3E064E9600C8508828592
:102B53000983A3E064E170087900120D69E9706CE0
:102B6300850882850983A3E0C0E07402120B2ED08E
:102B7300E01242B4EEF0A3EF1235DF851882851917
:102B830083AA82AB837005120C0D8003120E357479
:102B930002120B2EE064E970338E828F83122C0AAB
:102BA300750A01780A1208AC750AE9780A1208ACAA
:102BB300E508240CF582E5091230D11235BCFCA3DB
:102BC300E0FD8A828B831235D61208BB8E828F83F7
:102BD300A3A3A3A3A3A3A3A3A3E0640270108E8261
:102BE3008F83A3A3A3A3A3A3A3A3A37406F085081E
:102BF30082850983A3A3E0F9120D6F120D5D900D79
:102C0300071228C202318EE0F8A3E0F9E8FAE9FBE3
:102C13002274F4120386EAFEEBFF7508008E828F9E
:102C230083A3A3A3A3A3E060427508088E828F83C6
:102C3300A3A3A3A3A3A3A3A31241E38B0BEA450B73
:102C4300601075082C8E828F83A3A3A3A3A3E0D265
:102C5300E0F08E828F83A3A3A3A3A3E054036401B4
:102C63006003022CFD430811022CFDEE24181231DF
:102C73009B6033EE241A12319B700F122AD9700312
:102C8300A3E06970757508228070EE241BF582EF4E
:102C9300122D02241AF582EF1235E7EE241912578A
:102CA300F8120C978054122AC67003750801122A71
:102CB300D97003A3E0697006E508D2E1F508E508D9
:102CC30060158E828F83A3A3E07006E508D2E580AA
:102CD30004E508D2E6F508122AAC64017006E5089B
:102CE300D2E0F5088E828F83A3A3E0600D122D102E
:102CF30064016006E508C2E0F508A90802319312F1
:102D03003F26122D0922E0FCA3E0FDEE22123F2014
:102D1300123F58F9120E3BE922C082C08379018A1F
:102D2300828B83A3A3E0C394024001198A828B831D
:102D3300A3A3A3A3E0C39402400279008A828B83F6
:102D4300A3A3A3A3A3A3A3A3A3E064F87003A3E093
:102D5300F460458A828B83A3A3A3A3A3A3A3A3A302
:102D6300E064F97003A3E0F4602E8A828B83A3A34B
:102D7300A3A3A3A3A3A3A3E064FA7003A3E0F46053
:102D8300178A828B83A3A3A3A3A3A3A3A3A3E06410
:102D9300FB7003A3E0F4700279008A828B83A3A300
:102DA300A3E0F8900353E068600279000242D9740B
:102DB300F012038674DE12094FEAFEEBFF8E828F58
:102DC30083A3A3A3A3E0600E900D05124D576006E5
:102DD300900D051228C27403120B2EAC82AD838EA4
:102DE300828F83A3A3A3124DD9125612E9600F74E5
:102DF30003120B2EAA82AB83120D0FE9700879011F
:102E0300121BE50230C6EE241B123F2B7410120B6B
:102E13002E124DA27409120B2EE06021741A120BAC
:102E23002EE0FD7404120B2EE0FC8E828F83125170
:102E3300047901120B4DE96004790280C374031213
:102E43000B2EAA82AB83120D09E9F50A7409120B42
:102E53002EE0702A90034DE060247422550A642208
:102E6300601C7442550A644270CF7420120B2E12F8
:102E730030E4600A7420120B2E1230DD70BBE9A21D
:102E8300E650417403120B2EAA82AB83120CFDE9A8
:102E93007003022E017420120B2E123F3B64037049
:102EA3000F7420120B2EA3124D49A3E0640D60147E
:102EB3007403120B2EAA82AB83120E5FE9640170B6
:102EC300030230C6EE242C1230CE1233F27003A369
:102ED300E069701C75080078081208AC78081208BD
:102EE300ACEE242E1257F81230EA1235D61208BB74
:102EF3007409120B2EE07003022FA31230EA125151
:102F030006120EB38A088B09EA45097003023040A2
:102F13007404120B2EE0F88E828F83A3A3E028F8AB
:102F2300A3E03400F9E8240D1230D58A828B83A301
:102F3300A3A3E068601CE88A828B83A3A3A3F09019
:102F4300872F120B0B850882850983A3A3A3A312E2
:102F53000B177904E9120B2E1255EF2AF8A3E0346C
:102F6300008882F583A3AA82AB831213B78A0C8BE2
:102F73000D8C0E8D0F850882850983A3A3A3A378E7
:102F83000C12080B40030230C690873B780C1209E1
:102F9300DE850882850983A3A3A3A3780C120AD331
:102FA300900365E064046008E0640960030230C6CE
:102FB300E50AA2E5400302307EEE242E12319B8502
:102FC3001882851983F0EE242F12319BC0E074011F
:102FD300120B2ED0E0F0EE243012319BC0E07402CD
:102FE300120B2ED0E0F07414120B2EE06401702744
:102FF300740E120B2E123F31EE241212319B6870A5
:1030030003A3E0697011740C120B2E122AD37007FC
:103013007414120B2EE4F0EE24241230CE1206A206
:103023007404120B2EAC82AD837407120B2EAA828A
:10303300AB83120C1374041208BB0230C69003AAAC
:10304300E064016003022FA37420120B2E1230E4FC
:103053007009E50AA2E65003022FA37410120B2E87
:10306300E0F47003A3E0F4605AEEFCEFFD74031286
:103073000B2EAA82AB83120D1B8048A2E650447428
:1030830020120B2E125115701A741A120B2EE064B3
:103093000270307403120B2EAA82AB837900120ED6
:1030A3002980207420120B2E1230DD7016741A1230
:1030B3000B2EE06404700C7403120B2EAA82AB83F4
:1030C300120E2374220254C1EE240BF582EF123F39
:1030D3002622F582E9124DBBF8221257D6E0640787
:1030E30022123F58640622EE242A123F23122D098E
:1030F3002412123F232274F4120386EAFEEBFF8CA0
:10310300088D099005D7E0600F122AD97003A3E058
:10311300697005120C85804F79001250F9120CB5B5
:103123008A828B83E58245836035A3A3A3A3A3A3EC
:10313300E05418602AE508241BF582E5091230D112
:103143001206A61237CF1230D11206A6EE24181299
:1031530057F812316C120CC774041208BB8008793B
:103163000012316C120C8B80278E828F83A3A3A352
:10317300A3A3A3A3A3A3122D09240BF582EF12315A
:1031830085223400F583123F80FB2274031208BBAF
:103193007F040205A1EE2417F582EF124DBB2274C2
:1031A300F712038674F712094FEAFEEBFF900365EB
:1031B300E06403600DE064016008E06409600302F9
:1031C300326C8E828F83A3E0707E7C007D007A0256
:1031D3007B00121BDFEE2402FAEF123B3C123F315D
:1031E300900356124DA27953121C157900123271B5
:1031F300E06409600312360485188285198374011B
:10320300124D789003657404F07401120B2EAA8298
:10321300AB83794A121C0F7401120B2EAC82AD835F
:103223007A5B7B03121BFD9003561256087A031236
:10323300360E900350E0A2E35004D2F08002C2F0B5
:10324300124D651228BF801E8E828F83A3AE82AF7C
:1032530083FC7D007A037B10121BDF8E828F83E059
:10326300F9123271E4F0120D4574090253499003C7
:1032730063123189120C2590036522C082C08390AA
:103283000334124D57701F900365E014600924FC4A
:10329300600A14600C800F90033C803290033880E6
:1032A3002D90033A8028E84960089003351235B61B
:1032B300700C8A828B83A3E0F9120C19801B900394
:1032C3003512386B7005120E7D800E9003D2124DAD
:1032D300576006124D49121DE80242D974F41203D5
:1032E3008674FB12094F8A088B097A0F7B0012132D
:1032F300C98A0A8B0BAE0AAF0BEE4F70030233E69B
:103303008E828F831252D37950121C0F85088285C7
:103313000983A3E060030233CE900363E0F47003F8
:10332300A3E0F46034900363E064FE7003A3E0F46D
:1033330060278518828519831233F27003A3E0692D
:103343006017850882850983A374EA1235EC7A63D2
:103353007B037950121C158072851882851983129C
:1033630057B7124DA27A567B037953121C0F900361
:1033730056124DD3124DA27A597B03794B121C0F6F
:103383007A587B0379E1121C0F90036AE0C3940F10
:103393005021900358E0C0E07402120B2ED0E0F0ED
:1033A3007404120B2E7401F004120B2EAA82AB8349
:1033B300121C27750A00780A1208AC780A1208ACA6
:1033C300900D2DE0F91235CD1208BB8508828509D1
:1033D300831233EBA3F09003657403F0EEFAEFFB73
:1033E300124D8B7405023190A3E08E828F832212DB
:1033F30057BBE068221244112274F512038674D875
:1034030012094F8A088B098A828B83A3A3A3123FD5
:103413005D7415120B2EAC82AD838A828B83A3A3BA
:10342300A3A3A3A3A3A31235BCFAA3E0FB120D4BE2
:103433007415120B2EE0706B850882850983A3A394
:10344300A3A3A3A3A3A3E0C3940B40578E828F83AC
:10345300A3A3A3A3A3A3A3A3E064027046EE240B38
:1034630012319BF4703D900365E06402603AE064BE
:10347300066035900334124D5760051235B6604F20
:10348300900365E064086005E06404701674171225
:103493000B2EE0F9741C120B2EAC82AD831250F983
:1034A300120D517428025CD5900334124D57701FCE
:1034B30075080078081208AC78081208ACEE2410DE
:1034C3001230CE125810123C241235D61208BB8E7D
:1034D300828F83125075123B4E123F317402120BCE
:1034E3002E124DA2EE240D12319BC0E07404120B78
:1034F3002ED0E01235DFF508A3E0F509740F780844
:10350300120AC47405120B2EE508F07419120B2E5F
:10351300E0C0E07406120B2ED0E0F0741B120B2EE9
:10352300E0C0E07407120B2ED0E0F07416120B2EDD
:10353300E0C0E07409120B2ED0E0F07417120B2ECA
:10354300E0C0E07408120B2ED0E0F0EE241012312C
:103553009BC0E0740A120B2ED0E0F0741A120B2EEB
:10356300E0C0E0740B120B2ED0E0F07427120B2E88
:10357300E0C0E0740C120B2ED0E0F0741C120B2E82
:10358300A982AA8389088A09750A0078081208A4FF
:103593007C087D007410120B2EAA82AB831249069D
:1035A3001208BB851882851983AA82AB83120C1F6C
:1035B3000234A6123871640122E0F98A828B83A354
:1035C300A3A3A3A3A3A3A3A3E02290036312560C74
:1035D300900359123189120E0B740222F0EE240B60
:1035E300124DB822124DBBFA22F07A567B0379535F
:1035F3001235F722121C157A597B03794B121C15CD
:1036030022900363123189120EAD227B00121BDF5D
:1036130090035912560C7A047B00121BDF22F0121E
:10362300581B2274F212038674F812094FEAFEEB58
:10363300FF8C0A8D0B890C851882851983AC82ADAA
:10364300837583867582E474081207CBF50DEEFC4F
:10365300EFFD851882851983AA82AB83124FD6703A
:1036630003750D019003B1803BEEFCEFFDE50824EB
:103673000BFAE5093400124FD5601E8508828509CF
:1036830083A3A3E0650C7011850882850983E06537
:103693000A7004A3E0650B6038E5082414F582E59D
:1036A300091230D1123B46E50845096024E50DA215
:1036B300E040B6850882850983E0650A7004A3E0CB
:1036C300650B70D5850882850983A3A3E0650C701B
:1036D300C8AA08AB097408022AEFC082C08390030A
:1036E300B10242D674F71203869003B1123F808071
:1036F30012EA2414F582EB1230D1123F5D12146BDF
:10370300EEFAEFFBEA4B70E99003B1E4F0A3F002A9
:10371300534C7F070205A174F1120386EAFEEBFF07
:10372300890A8C088D098E828F83E08C828D8312A7
:1037330041EDAE82AF83E01249C6124937C4124944
:10374300C61237D8E054038C828D83124935A2E226
:10375300E4338C828D83124934131313541F12499B
:10376300C6124933A2E7E4338C828D83A3A3A3A3B8
:103773001237D88E0C8F0D750E00780C1208A47CAE
:10378300087D00E508240712557B1208BB1255E695
:103793008E0C8F0D780C1208A47C037D00E50824A1
:1037A3000F12557B1208BBE50AC3940F40148E8297
:1037B3008F83A3A3A3E0C0E01237CF1230D1D0E0B0
:1037C30080061237CF125A43F0023715E508241248
:1037D300F582E50922A3A31241F10EAF832274F40B
:1037E30012038674F912094FEAFEEBFF890890036E
:1037F30034124D57600E12386B7009EEFAEFFB125C
:103803000E77805F900363E06E7003A3E06F7053E5
:103813007401650860097A777B03124FD670447A86
:10382300007B02123D958B0BEA450B7036900366C5
:10383300120B0B851882851983120B1790036CE00A
:10384300C0E07404120B2ED0E0F07405120B2E743A
:1038530001F07406120B2E1252D3120BE9E9609B8E
:10386300120BEF740702319012387164022212575F
:10387300D7A3A3A3A3A3A3E02274F51203868A0804
:103883008B098A828B83A3AE82AF83E0F9120C3D4E
:103893008E828F83E064EB600C850882850983A3A5
:1038A300E064E17009850882850983A3E4F01228A6
:1038B300BF750A01780A1208AC850882850983A3BB
:1038C300E0F50878081208AC79001235CD1208BB70
:1038D300120D5D025CD8EAF0A3EBF00242D974F654
:1038E3001203869003B4E0701B7C0079017A007B9D
:1038F30000120D8DEA4B600C8A828B83124D576048
:1039030003120CEB024D60C082C083123D7D401058
:1039130079FF120D87E9F89026B5E493C398500414
:103923007901800279000242D974F01203868A0871
:103933008B09890B750C008A828B83A3A3A3A3A392
:10394300A3A3A3E0F9120D938A0E8B0FAE0EAF0F54
:10395300750A01EE4F6003023A0A850882850983DE
:10396300A3A3A3A3A3A3125608850882850983A34F
:10397300A3A3A3A3A3A3124706125106120D7B8A86
:103983000C8B0DAE0CAF0DEE4F7003023B2D8E82F0
:103993008F83A3A3A3A3E4F0A3F0E508240B123BB6
:1039A30039E0C0E01230CBD0E0F0120E53EE240C1D
:1039B300F582EF124D2BE508240EF582E509123F3F
:1039C3002EEE240EF582EF124D9F750C01EE2406A8
:1039D300F8EF123B35547FF0A3E054FC12586DE02E
:1039E30054046003023A90900D0B1246F774077863
:1039F30008120A508E828F83A3A3A3A3A3A3E04537
:103A030008F0A3E04509F08E828F83A3A3A3A3123A
:103A13003B4474077808120AC4E5085407F508E51F
:103A23000B607A8E828F83A3A3A3A3A3A3A3A3A3D1
:103A33007402124938240D124406E0A2E2500B909E
:103A43000351124DD3A3A3124DA2E5087003023B09
:103A530002EE2406F8EF3400F9E8FAE9FB8A828BD8
:103A630083E0547FFCA3E054FCFDE50824FFF50844
:103A7300E434FFF50974077808120A50EC4508F896
:103A8300ED4509F98A828B83124DA280728E828F53
:103A930083A3A3A3A3A3A3E04480023A09E5087088
:103AA30005750A0080598E828F83A3A3A3A3A3A3C2
:103AB300E0542060121213C3EA547F245F8E828F76
:103AC30083A3A3A3A380238E828F83A3A3A3A3A3F0
:103AD300A3E05410600A1213C3EA540F240A80DDD2
:103AE3008E828F83A3A3A3A37401F0A3E4123B4E9E
:103AF3007404123D8C8B09EA45097003124D1EE5CF
:103B03000CA2E050288E828F83A3A3A3A312533960
:103B1300F9EEFAEFFB120D81E96012124D4D6003CD
:103B2300123F16EEFAEFFB12146B750A00A90A0294
:103B330054C4124E9622FAE5093400FB8A828B8321
:103B430022A3A3E0F508A3E0F50922123B522212B7
:103B53005597A3A3A3A3A32274F412038674F712A5
:103B6300094F7E00120D93EA4B7003023C1D8A82BB
:103B73008B83A3A3A3A3A3A3A3A3A3E064066003CC
:103B8300023C1D8A828B83A3A3A3A3A3A3A3E0FF69
:103B93008A828B83124419E0C0E07408120B2ED082
:103BA300E0123F51124FDC124DA2120DA5EF540843
:103BB30060668518828519831256087A007B001285
:103BC3000D758B0BEA450B704F9003631240411246
:103BD3001C3F7C007D007A007B0080288E828F83CF
:103BE300123F3BF47003A3E0F4602D900363123C97
:103BF30024125106121933E9641A601C7C007D00FB
:103C0300EEFAEFFB120D758A0A8B0BAE0AAF0BEEC1
:103C13004F70C97900121C457E01EEF97409023117
:103C230090123C2822E0FCA3E0FD8E828F8322C009
:103C330082C083EA4B70059003B580068A828B832A
:103C4300A3A3123E4160258A828B83A3A3A3A3A3CC
:103C5300A3A3E0540860E5EC4D60158A828B8312C0
:103C63003F3B6C7003A3E06D70D280047A007B004D
:103C73000242D974F2120386EAFEEBFF890A8C082A
:103C83008D097A107B00121465EA4B603F8A828BA0
:103C930083A3A3A3A3A3A3A3A3A3E4123F3FA3E5E7
:103CA3000A1257DDA3123CD98A828B83A3A3A3A351
:103CB300E4F0A3123F4BA3F0125671EA240CF582F1
:103CC300EB1241DD123CD2A3A3F0A3F0022AF2A32C
:103CD300F08A828B8322A3A3E508F0A3E509F022EF
:103CE30074F4120386EAFEEBFF89088C0A8D0BEE4F
:103CF3004F60557401650870147901120D87E9F856
:103D03009026ADE493C398500F7911806A740465CB
:103D130008702F123D7D40F18E828F83A3A3A3A34E
:103D2300A3A3A3A3A3E5081241EDA3125D628E82B0
:103D33008F83A3A3E4F0A3F09003B5124D57602142
:103D4300800D7402650860D079C1802BE0F8A3125E
:103D53004DCCA3A3123E4188828983A3A370ED8037
:103D6300039003B5EEF0A3EF123D8C8B0BEA450BEA
:103D73007003124D1E79000231937904120D87E905
:103D8300F89026A8E493C39822F0123D91227A205A
:103D93007B009003B0E0F912153122C082C083E9A1
:103DA300F879009003B5801D8A828B83A3A3A3A314
:103DB300A3A3A3A3A3E068600574FF687001098A45
:103DC300828B83A3A3123E4170DE0242D974F712A1
:103DD3000386EA4B70059003B580068A828B83A322
:103DE300A3123E4160248A828B83A3A3A3A3A3A32C
:103DF300A3A3A3E06970E4EC60148A828B83E024BC
:103E03000D1255F9A2E240D380047A007B000253DD
:103E13004CC082C0839003B580068A828B83A3A3A0
:103E2300123E4160128A828B83A3A3A3A3A3A3A3FD
:103E3300A3E06970E580047A007B000242D9123165
:103E430089EA4B2274F21203868A0A8B0B8C0C8D3F
:103E53000D750800750900EA450B602E9003B580C7
:103E6300068E828F83A3A3123E94601EAC0CAD0D0D
:103E7300EEFAEFFB850A82850B83121DE8E96401E4
:103E830070DFEEF8EFF988088909AA08AB09022A5E
:103E9300F2E0FEA3E0FFEE4F2274F71203869003D5
:103EA300B5123F317C007D00800DE8FCE9FD88827E
:103EB3008983A3A3123F31E8496030EA687002EBBB
:103EC3006970E79003B5125106E86A7002E96B88DE
:103ED300828983A3A37008123F319003B58009122E
:103EE3003F318C828D83A3A3124DA202534C74F7EE
:103EF300120386EAFEEBFFEE4F6015120D9F123F91
:103F030063124D4D6003123F16EEFAEFFB12146B72
:103F130002534CEE240C123F23123F7822EE241D51
:103F2300F582EF3400F58322F582EF123F26124229
:103F3300D022F582EF123F26123F5822123F43222E
:103F43001257E5A3A3A3A322123F43A3A322123C28
:103F5300D3123F58221257D0E022E0FEA3E0FF2203
:103F63008E828F83E0241C12440A123F788E828F44
:103F730083123F7822123F80FB12146B22E0FAA3D4
:103F8300E022C082C083EAFCEBFDEC4D70047905AE
:103F93008044EC24FBF582ED34FF124D557007127B
:103FA3003FDCE0F460051213CF80E39003B0E0C080
:103FB300E0123FDCD0E0F09026AAE493F97AB77BD5
:103FC300031213F9E96401700B7A007B20124D226E
:103FD3007900800279040242D9EC24FFF582ED34A2
:103FE300FFF5832274F4120386A2AFE433F508C20B
:103FF300AF9003B7123E946038EE24FBF582EF34A2
:10400300FF124D557A007B209003B06005124D25B9
:104013008005E0F9121405E4F50AF50B780A120895
:10402300A8EEFCEFFD7AB77B031213F374021208B8
:10403300BBE508A2E092AFEEFAEFFB023193125612
:104043000C851882851983AA82AB832274F212032A
:104053008674FC12094FEAFEEBFF750AFE750BFF2F
:10406300120D63E9600579110241D2EE2415123174
:104073009B6037900D1FE0C43354E0F8E0333354B2
:10408300FC48C0E0EE24151230CED0E01241ED1210
:1040930041E38B09EA45096011750AFFEE240F120B
:1040A300319B4404124DB0D2E0F08E828F83122AEA
:1040B300B76006EE24121241DAEE241312319B701C
:1040C300109026B0E493C0E0EE24131230CED0E07B
:1040D300F08E828F83E0A2E750045403801CEE2409
:1040E3001412319B7015900342E0C0E0EE241412C9
:1040F30030CED0E0F0900342E004F0EE2411123110
:104103009B640170169005CEE0600D90034DE07046
:104113000A8E828F83E070031241D78E828F83E0F1
:1041230064017013EE240B123F3564027009EE2410
:104133000F12319B4440F0851882851983AC82AD00
:1041430083EEFAEFFB120DC98A088B0974FE650A28
:10415300700374FFF470098E828F83A3A3125587B3
:10416300EA450960668E828F83E0C0E07401120B1A
:104173002ED0E0F07402120B2E1256757401120B3E
:104183002E85820C85830D780C1208A8EE240F125D
:1041930030CE1206A6EE240E12319BF50C780C12CB
:1041A30008AC9003561206A67407120B2EE0F9AC66
:1041B3000AAD0B120DC374071208BBE9FE74106E2F
:1041C300700BAA08AB0912146B80027E10EEF9740F
:1041D30004022AEFEE2411F582EF123F26E4F022C7
:1041E300A312318979FF121D17221241F122F08E99
:1041F300828F83A322C082C08374DE12094F8A8216
:104203008B83A3A3A3A3123F31740E120B2EE8F0EA
:10421300A3E91242C7740C120B2E1242C0240DF5EF
:1042230082EB12319EC0E0741A120B2ED0E0F01212
:1042330054D4EB123F2E7420120B2E1242C02415BD
:10424300F582EB12319EC0E07408120B2ED0E0F021
:10425300EA241CF582EB123F2E7412120B2E12422B
:10426300C02411F582EB12319EC0E07409120B2EAB
:10427300D0E01242B474FFF07401120B2E74FFF0FD
:104283007402120B2E74FFF090872F1206A274048F
:10429300120B2EAC82AD837407120B2EAA82AB8352
:1042A300120C1374041208BB790074221208BB8029
:1042B300251242B822F085188285198322E8F0A3DB
:1042C300E9F0EA22123CD3A31242CF22A3E0F8A3DF
:1042D300E0F922125106D083D08202086D74EC12E9
:1042E300038674EE12094F8A128B13ECFEEDFF89DD
:1042F300097426120B2E1255877428120B2EE0F523
:10430300107429120B2E1243FB742B120B2EE0F5A3
:104313000EA3E0F50F7508107A1E7B001214657466
:1043230002120B2E124D2F7402120B2E124D5770C8
:10433300030243F4851882851983AA82AB837950DB
:10434300124C0A1251067402120B2E124419A312B4
:104353004D2F7410120B2E125D647402120B2EE09B
:10436300240B1244067402F0120B2E124419740229
:10437300F0120B2E1257C81256757402120B2E121E
:10438300511BE509F07402120B2EE0240C124406B3
:10439300E510F07402120B2E124403E512F0A3E5AC
:1043A30013F07408120B2EE50CF0A3E50DF0740A5C
:1043B300120B2EE510F0850E82850F83C082C08319
:1043C300740D120B2EAC82AD83D083D08274031292
:1043D30007CBF97402120B2EAA82AB83120D69E983
:1043E3006401700575080080087402120B2E123FD9
:1043F3001CA908741202559EE0F50CA3E0F50D22EA
:10440300E0241C12440A22F8A3E0124411223400CF
:10441300F9888289832212510EA3A3A3A3A3227432
:10442300EE120386EAFEEBFF8C088D098E828F83E2
:10443300A37408124DEBE060088E828F83A374107F
:10444300F012319860098E828F83A3E02408F0EE86
:10445300241512319B60088E828F83A3E004F08EB3
:10446300828F83A3A3A3A3A3A3E060198E828F8368
:10447300A3A3A3A3A3A3A3E0C3332402F88E828F31
:1044830083A3E028F0EE241112319B6005750B0E17
:104493008003750B008E828F83A3C082C083EE24BA
:1044A3000D12319BD083D082F8E028250B8C828DAE
:1044B30083F0EE241112319B600512491628F08512
:1044C3000882850983E0C39475400975080075095E
:1044D30000024604E0FA7B001257237003024604ED
:1044E300EEFAEFFB120DCFEA850882850983124DA0
:1044F30030EE2402F8EF1233F81246FE124640F073
:10450300EE24040808EF1233F8124B40A31246407E
:10451300A3A3F0EE2413124626F0EE24141246262B
:10452300A3F0750A08EE241612319B6010EE2418CE
:10453300125605E5082408125806750A1012319818
:104543006016EE241A125605850A0CE508250C128E
:1045530058067408250AF50A8E828F83A3A3A3A3A2
:10456300A3A3E06059EE2407F510EF3400F511859D
:104573001082F583E0C0E012460D1230D1D0E01274
:104583004630E0C0E012460D1230D1D0E012463082
:10459300A31246191208A4851082851183E0C33340
:1045A300FCE433FD850A0CE508250C12557B120843
:1045B300BB851082851183E0C333250AF50AEE24F7
:1045C3001512319B600BC0E012460D1230D1D0E0C2
:1045D300F01230CB1246191208A4EE240D12319BAF
:1045E300FC7D00850B0A8E828F83A3E0F8E5082803
:1045F300F8E5093400F9E8250AFAE912557E1208AC
:10460300BBAA08AB097F0A0205A1850A0CE50825A8
:104613000CF582E50922E0F50CA3E0F50D750E001B
:10462300780C22123F2312464AA3A3A322F0050AC1
:104633008E828F83A3A3A3A3A3A3A3A322A3A312C3
:104643005871A312464A22124B44A3A32274F612B2
:1046530003868A828B83E0FC9003531246F774022D
:104663007808120A50EC4508FCAD09EA24121246F8
:10467300F174067808120A50EC4508FCED4509FD73
:10468300EA2415F582EB12319E60047801800278EA
:1046930000E4C8F9ED49FDEA2411F582EB12319EDD
:1046A300F508880974097808120A50ED4509FDEAEE
:1046B30024161246F1740B7808120A50ED4509FDD1
:1046C300EA24171246F1740C7808120A50ED4509D2
:1046D300FD8A828B83A3A3A3A3A3A31246F7740A21
:1046E3007808120A50ECFAED4509FB024D60F58299
:1046F300EB123F26E0F50875090022E08508828564
:10470300098322A3E0F98508828509832274EE12C6
:1047130003868A0A8B0BECFEEDFF750F01E9C39448
:1047230008500579000249038E828F83E9F0124B0A
:1047330069E96003750F00124B4D8E828F83124B14
:1047430097EE1254D5EF124B8CC0E0EE24111230C9
:10475300CED0E0124B84C0E0EE24121230CED0E073
:104763001241ED740812558FA3A3A3E06015124BF9
:1047730035EE2413F582EF124D9F8E828F83A3E0D3
:104783002408F08E828F83A3A3A3A3A3A3A3A3E0F0
:1047930060218E828F83A3858208858309124B78DB
:1047A300EE2415F582EF124D9F850882850983E07B
:1047B3002408F08E828F83A3A3A3A3A3E0601A8EA1
:1047C300828F83A3858208858309124B5C8E828F37
:1047D30083A3A3A3A3A3124928EE24191241DAEE5B
:1047E300241B1241DAA3124DE3E07003024897EE53
:1047F3002419F8EF3400F98E828F83A3858208850C
:104803008309E0FAE50A2AF582E50B12319E8882D4
:104813008983124928FAE50A2AF582E50B12319EAB
:10482300C0E0EE241A1230CED0E0124928888289E3
:1048330083E06059F89026A9E493C3985005751155
:104843000C8008EE241912319BF5118E828F83A3FD
:10485300E0F8E50A28F50CE50B12490C1208A4E56B
:1048630011C333FCE433FD7AAF7B0B124906120804
:10487300BBEE241B1230CE74AFF0A3740BF0E51122
:10488300C333F8850882850983E0288006EE24185F
:10489300125A40F08E828F83A3E0F88E828F83E0DA
:1048A300C3985003024726A3E0FA8A08E50A2508BD
:1048B300F8E50B3400F9EE241DF582EF124EAB122E
:1048C3004938C39AC0E0EE24171230CED0E0124D1F
:1048D300A8602BEE2417F8EF3400F98808890988BB
:1048E30082F583E024F2124E8C240EFAA3E0340006
:1048F300FB88828983124D2F124916C398F0A90FA2
:1049030002460812139F7403223400F50D750E003E
:10491300780C2290034EE0F9120B53E9F8850882D4
:10492300850983E022F0850882850983E004F0226B
:10493300A3A3A3A3A3F08E828F83E02274F41203B4
:10494300868A088B09EA1249CDF0EA1313543F1201
:1049530049C6A3A3A3F0EAC413131249CDA3A3F03A
:10496300EB1249BF1249D77409780A120AC41249D3
:10497300BD1249D6740A780A120AC4E50A5401C062
:10498300E0EC2418F582ED1230D1D0E01249DC744A
:104993000B780A120AC41249BDA31249D6740C78C3
:1049A3000A120AC41249BDA3A3A3A3A3A3A3A3F0FA
:1049B300740D7808120AC4022CFDE50A54018C8296
:1049C3008D8322540F8C828D832254038C828D839A
:1049D300A3A322A3A3A3A3A3A3F08A0A8B0B22C09E
:1049E30082C08379008A828B83A3A3A3A3A3A3E0BA
:1049F30090034D600FE070228A828B83A3A3E07043
:104A030019098016E060138A828B831250FD90038C
:104A130056E06A7003A3E06B70E70242D974F012A8
:104A230003868A0A8B0B890C8C088D09124B691239
:104A33004B4D850882850983124B97E5081254D59F
:104A4300E509124B8CC0E0E5082411F582E5091253
:104A530030D1D0E0124B84C0E01237CF1230D1D026
:104A6300E0124EB37408124ECC6011124B35E508B8
:104A73002413124EA7124EB3E02408F08508828552
:104A83000983A3A3A3A3A3A3A3A3E0601785088219
:104A9300850983A3124B74E5082415124EA7124906
:104AA300382408F0850882850983A3A3A3A3A3E080
:104AB3006019850882850983A3AE82AF83124B5C9C
:104AC30085088285098312493304F0AA08AB0912C9
:104AD3000DE1E9F50D7056850882850983A3A3A32B
:104AE300A3A3A3124B407014E0FA8A0EE50A250E25
:104AF300F8E50B124D94E50CC39A8021124B74E830
:104B0300240EF8E9124D9490034EE0F9120B538EE4
:104B1300828F83E0F8E50CC39824F2C399C0E0E5E3
:104B2300082417F582E5091230D1D0E0F0A90D026F
:104B330054C4E50A2408F8E50B3400F922124B4467
:104B430022E0850882850983A322850A82850B8357
:104B5300A3A3124BADE0F9EA22E0F8E50A28F582B7
:104B6300E50B124DBB228A828B831254C9120DDBD3
:104B730022AE82AF83E0F8E50A28F8E50B3400F9AA
:104B830022124BC0A3A3A3E022123F26E8124BB983
:104B9300A3A3E022A3A3A3A3A3A3A3A3A3124BB9F9
:104BA300124BADA3A3E0F9EAF822E0FA850A828565
:104BB3000B83A3A3A322F0A3E9124BC022F0850A1F
:104BC30082850B83A3A3A3A322C082C0837AC57B60
:104BD3000379E2121C0F7AC57B030242D9C082C05B
:104BE300839003560242D6C082C08374FE12094FDB
:104BF300851882851983AA82AB83794B124C0A12DA
:104C0300510674020242AF121C0F85188285198364
:104C130022C082C083794A121C0F0242D974F61251
:104C230003869003CDE0FE04F0EEF9120D938B0999
:104C3300EA450970EDEE60EAF9024D6074F0120383
:104C430086EAFEEBFF8C088D09890A7410120B2E7D
:104C5300E0F50B7411120B2EE0F50C120EB3EA4BB8
:104C63007013E50C7042A90AAC08AD09EEFAEFFB2C
:104C7300120ECB806EE50A6021EA2402F582EB1264
:104C8300319E850A082508F8E4340013E813F07010
:104C9300098A828B83A3A37401F0E50C6045E50BBD
:104CA30070068A828B83E4F07401650C7035E50B22
:104CB3009003D47004E4F0802AE004F0900D0CE03B
:104CC300F89003D4E0C398401AE4F0900359E06EDF
:104CD3007003A3E06F700CEEFAEFFB7901120C374F
:104CE300124CE90254C47A017B009003B0E0F9123C
:104CF300152B22C082C08374016A7001EB70077A9E
:104D030001124D208012900D03124D2FEA4B6005C6
:104D1300122A798003124CE90242D97A207B00904F
:104D230003B0E0F91213FF223400F583EAF0A3EB9A
:104D3300F022C082C083900D050238D9C082C0839F
:104D4300900D070238D91257D722EE240CF582EFC3
:104D53003400F5831242D0E849221208BB7F0202D5
:104D630005A1A2F0E433851882851983124D817958
:104D730052121C1522124D817942121C1522F0AADF
:104D830082AB8322AA08AB099003B0E0F9121DDDC0
:104D9300223400F9E508241DF582E509123F26E8CF
:104DA300F0A3E9F022125593A3A3E022A3F0EE248B
:104DB30015124DB822F582EF3400F583E022124D2F
:104DC300C5223400F583E0F8A3E0F98882898322C1
:104DD300E0F8124DD922A3E0F98E828F83A3A32298
:104DE300F0EE2418123F2322F0EE2416123F232262
:104DF30074F4120386EAFEEBFF7A007B04124CED97
:104E0300124E82124DA29003657409F0120DED8AC1
:104E1300088B09AC08AD09EE24131230CE125106EB
:104E2300124FD6640170487A0F124E7560418A8220
:104E33008B837402124E8CFAA3E0FB8A828B83A3CA
:104E4300E0FC8A828B83A3A3E0FBEC8508828509BF
:104E530083A3A3124D308882898312510A1246FE1E
:104E6300124DAFFAA3E0FB794A121C15124D8702CB
:104E730031937B001213C98A088B09EA45092290F2
:104E830003361242D0900D0722F0EE241DF8EF12E4
:104E93004E9622124411E022124E9F223400F583D3
:104EA3007401F022F582E509123F26E8F0A3E92216
:104EB300124EB722124EBB22F0850882850983A3C6
:104EC30022124EBBA3A3A3A322124EC4A3A3E02288
:104ED3001252DD120E4122EE2417F582EF124E9F7D
:104EE300120DEDEE241A123F23EAF0A3EBF0227425
:104EF300F412038674F312094F8908EAFEEBFF7C70
:104F03000D7D007900851882851983AA82AB8312EF
:104F130013ABEE241D1230CE1257C8A3E0F8741F52
:104F230058600A7901121BE57900024FCDE8A2E52A
:104F33005008740C120B2E7401F0E8A2E7500874A9
:104F43000B120B2E7401F0E8A2E6740A5008120B40
:104F53002E7401F08008120B2EE064017005EE241C
:104F6300138003EE24151256057402120B2EAA8227
:104F7300AB83121BFD1230CB124FDB124DA2740A0E
:104F8300120B2EE064017033122AAC703B120DF940
:104F93008A0A8B0BA80AA90BEE240B12319B6870AB
:104FA30003A3E0697022120DEDEAFCEBFD7402121B
:104FB3000B2EAA82AB83124FD6600D8518828519FA
:104FC30083AA82AB83120C31A908740D023190EECF
:104FD300FAEFFB121BF7E922E0124FE022F8A3E0FD
:104FE300F98518828519832274F612038674F312E5
:104FF300094F8A088B09ECFEEDFF7C0D7D007900DB
:10500300851882851983AA82AB8312596DA3A3A342
:10501300A3A3A3A3A3A312507512507EF8A2E55035
:1050230008740B120B2E7401F0E8A2E75008740AFF
:10503300120B2E7401F0E8A2E6EE50042413800252
:1050430024151256057402120B2E125067A3A3E007
:10505300C0E0740C120B2ED0E01252D5120C2B743C
:105063000D024D5DAA82AB83121BFD850882850963
:105073008322E0124FE0E8F0A3E922F0123F20126E
:1050830057CCA3E02274F712038674E112094FEAA6
:10509300FEEBFF8E828F8312510AA3A3A3E0A2E04B
:1050A30050518E828F83122C0C8A828B83A3A3A3ED
:1050B300A3A3A3E054FE1251228A828B8312511BB5
:1050C300E0F98A828B83E0241CFAA3E0123B3C12B2
:1050D3005106120DE7E9701B741D120B2E125115A8
:1050E3007011851882851983AC82AD83EEFAEFFBCC
:1050F300120E2F0253478E828F83A3A3A3A3A3A3CE
:10510300A3A3A31231892212510E221257D0A3A3B3
:10511300A322123F58640422E0241B12440A2212E1
:1051230042B8AC82AD8322E9F87900740468600A5E
:10513300740A68600574036870010902086D74F6E7
:105143001203868A828B837420F0A3A37401F01266
:105153000BDD8A088B09AE08AF09EE4F60108E8213
:105163008F837401F09003A3E07003124EDAEEFA1A
:10517300EFFB024D60C082C0839003B97401F0E974
:10518300A2E350037403F0E9A2E15004E0D2E2F099
:105193000242D974F612038679007C008A088B09CF
:1051A30078081205E7F8FF07C951C751C751C7511E
:1051B300C751C051C451C951BD510C80097C0480F1
:1051C300050C80F67C089003B9E05C60030980035A
:1051D300EC600109024D6074F61203868A828B83A8
:1051E300E07012A3124D57600C8A828B8312510513
:1051F300121D4180047A007B00024D6074F5120396
:105203008674F312094F8A088B09ECFEEDFF750AC9
:1052130012EA4509700579000252CE900356E06503
:10522300087004A3E065097014120DEDEAFCEBFDB0
:10523300124FD27005750A018003750A0085188222
:10524300851983E4F004120B2EE508F0A3E5091297
:1052530052D5120BA1E960277403120B2EAA82AB5D
:1052630083120B83E964017016750A017403120B30
:105273002EAC82AD83124FD26021750A00801C745C
:1052830012650A70169003A2E06402700EEEFCEF42
:10529300FDAA08AB09120BB9E970DFEEFCEFFDAA1A
:1052A30008AB09120EB9E9F8740A687005750A01AA
:1052B300801774A0687012EEFCEFFDAA08AB091208
:1052C3000EC5AA08AB09120ED7A90A740D025CD544
:1052D30074021252D9221252DD221242B8AA82ABB0
:1052E300832274F7120386EAFEEBFF8E828F83A379
:1052F300A3A3A3A3A3A3A3E06015EE24151230CEAA
:10530300123179120E59E964017004790180258EF6
:10531300828F83A3A3A3A3A3A3A3E06015EE241307
:105323001230CE125339FAA3E0FB120E59E964018D
:1053330060D979008013123C28A3A3A3A3A3A3A33A
:10534300A3A3E022741F1208BB7F010205A174F01E
:1053530012038674FD12094F8A088B09ECFEEDFFD8
:10536300890B7413120B2EE0F50C750A01740112EC
:105373000B2E74041258006048E50C601DEA2417D4
:10538300F582EB125A431257EE8A828B83E0D2E7FF
:10539300F0EA2414F582EB1241DD1254D4EB124DE2
:1053A300C17403125D66EE88828983A3A3F0EF883C
:1053B300828983A3A3123CD2123CD9120BD7E9F5FD
:1053C3000AA90A74030254C174EC12038674F51219
:1053D300094F8A0A8B0B890C8C0E8D0F741F120BCD
:1053E3002EE0F50D7420120B2EE0F510A3E0F5115D
:1053F3007E01EE120B2E740AF0E97007E50DC3333C
:10540300240AF01255A670030254A81255BB74095E
:10541300F0A3E50CC43354E0450D1255CDE50C70F3
:105423002D7C008023ECC333F8E433F9E51028F82E
:10543300E51139F9888289831254B58882898312E8
:1054430033EBF0A30EAF830CECC3950D40D7E50807
:105453002417F582E509124E9B120DEDE508241A77
:10546300F582E509124D2B7403120B2EAC82AD832A
:10547300AA0AAB0B120B89E96019E5082416F58219
:10548300E5091254AF120B2EA882A983E50824184C
:10549300124D9B850882850983125D62AA08AB09B8
:1054A300120BD7E9FEEEF9740B02559E124E9F7450
:1054B3000322E08E828F83F0A3AE82AF8322120891
:1054C300BB7F080205A1123F80F9EA2400E439FBFF
:1054D30022EA240BF5822274EE1203868A0C8B0DCA
:1054E300890E8C088D097412120B2EE0F50F7413BC
:1054F300120B2E12558790053D124D576077E50F1D
:10550300C333F8E433F9E8240EFAE93400FB121349
:10551300C98A108B11AE10AF11EE4F60588E828F77
:105523008374D4F0A3A3E50CF0A3E50D12558FE526
:105533000EF0AC08AD09EE2405FAEF125809EE247B
:105543000D1230CEE50FF0850A08850B09750A00A8
:1055530078081208A4E50FC333FCE433FDEE240EF0
:10556300FAEF12557E1208BBEEFAEFFB90053D12DF
:1055730057C8121DE8024608FAE5093400FB121366
:105583009F740322E0F50AA3E0F50B221255932240
:10559300125597221241F1A3A3A3221208BB7F0C39
:1055A3000205A1851882851983AA82AB83120E4155
:1055B3008A088B09EA450922EA240BF582EB124D8E
:1055C300BBFEA3E0FF8E828F8322F0A3AE82AF8364
:1055D300AC0EAD0FEEFAEFFB1255DF22121BFD12DC
:1055E30055E622EE2408FEEF3400FF22E0FA8E8215
:1055F3008F83A3A3E022FEA3E03400FF8E828F8378
:10560300E022123F2312560C22E0FCA3E0FD2212FB
:105613003189120DD52274F6120386EAFEEBFF9050
:1056230003BA801388828983E06E7003A3E06F60FE
:105633003A88828983A3A3124D5770E87A047B00CA
:105643001214658A088B09A808A909E849601C880F
:105653008289831256759003BA1251068882898310
:10566300A3A3124D2F9003BA124DA2024D608A825A
:105673008B83EEF0A3EFF02274F41203867E009086
:1056830003BA80070E88828983A3A3124D5770F44F
:10569300EEC333FAE433FB125723607E7F0090039B
:1056A300BA802488828983125608EFC333FAE4331D
:1056B300FBE5082AF582E5093BF583ECF0A3EDF061
:1056C3000F88828983A3A3124D5770D79003AB121F
:1056D3002AE67003A3E069780870191208A8EEF5AA
:1056E3000A780A1208AC7C777D0379009003AB1229
:1056F300572E801A1208A8EEF50A780A1208AC7C15
:10570300777D0379009003AB125106120E6B74037D
:105713001208BBAA08AB0912146B120BEF023193E8
:105723001214658A088B09EA450922123189120E7F
:105733007122C082C08380128A828B83A3A3123F0B
:10574300319003BA124DA212146B9003BA123E4168
:1057530070E60242D974F6120386900363123F5D2A
:105763009003CE1257B7124DA27ACE7B0379501213
:105773001C159003CE122D05FAEFFB120ED19003E8
:10578300CE123F5D90053F124D5760257A067B0090
:105793001213C9EA4B601A8A828B8374D5F0A3A3D0
:1057A300E41257DD041257EE90053F1257C8121D3D
:1057B300E8024D601257BB22E0F8A3E0F9900363BF
:1057C300228E828F831257CC221257D022E0F812F6
:1057D30057D622A3E0F5838882221257E12212577B
:1057E300E522F08A828B83A3A3A3221257E1A3EEBF
:1057F300F0A3EFF022F582EF124DBBF922124ED344
:10580300EA4B22FAE5093400FB121BFD22124DDAA2
:10581300A3A3A3A3A3A3A3229026ABE4932401F8F9
:10582300E43400F97A027B002274F71203867E00C7
:105833008004125E190E12593D40F77E00EE125895
:105843005874FEF0A30412586DE4F00EEEC39403F3
:1058530040EB02534C75F003A4F8A9F074BC28F88C
:10586300740339F988828983A32212587122F0883C
:105873008289832274F71203867F0080010F9026AA
:10588300B3E493F8EFC3985026EF125A296A7003D2
:10589300A3E06B70E8125DC66C7003A3E06D600A51
:1058A30074FF6C700374FF6D70D312593480047AE3
:1058B300007B0002534C74F61203867CFF7DFF7A53
:1058C300FE7BFF120E95EA4B70407508008036E5AB
:1058D3000875F017A4F8A9F0744A28F582740A121F
:1058E3005A3B600C744928F582740A125A3B7013B0
:1058F300743B28FE740A39FF8E828F83125A48EE56
:10590300FAEFFB05081259A340C5024D6074F41267
:1059130003868A088B09ECFEEDFF800B120EA7EEBF
:10592300FCEFFDAA08AB09120E95EA4B70EE0231AB
:1059330093743B28FA740A39FB229026B3E493F854
:10594300EEC3982274F7120386EAFEEBFFEE4F6074
:105953001012596774FEF0A304125D6C14F0A304D3
:10596300F002534C7C177D0079001213AB8E828FAB
:10597300832274F7120386EAFEEBFF750800801892
:10598300E50875F017A4F8A9F0125DD17003A3E040
:105993006F6003125E2105081259A340E302534CC2
:1059A3009026B3E493F8E508C3982274F6120386AD
:1059B300120E958A088B09A808A909E849600AE824
:1059C300240DFAE93400FB80047A007B00024D6069
:1059D30074F41203868A0A8B0BECFEEDFF75080044
:1059E300750900802EE50975F017A4F8A9F0125E79
:1059F3000C601EE509125A29650A7004A3E0650BC1
:105A0300700375080AEEFCEFFD125CC860034308DF
:105A1300A005099026B3E493F8E509C3985004E57B
:105A23000860C2022CFD75F017A4F8A9F0125A34CD
:105A330022743B28F582740A39F583E022F582EF5C
:105A4300123F26E422123189120CCD22125871A37F
:105A5300A3A3A3A3A3A3A32274F21203868A088B8E
:105A630009ECFEEDFF740E120B2E125587750C0018
:105A73007C007D0180101213C3E50CF5F0EA84ACC1
:105A8300F0750C007D00780079008003125C05122C
:105A93005C614003025B27E8FAE9FBEA75F017A4AF
:105AA300FA85F00D75F017EBA4250D125C3D70031C
:105AB300A3E0F460D7125C1B65087004A3E06509DA
:105AC30060CA125C1B6E7003A3E06F60BF125C1BA5
:105AD300650A7004A3E0650B60B2E8FAE9FBEA75B6
:105AE300F017A4FA75F017EBA4250DFB74492AF5FA
:105AF30082740A125BFC509474016D050C608DE591
:105B03000CC39C4087E875F017A4F8AAF075F0174A
:105B1300E9A42AF9743B28F582740A39F5831251F2
:105B230006025BF9780079008003125C05125C6E53
