:020000040000FA
:06000000020B230201CBFC
:03002B0002095E69
:030043000207F5BC
:030053000200FCAC
:03006B000201EEA1
:100083000201600101FF050301E410E410E410E440
:1000930010A00F9A0FE4107D1E00000000411F0006
:1000A3000000000C0000000C00010000B212000070
:1000B30000000000781300000000000000000000B2
:1000C300FFFF01010101010101002F050000008074
:1000D30005E80364006400B801020200080000059B
:1000E3000207051E02051E0A03B80B020102F1FFF7
:1000F300029651180002020612C0E074F212049430
:10010300A2AFE433FED2AFE5A7FFE5A1F5085F5444
:1001130010600612199C75A1EFE5085F540860088A
:100123001219A275A1F7802BEFA2E0C0D0E508A2B7
:10013300E092F0120A60158182F05017906198E006
:10014300F8900854E0C398A2D265D0335002E8F087
:1001530075A1FEEEA2E092AF7F010204F3C0E0744A
:10016300F2120494A2AFE433FED2AF9061A4E0F89C
:10017300759B00E59158540860087591F71219EAC8
:10018300802AE59158541060087591EF1219F08098
:100193001BE8A2E0C0D0E591A2E092F0120A60153C
:1001A3008182F05007E0C2E0F0121B349061A3E0BB
:1001B300F8E5E9585404600E121B0A75E9FB9061D7
:1001C30093E0A2E640F2808BC0E074F2120494A2A2
:1001D300AFE433FED2AF9061A5E0F8E5BF58540415
:1001E300600675BFFB121B4C020156C0E074F1128E
:1001F3000494C2BDE589A2E4503DA284E433900C8B
:10020300EBF0A2E04028F8900CEAE0686026900C3E
:10021300EBE0900CEAF09005087401F07C327D006D
:100223007A047B009004D8E0F91215828006900CC2
:10023300EA7401F05389EFE589A2E6505590050A67
:100243007401F01214A490050B120B86A286E433FA
:10025300900CEDF0A2E04017F8900CECE06860150C
:10026300900CEDE0900CECF0900509E00480059013
:100273000CEC7401F05389BFA286E433F5087509C9
:100283000078081208FC7A657B8212136C740212E0
:100293000944C2C5D2BD7F020204F3C3E498F8E463
:1002A30099F91202DF8026C3E49AFAE49BFBE92062
:1002B300E7E91202DFE498F8E499F922C3E498F835
:1002C300E499F91202DFE498F8E499F9C3E49AFA9D
:1002D300E49BFB22EB20E7CFE920E7E0B90010BB6A
:1002E3000008E88AF084F8AAF022E4FBC8FA22EBBB
:1002F30070227B10C833C8C933C9335007C39AC3AC
:10030300DBF280069A50012ADBEAC833F4C8C9330A
:10031300F4C9FA2275F008E4C833C8C933C933C92C
:100323009AC99B5004C92AC93BD5F0ECFBC833F4E6
:10033300C8E4C9FA22080808EAC0E0EBC0E086F086
:10034300E7A4FA180986F0E7A42AFA180986F0E761
:10035300A42AFA180986F0E7A42AFA1986F0E7A472
:10036300FBE5F02AFA190886F0E7A42BFBE5F03A3F
:10037300FA190886F0E7A42BFBE5F03AFA181809F6
:1003830086F0E7A4C5F02BFBE43AFA1908E7C5F0B9
:10039300C6A426F6E5F03BFBE43AFA1886F0E7A498
:1003A300F6E5F00826F6E43B08F6E43A08F6D0E072
:1003B300FBD0E0FA22E4CFC0E0E4CEC0E0E4CDC05D
:1003C300E0E4CCC0E075F020C3E633F608E633F68C
:1003D30008E633F608E633F6181818EC33FCED3369
:1003E300FDEE33FEEF33FFC3EC9709ED9709EE976C
:1003F30009EF97191919400FFFEC97FC09ED97FDC9
:1004030009EE97FE191906D5F0BEECF709EDF709C9
:10041300EEF709EFF7191919D0E0FCD0E0FDD0E0B1
:10042300FED0E0FF222518C582C0E0E51934FFC5E0
:1004330083C0E0E518C3958224F810AF08858319BB
:100443008582188008858319858218D2AFCEF0A3E0
:10045300E520F0A37808E608F0A3DEFAEFF0A3E5C1
:100463008124FAF8E608F0A3E608F0A3E608F0A36F
:100473000808E608F0A3E608F0A315811581D0E08B
:10048300FED0E0F8158115811581E8C0E0EEC0E0EB
:1004930022C0D02518C582C0E0E51934FFC583C04A
:1004A300E0E518C3958224F310AF0885831985828C
:1004B300188008858319858218D2AFC8F0A3E9F0A4
:1004C300A3EAF0A3EBF0A37908E709F0A3D8FAECC9
:1004D300F0A3EDF0A3EEF0A3EFF0A3D0E0F0A3D0F0
:1004E300E0F0A3D0E0F0A3E520F0A3E5F0F0A32231
:1004F300851983851882E0C0E0A3E0F9A3E0FAA39D
:10050300E0FBA37808E0F608A3DFFAE0FCA3E0FD34
:10051300A3E0FEA3E0FFA3E0C0E0A3E0C0E0A3E00C
:10052300F5D0A3E0F520A3E0A3F5F010AF08858391
:10053300198582188008858319858218D2AFD082E5
:10054300D083D0E0F8D0E032120B92B90003020559
:100553008DE490030178AB790A8002F0A3D8FCD92B
:10056300FA900CABAA82AB839000867877790180EE
:1005730015E493A3AC82AD838A828B83F0A3AA8212
:10058300AB838C828D83D8E9D9E77582DD75839C33
:1005930074031208B87582E675831D74001208B8D7
:1005A3000875F0108E1A8F1B85821F85831E851890
:1005B30082851983E0CEA3E0CF851F82851E83EB5E
:1005C300C9EAC8EDCBECCAC3E833C8E933C9EA3397
:1005D300CAEB33CBC3EA9EF51DEB9FF51CB3500466
:1005E300AB1CAA1DEC33CCED33CDD5F0DAAE1AAF8C
:1005F3001B22D083D082ECC0E0EDC0E0E493A3FCE7
:10060300E493A3FDED4C600D1206CDEC24FFFCED4D
:1006130034FFFD80EFE493A3FCE493A3FDED4C6072
:100623000D1207A0EC24FFFCED34FFFD80EFD0E0BA
:10063300FDD0E0FCE493A3C0E0E493C0E02285197D
:1006430083851882E0A3FEE0A3F5207808E0A3F6F3
:1006530008DFFAE0A3FFE0A3C0E0E0A3C0E0E0A36B
:10066300C0E0E0A3C0E0E0A3C0E010AF08858218BB
:100673008583198008858218858319D2AFD083D0EA
:10068300820208BED083D082E9C0E0E493A3C3868C
:10069300F0C5F095F0F908E493A386F0C5F095F062
:1006A300700BE493A3C3994005E9048002A3E475A6
:1006B300F002A42582F582E5F03583F583D0E0F9D5
:1006C300E493A3C0E0E493C0E022C0E0C3E49396C4
:1006D300087401939618400FE49366700808740138
:1006E30093661870007019A3A3C3E493960874016A
:1006F300939618A3A3400DD0E0D0E0D0E0020631DA
:10070300A3A3A3A3A3A3D0E022D083D082C5F0E404
:1007130093A3C5F0C395F0F5F0E493A3C395F0401C
:1007230005E5F0048001E475F002A42582F582E575
:10073300F03583F583E493A3C0E0E493C0E022742F
:1007430004800474028000CCC0E0EDC0E0E518C36F
:100753009CCCAD1950011D10AF068C188D19800665
:100763008C188D19D2AF12083AD0E0FDD0E0FC22EC
:1007730074028000CCC0E0EDC0E0E518C39CCCADB2
:100783001950011D10AF068C188D1980068C188D19
:1007930019D2AF120818D0E0FDD0E0FC22C0E0C0AF
:1007A300F088F0E49366700808740193661870008B
:1007B300A8F0A3A3700BD0F0D0E0D0E0D0E0020605
:1007C30031A3A3D0F0D0E022D083D082CCC0E0E428
:1007D30093A360061208991470FAE493A3600612B7
:1007E30009A81470FAD0E0FCE493A3C0E0E493C03A
:1007F300E022C0E074F2120494A2AFE433FED2AF5D
:10080300C2C0E5D1A2E45003121912EEA2E092AFE6
:100813007F010204F3CAC0E0E493A3C582CCC5827E
:10082300C583CDC583F0A3C582CCC582C583CDC5A1
:1008330083DAE5D0E0CA22CAC0E0E0A3C582CCC512
:1008430082C583CDC583F0A3C582CCC582C583CDC4
:10085300C583DAE6D0E0CA227009080808226016C8
:10086300181818C6C333C608C633C608C633C60825
:10087300C633C6D5E0EA22C008C3E096F50808A34C
:10088300E096420808A3E096420808A3E0964508CC
:100893007001D3D00822C0E0E493A3D39C5010E4AA
:1008A30093A3C39C400AD0E0D0E0D0E00207E8A3C2
:1008B300A3A3D0E022C09FF59FE473D09F22D083EF
:1008C300D082C09FE493C0E0740193C0E0740293AC
:1008D300F59F22C5822518C582C583351910AF0738
:1008E300F5198582188007F519858218D2AFC5835B
:1008F300227404800A74038006740280027401C0A7
:10090300E0F40412090FD0E0120B6D222518F582D2
:1009130010AF08F518400215198008F518400215A4
:1009230019D2AF85198322BB0102E722C082C0839B
:1009330089828A83BB0003E08002E493D083D08260
:1009430022C0D0251810AF08F518500205198008E9
:10095300F51850020519D2AFD0D022C0E0C0D0E8BC
:10096300C0E0E5A8D2AFC2C7A2E792AFD0E0F8D00B
:10097300D0D0E0326016080808C6C313C618C613E1
:10098300C618C613C618C613C6D5E0EA22C3E0C606
:1009930096F608A3E0C696F608A3E0C696F608A363
:1009A300E0C696F622C0E0E493A36C7009D0E0D0D1
:1009B300E0D0E00207E8A3A3D0E022251810AF0897
:1009C300F518400215198008F51840021519D2AF21
:1009D30022E066701008A3E066700A08A3E0667060
:1009E3000408A3E06622C3E09608A3E09608A3E008
:1009F3009608A3E096A2D265D03322E7667010086A
:100A030009E766700A0809E76670040809E76622C1
:100A1300C3E096F008A3E096F008A3E096F008A3DD
:100A2300E096F022E026F008A3E036F008A3E036D3
:100A3300F008A3E036F022E627F60809E637F608C1
:100A430009E637F60809E637F622E026F608A3E0BA
:100A530036F608A3E036F608A3E036F622C0E0E84F
:100A6300C0E0E58124FCF8E6A2E7D0E0F8D0E0227C
:100A7300E647F60809E647F60809E647F60809E6F1
:100A830047F622E657F60809E657F60809E657F649
:100A93000809E657F622E056F608A3E056F608A33F
:100AA300E056F608A3E056F622E056F008A3E05617
:100AB300F008A3E056F008A3E056F0227004226089
:100AC3000D18C6C333C608C633C6D5E0F41822E4EE
:100AD300C396F608E496F608E496F608E496F6223A
:100AE300600D08C6A2E713C618C613C6D5E0F322E5
:100AF300C6F4C608C6F4C608C6F4C608C6F4C622B9
:100B0300C3E7960809E7960809E7960809E79622D6
:100B1300C3E09608A3E09608A3E09608A3E0962214
:100B230075D0007581407518017519030002054BD6
:100B3300600C08C6C313C618C613C6D5E0F422E674
:100B4300F008A3E6F008A3E6F008A3E6F022E0F637
:100B530008A3E0F608A3E0F608A3E0F622C5822581
:100B630018C582C5833519C58322CAC0E0E6F0A340
:100B730008DAFAD0E0FA22E0FAA3E0FBA3E0FCA350
:100B8300E0FD22EAF0A3EBF0A3ECF0A3EDF022E505
:100B9300C754F84401F5C77901222518F582E435D5
:100BA30019F58322C2AF75D69F020000221208C135
:100BB30052B2011208C1F5B2011208C140B40112C8
:100BC30008C15EB4011208C11759001208C129599E
:100BD300001208C17B59001208C1DC59001208C178
:100BE300665A001208C10A5B001208C15E5B00125C
:100BF30008C1775B001208C19D5B001208C1D85B76
:100C0300001208C11C5C001208C1435C001208C139
:100C1300945C001208C1445D001208C1FC5D00121F
:100C230008C1C45E001208C1A15F001208C1276099
:100C3300001208C13660001208C14160001208C1E9
:100C43004A61001208C15B61001208C1D161001240
:100C530008C16362001208C1BB62001208C181634C
:100C6300001208C1B263001208C1F763001208C181
:100C73000464001208C19865001208C1FB660012E3
:100C830008C11768001208C1816A001208C18C6A82
:100C9300001208C1966A001208C1A16A001208C1B5
:100CA300AB6A001208C1B56A001208C1C06A00121B
:100CB30008C1CB6A001208C1FC6A001208C1206B8C
:100CC300001208C1446B001208C1A96B001208C1CD
:100CD300ED6B001208C1096C001208C1806C001290
:100CE30008C1B86C001208C1046D001208C1616D1F
:100CF300001208C1436F001208C1C96F001208C176
:100D03009A70001208C1AA73001208C1FF7300127F
:100D130008C12B74001208C17775001208C1C7758A
:100D2300001208C11C76001208C11D77001208C109
:100D3300B577001208C13778001208C1D7780012BE
:100D430008C16221001208C19B21001208C175234A
:100D5300001208C1B423001208C1FE23001208C107
:100D6300A324001208C10225001208C1362500126F
:100D730008C1A325001208C1C026001208C1C82754
:100D8300001208C15E28001208C1A52B001208C179
:100D93004E2C001208C12A2D001208C18B2D0012FF
:100DA30008C1A82E001208C1D230001208C189312F
:100DB300001208C19331001208C1C631001208C1E4
:100DC3008D32001208C12833001208C18D3300127E
:100DD30008C1B633001208C1D833001208C1073660
:100DE300001208C1DE36001208C12237001208C102
:100DF3008F37001208C14A38001208C17C3800122C
:100E030008C1C038001208C1F338001208C14839BC
:100E1300001208C19D39001208C1313A001208C1FD
:100E2300933A001208C1FB3A001208C1A43C001215
:100E330008C18C3D001208C1CE3E001208C1FC401F
:100E4300001208C1BC41001208C1EB43001208C1E3
:100E53008E44001208C1CC44001208C17846001227
:100E630008C18C46001208C19646001208C1C0464C
:100E7300001208C1CC46001208C1EB46001208C19B
:100E8300A247001208C1E147001208C1EB47001254
:100E930008C19F48001208C19E49001208C1974A21
:100EA300001208C1344B001208C1D64B001208C10E
:100EB300ED4B001208C1244C001208C1424C001231
:100EC30008C1864C001208C1AB4C001208C1914DF9
:100ED300001208C1FD4D001208C1774E001208C16F
:100EE300864F001208C1C550001208C127510012D5
:100EF30008C1E151001208C10452001208C1D852BE
:100F0300001208C12353001208C16553001208C11F
:100F1300BC53001208C1F353001208C1215400123C
:100F230008C15A54001208C17F54001208C1075562
:100F3300001208C12A57001208C18957001208C1BC
:100F43001D58001208C18958001208C1DD5800124B
:100F530008C181AF031208C1C0AF031208C1A3B512
:100F6300011208C1FDB5011208C159B6011208C129
:100F7300A5B6011208C1C0B6011208C1F1B601122B
:100F830008C10EB7011208C11AB7011208C18EB801
:100F9300011208C1A7B8011208C10EB9011208C194
:100FA30021B9011208C12FB9011208C1E3B9011215
:100FB30008C1C7BA011208C1CDBB011208C153BC95
:100FC300011208C15DBC011208C1CABC011208C1EB
:100FD300E1BC011208C113BD011208C14CBD0112CD
:100FE30008C176BD011208C1D7BD011208C1F7BD02
:100FF300011208C115BE011208C15BBE011208C16E
:1010030081BF011208C1CEBF011208C1FDBF011289
:1010130008C173C0011208C19BC0011208C1D4C02A
:10102300011208C1E2C0011208C13AC1011208C18C
:1010330089C1011208C1C8C1011208C1F8C1011256
:1010430008C124C2011208C12FC2011208C14DC236
:10105300011208C10FC3011208C119C3011208C14B
:1010630054C3011208C16AC3011208C173C3011238
:1010730008C1C8C3011208C1DCC3011208C1EAC414
:10108300011208C1FDC4011208C112C5011208C131
:10109300B4C5011208C137C6011208C1F5C6011251
:1010A30008C100C7011208C126C8011208C142C8FD
:1010B300011208C194C8011208C1D3C8011208C1A2
:1010C300E8C8011208C12AC9011208C177CB01126D
:1010D30008C1F5CB011208C168CC011208C18ACE40
:1010E300011208C1A2CE011208C1A5CE011208C186
:1010F300B1CE011208C1C5CE011208C1CDCE011275
:1011030008C100CF011208C1B0CF011208C126D017
:10111300011208C199D0011208C14DD1011208C1B1
:1011230002D2011208C121D2011208C1C1D2011297
:1011330008C1CDD2011208C1F8D2011208C1FBD2F5
:10114300011208C165D3011208C18DD4011208C16F
:1011530065D5011208C1F0D5011208C109D70112E2
:1011630008C1C6D7011208C1FFD7011208C130D880
:10117300011208C1D0D8011208C100D9011208C157
:10118300DBD9011208C174DA011208C1FFDA0112B6
:1011930008C1B0DB011208C132DC011208C164DCF2
:1011A300011208C1A5DC011208C1F0C5021208C171
:1011B30055C6021208C192C6021208C1E1C6021244
:1011C30008C1F7C8021208C1DACA021208C144CE24
:1011D300021208C17FCE021208C1A1CE021208C1B9
:1011E30004CF021208C138CF021208C15BCF02122A
:1011F30008C188CF021208C1E4CF021208C1DAAFD6
:10120300021208C158B0021208C18EB0021208C1FE
:10121300FAB0021208C16DB2021208C189B20212F9
:1012230008C1CEB2021208C15CB3021208C1B5B341
:10123300021208C1E2B4021208C1F4B5021208C1D5
:1012430051B6021208C1BDB6021208C11EB702127E
:1012530008C15FB7021208C10CB8021208C11EB957
:10126300021208C149B9021208C194B9021208C195
:10127300DBB9021208C16DBA021208C128BB0212FF
:1012830008C118A4031208C129A4031208C17AA42F
:10129300031208C1BFA4031208C169A5031208C140
:1012A3002CAB031208C171A2031208C1C9A3031214
:1012B30008C19FBB021208C144BC021208C164BC2E
:1012C300021208C184BC021208C198BC021208C1F0
:1012D300F0BC021208C120BD021208C1A1BE021255
:1012E30008C147BF021208C129C0021208C17AC04F
:1012F300021208C1BDC0021208C100C1021208C116
:1013030066C1021208C187C1021208C113C20212C8
:1013130008C144C2021208C1B8C2021208C166C49D
:10132300021208C140C5021208C182C5021208C1D7
:10133300DCC5021208C1E89E031208C1099F03120B
:1013430008C13FA0031208C169A0031208C18A792A
:10135300001208C1FD79001208C1087A001208C101
:10136300297A001208C18B7C001208C18C7E0012FE
:1013730008C128F1011208C12BF1011208C1E5F1DE
:10138300011208C110F2011208C157F2011208C17B
:101393007CF2011208C19DF2011208C1D1F20112BF
:1013A30008C10AF3011208C133F4011208C16AF437
:1013B300011208C18AF4011208C125F5011208C1FE
:1013C300EAF5011208C121F6011208C196F70112CC
:1013D30008C139F8011208C132F9011208C15BF9D9
:1013E300011208C1AFF9011208C175FA011208C14F
:1013F300A3FA011208C138FC011208C1B9FC011299
:1014030008C1ECFC011208C16CD9021208C105A67F
:10141300011208C126DA021208C147DA021208C112
:101423005EDA021208C10EDB021208C117DB0212D8
:1014330008C16ADB021208C193DB021208C1FADB9E
:10144300021208C18BDC021208C1CDDC021208C1F2
:1014530017DD021208C176DD021208C107DE02128F
:1014630008C146DE021208C185DE021208C1FFB0C0
:10147300011208C1CCDE021208C1DEDE021208C16D
:10148300FDDE021208C106DF021208C1BCDF021230
:1014930008C1FCDF021208C16DF8021208C140F94D
:1014A300021208C15AF9021208C16BF9021208C1EB
:1014B30080FB021208C19FFB021208C1AB9A031200
:1014C30008C1E19A031208C12A9B031208C17A9C3E
:1014D300031208C1DADC011208C119DE011208C1C6
:1014E30055DE011208C114E0011208C13DE00112EA
:1014F30008C1D0E2011208C114E3011208C19DE43E
:10150300011208C135E5011208C19DE5011208C1A8
:101513003EE6011208C180E6011208C1C0E60112CD
:1015230008C14BE8011208C1BBE9011208C1E0EB95
:10153300011208C10EEC011208C135EC011208C1F9
:101543003EEC011208C199EC011208C12CED011205
:1015530008C14AF0011208C1CBF0011208C1E2B080
:10156300031208C136AF031208C18F8A031208C1E0
:10157300A28A031208C13F8B031208C17A8B03129C
:1015830008C1958B031208C1BA8B031208C1FF8BE4
:10159300031208C1308C031208C1618C031208C105
:1015A300E78D031208C1487F001208C17E7F001235
:1015B30008C19A7F001208C1DC7F001208C1EC7FCA
:1015C300001208C15AE5021208C121E6021208C13D
:1015D30081E7021208C18CE8021208C1F1E8021285
:1015E30008C189AE031208C162A0021208C1B7A0E4
:1015F300021208C161A1021208C109A2021208C1A4
:1016030066A2021208C1BFA2021208C189A4021273
:1016130008C104A5021208C12EA5021208C1EBA637
:10162300021208C106A7021208C155A7021208C177
:101633006BA7021208C178A7021208C1A8A7021259
:1016430008C1BEA7021208C144A8021208C153A8C8
:10165300021208C1ACA8021208C106A9021208C1ED
:1016630058A9021208C162AA021208C1E4AC02120C
:1016730008C17EAD021208C1C0AD021208C155AE49
:10168300021208C172AE021208C175AE021208C17D
:1016930078AE021208C1EBAE021208C106AF021205
:1016A30008C132AF021208C16DAF021208C170AF98
:1016B300021208C183AF021208C1AAAF021208C105
:1016C3008AAD031208C196AD031208C1D0AD03124F
:1016D30008C1BE90021208C1E990021208C1AB9181
:1016E300021208C13092021208C19992021208C173
:1016F300E592021208C16493021208C1F693021222
:1017030008C18294021208C1C494021208C10D993F
:10171300021208C18D9A021208C1CC9A021208C1A2
:10172300959B021208C1499C021208C1F99D02123D
:1017330008C1859E021208C10080021208C1BA8046
:10174300021208C12C81021208C13B81021208C196
:10175300B581021208C12482021208C12E8302122B
:1017630008C15783021208C1F783021208C14584D6
:10177300021208C1B584021208C1E985021208C128
:10178300C586021208C13687021208C1B388021245
:1017930008C17589021208C1108A021208C16B8A36
:1017A300021208C1D68A021208C1DA8B021208C1DA
:1017B3009B8D021208C13A8E021208C1AC8E02122E
:1017C30008C1698F021208C105FD021208C159FD43
:1017D300021208C1B1FD021208C1FCFD021208C1C8
:1017E3005EFE021208C1F7FE021208C15FFF021279
:1017F30008C16BFF021208C15598031208C18698ED
:10180300031208C14099031208C1A699031208C123
:10181300179A031208C15C9D031208C107910312B2
:1018230008C1A991031208C11A92031208C11FAC7F
:10183300031208C130AC031208C1D0AC031208C1B3
:10184300B9A0031208C1C7A0031208C1F8B003125C
:1018530008C10DAE031208C11DAE031208C138AE94
:10186300031208C180AE031208C12AAA031208C1D9
:10187300AFAA031208C113AB031208C177B0031256
:1018830008C17AB0031208C18A83031208C1A08376
:10189300031208C1C983031208C1E483031208C1F8
:1018A300FF83031208C10984031208C113840312BE
:1018B30008C12684031208C13F84031208C1E684C9
:1018C300031208C16585031208C10080031208C111
:1018D3000E80031208C18880031208C16C810312B1
:1018E30008C12583031208C1A2B0031208C125E071
:1018F300021208C192E0021208C153E1021208C1A8
:10190300C3E1021208C1CCE2021208C144E402128C
:1019130008C1A8E4021208C1FDE4021208C106E5E9
:10192300021208C115E5021208C128E5021208C116
:101933003EE5021208C147E5021208C148EA021255
:1019430008C19DEA021208C199EC021208C1CBEC4E
:10195300021208C1EDEC021208C106ED021208C121
:101963001FED021208C129EE021208C1C4EE0212D1
:1019730008C180A5031208C1A4A5031208C1BDA50F
:10198300031208C1F0A5031208C121A6031208C15E
:101993004FA6031208C1B1A6031208C1C0A60312C1
:1019A30008C1CAA6031208C1D7A6031208C16FFD56
:1019B300011208C195FD011208C1D2FD011208C12F
:1019C300E1FD011208C100FE011208C168FE011207
:1019D30008C171FE011208C1D0FE011208C1F4FE54
:1019E300011208C1B3FF011208C1C0FF011208C1EF
:1019F300D1FF011208C10EB0031208C12BB00312AC
:101A030008C13BEF021208C199F0021208C1A6F007
:101A1300021208C1B9F0021208C1D8F0021208C1BB
:101A2300EEF0021208C102F1021208C177F10212AC
:101A330008C1DCF1021208C18CF2021208C161F381
:101A4300021208C171F3021208C180F3021208C125
:101A5300F1AC031208C115AD031208C13DAD031269
:101A630008C165AD031208C19293031208C1B9936B
:101A7300031208C1DA93031208C13F94031208C189
:101A8300F895031208C11196031208C11D9603129B
:101A930008C13196031208C14F96031208C1599623
:101AA300031208C16396031208C17696031208C194
:101AB300C996031208C10297031208C13197031292
:101AC30008C17F97031208C1CE97031208C1E99793
:101AD300031208C1F397031208C10498031208C143
:101AE3004A98031208C1E5AE031208C130D00212AE
:101AF30008C15AD0021208C176D0021208C189D097
:101B0300021208C19FD0021208C1FCD0021208C100
:101B13002FD1021208C16BD5021208C191D602124D
:101B230008C1C4D6021208C110D7021208C13CD89A
:101B3300021208C164D8021208C179D8021208C17E
:101B430089D8021208C1CDD8021208C12ED90212B7
:101B530008C13ED9021208C1E1A6031208C1FCA6BE
:101B6300031208C125A7031208C13FA7031208C126
:101B730064A7031208C183A7031208C19BA703121A
:101B830008C1C9A7031208C1E3A7031208C1CAAF5A
:101B9300031208C10F87031208C11687031208C175
:101BA3002288031208C15288031208C178880312DD
:101BB30008C19B88031208C1BD88031208C1F788B6
:101BC300031208C15D89031208C19689031208C173
:101BD300E289031208C10F8A031208C12F8A031274
:101BE30008C127A9031208C139A9031208C124AAED
:101BF300031208C127AA031208C114A8031208C1BB
:101C030086A8031208C1C4A8031208C105A90312B8
:101C130008C1F48D031208C1108E031208C15F8E30
:101C2300031208C17B8E031208C1AC8E031208C1D4
:101C3300BC8E031208C1A88F031208C1B28F03120E
:101C430008C1BF8F031208C1CF90031208C1E390EC
:101C5300031208C1EC90031208C1B9F3021208C1C0
:101C6300FEF7021208C103F8021208C14AB00312B8
:101C730008C1C4B0031208C19CFF021208C1D9A451
:101C8300011208C12DA4011208C17EA2011208C1CC
:101C930039A0011208C1C09F011208C1679F011238
:101CA30008C1FB9E011208C1D29E011208C1C59C46
:101CB300011208C1919C011208C15E9C011208C166
:101CC300429C011208C1689B011208C1209B0112AA
:101CD30008C15599011208C1D598011208C1D298BB
:101CE300011208C1D997011208C1A797011208C1AF
:101CF300E496011208C10F95011208C1A0940112C4
:101D030008C1B0AE011208C1B9AD011208C19DAD41
:101D1300011208C149AD011208C101AD011208C188
:101D23007294011208C16F94011208C15C940112EC
:101D330008C1F493011208C13FAC011208C1E39337
:101D4300011208C1C492011208C18E92011208C186
:101D53005192011208C1F291011208C1B2AB0112F2
:101D630008C1A5AB011208C1BADE021208C1C191B4
:101D7300011208C17C8E011208C16D8D011208C1C8
:101D8300FC8C011208C1C18C011208C18C8C011298
:101D930008C1808C011208C1E08B011208C1278B96
:101DA300011208C1FA88011208C18686011208C10E
:101DB3004486011208C10F85011208C1C4840112AF
:101DC30008C1F683011208C14D83011208C1E982DB
:101DD300011208C12383011208C1B3A8011208C16B
:101DE300B8D90200000080FBE4730001363601011C
:101DF30000010201000103010001040106060502BE
:101E03000000070100340801000F090401010D015E
:101E130000FF0E08000017020000190100FF1A015D
:101E230000011B0100FE1C0100081D0200001F0130
:101E3300000120010001210200002301000F240200
:101E430000002601000127010008280200FF2A01E3
:101E530000072B0102402C0100002D0100012E017F
:101E630000012F0100FF30010B1C310800003A0173
:101E730000083B01000F2F01000003007100300137
:101E83006000110070003102200350048000100034
:101E930061000000140063007300720062004300DD
:101EA3000000130006000000000004001200000000
:101EB30000000000000004000400370037003C026B
:101EC3004400000000000000000065000000350031
:101ED300810000000500000083000000030271027E
:101EE300300160021102700201020202020280024A
:101EF300100261023A00410063027302720262023D
:101F0300430200021302380000020002040212021C
:101F1300000200020002000204020402370037003C
:101F23003C02440200023900000200026502000282
:101F330035028102000205028202830200020103CC
:101F430071030103010301030103010322030203DC
:101F53000103100300030003000300030003000355
:101F630000034203000324030603000300030403E6
:101F7300120325032303250323030403040300039C
:101F8300000300034403000300032303000365036A
:101F9300210035038103000305030003000300034D
:101FA300010171010101010111010101310101016E
:101FB30001018001100161013B0014006301730101
:101FC3007201620143010001130106013D01350065
:101FD30004011201000100010001000104010401D8
:101FE300330133013C014401320136000001000199
:101FF30065010001350081010001050182018301B2
:10200300000136000100060000000F000000000080
:10201300000000000000000003FFFF00000403FFB6
:10202300FF0000FFFF0FF4010005C40403200001BB
:1020330000030B000000000000000003010F01007B
:1020430074170200EA160300F0160400F6160500E2
:10205300FC16060008171100201714002617150098
:102063001A17FFFF000003EAF5E5D5D5C5B5A59519
:10207300958585757565655555454535352525150D
:102083001505FA0F2A10001006102410181012104C
:10209300301036103C1048100C10F40FEE0F0AC627
:1020A3000D02900D05A20D07960D0C720D0D840DFA
:1020B300FF000000160F00000B150B020002220F99
:1020C30032000006E410F610FC10C40F0211BE0F1C
:1020D300CA0F4411621168114A11561150110C0EA6
:1020E300020B040B0A0708000F30301618192023BF
:1020F3001A1C1E30000119161816161523030000AA
:10210300034948424D181725050200383C3E363B2B
:102113003B352B432C303017181921301B1D1F3032
:10212300381108110E111A1114111E1042105C11EE
:102133004E105410020402010101010902000000C3
:1021430000000000BE040A0E00E803040015002886
:1021530000040C05030908FF1E1E0A040F100C746B
:10216300F7120428E99003B0F0900365E4F0121B22
:10217300E29003B5E4F0A3F09003B1F0A3F0120EE4
:10218300FE121BE8900334E4F0A3F090215F93FA6E
:102193007902121C48024DF874F2120428EAFEEB8D
:1021A300FF548060699003B0E0F912143E8A088BF3
:1021B30009EA4509604F7C0080010CEC75F003A42B
:1021C300F8A9F074A128F582742039F583E493F417
:1021D300602CE493F88508828B83E06870DCAA089E
:1021E300EC75F003A4F874A228F582742039F58302
:1021F300E493C0E0740193F583D082121DEBAA0827
:10220300AB09121432EEFAEF6480FB022368EF5439
:1022130020601D120E208A088B09EA4509600A1204
:102223000D84AA08AB09121432EEFAEF642080DAA7
:10223300EEA2E0501A90036AE0640F700B7900126B
:102243000D4EE9600312236BEE6401FAEF80BB5479
:10225300207003022336750C0012383D8B09EA45C2
:102263000970107C027D007A207B009003B0E0F9B6
:102273001215887C0079047A007B00120DFC8A0811
:102283008B098018850882850983A3A3A3A3A3A32D
:10229300A3A3A37401F0850A08850B09E508450982
:1022A300606D7C007904AA08AB09120DFC8A0A8BC5
:1022B3000B750C01E5082404F8E5091235E124FF48
:1022C300F0A3E034FF1258D470CC850882850983CB
:1022D300A3A3A3A3A3A3A3A3A3A3E0640170A585BE
:1022E3000882850983A3A3A3A3A3A3E05404709442
:1022F300850882850983A3A3A3A3A3A3A3A3A3748C
:1023030006F07AB78508828509831224978087129D
:102313000DCC7C0079017A007B00120DFC8B09EA5D
:1023230045097009E50C70057A20124797EE642081
:1023330002224EEF5402600B120EF8EEFAEF640223
:1023430002220DEF5404601912492E12484E7901EE
:10235300900363124BB2120C94EEFAEF6404022260
:102363000D7A007B0002259E900CF9122C35120D7C
:102373006622C082C08374EA1209BE851882851959
:1023830083AA82AB83794B121C1E7408120B9D74B3
:1023930002F07409120B9DAA82AB837950121C1EA2
:1023A3007413120B9DE4124D81121C3C7416023DF2
:1023B3005B74F712042874E11209BEEAFEEBFFEE28
:1023C3004F6033851882851983AC82AD83120E4426
:1023D3007406120B9DE0601E7417120B9DE0FD74D2
:1023E30001120B9DE0FCEEFAEFFB7900120BBCE946
:1023F300600479A480027900024DF374F612042874
:10240300EAFEEBFF8E828F83A3A3A3A3A3A3E054CF
:1024130040601B12527012256560067AFF7BFF80B5
:102423001A8E828F831239E7FAA3E0FB8003120E20
:102433006874FE6A700374FF6B6041125270124736
:10244300DB120EBCE98E828F836006122490E48037
:10245300051224907401F07C547D0D8E828F8312BB
:102463004BB2121C42E9F5087015EE4F6009790171
:10247300EEFAEFFB120DD8A90802480C7508CDAA95
:10248300088E828F83122497E960DF80EAE0240DAF
:10249300123EB622E0240C123EB6E0F9120D602281
:1024A30074F6120428E9FEEAFF7A0F7B0012142C5B
:1024B300EA4B60198A828B83740CF0EEA3A3F0EFCE
:1024C3008A828B83A3F01248377900802FEEF912AA
:1024D3000E028A088B09A808A909E849601C8882AA
:1024E3008983A3A3A3A3A3A3A3A3A374061254FB47
:1024F300E0F9120D18EEF9120DDE791002480CC046
:1025030082C08390036AE0640F7014EA4B601090FA
:102513000365E064086005E0640470031225250286
:102523003D85EAFCEBFD7A017B009003B0E0F912F4
:10253300158222C082C0837900EA241DF582EB1242
:1025430039E424FD600B14600824FD600424FD704D
:102553000109023D858E828F83A3A3A3A3A3A3A313
:10256300A3A312256922123A2CFB120EBCE9228E78
:10257300828F83A3A3A3A3A3A3A3A3A31225696405
:1025830002228E828F83A3A3A3A3A3A3A3A3A31235
:102593003D7C900356E068221209447F06020641FF
:1025A30074F412042874FD1209BE8A088B098A8206
:1025B3008B83A3A3E0F9120E028A0A8B0BAE0AAF38
:1025C3000BEE4F70030226AA850882850983A3E0D8
:1025D30064F16030850882850983A3E064CD6024BB
:1025E300850882850983A3E0641A601885088285BB
:1025F3000983A3E064E9600C850882850983A3E06D
:1026030064E170087900120DD8E9706C8508828541
:102613000983A3E0C0E07402120B9DD0E0123D6079
:10262300EEF0A3EF12308B851882851983AA82AB53
:10263300837005120C7C8003120EA47402120B9D8E
:10264300E064E970338E828F831226B6750A0178AF
:102653000A120900750AE9780A120900E508240C30
:10266300F582E509122B7D123068FCA3E0FD8A8216
:102673008B831230821209448E828F83A3A3A3A378
:10268300A3A3A3A3A3E0640270108E828F83A3A3EA
:10269300A3A3A3A3A3A3A37406F085088285098338
:1026A300A3A3E0F9120DDE120DCC900CFD12236EE4
:1026B300022C3AE0F8A3E0F9E8FAE9FB2274F412F9
:1026C3000428EAFEEBFF7508008E828F83A3A3A381
:1026D300A3A3E060427508088E828F83A3A3A3A3FC
:1026E300A3A3A3A3123C8F8B0BEA450B60107508C1
:1026F3002C8E828F83A3A3A3A3A3E0D2E0F08E82C8
:102703008F83A3A3A3A3A3E054036401600302275D
:10271300A94308110227A9EE2418122C476033EEAF
:10272300241A122C47700F1225857003A3E06970D9
:10273300757508228070EE241BF582EF1227AE24F4
:102743001AF582EF123093EE24191252A4120D06D9
:10275300805412257270037508011225857003A336
:10276300E0697006E508D2E1F508E50860158E8298
:102773008F83A3A3E07006E508D2E58004E508D2C1
:10278300E6F50812255864017006E508D2E0F5085D
:102793008E828F83A3A3E0600D1227BC64016006C1
:1027A300E508C2E0F508A908022C3F1239D2122726
:1027B300B522E0FCA3E0FDEE221239CC123A04F973
:1027C300120EAAE922C082C08379018A828B83A375
:1027D300A3E0C394024001198A828B83A3A3A3A31A
:1027E300E0C39402400279008A828B83A3A3A3A34C
:1027F300A3A3A3A3A3E064F87003A3E0F460458A52
:10280300828B83A3A3A3A3A3A3A3A3A3E064F970CD
:1028130003A3E0F4602E8A828B83A3A3A3A3A3A3C1
:10282300A3A3A3E064FA7003A3E0F460178A828B86
:1028330083A3A3A3A3A3A3A3A3A3E064FB7003A302
:10284300E0F4700279008A828B83A3A3A3E0F8905B
:102853000353E06860027900023D8574F012042896
:1028630074DE1209BEEAFEEBFF8E828F83A3A3A35D
:10287300A3E0600E900CFB1248036006900CFB1261
:10288300236E7403120B9DAC82AD838E828F83A360
:10289300A3A31248851250BEE9600F7403120B9D67
:1028A300AA82AB83120D7EE970087901121BF40230
:1028B3002B72EE241B1239D77410120B9D12484E43
:1028C3007409120B9DE06021741A120B9DE0FD74D4
:1028D30004120B9DE0FC8E828F83124BB0790112A0
:1028E3000BBCE96004790280C37403120B9DAA82B6
:1028F300AB83120D78E9F50A7409120B9DE0702A77
:1029030090034DE060247422550A6422601C7442D3
:10291300550A644270CF7420120B9D122B90600AEB
:102923007420120B9D122B8970BBE9A2E6504174EF
:1029330003120B9DAA82AB83120D6CE9700302286C
:10294300AD7420120B9D1239E76403700F742012CB
:102953000B9DA31247F5A3E0640D60147403120BDF
:102963009DAA82AB83120ECEE964017003022B721F
:10297300EE242C122B7A122E9E7003A3E069701C96
:1029830075080078081209007808120900EE242E51
:102993001252A4122B961230821209447409120B9C
:1029A3009DE07003022A4F122B96124BB2120F2294
:1029B3008A088B09EA45097003022AEC7404120B96
:1029C3009DE0F88E828F83A3A3E028F8A3E0340070
:1029D300F9E8240D122B818A828B83A3A3A3E068D9
:1029E300601CE88A828B83A3A3A3F09082BA120BA4
:1029F3007A850882850983A3A3A3A3120B8679048E
:102A0300E9120B9D12509B2AF8A3E034008882F54B
:102A130083A3AA82AB831214208A0C8B0D8C0E8D98
:102A23000F850882850983A3A3A3A3780C12087AD0
:102A33004003022B729082CA780C120A4D850882D9
:102A4300850983A3A3A3A3780C120B42900365E02B
:102A530064046008E064096003022B72E50AA2E5DE
:102A63004003022B2AEE242E122C47851882851947
:102A730083F0EE242F122C47C0E07401120B9DD07B
:102A8300E0F0EE2430122C47C0E07402120B9DD00C
:102A9300E0F07414120B9DE064017027740E120BA6
:102AA3009D1239DDEE2412122C47687003A3E069EE
:102AB3007011740C120B9D12257F70077414120B86
:102AC3009DE4F0EE2424122B7A1207427404120BB5
:102AD3009DAC82AD837407120B9DAA82AB83120C4B
:102AE300827404120944022B729003AAE064016009
:102AF30003022A4F7420120B9D122B907009E50AD2
:102B0300A2E65003022A4F7410120B9DE0F47003E7
:102B1300A3E0F4605AEEFCEFFD7403120B9DAA824E
:102B2300AB83120D8A8048A2E650447420120B9D99
:102B3300124BC1701A741A120B9DE0640270307448
:102B430003120B9DAA82AB837900120E9880207426
:102B530020120B9D122B897016741A120B9DE064C0
:102B630004700C7403120B9DAA82AB83120E927431
:102B730022024F6DEE240BF582EF1239D222F58239
:102B8300E9124867F822125282E0640722123A04DB
:102B9300640622EE242A1239CF1227B524121239E1
:102BA300CF2274F4120428EAFEEBFF8C088D0990FF
:102BB30005DDE0600F1225857003A3E0697005123F
:102BC3000CF4804F7900124BA5120D248A828B835B
:102BD300E58245836035A3A3A3A3A3A3E0541860B0
:102BE3002AE508241BF582E509122B7D12074612FC
:102BF300327B122B7D120746EE24181252A4122C9C
:102C030018120D36740412094480087900122C1826
:102C1300120CFA80278E828F83A3A3A3A3A3A3A35B
:102C2300A3A31227B5240BF582EF122C3122340013
:102C3300F583123A2CFB2274031209447F04020623
:102C430041EE2417F582EF1248672274F712042825
:102C530074F71209BEEAFEEBFF900365E0640360BC
:102C63000DE064016008E064096003022D188E82A0
:102C73008F83A3E0707E7C007D007A027B00121BB1
:102C8300EEEE2402FAEF1235E81239DD9003561204
:102C9300484E7953121C247900122D1DE0640960FB
:102CA300031230B085188285198374011248249069
:102CB30003657404F07401120B9DAA82AB83794AF5
:102CC300121C1E7401120B9DAC82AD837A5B7B03D5
:102CD300121C0C9003561250B47A031230BA9003AC
:102CE30050E0A2E35004D2F08002C2F01248111265
:102CF300236B801E8E828F83A3AE82AF83FC7D0005
:102D03007A037B10121BEE8E828F83E0F9122D1D46
:102D1300E4F0120DB47409024DF5900363122C35DF
:102D2300120C9490036522C082C08390033412482E
:102D330003701F900365E014600924FC600A1460AB
:102D43000C800F90033C8032900338802D90033A1F
:102D53008028E8496008900335123062700C8A823B
:102D63008B83A3E0F9120C88801B90033512331771
:102D73007005120EEC800E9003D212480360061207
:102D830047F5121DEB023D8574F412042874FB12FF
:102D930009BE8A088B097A0F7B0012142C8A0A8BCE
:102DA3000BAE0AAF0BEE4F7003022E928E828F830F
:102DB300124D7F7950121C1E850882850983A3E07A
:102DC3006003022E7A900363E0F47003A3E0F460DF
:102DD30034900363E064FE7003A3E0F46027851876
:102DE30082851983122E9E7003A3E06960178508FC
:102DF30082850983A374EA1230987A637B0379503E
:102E0300121C24807285188285198312526312481A
:102E13004E7A567B037953121C1E90035612487F39
:102E230012484E7A597B03794B121C1E7A587B0346
:102E330079E1121C1E90036AE0C3940F50219003A2
:102E430058E0C0E07402120B9DD0E0F07404120B42
:102E53009D7401F004120B9DAA82AB83121C36757C
:102E63000A00780A120900780A120900900D1FE07F
:102E7300F9123079120944850882850983122E9745
:102E8300A3F09003657403F0EEFAEFFB1248377476
:102E930005022C3CA3E08E828F8322125267E068E6
:102EA30022123EBD2274F512042874D81209BE8A78
:102EB300088B098A828B83A3A3A3123A0974151280
:102EC3000B9DAC82AD838A828B83A3A3A3A3A3A30D
:102ED300A3A3123068FAA3E0FB120DBA7415120B08
:102EE3009DE0706B850882850983A3A3A3A3A3A395
:102EF300A3A3E0C3940B40578E828F83A3A3A3A302
:102F0300A3A3A3A3E064027046EE240B122C47F4A0
:102F1300703D900365E06402603AE06406603590BA
:102F230003341248036005123062604F900365E07A
:102F330064086005E0640470167417120B9DE0F9D1
:102F4300741C120B9DAC82AD83124BA5120DC07481
:102F530028025781900334124803701F75080078C4
:102F6300081209007808120900EE2410122B7A12B5
:102F730052BC1236D01230821209448E828F8312D1
:102F83004B211235FA1239DD7402120B9D12484E91
:102F9300EE240D122C47C0E07404120B9DD0E012F6
:102FA300308BF508A3E0F509740F7808120B33741E
:102FB30005120B9DE508F07419120B9DE0C0E07437
:102FC30006120B9DD0E0F0741B120B9DE0C0E07461
:102FD30007120B9DD0E0F07416120B9DE0C0E07455
:102FE30009120B9DD0E0F07417120B9DE0C0E07442
:102FF30008120B9DD0E0F0EE2410122C47C0E074B1
:103003000A120B9DD0E0F0741A120B9DE0C0E0741D
:103013000B120B9DD0E0F07427120B9DE0C0E074FF
:103023000C120B9DD0E0F0741C120B9DA982AA8395
:1030330089088A09750A0078081208F87C087D0057
:103043007410120B9DAA82AB831243B212094485FA
:103053001882851983AA82AB83120C8E022F521217
:10306300331D640122E0F98A828B83A3A3A3A3A364
:10307300A3A3A3A3E0229003631250B890035912B1
:103083002C35120E7A740222F0EE240B12486422BD
:10309300124867FA22F07A567B0379531230A3223F
:1030A300121C247A597B03794B121C24229003634C
:1030B300122C35120F1C227B00121BEE90035912A7
:1030C30050B87A047B00121BEE22F01252C722740E
:1030D300F212042874F81209BEEAFEEBFF8C0A8D83
:1030E3000B890C851882851983AC82AD8375838225
:1030F30075826E740812083AF50DEEFCEFFD851823
:1031030082851983AA82AB83124A827003750D01EB
:103113009003B1803BEEFCEFFDE508240BFAE509D3
:103123003400124A81601E850882850983A3A3E0C7
:10313300650C7011850882850983E0650A7004A314
:10314300E0650B6038E5082414F582E509122B7D50
:103153001235F2E50845096024E50DA2E040B68585
:103163000882850983E0650A7004A3E0650B70D5C6
:10317300850882850983A3A3E0650C70C8AA08AB00
:1031830009740802259BC082C0839003B1023D826B
:1031930074F71204289003B1123A2C8012EA241413
:1031A300F582EB122B7D123A091214CEEEFAEFFBE5
:1031B300EA4B70E99003B1E4F0A3F0024DF87F0706
:1031C30002064174F1120428EAFEEBFF890A8C0817
:1031D3008D098E828F83E08C828D83123C99AE821F
:1031E300AF83E01244721243E3C412447212328476
:1031F300E054038C828D831243E1A2E2E4338C8298
:103203008D831243E0131313541F1244721243DFCE
:10321300A2E7E4338C828D83A3A3A3A31232848E0B
:103223000C8F0D750E00780C1208F87C087D00E5F4
:103233000824071250271209441250928E0C8F0D46
:10324300780C1208F87C037D00E508240F12502740
:10325300120944E50AC3940F40148E828F83A3A3FB
:10326300A3E0C0E012327B122B7DD0E08006123245
:103273007B1254EFF00231C1E5082412F582E5090F
:1032830022A3A3123C9D0EAF832274F4120428746C
:10329300F91209BEEAFEEBFF8908900334124803D2
:1032A300600E1233177009EEFAEFFB120EE6805F21
:1032B300900363E06E7003A3E06F705374016508BD
:1032C30060097A777B03124A8270447A007B021288
:1032D30038418B0BEA450B7036900366120B7A85E7
:1032E3001882851983120B8690036CE0C0E0740486
:1032F300120B9DD0E0F07405120B9D7401F074065F
:10330300120B9D124D7F120C58E9609B120C5E74D8
:1033130007022C3C12331D640222125283A3A3A37F
:10332300A3A3A3E02274F51204288A088B098A82D6
:103333008B83A3AE82AF83E0F9120CAC8E828F83B2
:10334300E064EB600C850882850983A3E064E17087
:1033530009850882850983A3E4F012236B750A01AA
:10336300780A120900850882850983A3E0F50878A5
:10337300081209007900123079120944120DCC02A7
:103383005784EAF0A3EBF0023D8574F6120428900B
:1033930003B4E0701B7C0079017A007B00120DFC02
:1033A300EA4B600C8A828B831248036003120D5A26
:1033B30002480CC082C083123829401079FF120DD5
:1033C300F6E9F8902161E493C398500479018002EF
:1033D3007900023D8574F01204288A088B09890B51
:1033E300750C008A828B83A3A3A3A3A3A3A3A3E047
:1033F300F9120E028A0E8B0FAE0EAF0F750A01EE95
:103403004F60030234B6850882850983A3A3A3A36F
:10341300A3A31250B4850882850983A3A3A3A3A3FE
:10342300A3A31241B2124BB2120DEA8A0C8B0DAE5A
:103433000CAF0DEE4F70030235D98E828F83A3A399
:10344300A3A3E4F0A3F0E508240B1235E5E0C0E004
:10345300122B77D0E0F0120EC2EE240CF582EF129D
:1034630047D7E508240EF582E5091239DAEE240E72
:10347300F582EF12484B750C01EE2406F8EF123576
:10348300E1547FF0A3E054FC125319E054046003A9
:1034930002353C900D011241A374077808120ABF4C
:1034A3008E828F83A3A3A3A3A3A3E04508F0A3E085
:1034B3004509F08E828F83A3A3A3A31235F074076B
:1034C3007808120B33E5085407F508E50B607A8E8C
:1034D300828F83A3A3A3A3A3A3A3A3A374021243CF
:1034E300E4240D123EB2E0A2E2500B9003511248C5
:1034F3007FA3A312484EE50870030235AEEE2406FF
:10350300F8EF3400F9E8FAE9FB8A828B83E0547F11
:10351300FCA3E054FCFDE50824FFF508E434FFF5C3
:103523000974077808120ABFEC4508F8ED4509F954
:103533008A828B8312484E80728E828F83A3A3A3C9
:10354300A3A3A3E044800234B5E5087005750A001F
:1035530080598E828F83A3A3A3A3A3A3E0542060E7
:1035630012121426EA547F245F8E828F83A3A3A3AF
:10357300A380238E828F83A3A3A3A3A3A3E05410CA
:10358300600A121426EA540F240A80DD8E828F8388
:10359300A3A3A3A37401F0A3E41235FA74041238AD
:1035A300388B09EA450970031247CAE50CA2E050BB
:1035B300288E828F83A3A3A3A3124DE5F9EEFAEF1E
:1035C300FB120DF0E960121247F960031239C2EEE3
:1035D300FAEFFB1214CE750A00A90A024F701249C2
:1035E3004222FAE5093400FB8A828B8322A3A3E0FB
:1035F300F508A3E0F509221235FE22125043A3A3D6
:10360300A3A3A32274F412042874F71209BE7E0044
:10361300120E02EA4B70030236C98A828B83A3A37C
:10362300A3A3A3A3A3A3A3E0640660030236C98AEA
:10363300828B83A3A3A3A3A3A3A3E0FF8A828B8389
:10364300123EC5E0C0E07408120B9DD0E01239FDB4
:10365300124A8812484E120E14EF540860668518F9
:10366300828519831250B47A007B00120DE48B0B10
:10367300EA450B704F900363123AED121C4E7C0027
:103683007D007A007B0080288E828F831239E7F4D5
:103693007003A3E0F4602D9003631236D0124BB293
:1036A300121942E9641A601C7C007D00EEFAEFFBFC
:1036B300120DE48A0A8B0BAE0AAF0BEE4F70C97979
:1036C30000121C547E01EEF97409022C3C1236D40C
:1036D30022E0FCA3E0FD8E828F8322C082C083EAB6
:1036E3004B70059003B580068A828B83A3A312389F
:1036F300ED60258A828B83A3A3A3A3A3A3A3E05492
:103703000860E5EC4D60158A828B831239E76C7093
:1037130003A3E06D70D280047A007B00023D8574C0
:10372300F2120428EAFEEBFF890A8C088D097A104D
:103733007B001214C8EA4B603F8A828B83A3A3A346
:10374300A3A3A3A3A3A3E41239EBA3E50A1252890B
:10375300A31237858A828B83A3A3A3A3E4F0A312C6
:1037630039F7A3F012511DEA240CF582EB123C89C0
:1037730012377EA3A3F0A3F002259EA3F08A828BC7
:103783008322A3A3E508F0A3E509F02274F412044D
:1037930028EAFEEBFF89088C0A8D0BEE4F60557407
:1037A30001650870147901120DF6E9F8902159E4C6
:1037B30093C398500F7911806A74046508702F12AF
:1037C300382940F18E828F83A3A3A3A3A3A3A3A32A
:1037D300A3E508123C99A312580E8E828F83A3A3EC
:1037E300E4F0A3F09003B51248036021800D740246
:1037F300650860D079C1802BE0F8A3124878A3A3B1
:103803001238ED88828983A3A370ED80039003B5FA
:10381300EEF0A3EF1238388B0BEA450B7003124717
:10382300CA7900022C3F7904120DF6E9F89021566B
:10383300E493C39822F012383D227A207B00900350
:10384300B0E0F912159422C082C083E9F8790090A0
:1038530003B5801D8A828B83A3A3A3A3A3A3A3A3DE
:10386300A3E068600574FF687001098A828B83A3F3
:10387300A31238ED70DE023D8574F7120428EA4B7B
:1038830070059003B580068A828B83A3A31238ED5B
:1038930060248A828B83A3A3A3A3A3A3A3A3A3E0EC
:1038A3006970E4EC60148A828B83E0240D1250A5C6
:1038B300A2E240D380047A007B00024DF8C082C0AC
:1038C300839003B580068A828B83A3A31238ED60AD
:1038D300128A828B83A3A3A3A3A3A3A3A3E06970E8
:1038E300E580047A007B00023D85122C35EA4B22E9
:1038F30074F21204288A0A8B0B8C0C8D0D75080048
:10390300750900EA450B602E9003B580068E828F01
:1039130083A3A3123940601EAC0CAD0DEEFAEFFB8E
:10392300850A82850B83121DEBE9640170DFEEF8D3
:10393300EFF988088909AA08AB0902259EE0FEA3CE
:10394300E0FFEE4F2274F71204289003B51239DD1D
:103953007C007D00800DE8FCE9FD88828983A3A3B8
:103963001239DDE8496030EA687002EB6970E7906C
:1039730003B5124BB2E86A7002E96B88828983A3AC
:10398300A370081239DD9003B580091239DD8C82EA
:103993008D83A3A312484E024DF874F7120428EA4C
:1039A300FEEBFFEE4F6015120E0E123A0F1247F99F
:1039B30060031239C2EEFAEFFB1214CE024DF8EE99
:1039C300240C1239CF123A2422EE241DF582EF344F
:1039D30000F58322F582EF1239D2123D7C22F58263
:1039E300EF1239D2123A04221239EF22125291A362
:1039F300A3A3A3221239EFA3A32212377F123A04FF
:103A03002212527CE022E0FEA3E0FF228E828F830B
:103A1300E0241C123EB6123A248E828F83123A247B
:103A230022123A2CFB1214CE22E0FAA3E022C08227
:103A3300C083EAFCEBFDEC4D700479058044EC2473
:103A4300FBF582ED34FF1248017007123A88E0F467
:103A5300600512143280E39003B0E0C0E0123A88AC
:103A6300D0E0F090215DE493F97AB77B0312145C04
:103A7300E96401700B7A007B201247CE7900800243
:103A83007904023D85EC24FFF582ED34FFF58322B2
:103A930074F4120428A2AFE433F508C2AF9003B75D
:103AA3001239406038EE24FBF582EF34FF124801EF
:103AB3007A007B209003B060051247D18005E0F9BE
:103AC300121468E4F50AF50B780A1208FCEEFCEF11
:103AD300FD7AB77B031214567402120944E508A257
:103AE300E092AFEEFAEFFB022C3F1250B88518823A
:103AF300851983AA82AB832274F212042874FC1200
:103B030009BEEAFEEBFF750AFE750BFF120DD2E943
:103B130060057911023C7EEE2415122C4760379024
:103B23000D15E0C43354E0F8E0333354FC48C0E0EF
:103B3300EE2415122B7AD0E0123C99123C8F8B099C
:103B4300EA45096011750AFFEE240F122C4744045D
:103B530012485CD2E0F08E828F831225636006EEFA
:103B63002412123C86EE2413122C47701090215C11
:103B7300E493C0E0EE2413122B7AD0E0F08E828F10
:103B830083E0A2E750045403801CEE2414122C4754
:103B93007015900342E0C0E0EE2414122B7AD0E0BB
:103BA300F0900342E004F0EE2411122C47640170FC
:103BB300169005D4E0600D90034DE0700A8E828F5D
:103BC30083E07003123C838E828F83E06401701361
:103BD300EE240B1239E164027009EE240F122C4714
:103BE3004440F0851882851983AC82AD83EEFAEFE9
:103BF300FB120E388A088B0974FE650A700374FF82
:103C0300F470098E828F83A3A3125033EA450960AF
:103C1300668E828F83E0C0E07401120B9DD0E0F0CA
:103C23007402120B9D1251217401120B9D85820C9B
:103C330085830D780C1208FCEE240F122B7A1207E1
:103C430046EE240E122C47F50C780C120900900353
:103C5300561207467407120B9DE0F9AC0AAD0B121E
:103C63000E327407120944E9FE74106E700BAA0831
:103C7300AB091214CE80027E10EEF9740402259B68
:103C8300EE2411F582EF1239D2E4F022A3122C357F
:103C930079FF121D1A22123C9D22F08E828F83A37C
:103CA30022C082C08374DE1209BE8A828B83A3A3DF
:103CB300A3A31239DD740E120B9DE8F0A3E9123DA4
:103CC30073740C120B9D123D6C240DF582EB122CB8
:103CD3004AC0E0741A120B9DD0E0F0124F80EB1231
:103CE30039DA7420120B9D123D6C2415F582EB1208
:103CF3002C4AC0E07408120B9DD0E0F0EA241CF5B6
:103D030082EB1239DA7412120B9D123D6C2411F5F9
:103D130082EB122C4AC0E07409120B9DD0E0123DD5
:103D23006074FFF07401120B9D74FFF07402120BA8
:103D33009D74FFF09082BA1207427404120B9DAC7B
:103D430082AD837407120B9DAA82AB83120C82741B
:103D530004120944790074221209448025123D6437
:103D630022F085188285198322E8F0A3E9F0EA227C
:103D730012377FA3123D7B22A3E0F8A3E0F92212BE
:103D83004BB2D083D0820208BE74EC12042874EEC6
:103D93001209BE8A128B13ECFEEDFF8909742612F9
:103DA3000B9D1250337428120B9DE0F510742912E9
:103DB3000B9D123EA7742B120B9DE0F50EA3E0F5AD
:103DC3000F7508107A1E7B001214C87402120B9D23
:103DD3001247DB7402120B9D1248037003023EA0CC
:103DE300851882851983AA82AB8379501246B6124D
:103DF3004BB27402120B9D123EC5A31247DB741023
:103E0300120B9D1258107402120B9DE0240B123EEC
:103E1300B27402F0120B9D123EC57402F0120B9D98
:103E23001252741251217402120B9D124BC7E509F1
:103E3300F07402120B9DE0240C123EB2E510F074F4
:103E430002120B9D123EAFE512F0A3E513F07408C6
:103E5300120B9DE50CF0A3E50DF0740A120B9DE522
:103E630010F0850E82850F83C082C083740D120B00
:103E73009DAC82AD83D083D082740312083AF97467
:103E830002120B9DAA82AB83120DD8E9640170055F
:103E930075080080087402120B9D1239C8A90874B2
:103EA3001202504AE0F50CA3E0F50D22E0241C12A7
:103EB3003EB622F8A3E0123EBD223400F98882897F
:103EC3008322124BBAA3A3A3A3A32274EE12042842
:103ED300EAFEEBFF8C088D098E828F83A374081290
:103EE3004897E060088E828F83A37410F0122C44ED
:103EF30060098E828F83A3E02408F0EE2415122C30
:103F03004760088E828F83A3E004F08E828F83A3A1
:103F1300A3A3A3A3A3E060198E828F83A3A3A3A368
:103F2300A3A3A3E0C3332402F88E828F83A3E028E4
:103F3300F0EE2411122C476005750B0E8003750BF0
:103F4300008E828F83A3C082C083EE240D122C4780
:103F5300D083D082F8E028250B8C828D83F0EE2469
:103F630011122C4760051243C228F0850882850987
:103F730083E0C3947540097508007509000240B0D9
:103F8300E0FA7B001251CF70030240B0EEFAEFFB70
:103F9300120E3EEA8508828509831247DCEE24026D
:103FA300F8EF122EA41241AA1240ECF0EE240408FA
:103FB30008EF122EA41245ECA31240ECA3A3F0EEDB
:103FC30024131240D2F0EE24141240D2A3F0750A47
:103FD30008EE2416122C476010EE24181250B1E597
:103FE3000824081252B2750A10122C446016EE24EB
:103FF3001A1250B1850A0CE508250C1252B2740846
:10400300250AF50A8E828F83A3A3A3A3A3A3E0604B
:1040130059EE2407F510EF3400F511851082F5836E
:10402300E0C0E01240B9122B7DD0E01240DCE0C0CA
:10403300E01240B9122B7DD0E01240DCA31240C540
:104043001208F8851082851183E0C333FCE433FD45
:10405300850A0CE508250C125027120944851082A5
:10406300851183E0C333250AF50AEE2415122C4784
:10407300600BC0E01240B9122B7DD0E0F0122B7719
:104083001240C51208F8EE240D122C47FC7D008562
:104093000B0A8E828F83A3E0F8E50828F8E509343C
:1040A30000F9E8250AFAE912502A120944AA08ABD2
:1040B300097F0A020641850A0CE508250CF582E50D
:1040C3000922E0F50CA3E0F50D750E00780C221221
:1040D30039CF1240F6A3A3A322F0050A8E828F8361
:1040E300A3A3A3A3A3A3A3A322A3A312531DA31216
:1040F30040F6221245F0A3A32274F61204288A8202
:104103008B83E0FC9003531241A374027808120AD4
:10411300BFEC4508FCAD09EA241212419D740678F0
:1041230008120ABFEC4508FCED4509FDEA2415F524
:1041330082EB122C4A6004780180027800E4C8F90B
:10414300ED49FDEA2411F582EB122C4AF5088809A2
:1041530074097808120ABFED4509FDEA24161241D5
:104163009D740B7808120ABFED4509FDEA24171266
:10417300419D740C7808120ABFED4509FD8A828BB4
:1041830083A3A3A3A3A3A31241A3740A7808120AC7
:10419300BFECFAED4509FB02480CF582EB1239D26C
:1041A300E0F50875090022E085088285098322A3CA
:1041B300E0F98508828509832274EE1204288A0AAD
:1041C3008B0BECFEEDFF750F01E9C39408500579E5
:1041D300000243AF8E828F83E9F0124615E9600334
:1041E300750F001245F98E828F83124643EE124FEC
:1041F30081EF124638C0E0EE2411122B7AD0E01280
:104203004630C0E0EE2412122B7AD0E0123C9974AF
:104213000812503BA3A3A3E060151245E1EE24135B
:10422300F582EF12484B8E828F83A3E02408F08E31
:10423300828F83A3A3A3A3A3A3A3A3E060218E825E
:104243008F83A3858208858309124624EE2415F5FE
:1042530082EF12484B850882850983E02408F08E9B
:10426300828F83A3A3A3A3A3E0601A8E828F83A369
:104273008582088583091246088E828F83A3A3A3B0
:10428300A3A31243D4EE2419123C86EE241B123C42
:1042930086A312488FE07003024343EE2419F8EF1C
:1042A3003400F98E828F83A3858208858309E0FA1F
:1042B300E50A2AF582E50B122C4A88828983124388
:1042C300D4FAE50A2AF582E50B122C4AC0E0EE2463
:1042D3001A122B7AD0E01243D488828983E0605982
:1042E300F8902155E493C398500575110C8008EE9E
:1042F3002419122C47F5118E828F83A3E0F8E50A67
:1043030028F50CE50B1243B81208F8E511C333FC8A
:10431300E433FD7AAF7B0B1243B2120944EE241B44
:10432300122B7A74AFF0A3740BF0E511C333F88545
:104333000882850983E0288006EE24181254ECF0E5
:104343008E828F83A3E0F88E828F83E0C39850031D
:104353000241D2A3E0FA8A08E50A2508F8E50B34FE
:1043630000F9EE241DF582EF1249571243E4C39A74
:10437300C0E0EE2417122B7AD0E0124854602BEEE3
:104383002417F8EF3400F9880889098882F583E057
:1043930024F2124938240EFAA3E03400FB88828900
:1043A300831247DB1243C2C398F0A90F0240B41231
:1043B30014087403223400F50D750E00780C229056
:1043C300034EE0F9120BC2E9F8850882850983E000
:1043D30022F0850882850983E004F022A3A3A3A326
:1043E300A3F08E828F83E02274F41204288A088B50
:1043F30009EA124479F0EA1313543F124472A3A357
:10440300A3F0EAC41313124479A3A3F0EB12446B91
:104413001244837409780A120B33124469124482DA
:10442300740A780A120B33E50A5401C0E0EC24182D
:10443300F582ED122B7DD0E0124488740B780A12BA
:104443000B33124469A3124482740C780A120B339F
:10445300124469A3A3A3A3A3A3A3A3F0740D780891
:10446300120B330227A9E50A54018C828D8322544F
:104473000F8C828D832254038C828D83A3A322A36A
:10448300A3A3A3A3A3F08A0A8B0B22C082C08379C0
:10449300008A828B83A3A3A3A3A3A3E090034D600D
:1044A3000FE070228A828B83A3A3E0701909801620
:1044B300E060138A828B83124BA9900356E06A70E3
:1044C30003A3E06B70E7023D8574F01204288A0AA7
:1044D3008B0B890C8C088D091246151245F985083A
:1044E30082850983124643E508124F81E509124686
:1044F30038C0E0E5082411F582E509122B7DD0E0F0
:10450300124630C0E012327B122B7DD0E012495F9D
:10451300740812497860111245E1E5082413124921
:104523005312495FE02408F0850882850983A3A319
:10453300A3A3A3A3A3A3E06017850882850983A38C
:10454300124620E50824151249531243E42408F0C7
:10455300850882850983A3A3A3A3A3E06019850823
:1045630082850983A3AE82AF8312460885088285BC
:1045730009831243DF04F0AA08AB09120E50E9F5D0
:104583000D7056850882850983A3A3A3A3A3A31251
:1045930045EC7014E0FA8A0EE50A250EF8E50B12D5
:1045A3004840E50CC39A8021124620E8240EF8E91E
:1045B30012484090034EE0F9120BC28E828F83E0C3
:1045C300F8E50CC39824F2C399C0E0E5082417F575
:1045D30082E509122B7DD0E0F0A90D024F70E50AA8
:1045E3002408F8E50B3400F9221245F022E085088F
:1045F30082850983A322850A82850B83A3A312469E
:1046030059E0F9EA22E0F8E50A28F582E50B1248B9
:1046130067228A828B83124F75120E4A22AE82AFB3
:1046230083E0F8E50A28F8E50B3400F92212466C1A
:10463300A3A3A3E0221239D2E8124665A3A3E02282
:10464300A3A3A3A3A3A3A3A3A3124665124659A39B
:10465300A3E0F9EAF822E0FA850A82850B83A3A393
:10466300A322F0A3E912466C22F0850A82850B830C
:10467300A3A3A3A322C082C0837AC57B0379E212DA
:104683001C1E7AC57B03023D85C082C083900356FE
:10469300023D82C082C08374FE1209BE85188285E2
:1046A3001983AA82AB83794B1246B6124BB27402BA
:1046B300023D5B121C1E85188285198322C082C0AD
:1046C30083794A121C1E023D8574F6120428900356
:1046D300CDE0FE04F0EEF9120E028B09EA450970F3
:1046E300EDEE60EAF902480C74F0120428EAFEEBDE
:1046F300FF8C088D09890A7410120B9DE0F50B7469
:1047030011120B9DE0F50C120F22EA4B7013E50C0E
:104713007042A90AAC08AD09EEFAEFFB120F3A801A
:104723006EE50A6021EA2402F582EB122C4A850A1F
:10473300082508F8E4340013E813F070098A828B23
:1047430083A3A37401F0E50C6045E50B70068A8230
:104753008B83E4F07401650C7035E50B9003D47022
:1047630004E4F0802AE004F0900D02E0F89003D412
:10477300E0C398401AE4F0900359E06E7003A3E09D
:104783006F700CEEFAEFFB7901120CA6124795023B
:104793004F707A017B009003B0E0F912158E22C0AE
:1047A30082C08374016A7001EB70077A011247CCEF
:1047B3008012900CF91247DBEA4B60051225258025
:1047C30003124795023D857A207B009003B0E0F900
:1047D300121462223400F583EAF0A3EBF022C082C4
:1047E300C083900CFB023385C082C083900CFD0212
:1047F300338512528322EE240CF582EF3400F583C5
:10480300123D7CE849221209447F02020641A2F0CC
:10481300E43385188285198312482D7952121C249A
:104823002212482D7942121C2422F0AA82AB832241
:10483300AA08AB099003B0E0F9121438223400F946
:10484300E508241DF582E5091239D2E8F0A3E9F061
:104853002212503FA3A3E022A3F0EE2415124864D2
:1048630022F582EF3400F583E022124871223400EE
:10487300F583E0F8A3E0F98882898322E0F81248FF
:104883008522A3E0F98E828F83A3A322F0EE24185E
:104893001239CF22F0EE24161239CF2274F4120407
:1048A30028EAFEEBFF7A007B0412479912492E1285
:1048B300484E9003657409F0120E5C8A088B09ACAC
:1048C30008AD09EE2413122B7A124BB2124A8264FA
:1048D3000170487A0F12492160418A828B837402E6
:1048E300124938FAA3E0FB8A828B83A3E0FC8A8215
:1048F3008B83A3A3E0FBEC850882850983A3A31222
:1049030047DC88828983124BB61241AA12485BFAAC
:10491300A3E0FB794A121C24124833022C3F7B008C
:1049230012142C8A088B09EA450922900336123D9A
:104933007C900CFD22F0EE241DF8EF124942221266
:104943003EBDE02212494B223400F5837401F0226C
:10495300F582E5091239D2E8F0A3E922124963226C
:1049630012496722F0850882850983A322124967C9
:10497300A3A3A3A322124970A3A3E022124D891279
:104983000EB022EE2417F582EF12494B120E5CEEA5
:10499300241A1239CFEAF0A3EBF02274F41204289C
:1049A30074F31209BE8908EAFEEBFF7C0D7D0079E2
:1049B30000851882851983AA82AB83121414EE240E
:1049C3001D122B7A125274A3E0F8741F58600A79EF
:1049D30001121BF47900024A79E8A2E55008740C2D
:1049E300120B9D7401F0E8A2E75008740B120B9DA3
:1049F3007401F0E8A2E6740A5008120B9D7401F0EA
:104A03008008120B9DE064017005EE24138003EE11
:104A130024151250B17402120B9DAA82AB83121C8F
:104A23000C122B77124A8712484E740A120B9DE020
:104A330064017033122558703B120E688A0A8B0B7F
:104A4300A80AA90BEE240B122C47687003A3E06994
:104A53007022120E5CEAFCEBFD7402120B9DAA821B
:104A6300AB83124A82600D851882851983AA82ABB3
:104A730083120CA0A908740D022C3CEEFAEFFB1272
:104A83001C06E922E0124A8C22F8A3E0F985188279
:104A93008519832274F612042874F31209BE8A0856
:104AA3008B09ECFEEDFF7C0D7D0079008518828576
:104AB3001983AA82AB83125419A3A3A3A3A3A3A309
:104AC300A3A3124B21124B2AF8A2E55008740B1230
:104AD3000B9D7401F0E8A2E75008740A120B9D7451
:104AE30001F0E8A2E6EE50042413800224151250CC
:104AF300B17402120B9D124B13A3A3E0C0E0740C1C
:104B0300120B9DD0E0124D81120C9A740D024809CC
:104B1300AA82AB83121C0C85088285098322E012CA
:104B23004A8CE8F0A3E922F01239CC125278A3E0C0
:104B33002274F712042874E11209BEEAFEEBFF8E19
:104B4300828F83124BB6A3A3A3E0A2E050518E82BF
:104B53008F831226B88A828B83A3A3A3A3A3A3E084
:104B630054FE124BCE8A828B83124BC7E0F98A82A2
:104B73008B83E0241CFAA3E01235E8124BB2120E29
:104B830056E9701B741D120B9D124BC170118518D1
:104B930082851983AC82AD83EEFAEFFB120E9E027F
:104BA3004DF38E828F83A3A3A3A3A3A3A3A3A312D3
:104BB3002C3522124BBA2212527CA3A3A322123AFF
:104BC30004640422E0241B123EB622123D64AC822C
:104BD300AD8322E9F87900740468600A740A686096
:104BE300057403687001090208BE74F61204288A6A
:104BF300828B837420F0A3A37401F0120C4C8A08F7
:104C03008B09AE08AF09EE4F60108E828F8374015B
:104C1300F09003A3E07003124986EEFAEFFB02481B
:104C23000CC082C0839003B97401F0E9A2E350037E
:104C33007403F0E9A2E15004E0D2E2F0023D85748E
:104C4300F612042879007C008A088B09780812067A
:104C530087F8FF07754C734C734C734C734C6C4C57
:104C6300704C754C694C0C80097C0480050C80F6F3
:104C73007C089003B9E05C6003098003EC600109E0
:104C830002480C74F61204288A828B83E07012A304
:104C9300124803600C8A828B83124BB1121D44802D
:104CA300047A007B0002480C74F512042874F31292
:104CB30009BE8A088B09ECFEEDFF750A12EA450965
:104CC30070057900024D7A900356E065087004A3DD
:104CD300E065097014120E5CEAFCEBFD124A7E706B
:104CE30005750A018003750A00851882851983E416
:104CF300F004120B9DE508F0A3E509124D81120C97
:104D030010E960277403120B9DAA82AB83120BF286
:104D1300E964017016750A017403120B9DAC82AD30
:104D230083124A7E6021750A00801C7412650A7022
:104D3300169003A2E06402700EEEFCEFFDAA08AB2E
:104D430009120C28E970DFEEFCEFFDAA08AB09128B
:104D53000F28E9F8740A687005750A01801774A0B2
:104D6300687012EEFCEFFDAA08AB09120F34AA0813
:104D7300AB09120F46A90A740D0257817402124D32
:104D83008522124D8922123D64AA82AB832274F7D5
:104D9300120428EAFEEBFF8E828F83A3A3A3A3A3AF
:104DA300A3A3A3E06015EE2415122B7A122C25126F
:104DB3000EC8E964017004790180258E828F83A374
:104DC300A3A3A3A3A3A3E06015EE2413122B7A12CB
:104DD3004DE5FAA3E0FB120EC8E9640160D979003E
:104DE30080131236D4A3A3A3A3A3A3A3A3A3E02254
:104DF300741F1209447F0102064174F012042874DF
:104E0300FD1209BE8A088B09ECFEEDFF890B7413B2
:104E1300120B9DE0F50C750A017401120B9D7404CD
:104E23001252AC6048E50C601DEA2417F582EB12C0
:104E330054EF12529A8A828B83E0D2E7F0EA241469
:104E4300F582EB123C89124F80EB12486D7403120A
:104E53005812EE88828983A3A3F0EF88828983A303
:104E6300A312377E123785120C46E9F50AA90A7494
:104E730003024F6D74EC12042874F51209BE8A0AFA
:104E83008B0B890C8C0E8D0F741F120B9DE0F50D8F
:104E93007420120B9DE0F510A3E0F5117E01EE12D4
:104EA3000B9D740AF0E97007E50DC333240AF01271
:104EB30050527003024F541250677409F0A3E50C6B
:104EC300C43354E0450D125079E50C702D7C0080FD
:104ED30023ECC333F8E433F9E51028F8E51139F985
:104EE30088828983124F6188828983122E97F0A367
:104EF3000EAF830CECC3950D40D7E5082417F5825C
:104F0300E509124947120E5CE508241AF582E50902
:104F13001247D77403120B9DAC82AD83AA0AAB0B65
:104F2300120BF8E96019E5082416F582E509124F1A
:104F33005B120B9DA882A983E508241812484785B4
:104F4300088285098312580EAA08AB09120C46E998
:104F5300FEEEF9740B02504A12494B740322E08EA1
:104F6300828F83F0A3AE82AF83221209447F0802AB
:104F73000641123A2CF9EA2400E439FB22EA240B15
:104F8300F5822274EE1204288A0C8B0D890E8C088C
:104F93008D097412120B9DE0F50F7413120B9D1201
:104FA30050339005431248036077E50FC333F8E4A9
:104FB30033F9E8240EFAE93400FB12142C8A108B1F
:104FC30011AE10AF11EE4F60588E828F8374D4F000
:104FD300A3A3E50CF0A3E50D12503BE50EF0AC08DE
:104FE300AD09EE2405FAEF1252B5EE240D122B7A19
:104FF300E50FF0850A08850B09750A007808120881
:10500300F8E50FC333FCE433FDEE240EFAEF125040
:105013002A120944EEFAEFFB900543125274121D53
:10502300EB0240B4FAE5093400FB121408740322BE
:10503300E0F50AA3E0F50B2212503F22125043225F
:10504300123C9DA3A3A3221209447F0C02064185AF
:105053001882851983AA82AB83120EB08A088B0942
:10506300EA450922EA240BF582EB124867FEA3E026
:10507300FF8E828F8322F0A3AE82AF83AC0EAD0F7F
:10508300EEFAEFFB12508B22121C0C12509222EEFE
:105093002408FEEF3400FF22E0FA8E828F83A3A35D
:1050A300E022FEA3E03400FF8E828F83E0221239D8
:1050B300CF1250B822E0FCA3E0FD22122C35120ED1
:1050C300442274F6120428EAFEEBFF9003BA80131D
:1050D30088828983E06E7003A3E06F603A888289D7
:1050E30083A3A312480370E87A047B001214C88ACE
:1050F300088B09A808A909E849601C8882898312DA
:1051030051219003BA124BB288828983A3A3124719
:10511300DB9003BA12484E02480C8A828B83EEF06E
:10512300A3EFF02274F41204287E009003BA8007E0
:105133000E88828983A3A312480370F4EEC333FA63
:10514300E433FB1251CF607E7F009003BA80248842
:105153008289831250B4EFC333FAE433FBE5082AA0
:10516300F582E5093BF583ECF0A3EDF00F88828926
:1051730083A3A312480370D79003AB122592700345
:10518300A3E069780870191208FCEEF50A780A1290
:1051930009007C777D0379009003AB1251DA801A02
:1051A3001208FCEEF50A780A1209007C777D037970
:1051B300009003AB124BB2120EDA7403120944AA25
:1051C30008AB091214CE120C5E022C3F1214C88ACB
:1051D300088B09EA450922122C35120EE022C082FF
:1051E300C08380128A828B83A3A31239DD9003BA12
:1051F30012484E1214CE9003BA1238ED70E6023DF7
:105203008574F6120428900363123A099003CE12B0
:10521300526312484E7ACE7B037950121C249003BA
:10522300CE1227B1FAEFFB120F409003CE123A09C8
:1052330090054512480360257A067B0012142CEA78
:105243004B601A8A828B8374D5F0A3A3E41252892C
:105253000412529A900545125274121DEB02480C27
:1052630012526722E0F8A3E0F9900363228E828F43
:10527300831252782212527C22E0F812528222A325
:10528300E0F58388822212528D2212529122F08AF3
:10529300828B83A3A3A32212528DA3EEF0A3EFF07C
:1052A30022F582EF124867F92212497FEA4B22FA6C
:1052B300E5093400FB121C0C22124886A3A3A3A306
:1052C300A3A3A322902157E4932401F8E43400F923
:1052D3007A027B002274F71204287E00800412589D
:1052E300C50E1253E940F77E00EE12530474FEF02C
:1052F300A304125319E4F00EEEC3940340EB024DE2
:10530300F875F003A4F8A9F074BC28F8740339F90C
:1053130088828983A32212531D22F08882898322E3
:1053230074F71204287F0080010F902154E493F84E
:10533300EFC3985026EF1254D56A7003A3E06B7045
:10534300E81258726C7003A3E06D600A74FF6C700E
:105353000374FF6D70D31253E080047A007B000264
:105363004DF874F61204287CFF7DFF7AFE7BFF1252
:105373000F04EA4B70407508008036E50875F01796
:10538300A4F8A9F0744A28F582740A1254E7600C51
:10539300744928F582740A1254E77013743B28FE8B
:1053A300740A39FF8E828F831254F4EEFAEFFB05F1
:1053B3000812544F40C502480C74F41204288A089A
:1053C3008B09ECFEEDFF800B120F16EEFCEFFDAA2E
:1053D30008AB09120F04EA4B70EE022C3F743B2812
:1053E300FA740A39FB22902154E493F8EEC398220D
:1053F30074F7120428EAFEEBFFEE4F601012541309
:1054030074FEF0A30412581814F0A304F0024DF82C
:105413007C177D0079001214148E828F832274F717
:10542300120428EAFEEBFF7508008018E50875F002
:1054330017A4F8A9F012587D7003A3E06F6003125C
:1054430058CD050812544F40E3024DF8902154E41F
:1054530093F8E508C3982274F6120428120F048AFD
:10546300088B09A808A909E849600AE8240DFAE9A4
:105473003400FB80047A007B0002480C74F41204AD
:10548300288A0A8B0BECFEEDFF7508007509008076
:105493002EE50975F017A4F8A9F01258B8601EE5B7
:1054A300091254D5650A7004A3E0650B70037508EF
:1054B3000AEEFCEFFD12577460034308A005099040
:1054C3002154E493F8E509C3985004E50860C20247
:1054D30027A975F017A4F8A9F01254E022743B2809
:1054E300F582740A39F583E022F582EF1239D2E4AA
:1054F30022122C35120D3C2212531DA3A3A3A3A3E6
:10550300A3A3A32274F21204288A088B09ECFEEDEC
:10551300FF740E120B9D125033750C007C007D013D
:105523008010121426E50CF5F0EA84ACF0750C003B
:105533007D007800790080031256B112570D4003A5
:105543000255D3E8FAE9FBEA75F017A4FA85F00DE2
:1055530075F017EBA4250D1256E97003A3E0F46070
:10556300D71256C765087004A3E0650960CA1256CE
:10557300C76E7003A3E06F60BF1256C7650A70045D
:10558300A3E0650B60B2E8FAE9FBEA75F017A4FA49
:1055930075F017EBA4250DFB74492AF582740A12E2
:1055A30056A8509474016D050C608DE50CC39C40A6
:1055B30087E875F017A4F8AAF075F017E9A42AF99B
:1055C300743B28F582740A39F583124BB20256A54F
:1055D3007800790080031256B112571A400302561D
:1055E3008CE8FAE9FBEA75F012A4FA85F00D12567D
:1055F300F964FE7003A3E0F460DC1256EF650870F3
:1056030004A3E0650960CF1256EF6E7003A3E06F49
:1056130060C41256EF650A7004A3E0650B60B7E837
:10562300FAE9FBEA75F012A4FA75F012EBA4250D62
:10563300FB74CA2AF58274081256A85099E8FAE94D
:10564300FBEA75F012A4FA75F012EBA4250D1256BD
:10565300BA64016081E0640270030255D974016D7C
:10566300050C70030255D9E50CC39C50030255D9B0
:10567300E875F012A4F8AAF075F012E9A42AF974F7
:10568300C128F58274080255CAE50C6011EC700E4E
:105693007401650C60030255257C010255307AFEC6
:1056A3007BFF02259E3BF583E014C3940622E82486
:1056B3000108E93400F922FB74C52AF58274083B1A
:1056C300F583E022E8FAE9FBEA75F017A4FA75F02E
:1056D30017EBA4250D1256DC22FB743B2AF58274CA
:1056E3000A3BF583E0221256DC64FE22E8FAE9FB6A
:1056F300EA75F012A4FA75F012EBA4250DFB74C140
:105703002AF58274083BF583E022902154E493FA4E
:10571300C3E89AE9940022902150E493FA74019328
:10572300FBC3E89AE99B2274F51204288A088B09C3
:10573300ECFEEDFF750A008002050A902154E49304
:10574300F8E50AC3985028EEFCEFFDE50A75F0175B
:10575300A4F8A9F012577460E0E50A75F017A4F8ED
:10576300A9F0743B28F582740A39F58312378780D0
:1057730010743D28FA740A39FB121C06E922120937
:10578300447F0302064174F01204288A088B098CB3
:105793000A8D0B890C120F0A8A0E8B0FAE0EAF0FF8
:1057A300EE4F6055125413E508F0A3E5091258189B
:1057B300125810E50C600AEE240F122B7AE50C80C8
:1057C30006EE240F125808F09003D0124803601A13
:1057D3009003AAE064017008EE240E1254EC8010CA
:1057E300EE240E122B7A74078006EE240E1258084C
:1057F3001230CD1202D71257FF024F70EE240D1252
:1058030039CFE8F0221239CF740122A3A3E50AF0BD
:10581300A3E50BF0221235FEA32274F51204288AA5
:10582300088B09ECFEEDFF750A00800F12587D709E
:1058330003A3E06F60031258CD050A902154E4934B
:10584300F8E50AC3985025E50A75F017A4F8A9F0FE
:1058530012587265087004A3E0650970CF74452877
:10586300F582740A39F58312512180CD025784746D
:105873004528F582740A1254E722744528F5827488
:105883000A1254E76E2274F7120428EAFEEBFF753E
:1058930008008019E5081254D56E7003A3E06F70F9
:1058A3000A1258B87005E5081258C6050812544F75
:1058B30040E2024DF8743D28FA740A39FB120BF2E8
:1058C300E922EE75F017A4F8A9F01253E0120F16AF
:1058D3002212531D123D7CE84922C082C08374F812
:1058E3001209BE851882851983AC82AD83758382C4
:1058F300758296740812083A851882851983AC82DA
:10590300AD83124A826401700479008002790174C4
:1059130008023D5BC082C0838A828B83E0D2E7F0BA
:1059230012168A0263ABC082C0837900125DE31250
:105933007384C082C083900330126FA6D083D08259
:10594300C3E09CA3E09D500C127553FAA3E01259D7
:105953005A6001090263ABFBEA75F00BA4FAA8F0E5
:1059630075F00BEBA428FB900332E02AF8A3E03B8D
:105973008882F583E0540F2274F7120428890812F1
:105983005DE3125E89ACF075F00BE9A42CF990038A
:1059930032E028FEA3E039FF740165086006740253
:1059A300650870208A828B83125E75126A597402AD
:1059B3006508701B125D34125EBC70138E828F8378
:1059C300E4F0800BEA2403FCEB125E57125E63EEF5
:1059D300FAEFFB120BC80266DE74F4120428127984
:1059E3004779008E828F83E06076890A890B806510
:1059F300E50A75F00BA4FAA8F075F00BE50B125944
:105A0300677046E50A75F00BA4F8AAF075F00BE58C
:105A13000B125E9B8E828F83E08508828509831239
:105A23005F7D850882850983A3126A59EE2403FCEE
:105A3300EF125E601265821272FEAA08AB09120BA6
:105A4300C87901900330126FC1E50A2401F50AE514
:105A53000B3400F50B125D3CE50A9AE50B9B409075
:105A630002681274F5120428EAFEEBFF740B120BA2
:105A73009D126587750A01EC4D602BEC127963ED7D
:105A8300127384126A517901120BD4E50845096037
:105A93006F850882850983A31279517902AA08AB1D
:105AA30009120BD4805AE5084509602B127388123A
:105AB3006C7B126583125EA6700CEEFAEFFB120B81
:105AC300DAE9F50A80CBEE2403FA125DDE70317950
:105AD30003EEFAEFFB80CA8E828F83A3E064FE702D
:105AE30003A3E0F4700BEE24030A0A0A125DDE70CE
:105AF3000CEEFAEFFB120BDAE9F50A8003750A00E4
:105B0300A90A7F0302064174F71204289003301296
:105B130066E3EA4B602FEA75F00BA4FAA8F075F080
:105B23000BEBA428FBEAFEEBFF1214C8900332121E
:105B330066E3900332126FAD6012EEFCEFFD790065
