:020000040000FA
:06000000020AA00201C784
:03002B000208F4D4
:030033000206D9E9
:030043000207723F
:030053000200F8B0
:03006B000206BFCB
:1000830002015C0101FF0503016110611061106150
:10009300101D0F170F6110121E00000000D61E0066
:1000A3000000000C0000000C000100002F120000F3
:1000B30000000000FB120000000000000000000030
:1000C300FFFF010101002C050000007D05E803642A
:1000D300006400B801020200080000050207051EC3
:1000E30002051E0A03B80B020102F1FF0296511822
:1000F3000002020612C0E074F21203E0A2AFE4337E
:10010300FED2AFE5A7FFE5A1F5085F541060061224
:10011300193175A1EFE5085F5408600812193775A6
:10012300A1F7802BEFA2E0C0D0E508A2E092F01285
:1001330009DD158182F05017906198E0F890085618
:10014300E0C398A2D265D0335002E8F075A1FEEE69
:10015300A2E092AF7F0102043FC0E074F21203E019
:10016300A2AFE433FED2AF9061A4E0F8759B00E543
:100173009158540860087591F712197F802AE59108
:1001830058541060087591EF121985801BE8A2E09E
:10019300C0D0E591A2E092F01209DD158182F05002
:1001A30007E0C2E0F0121AC99061A3E0F8E5E9584C
:1001B3005404600E121A9F75E9FB906193E0A2E666
:1001C30040F2808BC0E074F21203E0A2AFE433FE8E
:1001D300D2AF9061A5E0F8E5BF585404600675BF3F
:1001E300FB121AE1020152C3E498F8E499F91202EE
:1001F3002B8026C3E49AFAE49BFBE920E7E9120289
:100203002BE498F8E499F922C3E498F8E499F912F5
:10021300022BE498F8E499F9C3E49AFAE49BFB22ED
:10022300EB20E7CFE920E7E0B90010BB0008E88A3C
:10023300F084F8AAF022E4FBC8FA22EB70227B10C8
:10024300C833C8C933C9335007C39AC3DBF2800626
:100253009A50012ADBEAC833F4C8C933F4C9FA2235
:1002630075F008E4C833C8C933C933C99AC99B5068
:1002730004C92AC93BD5F0ECFBC833F4C8E4C9FA76
:1002830022080808EAC0E0EBC0E086F0E7A4FA1809
:100293000986F0E7A42AFA180986F0E7A42AFA18CF
:1002A3000986F0E7A42AFA1986F0E7A4FBE5F02A09
:1002B300FA190886F0E7A42BFBE5F03AFA19088649
:1002C300F0E7A42BFBE5F03AFA18180986F0E7A447
:1002D300C5F02BFBE43AFA1908E7C5F0C6A426F6E5
:1002E300E5F03BFBE43AFA1886F0E7A4F6E5F008FC
:1002F30026F6E43B08F6E43A08F6D0E0FBD0E0FA51
:1003030022E4CFC0E0E4CEC0E0E4CDC0E0E4CCC062
:10031300E075F020C3E633F608E633F608E633F675
:1003230008E633F6181818EC33FCED33FDEE33FE14
:10033300EF33FFC3EC9709ED9709EE9709EF971990
:100343001919400FFFEC97FC09ED97FD09EE97FE95
:10035300191906D5F0BEECF709EDF709EEF709EF29
:10036300F7191919D0E0FCD0E0FDD0E0FED0E0FF92
:10037300222518C582C0E0E51934FFC583C0E0E536
:1003830018C3958224F810AF0885831985821880D5
:1003930008858319858218D2AFCEF0A3E520F0A398
:1003A3007808E608F0A3DEFAEFF0A3E58124FAF873
:1003B300E608F0A3E608F0A3E608F0A30808E608B9
:1003C300F0A3E608F0A315811581D0E0FED0E0F894
:1003D300158115811581E8C0E0EEC0E022C0D0256B
:1003E30018C582C0E0E51934FFC583C0E0E518C332
:1003F300958224F310AF08858319858218800885B8
:100403008319858218D2AFC8F0A3E9F0A3EAF0A359
:10041300EBF0A37908E709F0A3D8FAECF0A3EDF029
:10042300A3EEF0A3EFF0A3D0E0F0A3D0E0F0A3D0CD
:10043300E0F0A3E520F0A3E5F0F0A322851983857E
:100443001882E0C0E0A3E0F9A3E0FAA3E0FBA378FD
:1004530008E0F608A3DFFAE0FCA3E0FDA3E0FEA3B7
:10046300E0FFA3E0C0E0A3E0C0E0A3E0F5D0A3E099
:10047300F520A3E0A3F5F010AF0885831985821852
:100483008008858319858218D2AFD082D083D0E0CB
:10049300F8D0E032120B0FB900030204D9E4900341
:1004A3000178AD790A8002F0A3D8FCD9FA900CAD9B
:1004B300AA82AB83900086787379018015E493A3B5
:1004C300AC82AD838A828B83F0A3AA82AB838C82B6
:1004D3008D83D8E9D9E775828175839874031208EF
:1004E3005375827B75831D74001208530875F010D1
:1004F3008E1A8F1B85821F85831E8518828519831B
:10050300E0CEA3E0CF851F82851E83EBC9EAC8ED49
:10051300CBECCAC3E833C8E933C9EA33CAEB33CBFC
:10052300C3EA9EF51DEB9FF51CB35004AB1CAA1D3B
:10053300EC33CCED33CDD5F0DAAE1AAF1B22D0833A
:10054300D082ECC0E0EDC0E0E493A3FCE493A3FD10
:10055300ED4C600D120619EC24FFFCED34FFFD8019
:10056300EFE493A3FCE493A3FDED4C600D12071D90
:10057300EC24FFFCED34FFFD80EFD0E0FDD0E0FC88
:10058300E493A3C0E0E493C0E02285198385188235
:10059300E0A3FEE0A3F5207808E0A3F608DFFAE085
:1005A300A3FFE0A3C0E0E0A3C0E0E0A3C0E0E0A3BA
:1005B300C0E0E0A3C0E010AF0885821885831980EE
:1005C30008858218858319D2AFD083D08202085957
:1005D300D083D082E9C0E0E493A3C386F0C5F0954D
:1005E300F0F908E493A386F0C5F095F0700BE4935B
:1005F300A3C3994005E9048002A3E475F002A4258E
:1006030082F582E5F03583F583D0E0F9E493A3C066
:10061300E0E493C0E022C0E0C3E49396087401933E
:100623009618400FE4936670080874019366187077
:10063300007019A3A3C3E49396087401939618A3B7
:10064300A3400DD0E0D0E0D0E002057DA3A3A3A397
:10065300A3A3D0E022D083D082C5F0E493A3C5F056
:10066300C395F0F5F0E493A3C395F04005E5F004DA
:100673008001E475F002A42582F582E5F03583F567
:1006830083E493A3C0E0E493C0E022740480047481
:10069300028000CCC0E0EDC0E0E518C39CCCAD19EE
:1006A30050011D10AF068C188D1980068C188D19FA
:1006B300D2AF1207B7D0E0FDD0E0FC22C0E074F265
:1006C3001203E0E589A2E15003121817758900C2ED
:1006D300C57F0102043FC0E074F21203E0E58BA280
:1006E300E05003121817758B00C2E880E47402808F
:1006F30000CCC0E0EDC0E0E518C39CCCAD195001BF
:100703001D10AF068C188D1980068C188D19D2AF69
:10071300120795D0E0FDD0E0FC22C0E0C0F088F0E5
:10072300E4936670080874019366187000A8F0A338
:10073300A3700BD0F0D0E0D0E0D0E002057DA3A3FE
:10074300D0F0D0E022D083D082CCC0E0E493A36089
:10075300061208161470FAE493A36006120925140E
:1007630070FAD0E0FCE493A3C0E0E493C0E022C0BD
:10077300E074F21203E0A2AFE433FED2AFC2C0E5ED
:10078300D1A2E450031218A7EEA2E092AF7F0102B8
:10079300043FCAC0E0E493A3C582CCC582C583CD20
:1007A300C583F0A3C582CCC582C583CDC583DAE5F5
:1007B300D0E0CA22CAC0E0E0A3C582CCC582C5830B
:1007C300CDC583F0A3C582CCC582C583CDC583DAED
:1007D300E6D0E0CA22700908080822601618181823
:1007E300C6C333C608C633C608C633C608C633C62F
:1007F300D5E0EA22C008C3E096F50808A3E09642D4
:100803000808A3E096420808A3E09645087001D3C0
:10081300D00822C0E0E493A3D39C5010E493A3C375
:100823009C400AD0E0D0E0D0E0020765A3A3A3D0A8
:10083300E022C5822518C582C583351910AF07F597
:10084300198582188007F519858218D2AFC58322CE
:10085300C09FF59FE473D09F22D083D082C09FE4D2
:1008630093C0E0740193C0E0740293F59F222518AE
:10087300F58210AF08F518400215198008F51840E5
:10088300021519D2AF851983227404800A74038078
:1008930006740280027401C0E0F404120871D0E00F
:1008A300120AEA22C0D0251810AF08F51850020525
:1008B300198008F51850020519D2AFD0D022BB0118
:1008C30002E722C082C08389828A83BB0003E0805F
:1008D30002E493D083D082226016080808C6C313AB
:1008E300C618C613C618C613C618C613C6D5E0EA7B
:1008F30022C0E0C0D0E8C0E0E5A8D2AFC2C7A2E7FB
:1009030092AFD0E0F8D0D0D0E032C3E0C696F6087C
:10091300A3E0C696F608A3E0C696F608A3E0C6963B
:10092300F622C0E0E493A36C7009D0E0D0E0D0E0FD
:10093300020765A3A3D0E022251810AF08F51840DD
:100943000215198008F51840021519D2AF22E7667F
:1009530070100809E766700A0809E7667004080959
:10096300E76622E066701008A3E066700A08A3E059
:1009730066700408A3E06622C3E09608A3E0960825
:10098300A3E09608A3E096A2D265D03322C3E096F3
:10099300F008A3E096F008A3E096F008A3E096F031
:1009A30022E026F008A3E036F008A3E036F008A31F
:1009B300E036F022E627F60809E637F60809E637B7
:1009C300F60809E637F622E026F608A3E036F6082D
:1009D300A3E036F608A3E036F622C0E0E8C0E0E57F
:1009E3008124FCF8E6A2E7D0E0F8D0E022E647F65F
:1009F3000809E647F60809E647F60809E647F62236
:100A0300E657F60809E657F60809E657F60809E631
:100A130057F622E056F608A3E056F608A3E056F68A
:100A230008A3E056F622E056F008A3E056F008A328
:100A3300E056F008A3E056F022700422600D18C6B9
:100A4300C333C608C633C6D5E0F41822E4C396F60A
:100A530008E496F608E496F608E496F622600D0894
:100A6300C6A2E713C618C613C6D5E0F322C6F4C65A
:100A730008C6F4C608C6F4C608C6F4C622C3E79679
:100A83000809E7960809E7960809E79622C3E0965E
:100A930008A3E09608A3E09608A3E0962275D00089
:100AA30075814075180175190300020497600C08DD
:100AB300C6C313C618C613C6D5E0F422E6F008A3CE
:100AC300E6F008A3E6F008A3E6F022E0F608A3E0C8
:100AD300F608A3E0F608A3E0F622C5822518C5822E
:100AE300C5833519C58322CAC0E0E6F0A308DAFA44
:100AF300D0E0FA22E0FAA3E0FBA3E0FCA3E0FD22AE
:100B0300EAF0A3EBF0A3ECF0A3EDF022E5C754F871
:100B13004401F5C77901222518F582E43519F583D7
:100B230022C2AF75D69F0200002212085C6AB1018F
:100B330012085C0DB20112085C58B30112085C760E
:100B4300B30112085CAC580012085CBE58001208CE
:100B53005C10590012085C71590012085CFB5900C3
:100B630012085C9F5A0012085CF35A0012085C0CCE
:100B73005B0012085C325B0012085C6D5B001208BC
:100B83005CB15B0012085CD85B0012085C295C0056
:100B930012085CD95C0012085C915D0012085C5974
:100BA3005E0012085C365F0012085CBC5F0012082E
:100BB3005CCB5F0012085CD65F0012085CDF60004C
:100BC30012085CF0600012085C66610012085CF8B1
:100BD300610012085C50620012085C166300120880
:100BE3005C47630012085C8C630012085C99630025
:100BF30012085C2D650012085C90660012085CAC5C
:100C0300670012085C166A0012085C216A00120869
:100C13005C2B6A0012085C366A0012085C406A00AA
:100C230012085C4A6A0012085C556A0012085C608C
:100C33006A0012085C916A0012085CB56A00120827
:100C43005CD96A0012085C3E6B0012085C826B0080
:100C530012085C9E6B0012085C156C0012085C4D58
:100C63006C0012085C996C0012085CF66C001208A8
:100C73005CD86E0012085C5E6F0012085C2F700077
:100C830012085C3F730012085C94730012085CC086
:100C9300730012085C0C750012085C5C7500120886
:100CA3005CB1750012085CB2760012085C4A7700EA
:100CB30012085CCC770012085C6C780012085CF7B1
:100CC300200012085C30210012085C0A230012087D
:100CD3005C49230012085C93230012085C3824004B
:100CE30012085C97240012085CCB240012085C38BD
:100CF300250012085C55260012085C5D27001208C7
:100D03005CF3270012085C3A2B0012085CE32B000B
:100D130012085CBF2C0012085C202D0012085C3DF9
:100D23002E0012085C67300012085C1E31001208A6
:100D33005C28310012085C5B310012085C2232002F
:100D430012085CBD320012085C22330012085C4BAF
:100D5300330012085C6D330012085C9C35001208E6
:100D63005C73360012085CB7360012085C24370047
:100D730012085CDF370012085C11380012085C555A
:100D8300380012085C88380012085CDD380012084D
:100D93005C32390012085CC6390012085C283A003C
:100DA30012085C903A0012085C393C0012085C217E
:100DB3003D0012085C633E0012085C91400012087B
:100DC3005C51410012085C80430012085C2344001C
:100DD30012085C61440012085C0D460012085C2195
:100DE300460012085C2B460012085C5546001208A8
:100DF3005C61460012085C80460012085C374700BD
:100E030012085C76470012085C80470012085C34C5
:100E1300480012085C33490012085C2C4A0012088F
:100E23005CC94A0012085C6B4B0012085C824B00E1
:100E330012085CB94B0012085CD74B0012085C1B0C
:100E43004C0012085C404C0012085C264D0012084E
:100E53005C924D0012085C0C4E0012085C1B4F00A4
:100E630012085C5A500012085CBC500012085C76F1
:100E7300510012085C99510012085C6D520012086F
:100E83005CB8520012085CFA520012085C5153001D
:100E930012085C88530012085CB6530012085CEF1A
:100EA300530012085C14540012085C9C540012088E
:100EB3005CBF560012085C1E570012085CB2570054
:100EC30012085C1E580012085C72580012085CE796
:100ED300AB0312085C26AC0312085CBBB401120816
:100EE3005C15B50112085C71B50112085CBDB50152
:100EF30012085CD8B50112085C09B60112085C2619
:100F0300B60112085C32B60112085CA6B7011208DA
:100F13005CBFB70112085C26B80112085C39B8013E
:100F230012085C47B80112085CFBB80112085CDFC9
:100F3300B90112085CE5BA0112085C6BBB01120827
:100F43005C75BB0112085CE2BB0112085CF9BB01D2
:100F530012085C2BBC0112085C64BC0112085C8E95
:100F6300BC0112085CEFBC0112085C0FBD01120842
:100F73005C2DBD0112085C73BD0112085C99BE01B2
:100F830012085CE6BE0112085C15BF0112085C8BF7
:100F9300BF0112085CB3BF0112085CECBF01120869
:100FA3005CFABF0112085C52C00112085CA1C001C7
:100FB30012085CE0C00112085C10C10112085C3C1D
:100FC300C10112085C47C10112085C65C101120826
:100FD3005C27C20112085C31C20112085C6CC201B9
:100FE30012085C82C20112085C8BC20112085CE029
:100FF300C20112085CF4C20112085C02C4011208A7
:101003005C15C40112085C2AC40112085CCCC4013B
:1010130012085C4FC50112085C0DC60112085C186A
:10102300C60112085C3EC70112085C5AC7011208C8
:101033005CACC70112085CEBC70112085C00C80175
:1010430012085C42C80112085C8FCA0112085C0DC9
:10105300CB0112085C80CB0112085CA2CD011208FF
:101063005CBACD0112085CBDCD0112085CC9CD018B
:1010730012085CDDCD0112085CE5CD0112085C1895
:10108300CE0112085CC8CE0112085C3ECF011208E3
:101093005CB1CF0112085C65D00112085C1AD10162
:1010A30012085C39D10112085CD9D10112085CE540
:1010B300D10112085C10D20112085C13D20112088C
:1010C3005C7DD20112085CA5D30112085C7DD401BA
:1010D30012085C08D50112085C21D60112085CDEF7
:1010E300D60112085C17D70112085C48D701120811
:1010F3005CE8D70112085C18D80112085CF3D80128
:1011030012085C8CD90112085C17DA0112085CC85A
:10111300DA0112085C4ADB0112085C7CDB0112086D
:101123005CBDDB0112085CA0C20212085C05C302AD
:1011330012085C42C30212085C91C30212085CA746
:10114300C50212085C8AC70212085CF4CA021208BC
:101153005C2FCB0212085C51CB0212085CB4CB02A9
:1011630012085CE8CB0212085C0BCC0212085C3854
:10117300CC0212085C94CC0212085C8AAC021208FE
:101183005C08AD0212085C3EAD0212085CAAAD0217
:1011930012085C1DAF0212085C39AF0212085C7EB4
:1011A300AF0212085C0CB00212085C65B0021208B0
:1011B3005C92B10212085CA4B20212085C01B30291
:1011C30012085C6DB30212085CCEB30212085C0F06
:1011D300B40212085CBCB40212085CCEB502120859
:1011E3005CF9B50212085C44B60212085C8BB602C5
:1011F30012085C1DB70212085CD8B70212085C6FB4
:10120300FE0212085C80FE0212085CD1FE02120884
:101213005C16FF0212085CC0FF0212085C7AA60388
:1012230012085C159E0312085C6D9F0312085C4F45
:10123300B80212085CF4B80212085C14B90212086E
:101243005C34B90212085C48B90212085CA0B90206
:1012530012085CD0B90212085C51BB0212085CF799
:10126300BB0212085CD9BC0212085C2ABD02120838
:101273005C6DBD0212085CB0BD0212085C16BE02B2
:1012830012085C37BE0212085CC3BE0212085CF48B
:10129300BE0212085C68BF0212085C16C102120883
:1012A3005CF0C10212085C32C20212085C8CC202FA
:1012B30012085C8C9A0312085CAD9A0312085CE373
:1012C3009B0312085C0D9C0312085C51DB0212089D
:1012D3005CC4DB0212085CCFDB0212085CF0DB02A9
:1012E30012085C0ADD0212085C0BDF0212085CC9FB
:1012F300DF0212085C4DA00212085C50A002120823
:101303005C0AA10212085C35A10212085C7CA102EE
:1013130012085CA1A10212085CC2A10212085CF6C9
:10132300A10212085C2FA20212085C58A302120841
:101333005C8FA30212085CAFA30212085C4AA402EA
:1013430012085C0FA50212085C46A50212085CBBDA
:10135300A60212085C5EA70212085C57A8021208D4
:101363005C80A80212085CD4A80212085C9AA90245
:1013730012085CC8A90212085C5DAB0212085CDEAD
:10138300AB0212085C11AC0212085C1F7900120850
:101393005C6B790012085C1DA50112085CFA7900E8
:1013A30012085C117A0012085CC17A0012085CCA48
:1013B3007A0012085C1D7B0012085C467B00120851
:1013C3005CAD7B0012085C3E7C0012085C807C00F4
:1013D30012085CCA7C0012085C297D0012085CBA02
:1013E3007D0012085CF97D0012085C387E0012084B
:1013F3005C6D7E0012085C17B00112085C917E00E0
:1014030012085CB07E0012085CB97E0012085C6FA3
:101413007F0012085CAF7F0012085CD5F20212084D
:101423005CA8F30212085CC2F30212085CD3F30255
:1014330012085CE8F50212085C07F60212085C4F1A
:10144300960312085C85960312085CCE9603120875
:101453005C1E980312085CF2DB0112085C31DD01AB
:1014630012085C6DDD0112085C2CDF0112085C556B
:10147300DF0112085CE8E10112085C2CE2011208AA
:101483005CB5E30112085C4DE40112085CB5E401AC
:1014930012085C56E50112085C98E50112085CD855
:1014A300E50112085C63E70112085CD3E801120846
:1014B3005CF8EA0112085C26EB0112085C4DEB01B3
:1014C30012085C56EB0112085CB1EB0112085C4494
:1014D300EC0112085C62EF0112085CE3EF011208F1
:1014E3005CE4FF0112085C53AB0312085C808303C6
:1014F30012085C93830312085C30840312085C6B4C
:10150300840312085C86840312085CAB840312080C
:101513005CF0840312085C21850312085C52850386
:1015230012085CD8860312085C38A80312085C6EA4
:10153300A80312085C8AA80312085CCCA80312084B
:101543005CDCA80312085C3DEE0212085C22EF0289
:1015530012085C80F00212085CA1F00212085C42DF
:10156300F10212085C5EF10212085C1EF20212081C
:101573005C9EAB0312085CBE900212085C169102DB
:1015830012085CC0910212085C68920212085CC5E2
:10159300920212085C1E930212085C329302120834
:1015A3005CFC940212085C77950212085CA1950218
:1015B30012085C5E970212085C79970212085CC8F5
:1015C300970212085CDE970212085CEB970212087E
:1015D3005C1F980212085C35980212085CBB9802E3
:1015E30012085CCA980212085C23990212085C7DF7
:1015F300990212085CCB990212085CD59A02120870
:101603005C579D0212085CF19D0212085C339E0236
:1016130012085CC89E0212085CE59E0212085CE890
:101623009E0212085CEB9E0212085C5E9F02120887
:101633005C799F0212085CA59F0212085CE09F027E
:1016430012085CE39F0212085CF69F0212085C1DFD
:10165300A00212085C1CAA0312085C28AA03120841
:101663005C62AA0312085C40F00112085C6BF00193
:1016730012085C2DF10112085CB2F10112085C1B27
:10168300F20112085C67F20112085CE6F20112082B
:101693005C78F30112085C04F40112085C46F4015F
:1016A30012085C8FF80112085C0FFA0112085C4EF5
:1016B300FA0112085C17FB0112085CCBFB0112084C
:1016C3005C7BFD0112085C07FE0112085C008002CE
:1016D30012085CBA800212085C2C810212085C3B7F
:1016E300810212085CB5810212085C24820212088E
:1016F3005C2E830212085C57830212085CF7830294
:1017030012085C45840212085CB5840212085CE985
:10171300850212085CC5860212085C36870212082D
:101723005CB3880212085C75890212085C108A0295
:1017330012085C6B8A0212085CD68A0212085CDA11
:101743008B0212085C9B8D0212085C3A8E0212080F
:101753005CAC8E0212085C698F0212085C058A0376
:1017630012085C598A0312085CB18A0312085CFCF4
:101773008A0312085C5E8B0312085CF78B03120862
:101783005C5F8C0312085C6B8C0312085CF9930397
:1017930012085C2A940312085CE4940312085C4A5E
:1017A300950312085CBB950312085C0099031208A9
:1017B3005C6DA70312085C7EA70312085C1EA803D6
:1017C30012085C5D9C0312085C6B9C0312085CDDD1
:1017D300AC0312085C86A90312085C96A9031208DD
:1017E3005CB1A90312085C12AA0312085C78A50372
:1017F30012085CFDA50312085C61A60312085C6372
:10180300A30312085C85A30312085CEFA303120869
:101813005CFAA30312085C3EA40312085CEAFA0212
:1018230012085C00FB0212085C29FB0212085C44EC
:10183300FB0212085C5FFB0212085C69FB021208E0
:101843005C73FB0212085C86FB0212085C9FFB02BE
:1018530012085C46FC0212085CC5FC0212085C60BC
:10186300F70212085C6EF70212085CE8F70212082E
:101873005CCCF80212085C85FA0212085CD87F007F
:1018830012085C1CD60212085C89D60212085C4A54
:10189300D70212085CBAD70212085CC3D802120836
:1018A3005C3BDA0212085C9FDA0212085CF4DA028B
:1018B30012085CFDDA0212085C0CDB0212085C1FE2
:1018C300DB0212085C35DB0212085C3EDB02120805
:1018D3005C18E00212085C6DE00212085C69E20227
:1018E30012085C9BE20212085CBDE20212085CD69D
:1018F300E20212085CEFE20212085CF9E30212084A
:101903005C94E40212085CBC9F0312085CE09F0332
:1019130012085CF99F0312085C2CA00312085C5D9B
:10192300A00312085C8BA00312085CEDA00312084D
:101933005CFCA00312085C06A10312085C13A1035C
:1019430012085CA68C0312085CCC8C0312085C0999
:101953008D0312085C188D0312085C378D0312087F
:101963005C9F8D0312085CA88D0312085C078E032D
:1019730012085C2B8E0312085CEA8E0312085CF7D4
:101983008E0312085C088F0312085C74AC03120800
:101993005C91AC0312085C0BE50212085C69E60279
:1019A30012085C76E60212085C89E60212085CA85B
:1019B300E60212085CBEE60212085CD2E6021208D6
:1019C3005C47E70212085CACE70212085C5CE802C1
:1019D30012085C31E90212085C41E90212085C500A
:1019E300E90212085CEDA80312085C11A9031208AE
:1019F3005C39A90312085C61A90312085C368F03E2
:101A030012085C5D8F0312085C7E8F0312085CE38F
:101A13008F0312085C9C910312085CB591031208B2
:101A23005CC1910312085CD5910312085CF3910326
:101A330012085CFD910312085C07920312085C1AFA
:101A4300920312085C6D920312085CA692031208BB
:101A53005CD5920312085C23930312085C72930310
:101A630012085C8D930312085C97930312085CA819
:101A7300930312085CEE930312085C02AB03120893
:101A83005CE0CC0212085C0ACD0212085C26CD028F
:101A930012085C39CD0212085C4FCD0212085CAC0F
:101AA300CD0212085CDFCD0212085C1BD2021208C1
:101AB3005C41D30212085C74D30212085CC0D302E7
:101AC30012085CECD40212085C14D50212085C29DB
:101AD300D50212085C39D50212085C7DD5021208C2
:101AE3005CDED50212085CEED50212085C1DA10370
:101AF30012085C38A10312085C61A10312085C7B25
:101B0300A10312085CA0A10312085CBFA103120881
:101B13005CD7A10312085C05A20312085C1FA20391
:101B230012085C30AC0312085C00800312085C07E7
:101B3300800312085C13810312085C4381031208BB
:101B43005C69810312085C8C810312085CAE81031B
:101B530012085CE8810312085C4E820312085C875A
:101B6300820312085CD3820312085C008303120809
:101B73005C20830312085C75A40312085C87A4032A
:101B830012085C72A50312085C75A50312085C5069
:101B9300A20312085CC2A20312085C00A30312088A
:101BA3005C41A30312085CE5860312085C0187030A
:101BB30012085C50870312085C6C870312085C9D53
:101BC300870312085CAD870312085C998803120827
:101BD3005CA3880312085CB0880312085CC0890305
:101BE30012085CD4890312085CDD890312085C893E
:101BF300E90212085CCEED0212085CD3ED02120872
:101C03005CB0AC0312085CD7FF0212085C9FAA0306
:101C130012085CF1A30112085C45A30112085C964B
:101C2300A10112085C519F0112085CD89E011208A1
:101C33005C7F9E0112085C139E0112085CEA9D0101
:101C430012085CDD9B0112085CA99B0112085C76FB
:101C53009B0112085C5A9B0112085C809A011208CE
:101C63005C389A0112085C6D980112085CED9701CB
:101C730012085CEA970112085CF1960112085CBF36
:101C8300960112085CFC950112085C279401120866
:101C93005CB8930112085CC8AD0112085CD1AC01B9
:101CA30012085CB5AC0112085C61AC0112085C1946
:101CB300AC0112085C8A930112085C879301120835
:101CC3005C74930112085C0C930112085C57AB011E
:101CD30012085CFB920112085CDC910112085CA6FD
:101CE300910112085C69910112085C0A91011208C2
:101CF3005CCAAA0112085CBDAA0112085C7F7E00BF
:101D030012085CD9900112085C948D0112085C855D
:101D13008C0112085C148C0112085CD98B01120827
:101D23005CA48B0112085C988B0112085CF88A0191
:101D330012085C3F8A0112085C12880112085C9E3B
:101D4300850112085C5C850112085C278401120876
:101D53005CDC830112085C0E830112085C6582015E
:101D630012085C01820112085C3B820112085CCB01
:101D7300A70112085CD9790000000080FBE473001E
:101D830001363601010001020100010301000104D3
:101D930001060605020000070100340801000F09CF
:101DA3000401010D0100FF0E0800001702000019D5
:101DB3000100FF1A0100011B0100FE1C0100081DA8
:101DC3000200001F01000120010001210200002385
:101DD30001000F240200002601000127010008284A
:101DE3000200FF2A0100072B0102402C0100002DF5
:101DF3000100012E0100012F0100FF30010B1C31F6
:101E03000800003A0100083B01000F2F0100000306
:101E13000071003001600011007000310220035096
:101E2300048000100061000000140063007300725E
:101E330000620043000000130006000000000004DD
:101E4300001200000000000000000004000400373E
:101E53000037003C02440000000000000000006561
:101E63000000003500810000000500000083000031
:101E730000030271023001600211027002010202CA
:101E83000202028002100261023A004100630273FF
:101E930002720262024302000213023800000200CF
:101EA3000204021202000200020002000204020401
:101EB30002370037003C02440200023900000200EE
:101EC30002650200023502810200020502820283DA
:101ED3000200020103710301030103010301030172
:101EE30003220302030103100300030003000300A2
:101EF300030003000300034203000324030603005B
:101F0300030003040312032503230325032303040C
:101F1300030403000300030003440300030003233B
:101F23000300036503210035038103000305030058
:101F3300030003000301017101010101011101010A
:101F4300013101010101018001100161013B001414
:101F53000063017301720162014301000113010671
:101F6300013D0135000401120100010001000100DF
:101F73000104010401330133013C01440132013600
:101F83000000010001650100013500810100010528
:101F93000182018301000136000100060000000FE9
:101FA3000000000000000000000000000003FFFF2D
:101FB30000000403FFFF0000FFFF0FF4010005C44E
:101FC300040320000100030B0000000000000000D8
:101FD30003010F0100091702007F16030085160491
:101FE300008B160500911606009D161100B51614F8
:101FF30000BB161500AF16FFFF000003EAF5E5D599
:10200300D5C5B5A5959585857575656555554545BD
:1020130035352525151505770FA70F7D0F830FA1DF
:102023000F950F8F0FAD0FB30FB90FC50F890F7139
:102033000F6B0F0A430D020D0D051F0D07130D0C3A
:10204300EF0C0D010DFF000000160F00000B150B28
:10205300020002220F320000066110731079104152
:102063000F7F103B0F470FC110DF10E510C710D3D0
:1020730010CD100C0E020B040B0A0708000F3030B2
:1020830016181920231A1C1E3000011916181616CB
:102093001523030000034948424D18172505020084
:1020A300383C3E363B3B352B432C30301718192137
:1020B300301B1D1F30B51085108B10971091109B8E
:1020C3000FBF0FD910CB0FD10F0204020101010181
:1020D300090200000000000000BE040A0E00E8032D
:1020E300040015002800040C05030908FF1E1E0A3E
:1020F300040F100C74F7120374E99003B0F090030B
:1021030065E4F0121B779003B5E4F0A3F09003B1FC
:10211300F0A3F0120E7B121B7D900334E4F0A3F0C6
:102123009020F493FA7902121BDD024D8D74F212A2
:102133000374EAFEEBFF548060699003B0E0F91288
:1021430013C18A088B09EA4509604F7C0080010CA2
:10215300EC75F003A4F8A9F0743628F582742039DD
:10216300F583E493F4602CE493F88508828B83E091
:102173006870DCAA08EC75F003A4F8743728F582BC
:10218300742039F583E493C0E0740193F583D0821E
:10219300121D80AA08AB091213B5EEFAEF6480FB97
:1021A3000222FDEF5420601D120D9D8A088B09EA5F
:1021B3004509600A120D01AA08AB091213B5EEFA1C
:1021C300EF642080DAEEA2E0501A90036AE0640F15
:1021D300700B7900120CCBE96003122300EE64014B
:1021E300FAEF80BB542070030222CB750C00123728
:1021F300D28B09EA450970107C027D007A207B00AE
:102203009003B0E0F912150B7C0079047A007B008F
:10221300120D798A088B098018850882850983A3A2
:10222300A3A3A3A3A3A3A3A37401F0850A08850B07
:1022330009E5084509606D7C007904AA08AB091219
:102243000D798A0A8B0B750C01E5082404F8E5095E
:1022530012357624FFF0A3E034FF12586970CC8561
:102263000882850983A3A3A3A3A3A3A3A3A3A3E092
:10227300640170A5850882850983A3A3A3A3A3A3EF
:10228300E054047094850882850983A3A3A3A3A3C0
:10229300A3A3A3A37406F07AB785088285098312E2
:1022A300242C8087120D497C0079017A007B00126F
:1022B3000D798B09EA45097009E50C70057A20123E
:1022C300472CEE64200221E3EF5402600B120E75DB
:1022D300EEFAEF64020221A2EF540460191248C31C
:1022E3001247E37901900363124B47120C11EEFA84
:1022F300EF64040221A27A007B00022533900CF7DD
:10230300122BCA120CE322C082C08374EA12093B67
:10231300851882851983AA82AB83794B121BB37408
:1023230008120B1A7402F07409120B1AAA82AB83F7
:102333007950121BB37413120B1AE4124D16121BAD
:10234300D17416023CF074F712037474E112093B62
:10235300EAFEEBFFEE4F6033851882851983AC826A
:10236300AD83120DC17406120B1AE0601E741712AE
:102373000B1AE0FD7401120B1AE0FCEEFAEFFB7985
:1023830000120B39E9600479A480027900024D88B8
:1023930074F6120374EAFEEBFF8E828F83A3A3A36A
:1023A300A3A3A3E05440601B1252051224FA600653
:1023B3007AFF7BFF801A8E828F8312397CFAA3E027
:1023C300FB8003120DE574FE6A700374FF6B6041BA
:1023D300125205124770120E39E98E828F836006FE
:1023E300122425E480051224257401F07CD17D0C90
:1023F3008E828F83124B47121BD7E9F5087015EEB7
:102403004F60097901EEFAEFFB120D55A908024757
:10241300A17508CDAA088E828F8312242CE960DF70
:1024230080EAE0240D123E4B22E0240C123E4BE0E6
:10243300F9120CDD2274F6120374E9FEEAFF7A0F37
:102443007B001213AFEA4B60198A828B83740CF002
:10245300EEA3A3F0EF8A828B83A3F01247CC79001B
:10246300802FEEF9120D7F8A088B09A808A909E8C5
:1024730049601C88828983A3A3A3A3A3A3A3A3A3C3
:102483007406125490E0F9120C95EEF9120D5B7973
:10249300100247A1C082C08390036AE0640F7014E6
:1024A300EA4B6010900365E064086005E064047023
:1024B300031224BA023D1AEAFCEBFD7A017B009079
:1024C30003B0E0F912150522C082C0837900EA2423
:1024D3001DF582EB12397924FD600B14600824FD8D
:1024E300600424FD700109023D1A8E828F83A3A329
:1024F300A3A3A3A3A3A3A31224FE221239C1FB12F5
:102503000E39E9228E828F83A3A3A3A3A3A3A3A33C
:10251300A31224FE6402228E828F83A3A3A3A3A308
:10252300A3A3A3A3123D11900356E068221208A7A8
:102533007F0602058D74F412037474FD12093B8A3D
:10254300088B098A828B83A3A3E0F9120D7F8A0A81
:102553008B0BAE0AAF0BEE4F700302263F8508824A
:10256300850983A3E064F16030850882850983A32C
:10257300E064CD6024850882850983A3E0641A6042
:1025830018850882850983A3E064E9600C850882C5
:10259300850983A3E064E170087900120D55E970A1
:1025A3006C850882850983A3E0C0E07402120B1ACC
:1025B300D0E0123CF5EEF0A3EF12302085188285AF
:1025C3001983AA82AB837005120BF98003120E21C3
:1025D3007402120B1AE064E970338E828F83122621
:1025E3004B750A01780A120898750AE9780A1208E5
:1025F30098E508240CF582E509122B12122FFDFC35
:10260300A3E0FD8A828B831230171208A78E828F74
:1026130083A3A3A3A3A3A3A3A3A3E0640270108E25
:10262300828F83A3A3A3A3A3A3A3A3A37406F08569
:102633000882850983A3A3E0F9120D5B120D49906B
:102643000CFB122303022BCFE0F8A3E0F9E8FAE92D
:10265300FB2274F4120374EAFEEBFF7508008E820A
:102663008F83A3A3A3A3A3E060427508088E828F80
:1026730083A3A3A3A3A3A3A3A3123C248B0BEA4585
:102683000B601075082C8E828F83A3A3A3A3A3E0F2
:10269300D2E0F08E828F83A3A3A3A3A3E0540364A9
:1026A30001600302273E43081102273EEE2418125D
:1026B3002BDC6033EE241A122BDC700F12251A70F8
:1026C30003A3E06970757508228070EE241BF58200
:1026D300EF122743241AF582EF123028EE24191241
:1026E3005239120C838054122507700375080112A6
:1026F300251A7003A3E0697006E508D2E1F508E541
:102703000860158E828F83A3A3E07006E508D2E5E7
:102713008004E508D2E6F5081224ED64017006E5AD
:1027230008D2E0F5088E828F83A3A3E0600D122701
:102733005164016006E508C2E0F508A908022BD43C
:1027430012396712274A22E0FCA3E0FDEE22123978
:1027530061123999F9120E27E922C082C0837901E7
:102763008A828B83A3A3E0C394024001198A828BDC
:1027730083A3A3A3A3E0C39402400279008A828BBC
:1027830083A3A3A3A3A3A3A3A3A3E064F87003A3B6
:10279300E0F460458A828B83A3A3A3A3A3A3A3A38B
:1027A300A3E064F97003A3E0F4602E8A828B83A311
:1027B300A3A3A3A3A3A3A3A3E064FA7003A3E0F4D6
:1027C30060178A828B83A3A3A3A3A3A3A3A3A3E0DA
:1027D30064FB7003A3E0F4700279008A828B83A305
:1027E300A3A3E0F8900353E06860027900023D1A66
:1027F30074F012037474DE12093BEAFEEBFF8E825F
:102803008F83A3A3A3A3E0600E900CF912479860F3
:1028130006900CF91223037403120B1AAC82AD83D6
:102823008E828F83A3A3A312481A125053E9600F19
:102833007403120B1AAA82AB83120CFBE97008799A
:1028430001121B89022B07EE241B12396C74101220
:102853000B1A1247E37409120B1AE06021741A125F
:102863000B1AE0FD7404120B1AE0FC8E828F8312A4
:102873004B457901120B39E96004790280C3740373
:10288300120B1AAA82AB83120CF5E9F50A7409122A
:102893000B1AE0702A90034DE060247422550A64F9
:1028A30022601C7442550A644270CF7420120B1AC2
:1028B300122B25600A7420120B1A122B1E70BBE90F
:1028C300A2E650417403120B1AAA82AB83120CE9DD
:1028D300E970030228427420120B1A12397C640334
:1028E300700F7420120B1AA312478AA3E0640D60C1
:1028F300147403120B1AAA82AB83120E4BE9640100
:102903007003022B07EE242C122B0F122E337003AD
:10291300A3E069701C7508007808120898780812FB
:102923000898EE242E125239122B2B12301712084C
:10293300A77409120B1AE070030229E4122B2B125D
:102943004B47120E9F8A088B09EA45097003022A36
:10295300817404120B1AE0F88E828F83A3A3E028FC
:10296300F8A3E03400F9E8240D122B168A828B8336
:10297300A3A3A3E068601CE88A828B83A3A3A3F0CC
:102983009081C1120AF7850882850983A3A3A3A3B3
:10299300120B037904E9120B1A1250302AF8A3E040
:1029A30034008882F583A3AA82AB831213A38A0C13
:1029B3008B0D8C0E8D0F850882850983A3A3A3A39A
:1029C300780C1207F74003022B079081E5780C126D
:1029D30009CA850882850983A3A3A3A3780C120AD5
:1029E300BF900365E064046008E064096003022BA0
:1029F30007E50AA2E54003022ABFEE242E122BDCD0
:102A0300851882851983F0EE242F122BDCC0E07425
:102A130001120B1AD0E0F0EE2430122BDCC0E0746C
:102A230002120B1AD0E0F07414120B1AE064017056
:102A330027740E120B1A123972EE2412122BDC6851
:102A43007003A3E0697011740C120B1A1225147031
:102A5300077414120B1AE4F0EE2424122B0F12063F
:102A63008E7404120B1AAC82AD837407120B1AAA6C
:102A730082AB83120BFF74041208A7022B07900387
:102A8300AAE0640160030229E47420120B1A122BDA
:102A9300257009E50AA2E650030229E47410120B1B
:102AA3001AE0F47003A3E0F4605AEEFCEFFD740344
:102AB300120B1AAA82AB83120D078048A2E6504478
:102AC3007420120B1A124B56701A741A120B1AE056
:102AD300640270307403120B1AAA82AB837900125A
:102AE3000E1580207420120B1A122B1E7016741AE6
:102AF300120B1AE06404700C7403120B1AAA82AB53
:102B030083120E0F7422024F02EE240BF582EF1292
:102B1300396722F582E91247FCF822125217E06462
:102B23000722123999640622EE242A1239641227E5
:102B33004A24121239642274F4120374EAFEEBFF7E
:102B43008C088D099005DAE0600F12251A7003A333
:102B5300E0697005120C71804F7900124B3A120C28
:102B6300A18A828B83E58245836035A3A3A3A3A3B4
:102B7300A3E05418602AE508241BF582E509122B0B
:102B830012120692123210122B12120692EE24180F
:102B9300125239122BAD120CB374041208A7800819
:102BA3007900122BAD120C7780278E828F83A3A31B
:102BB300A3A3A3A3A3A3A312274A240BF582EF1273
:102BC3002BC6223400F5831239C1FB227403120889
:102BD300A77F0402058DEE2417F582EF1247FC222E
:102BE30074F712037474F712093BEAFEEBFF9003C8
:102BF30065E06403600DE064016008E0640960035C
:102C0300022CAD8E828F83A3E0707E7C007D007AE0
:102C1300027B00121B83EE2402FAEF12357D123978
:102C2300729003561247E37953121BB97900122CA1
:102C3300B2E06409600312304585188285198374F4
:102C4300011247B99003657404F07401120B1AAAB8
:102C530082AB83794A121BB37401120B1AAC82AD97
:102C6300837A5B7B03121BA19003561250497A03AC
:102C730012304F900350E0A2E35004D2F08002C21E
:102C8300F01247A6122300801E8E828F83A3AE828A
:102C9300AF83FC7D007A037B10121B838E828F83AC
:102CA300E0F9122CB2E4F0120D317409024D8A904E
:102CB3000363122BCA120C1190036522C082C083D6
:102CC300900334124798701F900365E01460092441
:102CD300FC600A14600C800F90033C803290033830
:102CE300802D90033A8028E8496008900335122F1D
:102CF300F7700C8A828B83A3E0F9120C05801B907A
:102D030003351232AC7005120E69800E9003D21295
:102D13004798600612478A121D80023D1A74F41206
:102D2300037474FB12093B8A088B097A0F7B001228
:102D330013AF8A0A8B0BAE0AAF0BEE4F7003022E52
:102D4300278E828F83124D147950121BB38508820C
:102D5300850983A3E06003022E0F900363E0F47000
:102D630003A3E0F46034900363E064FE7003A3E024
:102D7300F46027851882851983122E337003A3E02C
:102D8300696017850882850983A374EA12302D7A56
:102D9300637B037950121BB980728518828519836E
:102DA3001251F81247E37A567B037953121BB390FF
:102DB30003561248141247E37A597B03794B121BCB
:102DC300B37A587B0379E1121BB390036AE0C3948F
:102DD3000F5021900358E0C0E07402120B1AD0E0A8
:102DE300F07404120B1A7401F004120B1AAA82ABCA
:102DF30083121BCB750A00780A120898780A120806
:102E030098900D1DE0F912300E1208A785088285EF
:102E13000983122E2CA3F09003657403F0EEFAEFEE
:102E2300FB1247CC7405022BD1A3E08E828F832241
:102E33001251FCE06822123E522274F5120374749C
:102E4300D812093B8A088B098A828B83A3A3A31216
:102E5300399E7415120B1AAC82AD838A828B83A3BD
:102E6300A3A3A3A3A3A3A3122FFDFAA3E0FB120D15
:102E7300377415120B1AE0706B850882850983A3DA
:102E8300A3A3A3A3A3A3A3E0C3940B40578E828F52
:102E930083A3A3A3A3A3A3A3A3E064027046EE2486
:102EA3000B122BDCF4703D900365E06402603AE0A2
:102EB300640660359003341247986005122FF7605B
:102EC3004F900365E064086005E0640470167417AE
:102ED300120B1AE0F9741C120B1AAC82AD83124B5D
:102EE3003A120D3D74280257169003341247987016
:102EF3001F75080078081208987808120898EE24BD
:102F030010122B0F1252511236651230171208A7E6
:102F13008E828F83124AB612358F1239727402125F
:102F23000B1A1247E3EE240D122BDCC0E0740412DB
:102F33000B1AD0E0123020F508A3E0F509740F78DE
:102F430008120AB07405120B1AE508F07419120B73
:102F53001AE0C0E07406120B1AD0E0F0741B120BD7
:102F63001AE0C0E07407120B1AD0E0F07416120BCB
:102F73001AE0C0E07409120B1AD0E0F07417120BB8
:102F83001AE0C0E07408120B1AD0E0F0EE2410121D
:102F93002BDCC0E0740A120B1AD0E0F0741A120B87
:102FA3001AE0C0E0740B120B1AD0E0F07427120B76
:102FB3001AE0C0E0740C120B1AD0E0F0741C120B70
:102FC3001AA982AA8389088A09750A00780812084F
:102FD300907C087D007410120B1AAA82AB831243F3
:102FE300471208A7851882851983AA82AB83120C1E
:102FF3000B022EE71232B2640122E0F98A828B833C
:10300300A3A3A3A3A3A3A3A3A3E0229003631250A8
:103013004D900359122BCA120DF7740222F0EE24BD
:103023000B1247F9221247FCFA22F07A567B0379F6
:103033005312303822121BB97A597B03794B121B76
:10304300B922900363122BCA120E99227B00121B22
:103053008390035912504D7A047B00121B8322F094
:1030630012525C2274F212037474F812093BEAFEE2
:10307300EBFF8C0A8D0B890C851882851983AC8232
:10308300AD8375838175829974081207B7F50DEEC8
:10309300FCEFFD851882851983AA82AB83124A1738
:1030A3007003750D019003B1803BEEFCEFFDE50865
:1030B300240BFAE5093400124A16601E850882853E
:1030C3000983A3A3E0650C7011850882850983E059
:1030D300650A7004A3E0650B6038E5082414F582E3
:1030E300E509122B12123587E50845096024E50D21
:1030F300A2E040B6850882850983E0650A7004A3CF
:10310300E0650B70D5850882850983A3A3E0650C70
:1031130070C8AA08AB097408022530C082C0839026
:1031230003B1023D1774F71203749003B11239C14E
:103133008012EA2414F582EB122B1212399E121418
:1031430051EEFAEFFBEA4B70E99003B1E4F0A3F020
:10315300024D8D7F0702058D74F1120374EAFEEBB5
:10316300FF890A8C088D098E828F83E08C828D8380
:10317300123C2EAE82AF83E0124407124378C4128E
:103183004407123219E054038C828D83124376A2D2
:10319300E2E4338C828D83124375131313541F128D
:1031A3004407124374A2E7E4338C828D83A3A3A361
:1031B300A31232198E0C8F0D750E00780C12089025
:1031C3007C087D00E5082407124FBC1208A71250A3
:1031D300278E0C8F0D780C1208907C037D00E50878
:1031E300240F124FBC1208A7E50AC3940F40148E94
:1031F300828F83A3A3A3E0C0E0123210122B12D05C
:10320300E08006123210125484F0023156E508248D
:1032130012F582E50922A3A3123C320EAF83227476
:10322300F412037474F912093BEAFEEBFF89089068
:103233000334124798600E1232AC7009EEFAEFFBBA
:10324300120E63805F900363E06E7003A3E06F7000
:10325300537401650860097A777B03124A17704437
:103263007A007B021237D68B0BEA450B703690033C
:1032730066120AF7851882851983120B0390036C73
:10328300E0C0E07404120B1AD0E0F07405120B1ABC
:103293007401F07406120B1A124D14120BD5E96067
:1032A3009B120BDB7407022BD11232B2640222127F
:1032B3005218A3A3A3A3A3A3E02274F51203748A51
:1032C300088B098A828B83A3AE82AF83E0F9120C49
:1032D300298E828F83E064EB600C850882850983E5
:1032E300A3E064E17009850882850983A3E4F012F1
:1032F3002300750A01780A120898850882850983D4
:10330300A3E0F5087808120898790012300E120825
:10331300A7120D49025719EAF0A3EBF0023D1A7404
:10332300F61203749003B4E0701B7C0079017A00F9
:103333007B00120D79EA4B600C8A828B83124798CB
:103343006003120CD70247A1C082C0831237BE406C
:103353001079FF120D73E9F89020F6E493C39850A7
:1033630004790180027900023D1A74F01203748A11
:10337300088B09890B750C008A828B83A3A3A3A3F3
:10338300A3A3A3A3E0F9120D7F8A0E8B0FAE0EAF9A
:103393000F750A01EE4F600302344B8508828509DD
:1033A30083A3A3A3A3A3A3125049850882850983FA
:1033B300A3A3A3A3A3A3A3124147124B47120D67D1
:1033C3008A0C8B0DAE0CAF0DEE4F700302356E8E73
:1033D300828F83A3A3A3A3E4F0A3F0E508240B1235
:1033E300357AE0C0E0122B0CD0E0F0120E3FEE2451
:1033F3000CF582EF12476CE508240EF582E50912FD
:10340300396FEE240EF582EF1247E0750C01EE24BE
:1034130006F8EF123576547FF0A3E054FC1252AE57
:10342300E0540460030234D1900CFF124138740756
:103433007808120A3C8E828F83A3A3A3A3A3A3E0DD
:103443004508F0A3E04509F08E828F83A3A3A3A3CD
:1034530012358574077808120AB0E5085407F50891
:10346300E50B607A8E828F83A3A3A3A3A3A3A3A355
:10347300A37402124379240D123E47E0A2E2500BDB
:10348300900351124814A3A31247E3E50870030203
:103493003543EE2406F8EF3400F9E8FAE9FB8A82B3
:1034A3008B83E0547FFCA3E054FCFDE50824FFF587
:1034B30008E434FFF50974077808120A3CEC450860
:1034C300F8ED4509F98A828B831247E380728E8275
:1034D3008F83A3A3A3A3A3A3E0448002344AE508F4
:1034E3007005750A0080598E828F83A3A3A3A3A3BB
:1034F300A3E0542060121213A9EA547F245F8E8242
:103503008F83A3A3A3A380238E828F83A3A3A3A3C9
:10351300A3A3E05410600A1213A9EA540F240A80EB
:10352300DD8E828F83A3A3A3A37401F0A3E41235DA
:103533008F74041237CD8B09EA4509700312475F74
:10354300E50CA2E050288E828F83A3A3A3A3124D80
:103553007AF9EEFAEFFB120D6DE9601212478E60F5
:1035630003123957EEFAEFFB121451750A00A90A38
:10357300024F051248D722FAE5093400FB8A828BF1
:103583008322A3A3E0F508A3E0F5092212359322D1
:10359300124FD8A3A3A3A3A32274F412037474F742
:1035A30012093B7E00120D7FEA4B700302365E8ADE
:1035B300828B83A3A3A3A3A3A3A3A3A3E064066013
:1035C3000302365E8A828B83A3A3A3A3A3A3A3E0F0
:1035D300FF8A828B83123E5AE0C0E07408120B1AF2
:1035E300D0E0123992124A1D1247E3120D91EF54A3
:1035F3000860668518828519831250497A007B001A
:10360300120D618B0BEA450B704F900363123A82E4
:10361300121BE37C007D007A007B0080288E828F62
:103623008312397CF47003A3E0F4602D90036312DA
:103633003665124B471218D7E9641A601C7C007D6B
:1036430000EEFAEFFB120D618A0A8B0BAE0AAF0B89
:10365300EE4F70C97900121BE97E01EEF97409027D
:103663002BD112366922E0FCA3E0FD8E828F8322E8
:10367300C082C083EA4B70059003B580068A828BB3
:1036830083A3A312388260258A828B83A3A3A3A377
:10369300A3A3A3E0540860E5EC4D60158A828B83F5
:1036A30012397C6C7003A3E06D70D280047A007BC6
:1036B30000023D1A74F2120374EAFEEBFF890A8CCE
:1036C300088D097A107B0012144BEA4B603F8A8203
:1036D3008B83A3A3A3A3A3A3A3A3A3E4123980A3CC
:1036E300E50A12521EA312371A8A828B83A3A3A35D
:1036F300A3E4F0A312398CA3F01250B2EA240CF520
:1037030082EB123C1E123713A3A3F0A3F00225335E
:10371300A3F08A828B8322A3A3E508F0A3E509F033
:103723002274F4120374EAFEEBFF89088C0A8D0BF2
:10373300EE4F60557401650870147901120D73E939
:10374300F89020EEE493C398500F7911806A7404C3
:103753006508702F1237BE40F18E828F83A3A3A317
:10376300A3A3A3A3A3A3E508123C2EA31257A38EDE
:10377300828F83A3A3E4F0A3F09003B5124798606C
:1037830021800D7402650860D079C1802BE0F8A315
:1037930012480DA3A312388288828983A3A370EDF4
:1037A30080039003B5EEF0A3EF1237CD8B0BEA4500
:1037B3000B700312475F7900022BD47904120D7347
:1037C300E9F89020EBE493C39822F01237D2227ADF
:1037D300207B009003B0E0F912151722C082C0834A
:1037E300E9F879009003B5801D8A828B83A3A3A394
:1037F300A3A3A3A3A3A3E068600574FF68700109F2
:103803008A828B83A3A312388270DE023D1A74F777
:10381300120374EA4B70059003B580068A828B838A
:10382300A3A312388260248A828B83A3A3A3A3A3B6
:10383300A3A3A3A3E06970E4EC60148A828B83E002
:10384300240D12503AA2E240D380047A007B000296
:103853004D8DC082C0839003B580068A828B83A37B
:10386300A312388260128A828B83A3A3A3A3A3A388
:10387300A3A3E06970E580047A007B00023D1A127D
:103883002BCAEA4B2274F21203748A0A8B0B8C0C38
:103893008D0D750800750900EA450B602E9003B580
:1038A30080068E828F83A3A31238D5601EAC0CAD25
:1038B3000DEEFAEFFB850A82850B83121D80E96406
:1038C3000170DFEEF8EFF988088909AA08AB09024D
:1038D3002533E0FEA3E0FFEE4F2274F7120374904A
:1038E30003B51239727C007D00800DE8FCE9FD8888
:1038F300828983A3A3123972E8496030EA687002AF
:10390300EB6970E79003B5124B47E86A7002E96B05
:1039130088828983A3A370081239729003B5800942
:103923001239728C828D83A3A31247E3024D8D74E7
:10393300F7120374EAFEEBFFEE4F6015120D8B12C4
:1039430039A412478E6003123957EEFAEFFB1214B3
:1039530051024D8DEE240C1239641239B922EE2432
:103963001DF582EF3400F58322F582EF12396712D9
:103973003D1122F582EF12396712399922123984E7
:1039830022125226A3A3A3A322123984A3A3221291
:10399300371412399922125211E022E0FEA3E0FFFC
:1039A300228E828F83E0241C123E4B1239B98E8201
:1039B3008F831239B9221239C1FB12145122E0FA52
:1039C300A3E022C082C083EAFCEBFDEC4D700479D6
:1039D300058044EC24FBF582ED34FF124796700713
:1039E300123A1DE0F460051213B580E39003B0E0D2
:1039F300C0E0123A1DD0E0F09020F2E493F97AB7D8
:103A03007B031213DFE96401700B7A007B201247FA
:103A130063790080027904023D1AEC24FFF582EDFC
:103A230034FFF5832274F4120374A2AFE433F50870
:103A3300C2AF9003B71238D56038EE24FBF582EF9E
:103A430034FF1247967A007B209003B0600512473B
:103A5300668005E0F91213EBE4F50AF50B780A1218
:103A63000894EEFCEFFD7AB77B031213D9740212AC
:103A730008A7E508A2E092AFEEFAEFFB022BD412FF
:103A8300504D851882851983AA82AB832274F21262
:103A9300037474FC12093BEAFEEBFF750AFE750B17
:103AA300FF120D4FE960057911023C13EE24151244
:103AB3002BDC6037900D13E0C43354E0F8E033336C
:103AC30054FC48C0E0EE2415122B0FD0E0123C2E1C
:103AD300123C248B09EA45096011750AFFEE240F95
:103AE300122BDC44041247F1D2E0F08E828F831252
:103AF30024F86006EE2412123C1BEE2413122BDC76
:103B030070109020F1E493C0E0EE2413122B0FD039
:103B1300E0F08E828F83E0A2E750045403801CEE12
:103B23002414122BDC7015900342E0C0E0EE241441
:103B3300122B0FD0E0F0900342E004F0EE241112B8
:103B43002BDC640170169005D1E0600D90034DE00D
:103B5300700A8E828F83E07003123C188E828F83EB
:103B6300E064017013EE240B12397664027009EEDF
:103B7300240F122BDC4440F0851882851983AC8214
:103B8300AD83EEFAEFFB120DB58A088B0974FE655F
:103B93000A700374FFF470098E828F83A3A3124FFC
:103BA300C8EA450960668E828F83E0C0E074011223
:103BB3000B1AD0E0F07402120B1A1250B6740112F1
:103BC3000B1A85820C85830D780C120894EE240F52
:103BD300122B0F120692EE240E122BDCF50C780C2E
:103BE3001208989003561206927407120B1AE0F902
:103BF300AC0AAD0B120DAF74071208A7E9FE7410DF
:103C03006E700BAA08AB0912145180027E10EEF9F4
:103C13007404022530EE2411F582EF123967E4F0C3
:103C230022A3122BCA79FF121CAF22123C3222F0BC
:103C33008E828F83A322C082C08374DE12093B8AE3
:103C4300828B83A3A3A3A3123972740E120B1AE8F7
:103C5300F0A3E9123D08740C120B1A123D01240D56
:103C6300F582EB122BDFC0E0741A120B1AD0E0F0CE
:103C7300124F15EB12396F7420120B1A123D0124E7
:103C830015F582EB122BDFC0E07408120B1AD0E09B
:103C9300F0EA241CF582EB12396F7412120B1A121C
:103CA3003D012411F582EB122BDFC0E07409120BE6
:103CB3001AD0E0123CF574FFF07401120B1A74FF72
:103CC300F07402120B1A74FFF09081C112068E7405
:103CD30004120B1AAC82AD837407120B1AAA82ABBF
:103CE30083120BFF74041208A7790074221208A729
:103CF3008025123CF922F085188285198322E8F089
:103D0300A3E9F0EA22123714A3123D1022A3E0F82C
:103D1300A3E0F922124B47D083D08202085974ECF6
:103D230012037474EE12093B8A128B13ECFEEDFF3F
:103D330089097426120B1A124FC87428120B1AE041
:103D4300F5107429120B1A123E3C742B120B1AE055
:103D5300F50EA3E0F50F7508107A1E7B0012144BC5
:103D63007402120B1A1247707402120B1A1247983C
:103D73007003023E35851882851983AA82AB837945
:103D83005012464B124B477402120B1A123E5AA39F
:103D93001247707410120B1A1257A57402120B1AE1
:103DA300E0240B123E477402F0120B1A123E5A74AF
:103DB30002F0120B1A1252091250B67402120B1AA5
:103DC300124B5CE509F07402120B1AE0240C123E4C
:103DD30047E510F07402120B1A123E44E512F0A3E9
:103DE300E513F07408120B1AE50CF0A3E50DF0745B
:103DF3000A120B1AE510F0850E82850F83C082C06C
:103E030083740D120B1AAC82AD83D083D0827403FA
:103E13001207B7F97402120B1AAA82AB83120D555B
:103E2300E96401700575080080087402120B1A1208
:103E3300395DA9087412024FDFE0F50CA3E0F50D1C
:103E430022E0241C123E4B22F8A3E0123E522234FD
:103E530000F98882898322124B4FA3A3A3A3A32231
:103E630074EE120374EAFEEBFF8C088D098E828FC9
:103E730083A3740812482CE060088E828F83A37496
:103E830010F0122BD960098E828F83A3E02408F0EF
:103E9300EE2415122BDC60088E828F83A3E004F0DE
:103EA3008E828F83A3A3A3A3A3A3E060198E828F23
:103EB30083A3A3A3A3A3A3A3E0C3332402F88E8203
:103EC3008F83A3E028F0EE2411122BDC6005750B21
:103ED3000E8003750B008E828F83A3C082C083EE96
:103EE300240D122BDCD083D082F8E028250B8C82A2
:103EF3008D83F0EE2411122BDC600512435728F05A
:103F0300850882850983E0C39475400975080075A7
:103F13000900024045E0FA7B00125164700302403D
:103F230045EEFAEFFB120DBBEA8508828509831281
:103F33004771EE2402F8EF122E3912413F124081ED
:103F4300F0EE24040808EF122E39124581A3124023
:103F530081A3A3F0EE2413124067F0EE2414124061
:103F630067A3F0750A08EE2416122BDC6010EE240A
:103F730018125046E5082408125247750A10122BEE
:103F8300D96016EE241A125046850A0CE508250C52
:103F93001252477408250AF50A8E828F83A3A3A3BE
:103FA300A3A3A3E06059EE2407F510EF3400F51145
:103FB300851082F583E0C0E012404E122B12D0E050
:103FC300124071E0C0E012404E122B12D0E01240BA
:103FD30071A312405A120890851082851183E0C3A1
:103FE30033FCE433FD850A0CE508250C124FBC12A3
:103FF30008A7851082851183E0C333250AF50AEEED
:104003002415122BDC600BC0E012404E122B12D091
:10401300E0F0122B0C12405A120890EE240D122BD2
:10402300DCFC7D00850B0A8E828F83A3E0F8E50814
:1040330028F8E5093400F9E8250AFAE9124FBF1216
:1040430008A7AA08AB097F0A02058D850A0CE508B3
:10405300250CF582E50922E0F50CA3E0F50D750EBC
:1040630000780C2212396412408BA3A3A322F0051B
:104073000A8E828F83A3A3A3A3A3A3A3A322A3A391
:104083001252B2A312408B22124585A3A32274F6C7
:104093001203748A828B83E0FC90035312413874B9
:1040A300027808120A3CEC4508FCAD09EA24121216
:1040B300413274067808120A3CEC4508FCED4509C8
:1040C300FDEA2415F582EB122BDF600478018002F0
:1040D3007800E4C8F9ED49FDEA2411F582EB122BCF
:1040E300DFF508880974097808120A3CED4509FDD3
:1040F300EA2416124132740B7808120A3CED450982
:10410300FDEA2417124132740C7808120A3CED457B
:1041130009FD8A828B83A3A3A3A3A3A312413874AB
:104123000A7808120A3CECFAED4509FB0247A1F5AF
:1041330082EB123967E0F50875090022E0850882F1
:1041430085098322A3E0F98508828509832274EE19
:104153001203748A0A8B0BECFEEDFF750F01E9C3A2
:104163009408500579000243448E828F83E9F0124C
:1041730045AAE96003750F0012458E8E828F831264
:1041830045D8EE124F16EF1245CDC0E0EE241112C2
:104193002B0FD0E01245C5C0E0EE2412122B0FD036
:1041A300E0123C2E7408124FD0A3A3A3E0601512B3
:1041B3004576EE2413F582EF1247E08E828F83A3B8
:1041C300E02408F08E828F83A3A3A3A3A3A3A3A3B6
:1041D300E060218E828F83A385820885830912453F
:1041E300B9EE2415F582EF1247E08508828509832D
:1041F300E02408F08E828F83A3A3A3A3A3E0601A15
:104203008E828F83A385820885830912459D8E82C2
:104213008F83A3A3A3A3A3124369EE2419123C1B08
:10422300EE241B123C1BA3124824E070030242D865
:10423300EE2419F8EF3400F98E828F83A385820868
:10424300858309E0FAE50A2AF582E50B122BDF885C
:10425300828983124369FAE50A2AF582E50B122B58
:10426300DFC0E0EE241A122B0FD0E01243698882DC
:104273008983E06059F89020EAE493C39850057568
:10428300110C8008EE2419122BDCF5118E828F831A
:10429300A3E0F8E50A28F50CE50B12434D1208904C
:1042A300E511C333FCE433FD7AB17B0B12434712B0
:1042B30008A7EE241B122B0F74B1F0A3740BF0E5C7
:1042C30011C333F8850882850983E0288006EE242C
:1042D30018125481F08E828F83A3E0F88E828F832D
:1042E300E0C3985003024167A3E0FA8A08E50A2570
:1042F30008F8E50B3400F9EE241DF582EF1248ECC3
:10430300124379C39AC0E0EE2417122B0FD0E012A8
:1043130047E9602BEE2417F8EF3400F98808890980
:104323008882F583E024F21248CD240EFAA3E03408
:1043330000FB88828983124770124357C398F0A900
:104343000F02404912138B7403223400F50D750ECE
:1043530000780C2290034EE0F9120B3FE9F8850830
:1043630082850983E022F0850882850983E004F0D1
:1043730022A3A3A3A3A3F08E828F83E02274F4125B
:1043830003748A088B09EA12440EF0EA1313543FAC
:10439300124407A3A3A3F0EAC4131312440EA3A366
:1043A300F0EB1244001244187409780A120AB0128E
:1043B30043FE124417740A780A120AB0E50A54013C
:1043C300C0E0EC2418F582ED122B12D0E012441D4C
:1043D300740B780A120AB01243FEA3124417740C2A
:1043E300780A120AB01243FEA3A3A3A3A3A3A3A311
:1043F300F0740D7808120AB002273EE50A54018CC6
:10440300828D8322540F8C828D832254038C828D60
:1044130083A3A322A3A3A3A3A3A3F08A0A8B0B22A0
:10442300C082C08379008A828B83A3A3A3A3A3A39F
:10443300E090034D600FE070228A828B83A3A3E098
:104443007019098016E060138A828B83124B3E90A9
:104453000356E06A7003A3E06B70E7023D1A74F041
:104463001203748A0A8B0B890C8C088D091245AAD6
:1044730012458E8508828509831245D8E508124FB7
:1044830016E5091245CDC0E0E5082411F582E509DA
:10449300122B12D0E01245C5C0E0123210122B12BB
:1044A300D0E01248F4740812490D6011124576E504
:1044B3000824131248E81248F4E02408F08508821F
:1044C300850983A3A3A3A3A3A3A3A3E060178508DC
:1044D30082850983A31245B5E50824151248E8121D
:1044E30043792408F0850882850983A3A3A3A3A3A2
:1044F300E06019850882850983A3AE82AF831245E4
:104503009D85088285098312437404F0AA08AB09C8
:10451300120DCDE9F50D7056850882850983A3A395
:10452300A3A3A3A31245817014E0FA8A0EE50A251A
:104533000EF8E50B1247D5E50CC39A80211245B559
:10454300E8240EF8E91247D590034EE0F9120B3F29
:104553008E828F83E0F8E50CC39824F2C399C0E000
:10456300E5082417F582E509122B12D0E0F0A90D16
:10457300024F05E50A2408F8E50B3400F922124539
:104583008522E0850882850983A322850A82850B1B
:1045930083A3A31245EEE0F9EA22E0F8E50A28F541
:1045A30082E50B1247FC228A828B83124F0A120D7B
:1045B300C722AE82AF83E0F8E50A28F8E50B3400A2
:1045C300F922124601A3A3A3E022123967E8124598
:1045D300FAA3A3E022A3A3A3A3A3A3A3A3A3124584
:1045E300FA1245EEA3A3E0F9EAF822E0FA850A827B
:1045F300850B83A3A3A322F0A3E912460122F0852E
:104603000A82850B83A3A3A3A322C082C0837AC596
:104613007B0379E2121BB37AC57B03023D1AC08286
:10462300C083900356023D17C082C08374FE1209F3
:104633003B851882851983AA82AB83794B12464B3B
:10464300124B477402023CF0121BB3851882851982
:104653008322C082C083794A121BB3023D1A74F6C7
:104663001203749003CDE0FE04F0EEF9120D7F8B7C
:1046730009EA450970EDEE60EAF90247A174F01208
:104683000374EAFEEBFF8C088D09890A7410120B80
:104693001AE0F50B7411120B1AE0F50C120E9FEAD7
:1046A3004B7013E50C7042A90AAC08AD09EEFAEFA2
:1046B300FB120EB7806EE50A6021EA2402F582EB55
:1046C300122BDF850A082508F8E4340013E813F0F9
:1046D30070098A828B83A3A37401F0E50C6045E51E
:1046E3000B70068A828B83E4F07401650C7035E5E8
:1046F3000B9003D47004E4F0802AE004F0900D00E2
:10470300E0F89003D4E0C398401AE4F0900359E032
:104713006E7003A3E06F700CEEFAEFFB7901120CDD
:104723002312472A024F057A017B009003B0E0F978
:1047330012151122C082C08374016A7001EB7007E5
:104743007A011247618012900CF7124770EA4B60AE
:10475300051224BA800312472A023D1A7A207B00ED
:104763009003B0E0F91213E5223400F583EAF0A3D5
:10477300EBF022C082C083900CF902331AC082C0CE
:1047830083900CFB02331A12521822EE240CF5828A
:10479300EF3400F583123D11E849221208A77F0286
:1047A30002058DA2F0E4338518828519831247C26E
:1047B3007952121BB9221247C27942121BB922F055
:1047C300AA82AB8322AA08AB099003B0E0F91213C3
:1047D300BB223400F9E508241DF582E50912396787
:1047E300E8F0A3E9F022124FD4A3A3E022A3F0EE52
:1047F30024151247F922F582EF3400F583E02212E3
:104803004806223400F583E0F8A3E0F9888289831F
:1048130022E0F812481A22A3E0F98E828F83A3A321
:1048230022F0EE241812396422F0EE2416123964B1
:104833002274F4120374EAFEEBFF7A007B0412473E
:104843002E1248C31247E39003657409F0120DD981
:104853008A088B09AC08AD09EE2413122B0F124BF7
:1048630047124A17640170487A0F1248B660418AAA
:10487300828B8374021248CDFAA3E0FB8A828B8376
:10488300A3E0FC8A828B83A3A3E0FBEC85088285EB
:104893000983A3A312477188828983124B4B124168
:1048A3003F1247F0FAA3E0FB794A121BB91247C83B
:1048B300022BD47B001213AF8A088B09EA45092225
:1048C300900336123D11900CFB22F0EE241DF8EFFD
:1048D3001248D722123E52E0221248E0223400F559
:1048E300837401F022F582E509123967E8F0A3E940
:1048F300221248F8221248FC22F085088285098397
:10490300A3221248FCA3A3A3A322124905A3A3E055
:1049130022124D1E120E2D22EE2417F582EF12489D
:10492300E0120DD9EE241A123964EAF0A3EBF02257
:1049330074F412037474F312093B8908EAFEEBFF63
:104943007C0D7D007900851882851983AA82AB834B
:10495300121D75EE241D122B0F125209A3E0F874D9
:104963001F58600A7901121B897900024A0EE8A2D6
:10497300E55008740C120B1A7401F0E8A2E7500812
:10498300740B120B1A7401F0E8A2E6740A500812B1
:104993000B1A7401F08008120B1AE064017005EE23
:1049A30024138003EE24151250467402120B1AAA24
:1049B30082AB83121BA1122B0C124A1C1247E37405
:1049C3000A120B1AE0640170331224ED703B120DCE
:1049D300E58A0A8B0BA80AA90BEE240B122BDC68C1
:1049E3007003A3E0697022120DD9EAFCEBFD740297
:1049F300120B1AAA82AB83124A17600D851882859F
:104A03001983AA82AB83120C1DA908740D022BD142
:104A1300EEFAEFFB121B9BE922E0124A2122F8A3D4
:104A2300E0F98518828519832274F612037474F3EE
:104A330012093B8A088B09ECFEEDFF7C0D7D0079A2
:104A430000851882851983AA82AB831253AEA3A370
:104A5300A3A3A3A3A3A3A3124AB6124ABFF8A2E532
:104A63005008740B120B1A7401F0E8A2E750087493
:104A73000A120B1A7401F0E8A2E6EE500424138024
:104A83000224151250467402120B1A124AA8A3A349
:104A9300E0C0E0740C120B1AD0E0124D16120C1782
:104AA300740D02479EAA82AB83121BA185088285DF
:104AB300098322E0124A21E8F0A3E922F0123961C6
:104AC30012520DA3E02274F712037474E112093B2E
:104AD300EAFEEBFF8E828F83124B4BA3A3A3E0A2CC
:104AE300E050518E828F8312264D8A828B83A3A33B
:104AF300A3A3A3A3E054FE124B638A828B83124BBE
:104B03005CE0F98A828B83E0241CFAA3E012357DF2
:104B1300124B47120DD3E9701B741D120B1A124B63
:104B2300567011851882851983AC82AD83EEFAEF36
:104B3300FB120E1B024D888E828F83A3A3A3A3A314
:104B4300A3A3A3A3122BCA22124B4F22125211A3C7
:104B5300A3A322123999640422E0241B123E4B22A0
:104B6300123CF9AC82AD8322E9F8790074046860E1
:104B73000A740A68600574036870010902085974AD
:104B8300F61203748A828B837420F0A3A37401F05A
:104B9300120BC98A088B09AE08AF09EE4F60108E5D
:104BA300828F837401F09003A3E0700312491BEE1C
:104BB300FAEFFB0247A1C082C0839003B97401F0EE
:104BC300E9A2E350037403F0E9A2E15004E0D2E266
:104BD300F0023D1A74F612037479007C008A088B84
:104BE3000978081205D3F8FF070A4C084C084C084B
:104BF3004C084C014C054C0A4CFE4B0C80097C04C0
:104C030080050C80F67C089003B9E05C60030980A2
:104C130003EC6001090247A174F61203748A828BC4
:104C230083E07012A3124798600C8A828B83124B25
:104C330046121CD980047A007B000247A174F51246
:104C4300037474F312093B8A088B09ECFEEDFF75BC
:104C53000A12EA450970057900024D0F900356E0E8
:104C630065087004A3E065097014120DD9EAFCEB22
:104C7300FD124A137005750A018003750A00851831
:104C830082851983E4F004120B1AE508F0A3E50901
:104C9300124D16120B8DE960277403120B1AAA82A8
:104CA300AB83120B6FE964017016750A017403126A
:104CB3000B1AAC82AD83124A136021750A00801C63
:104CC3007412650A70169003A2E06402700EEEFC83
:104CD300EFFDAA08AB09120BA5E970DFEEFCEFFDAF
:104CE300AA08AB09120EA5E9F8740A687005750ADB
:104CF30001801774A0687012EEFCEFFDAA08AB09DF
:104D0300120EB1AA08AB09120EC3A90A740D0257F9
:104D1300167402124D1A22124D1E22123CF9AA8257
:104D2300AB832274F7120374EAFEEBFF8E828F8348
:104D3300A3A3A3A3A3A3A3A3E06015EE2415122B9F
:104D43000F122BBA120E45E9640170047901802514
:104D53008E828F83A3A3A3A3A3A3A3E06015EE2452
:104D630013122B0F124D7AFAA3E0FB120E45E964DE
:104D73000160D979008013123669A3A3A3A3A3A367
:104D8300A3A3A3E022741F1208A77F0102058D7459
:104D9300F012037474FD12093B8A088B09ECFEEDD3
:104DA300FF890B7413120B1AE0F50C750A017401D9
:104DB300120B1A74041252416048E50C601DEA2478
:104DC30017F582EB12548412522F8A828B83E0D21E
:104DD300E7F0EA2414F582EB123C1E124F15EB1296
:104DE300480274031257A7EE88828983A3A3F0EFC6
:104DF30088828983A3A312371312371A120BC3E9CC
:104E0300F50AA90A7403024F0274EC12037474F5D1
:104E130012093B8A0A8B0B890C8C0E8D0F741F129F
:104E23000B1AE0F50D7420120B1AE0F510A3E0F550
:104E3300117E01EE120B1A740AF0E97007E50DC337
:104E430033240AF0124FE77003024EE9124FFC7449
:104E530009F0A3E50CC43354E0450D12500EE50CE4
:104E6300702D7C008023ECC333F8E433F9E510287C
:104E7300F8E51139F988828983124EF6888289838D
:104E8300122E2CF0A30EAF830CECC3950D40D7E587
:104E9300082417F582E5091248DC120DD9E5082428
:104EA3001AF582E50912476C7403120B1AAC82AD32
:104EB30083AA0AAB0B120B75E96019E5082416F5F2
:104EC30082E509124EF0120B1AA882A983E5082481
:104ED300181247DC8508828509831257A3AA08ABF9
:104EE30009120BC3E9FEEEF9740B024FDF1248E01F
:104EF300740322E08E828F83F0A3AE82AF832212EB
:104F030008A77F0802058D1239C1F9EA2400E439A4
:104F1300FB22EA240BF5822274EE1203748A0C8BB3
:104F23000D890E8C088D097412120B1AE0F50F749B
:104F330013120B1A124FC89005401247986077E579
:104F43000FC333F8E433F9E8240EFAE93400FB1213
:104F530013AF8A108B11AE10AF11EE4F60588E82D3
:104F63008F8374D4F0A3A3E50CF0A3E50D124FD007
:104F7300E50EF0AC08AD09EE2405FAEF12524AEE45
:104F8300240D122B0FE50FF0850A08850B09750A0E
:104F9300007808120890E50FC333FCE433FDEE24D8
:104FA3000EFAEF124FBF1208A7EEFAEFFB9005407F
:104FB300125209121D80024049FAE5093400FB121E
:104FC300138B740322E0F50AA3E0F50B22124FD4EE
:104FD30022124FD822123C32A3A3A3221208A77F86
:104FE3000C02058D851882851983AA82AB83120E64
:104FF3002D8A088B09EA450922EA240BF582EB1274
:1050030047FCFEA3E0FF8E828F8322F0A3AE82AF24
:1050130083AC0EAD0FEEFAEFFB12502022121BA150
:1050230012502722EE2408FEEF3400FF22E0FA8E0E
:10503300828F83A3A3E022FEA3E03400FF8E828F3E
:1050430083E02212396412504D22E0FCA3E0FD22DA
:10505300122BCA120DC12274F6120374EAFEEBFF7F
:105063009003BA801388828983E06E7003A3E06F94
:10507300603A88828983A3A312479870E87A047BF5
:105083000012144B8A088B09A808A909E849601C77
:10509300888289831250B69003BA124B478882895B
:1050A30083A3A31247709003BA1247E30247A18A6E
:1050B300828B83EEF0A3EFF02274F41203747E006C
:1050C3009003BA80070E88828983A3A3124798703E
:1050D300F4EEC333FAE433FB125164607E7F009035
:1050E30003BA802488828983125049EFC333FAE4D8
:1050F30033FBE5082AF582E5093BF583ECF0A3EDE4
:10510300F00F88828983A3A312479870D79003ABCB
:105113001225277003A3E06978087019120894EE2A
:10512300F50A780A1208987C777D0379009003AB1F
:1051330012516F801A120894EEF50A780A12089831
:105143007C777D0379009003AB124B47120E5774A3
:10515300031208A7AA08AB09121451120BDB022B86
:10516300D412144B8A088B09EA450922122BCA125E
:105173000E5D22C082C08380128A828B83A3A31216
:1051830039729003BA1247E31214519003BA1238DA
:105193008270E6023D1A74F61203749003631239A7
:1051A3009E9003CE1251F81247E37ACE7B037950D7
:1051B300121BB99003CE122746FAEFFB120EBD90D5
:1051C30003CE12399E90054212479860257A067BDA
:1051D300001213AFEA4B601A8A828B8374D5F0A353
:1051E300A3E412521E0412522F90054212520912C6
:1051F3001D800247A11251FC22E0F8A3E0F99003BD
:1052030063228E828F8312520D2212521122E0F8F2
:1052130012521722A3E0F58388822212522222120D
:10522300522622F08A828B83A3A3A322125222A3A3
:10523300EEF0A3EFF022F582EF1247FCF9221249B8
:1052430014EA4B22FAE5093400FB121BA12212488F
:105253001BA3A3A3A3A3A3A3229020ECE493240161
:10526300F8E43400F97A027B002274F71203747EA7
:1052730000800412585A0E12537E40F77E00EE123D
:10528300529974FEF0A3041252AEE4F00EEEC394EE
:105293000340EB024D8D75F003A4F8A9F074BC280C
:1052A300F8740339F988828983A3221252B222F057
:1052B300888289832274F71203747F0080010F9020
:1052C30020E9E493F8EFC3985026EF12546A6A700A
:1052D30003A3E06B70E81258076C7003A3E06D60E2
:1052E3000A74FF6C700374FF6D70D31253758004DE
:1052F3007A007B00024D8D74F61203747CFF7DFFF0
:105303007AFE7BFF120E81EA4B70407508008036EF
:10531300E50875F017A4F8A9F0744C28F582740A0F
:1053230012547C600C744B28F582740A12547C70FE
:1053330013743D28FE740A39FF8E828F83125489B9
:10534300EEFAEFFB05081253E440C50247A174F4DB
:105353001203748A088B09ECFEEDFF800B120E9387
:10536300EEFCEFFDAA08AB09120E81EA4B70EE02C8
:105373002BD4743D28FA740A39FB229020E9E49374
:10538300F8EEC3982274F7120374EAFEEBFFEE4FB4
:1053930060101253A874FEF0A3041257AD14F0A3C7
:1053A30004F0024D8D7C177D007900121D758E82ED
:1053B3008F832274F7120374EAFEEBFF75080080F3
:1053C30018E50875F017A4F8A9F01258127003A392
:1053D300E06F600312586205081253E440E3024D84
:1053E3008D9020E9E493F8E508C3982274F612033C
:1053F30074120E818A088B09A808A909E849600A72
:10540300E8240DFAE93400FB80047A007B000247AC
:10541300A174F41203748A0A8B0BECFEEDFF75087A
:1054230000750900802EE50975F017A4F8A9F0129C
:10543300584D601EE50912546A650A7004A3E065BD
:105443000B700375080AEEFCEFFD12570960034366
:1054530008A005099020E9E493F8E509C3985004EE
:10546300E50860C202273E75F017A4F8A9F01254AC
:105473007522743D28F582740A39F583E022F5829A
:10548300EF123967E422122BCA120CB9221252B25C
:10549300A3A3A3A3A3A3A3A32274F21203748A084E
:1054A3008B09ECFEEDFF740E120B1A124FC8750C2C
:1054B300007C007D0180101213A9E50CF5F0EA844D
:1054C300ACF0750C007D007800790080031256461D
:1054D3001256A24003025568E8FAE9FBEA75F01791
:1054E300A4FA85F00D75F017EBA4250D12567E7006
:1054F30003A3E0F460D712565C65087004A3E0656B
:105503000960CA12565C6E7003A3E06F60BF125647
:105513005C650A7004A3E0650B60B2E8FAE9FBEA94
:1055230075F017A4FA75F017EBA4250DFB744B2A3D
:10553300F582740A12563D509474016D050C608D0A
:10554300E50CC39C4087E875F017A4F8AAF075F042
:1055530017E9A42AF9743D28F582740A39F58312F0
:105563004B4702563A78007900800312564612568A
:10557300AF4003025621E8FAE9FBEA75F012A4FAF8
:1055830085F00D12568E64FE7003A3E0F460DC1206
:10559300568465087004A3E0650960CF1256846ED3
:1055A3007003A3E06F60C4125684650A7004A3E01D
:1055B300650B60B7E8FAE9FBEA75F012A4FA75F037
:1055C30012EBA4250DFB74CC2AF582740812563D08
:1055D3005099E8FAE9FBEA75F012A4FA75F012EBB8
:1055E300A4250D12564F64016081E064027003022A
:1055F300556E74016D050C700302556EE50CC39C6A
:10560300500302556EE875F012A4F8AAF075F01273
:10561300E9A42AF974C328F582740802555FE50CDE
:105623006011EC700E7401650C60030254BA7C01C6
:105633000254C57AFE7BFF0225333BF583E014C396
:10564300940622E8240108E93400F922FB74C72AEE
:10565300F58274083BF583E022E8FAE9FBEA75F08A
:1056630017A4FA75F017EBA4250D12567122FB74DB
:105673003D2AF582740A3BF583E02212567164FEDB
:1056830022E8FAE9FBEA75F012A4FA75F012EBA42A
:10569300250DFB74C32AF58274083BF583E0229041
:1056A30020E9E493FAC3E89AE99400229020E5E420
:1056B30093FA740193FBC3E89AE99B2274F51203EE
:1056C300748A088B09ECFEEDFF750A008002050A57
:1056D3009020E9E493F8E50AC3985028EEFCEFFD27
:1056E300E50A75F017A4F8A9F012570960E0E50A76
:1056F30075F017A4F8A9F0743D28F582740A39F5FA
:105703008312371C8010743F28FA740A39FB121B6A
:105713009BE9221208A77F0302058D74F01203741C
:105723008A088B098C0A8D0B890C120E878A0E8BC3
:105733000FAE0EAF0FEE4F60551253A8E508F0A35E
:10574300E5091257AD1257A5E50C600AEE240F12B6
:105753002B0FE50C8006EE240F12579DF09003D01B
:10576300124798601A9003AAE064017008EE240EB1
:105773001254818010EE240E122B0F74078006EE54
:10578300240E12579D123062120223125794024FB5
:1057930005EE240D123964E8F022123964740122F3
:1057A300A3A3E50AF0A3E50BF022123593A3227419
:1057B300F51203748A088B09ECFEEDFF750A00806D
:1057C3000F1258127003A3E06F6003125862050AA8
:1057D3009020E9E493F8E50AC3985025E50A75F0AB
:1057E30017A4F8A9F012580765087004A3E0650927
:1057F30070CF744728F582740A39F5831250B68046
:10580300CD025719744728F582740A12547C227406
:105813004728F582740A12547C6E2274F7120374BB
:10582300EAFEEBFF7508008019E50812546A6E70F2
:1058330003A3E06F700A12584D7005E50812585B18
:1058430005081253E440E2024D8D743F28FA740AAE
:1058530039FB120B6FE922EE75F017A4F8A9F012C9
:105863005375120E93221252B2123D11E84922C00F
:1058730082C08374F812093B851882851983AC8230
:10588300AD8375838175829174081207B785188279
:10589300851983AC82AD83124A17640170047900C1
:1058A300800279017408023CF0C082C0838A828B33
:1058B30083E0D2E7F012161F026340C082C08379EF
:1058C30000125D78127319C082C083900330126F87
:1058D3003BD083D082C3E09CA3E09D500C1274E8BC
:1058E300FAA3E01258EF600109026340FBEA75F086
:1058F3000BA4FAA8F075F00BEBA428FB900332E09D
:105903002AF8A3E03B8882F583E0540F2274F71250
:1059130003748908125D78125E1EACF075F00BE912
:10592300A42CF9900332E028FEA3E039FF7401654B
:105933000860067402650870208A828B83125E0AEF
:105943001269EE74026508701B125CC9125E517015
:10595300138E828F83E4F0800BEA2403FCEB125D49
:10596300EC125DF8EEFAEFFB120B4502667374F46A
:105973001203741278DC79008E828F83E06076895B
:105983000A890B8065E50A75F00BA4FAA8F075F097
:105993000BE50B1258FC7046E50A75F00BA4F8AA48
:1059A300F075F00BE50B125E308E828F83E0850875
:1059B30082850983125F12850882850983A3126990
:1059C300EEEE2403FCEF125DF5126517127293AA33
:1059D30008AB09120B457901900330126F56E50AA3
:1059E3002401F50AE50B3400F50B125CD1E50A9AA4
:1059F300E50B9B40900267A774F5120374EAFEEB74
:105A0300FF740B120B1A12651C750A01EC4D602B07
:105A1300EC1278F8ED1273191269E67901120B5141
:105A2300E5084509606F850882850983A31278E636
:105A33007902AA08AB09120B51805AE5084509609F
:105A43002B12731D126C10126518125E3B700CEE54
:105A5300FAEFFB120B57E9F50A80CBEE2403FA1297
:105A63005D7370317903EEFAEFFB80CA8E828F8308
:105A7300A3E064FE7003A3E0F4700BEE24030A0AB0
:105A83000A125D73700CEEFAEFFB120B57E9F50A7D
:105A93008003750A00A90A7F0302058D74F71203B8
:105AA30074900330126678EA4B602FEA75F00BA40A
:105AB300FAA8F075F00BEBA428FBEAFEEBFF121437
:105AC3004B900332126678900332126F426012EEEB
:105AD300FCEFFD7900121D758007900332E4F0A3FB
:105AE300F0026673900330126EC6C3EE98EF9922EC
:105AF300C082C083EC4D6005121BA180097C087D28
:105B0300007900121D7502634074F6120374790064
:105B1300EA4B60187800880812749FEB1274E460F3
:105B2300047901780808E8C3940840EA02668B7494
