:020000040000FA
:06000000020A930201D187
:03002B000208CFF9
:0300430002074D64
:03005300020102A5
:03006B000208E8A0
:100083000201660101FF01010503010F10FEFF36A6
:1000930013361336133613EC11E6113613D321003E
:1000A3000000009722000000000C0000000C00017B
:1000B30000000415000000000000D015000000003F
:1000C300000000000000FFFF0101010077050000B0
:1000D30000EC05E80364006400B8010202000800B4
:1000E30000050207051E02051E020A0A03B80B02D9
:1000F300803E0102F1FF011496511800020206C06E
:10010300E074F21203EAA2AFE433FED2AFE5A7FF35
:10011300E5A1F5085F54106006121C7875A1EFE5A0
:10012300085F54086008121C7E75A1F7802BEFA2AC
:10013300E0C0D0E508A2E092F01209D0158182F068
:100143005017906198E0F89008C6E0C398A2D26572
:10015300D0335002E8F075A1FEEEA2E092AF7F012A
:10016300020449C0E074F21203EAA2AFE433FED200
:10017300AF9061A4E0F8759B00E5915854086008BE
:100183007591F7121CC6802AE591585410600875C2
:1001930091EF121CCC801BE8A2E0C0D0E591A2E055
:1001A30092F01209D0158182F05007E0C2E0F012FC
:1001B3001E109061A3E0F8E5E9585404600E121D87
:1001C300E675E9FB906193E0A2E640F2808BC0E024
:1001D30074F21203EAA2AFE433FED2AF9061A5E05A
:1001E300F8E5BF585404600675BFFB121E280201D0
:1001F3005CC3E498F8E499F91202358026C3E49AC3
:10020300FAE49BFBE920E7E9120235E498F8E49964
:10021300F922C3E498F8E499F9120235E498F8E472
:1002230099F9C3E49AFAE49BFB22EB20E7CFE92098
:10023300E7E0B90010BB0008E88AF084F8AAF022CE
:10024300E4FBC8FA22EB70227B10C833C8C933C958
:10025300335007C39AC3DBF280069A50012ADBEAC4
:10026300C833F4C8C933F4C9FA2275F008E4C833B3
:10027300C8C933C933C99AC99B5004C92AC93BD5D4
:10028300F0ECFBC833F4C8E4C9FA22080808EAC052
:10029300E0EBC0E086F0E7A4FA180986F0E7A42AA9
:1002A300FA180986F0E7A42AFA180986F0E7A42ABF
:1002B300FA1986F0E7A4FBE5F02AFA190886F0E7B5
:1002C300A42BFBE5F03AFA190886F0E7A42BFBE52B
:1002D300F03AFA18180986F0E7A4C5F02BFBE43AC4
:1002E300FA1908E7C5F0C6A426F6E5F03BFBE43AA5
:1002F300FA1886F0E7A4F6E5F00826F6E43B08F6DC
:10030300E43A08F6D0E0FBD0E0FA22E4CFC0E0E420
:10031300CEC0E0E4CDC0E0E4CCC0E075F020C3E69D
:1003230033F608E633F608E633F608E633F618182C
:1003330018EC33FCED33FDEE33FEEF33FFC3EC97E4
:1003430009ED9709EE9709EF97191919400FFFEC7B
:1003530097FC09ED97FD09EE97FE191906D5F0BE36
:10036300ECF709EDF709EEF709EFF7191919D0E0E2
:10037300FCD0E0FDD0E0FED0E0FF222518C582C00E
:10038300E0E51934FFC583C0E0E518C3958224F87E
:1003930010AF0885831985821880088583198582A3
:1003A30018D2AFCEF0A3E520F0A37808E608F0A3B7
:1003B300DEFAEFF0A3E58124FAF8E608F0A3E608F5
:1003C300F0A3E608F0A30808E608F0A3E608F0A304
:1003D30015811581D0E0FED0E0F8158115811581D6
:1003E300E8C0E0EEC0E022C0D02518C582C0E0E539
:1003F3001934FFC583C0E0E518C3958224F310AF19
:10040300088583198582188008858319858218D207
:10041300AFC8F0A3E9F0A3EAF0A3EBF0A37908E7F0
:1004230009F0A3D8FAECF0A3EDF0A3EEF0A3EFF0FC
:10043300A3D0E0F0A3D0E0F0A3D0E0F0A3E520F058
:10044300A3E5F0F0A322851983851882E0C0E0A319
:10045300E0F9A3E0FAA3E0FBA37808E0F608A3DF42
:10046300FAE0FCA3E0FDA3E0FEA3E0FFA3E0C0E00D
:10047300A3E0C0E0A3E0F5D0A3E0F520A3E0A3F55B
:10048300F010AF0885831985821880088583198544
:100493008218D2AFD082D083D0E0F8D0E032120BF2
:1004A30002B900030204E3E4900301788D790C8020
:1004B30002F0A3D8FCD9FA900E8DAA82AB839000E8
:1004C30086787D79018015E493A3AC82AD838A821B
:1004D3008B83F0A3AA82AB838C828D83D8E9D9E77F
:1004E3007582D075837D74001208107582DA758366
:1004F3002074001208100E000975F0108E1A8F1B5D
:1005030085821F85831E851882851983E0CEA3E02B
:10051300CF851F82851E83EBC9EAC8EDCBECCAC326
:10052300E833C8E933C9EA33CAEB33CBC3EA9EF5F0
:100533001DEB9FF51CB35004AB1CAA1DEC33CCED93
:1005430033CDD5F0DAAE1AAF1B22D083D082ECC004
:10055300E0EDC0E0E493A3FCE493A3FDED4C600D58
:10056300120625EC24FFFCED34FFFD80EFE493A39A
:10057300FCE493A3FDED4C600D1206F8EC24FFFCA4
:10058300ED34FFFD80EFD0E0FDD0E0FCE493A3C0A9
:10059300E0E493C0E022D083D082E9C0E0E493A3F7
:1005A300C386F0C5F095F0F908E493A386F0C5F08F
:1005B30095F0700BE493A3C3994005E9048002A36B
:1005C300E475F002A42582F582E5F03583F583D046
:1005D300E0F9E493A3C0E0E493C0E02285198385A6
:1005E3001882E0A3FEE0A3F5207808E0A3F608DF75
:1005F300FAE0A3FFE0A3C0E0E0A3C0E0E0A3C0E013
:10060300E0A3C0E0E0A3C0E010AF088582188583B3
:10061300198008858218858319D2AFD083D08202CE
:100623000816C0E0C3E49396087401939618400F2C
:10063300E49366700808740193661870007019A338
:10064300A3C3E49396087401939618A3A3400DD013
:10065300E0D0E0D0E0020589A3A3A3A3A3A3D0E045
:1006630022D083D082C5F0E493A3C5F0C395F0F5FF
:10067300F0E493A3C395F04005E5F0048001E4752D
:10068300F002A42582F582E5F03583F583E493A394
:10069300C0E0E493C0E0227404800474028000CCC0
:1006A300C0E0EDC0E0E518C39CCCAD1950011D10AE
:1006B300AF068C188D1980068C188D19D2AF1207CE
:1006C30092D0E0FDD0E0FC2274028000CCC0E0EDCB
:1006D300C0E0E518C39CCCAD1950011D10AF068CCA
:1006E300188D1980068C188D19D2AF120770D0E0BF
:1006F300FDD0E0FC22C0E0C0F088F0E4936670080F
:100703000874019366187000A8F0A3A3700BD0F0CF
:10071300D0E0D0E0D0E0020589A3A3D0F0D0E0225E
:10072300D083D082CCC0E0E493A360061207D21436
:1007330070FAE493A3600612092E1470FAD0E0FC59
:10074300E493A3C0E0E493C0E022C0E074F2120398
:10075300EAA2AFE433FED2AFC2C0E5D1A2E45003B4
:10076300121BEEEEA2E092AF7F01020449CAC0E081
:10077300E493A3C582CCC582C583CDC583F0A3C54D
:1007830082CCC582C583CDC583DAE5D0E0CA22CA4F
:10079300C0E0E0A3C582CCC582C583CDC583F0A3E9
:1007A300C582CCC582C583CDC583DAE6D0E0CA2233
:1007B3007009080808226016181818C6C333C6083B
:1007C300C633C608C633C608C633C6D5E0EA22C058
:1007D300E0E493A3D39C5010E493A3C39C400AD0BA
:1007E300E0D0E0D0E0020740A3A3A3D0E022C008FA
:1007F300C3E096F50808A3E096420808A3E09642F2
:100803000808A3E09645087001D3D00822C09FF5DD
:100813009FE473D09F22D083D082C09FE493C0E033
:10082300740193C0E0740293F59F22C5822518C515
:1008330082C583351910AF07F5198582188007F52E
:1008430019858218D2AFC583227404800A74038089
:1008530006740280027401C0E0F404120867D0E059
:10086300120ADD222518F58210AF08F5184002158B
:10087300198008F51840021519D2AF85198322BBD8
:100883000102E722C082C08389828A83BB0003E01E
:100893008002E493D083D08222C0D0251810AF0801
:1008A300F518500205198008F51850020519D2AF42
:1008B300D0D0226016080808C6C313C618C613C6CC
:1008C30018C613C618C613C6D5E0EA22C0E0C0D0C6
:1008D300E8C0E0E5A8D2AFC2C7A2E792AFD0E0F884
:1008E300D0D0D0E032C0E074F21203EA7A557B80B4
:1008F3001215BE758900C2C57F01020449C3E0C653
:1009030096F608A3E0C696F608A3E0C696F608A3F3
:10091300E0C696F622251810AF08F51840021519FF
:100923008008F51840021519D2AF22C0E0E493A362
:100933006C7009D0E0D0E0D0E0020740A3A3D0E080
:1009430022E76670100809E766700A0809E766700F
:10095300040809E76622E066701008A3E066700ADF
:1009630008A3E066700408A3E06622C3E09608A328
:10097300E09608A3E09608A3E096A2D265D03322BE
:10098300C3E096F008A3E096F008A3E096F008A36E
:10099300E096F022E026F008A3E036F008A3E03664
:1009A300F008A3E036F022E627F60809E637F60852
:1009B30009E637F60809E637F622E026F608A3E04B
:1009C30036F608A3E036F608A3E036F622C0E0E8E0
:1009D300C0E0E58124FCF8E6A2E7D0E0F8D0E0220D
:1009E300E647F60809E647F60809E647F60809E682
:1009F30047F622E657F60809E657F60809E657F6DA
:100A03000809E657F622E056F608A3E056F608A3CF
:100A1300E056F608A3E056F622E056F008A3E056A7
:100A2300F008A3E056F008A3E056F0227004226019
:100A33000D18C6C333C608C633C6D5E0F41822E47E
:100A4300C396F608E496F608E496F608E496F622CA
:100A5300600D08C6A2E713C618C613C6D5E0F32275
:100A6300C6F4C608C6F4C608C6F4C608C6F4C62249
:100A7300C3E7960809E7960809E7960809E7962267
:100A8300C3E09608A3E09608A3E09608A3E09622A5
:100A930075D000758140751801751903000204A112
:100AA300600C08C6C313C618C613C6D5E0F422E605
:100AB300F008A3E6F008A3E6F008A3E6F022E0F6C8
:100AC30008A3E0F608A3E0F608A3E0F622C5822512
:100AD30018C582C5833519C58322CAC0E0E6F0A3D1
:100AE30008DAFAD0E0FA22E0FAA3E0FBA3E0FCA3E1
:100AF300E0FD22EAF0A3EBF0A3ECF0A3EDF022E596
:100B0300C754F84401F5C77901222518F582E43565
:100B130019F58322C2AF75D69F020000221208196D
:100B2300E7E502120819F12400120819032500123F
:100B33000819552500120819B62500120819402670
:100B430000120819E42600120819382700120819A0
:100B5300512700120819772700120819B22700122B
:100B63000819F627001208191D28001208196E2803
:100B7300001208191E2900120819D6290012081993
:100B83009E2A001208195E2B00120819A22B0012CC
:100B93000819C72B001208190A2C00120819572C20
:100BA30000120819AF2D00120819352E001208196A
:100BB300532E001208197D2E00120819972E0012C9
:100BC3000819A62E00120819B12E00120819712F48
:100BD30000120819CA2F001208198C3000120819C4
:100BE300943000120819583100120819C431001248
:100BF3000819EF320012081900330012081976336E
:100C03000012081908340012081960340012081978
:100C130020350012081947350012081959350012FA
:100C23000819AC3500120819E93500120819F63510
:100C330000120819793700120819CE380012081962
:100C4300003900120819933900120819CC3900121F
:100C53000819183A00120819343B001208197D3D8F
:100C630000120819883D00120819933D0012081953
:100C73009D3D00120819A83D00120819C23D00123B
:100C83000819CC3D00120819D63D00120819E13DA0
:100C930000120819093E00120819643E00120819CF
:100CA300883E00120819AC3E001208190A3F0012D0
:100CB30008194E3F001208196A3F00120819E13F54
:100CC300001208191940001208196540001208198A
:100CD300C240001208197C41001208196043001237
:100CE3000819B94300120819E944001208190F45FD
:100CF30000120819984600120819144A001208191C
:100D0300E64B00120819AF4D001208195C4E001291
:100D13000819C74F00120819665000120819AB5082
:100D2300001208191551001208192451001208194C
:100D3300AB53001208195D5500120819CA55001269
:100D43000819A95600120819C257001208193F5969
:100D5300001208195E5900120819B3590012081934
:100D6300B85A00120819E05A00120819385B001229
:100D73000819175C001208195B5C00120819A65CBD
:100D830000120819115D00120819525E00120819A9
:100D9300B65E00120819046000120819646200129A
:100DA30008199562001208194D6400120819A2640B
:100DB30000120819A66500120819436600120819E3
:100DC3009C66001208194F6700120819F167001298
:100DD3000819916800120819366900120819F88079
:100DE300011208193781011208197E8301120819AB
:100DF300C88301120819E3840112081953850112EB
:100E03000819888501120819FC86011208197F89BF
:100E130001120819A88A011208193E8B0112081938
:100E2300469401120819DB9401120819C2970112A2
:100E33000819B59801120819169901120819329A5E
:100E430001120819179C01120819289E011208198A
:100E5300929E01120819649F011208191BA0011226
:100E6300081925A00112081953A00112081910A18D
:100E730001120819E7A101120819AEA201120819FB
:100E830060A30112081989A301120819ABA3011267
:100E9300081901A601120819D9A6011208191DA7DC
:100EA3000112081985A7011208193DA80112081992
:100EB3006FA801120819B3A801120819E9A80112B1
:100EC300081935A9011208198AA9011208198FA94D
:100ED30001120819E2A90112081907AA0112081937
:100EE30016AB011208197AAB01120819EAAB011209
:100EF300081976AC0112081943AF0112081927B07B
:100F030001120819AAB101120819E0B30112081954
:100F13008EB4011208193EB5011208197FB70112E8
:100F2300081922B80112081969B80112081915BA6B
:100F33000112081929BA0112081933BA0112081942
:100F43005BBA0112081967BA0112081986BA0112AD
:100F530008196BBC01120819A2BC01120819ACBC18
:100F630001120819E2BC0112081931BE0112081955
:100F730075BE011208191DBF0112081900C0011224
:100F83000819ABC001120819F7C101120819F5C2FB
:100F9300011208199BC3011208192BC40112081965
:100FA30042C40112081979C40112081983C4011239
:100FB30008198EC401120819ACC401120819F0C42F
:100FC300011208194DC50112081972C50112081939
:100FD3008CC50112081918C60112081935C7011268
:100FE3000819A2C70112081989C801120819B0C843
:100FF3000112081924C9011208199FC901120819FD
:10100300A3CA0112081999CB0112081948CC01127D
:1010130008195BCD01120819F7CD0112081984CE06
:101023000112081962CF011208199ACF0112081987
:10103300F2CF01120819BBD001120819DCD001123A
:10104300081963D10112081987D101120819A9D10E
:1010530001120819F2D10112081908D40112081952
:10106300EFD401120819A0D501120819D6D701121D
:10107300081926D80112081966D801120819A8D828
:101083000112081904D90112081932D901120819D9
:1010930056D901120819A9D901120819D7D9011271
:1010A300081910DA0112081965DA01120819CBDAE6
:1010B300011208191FDC0112081942DE0112081976
:1010C300AFDE01120819D8DE0112081963DF01121D
:1010D3000819CADF0112081915E00112081939E0CD
:1010E300011208195DE001120819B8E0011208198C
:1010F300D3E0011208198CE1011208196796041252
:101103000819A69604120819788002120819BE80DD
:10111300021208199E8102120819A08202120819EC
:10112300A383021208192F85021208198D85021252
:1011330008194A8602120819688702120819D98702
:101143000212081915880212081963880212081975
:101153006D8802120819B188021208190D8902124A
:101163000819A88902120819258A02120819F48A93
:10117300021208198D8B02120819AD8B021208197D
:10118300E38B02120819148C02120819D58C02126F
:101193000819E58C02120819398D02120819548DA9
:1011A30002120819668D021208196F8D02120819AE
:1011B300C98D02120819258E02120819718E0212A6
:1011C30008198C8E02120819BD8E02120819DA8EC4
:1011D30002120819E68E021208195A90021208190F
:1011E300739002120819DA9002120819ED90021294
:1011F3000819FB9002120819AF9102120819939271
:101203000212081999930212081923940212081959
:101213002D94021208199A9402120819B194021219
:101223000819E394021208191C950212081946952D
:1012330002120819A79502120819C7950212081974
:10124300E595021208192B960212081951970212FA
:1012530008199E9702120819CD970212081943988C
:10126300021208196B9802120819A498021208199D
:10127300B298021208190A9902120819599902120E
:101283000819989902120819C89902120819F499B1
:1012930002120819FF99021208191D9A021208195D
:1012A300DF9A02120819E99A02120819249B021202
:1012B30008193A9B021208198F9B02120819A39B63
:1012C30002120819B19C02120819C49C02120819CF
:1012D300D99C021208197B9D02120819FE9D021265
:1012E3000819BC9E02120819C79E02120819F39F1F
:1012F300021208190FA00212081961A0021208199C
:10130300A0A002120819B5A00212081917A102120F
:101313000819A6A102120819F1A10212081942A480
:1013230002120819C0A40212081935A502120819DD
:1013330057A7021208196FA70212081972A70212FF
:1013430008197EA70212081992A7021208199AA770
:1013530002120819CDA7021208197DA80212081952
:10136300F3A80212081966A9021208191AAA02128E
:101373000819CFAA02120819EEAA021208198EAB95
:10138300021208199AAB02120819C5AB0212081906
:10139300C8AB0212081932AC021208195AAD021274
:1013A300081932AE02120819BDAE02120819D6AFDF
:1013B3000212081993B002120819CCB002120819CC
:1013C300FDB002120819BBB102120819EBB10212E7
:1013D3000819C6B2021208195FB302120819EAB358
:1013E300021208199BB4021208191EB50212081939
:1013F30050B50212081991B502120819EFA9031288
:10140300081954AA0312081991AA03120819E0AA89
:1014130003120819F6AC03120819D9AE03120819FE
:1014230043B2031208197EB203120819A0B20312C1
:10143300081903B30312081937B3031208195AB36F
:101443000312081987B303120819E3B30312081927
:101453002A9E03120819A89E03120819DE9E03127E
:1014630008194A9F03120819BDA003120819D9A02D
:10147300031208191EA103120819ACA103120819BB
:1014830005A20312081932A30312081944A4031274
:101493000819A1A4031208190DA5031208196EA5B2
:1014A30003120819AFA5031208195CA60312081941
:1014B3006EA70312081999A703120819E4A70312C8
:1014C30008192BA803120819BDA80312081978A933
:1014D30003120819B88904120819C98904120819D2
:1014E3001A8A041208195F8A04120819098B041254
:1014F3000819D3910412081911880412081969896B
:10150300041208192CF501120819D1F50112081952
:10151300F1F50112081911F60112081925F6011245
:1015230008197DF601120819ADF6011208192EF8F3
:1015330001120819D4F801120819B6F90112081991
:1015430057DD021208194AFA011208198DFA01121D
:101553000819F3FA0112081914FB01120819A0FB68
:1015630001120819D1FB0112081945FC01120819CF
:10157300F3FD01120819CDFE011208190FFF011224
:10158300081969FF01120819888404120819A9842B
:1015930004120819DF8504120819098604120819B0
:1015A300C9E50212081957CA0312081962CA0312BD
:1015B30008198BCA03120819A0CB03120819A1CD6D
:1015C300031208195FCE03120819ED9103120819CB
:1015D300F09103120819AA9203120819D592031263
:1015E30008191C93031208194193031208196293F3
:1015F30003120819969303120819CF9303120819BB
:10160300F894031208192F95031208194F95031222
:101613000819EA9503120819AF9603120819E696FA
:10162300031208195B9803120819FE98031208198C
:10163300F79903120819209A03120819749A0312CE
:1016430008193A9B03120819689B03120819FD9C99
:10165300031208197E9D03120819B19D031208197C
:1016630015F90212081961F902120819CFF90212C9
:101673000819F0F90212081907FA02120819B7FA41
:1016830002120819C0FA0212081913FB02120819F0
:101693003CFB02120819A3FB0212081934FC0212C4
:1016A300081976FC02120819C0FC021208191FFD62
:1016B300021208194BFD02120819DCFD0212081967
:1016C3001BFE021208195AFE021208198FFE02129B
:1016D3000819A1FE02120819B3FE02120819D2FE5C
:1016E30002120819DBFE0212081991FF02120819EF
:1016F300D1FF02120819DCDC03120819AFDD031253
:101703000819C9DD03120819DADD03120819EFDF1E
:10171300031208190EE0031208195682041208195D
:101723008C8204120819D582041208192584041224
:101733000819826900120819C16A00120819FD6AA2
:1017430000120819BC6C00120819E56C0012081984
:10175300786F00120819BC6F001208194571001246
:101763000819DD7100120819457200120819E67292
:101773000012081928730012081968730012081957
:10178300F37400120819637600120819887800129E
:101793000819B67800120819DD7800120819E678DE
:1017A30000120819417900120819D4790012081996
:1017B300F27C00120819737D00120819E0FF011270
:1017C3000819F6FF01120819C99504120819C4EF84
:1017D30003120819D7EF0312081974F0031208193A
:1017E300AFF003120819CAF003120819EFF003123D
:1017F300081934F10312081965F10312081996F157
:10180300031208191CF303120819919304120819FF
:10181300C79304120819E3930412081925940412B8
:10182300081935940412081967F80312081927F9DF
:10183300031208191AFA031208190080031208196F
:10184300588003120819418103120819DA8103121F
:101853000819248203120819868203120819DF82E9
:1018630003120819F38203120819D5840312081905
:101873005085031208197A85031208197387031216
:1018830008198E8703120819DD8703120819F387D5
:10189300031208190088031208193488031208195F
:1018A3004D8803120819DE8803120819ED88031204
:1018B30008194B8903120819A58903120819F3891A
:1018C30003120819068B03120819778D03120819DE
:1018D300AC8D031208193A8E031208199B8E03125A
:1018E3000819A08E03120819DC8E031208193E8F03
:1018F300031208190E9003120819339003120819E2
:101903003D9003120819409003120819AF90031277
:101913000819CA9003120819DD90031208190991D6
:101923000312081944910312081947910312081965
:10193300839103120819969103120819BD9103129A
:1019430008191996041208193196041208196BBD67
:1019530003120819BABD031208195CBF0312081950
:1019630018C10312081960C10312081948C20312EF
:10197300081979C3031208199BC303120819F7C383
:10198300031208197BC4031208190EE60212081980
:1019930039E6021208191CE702120819A1E702121C
:1019A30008190AE80212081956E802120819D5E8BC
:1019B3000212081967E902120819F3E90212081959
:1019C30035EA021208197EEE02120819FEEF02121E
:1019D30008193DF0021208191EF10212081921F12B
:1019E30002120819D5F1021208190AF30212081992
:1019F3006BF502120819F7F5021208191CF7021207
:101A03000819FBF7021208197DF802120819C6E13A
:101A13000112081980E201120819F2E201120819F1
:101A230001E3011208197BE301120819EAE3011229
:101A33000819F1E4011208191AE501120819BAE5A7
:101A43000112081908E60112081978E601120819AB
:101A530031E90112081908EA0112081975EA01129D
:101A63000819F2EB01120819A6EC0112081954ED3A
:101A730001120819AFED011208191AEE0112081923
:101A83001AEF01120819F4F00112081907F20112F2
:101A93000819A0F20112081912F301120819D8F358
:101AA3000112081936F3031208198AF303120819ED
:101AB300E2F3031208192DF4031208198FF4031229
:101AC300081928F50312081990F5031208199CF553
:101AD300031208190080041208193180041208192E
:101AE300EB8004120819518104120819C2810412EF
:101AF30008194F7E00120819C69204120819D792CA
:101B03000412081977930412081959860412081944
:101B13006786041208193F9704120819DF94041208
:101B23000819EF94041208190D95041208196E95FB
:101B330004120819D38F04120819589004120819B3
:101B4300BC9004120819D59004120819F7900412D6
:101B530008196191041208196C9104120819B791BC
:101B630004120819BFE803120819D5E8031208196B
:101B7300FEE80312081919E90312081934E90312DC
:101B830008193EE90312081948E9031208195BE929
:101B93000312081974E9031208191BEA031208193E
:101BA3009AEA0312081935E50312081943E50312EB
:101BB3000819BDE503120819A1E6031208195AE82A
:101BC30003120819DB7F00120819AFC403120819A6
:101BD3001CC503120819DDC5031208194DC60312EB
:101BE300081956C703120819CEC80312081932C9B7
:101BF3000312081987C90312081990C90312081997
:101C03009FC903120819B2C903120819C8C90312DC
:101C13000819D1C9031208196BD303120819C0D3C9
:101C230003120819BCD503120819EED503120819BB
:101C330010D60312081929D60312081942D6031223
:101C430008194CD703120819E7D703120819208B78
:101C530004120819448B041208195D8B0412081925
:101C6300908B04120819C18B04120819EF8B04120C
:101C73000819518C04120819608C041208196A8C13
:101C830004120819778C04120819D7F503120819DE
:101C9300FDF5031208193AF60312081949F603125F
:101CA300081968F603120819D0F603120819D9F6B1
:101CB3000312081938F7031208195CF703120819FD
:101CC3001BF80312081928F80312081939F803122C
:101CD3000819C0FF03120819DDFF031208195ED8A3
:101CE30003120819BCD903120819C9D90312081918
:101CF300DCD903120819FBD90312081911DA0312EC
:101D0300081925DA031208199ADA03120819FFDAF7
:101D130003120819AFDB0312081984DC0312081934
:101D230094DC03120819A3DC031208194694041265
:101D330008196A9404120819929404120819BA949F
:101D430004120819FDFA0312081924FB03120819D7
:101D530045FB03120819AAFB0312081963FD0312BA
:101D630008197CFD0312081988FD031208199CFD4C
:101D730003120819BAFD03120819C4FD0312081946
:101D8300CEFD03120819E1FD0312081934FE0312F4
:101D930008196DFE031208199CFE03120819EAFEC6
:101DA3000312081939FF0312081954FF0312081903
:101DB3005EFF031208196FFF03120819B5FF031220
:101DC30008197895041208192FB40312081959B485
:101DD3000312081975B40312081988B403120819F9
:101DE3009EB403120819FBB4031208192EB503128B
:101DF30008196AB90312081990BA03120819C3BA69
:101E0300031208190FBB031208193BBC031208196C
:101E130063BC0312081978BC0312081988BC0312A7
:101E23000819CCBC031208192DBD031208193DBDB6
:101E330003120819818C041208199C8C04120819C6
:101E4300C58C04120819DF8C04120819048D0412BE
:101E53000819238D041208193B8D04120819698D82
:101E630004120819838D04120819B0960412081974
:101E730044EC031208194BEC0312081957ED031233
:101E8300081987ED03120819ADED03120819D0EDF7
:101E930003120819F2ED031208192CEE03120819A4
:101EA30092EE03120819CBEE0312081917EF03126F
:101EB300081944EF0312081964EF03120819C78EB7
:101EC30004120819DF8E04120819CD8F04120819A1
:101ED300D08F04120819B48D04120819268E041227
:101EE3000819648E04120819A58E0412081967E1F3
:101EF3000312081986E103120819D5E10312081920
:101F0300F1E10312081922E20312081932E2031263
:101F130008193FE2031208194CE20312081938E3C7
:101F23000312081976E30312081980E30312081950
:101F330090E4031208199BE403120819ADE4031299
:101F43000819B6E403120819C0E403120819AECE47
:101F530003120819F3D20312081901D30312081943
:101F6300F496041208192197041208197DFF01122F
:101F730008194ADD0212081944DA02120819A6D711
:101F8300021208196FD602120819C3D502120819D2
:101F930009D402120819B9D10212081940D1021248
:101FA3000819E7D00212081977D0021208194ED087
:101FB300021208192ECE02120819FACD02120819BC
:101FC300C7CD02120819ABCD02120819C4CC0212F4
:101FD30008197CCC02120819C7CA0212081947CA89
:101FE3000212081944CA0212081941C90212081937
:101FF3000FC90212081982E402120819DFE3021260
:10200300081992E2021208193DE0021208195BDF77
:10201300021208194CC80212081977C602120819CD
:1020230008C602120819DAC5021208193FDF0212A4
:102033000819D7C502120819C4C5021208196FC5B9
:10204300021208195EC50212081950C402120819B7
:10205300DFDE0212081997DE02120819E4C903121F
:1020630008191AC402120819C8C30212081969C34D
:102073000212081938C30212081900C00212081903
:10208300C0BF02120819B4BF0212081914BF02120A
:10209300081954BE02120819D6BB0212081967B9EF
:1020A3000212081925B902120819F9B70212081900
:1020B300AEB702120819EDB60212081930B60212B1
:1020C3000819C6B50212081900B602120819E5DD8F
:1020D3000212081907FA0100000080FBE4730001F3
:1020E3003636010100010201000103010001040170
:1020F300060605020000070100340801000F090469
:1021030001010D0100FF0E08000017020000190174
:1021130000FF1A0100011B0100FE1C0100081D0243
:1021230000001F0100012001000121020000230122
:10213300000F2402000026010001270100082802E5
:1021430000FF2A0100072B0102402C0100002D0192
:1021530000012E0100012F0100FF30010B1C31088B
:1021630000003A0100083B01000F2F0100000302A9
:1021730071023001600211027002010202020202C6
:102183008002100261023A0041006302730272028C
:10219300620243020002130238000002000204023A
:1021A30012020002000200020002040204023700CD
:1021B30037003C02440200023900000200026502BB
:1021C300000235028102000205028202830200023C
:1021D3000300710030016000110070003102200320
:1021E30050048000100061000000140063007300BD
:1021F30072006200430000001300060000000000AC
:1022030004001200000000000000000004000400AD
:10221300370037003C0244000000000000000000CB
:102223006500000035008100000005000000830008
:102233000000030471040204600411047004020426
:10224300020401040204100461040004140463047E
:1022530073047204620443040004130406040004B8
:1022630000040404120400040004000400045104E4
:102273006400000400040004440400040004000497
:1022830000046504000435048104640005040004AB
:102293008304000401037103010301030103010328
:1022A30001032203020301031003000300030003DD
:1022B3000003000300030003420300032403060397
:1022C300000300030403120325032303250323034D
:1022D3000403040300030003000344030003000397
:1022E3002303000365032100350381030003050372
:1022F3000003000300030101710101010101110148
:1023030001013101010101018001100161013B0063
:10231300140063017301720162014301000113019F
:1023230006013D0135000401120100010001000115
:10233300000104010401330133013C014401320172
:102343003600000100016501000135008101000133
:10235300050182018301000136000100060000002F
:102363000F0000000000000000000000000003FF59
:10237300FF00000403FFFF0000FFFF0FF40100054F
:10238300C4040320000100030B0000000000000050
:102393000003010F00004A1A1300EA1901004A1A48
:1023A3000200A2190300A8190400AE190500B4190C
:1023B3000600C0191100DE191400E4191500D21922
:1023C300FFFF000001260E06500E084A0E0B680E92
:1023D30010A20D022C0E053E0E07320E0C080E0D38
:1023E3001A0EFF000003EAF5E5D5D5C5B5A5959509
:1023F300858575756565555545453535252515150A
:1024030005461276124C125212701264125E127C3E
:1024130012821288129412581240123A1200160FA6
:1024230000000B150B020002220F320000063613C8
:1024330048134E13101254130A1216124A11441160
:10244300801186117A1132119613B413BA139C13A7
:10245300A813A213303016181920231A1C1E300C8F
:102463000E020B040B0A0708000F00383C3E363BF4
:102473003B352B432C303017181921301B1D1F30CF
:1024830000011916181616152303000003494842C4
:102493004D18172505028A135A1360136C1366131C
:1024A3006A128E12AE139A12A012020402010101E3
:1024B30001090256115C1150118C1100000000003B
:1024C300006211741100BE040A150004007F00E8C5
:1024D300030C002800000000000308100C0A030886
:1024E3000900040001FF1E1E0C05040F1008C08222
:1024F300C0838A828B83E0D2E7F01219000235A5EC
:10250300C082C08379001229BD12590EC082C083D4
:10251300900334124694D083D082C3E09CA3E09D01
:10252300500C125FE2FAA3E0122534600109023570
:10253300A5FBEA75F00BA4FAA8F075F00BEBA42841
:10254300FB900336E02AF8A3E03B8882F583E0544E
:102553000F2274F712037E89081229BD122A63AC75
:10256300F075F00BE9A42CF9900336E028FEA3E004
:1025730039FF7401650860067402650870208A8259
:102583008B83122A4F12398574026508701B122936
:102593000E122A9670138E828F83E4F0800BEA2446
:1025A30003FCEB122A31122A3DEEFAEFFB120B2643
:1025B3000238E274F412037E12690979008E828F65
:1025C30083E06076890A890B8065E50A75F00BA4C0
:1025D300FAA8F075F00BE50B1225417046E50A7574
:1025E300F00BA4F8AAF075F00BE50B122A758E8296
:1025F3008F83E0850882850983122B57850882859E
:102603000983A3123985EE2403FCEF122A3A123709
:1026130063125388AA08AB09120B2679019003347D
:10262300124D9DE50A2401F50AE50B3400F50B1262
:102633002916E50A9AE50B9B4090023B2F74F5128D
:10264300037EEAFEEBFF740B120B0D123768750A5B
:1026530001EC4D602BEC126925ED12590E12397DF8
:102663007901120B32E5084509606F8508828509F7
:1026730083A31269137902AA08AB09120B32805A99
:10268300E5084509602B125912123FDC1237641218
:102693002A80700CEEFAEFFB120B38E9F50A80CBB7
:1026A300EE2403FA1229B870317903EEFAEFFB80B6
:1026B300CA8E828F83A3E064FE7003A3E0F4700BE1
:1026C300EE24030A0A0A1229B8700CEEFAEFFB1281
:1026D3000B38E9F50A8003750A00A90A7F0302058E
:1026E300DF74F712037E9003341238F2EA4B602F43
:1026F300EA75F00BA4FAA8F075F00BEBA428FBEA3B
:10270300FEEBFF1217269003361238F290033612AF
:102713004BE26012EEFCEFFD790012166C8007901D
:102723000336E4F0A3F00238E290033412434CC3BF
:10273300EE98EF9922C082C083EC4D6005121EE82B
:1027430080097C087D00790012166C0235A574F6A9
:1027530012037E7900EA4B601878008808125C55F2
:10276300EB125FDE60047901780808E8C39408403F
:10277300EA02398E74F712037E74F3120918ECFE21
:10278300EDFF851882851983E4F004120B0DEAF03E
:10279300A3EB12510E7403120B0DAC82AD83EEFA50
:1027A300EFFB120B4AEEFAEFFB120B500238DD740B
:1027B300F712037E74F3120918ECFEEDFF851882FD
:1027C300851983E4F0EAFCEBFD7403120B0D122B65
:1027D300507401120B0D1239798E828F8312398551
:1027E30074FE68700374FF696004790180027900E4
:1027F3000238DD74F712037EEAFEEBFF12285470F1
:102803001412285F8E828F83E0F4F88A828B83E030
:1028130058F0120B26A9080238E274F712037EEA75
:10282300FEEBFF7508008E828F83E060221228542E
:10283300701D12285F8A828B83E08F838E82F8E07B
:1028430058700CE0F88A828B83E048F0120B2680E4
:10285300C4120B2CE9F508740165082212691E12D3
:102863002A671229A9FAA3E039FB2274F412037E22
:102873008A088B097C007D0012290E122A3D122939
:10288300CE1269107900850882850983A3E064FE6E
:102893007003A3E0F460717E007F008062EEFAEFC4
:1028A3001225346057EEFAEFFBEA75F00BA4FAA891
:1028B300F075F00BEBA428FB900336E02AF50AA38E
:1028C300E03BF50B850882850983A312505C850ADA
:1028D30082850B83A3E06A7003A3E06B701EE50A95
:1028E3002403FAE50B1229B9700AE50A2403FCE56F
:1028F3000B122A3A1229C279011259241232AD124B
:102903002916EE9AEF9B4095023B2FEA24030A0A0D
:102913000AEB229003341254FBC32274F312037E96
:102923008A088B098A828B83A31269131229BD1229
:102933006910750C0012290E1229B970547E007F9C
:1029430000804912299BFAA3E0398A82F583E05477
:102953000F603612299BF50AA3E039F50BE50A242B
:1029630003FCE50B122A443400FB121EE2E9640166
:102973007017850A82850B83A31255BCA312398570
:102983001229C2750C011259241232AD12272C40A0
:10299300B2A90C7F050205DFEEF8EFF9E875F00B3D
:1029A300A4F81229A922AAF075F00BE9A42AF99038
:1029B3000336E02822EF122A9022126924EB221216
:1029C30029CE12591FEEF0A3EFF022E50812692574
:1029D300E5092274F512037EEAFEEBFF8E828F83F4
:1029E300A31269137C007D00EE24030A0A0AEF1286
:1029F3002A3DEEFAEFFB120B2CE9F50A7401650A86
:102A0300702912691E122A63AAF075F00BE9122AC3
:102A130075850882F583122A4F122A80700DE50806
:102A23002403FCE509122A31122A3D0226DD340073
:102A3300FDEE2403FAEF22122A443400FB120B4A60
:102A4300223400FDE5082403FAE50922A3122A54DF
:102A530022122A5822E0F8A3E0F98E828F83A32260
:102A6300122A67223400F583124350E875F00BA451
:102A7300F8221229AFF508A3E039F50922E8F0A3FB
:102A8300E9F0E5082403FAE509122A9022122A96AE
:102A93006401223400FB120B50E92274F312037E0B
:102AA30074E6120918126909750C01750800750995
:102AB30000750A00750B00851882851983E4F0EE12
:102AC3002403FCEF3400FD7403120B0D122B50E9A9
:102AD30064017023740B120B0D12397D7401120BF8
:102AE3000D1250607003A3E0696051851882851947
:102AF30083858208858309740D120B0DE4122B570D
:102B0300740E120B0D123985740D120B0DAA82ABC4
:102B130083120B6EE96401700B740D120B0D858229
:102B23000A85830B780A120854AC08AD09EEFAEF54
:102B3300FB120B3E740212089CE9F50CEEFAEFFB54
:102B4300120B68A90C741A12089C022996122E23E0
:102B5300120B74221238ED12434C22C082C08378C8
:102B63000079008003122C4E122916E89AE99B5033
:102B730029E8FAE9FBEA75F00BA4FAACF075F00B5F
:102B8300EBA42CFB900336E02AFCA3E03B8C82F5FC
:102B930083E0540F70CF7900800279010235A5C01C
:102BA30082C0839024CC1243A2EC75F012A4FCA83B
:102BB300F075F012EDA428FD79FF7A357B09121622
:102BC3006C0235A574F712037EE9FEEAFF7A007BF7
:102BD30000780079008028E8FCE9FDEC75F012A488
:102BE300FC85F00875F012EDA42508123063C39E2E
:102BF300400AE0FCEFC39C4003123182122C4E12B8
:102C0300305740D30238E2C082C083780079008015
:102C130003122C4E122C42501F123067F470F2E84C
:102C230075F012A4F8AAF075F012E9A42AF9743524
:102C330028FA740939FB80047A007B000235A590D9
:102C430024CC123118C3E89AE99B22E8240108E94D
:102C53003400F92274F012037E74F31209188A0AFD
:102C63008B0B8C0C8D0D8908EC450D6016AA0CABF3
:102C73000D120BC28A0E8B0FAE0EAF0FEE4F600319
:102C8300022D15120B988A0E8B0FA80EA90FE8FEC2
:102C9300E9FFE849607C9024DA122D7760227403FF
:102CA300650860067404650870167A047903120BCC
:102CB300929024DA122D8E40077A007B00022D7445
:102CC3009024D8122D77601B740165086006740286
:102CD3006508700F7A027901120B929024D8122D95
:102CE3008E50D68518828519837401F0120B0D124C
:102CF3005388AC0CAD0D7403120B0D122E1C740B08
:102D0300120B0D123770123D65E412537012108AC4
:102D13008004EE4F604A780074FF2508C394045082
:102D23000278048E828F831253888E828F83A3A3AB
:102D3300A3A3E508F0E88E828F83A3A3A3A3A31222
:102D4300539012022D12312F8E828F83A3A3A3A33C
:102D5300A3A3A3F0123126120AEA125908120AF6A3
:102D6300122D7C4005900E91E4F0120F64EEFAEF01
:102D7300FB0243561254AA49227A047900120B9299
:102D83009024CC125FC4EA98EB9922122DA7758385
:102D9300247582CCE493C398F8A3E49399F9C3EA26
:102DA30098EB9922E493F8740193F92274F21203D5
:102DB3007E74F31209188A088B09ECFEEDFF750A7D
:102DC30000EEFAEFFB120BC28A0C8B0DA80CA90DB7
:102DD300E849603E88828983E065087004A3E06562
:102DE30009602F88828983A3A3A3A3E0C39405501A
:102DF300211257B68518828519837401F0120B0DC1
:102E03001257BAEEFCEFFD7403120B0D122E1C7554
:102E13000A01A90A740D024E54122E23120B8022AA
:102E2300AA82AB83120B4A851882851983AA82ABC7
:102E3300832274F612037E122E71600FA3A3A3A341
:102E4300E014C39404500479018002790002398E9E
:102E530074F612037E122E71600FA3A3A3A3E014D2
:102E6300C39402500479018002790002398E120B57
:102E7300BC8A828B83E58245832274F612037E1219
:102E83002E71600BA3A3A3A3E070047901800279E0
:102E93000002398EC082C083EAFCEBFD7A007B001E
:102EA3000235A2C082C0837C007D000235A274F487
:102EB30012037E74F3120918EAFEEBFF8C0A8D0BE2
:102EC300C3EC94F8ED94FF4007EE4F7003022F6AB2
:102ED300750800750900802E851882851983740191
:102EE300F01232D5120B0D1232E360137403120B7E
:102EF3000DAC82AD83EEFAEFFB121EE2E97049E5F9
:102F03000824011231039024CCE41254B2E508984A
:102F1300E509995052E50875F012A4F8AAF075F086
:102F230012E509A42AF9125FF760D4EE4F70A97471
:102F3300FF650A700474FF650B60C41232C5650A2D
:102F43007004A3E0650B70B7E50875F012A4F508EB
:102F5300A8F075F012E509A428F50974352508FAD7
:102F630074093509FB80047A007B00023B2A74F460
:102F730012037E74F3120918750800120BC28A0A31
:102F83008B0BAE0AAF0BEE4F602A8518828519832F
:102F930074011238E7F8A3E0F9740B120B0D123A1F
:102FA30008120B627C127D0079FFEEFAEFFB12161A
:102FB3006C750801122D7C5009900E917401F0126A
:102FC3000F64A908023B2A74F712037EE9FE74FE1C
:102FD3006A700374FF6B7800790070058052122CBD
:102FE3004E123057504AE8FCE9FDEC75F012A4FC90
:102FF300AFF075F012EDA42F123063F460E0E8FC3B
:10300300E9FDEC75F012A4FC75F012EDA42FFD742C
:10301300352CF58274093DF583E06A7003A3E06BF8
:1030230070BC800912306714C394044017122C4EED
:10303300122C425018EE70EC12306764016005E008
:10304300640370E91232B6FAA3E0FB80047AFE7BD4
:10305300FF0238E29024CC1243A6C3E89CE99D22E8
:103063001231B722E8FAE9FBEA75F012A4FAACF0E0
:1030730075F012EBA42CFB74392AF58274093BF525
:1030830083E022120BD40235A5C082C0837901806C
:10309300F274F012037E8A0A8B0B7A047901120B05
:1030A300928A0C8B0DEA450D603EEAC333FAEB338B
:1030B300FB1217268A088B09AE08AF09EE4F60236F
:1030C3007AFE7BFF120BDA74FE6A700374FF6B6087
:1030D3001B8508828509831238F2E5082402123120
:1030E3000380E1750C0080047E007F00850A8285E1
:1030F3000B83E50CF0EEFAEFFB02435BE5082407D4
:10310300F508E5093400F509229024CC1243A6C33F
:10311300EA9CEB9D22E493FA740193FB221216605E
:10312300740322125919E4F09080D022E88E828F22
:1031330083A3A3A3A3A3A3A3A312315174011231A5
:1031430051A3F0EE241012591CE4F0A3F022123D17
:1031530071A3A3A322C082C0837A007B00800419D9
:1031630012318212310C50101231A1C3940550F068
:10317300E970EC12318B80047A007B000235A5EAFA
:1031830024010AEB3400FB22EA75F012A4FA75F06D
:1031930012EBA428FB74352AFA74093BFB22EAFCE0
:1031A300EBFDEC75F012A4FCA8F075F012EDA42869
:1031B3001231B722FD74392CF58274093DF583E091
:1031C3002274F712037E74F31209187E007F000243
:1031D3003269E50875F017A4F8A9F0126258FAA34A
:1031E300E0FBEEF8EFF9E875F012A4F8ACF075F037
:1031F30012E9A42C1232C46A7003A3E06B603FE5AA
:103203000875F017A4F8AAF0EA126257F8A3E0F9D8
:103213007401120B0DE0687003A3E0696020E508F8
:1032230075F017A4F8EAF974B128FC740A39FD742F
:1032330003120B0DAA82AB83121EE2E96014E508A8
:1032430075F017A4F8A9F074AF28FA740A39FB12C1
:10325300109605089024DEE493F8E508C39850031C
:103263000231D51232AD9024CC12659E5039EEF85E
:10327300EFF91232B6F47003A3E0F460E685188226
:103283008519837401F0EEF8EFF9E875F012A4F8EC
:1032930075F012E9A42AF91232D5120B0D1232E39A
:1032A30060C175080080AD0238DDEE24010EEF34F5
:1032B30000FF22E875F012A4F8AAF075F012E9A451
:1032C3002AF91232C922743528F582740939F58333
:1032D300E022743728F58274093912434A740B22A9
:1032E300E8F0A3E9123A10120B7AE922C082C083F4
:1032F3009003417438F0A3740EF00235A574F712ED
:10330300037EEAFEEBFF900377E06408601BE06452
:103313000460168E828F83E0540364017048123771
:1033230063123E5BE06406703D8E828F83A3A3E04D
:1033330064FE7003A3E0F4602D8E828F83A3A31237
:103343003979900368E0687003A3E069700BEE2499
:1033530015F582EF125FDE6008120EF2E9F50880C0
:1033630008120EF880F67508C2EEFAEFFB12172C5E
:1033730002281874F412037E8A088B098A828B83CD
:10338300E0F8A3E0FAE82AFAE43400FB1217268AED
:103393000A8B0BAE0AAF0BEE4F606385088285097B
:1033A30083E0FC7D00790012166C8E828F83A3A3C9
:1033B300126913120F348E828F83A3A3A3A312382F
:1033C300F2850882850983E0F8EE28F8EF340012CD
:1033D3003981850882850983A3E0C0E0EE240D12BC
:1033E300590BD0E0F0120F46EE240E12590BE912DE
:1033F3004FBDE0C0E0EE241112590BD0E0F0EEFA1D
:10340300EFFB023B2F74F412037E74EB1209188A4C
:10341300088B098C0A8D0BE9FE900377E064046046
:1034230005E06408700479C2802EA37808120AB2FA
:10343300EE90037E1235E3120AB27405120B0DE906
:10344300F07404120B0D7401F07407120B0DE4F009
:1034530090037774021235407415023B2C74F612F4
:10346300037E74EB120918EAFEEBFF124BDF6003D5
:103473000235047A077B001217269003391238F2BB
:10348300124BDF60788E828F83120AEA90033A121E
:103493003E5E120AF61267D7C0E0123510D0E0F094
:1034A300EE2405FAEF3400FB8A088B098A82F58340
:1034B300E0C0E012350BD0E0123B26E0C0E012354D
:1034C3000BA3D0E0123966120AEA851882851983A4
:1034D300120AF688828983E0C0E07405120B0DD0CE
:1034E300E0F0850882850983E0C0E07404120B0DC7
:1034F300D0E0F07407120B0D12353F80067910806F
:10350300027901741502398B123510A32290033905
:10351300E0FAA3E0F5838A82A3A3A3A322C082C017
:1035230083124BDF600D9003391254E9900339E4A1
:10353300F0A3F0120E621210360235A5E4123A100F
:10354300121F1822C082C083900338E0700312193F
:10355300D8120C1C804CC082C083900338E0900EBC
:10356300907004E4F0802D7401F0900338E0F4606F
:10357300237C41E0C394415002E0FCECF8E0C398A3
:10358300F0EC75F0E8A4CCA8F075F003A428FD7A5C
:10359300801243AE7A907B0E7941121F0080031292
:1035A3000BC8D083D08202081674F412037E74EB26
:1035B3001209188A088B098C0A8D0B900377740102
:1035C3001235E3120AB27405120B0DE9F0740412FA
:1035D3000B0D7403F07407120B0D12353F02345BAD
:1035E30012397178082274F712037E7C01120C2EB3
:1035F3000238E274F212037E74FC120918E985188A
:1036030082851983F0EAFEEBFF8C0A90037512465C
:1036130094120E568A088B09EA4509700579CA0285
:10362300375E8A828B83A3A3A3A3A3A3A3E064FE31
:103633007003A3E0F4700579C302375E900375123B
:10364300505C12109C850882850983A3A3A3A3A3BE
:10365300A3A3A3A3A3E0049003881238C1740212A6
:103663000B0D7402F014120B0DAA82AB83120FA080
:103673008A0C8B0DAE0CAF0DEE4F70030237551253
:103683003763123FD07406F0A3A882A98390036224
:10369300125526124329F0EE241312590B7401120A
:1036A30053687440F0A3E4124FB6A3A31237701209
:1036B3003985EE241112590BE50AF0EEFAEFFB12ED
:1036C3000BF8E9FE60030237579003777409F01291
:1036D30030FFAA08FB794B121F00850882850983F6
:1036E3001238B312398590036AE0F8851882851978
:1036F30083E068600CE090036A123A0C79E1121FD0
:1037030000900EE1123979900EE3E0687003A3E0B4
:1037130069601A90033B123985900EE312505C12D4
:103723000F5E900EE31246947A011243AE7A007B49
:10373300049003C2E0F91217F2900EE31237687493
:10374300027808120A2FAC08AD09FA7B041243B0C1
:1037530080027E10900560E4F0EEF97404024E548A
:10376300EE12591A22E0F508A3E0F5092212377484
:1037730022122A58A32274F512037E74E212091846
:10378300851882851983ECF0A3EDF0EAFEEBFF893F
:10379300087429120B0DE0F509742C120B0DE0F5DA
:1037A3000A900377E064046005E06408700579C259
:1037B3000238AB742A120B0DE064FE7003A3E0F42D
:1037C300700579C30238AB9003777403123A0C790E
:1037D30050121F00742A120B0DAA82AB83794B126D
:1037E3001F008518828519831238BA123985E508B6
:1037F30090036AF0742A120B0D1238B3123985E55F
:10380300099003621238C174CE55094480C0E07434
:1038130012120B0DD0E0F07401250A900388F074A6
:103823000F120B0D7402F0742A120B0D12397974F6
:1038330007120B0DE8F0A3E91238F87410120B0D00
:103843001239857405120B0DE508F0741B120B0D6C
:10385300E4F090037D740FF07A7D7B037954121F9B
:103863000090037C740FF07A7C7B037947121F006E
:1038730090037CE0C3940F50237405120B0DE0C03A
:10388300E07402120B0DD0E0F07404120B0D7401FE
:10389300F004120B0DAA82AB83121F247405120BC2
:1038A3000DAA82AB83121F06741E12089C0226DF28
:1038B30012434C90036B2212434C90037522F0EE9B
:1038C300FCEFFD7A897B03121EE82274F712037E54
:1038D300EB90037FF0120E448005740D12089C7F59
:1038E300010205DF1238EDA3E022123966A322EAB2
:1038F300F0A3EBF02212396CF8A3E0F92274F7126B
:10390300037E74F8120918EAFEEBFF79009003773F
:10391300E06408704485188285198374FDF0A374EC
:10392300FFF0120F2E7402120B0D1238F2740512EF
:103933000B0DE41238EDE0C0E07404120B0DD0E07F
:10394300123961C0E07406120B0DD0E0F074071257
:103953000B0DE4123A0C120F8274080238DF12398D
:1039630066E022F08E828F8322123971E022F08585
:1039730018828519832212434C22E0F8A3E0F9123E
:103983005919E8F0A3E9F02212089C7F020205DF2F
:10399300C082C08390034974E8F0A3740CF09003D1
:1039A300EF74DCF0A3740FF090034D741EF0A37456
:1039B3000DF090034F74E8F0A3740CF0900351746E
:1039C30024F0A3740DF00235A574F412037E74F988
:1039D3001209188A088B098C0A8D0B8518828519A0
:1039E300837808120AB27404120B0DE9F0740512FD
:1039F3000B0DE4F07406120B0DE4123A0C120C0AD0
:103A03007407023B2CE8F0A3E9123A102212397131
:103A1300AA82AB832274F412037E8A088B098A82FA
:103A23008B83125927EE4F7003023B24900312122B
:103A33004BE260158A828B83A3A3E0F9EEFAEFFBD6
:103A4300900313123E5E1220DF8E828F83A3A3A303
:103A5300A3A3A3A3A3A3E0640270748E828F83A3A2
:103A6300A3A3A3A3A3E054027003023AF68508823A
:103A7300850983A3A3E064E960798E828F83A3A37E
:103A8300A3A3A3A3A3A3A3A3E07014900EF6E0043F
:103A93008E828F83A3A3A3A3A3A3A3A3A3A3F08E25
:103AA300828F83A3A3A3A3A3A3A3A3A3A3E014121B
:103AB3003B26A3A3A37404F0900EF7125362E8F01D
:103AC300A3E912643B8B0BEA450B7003125E198E5C
:103AD300828F83A3A3A3A3A3A3A3A3A3E0640260EE
:103AE300128E828F83A3A3A3A3A3A3A3A3A3E064A0
:103AF30006702E8E828F83A3A3A3A3A3A3E0A2E0C9
:103B0300501F850882850983A3A3E0F9EEFAEFFB32
:103B1300121FC08E828F83A3A3A3A3A3A3E054FE8B
:103B2300F08009123D6D22740D12089C7F0402057A
:103B3300DF74EC12037E74DD120918EAFEEBFF8CCE
:103B4300088D097437120B0D780C120AC1750A001F
:103B53007405120B0DAC82AD831220087412120B84
:103B63000DE070087415120B0DE060207405120B44
:103B73000DE0A2E6501E8E828F83A3A3A3A3A3A36B
:103B8300A3A3A312505C120FB8E960087903121EB5
:103B9300D0023D537405120B0DE0540C6404700500
:103BA300750B018003750B00E0A2E55035750A0122
:103BB300E50BA2E0402C120F348A108B11A810A938
:103BC30011123763E0687003A3E06960157405128E
:103BD3000B0D12691A125058121FCCE960047904B4
:103BE30080AC7405120B0DE0A2E650227406120B92
:103BF3000DE0540370187405120B0DE0540C640CA3
:103C0300600CE0540C6408600575100180037510A6
:103C1300007405120B0DE05403F8740268700C1263
:103C2300691A125058121FF6023D53740168703A14
:103C3300E510A2E05003123D5B7405120B0DA88240
:103C4300A9837403120B0DE8F0A3E912434085180E
:103C530082851983123D65E0C0E07402120B0DD01A
:103C6300E0123A0C1220B6023D53E86003023D53C2
:103C730090035FE0640170108E828F83A3A3A3A3DC
:103C8300A3A3E07003023BE17422120B0D74021232
:103C93004340741A120B0D123985E510A2E0500847
:103CA3007405120B0D123D5BE50BA2E0506AEE2486
:103CB3000FF582EF125FDEC0E07417120B0DD0E038
:103CC300F0900314124BE27003023D53120F348A37
:103CD300128B13A812A913741A120B0DE068700348
:103CE300A3E069706B780C12084C780A12085878B4
:103CF30008120854A910740C120B0DAC82AD837416
:103D030021120B0DAA82AB83900314123E5B122087
:103D1300DF740712089C8038780C12084C780A125A
:103D23000858780812085490037512069EEE241260
:103D3300F582EF125D0C7423120B0DAC82AD83740C
:103D43000E120B0DAA82AB83121FB4740912089CC6
:103D5300742312089C02640612691A1254F7122083
:103D63000222E8F0A3E9123D6D22123D7122F08E8A
:103D7300828F83A3A3A3A3A3A32274F712037E12A8
:103D830018B80238E274F712037E1218CA0238E236
:103D9300C082C0831218C40235A574F712037E12C1
:103DA30018D00238E274F712037E7409120B0DE087
:103DB300F50878081208581218DC74010238DFC0BD
:103DC30082C0831218E80235A5C082C0831218EEA0
:103DD3000235A574F712037E1218F40238E274F761
:103DE30012037EEAFEEBFF890874016508701479FB
:103DF30000120D609024E9E493FC7900EEFAEFFBE6
:103E0300120CD60238E274F412037E74F912091804
:103E1300E9FE8A088B098C0A8D0B7413120B0D12A1
:103E2300505C9005AC124BE26027EE851882851931
:103E330083F07401120B0D7808120AB2EAF8EBF959
:103E43007405120B0D123A089005AC123E5B12205A
:103E5300DF023A03FB90034BE0F8A3E0F58388828B
:103E63002274F712037E900E93E0F97E00800B120A
:103E73005FCA540D64017001190E12405E5003E9CC
:103E830070ED0238E274F712037E900E94E0F97E2F
:103E930000800B125FCA548D64817001190E1240A9
:103EA3005E5003E970ED0238E274F212037E890B6F
:103EB300E975F006A4240CF508E5F01231078A0C25
:103EC300E508250CFAE5093400FB1217268A0C8B4A
:103ED3000DAE0CAF0DEE4F6027AC08AD09790012A3
:103EE300166C123763E50BF0EE2508F8EF3509F988
:103EF3008E828F83A3A3A3A3A3A3A3A3A312398512
:103F0300EEFAEFFB024E5774F612037EEAFEEBFF66
:103F1300120CB2900E92E0F8E9C398400990034561
:103F230012505C120CB8EE2402F8EF12566C900398
:103F330047125526900347E004F0EEFAEFFB120C0C
:103F4300BE850882850983E0025B22C082C0837933
:103F53000090034580010912505C8A828B83E582BD
:103F6300458370F20235A574F712037EEAFEEBFF78
:103F7300EE4F6056900345124BE2604E8882898370
:103F83007A007B00EE65827003EF6583600FAA827F
:103F9300AB83123FD0E5824583602F80E7900345D2
:103FA300123FDC687002EF698E828F8370081239CA
:103FB300799003458003126418123985EEFAEFFBFA
:103FC300122086EEFAEFFB12172C0238E2123FD4CE
:103FD30022124350888289832212434CEE22C082EC
:103FE300C083900345800488828983124BE2600B6F
:103FF30088828983124694EC4D70EC8A828B83E429
:10400300F0A3F0E849600688828983800390034522
:104013001238F20235A574F712037E90034580042B
:104023008A828B831240594B60257E0080010E12D9
:10403300405E50ECEE75F006A4FCADF0EA2CFCEB10
:104043003DFDEC2410F582ED1240AE70E180047A60
:10405300007B000238E21254FBEA221240B7EEC39F
:10406300982274F712037E7D0080010D1240B3ED98
:10407300C3985034ED75F006A4FEA8F0E8FFEA2ECD
:10408300FEEB3FFFEE2410F582EF1240AE70DCED45
:1040930075F006A4FEE8FFEA2EFAEB3FFBEA2411D3
:1040A300F582EB125FDE4CF00238E2125FEA69221E
:1040B3001240B722126924EB3400F583E0F822742E
:1040C300F612037E120DD87A007B008025EAF8EB06
:1040D300F9E875F006A4F8ACF075F006E9A42C1223
:1040E30054D01267E5A3E41255C6F0A31267EB128E
:1040F30069629024D4122D8640D37A007B00801C01
:104103008A088B0974037808120A2F124F84A37448
:10411300FEF0A3041253A6A3E41269629024DD12F5
:10412300416140DC7A007B00801D8A088B0974039F
:104133007808120A2F74D7125C56740D12649D749A
:10414300FEF0A3041269629024E312416140DB9004
:1041530024E7E493900353F012416B02398EE49306
:10416300F8C3EA98EB9400227CE87D037A107B0085
:104173009003C2E0F91217EC2274F012037E74F577
:104183001209188A088B09890A8C0BE9A2E05014DA
:104193007508FC7509FFA2E15005D2E402423ED244
:1041A300E302423E124E437003A3E06970057900B7
:1041B30002430BAC0A7902AA08AB09120DB4E960F9
:1041C300EDE50AF50C780C12085879027CFE7DFFA8
:1041D300AA08AB09124BBE12089CE960030243090B
:1041E300E50AC2E5F50A9003B5E07051E50AA2E6D7
:1041F300404B7403120B0DAC82AD83AA08AB0912BA
:104203000B56E970321244DF8A0C8B0DA80CA90DF2
:10421300E8FEE9FFE8496025EE24020A0AEF122AC4
:1042230096601AEE2402FCEF3400FD7403120B0DAA
:10423300AA82AB83121EE8E50AD2E5F50A90034889
:10424300E0F50C900368E0F50EA3E0F50F780E128D
:1042530008547D017C00900348E0F9AA0EAB0F12CD
:104263000D6C740212089CE9F8900348E004F0E82E
:104273006003024309E50AA2E55004740E80027448
:1042830006C0E07401120B0DD0E01259388A0E8B70
:104293000FAE0EAF0FEE4F606912432912434088F1
:1042A3008289837401F07478550AA312692AE50C94
:1042B30012692AA3E508F0E509124318E4F0E50AB8
:1042C300A2E5500F7403120B0DAC82AD83E82406F4
:1042D30012430F8E828F83A3A374FDF0A374FFF0A8
:1042E300E50B60159024EAE493F8E50BC3985009B5
:1042F300EE241312590BE50BF0EEFAEFFB120BF859
:1043030080067910800279C7740B8049FAE934007A
:10431300FB121EE82288828983A3A3A3A31243244A
:104323002212569FA322EE241712591C7401F01275
:104333000F2EEE241A12591CEAF0A3EB22F0126995
:104343001E340012434A22F58312435022E0F8A39D
:10435300E0F922740D12089C7F080205DF74F6123F
:10436300037E7A007B10125E2660089003D47401EA
:10437300F0802990064BE06401900EF47006E0FC97
:1043830079018004E0FC79037A007B00120CD6905B
:1043930024D21243A27A007B101243B002398E1248
:1043A30043A622E493FC740193FD227B009003C295
:1043B300E0F91217E62274EC12037E8A088B098C4B
:1043C3000C8D0D890E7414120B0D124D9D74161263
:1043D3000B0DE0F510A3E0F511120FB8E960077AB1
:1043E300FF7BFF0244DC900EF3E0640260030244AF
:1043F300CF7900AA08AB09120DBAA90E120DAE8A25
:10440300128B13AE12AF13EE4F70030244B78E82BA
:104413008F83A3A3A3A3A3E064018E828F83A3A3AB
:10442300706912505C8E828F83A3A3A3A3A3A3E01E
:10443300541860439024E8E4938E828F83A3A3A34C
:10444300A3F0EA650C7003EB650D6014EA650A706E
:1044530003EB650B600AEA65107003EB6511701FCF
:104463007810120854AC0AAD0BAA0CAB0D1210B4A1
:10447300740212089C8008900367125E10A3F07404
:10448300FE6A700374FF6B601D804EA3A3A3E064F8
:104493000360298E828F83A3A3A3A3A3E064047084
:1044A300057AFE0243E48E828F83A3A3A3A3A3E032
:1044B300640270089003B4E0640270101244DF8B4E
:1044C3000BEA450B6006AA08AB09800DAA08AB09E5
:1044D300900349123E5B1220DF02640690037512BB
:1044E3004BC41210782274F712037EEAFEEBFF121C
:1044F3000BAAE9700AEEFAEFFB120BB6E96006EEBF
:10450300FAEFFB80047AFE7BFF0238E274F01203B9
:104513007E8A0A8B0B8C0E8D0F8909750800120F8A
:10452300B8E979006003024686AA0AAB0B120DBAFA
:10453300A909120DAE8A0C8B0DAE0CAF0DEE4F60B8
:10454300198E828F83A3A3A3A3A3E0640270559063
:1045530003B4E064027003024684AA0AAB0B90031F
:104563004F123E5B1220DF120BBC8A0C8B0DA80C82
:10457300A90DE849700302468488828983A3A3A313
:10458300A3A3E0A2E04003024684750C01A2E1501C
:10459300687901AC0AAD0BAA0EAB0F120D06E970D8
:1045A300640246848E828F83A3A3A3A3A3E0640340
:1045B3007005750C0280528E828F83A3A3A3A3A3DD
:1045C300E0640160030246849003751246948E8270
:1045D3008F831249E98A0C8B0DA80CA90DE8496059
:1045E300D19024E1E493FA88828983E0C39A50C28C
:1045F300A3E0600302468480B988828983A3A3A3CE
:10460300A3A3D2E1F0EE4F603A8E828F83A3A3A3DC
:10461300A3A3A3E05418602B7508018E828F83A394
:10462300A312069E750CFE750DFF780C12085479C3
:1046330000AC0AAD0BAA0EAB0F120DCC740412081A
:104643009C803E900368E0650E7004A3E0650F70E4
:10465300149024E9E493FCA909AA0AAB0B120CD623
:10466300750801801CA90CAC0AAD0BAA0EAB0F1286
:104673000D06E9700C750801A909AA0AAB0B120D06
:1046830060A90802435BE50C2415F582E50D125978
:104693001F12537C2274EA12037E74F01209188AE3
:1046A3000C8B0D8C088D097426120B0DE0F514A3E9
:1046B300E0F5157512069003F5124BE260239003A3
:1046C30075124694AA08AB091210A28A108B11EA3C
:1046D3004511600D8A828B83A3E07005790002493E
:1046E300D1E50C241DF50EE50D3400F50F850E8282
:1046F300124BCEF51388828983A3A3A3E0FA8882A1
:104703008983A3A3A3A3E0F9EA2400FEE439FFAA63
:1047130008AB09120D66850E82850F83124A0CE0E1
:1047230029F50BE50AA2E5500375120E7487550AA5
:1047330070177418550A6418600FE50C2417F58276
:10474300E50D125FDE651260077901121ED0808CC1
:10475300530A78C3EE94F8EF94FF501D7900EEFAF4
:10476300EFFB1249DB601288828983A3A3A3A3A36F
:10477300A3E0541860030246DF78081208547D0052
:104783001249FF12089CE9F874036870030246DFBC
:10479300E8600302484A7418550A70030248FFE5AB
:1047A3000AD2E0F50AA2E45004D2E1F50AA90A12FA
:1047B30050551249DB605388828983A3A3A3A3A323
:1047C300A3E05418604488828983A3A3A3A3A3E02E
:1047D30064017036E51045116030900375124694FC
:1047E300888289831249E98A0E8B0FA80EA90FE8E4
:1047F30049601788828983A3E0600F851082851141
:1048030083A3125B2D50030246DFE50AF50E780EF3
:104813001208581249F212089CE9702B7C007D00A3
:1048230085148285158374FFF0A3F0850C82850DB2
:1048330083A3A3A3A3A3A3A3A3E06003124689A90D
:104843000B1250551218E2851482851583E0F4701B
:1048530003A3E0F460399003B4E0640270030246FA
:10486300DF124D8EE0FAA3E0123E571220DFEA6515
:10487300087003EB650960030246DFEEFAEF123EB0
:10488300571220DF851482851583EAF0A3EBF078B5
:10489300081208547D011249FF12089CA90AEEFA76
:1048A300EFFB120DBA8A088B09A808A909900368BF
:1048B300E0687003A3E06960030249C2EEFAEFFB0C
:1048C300120BBC8A088B09A808A909E849606E88FD
:1048D300828983A3A3A3A3E06401600D88828983F3
:1048E300A3A3A3A3E064027054851882851983AC43
:1048F30082AD83EEFAEFFB120B568055900361E015
:10490300600FE50AF50E780E1208581249F21208E4
:104913009CE50AF50E780E12085879027CFE7DFF9D
:10492300EEFAEFFB124BBE12089CE9600302484A01
:1049330085148285158374FFF0A3024891120F2E0C
:10494300EAFCEBFD851882851983AA82AB83121ECC
:10495300E8850C82850D83A3A3A3A3A3A3A3A3E04C
:104963006401700F1246897408120B0DAA82AB837F
:10497300121EE8124B981257A44430F50878081217
:1049830008587401120B0D85820885830978081273
:104993000854740B120B0D8582088583097808125D
:1049A3000854E513F50878081208587900EEFCEF6F
:1049B300FD125055120D00740612089C0246DF12B8
:1049C3004B9812590E124A0CE50BF0120F46741055
:1049D30012089C7F0E0205DF120DAE8A0E8B0FA804
:1049E3000EA90FE84922A3A31254FB1210A22279A5
:1049F30001AC08AD091254F0124BBE22AC0BA91343
:104A03001254F0120D6C7402221257ACA3A3A3A389
:104A13002274F012037E74F01209188A0C8B0DECC9
:104A2300FAEDFB750F089003F5124BE26014125B6D
:104A3300268A828B83E58245836007A3E0700302A5
:104A43004B93124B983400124BCEF50B888289831B
:104A5300124BA1E0FBEC2400FEE43BFF8882898338
:104A6300A3A3124BA1A3A3E0FBECF508E43BF509D8
:104A730088828983A3A3A3A3A3A3A3E0F50EE50AD6
:104A8300A2E45003750F10A2E550067408250FF534
:104A93000F748F550A700FE50C2417F582E50D127C
:104AA3005FDE650F60087901121ED0024B93530A33
:104AB300707800E50AA2E45022124B98125FDE24BC
:104AC30008FCA3E03400FD7408120B0DAA82AB832B
:104AD300121EE87808E50AC2E4F50AE50AA2E550E1
:104AE30028124B98125FDE28F8A3E03400F9E8247B
:104AF30008FCE93400FD851882851983AA82AB83FB
:104B0300121EE8E50AC2E5F50AAC0EA90BEEFAEFB0
:104B1300FB120D72E9F87403686075900368E06E28
:104B23007003A3E06F605EE87054E50AF50F780F39
:104B3300120858124BAF12089CE97054780A1208F5
:104B4300587401120B0D85820C85830D780C1208A5
:104B530054740B120B0D85820C85830D780C12088F
:104B630054E50BF50A780A120858A90EAC08AD09EA
:104B7300EEFAEFFB120D00740612089C8012740407
:104B830068700D80B7780A120858124BAF12089C50
:104B93007410024358E50C241DF582E50D22A3A3EE
:104BA300A3E0FC88828983A3A3A3A3227901124DE6
:104BB3009512591F124BC4124BBE22120D2A7401B7
:104BC30022E0FCA3E0FDAA08AB0922F583123FD43F
:104BD300A3E0F50A88828983A3A3E0229003391214
:104BE30055572274E812037E74F5120918EAFEEB96
:104BF300FF8C088D0989147423120B0DE0F50F74D3
:104C030024120B0DE0F512A3E0F5137426120B0D1D
:104C1300E0F516A3E0F5177428120B0DE0F50EA9C5
:104C23000F120D788A108B117401120B0D7408F09A
:104C3300E50EA2E450037410F0E50EA2E55004E083
:104C43002408F0851882851983AA82AB83120FA0EA
:104C53008A0C8B0DEA450D7003024D75EA2417F596
:104C630082EB124D87120F2EE50C241AF582E50D07
:104C730012590E1238F27403120B0DAC82AD83AAD3
:104C830010AB11120B56E9601D124D7F7403120B0A
:104C93000DA882A983E50C2418F582E50D12590E9F
:104CA300E8F0A3E98024E50EA2E4501FE5106E703E
:104CB30003E5116F7015124D7FE50C2418F582E59D
:104CC3000D12590EE512F0A3E513F0124D8E124D9D
:104CD3009D850A82F5837402F0A3E50E124DA5E5C6
:104CE3000FF0EE850A82850B83A3A3A3F0EF850A59
:104CF30082850B83A3A3A3A3124DA5A3A3A3E508B6
:104D0300F0E509850A82850B83A3A3A3A3A3A3F0DC
:104D1300AA10AB11120D66E92514850A82850B834F
:104D2300A3A3A3A3A3A3A3F0750800E50EA2E450D5
:104D330011AC12AD13E50A2408FAE50B1243117501
:104D43000808E50EA2E55014AC16AD17E50A2508D0
:104D5300F8E50B3400F9E8240812430F850C82852B
:104D63000D83A3A3E510F0A3E511F0AA0CAB0D127C
:104D73000BF8740B12089C7F100205DFE50C241658
:104D8300F582E50D12591F7401F022124D95125947
:104D93001F22E50C126925E50D22E0F50AA3E0F5D3
:104DA3000B22F0850A82850B83A3A32274F21203DC
:104DB3007E8A088B09ECFEEDFF890A7900124E43C7
:104DC3007003A3E069700479018073750B0190038C
:104DD30068E065087004A3E06509601F750B00783F
:104DE3000B120858A90AEEFCEFFDAA08AB09120F33
:104DF300F4740112089CE9F50B80417900EEFAEF97
:104E0300FB120DAEEA4B602B8A828B83A3A3A3A371
:104E1300A3A3E05418601C7508FE7509FF780812F7
:104E230008548A828B83A3A312069E12673A120840
:104E33009C80097901EEFAEFFB120C8EA90B80140A
:104E4300120DBA8A0C8B0DA80CA90D900368E068AB
:104E53002212089C7F060205DF74F412037E750894
:104E63001F75090C7A101264428B0BEA450B700311
:104E730012416B900353E014F0700C9024E7E49319
:104E8300900353F0120DC67E007F00806C8508826C
:104E9300850983A3A3A3A3E06059F46056E508241E
:104EA30004F582E509125E0A704985088285098343
:104EB300A3A3A3A3A3E064037019790285088285E1
:104EC3000983124694850882850983A3A312505C43
:104ED300120D06850882850983A3A3A3A3A3E06417
:104EE30001601085088285098374FEF0A304124FC4
:104EF300B6E4F01232AD1230FF9024D612659E4014
:104F03008C7E007F008039120ED48E088F097403C3
:104F13007808120A2F74972508FC740D3509FD7A59
:104F2300127B0D120EC2EA4B70DD8E088F097403DB
:104F33007808120A2F124F841267E5E4F01232AD9B
:104F43009024DDE493F8C3EE98EF9400501B8E0891
:104F53008F0974037808120A2F124F8CE82407F57F
:104F630082E9125E0A70D680A17E007F00800A1259
:104F73004F97600214F01232AD12659B40F1023B71
:104F83002F124F8C888289832274972508F8740D19
:104F93003509F922EEF8EFF9E875F006A4F8AAF05E
:104FA30075F006E9A42AF9743728F582740D39F5EA
:104FB30083E022124FBDA3A3A322F08508828509B3
:104FC30083A3A32274F712037E74E1120918ECFE83
:104FD300EDFF750800EE4F60728A828B83E0241C1C
:104FE300125E3B124BE260638A828B8312505C85B4
:104FF3001882851983AC82AD83EA241BF582EB12F8
:105003005D0CEA241CF582EB125058120F16740B38
:10501300120B0D1250607003A3E069702E7402121C
:105023000B0DE064017024741D120B0D123E5BE046
:1050330064017017741D120B0D123E5DA3A3E0F8FB
:105043008E828F83E0687003750801A908741F02BC
:1050530038DF124D953400F5831254FB22122A5483
:10506300E0682274F412037EE97024790090034D02
:10507300123E5B1220DF8A0A8B0BAE0AAF0B74FE63
:105083006E700374FF6F701A9024E4E493601379D5
:105093000190034D123E5B1220DF8A0A8B0BAE0A8E
:1050A300AF0B120F6402340174F612037E74F31211
:1050B300091812167E8A088B09AE08AF0990036897
:1050C300E06E7003A3E06F60E9120F3AEA6E7002BC
:1050D300EB6F60DEEEFAEFFB120FB8E970D4EE4F20
:1050E30060D0851882851983E4F004120B0DEEF06D
:1050F300A3EF12510EE970BA74FE6E700374FF6F62
:1051030060B0EEFAEFFB740D02398B123A10120BFA
:105113006E22C082C083120F640235A57F0A020586
:10512300DF74F212037EEAFEEBFF8C0A8D0B890813
:10513300740E120B0DE0F50974FC6E700374FF6FAF
:1051430070057900024E577900120DBA8A0C8B0D47
:10515300AE0CAF0D900368E06E7003A3E06F7006B2
:10516300E509A2E650DCA909126628706179007A84
:10517300FE7BFF126628705674185509700302529D
:105183005B780079008003122C4E9024D6122C45B4
:10519300400302525BE8FAE9FBEA75F007A4FAACB4
:1051A300F075F007EBA42CFB74252AF582740C3BF5
:1051B300F583E0541870D0E875F007A4F8AAF075E9
:1051C300F007E9A42AF9741F28F8740C39F98882C6
:1051D3008983A3A3A3A3A3A3E05418600974185558
:1051E30009700302514588828983EEF0A3EFF074BE
:1051F300FE650A700474FF650B6003125382888294
:105203008983A3A3A3A3A3A3E509F0A2E0500D8878
:10521300828983A3A3A3A3A3A3D2E2F074016508A5
:1052230088828983A3A3A3A3A3703874011253A60E
:10523300E0541860289024E8E49388828983A3A328
:10524300A3A31253701210A28B0DEA450D60030243
:1052530051457800790080397902025147900367FC
:10526300E080D7E06401700302514588828983A3FB
:10527300A3A3A3A3A3E0541860079024E8E49380B6
:1052830004900366E0124318E508F0025145122C1E
:105293004E9024DEE493FAC3E89AE99400400302B3
:1052A30051457A007B00804BEAFCEBFDEC75F0077F
:1052B300A4FCAEF075F007EDA42EFD74212CF5824D
:1052C300740C3DF583125927E8FCE9FDEC75F017E2
:1052D300A4FC85F00975F017EDA42509FD74AF2C26
:1052E300F582740A3DF583E06E7003A3E06F609E60
:1052F3001231829024D612310F40AD1243A2EC6AD0
:105303007002ED6B7088E875F017A4F8AAF075F0D9
:1053130017E9A42AF974AF28FE740A39FF7C177DB4
:10532300007900EEFAEFFB12166C8E828F83125314
:1053330088900375125362A3A3A3A3A3A3E8F0A3C6
:10534300E91253687401F0EE240E12590B74011222
:10535300539012022DEE240D12590BE802528D12B6
:105363003774A3A322F0EE240F12591C22F0125318
:1053730079AA0AAB0B22900375E0FCA3E0FD228817
:10538300828983A3A3E50AF0A3E50BF022F012536D
:1053930095229024E1E4932401F8E43400F97A029D
:1053A3007B0022124324A32274ED12037E8A088B0E
:1053B30009890E1254D9400579050254A712192AF6
:1053C300AA08AB091255AB9024D41254AA650A70EB
:1053D30003E9650B70077AFE7BFF1255AB9024D46B
:1053E300E41254B2E50A98E50B9940030254A5125E
:1053F30054B66012E50A75F006A4F875F006E50BDD
:1054030012550112172CE50E6018E50A75F006A473
:10541300F8AAF075F006E50B12552D701A79010202
:1054230054A7E50A75F006A4F8AAF075F006E50B93
:1054330012550EE4F0A3F0E50A75F006A4F8AAF0FD
:1054430075F006E50B1254CEA31257BA88828983EE
:10545300A3AA82AB8312551C8A828B83E0603F121E
:1054630054B6603A8E108F117512007810120850DE
:10547300E50EC333FCE433FDE50A75F006A4F50A33
:10548300A8F075F006E50BA428F50B743B250AF587
:1054930082740D350B12505A12312012089C790078
:1054A3008002790702663E122DA7E8229024CC12CF
:1054B3005FC522E50A75F006A4F8AAF075F006E5C3
:1054C3000B125509F8A3E0F9E84922A42A125662FF
:1054D30088828983A322ECFEEDFF9024DFE493F816
:1054E300E9C39822F5831254FB12172C22E50C1200
:1054F3006925E50D3400F583E0FAA3E0FB2212559C
:1055030009FAA3E0FB2212550EE022A42AF9743B08
:1055130028F582740D39F58322E50EF0900EF5120D
:10552300552622E088828983F022125686F50CE9FB
:105533003400F50DE50EC333FAE433FB1217268569
:105543000C82850D83EAF0A3EBF0850C82850D8335
:1055530012555722124350E8492274F412037EEC89
:10556300FEEDFF740C120B0D1239798808890912AC
:1055730055ABAC0AAD0BECF8EDF99024D41255B34E
:105583005021E875F006A4F8AAF075F006E9125464
:10559300CEE08E828F831255C61255BC123985799F
:1055A3000080027904023B2F120D3C8A0A8B0B22E6
:1055B300123118C3EC9AED9B2212434C8508828565
:1055C30009832212569B2274F612037E7E007F000B
:1055D3008028EEF8EFF9E875F006A4F8ACF075F062
:1055E30006E9A42CF9743928F582740D1262496A0C
:1055F3007003A3E06B60571232AD12659B40D31268
:1056030065967002E96F704674FE6A700374FF6BEF
:10561300703C7E007F0080031232AD12659B502EDA
:10562300124F9770F3EEF8EFF9E875F006A4F8124D
:10563300565812568D6017125674F8E912566C8834
:10564300821254E7850882850983E4F0A3F0EEFA19
:10565300EFFB02398E75F006E912566022A42AF98F
:10566300743728F8740D39F9223400F98808890948
:1056730022EEF8EFF9E875F006A4F875F006E912E2
:10568300568622125660E8240422A3A374FE1256FF
:105693009812555722F0A30412569F22F08882894C
:1056A30083A3A3A3A32274F612037EEA241DF58227
:1056B300EB1257A4F9604BEA241DF582EB125FDE6F
:1056C3002402FCA3E03400FD1254DD40030257978B
:1056D300780080298C828D83E0F508A3E0FFE5083C
:1056E3002400E43FF509E833FEE433FF747F2EF52D
:1056F30082740D3FF5831257BA12579A08E8C3997B
:1057030040D28A828B83A3A3A3A3A3A3A3A3A3129D
:105713004694900368E06C7003A3E06D700F7C7F88
:105723007D0D1229BD125058120D308067EA2411E5
:10573300F582EB125FDE605CFC74FF2CF0750801F0
:10574300780812085875087F75090D7808120854EF
:10575300E9F5087808120858EA2412F582EB125F7B
:10576300DEF5087808120858EA2415F582EB125979
:105773000E12069EECF91229BD1246918A828B8382
:10578300A3A3A3A3A3A3A3A3A312505C120D4874C2
:105793000712089C02398EEC24020C0CED3400FD38
:1057A3002212591F1257ACE022E0F8A3E0F58388D8
:1057B30082A32288828983E508F0A3E509F0227495
:1057C300EA12037E74FD1209188A148B158C0E8D50
:1057D3000F890D7419120B0D125927741B120B0D1F
:1057E300E0F511741C120B0DE0F50C741D120B0D7A
:1057F300124D9D741F120B0DE0F5106008E50CC3EC
:1058030033240480027402C0E07401120B0DD0E053
:105813001259388A088B09EA450970030259038A29
:10582300828B83A3A3E514F0A3E515126431E50E7F
:10583300F0A3E50FF0EA2413F582EB12590EE50D00
:10584300F0EA2414F582EB12590EE511F0EA24175D
:10585300F582EB125FDE64017040120F348A0E8B07
:105863000FA80EA90F850882850983A3A3A3A3E02C
:10587300687003A3E0696022EE4F6011E508241A03
:10588300F582E50912590EEEF0A3EF800CE508242A
:1058930017F582E50912590EE4F01259121259272D
:1058A3008E828F837405F0A3E5107004E50C8048A5
:1058B3007401250C1259317A008028850A82850BE0
:1058C30083E012592D850A82850B83A3E08E828F94
:1058D30083F0E50A2402F50AE50B3400F50BA30E69
:1058E300AF830AEAC3950C40D2120F34EA12592D42
:1058F300120F34EB8E828F83F0AA08AB09120BF8D8
:1059030074030249D3EE240CF582EF12591F2212BD
:1059130029CE12591F22EE240BF582EF3400F583B2
:1059230022900334E0FEA3E0FF228E828F83F0A354
:10593300AE82AF8322123A10120FA022C082C0831C
:10594300E9C333FCE433FDEA2CFAEB3DFBEA24FE26
:10595300F582EB34FF12505A0235A574F212037E1E
:1059630089098A0A1254D9400479008040750800D5
:1059730080020508E508C39509502AE508C333F8F2
:10598300E433F9EE28F582EF39F583C082C0831240
:105993000F348A0C8B0DD083D082E0650C7004A386
:1059A300E0650D70CDE50A650870BE7901024E57BA
:1059B30074F012037E74F31209188A088B098C0A97
:1059C3008D0B890C750D00120FB8E9790060030285
:1059D3005AB5AA08AB09120DBAA90C120DAE8A0E5C
:1059E3008B0FAE0EAF0FEE4F7003025AB38E828F42
:1059F30083A3A3A3A3A3A3E0A2E24003025AB31287
:105A03000F34EA650A7003EB650B7011780D120809
:105A130058E4F50EF50F780E1208548044AA0AAB29
:105A23000B120BB0E96401706885188285198374C1
:105A330004F07401120B0D125388851882851983A3
:105A4300AA82AB83120B6EE964017045750D017870
:105A53000D120858E4F50EF50F780E120854750D63
:105A630000780D120858780D1208587408120B0D9F
:105A730085820E85830F780E1208549024EAE493EE
:105A8300F9AC0AAD0BAA08AB09120D48740712084A
:105A93009C8E828F83A3A3A3A3A3A3E0A2E1400DC3
:105AA3008E828F83A3A3A3A3A3A3C2E2F0750D01E8
:105AB300A90D02435674F612037EE9FE7900120D16
:105AC300BAEEF9120DAE8A088B09A808A909E849AC
:105AD300600612696CF98002790402398E74F61239
:105AE300037E7E0790035CE07034125B268A088B8A
:105AF30009A808A909E8496025900361E0640188C1
:105B0300828983A3A3700B125B2D88828983500142
:105B1300A3A3E0F91210C0E9FEEE70027E07EEF9CE
:105B230002398E1253791210A222E0FA88828983F5
:105B3300A3E0C39A2274EE12037EEAFEEBFF890A06
